:100000000C9432040C946A040C946A040C946A04F0
:100010000C946A040C946A040C946A040C946A04A8
:100020000C946A040C946A040C945B190C94971851
:100030000C9426210C946A040C946A040C946A04AF
:100040000C946A040C946A040C946A040C946A0478
:100050000C946A040C94D9200C946A040C946A04DD
:100060000C946A040C946A040C946A040C946A0458
:100070000C946A040C946A040C946A040C946A0448
:100080000C946A040C946A040C946A040C946A0438
:100090000C946A040C946A040C946A040C946A0428
:1000A0000C946A040C946A040C946A04710A870A1A
:1000B0008E0AC60AD70AE20AF20A050B480B4D0B54
:1000C000750B9F0BD90BDC0B5F125F128F128F1217
:1000D000281346138B148B145113C413D713D7133F
:1000E0009D16C4167918C416791810173317791885
:1000F00034184418FD377A585A000004E6D6B4463E
:100100000200210116000000742FE5A3E007F601AC
:10011000F15D003D8889C65436C3174FE4E4696336
:1001200022AEBC196BEFD4F24DD1909D141AE709A1
:10013000A9E3B56BEAA8755F321E7343D253EE4252
:10014000E9FCCB59554039DAD5C09C788288A21594
:10015000032C760804E66D4B10F6DBCB8FCA440106
:100160007B7072DCA851BE14B38828732CE2C5C61C
:10017000523A90175AD6BDBE363A6F66841CF41DAB
:100180009CF1F82220EFF348A463AF55BB1454C28E
:10019000D8C8934BFF87FF19AF79E7114E45720C12
:1001A0007CCC64D78A9FE9A67B9EDDC055028F7602
:1001B0004EE4BA0CD854EEB6080FCA992FA1101904
:1001C00008B442149EEF1D3FC90BC2919D22F4ADAD
:1001D00097584897CD116B8FFB84335225E21390CB
:1001E0005EFA9519893A62804167B905D8B5133C22
:1001F0001F8E34F4C9E55D41C5F7873F1F744BCEB0
:10020000C020CF58AE1D34E7B071CAD24A4488DE50
:100210003055AEB182AA983A50D738834CAC021F01
:100220003C8AA156DE8D6D967902EB0A4B903A928C
:100230001DA856DC3CD91D42B5EB6132DDA043EA76
:100240001825C069F8A21AE8C86530C7ED4F9F2984
:10025000B2D509EE1E1EECC9B20E11DAF0C00DB90E
:10026000B52ADFF69E3BD1DF77F084B98A80F85C4F
:10027000A8B334C73945EAD1CAED26849D13343476
:100280006EBA498325E3999E7E90AC56AB522CA65C
:10029000FED1F4287DBB43770BE93BBB0BF10DA8E6
:1002A00011551C1501694B4EC91D40FEC50EB67C8B
:1002B0007A72557CA302792909D8F85725080D3997
:1002C000C4C889A7E07213F0EC1532654FAB0DE09E
:1002D000267E17249F5AD7D027CEE2DE03C75C8143
:1002E00097A68BB3E1E9EDAE45E8F87859E1C10492
:1002F0002153A4EE3789D7F20A2743BA575569FD2F
:10030000FE20A141000000000D657F86AD9C5DB21E
:1003100000018D04F70F0000381C1684B1C467FB80
:10032000020000000004595A05010902A1018502DA
:100330000901A100050919012905150025019505E7
:1003400075018102950175038101050109300931AB
:100350001581257F95027508810609381581257F4D
:10036000950175088106050C0A38021581257F95CF
:100370000175088106C0C005010980A10185031926
:10038000012AB700150126B700950175108100C03C
:10039000050C0901A101850419012AA002150126F5
:1003A000A002950175108100C005010906A1018513
:1003B00006050719E029E715002501950875018153
:1003C000020507190029EF1500250195F075018137
:1003D0000205081901290595057501910295017518
:1003E000039101C00660FF0961A1010962150026A1
:1003F000FF009520750881020963150026FF00950E
:100400002075089102C005010906A101050719E040
:1004100029E71500250195087501810295017508E8
:1004200081010507190029FF150026FF00950675B3
:1004300008810005081901290595057501910295A6
:100440000175039101C009025B00030100A0FA09D4
:1004500004000001030101000921110100012240F3
:1004600000070581030800010904010002030000E0
:10047000000921110100012222000705820320004A
:100480000107050303200001090402000103000025
:100490000009211101000122BC000705840320008E
:1004A0000112010002000000087071737302300134
:1004B0000203011C037600690061006C003A0066CB
:1004C0000036003400630032006200330063000035
:1004D000001803730070006100630065005F007323
:1004E000007000610063006500000012037100707D
:1004F000006F0063006B006500740073000000046F
:1005000003090414001A000800150017004C001C11
:100510000018000C00120013000400160007000968
:10052000000A002B000B000D000E000F0034001D10
:10053000001B00060019000500E100110010003644
:10054000003700380000000000E300E0002A00004F
:10055000002C00E600AE00000000000100010001D8
:100560000001000100010001000100010001000183
:100570000001000100010001000100010001000173
:100580000001000100010001000100010001000163
:100590000001000100010001000100010000000055
:1005A0000001000100010000000100010001000045
:1005B0000000000100010001000100010001000134
:1005C0000001000100010001000100010001000123
:1005D0000001000100010001000100010001000113
:1005E0000001000100010001000100010001000103
:1005F00000010001000000000001000100010000F6
:1006000000010001000100000000000100010001E4
:1006100000010001000100010001000100010001D2
:1006200000010001000100010001000100010001C2
:1006300000010001000100010001000100010001B2
:1006400000010001000100010001000100000000A4
:100650000001000100010000000100010001000094
:100660000000000100010001000100010001000183
:100670000001000100010001000100010001000172
:100680000001000100010001000100010001000162
:100690000001000100010001000100010001000152
:1006A0000001000100000000000100010001000045
:1006B0000001000100010000000000010001000134
:1006C0000001000100010001000100010001000122
:1006D0000001000100010001000100010001000112
:1006E0000001000100010001000100010001000102
:1006F00000010001000100010001000100000000F4
:1007000000010001000100000001000100010000E3
:10071000000000010001000203000002000200FED0
:10072000020000030001000303000004000200E8CF
:10073000022220050001000403000006000200EA76
:10074000020000070002000003000008000100058D
:1007500003000009000200EC02FD1F0A000200EE87
:1007600002FD1F0B000200F002FD1F0C000200F250
:1007700002FD1F0D000200F402FD1F0E000200F634
:1007800002FD1F0F000200F802FD1F10000200FA18
:1007900002FD1F11000200FC02FD1F1200020006F4
:1007A0000300001300020008030000140001000A07
:1007B0000300000000000000000000000000000036
:1007C0000000000000000000000000000000000029
:1007D000000000000000007E0F00D4FFFFFFC700F4
:1007E00000007800000000000000002A2B28000014
:1007F00000000000000000000000000000002900D0
:100800000000002C1E3420212224342627252E36D9
:100810002D3738271E1F2021222324252633333647
:100820002E37381F0405060708090A0B0C0D0E0F9A
:10083000101112131415161718191A1B1C1D2F311D
:1008400030232D350405060708090A0B0C0D0E0F81
:10085000101112131415161718191A1B1C1D2F31FD
:1008600030354C0011241FBECFEFDAE0DEBFCDBF24
:1008700004B603FE18C08091FE049091FF04A0917D
:100880000005B09101058730904BA740B04B59F45B
:100890001092FE041092FF041092000510920105C0
:1008A000E0E0F8E3099511E0A0E0B1E0ECE4FAE65D
:1008B00002C005900D92A638B107D9F724E0A6E84A
:1008C000B1E001C01D92AE3FB207E1F70E946C0497
:1008D0000C9424350C940000CF93DF93CDB7DEB792
:1008E000E4970FB6F894DEBF0FBECDBF84B7877F05
:1008F00084BF0FB6F894A8958091600088618093BA
:100900006000109260000FBE90E080E80FB6F8948F
:1009100080936100909361000FBE85B7806885BFAA
:1009200085B7806885BF8CE996E2909387018093B4
:1009300086010E94B62C0E945D2C0E9426250E94F2
:10094000DB180E94FA188091E20084608093E20034
:1009500078948091E5018823A1F01091E9001F703F
:100960009091EC00892F817090FD80E8182B1092F7
:10097000E9008091E80083FD0E94B5151F70109377
:10098000E90082E084BD93E095BD9AEF97BD809326
:100990006E000E94062F811102C00E94F72E03E212
:1009A00011E0F7E2EF2EF1E0FF2ED8018D918D01DD
:1009B0008F3F11F00E94E126E016F106B1F707E241
:1009C00011E0F80181918F018F3F11F00E94E12623
:1009D000F1E002331F07A9F788E0ECEAF1E0DF015C
:1009E000E82E1D92EA94E9F7E8E8F1E0DF011D92B4
:1009F0008A95E9F780E090E00E949034893E9E4F0E
:100A000021F40E94062F811102C00E947C2982E0FD
:100A100090E00E948834809390010E946B2990930B
:100A2000CE038093CD030E94F826EFE3FCE93197D3
:100A3000F1F700C000000E94F8268091AC0180FF11
:100A400008C06FEF7FEF80E090E00E94B4340E9416
:100A5000B52083E090E00E9488340E94861B66E403
:100A600071E022E431E0A4E4B1E041E050E06A1733
:100A70007B0769F18D91E82FE295EF70F0E011A10D
:100A80008F707A0102C0EE0CFF1C8A95E2F7C70155
:100A90009E2D9095912391A392A1892B82A3F90178
:100AA00081919F01E82FE295EF70F0E011A18F7026
:100AB0007A0102C0EE0CFF1C8A95E2F7C7019E2D59
:100AC0009095912391A392A1892B82A3D0CF8FE8F7
:100AD00091E00197F1F700C0000083B18295817029
:100AE00029B130E0220F232F221F330B232B11F0CB
:100AF00092E001C090E0892B8093A50186B190E03F
:100B0000880F892F881F990B2FB130E0220F232FD8
:100B1000221F330B232B11F022E001C020E0822B97
:100B20008093A60180E091E09093C5038093C40375
:100B30008091E501853009F049C000E112E1809122
:100B4000E501853009F03EC08091E501843021F156
:100B50001092C803A8E1B0E0E0E40FB6F894A895BD
:100B6000A09360000FBEE093600083B7817F846034
:100B700083BF83B7816083BF7894889583B78E7F66
:100B800083BF0FB6F894A895809160008861809328
:100B90006000109260000FBE8091DB01882309F491
:100BA000CECF0E94F826ECEAF1E081919191892B59
:100BB00009F099C654EBE52E51E0F52EEE16FF062E
:100BC000A1F7BDCF0E94B41B0E94D8210E94F82635
:100BD00081110E940E21ACEAB1E0E1E9F1E000E010
:100BE00010E0702F2D913D91819191918227932753
:100BF000009779F160E0EE24E394F12CAC014E21F2
:100C00005F21452B09F16BA77CA72E213F2181E0B5
:100C1000232B09F480E08DA70E941A218160782F90
:100C20009FA78EA74BA55CA56DA58FA50E94D5316A
:100C3000000F111FF801EF56FE4F80819181E826C9
:100C4000F926F182E0821AC06F5FEE0CFF1C6B3058
:100C5000A9F60F5F1F4F0430110519F68FEF88AB0F
:100C600089AB1AAA0E941A218160782F9CAB8BABAA
:100C700048A959A96AA98CA90E94D53180910C0173
:100C800090910D01019669F1B12CA6E1AA2E20C028
:100C9000A89EF001A99EF00D1124EE5EFC4FE288A3
:100CA000F388E114F10421F4E0900003F0900103D3
:100CB000A89E8001A99E100D1124C8018E5E9C4F34
:100CC0006C01DC0116968C91169781110FC0B394BC
:100CD0008B2D90E020910C0130910D0128173907E0
:100CE000BCF680911A01811113C03AC01D968D91F6
:100CF0009C911E970E94FF20E816F90640F7C60156
:100D00000E942B22C801885E9C4F0E94E421DFCF05
:100D10008091E6029091E702009711F10E94FF2076
:100D2000209124023091250228173907C8F49091A8
:100D3000E4028091E502981759F00E947223109204
:100D40002502109224021092E7021092E60208C0D7
:100D50000E9401231092E7021092E6020E945323A0
:100D60008091030380FF1EC08091190182FF1AC089
:100D70000E941A212091200230912102AC01421BD5
:100D8000530B20911701309118014217530750F06F
:100D900029E931E041E0BC018091220290912302D7
:100DA0000E945E2455EAA52E51E0B52E63EAE62E98
:100DB00061E0F62E01EA11E072E4C72E71E0D72E51
:100DC000E4E46E2EE1E07E2E4501212C312CF3E08F
:100DD0004F2E512CF40181914F01E82FEE0FEE0FB1
:100DE000D3012D913D01A22FA295AF70B0E0909656
:100DF0008C9190E02F7002C0959587952A95E2F727
:100E00009C0121703327D6018D916D01A82FA295E9
:100E1000AF70B0E090964C9150E08F7002C0559545
:100E200047958A95E2F7CA018170992740FF02C071
:100E300082E090E0822B932B8E2BF50181935F0152
:100E40008F70E82FF0E0EE5CFE4F9081D7018C911F
:100E5000890F8C93833054F0F80180818F5F8083F9
:100E600060E0832D0E94C62D21E001C020E0D70163
:100E70008C918E3F4CF4F80180818150808361E039
:100E8000832D0E94C62D21E0D7018C91082E000CE5
:100E9000990BB2010E94E634F70181937F01222A67
:100EA00033940F5F1F4FF2E03F1294CF21100E9446
:100EB0000E2186E0EDE6F4E08E010F5F1F4FD801B2
:100EC00001900D928A95E1F7C0906F04D090700464
:100ED000E0907104F090720410926F04109270040C
:100EE0001092710410927204C11003C0DD2009F445
:100EF0005DC080916B0490916C040E94FF20AC0156
:100F000090916704992339F02091150130E024175E
:100F1000350758F04BC0209116018AE0289F9001B8
:100F200011242417350718F041C09F3F19F09F5F27
:100F300090936704CC2061F00E9407301C1414F4D5
:100F400091E001C09FEF899F802D112480936F0451
:100F5000DD2061F00E9407301D1414F491E001C0FF
:100F60009FEF899F802D11248093700430916F042E
:100F70003323E1F0209170042223C1F045EB3403C8
:100F8000C0011124992319F090936F0403C081E0EC
:100F900080936F0435EB2303C0011124992319F0CA
:100FA0009093700403C081E080937004E11003C04B
:100FB000FF2009F45DC08091690490916A040E9449
:100FC000FF20AC0190916604992339F02091110122
:100FD00030E02417350758F04BC0209112018AE009
:100FE000289F900111242417350718F041C09F3F16
:100FF00019F09F5F90936604EE2061F00E94CE2F5F
:101000001E1414F491E001C09FEF899F802D1124DC
:1010100080937104FF2061F00E94CE2F1F1414F4FE
:1010200091E001C09FEF899F802D1124809372046D
:10103000309171043323E1F0209172042223C1F036
:1010400045EB3403C0011124992319F090937104E6
:1010500003C081E08093710435EB2303C0011124A8
:10106000992319F09093720403C081E08093720475
:1010700080916F0481110BC080917004811107C0B1
:1010800080917104811103C08091720481110E94CA
:101090001F2FCB82DC82ED82FE8286E0F801ADE676
:1010A000B4E001900D928A95E1F70E94D8219091C9
:1010B000A70189138093A7018091E501843009F08D
:1010C00037CD83E08093E9008091E80082FF30CD46
:1010D0008091E80085FF21C00E94321A81111BC057
:1010E00040E2C42ED12C780109C08091F100D701D3
:1010F0008D937D01B1E0CB1AD10869F08091E800B1
:1011000085FDF3CF8091E8008B778093E8000E9403
:10111000321A882399F391E001C090E08091E800B1
:101120008B778093E800992309F402CDE090FD01CC
:10113000F090FE018981E114F10461F08E3F09F025
:10114000CEC38A81833008F4C0C18550833008F053
:10115000C6C3BBC18B3009F4A2C110F5853009F4B8
:1011600078C0B0F48230C1F130F4813009F0B5C3F9
:101170001A8289E08BC2833009F45EC0843009F0A2
:10118000ACC34C816B818A810E942F2C9D83C8C384
:10119000873009F4A2C308F0A0C30E94D4259FC3DE
:1011A000803109F4BEC060F48D3009F45FC008F4EA
:1011B0005BC08E3009F45DC08F3009F484C08DC3EC
:1011C000823109F4B3C008F4AFC0833109F4D8C048
:1011D0008E3F09F47AC181C38A81823009F499C3B0
:1011E000833051F0813009F078C30E940E219B8337
:1011F0008C837D836E8373C38091F9019091FA0192
:10120000892B09F46CC38091AC019091AD019B8353
:101210008C838091AE019091AF019D838E838091EC
:10122000B0019091B1019F8388878091B201909124
:10123000B30199878A8753C38A81823009F04DC3ED
:101240006B817C818D819E810E9400350E94D52E0C
:1012500046C32D813E813227232732274C816B8163
:101260008A810E94F92B3BC380E1D5C21A828DEAA4
:101270000DC2EA80FB80FE24EF24FE24AC80B12C5A
:10128000EDE1AE16B10408F02AC36801C7018D5A1A
:101290009C4F9601201B310B2A153B0508F01FC3FC
:1012A000FDEAEF16F10430F40E948834D60114965A
:1012B0008C9302C0F6011482FFEFEF1AFF0A2FEFA2
:1012C000C21AD20AE3CF8091F9019091FA01892BD9
:1012D00009F405C3EA80FB80FE24EF24FE24CC80C1
:1012E000D12C3DE1C316D10408F0F9C25801C70161
:1012F0008D5A9C4F9501201B310B2C153D0508F094
:10130000EEC24DEAE416F10428F4D50114966C916E
:101310000E949634BFEFEB1AFB0AEFEFAE1ABE0A3B
:10132000E6CF0E94A825DBC286E075C2EA80FB807A
:10133000FE24EF24FE24AC80B12CFDE1AF16B104F5
:1013400008F0CDC26801C70187969601201B310BBA
:101350002A153B0508F0C3C220E1E21622E0F2069E
:1013600030F40E948834D60114968C9302C0F601A2
:101370001482FFEFEF1AFF0A2FEFC21AD20AE3CF4F
:10138000EA80FB80FE24EF24FE24AC80B12C3DE1FA
:10139000A316B10408F0A3C240E1E41642E0F4064B
:1013A00008F09DC280E192E08E199F098A159B0585
:1013B00008F495C2370187E2680E711C8091F9012B
:1013C0009091FA01892B11F0680160C0E0FE0FC016
:1013D000C70186960E94883490E0982F88272D8137
:1013E000822B81159C4531F48FEF8D8303C0C12C76
:1013F000D12C03C0CC24C394D12CC5018E0D9F1DCC
:10140000450180FF1BC0B1E08B1A9108B5E04B2E5F
:10141000512C4C0E5D1E480C591CC3018A0D9B1D9E
:101420000E948834F201208130E0322F2227282BBD
:1014300021153C4519F48FEFD2018C93F801EC0D86
:10144000FD1D2FEFCF01801B910B8815990508F02A
:10145000BBCF848190E0982F88273581832B81151D
:101460009C4511F4248325833296ECCFE0E1EE16FF
:10147000E2E0FE0628F4D60114966C910E949634A0
:10148000BFEFEB1AFB0AEFEFCE1ADE0AC701879611
:101490009601201B310B2A153B0540F320C2809199
:1014A000F9019091FA01892B09F419C2C8010E942F
:1014B000911AFFEF21EE34E0F15020403040E1F787
:1014C00000C000000E94B5200AC2EA818E2F90E081
:1014D0008E30910508F003C2FC01EA5AFF4F0C94CC
:1014E000FA3488E0EBE1F1E0DE01919601900D9293
:1014F0008A95E1F780E2D8011D928A95E9F785E0A7
:10150000898388E0FE01B196DE011596C2C184E3AD
:10151000898382E08A831B821C82E1C18C8190E0F6
:10152000982F88272B81820F911D092E000CAA0B62
:10153000BB0B75E0880F991FAA1FBB1F7A95D1F7C7
:10154000AC01BD01405E5F4F6F4F7F4F4817590799
:101550006A077B0708F4C3C18433E2E09E07A10554
:10156000B10508F0BCC14533F2E05F0761057105C4
:1015700020F044E352E060E070E0481B590BBC01EE
:101580006C507F4FC8010E946F34A9C1FB80EC8072
:1015900040E06E2D8F2D0E94C92B99838A8341E0F4
:1015A0006E2D8F2D0E94C92B9B838C8398C12E8119
:1015B0003F813227232732274D816C818B810E9406
:1015C000912B8DC140E250E06FEF70E0C8010E94A6
:1015D0001D358091F9018983EA821B821C821D825C
:1015E00081E09EC181E090E09093FE018093FD0137
:1015F00082E390E09093AB018093AA010E941A21AC
:101600009093A9018093A8016AC1EF28B9F1809154
:10161000AC019091AD019C01369527958170F82E13
:10162000F2228091A8019091A9010E94FF208536A5
:101630009105F0F0FF20E1F00E941A219093A9019A
:101640008093A8018091AA019091AB01019790939A
:10165000AB018093AA01892B89F41092FE011092AC
:10166000FD0181E090E09093FA018093F90106C0BA
:1016700082E390E09093AB018093AA018091F901FD
:1016800089838091FD018A838091AA018B8327C180
:101690001092FA011092F90122C1EB80FC8040E225
:1016A00050E06FEF70E0C8010E941D3523E137E084
:1016B000A3EBB7E080E090E0AC014E5F5F4F4132BA
:1016C000510508F00CC1F90165917491E616F70611
:1016D00030F4F801E80FF91F71836083CA01285FB5
:1016E0003F4FA217B30741F7FAC04B815C8123EB50
:1016F00037E083E197E0FC01659174914617570745
:1017000029F0089628173907B1F7E7C0009709F4C0
:10171000E4C09C012E5F3F4FF90145915491403246
:10172000510508F0DAC0F90145915491FC01349655
:1017300065917491CE0102960E94143538C02B81B8
:101740003C8183EB97E043E1E42E47E0F42EF70180
:10175000459154912417350739F048E0E40EF11C07
:101760008E159F05A1F7B9C0E114F10409F4B5C0C5
:10177000C7010296FC01259134912D31310508F005
:10178000ACC0FC0145915491F70134968591949138
:10179000BE016B5F7F4F0E9414350E944D25F701FB
:1017A000369685919491009711F0FC01099580E09F
:1017B00095C00E946A2593C08B81823071F1E8F454
:1017C000882309F1813009F08AC08C819AE0F92ED2
:1017D0006E01B1E2CB0ED11CF601EF2C1192EA940E
:1017E000E9F7B6010E9487268983F601DE01129689
:1017F00001900D92FA94E1F772C0833069F1843060
:1018000009F44CC06CC080E2D8011D928A95E9F7BA
:1018100088E089838CE08A8362C06C818AE0FE0163
:101820003596DE01919601900D928A95E1F7683028
:1018300070F42AE0629FB001112465577D4F4AE0A1
:1018400050E0CE0181960E94BA3480E001C08FEF53
:1018500089830E94B62C43C06C81CE0181962AE018
:10186000DC011D922A95E9F76C3060F4BAE06B9FB9
:10187000B001112465527D4F4AE050E00E94783457
:1018800080E001C08FEF89838AE0FE01B196DE011E
:10189000129601900D928A95E1F721C06C818AE041
:1018A000FE013596DE01919601900D928A95E1F741
:1018B0006C3070F4EAE06E9FB001112465527D4FE8
:1018C0004AE050E0CE0181960E94BA3480E001C027
:1018D0008FEF89830E945D2C02C08FEF8983C8013E
:1018E0000E94911A25C909BD19BD09B400FEFDCF9A
:1018F0008091D8008F7D8093D8008091E000826035
:101900008093E0008091E00081FDFCCF0E94B41B39
:1019100016C986E290E00E9488341B821C821D82D8
:101920008E83DDCF6F927F928F929F92AF92BF9204
:10193000CF92DF92EF92FF920F931F93CF93DF939B
:1019400000D000D0CDB7DEB77C01DC0113964D91FD
:101950005C91149711966C9111978C910E94C422FE
:1019600081110C94DC1461E0C7010E94C7318C0125
:10197000F7018281811106C0D70112968C918111E5
:101980003EC0F0C080910C0190910D010196A1F331
:1019900062E1C62E63E0D62EA12CB12C992493943B
:1019A00080910C0190910D018A159B052CF3F60195
:1019B00086818823E9F0818592850817190739F413
:1019C00080911003909111030817190789F0D6012F
:1019D0001F969C921F971C961C930E931B97C601F3
:1019E0000E942B22C60106960E94E42110920F034A
:1019F000BFEFAB1ABB0AE6E1CE0ED11CD1CFC801B6
:101A000082519F45409708F0CAC08FEF93E00E9433
:101A100088348111B1C0025153E5A52E53E0B52E93
:101A2000002379F0A114F4E0BF0609F4A5C0C501B4
:101A30000E948834811101C001502FEFA21AB20A0E
:101A4000EFCF19821A821B821C82CC24CA94850192
:101A50000F5F1F4FC5010E94883489831A82882333
:101A600009F48AC0813009F078C0450182E0880E0F
:101A7000911CC8010E948834D82E8A83882309F4D7
:101A80007BC08FEF8D0D833050F40E5F1F4FC4016C
:101A90000E9488348B83811160C05801D8CF8BEFAE
:101AA0008D0D833070F5350193E0690E711CC40112
:101AB0000E9488348B83811102C08301EECF85019F
:101AC0000C5F1F4FC3010E9488348C83882329F345
:101AD0002B813C812130AFEF3A0718F0922F80E044
:101AE00001C0C901B6E0DB1631F0E7E0DE1631F0E7
:101AF0000E941A2ED2CF0E94952DCFCF0E940C2D7E
:101B0000CCCFF4E0DF1611F08401C7CFC4010E94EE
:101B10008834D82E85010C5F1F4FC50103960E94A3
:101B20008834DD2049F1882339F1282F30E0215015
:101B30003109C29EA001C39E500D11248D2D90E04D
:101B40000197840F951F019708F4A7CFAFE9BFE075
:101B50001197F1F700C00000F6CFCE0101960E9468
:101B6000EB309BCF00318FE5180709F0D7C381E038
:101B70000E946F1B0E94AA1580913F04877009F490
:101B80001BC7D70112968C91882309F415C7809141
:101B9000CE0382FD11C782E00E94202A0DC70031CA
:101BA000BFE51B0711F481E005C00131EFE51E0719
:101BB000A1F482E00E947B1BDDCF6801F7E5DF1A0C
:101BC0002FEFC216D10409F040F46CE774E08C2DBD
:101BD0000E948726892B09F4A8C3C80197558F3F17
:101BE000910511F008F053C020910C0130910D01C6
:101BF0002817390724F490930D0180930C01D70125
:101C000012962C91129736E1389F5001399FB00CF3
:101C10001124F501EE5EFC4F6F01208B12969C9112
:101C20008681992351F1128701878F5F86830E94F5
:101C30001A21D6011E969C938E931D978091620463
:101C400017968C93179790910F038091FF01892B22
:101C500018968C931897ED91FC911197309741F05D
:101C600054966D917C915597C501885E9C4F09955E
:101C700010931103009310030AC0882341F0818957
:101C8000882329F0C501885E9C4F0E94E421809141
:101C9000030380FFBFC00E941A216C01D701129676
:101CA0008C918823D9F18091190182FF08C029E91C
:101CB00031E040E0B60180E090E00E945E240B310C
:101CC000BCE51B0779F00C31ECE51E0789F00A3101
:101CD000FCE51F07A1F480911901982F909590FBC6
:101CE00080F909C08091190181608093190107C0B2
:101CF000809119018E7F809319010E942124C801CF
:101D00009056811520E2920720F0905E8115904157
:101D100080F510922302109222027CC0013E110530
:101D200021F4809119018F7E06C0053E110531F422
:101D3000809119018F7D809319011BC0C8019056B5
:101D40008115B0E29B0720F0905E8115904188F4E8
:101D50008091190182FF5EC08091050381FD5AC008
:101D600029E931E040E0B60180E090E00E945E2485
:101D700051C08091190180FF4DC0D70112968C91FE
:101D80000832110538F40E311105B8F4043011058C
:101D900078F41CC00933110538F40D32110590F4A4
:101DA0000B32110579F012C00436110559F00EC03E
:101DB0009091030394FD0AC0BEC19091030393FD6B
:101DC00005C0B9C19091030392FFB5C1882311F1F9
:101DD0001092230210922202033FBCE51B07B9F1C7
:101DE00078F4083DFCE51F0761F1093D2CE5120779
:101DF00009F44EC0073D8CE5180709F057C01BC019
:101E0000053F9CE51907A1F168F1063FBCE51B07FA
:101E1000C9F14CC0033FFCE51F07C9F0F0F4083DD1
:101E20008CE5180771F0093D9CE5190789F1073D1C
:101E3000ACE51A07B1F506E221EE41EE67ED7CE56F
:101E40002CC007E225EE45EE68ED7CE526C006E2F3
:101E500021EE40EE63EF7CE520C0053FBCE51B07AB
:101E600039F060F407E225EE44EE64EF7CE515C03E
:101E700006E221EE42EE65EF7CE50FC0063FFCE591
:101E80001F0779F407E225EE46EE66EF7CE505C014
:101E900008E221E045EE69ED7CE5C7010E944D2294
:101EA0006BCEF7012281222309F4F3C110920E03B5
:101EB0000330FDE51F0758F40A3F2CE5120780F4B4
:101EC000C80182509C45449708F0E2C109C0013620
:101ED0008DE5180729F0053A9DE5190709F0D8C1E5
:101EE0000E946B299093CE038093CD030131ACE522
:101EF0001A0709F4C6C008F042C00930ECE51E0715
:101F000009F49BC000F505302CE5120709F485C0E3
:101F100078F403309CE5190709F478C008F07AC01A
:101F200002301C4509F0F7C08091CD038160F1C0FB
:101F30000730ECE51E0709F478C008F07AC08091FC
:101F4000CD038061E6C00D302CE5120709F487C08F
:101F500058F40B309CE5190709F479C008F07BC0F0
:101F60008091CD0388606FC00F30BCE51B0709F47A
:101F700080C008F082C08091CD03877FCAC00D3F2A
:101F8000FCE51F0709F471C000F505318CE5180761
:101F900009F485C068F40331ACE51A0709F475C08B
:101FA00008F095C00E94B41B8091CD038F77B1C01B
:101FB0000B3FECE51E07A9F108F054C00A3F1C4591
:101FC00009F0A9C08091CE0340C001308DE518070B
:101FD00009F489C058F40F3FACE51A0709F45AC058
:101FE00008F069C08091CE0382602FC00136EDE514
:101FF0001E0709F47EC0053AFDE51F0709F483C0FA
:1020000002301D4509F087C060E06EC08091CD03AD
:1020100082607FC08091CD0316C08091CD0388601F
:1020200078C08091CE0382604FC08091CD038062E2
:1020300070C08091CD0380646CC00E94B41B8091FD
:10204000CD03806866C0846064C081603DC08091BB
:10205000CD038E7F5EC08091CD038D7F5AC080916D
:10206000CD0316C08091CE0318C08091CE038D7F22
:102070002BC08091CD038F7E4CC08091CD038F7D8E
:1020800048C08091CD038F7B44C08091CD03877F72
:102090008B7F3FC08091CE038D7F8E7F15C0809156
:1020A000CD0382FB222720F991E0922790FB82F951
:1020B00090FB83F92EC08091CE03982F909591705C
:1020C0008E7F892B90FB81F98093CE0324C00E94E0
:1020D000B41B8091CD0387FB222720F991E0922742
:1020E00090FB87F916C061E08EE090E00E94963484
:1020F00012C08091CD0384FB222720F991E0922722
:1021000090FB84F906C08091CD03982F909590FBA9
:1021100080F98093CD036091CD031091CE0384E0CC
:1021200090E00E949634612F82E290E00E94963403
:102130000E94B41B21CD882309F4A3C02091FF0184
:1021400080916204982F922B392F3D7F79F1109264
:102150002302109222023091030331FD27C0F801BF
:1021600043E0F695E7954A95E1F7EE71FF27E050D9
:10217000FE4F98012F70332781E090E002C0880F56
:10218000991F2A95E2F780959095208131818223CD
:10219000932391838083A70160E0C8010E943F24BC
:1021A000809162048D7F0E94F12967C038E0F701B9
:1021B000A9E9B1E001900D923A95E1F710929B01E7
:1021C00010929D0110929C01409122025091230295
:1021D00004171507D1F53091030335FF36C0409140
:1021E000190141FF02C036FF30C0409120025091DA
:1021F0002102B601641B750B40910003509101034D
:102200006417750710F521FF08C0809119018061DE
:102210008093190182E00E940C2A8091FF0185FFC2
:1022200008C08091190180628093190180E20E94A8
:102230000C2A6091190166956170A70180912202B4
:10224000909123020E943F2497CC96959170209103
:10225000190190FB21F9209319018D7F0E94F1292A
:102260001093230200932202D0922102C0922002F6
:102270008091190184608093190182E00E94202AD4
:102280007BCC970140E0B601C8010E945E2474CC6B
:1022900021E006318CE5180709F085C08091FF0127
:1022A000982F9A7A3091020330FF04C0482F44746B
:1022B00009F090E031FF04C0482F417109F090E02F
:1022C00032FF04C0482F487809F090E033FF02C085
:1022D000827261F42223A1F081E0911101C080E0BB
:1022E0008093B401992331F065E305C0222341F0C6
:1022F0001092B40169E282ED93E00E9477210BC055
:102300008091B401882311F065E301C069E282ED98
:1023100093E00E944F210E948A2A2ECC01319FE532
:10232000190709F04ACC82E023CC86E18C9DF001AC
:102330008D9DF00D1124EE5EFC4F86818130E1F41D
:1023400080917C0490917D04892B09F446CC809186
:102350007E0490917F04892B09F43FCC8091800406
:1023600090918104892B09F038CC8091820490915E
:102370008304892B59F031CC823009F02ECC809126
:10238000800490918104892B09F427CC26E12C9DAF
:10239000C0012D9D900D11248E5E9C4FFC01108A72
:1023A0000E942B221ACCD70112968C91882389F196
:1023B0000A358DE5180741F150F40115ACE51A070F
:1023C000A9F00E3D1C4529F50E947C29D5CB0B3583
:1023D000EDE51E07D9F00C351D45D9F48091CE03EB
:1023E00082FB882780F991E0892711C00E94B41BE5
:1023F0002FEF84E39CE0215080409040E1F700C043
:1024000000000E94B520B8CB81E001C080E00E94AE
:102410003D2AD70116968D919C9117970097B9F494
:10242000F701828100811181882349F0C8010E944F
:10243000D21AD82E682FC8010E943E1B04C0C801C2
:102440000E940E1BD82EB8018D2D0E94B8250E9427
:10245000D127182F092FD7011296BC9012971596E5
:10246000CC90C2943FE0C32280913F048770B9F0C2
:10247000BB20A9F0892F807F803421F080E2810F7A
:10248000883068F08091CE0382FD09C082E00E940E
:10249000202A80913F048770AA24A3948111A12C43
:1024A000902E92942FE09222892D90E08C3091050D
:1024B00008F031C2FC01EC59FF4F0C94FA34902F14
:1024C0009F70802F807FD92E19F0D29490EFD9225F
:1024D000BB20A9F0DD2009F4FEC180E2810F883025
:1024E00010F0111104C08D2D0E94132A05C0809197
:1024F0000F03D82AD0920F030E948A2AECC1812FA1
:102500000E94E81BDD2009F406C280E2810F8830BA
:1025100068F1112359F18D2D0E94052A2AC0902FB0
:102520009F70802F807FD92E803219F0D29480EF57
:10253000D822112321F0113009F45CC067C08091CA
:10254000CE0382FF19C0BB2059F0DD2029F08D2D6C
:102550000E94132A0E948A2A80E00E943C1CDBC150
:1025600080E00E94E81BDD2009F4D5C18D2D0E947A
:102570000C2A0E948A2ACFC1BB2001F1CC20D1F0C5
:10258000B1E0CB1206C0809162048D290E94F1292E
:10259000C2C180910403823068F0C8120BC00E944F
:1025A000E62980913C04D812D0923C048D2D0E94E3
:1025B000E11BB1C1809162048D29F9CFCC2079F063
:1025C00080910403E1E0CE1210C0823008F4A3C170
:1025D0008091FF018D2109F49EC10E94EE2A0E9484
:1025E000E6298D2D0E94DA1B96C18230C0F3C812F5
:1025F000F6CF91C180910A03BB2021F08C1508F41D
:102600008AC1D4CFC81608F086C1EBCFBB20E9F051
:10261000CC2061F220E0D7014C9111965C9111978A
:1026200012966C91129713967C91139714968C9135
:102630000E949E318091050381FD4DC1F701858186
:1026400080FF49C18F708583B1CFC1104DC1C9CF03
:10265000802F86958695837019F0813061F05BC17B
:10266000BB2021F0812F902F937002C080E090E07A
:102670000E94C22156C1BB2021F0812F902F937060
:1026800002C080E090E00E94AC214BC1812FBB20B2
:1026900019F00E94563002C00E94492F0E941F2F3D
:1026A00040C1802F8370A1F5B11039C1412F4295EF
:1026B00046954770440F440F212F2F7030E0C90119
:1026C000042E01C0880F0A94EAF714FF08C02FE017
:1026D00030E001C0220F4A95EAF7209501C020E0C2
:1026E000302F369536953370323069F040F4409192
:1026F0007304313019F0822B842302C0842B822B87
:102700000E94861B0CC1282B809173048227F8CF6E
:10271000BB2019F0802F817001C08695882309F4B1
:10272000FEC0412F429546954770440F440F212F1C
:102730002F7030E0C901042E01C0880F0A94EAF717
:1027400014FF08C02FE030E001C0220F4A95EAF7DD
:10275000209501C020E0302F369536953370323009
:1027600051F070F44091E601313019F0822B84234E
:1027700008C0842B05C0282B8091E601822701C068
:10278000822B0E946B1BCBC0F02FFF70DF2EBB2073
:1027900039F08F2F0E947B1B812F0E94E11BBFC04D
:1027A000812F0E94DA1B8D2D0E946F1BB8C0123F33
:1027B00011F128F4103F41F0113FA9F188C0133FF7
:1027C00001F1143F61F183C080910A03BB2021F025
:1027D000C81608F0A0C003C08C1508F49CC0202FB8
:1027E0002F7181E090E001C0880F2A95EAF790915F
:1027F000E60189270FC0802F8F71BB2009F46FC0BD
:1028000086C0BB2051F081E0902F9F7101C0880FDE
:102810009A95EAF70E946B1B7EC080E0FBCF809107
:10282000CE0382FF06C0802F8F71BB2009F46FC0DA
:1028300056C0809104038230A0F180913C04BB20FB
:10284000E1F00E940C2A80913F048770843039F4B3
:102850000E94192A802F8F710E946F1B5BC080918C
:102860000403C81608F056C0202F2F71D22E822FD5
:102870000E947B1B63E08D2D0DC00E94132A809166
:102880000403C81650F00E94192A0E94EE2A64E040
:10289000802F8F710E945A2A3DC081E00E94202A19
:1028A00039C0BB2051F0802F8F71D82E0E947B1B26
:1028B00063E08D2D0E945A2A2EC081E00E94202ABA
:1028C00091E09C1540F582E00E94202A24C0BB20A4
:1028D00049F0CC2011F0812F40CE802F8F710E94C3
:1028E0007B1B19C0CC2089F0193329F4809108038F
:1028F0009091090304C080910603909107030E9400
:102900005324812F0E94E81B06C0802F8F710E94E4
:102910006F1B01C0A12C88EF890D843010F40E9438
:10292000D821812F902F0E948A1B811105C01092FF
:10293000B6011092B50125C0BB2019F0C110F7CF28
:1029400020C0C110F4CF20E0D7014C9111965C91CA
:10295000119712966C91129713967C911397149677
:102960008C910E949E318091050383FFE0CF80917E
:10297000B5019091B6010297D1F6812F0E94F01C0B
:10298000D6CFAA20A9F080913F0480FD11C0F701A5
:1029900012828595859585950E947B1BC7010E94B3
:1029A000920C80913F048595859585950E946F1BBB
:1029B00060E0C7010E94C7310F900F900F900F90F9
:1029C000DF91CF911F910F91FF90EF90DF90CF900B
:1029D000BF90AF909F908F907F906F90089580915F
:1029E000DD0187FF11C08091E80082FD05C0809164
:1029F000E5018111F8CF11C08091E8008B770BC001
:102A00008091E501882349F08091E80080FFF8CFAC
:102A10008091E8008E778093E8000895982F973092
:102A200068F59093E900981739F07091EC002091C7
:102A3000ED005091F00003C0242F762F50E021FDCF
:102A400002C09F5FECCF3091EB003E7F3093EB00F4
:102A50003091ED003D7F3093ED003091EB0031601F
:102A60003093EB007093EC002093ED005093F00056
:102A70002091EE0027FDE5CF80E008958F708093D0
:102A8000E90081E008952091E3013091E4012617E7
:102A9000370748F06115710539F42091E8002E7769
:102AA0002093E80001C0B901FC0120E06115710527
:102AB00079F18091E5018823F1F18530F1F1809180
:102AC000E80083FD3CC08091E80082FD2EC080912B
:102AD000E80080FFEBCF2091F3008091F20090E0BE
:102AE000922B6115710551F08830910538F42191D0
:102AF0002093F100615071090196F3CF21E008970E
:102B000009F020E08091E8008E778093E800CECF36
:102B10002111CFCF0AC08091E501882361F0853073
:102B200061F08091E80083FD0AC08091E80082FF97
:102B3000F2CF80E0089582E0089583E0089581E077
:102B400008950895BC0184E00C948B20BC0183E0BF
:102B50000C948B208091E601982F9670963011F49A
:102B6000886001C0877F0C946B1B1F93CF93DF930A
:102B7000CDB7DEB7AA970FB6F894DEBF0FBECDBFB4
:102B8000EDEDF1E085EE91E02091F10021938E17BB
:102B90009F07D1F78091DE01833009F463C030F4E0
:102BA000813071F0823009F49DC0B4C08A3009F4DC
:102BB00089C08B3009F46EC0893009F0ABC020C0E9
:102BC0008091DD01813A09F0A5C08091E800877FFE
:102BD0008093E8008091E1019091E201892B21F43A
:102BE00060E28AEB91E003C060E080E090E070E09A
:102BF0000E9443158091E8008B778093E8008AC09B
:102C00008091DD01813209F085C08091E1019091D0
:102C1000E201009719F0029709F07CC08091E8006A
:102C2000877F8093E8008091E80082FD05C0809155
:102C3000E5018111F8CF6EC02091F3008091F20080
:102C400090E0922B029731F48091F100813011F0E5
:102C5000863021F48091F1008093B9018091E800E1
:102C60008B7754C08091DD01813A09F053C0809187
:102C7000E1019091E201892B09F04CC08091E800BC
:102C8000877F8093E8008091E80080FFFCCF8091EF
:102C90000E0137C08091DD018132E1F58091E101C3
:102CA0009091E201892BB1F58091E800877F8093B4
:102CB000E8000E94EF148091DF0180930E010E94D2
:102CC000B41B28C08091DD01813221F58091E8009C
:102CD000877F8093E8000E94EF148091E001809349
:102CE000B80118C08091DD01813AA1F48091E8001B
:102CF000877F8093E8008091E80080FFFCCF80917F
:102D0000B8018093F1008091E8008E778093E8000D
:102D10000E94EF148091E80083FFEBC18091DD01F8
:102D20009091DE01492F50E04A30510508F0E1C191
:102D3000FA01E059FF4F0C94FA34803821F08238C0
:102D400009F0D7C108C08091DA019091DB01992385
:102D500089F082600FC08091E1018F70873008F0A8
:102D6000C8C18093E9008091EB0085FB882780F93A
:102D70001092E9009091E800977F9093E80080938B
:102D8000F1001092F1007CC1282F2D7F09F0B1C114
:102D9000882319F0823061F0ACC18091DF0181306D
:102DA00009F0A7C1933009F080E08093DB012EC0C9
:102DB0008091DF0181112AC08091E1018F702FEF96
:102DC000280F263008F095C18093E9002091EB0090
:102DD00020FF1CC0933021F48091EB00806214C06E
:102DE0009091EB0090619093EB0021E030E0A9011D
:102DF00002C0440F551F8A95E2F74093EA001092F3
:102E0000EA008091EB0088608093EB001092E9006B
:102E10008091E800877F8093E8000E94EF1469C1E9
:102E2000811167C11091DF011F778091E3008078E5
:102E3000812B8093E3008091E800877F8093E800F6
:102E40000E94EF148091E80080FFFCCF8091E300A6
:102E500080688093E300111102C082E001C083E02A
:102E60008093E50146C18058823008F042C120912C
:102E7000DF013091E0012C3D53E0350779F583E027
:102E80008A838AE289834FB7F894DE01139620E0A3
:102E90003EE051E2E32FF0E050935700E49120FF31
:102EA00003C0E295EF703F5FEF708E2F90E0EA3045
:102EB00010F0C79601C0C0968D939D932F5F24316B
:102EC00049F74FBF8091E800877F8093E8006AE26E
:102ED00070E0CE0101960E944315C0C08091E101CF
:102EE0009091E201432F552743305105B1F068F42A
:102EF0004130510509F40CC14230510509F0F9C0C7
:102F00008BE590E0E6E4F4E057C04132510589F1E9
:102F10004232510509F43CC0ECC0C9019927813007
:102F20009105B9F070F082309105D9F0039709F05E
:102F3000E0C0E3EBF4E0E4918E2F90E0E3EBF4E00B
:102F400038C0EFEFF4E0E4918E2F90E0EFEFF4E083
:102F500030C0EBEEF4E0E4918E2F90E0EBEEF4E085
:102F600028C0E1EDF4E0E4918E2F90E0E1EDF4E093
:102F700020C08330910508F0BCC0880F991FFC0168
:102F8000E15BFE4F0190F081E02D89E090E014C0FC
:102F90008330910508F0ADC0FC01EE0FFF1FE75B29
:102FA000FE4F0190F081E02DDC01AA5BBE4F8C91B9
:102FB00090E0009709F49DC02091E800277F2093BE
:102FC000E8002091E3013091E4012817390708F463
:102FD000C90140E0009789F12091E501222309F41D
:102FE0003DC02530D9F12091E80023FD37C0209164
:102FF000E80022FD2FC02091E80020FFEBCF409198
:10300000F3002091F20030E0342B009759F0283083
:10301000310540F444914093F100319601972F5FC0
:103020003F4FF3CF41E02830310509F040E02091D7
:10303000E8002E772093E800CDCF4111CDCF0AC014
:103040008091E501882351F0853041F08091E800BE
:1030500083FD04C08091E80082FFF2CF8091E800F8
:103060008B778093E80045C0803809F042C080919A
:10307000E800877F8093E8008091DC018093F10075
:103080008091E8008E77C7CE811133C08091DF0137
:103090009091E0019927029764F58091E800877F7D
:1030A0008093E8001091DF011093DC010E94EF147F
:1030B000111106C08091E30087FD02C081E001C0CC
:1030C00084E08093E50142E061EC81E00E940E150E
:1030D00042E261EC84E00E940E1542E261EC82E083
:1030E0000E940E1542E260EC83E00E940E15809172
:1030F000E5018091E80083FF10C08091E800877FA0
:103100008093E8008091EB0080628093EB0005C023
:1031100082E190E0E1EAF4E04FCFAA960FB6F8948E
:10312000DEBF0FBECDBFDF91CF911F9108951F92DB
:103130000F920FB60F9211242F933F934F935F93EB
:103140006F937F938F939F93AF93BF93CF93DF93AF
:10315000EF93FF93C091E900CF708091EC00D82FDE
:10316000D17080FDD0E81092E9008091F000877F57
:103170008093F00078940E94B5151092E900809138
:10318000F00088608093F000CD2BCF70C093E900F1
:10319000FF91EF91DF91CF91BF91AF919F918F916F
:1031A0007F916F915F914F913F912F910F900FBE43
:1031B0000F901F901895E8EDF0E080818E7F80835E
:1031C0001092E2001092DA001092E100A0EEB0E05E
:1031D0008C9181608C9380818F77808319BCA7ED5F
:1031E000B0E08C918E7F8C9380818F7E8083109253
:1031F000B7010895CF92DF92EF92FF920F931F9342
:10320000CF93DF93C8EDD0E088818F7E8883E7ED90
:10321000F0E080818160808384E082BF81E08093E0
:10322000B70188818E7F888302EE10E0F80110825A
:103230001092DA0081EEC82ED12CF601108288811E
:103240008F77888388818068888388818F7D888351
:1032500019BC1092E5011092DC011092DB01109272
:10326000DA0190EEE92EF12CF70180818B7F8083CB
:1032700088818160888342E060E080E00E940E15D2
:10328000F60180818E7F8083F80180818160808358
:10329000808188608083F70180818E7F8083888130
:1032A00080618883DF91CF911F910F91FF90EF9004
:1032B000DF90CF9008951F920F920FB60F921124B6
:1032C0002F933F934F935F936F937F938F939F932E
:1032D000AF93BF93EF93FF938091E10082FF09C00A
:1032E0008091E20082FF05C08091E1008B7F809396
:1032F000E1008091DA0080FF2AC08091D80080FF31
:1033000026C08091DA008E7F8093DA008091D90008
:1033100080FF18C080E189BD82E189BD09B400FE4B
:10332000FDCF81E08093E5018091B70181110FC04D
:103330000E94DB180E94FA188091E200846080935A
:10334000E20005C019BC1092E5011092B70180910E
:10335000E10080FF17C08091E20080FF13C08091E0
:10336000E2008E7F8093E2008091E2008061809392
:10337000E2008091D80080628093D80019BC85E07B
:103380008093E5018091E10084FF30C08091E200EC
:1033900084FF2CC080E189BD82E189BD09B400FEB3
:1033A000FDCF8091D8008F7D8093D8008091E1007F
:1033B0008F7E8093E1008091E2008F7E8093E20017
:1033C0008091E20081608093E2008091DC0188239B
:1033D00011F084E007C08091E30087FD02C081E026
:1033E00001C083E08093E5018091E5018091E100D7
:1033F00083FF27C08091E20083FF23C08091E1001A
:10340000877F8093E10082E08093E5011092DC01E8
:103410008091E1008E7F8093E1008091E2008E7FB9
:103420008093E2008091E20080618093E20042E0BC
:1034300060E080E00E940E158091F000886080932B
:10344000F000FF91EF91BF91AF919F918F917F918C
:103450006F915F914F913F912F910F900FBE0F9001
:103460001F9018952091E4003091E50095E6409179
:10347000EC00842F817040FF23C08091E80080FD24
:103480001DC08091E501882399F0853099F08091E5
:10349000EB0085FD11C04091E4005091E500241738
:1034A000350729F3915011F09A01E1CF84E0089596
:1034B00082E0089583E0089581E0089580E0089512
:1034C0004091E80042FFDDCF0895EF92FF920F9305
:1034D0001F93CF93DF937C018B010E94321A8111DD
:1034E00019C0E70101151105A1F08091E80085FDE3
:1034F0000AC08091E8008E778093E8000E94321A1B
:10350000882381F307C089918093F100015011094C
:10351000E9CF80E0DF91CF911F910F91FF90EF9065
:103520000895CF932091E5012430F9F4C091E9008A
:10353000CF703091EC00232F217030FD20E8C22B9A
:1035400022E02093E9002091E80020FF0BC040E03A
:1035500050E060E270E00E94651A8091E8008E778A
:103560008093E800CF70C093E900CF91089580E088
:1035700090E00E94C22180E090E00E94AC21109275
:103580000F030E948A2AEDE6F4E086E0DF011D9237
:103590008A95E9F710926704109266041092680405
:1035A0000C941F2FCF92DF92FF920F931F93CF9314
:1035B000DF936C010091E60180917304082BC7E052
:1035C000D0E010E0C8010C2E02C0959587950A94B2
:1035D000E2F780FD04C02197A8F7F12C09C0FC2E6A
:1035E000B6018C2F0E94B8250E94D127019799F32C
:1035F0008F2DDF91CF911F910F91FF90DF90CF9092
:103600000895CF93DF93EC010E94D21ABE010E946D
:10361000B8250E94D127DF91CF9108959E3F61F197
:103620002BE0929F800D1124682F66956695669514
:10363000982F977083E0689FB001112440E050E01C
:1036400080E0FB01E40FF51FE951FE4F208130E0DF
:10365000092E02C0369527950A94E2F72170332788
:10366000042E01C0220F0A94EAF7822B4F5F5F4FAE
:103670004330510531F7089580E008959E3F51F1A0
:103680002BE0929F800D1124E82FE695E695E695B4
:10369000877051E001C0550F8A95EAF783E0E89FF3
:1036A000F0011124E951FE4F20E030E070E040814C
:1036B000CB01022E02C0969587950A94E2F781709D
:1036C000819584278523842781932F5F3F4F233063
:1036D000310569F708958093E6010C94B71A21E04B
:1036E00030E001C0220F8A95EAF720958091E6012B
:1036F00082230C946B1B21E030E001C0220F8A95DD
:10370000EAF78091E601822B0C946B1B8093730483
:103710000C94B71A92959F70963079F010F49250ED
:1037200001C09A50923068F4803F69F018F4883EE6
:1037300040F409C0843F29F406C0883E20F0813F50
:1037400011F080E0089581E00895FC018681978161
:10375000009719F00E94D12704C0808191810E94B6
:10376000011B0E948A1B08951092FF0180910E0197
:10377000882331F08091CD0387FF02C08EE101C024
:1037800086E0E4EDF3E0DF011D928A95E9F70C9401
:10379000B71A882321F00E94052A0C948A2A0895DA
:1037A000882339F090910F03892B80930F030C9499
:1037B0008A2A0895882321F00E940C2A0C948A2AD0
:1037C0000895882321F00E94132A0C948A2A0895D0
:1037D000882309F450C0823849F469E382ED93E00C
:1037E0000E9477210E948A2A69E30AC0833871F413
:1037F00063E582ED93E00E9477210E948A2A63E5C7
:1038000082ED93E00E944F210C948A2A843849F477
:1038100067E482ED93E00E9477210E948A2A67E4A0
:10382000EFCF9CEF980F913A10F4682FE9CF90E218
:10383000980F983050F4877091E001C0990F8A95E5
:10384000EAF7892F0E940C2ADFCF9BE5980F93306F
:1038500020F480E090E00C94C22198E5980F973115
:1038600020F480E090E00C94AC21803F20F00E9496
:10387000492F0C941F2F0895CF93882309F4AEC0CD
:10388000C82F823891F469E382ED93E00E9477219A
:103890000E948A2A2FEF81EE94E0215080409040D0
:1038A000E1F700C0000069E313C08338C1F463E5A9
:1038B00082ED93E00E9477210E948A2A2FEF81EE09
:1038C00094E0215080409040E1F700C0000063E5A3
:1038D00082ED93E00E944F21CF910C948A2A843884
:1038E00091F467E482ED93E00E9477210E948A2A96
:1038F0002FEF81EE94E0215080409040E1F700C02E
:10390000000067E4E5CF8CEF8C0F813AC0F5809121
:103910000E018823E1F08091CD0387FF18C0EC2FC2
:10392000E695E695E695F0E0EE52FC4F8281282F71
:1039300030E04C2F477081E090E002C0880F991F63
:103940004A95E2F782239323892B61F412C0E4EDB8
:10395000F3E08AED93E02191C21721F08E179F07C3
:10396000D1F707C06C2F82ED93E00E944F210E9497
:103970008A2A6C2F82ED93E00E947721ADCF80E2FE
:103980008C0F883048F4C77081E001C0880FCA9559
:10399000EAF70E94132AA0CFEBE5EC0FE33040F4E6
:1039A000F0E0EB5AFE4F808190E0CF910C94C22161
:1039B000E8E5EC0FE73150F4F0E0EE0FFF1FE85AB6
:1039C000FE4F80819181CF910C94AC21C03F30F0AB
:1039D0008C2F0E945630CF910C941F2FCF910895B9
:1039E0001F93CF93DF93182F893329F4C0910803D5
:1039F000D091090304C0C0910603D0910703812F21
:103A00000E943C1C209741F08FE99FE00197F1F75D
:103A100000C000002197F6CF812FDF91CF911F9139
:103A20000C94E81B2F923F924F925F926F927F927D
:103A30008F929F92AF92BF92CF92DF92EF92FF92BE
:103A40000F931F93CF93DF93CDB7DEB765970FB674
:103A5000F894DEBF0FBECDBF8C0185E0F801DE011A
:103A6000519601900D928A95E1F7D8014C901196EC
:103A70005C9011971296EC9012971396CD90DC9073
:103A8000149760E082EF93E00E94C73182EFA82E86
:103A900083E0B82E8090F5039090F603A401609126
:103AA000F3038091F2030E94C422F82E8111E5C134
:103AB0003090F403F601E819F9094F0160E0332072
:103AC00009F469C1C5010E94C7316090000370907C
:103AD00001032090F7038614970408F014C1409165
:103AE000F5035091F603B090F203A090F303822DFA
:103AF000807F6A2D09F097C08B2D0E94C42281110E
:103B000024C0D80111968C9111978A111EC08C91F6
:103B10008B111BC02091F8033091F90316968D91FB
:103B20009C9117972817390781F4E1100EC0822D58
:103B30008F7080618093F70382EF93E00E94920C74
:103B40008091F703F8018583B4C1F4EF6F16F1E0BB
:103B50007F0620F48091050380FF21C0A601652D1A
:103B6000842D0E94C422811103C081E08E2502C0F1
:103B700080E090E080FF13C04E2D652D842D0E94C3
:103B8000F42A882361F082EF93E00E94920CE2EF26
:103B9000F3E088E0DF011D928A95E9F78AC1A6016A
:103BA000652D842D0E94C422811103C081E08E25E1
:103BB00002C080E090E0B82FB170CB2E80FF2AC009
:103BC0004E2D652D842D0E94F42AD82E811122C0FD
:103BD000498A5A8A89899A890E94011B292F22952C
:103BE0002F70223018F0243078F405C09F7049F00F
:103BF000811107C00DC09F7021F0F8019581907F61
:103C000039F0805E883020F0C8010E94920CDC2CD4
:103C1000FD2C4FC1EE2009F44BC18091F703816068
:103C20008093F70346C18B2D0E94C422811124C0CA
:103C3000D80111968C9111978A111EC08C918B110D
:103C40001BC02091F8033091F90316968D919C9139
:103C500017972817390781F4E1100EC015962C929A
:103C6000C8010E94920C88E0F801A2EFB3E0019035
:103C70000D928A95E1F76FC0C8010E94A51B8823A9
:103C8000E1F1EE20D1F12091F703822F82958F7020
:103C900090E00297A4F08091F2039091F3039A8749
:103CA00089871B86DD86CC862E878091F8039091CC
:103CB000F903988B8F87CE0109960E94920C88E0B9
:103CC000F801A2EFB3E001900D928A95E1F70E940E
:103CD0001E2B16C0F090F2039090F3034091F50371
:103CE0005091F603692D8F2D0E94C422882399F0EC
:103CF000C8010E94A51B811130C0C8010E94920C0E
:103D0000FF24F394D6C0822D807F21F782EF93E0C9
:103D10000E94920CACC0D80111968C911197891118
:103D2000E7CF8C918F11E4CF2091F8033091F90304
:103D300016968D919C91179728173907C9F6E110AF
:103D4000D7CF15962C92C8010E94920C88E0F501FD
:103D500011928A95E9F7F32CACC0EE2071F2209114
:103D6000F703822F82958F7090E002970CF4A7CF13
:103D70008091F2039091F3039A8389831B82DD8201
:103D8000CC822E838091F8039091F90398878F83DA
:103D9000CE01019692CF82EF93E00E94C7318091CD
:103DA0000003909101038816990608F060C0FE2C6C
:103DB000EE2009F4A2CFE090F203D090F3034091FB
:103DC000F5035091F6036D2D8E2D0E94C4228111B2
:103DD00040C0D80111968C9111978D113AC08C91E9
:103DE0008E1137C02091F8033091F90316968D910A
:103DF0009C9117972817390761F58091050382FD7B
:103E00001FC08091F70380FD1BC082958F70482FE3
:103E100050E041155105A1F02091F70315962C9320
:103E200015974F30510549F08F5F982F9295907FED
:103E3000822F8F70892B15968C93C8010E94920C4B
:103E400088E0F801A2EFB3E001900D928A95E1F7C6
:103E500030C0C8010E94A51B811131CF8091F703AA
:103E600081608093F703C8010E94920C22C088E011
:103E7000F50111928A95E9F71CC0EE2009F43DCFB7
:103E8000C8010E94A51BF82E882309F436CF88E0CC
:103E9000F801A2EFB3E001900D928A95E1F78091CD
:103EA000F2039091F3030E94011B0E941E2B01C09C
:103EB000F12C8F2D65960FB6F894DEBF0FBECDBFE7
:103EC000DF91CF911F910F91FF90EF90DF90CF90F6
:103ED000BF90AF909F908F907F906F905F904F902A
:103EE0003F902F900895EF92FF920F931F93CF93DF
:103EF000DF93CDB7DEB760970FB6F894DEBF0FBE85
:103F0000CDBF29873A874B875C876D877E878F87F0
:103F1000988BCE0109960E94121D81114AC088E03B
:103F2000FE013996DE01119601900D928A95E1F716
:103F3000E984FA840C851D85A8016F2D8E2D0E94C1
:103F4000C422811136C0A091FA03B0E0CD010196E0
:103F50008770992720913B0430E08217930781F105
:103F6000E982FA821D830C8393E0AA0FBB1F9A9506
:103F7000E1F7A550BC4F98E0FE01319601900D92FB
:103F80009A95E1F78093FA030E94142B12C028E05F
:103F9000829FC001112485509C4F0E94121D8823CE
:103FA000E1F080913B0490E001968770992780931F
:103FB0003B0480913B049091FA038913E8CF0DC034
:103FC0000E94B41B1092FA0310923B04E2EFF3E05C
:103FD00088E0DF011D928A95E9F760960FB6F894A4
:103FE000DEBF0FBECDBFDF91CF911F910F91FF902C
:103FF000EF9008958091B9010895E8EEF2E0848190
:1040000095812AE030E0B9010E94D2346093160114
:104010008681809315018285809314018485809325
:10402000130186859785B9010E94D23460931201ED
:104030008089809311018289809310018489809303
:104040000F0108958091E8029091E9029093180180
:1040500080931701089524E02093E9002FEF309119
:10406000E800215035FD06C035ED3A95F1F7000026
:104070002111F5CF2091E80025FF0BC040E050E072
:1040800066E070E00E94651A8091E8008E77809368
:10409000E8000895CF93DF9320910E01222339F099
:1040A0002091CD0327FF03C060E224E002C068E056
:1040B00021E02093E9002FEF3091E800215035FDF9
:1040C00006C035ED3A95F1F700002111F5CF2091AA
:1040D000E80025FF1DC0EC0180910E01811105C093
:1040E00040E050E068E070E003C070E040E050E085
:1040F000CE010E94651A8091E8008E778093E800D7
:1041000080E2FE01AAEBB1E001900D928A95E1F701
:10411000DF91CF9108958093CF037093D103609383
:10412000D0038091E5018430F9F48093E9008FEFAA
:104130009091E800815095FD06C095ED9A95F1F7B4
:1041400000008111F5CF8091E80085FF0DC040E0AF
:1041500050E063E070E08FEC93E00E94651A80917C
:10416000E8008E778093E800089581E08093E00076
:1041700080E28093D8001092C9008FE19EE40197FD
:10418000F1F700C0000087E090EBDC018093FE04B3
:104190009093FF04A0930005B09301059CE088E193
:1041A0000FB6F894A895809360000FBE90936000BE
:1041B000FFCF78941F920F920FB60F9211248F9316
:1041C0009F93AF93BF938091C9039091CA03A0912D
:1041D000CB03B091CC030196A11DB11D8093C903FF
:1041E0009093CA03A093CB03B093CC03BF91AF913C
:1041F0009F918F910F900FBE0F901F9018959C016B
:104200004FB7F8948091C9039091CA03A091CB0352
:10421000B091CC034FBF821B930B08952FB7F89436
:104220006091C9037091CA038091CB039091CC0334
:104230002FBF08952FB7F8948091C9039091CA03B6
:10424000A091CB03B091CC032FBF08951F920F9282
:104250000FB60F9211248F939F93AF93BF938091CA
:10426000C803811113C08091C9039091CA03A09122
:10427000CB03B091CC034196A11DB11D8093C9031E
:104280009093CA03A093CB03B093CC03BF91AF919B
:104290009F918F910F900FBE0F901F9018952091B6
:1042A0000E012223C9F02091CD0327FF15C0262F30
:1042B0002695269526952E31C8F4FC01E20FF11DB6
:1042C000677081E090E001C0880F6A95EAF78095F9
:1042D0009281892382830895FC01069622816213CC
:1042E00001C012823196E817F907C1F708952091AD
:1042F0000E012223C1F02091CD0327FF14C0262FE9
:104300002695269526952E3130F5FC01E20FF11DFC
:10431000677081E090E001C0880F6A95EAF79281AA
:10432000892B82830895FC0132962FEF30E0419172
:10433000641789F02F3F19F4411101C0232F3F5F0B
:104340003630A9F72F3F39F0FC01E20FF11D27FDB0
:10435000FA956283089508952091C6033091C703AA
:104360002817390771F09093C7038093C603E09133
:10437000C403F091C503309721F00084F185E02D4E
:10438000099408952091C2033091C3032817390777
:1043900071F09093C3038093C203E091C403F09142
:1043A000C503309721F00680F781E02D0994089528
:1043B000E091C403F091C503309721F00190F081A2
:1043C000E02D099480E00895EF92FF920F931F93E0
:1043D000CF93DF93FC012285211136C0EC01E380ED
:1043E000F480F7E5FF1A26E12E9DC0012F9D900D68
:1043F0001124DC01AE5EBC4F1496ED91FC91159733
:10440000885E9C4F309729F054966D917C9155971A
:10441000099586E18E9D80018F9D100D11240E5E01
:104420001C4FF80187810E940C2AF80180850E94A8
:10443000052A0E948A2A188219861B861E821D82DE
:104440001092110310921003DF91CF911F910F91E1
:10445000FF90EF900895CF93DF93FC012189211104
:1044600019C0EC0181E0818B87810E94132A909111
:104470000F038885892B80930F030E948A2AEA8183
:10448000FB81CE010696309729F06C897D89DF91FA
:10449000CF910994DF91CF9108950F931F93CF93FC
:1044A000DF93C42FD22FFC0182818823C9F040936F
:1044B0000E030E941A2190930D0380930C0380E257
:1044C0008C0F883008F05BC0C77081E001C0880F96
:1044D000CA95EAF7DF91CF911F910F910C94E11BE0
:1044E00080910E03481334C080910C0390910D030A
:1044F0000E94FF202091000330910103821793074F
:1045000038F510E21D0FCD17B9F080E28C0F88301E
:1045100040F4C77081E001C0880FCA95EAF70E9495
:10452000DA1B183028F581E09D2F977001C0880FA5
:104530009A95EAF70E94E11B802F0E94F01C183028
:10454000F0F4D77081E001C0880FDA95EAF70AC06D
:1045500080E28C0F883098F4C77081E001C0880F2A
:10456000CA95EAF7DF91CF911F910F910C94DA1B56
:10457000802FDF91CF911F910F910C94F01CDF9150
:10458000CF911F910F910895452B41F06F3F41F45A
:1045900091E08F3F09F090E0892F03C081E001C0D6
:1045A00080E081700895BC014091E4028091E502B1
:1045B000942F981729F1292F30E0F901EE0FFF1FF2
:1045C000E452FD4F0190F081E02DE617F70799F4D2
:1045D00087E0869FF001879FF00D1124E857FD4F7B
:1045E00081E0848394130CC02F5F3F4F23703327E7
:1045F0002093E40208952F5F3F4F922F9370D9CFFD
:104600000895EF92FF920F931F93CF93DF938091C2
:104610002702882309F440C0009126028CE0F82E7E
:10462000809127020817A0F5EE24E394E00EE092B3
:10463000260210E0F09EE001F19ED00D1124C85D2D
:10464000DD4F4B815C81698188810E94C422811188
:104650001DC08E819F81892B21F4888599850196C3
:1046600051F4288139814A815B816C817D818E8101
:104670009F810E94731FF09EF001F19EF00D1124A6
:10468000E85DFD4F1482138210920F030E2DC8CFE8
:104690001092270210922602DF91CF911F910F9165
:1046A000FF90EF9008951092250210922402E8E8FE
:1046B000F2E08581811102C014821682379682E071
:1046C000EC3DF807B1F708951092E7021092E60268
:1046D00010921A018091E5028093E4020E94532314
:1046E0000C9401233F924F925F926F927F928F9230
:1046F0009F92AF92BF92CF92DF92EF92FF920F9371
:104700001F93CF93DF93C091E40297E0892E01E0DD
:1047100010E02CE0322E3EEF932E442443948091FF
:10472000E502C81709F478C0D0E0FE01EE0FFF1FC4
:10473000E452FD4F80819181889ED001899EB00D09
:104740001124A857BD4F14962C911497211161C0C4
:1047500050902702E8E2F2E020E030E0712C5D01A9
:10476000251508F054C0E284F384D501CD90DC9087
:104770006FEF7FEF612C462D50E0DA01AA0FBB1FCF
:10478000AC0DBD1D0D90BC91A02D109731F0EA1617
:10479000FB0609F4BA016394EECF6F3FBFEF7B07CE
:1047A00091F1D80102C0AA0FBB1F6A95E2F77A2ADD
:1047B000B80102C0660F771F6A94E2F7AB0141505F
:1047C0005109672D70E046175707D9F4329EF00162
:1047D000339EF00D1124E85DFD4F889ED001899E27
:1047E000B00D1124A857BD4F12962D913C911397EF
:1047F00037832683908291829187808715964C9289
:1048000006C0148213822F5F3F4F3C96A9CF0E94AF
:10481000D3222196C37083CF0E940123DF91CF91D1
:104820001F910F91FF90EF90DF90CF90BF90AF90CE
:104830009F908F907F906F905F904F903F900C94DF
:10484000532380911901877F8093190182E00E9490
:10485000052A8091190184FF06C08F7E809319017B
:1048600082E00E94132A8091190185FF06C08F7D86
:104870008093190180E20E94132A0C948A2A6623ED
:1048800029F020910F03226020930F039C013056E2
:10489000211540E2340720F0305E2115304108F444
:1048A00099270C945634009741F0EFE9FFE03197D7
:1048B000F1F700C000000197F6CF0895AF92BF92C4
:1048C000CF92DF92EF92FF920F931F93CF93DF93DC
:1048D0005C017B01C42E89018091190182FF8DC08A
:1048E000C0912202D0912302CA15DB0521F0A11448
:1048F000B10409F082C0809119018B7F8093190166
:1049000081FD11C08091200290912102A701481BD6
:10491000590B81E02091170130911801421753077C
:1049200018F480E001C081E08170D82E80911901D7
:10493000D0FA81F980931901FE01FF2784E0F695F2
:10494000E7958A95E1F79E012F703327EE0FFF1F41
:10495000E050FE4F81E090E002C0880F991F2A9539
:10496000E2F7DD2029F020813181822B932B06C0D4
:104970008095909520813181822393239183808338
:104980008091FF0181FF08C08091190180618093AF
:10499000190182E00E940C2A8091FF0185FF08C066
:1049A0008091190180628093190180E20E940C2A93
:1049B000A8016D2DCE010E943F24CC2031F08091C2
:1049C000030385FF02C086FF36C0809106039091E5
:1049D00007030E94532480912202909123029C019C
:1049E0003056211540E2340720F0305E2115304169
:1049F00008F499270E943C3418C095013327C5015B
:104A00009056811540E2940720F0905E8115904108
:104A100010F4C90101C0C5010E943C3480912202FA
:104A200090912302A816B90611F40E942124F09255
:104A30002102E0922002DF91CF911F910F91FF9010
:104A4000EF90DF90CF90BF90AF9008950F931F939A
:104A5000CF93DF9308EE12E0C7E6D2E0CE010E94CA
:104A60008834F80181938F012196CB38F2E0DF077B
:104A7000A9F7C0E0D0E0FE01E75EF84F8591949180
:104A8000009711F0FC0109952896C03AD10599F7D5
:104A9000DF91CF911F910F9108950F931F93CF93A3
:104AA000DF9308EE12E0C7E6D2E0CE010E94883420
:104AB000F80161918F01681719F0CE010E949634B8
:104AC0002196CB38F2E0DF0781F7DF91CF911F917C
:104AD0000F910895E8EEF2E0128E138E8FEA90E0C7
:104AE0009183808325E0248F88E893E193838283F8
:104AF0008AE090E09583848344E150E057834683C5
:104B000068E070E071876087938782874EE150E0AC
:104B1000558744879787868740E550E0518B408BC7
:104B2000738B628B68E270E0758B648B62E370E07C
:104B3000778B668B68EC70E0718F608F158E978F26
:104B4000868F51A340A322A30E944D250C942625B5
:104B5000CF93DF93C3E5D3E060E0CE010E949634AB
:104B60002196C11584E0D807B9F7DF91CF91089558
:104B7000462F2091FD013091FE01232B91F47E3FC1
:104B800039F46E3F71F48091FB019091FC0108951E
:104B9000863038F4743028F46B3018F4672F0C9496
:104BA0002F2C80E090E008956F927F928F929F92D9
:104BB000AF92BF92CF92DF92EF92FF920F931F932B
:104BC000CF93DF93CDB7DEB764970FB6F894DEBF0F
:104BD0000FBECDBFA090F901B090FA0181E090E046
:104BE0009093FA018093F901C12CD12C712C612C86
:104BF000E12CF12C00E010E047018C0C9D1CF80129
:104C0000EE0FFF1FE80DF91DED5FFA4F259134916E
:104C1000402F662D872D0E94F92B0F5F1F4F0B3001
:104C2000110569F786E1E80EF11C6394E4E06E1269
:104C3000E1CF21E030E040E060E0872D0E94912B41
:104C400021E030E041E060E0872D0E94912B21E0DF
:104C500030E040E061E0872D0E94912B21E030E0C0
:104C600041E061E0872D0E94912B7394F8E5CF0E0F
:104C7000D11C86E07812BBCF0E946A251A82198265
:104C80001C821B821E821D8218861F8288EC90E087
:104C90009A8789870BE812E04AE050E0B801CE011C
:104CA00001960E94BA34065F1F4F0B3DE2E01E07DB
:104CB00099F77E01FBE0EF0EF11C8AE0F7011192FB
:104CC0008A95E9F74AE050E0B801C7010E94BA347A
:104CD000065F1F4F0335F3E01F07A1F7B092FA01FB
:104CE000A092F90164960FB6F894DEBF0FBECDBF57
:104CF000DF91CF911F910F91FF90EF90DF90CF90B8
:104D0000BF90AF909F908F907F906F900895883064
:104D100080F49B01982F8AE0989FB0011124655779
:104D20007D4F4AE050E0C9010E94783480E090E075
:104D300008958FEF9FEF089580E008959091CD033F
:104D400092FF0DC0282F2871283019F4877F8460C6
:104D500006C0282F2471243011F48B7F886093FFC4
:104D60000DC0282F2871283119F4877E846106C070
:104D7000282F2471243111F48B7E88612091CE0379
:104D800020FF0DC0382F3871383019F4877F8160CB
:104D900006C0382F3171313011F48E7F886021FFC9
:104DA0000DC0282F2871283119F4877E816106C033
:104DB000282F2171213111F48E7E886194FD877E28
:104DC0000895F894E82FE295EF70F0E031A1282FD4
:104DD0002F7081E090E001C0880F2A95EAF7982FA4
:104DE0009095932391A392A1892B82A378940895FF
:104DF0008F929F92AF92BF92CF92DF92EF92FF92EB
:104E00000F931F93CF93DF93CDB7DEB728970FB6DD
:104E1000F894DEBF0FBECDBFAE014F5F5F4F7A018A
:104E200088E0FA0111928A95E9F703E211E06A013C
:104E3000AA24A394B12CF80180818F3F09F447C0C4
:104E4000F894E82FE295EF70F0E021A18F70A501B2
:104E500002C0440F551F8A95E2F7CA01922F982B82
:104E600091A392A18095892382A3789400C0E7E260
:104E7000F1E021E030E0812C912C41914F3F89F00D
:104E8000A42FA295AF70B0E090968C9190E04F70F7
:104E900002C0959587954A95E2F780FD02C0C90149
:104EA00002C080E090E0882A992A220F331F51E047
:104EB000E233F50711F7F80180818F3F11F00E946E
:104EC000E126F0EAFA95F1F7F601918280820F5F10
:104ED0001F4FF2E0CF0ED11C41E00732140709F05A
:104EE000AACF48E050E0B70188E891E00E9407357A
:104EF00011E0009709F410E0892B89F088E0F701B0
:104F0000A8E8B1E001900D928A95E1F781E08093E5
:104F100065040E941A219093640480936304809135
:104F20006504882351F180916304909164040E9488
:104F3000FF20059710F1809188019091890190934D
:104F4000AD018093AC0180918A0190918B01909387
:104F5000AF018093AE0180918C0190918D0190936F
:104F6000B1018093B00180918E0190918F01909357
:104F7000B3018093B20110926504812F28960FB679
:104F8000F894DEBF0FBECDBFDF91CF911F910F917F
:104F9000FF90EF90DF90CF90BF90AF909F908F9059
:104FA0000895CF93DF938238910569F1B0F481338E
:104FB000910509F46FC048F48932910509F465C080
:104FC0008A32910509F46BC08AC08533910509F4D2
:104FD00057C089339105B9F082C0833E910571F1C4
:104FE00038F4803E9105B1F0823E910511F177C011
:104FF000863E9105B9F1873E9105C9F1843E910540
:1050000009F06DC024C02091CD0320FD53C021FDC7
:1050100051C065C08091CD0380FD46C08091CE0314
:1050200080FF48C08091CD0384FD50C183EE90E0A5
:105030004FC18091CD0382FF3AC0F4CF8091CD0360
:1050400082FD35C08091CE0380FD34C0EBCF8091CE
:10505000CE0381FF35C08091CD0384FD37C187EE3B
:1050600090E036C18091CD0383FF27C0F4CF8091BB
:10507000CD0383FD22C08091CE0381FD21C0EBCF03
:105080008091CD0385FD1FC021C08091CD0385FD9A
:105090001DC019C08091CD0386FD1BC01DC080912D
:1050A000CD0386FD19C015C089E390E011C182EEE1
:1050B00090E00EC180EE90E00BC186EE90E008C15A
:1050C00084EE90E005C189E290E002C185E390E0C2
:1050D000FFC08AE290E0FCC081E390E0F9C0811556
:1050E00031E5930708F069C0811540E59407F0F0B9
:1050F0009C0174E0369527957A95E1F7922F93708D
:10510000482F437021E030E002C0220F331F4A9540
:10511000E2F73C68392B982F9F709695969540E260
:10512000949FC0011124822B932BD2C0883E9105FD
:1051300068F5803E910508F0CBC0883A9105B8F437
:10514000853A910548F0855AE82FF0E0EB5AFE4F7A
:10515000808190E09064BCC08130910509F4B3C0B7
:1051600008F4B4C08430910508F4B0C0B1C08F3BDE
:10517000910508F0ABC0885AE82FF0E0EE0FFF1F52
:10518000E85AFE4F808191819464A2C0811520E28B
:10519000920758F4811531E0930708F099C0803FD9
:1051A000910508F493C0906593C0811540E494077D
:1051B00008F48CC09F70906A8BC0811525E592071A
:1051C00008F042C0811534E5930728F0982F88270E
:1051D000846F906A7DC0811543E59407B0F09C010F
:1051E0002370332741E050E002C0440F551F2A9539
:1051F000E2F7282F2695269580E2289F900111241A
:10520000CA01822B932B9A6863C0811522E592070D
:1052100028F4982F8827816F906A5AC09C012370C8
:10522000332741E050E002C0440F551F2A95E2F7B2
:10523000282F2695269580E2289F90011124CA01E7
:10524000822B932B9C6844C0EC01811539E59307B0
:10525000A8F48115984528F09C2F8827806F906AC4
:1052600037C0C11586E5D80788F58C2F0E949E2689
:105270008F7190E0982F882790622AC081152AE5C7
:10528000920790F48C2F8F700E949E2694E0D69502
:10529000C7959A95E1F7CF70D0E0DC2FCC27D06985
:1052A0009E01282BC90114C090568115904270F4BC
:1052B0008D2F8F710E949E26282F2F71CE01992746
:1052C0009062922B05C081E090E002C080E090E007
:1052D000DF91CF910895CF9384E090E00E948834CD
:1052E000C82F82E290E00E9488342C2F30E0A90180
:1052F000582BCA01CF91089569EE7EEF80E090E0CF
:105300000E94B43460E082E090E00E94963460E055
:1053100083E090E00E9496341092730460E084E091
:1053200090E00E94963460E082E290E00E94963421
:1053300060E085E090E00E94963460E086E090E0D6
:105340000E9496346FEF87E090E00E94963440E030
:1053500050E0BA0188E090E00E94A83460E08DE05F
:1053600090E00E94963440E050E0BA0188E190E07D
:105370000E94A83460E087E190E00E94963440E00B
:1053800050E0BA018CE190E00E94A83460E070E047
:1053900080E290E00E94B43440E050E0BA0188E13D
:1053A00090E00E94A83480E00E94D92E0E94F72E3F
:1053B00040E050E0BA018FE090E00E94A83440E065
:1053C00050E0BA0183E190E00C94A834809162042B
:1053D000882331F0109262041092610410926004EC
:1053E0000895CF939091CE0392FD0DC090916204E9
:1053F000981749F0C82F0E941A2190936104809356
:105400006004C0936204CF910895809590910F033A
:10541000892380930F03089580959091FF0189233C
:105420008093FF0108959091FF01892B8093FF01E4
:10543000089510923F0410923E0410923D04089586
:1054400020913F048095822380933F04982F97708A
:1054500099F430E0482F082E000C550B241735071F
:1054600059F09091CE0392FD07C08595859585955D
:105470000E946F1B0C94192A0895CF93C091CE03FC
:10548000C2FB992790F9981799F080FBC2F9C09355
:10549000CE036091CD0384E090E00E9496346C2F9F
:1054A00082E290E00E94963482E0CF910C94202A10
:1054B000CF9108959091CE0392FD10C098E0899FFE
:1054C00090011124262B20933F040E947B1B0E94F5
:1054D0001A2190933E0480933D0408950C947B1B05
:1054E0008091EA029091EB02892B89F00E941A21A7
:1054F0002091600430916104AC01421B530B81E0A8
:105500002091EA023091EB024217530708F480E041
:10551000817008959091FF0180910F03892B8093F2
:10552000D20380916204882351F18091EA02909124
:10553000EB02892B29F00E94702A81110E94E62932
:105540009091D20380916204892B8093D203809141
:105550000E01882331F08091CD0387FF02C08EE1D8
:1055600001C086E0E4EDF3E090E0815028F0219165
:105570002223D9F39F5FF9CF91110E94E62940E2DF
:1055800050E060E474E082ED93E00E940735892BDF
:1055900021F180E2E2EDF3E0A0E4B4E001900D92AD
:1055A0008A95E1F7E091C403F091C5033097A9F023
:1055B00080910E01882359F08091CD0387FF07C0A9
:1055C0008091D2038093D30386E08093D20302803C
:1055D000F381E02D82ED93E00994089580913C04DD
:1055E000811110923C04089520913B049091FA039C
:1055F0002917B1F030E0F90153E0EE0FFF1F5A9583
:10560000E1F7E550FC4F5181561306C05081581305
:1056100003C05281541306C02F5F3F4F2770E8CF5D
:1056200080E0089581E0089580913B049091FA0311
:10563000891719F08F5F8770FBCF0895CF92DF92A3
:10564000EF92FF920F931F93CF93DF938091F70315
:1056500082958F7009F05CC08091F403882309F46F
:1056600057C0C0913B048091FA03C81709F450C099
:10567000F090F203E090F303C090F503D090F603AE
:10568000A6016E2D8F2D0E94C422D0E081113DC055
:105690008E0183E0000F111F8A95E1F7F801E550B4
:1056A000FC4F81818E1131C080818F112EC082818B
:1056B00081112BC0E380F480EC18FD0860E082EFDC
:1056C00093E00E94C7318091000390910103E81696
:1056D000F906D8F48091F7038F7080618093F70307
:1056E000F801E050FC4F80818F708061808382EFF1
:1056F00093E00E94920CDF91CF911F910F91FF9048
:10570000EF90DF90CF900C94142B2196C770ABCF05
:10571000DF91CF911F910F91FF90EF90DF90CF908D
:1057200008950F931F93CF93DF93863068F562300F
:1057300058F5423048F521159CE5390731F4E091E0
:10574000F901F091FA01EF2BF9F08901282F34E0EB
:10575000639FC001112438E0239F800D911D112407
:10576000840F911D840F911DEC01C95CDD4F612FE9
:10577000CE010E949634602FCE010196DF91CF9129
:105780001F910F910C949634DF91CF911F910F913F
:1057900008950F931F93CF93DF93863018F56230EF
:1057A00008F54230F8F4282F34E0639FC00111243B
:1057B00038E0239F800D911D1124840F911D840FCB
:1057C000911DEC01C95CDD4FCE010E94883490E050
:1057D000182F0027CE0101960E9488349801282BAB
:1057E000C90102C080E090E0DF91CF911F910F913D
:1057F00008950F931F93CF93DF93863058F564304D
:1058000048F54B3038F521159CE5390731F4E09126
:10581000F901F091FA01EF2BE9F08901C42FD0E0F2
:10582000CC0FDD1F96E1699FC00DD11D112498E5B5
:10583000899FC00DD11D1124612FCE0187960E9432
:105840009634602FCE018896DF91CF911F910F91F2
:105850000C949634DF91CF911F910F9108950F937F
:105860001F93CF93DF93863008F56430F8F44B3004
:10587000E8F4C42FD0E0CC0FDD1F26E1629FC00DFD
:10588000D11D112438E5839FC00DD11D1124CE01F7
:1058900087960E94883490E0182F0027CE018896C2
:1058A0000E9488349801282BC90102C080E090E052
:1058B000DF91CF911F910F910895CF92DF92EF92D8
:1058C000FF920F931F93CF93DF93CDB7DEB72A9745
:1058D0000FB6F894DEBF0FBECDBF88E7E6E8F4E070
:1058E000DF011D928A95E9F784E5E8E8F2E0DF013F
:1058F0001D928A95E9F786E8C82E84E0D82E7F01AC
:105900000BED12E0F701D182C0824AE050E0B8010D
:10591000CE0101960E94783488E0FE013196D601CE
:1059200001900D928A95E1F789859A85D7011396A2
:105930009C938E931297BAE0CB0ED11CE7E0EE0E4B
:10594000F11C065F1F4F0335F3E01F07D9F62A96B7
:105950000FB6F894DEBF0FBECDBFDF91CF911F9180
:105960000F91FF90EF90DF90CF9008958F929F92CC
:10597000AF92BF92CF92DF92EF92FF920F931F935D
:10598000CF93DF93CDB7DEB72A970FB6F894DEBF7B
:105990000FBECDBF02E113E0E12CF12C8AE2C82E4C
:1059A0008EE2D82E95E5A92E9EE2B92E2CE3822E0A
:1059B0002DE2922EF801D182C082B382A28295821A
:1059C0008482F58AE48ABE016F5F7F4F8E2D0E942C
:1059D0008726892B29F489859A85F801938B828BF8
:1059E000FFEFEF1AFF0A0A5E1F4F88E0E816F10486
:1059F00009F72A960FB6F894DEBF0FBECDBFDF9130
:105A0000CF911F910F91FF90EF90DF90CF90BF90BB
:105A1000AF909F908F900895CF93DF9300D000D0E8
:105A20001F92CDB7DEB79093FC018093FB018115E7
:105A300020E2920748F40F900F900F900F900F9074
:105A4000DF91CF910C943C348EEF89838A831B8243
:105A50000E941A218160782F9D838C8349815A810D
:105A60006B818D810E94D5310F900F900F900F9018
:105A70000F90DF91CF9108950F931F93CF93DF93F2
:105A80008C01EB016CE774E08C2F0E948726892B38
:105A900009F046C080910603909107030E945324A9
:105AA000DD27CC58DB4F8881F801108218828330C3
:105AB00079F048F4813041F1823091F580917E0493
:105AC00090917F0409C0843051F08530E9F028C0FE
:105AD00080918004909181040097B1F01BC0809167
