:100000000C9423050C945B050C945B050C945B0528
:100010000C945B050C945B050C945B050C945B05E0
:100020000C945B050C945B050C94C8170C94041796
:100030000C9437280C945B050C945B050C945B05C1
:100040000C945B050C945B050C945B050C945B05B0
:100050000C945B050C94F6270C945B050C945B05E3
:100060000C945B050C945B050C945B050C945B0590
:100070000C945B050C945B050C945B050C945B0580
:100080000C945B050C945B050C945B050C945B0570
:100090000C945B050C945B050C945B050C945B0560
:1000A0000C945B050C945B050C945B05A70ABD0AD8
:1000B000C40A020C020CFC0A0C0B1F0B620B670B30
:1000C000020C020C020C6F0B6D106D109D109D1038
:1000D0001B114B124B124B123711AB11BC11BC113F
:1000E0000A153115E6163115E6167D15A015E6162A
:1000F000A116B11600047F3F1F64321464321478D5
:100100003C1E1E140A05FD377A585A000004E6D634
:10011000B4460200210116000000742FE5A3E00997
:1001200076023C5D003D8889C65436C3174FE4DC37
:1001300034B6A96BC38C73A21663D841953A033FBA
:100140007132E47917698D2EA840EECADB9BEA5A1A
:100150002657D0832F19DCCAACE58A299855C75297
:10016000A088EE03CD3C4CECDA0579A0FE81641E3C
:100170006D54058B012E0B73760BE3F515A71DEA65
:100180007A0D70E9F0EE7CFCA3CBBD34A645AC1B28
:100190003F64C0A6AB377BF023BAD16E794D4F7266
:1001A0006A17C5E182B47C5231F0A31A664EB9E2F7
:1001B00082CB5057B813D2D097346D69D01F9FA807
:1001C0007C6AFF136B4A25A52DB613A041E9BE9F9B
:1001D0006A6050E904229A9DFFEF04048669E9826F
:1001E000D69715992FD66D29151C1B767BE828917B
:1001F000FBC6430DCA8AC1B52B674176DB9B742BC6
:10020000B61BD6A50DE9A5D4DF36C5C1746D5A1B42
:1002100006A278206A09BB00C232176D188201CD90
:1002200074BE1052FC57E2B12073F9BBF9D6DFFC63
:100230001586C066C2441FA834ACAB09114A023A05
:1002400062D1779BBAB210C0888E79F1B4E6983A41
:1002500041D4FFF6D7C2DC4BFBD8E6CAB2D9F74C83
:1002600011785A926F94BB090361B3496D613CA147
:10027000BB9E2939DE75EA0A868170F75E74B02666
:10028000AE31B61E16DEA75CC1E3364BB73182B67F
:10029000595AE0DE973044EC20A991AFBF9128284D
:1002A00048E17D1CE69E80738BBD3D9D8BCDDB3E82
:1002B000BD4FB811FC1B8FFE1DDE5A69F80C343996
:1002C0005449D987EAA4F949A77038516400585BAA
:1002D0007EA8B18F8C63BBEE931014E1E1AB3C6759
:1002E0004A7FD5A6552E50B1657580C652DBC33BFB
:1002F000EFAEF7EC7EEBDEDB8601BAF2FEA6CF2690
:100300003B7B85921540196DC447733E991AD1C73E
:10031000F1D40E92D461D00F1B7BDDB7FF123EE209
:10032000C708F2FB9FC838439D2B1541CBAE9C7983
:10033000FAAF001D5DB70CD8C74C331118F19561A9
:10034000CD6B3DC66E4529142AD8FD68FA4497D175
:100350004852FEAA53548F7AD738F73B99427E8A87
:10036000AC00B18CA4601EA5C3F20001D804F71242
:1003700000005FB5ABCCB1C467FB02000000000415
:10038000595A05010980A101850319012AB70015F1
:100390000126B700950175108100C0050C0901A167
:1003A00001850419012AA002150126A002950175F4
:1003B000108100C00660FF0961A1010962150026D5
:1003C000FF009520750881020963150026FF00953E
:1003D0002075089102C005010906A101050719E071
:1003E00029E7150025019508750181029501750819
:1003F00081010507190029FF150026FF00950675E4
:1004000008810005081901290595057501910295D6
:100410000175039101C009025B00030100A0FA0904
:100420000400000103010100092111010001224023
:100430000007058103080001090401000203000010
:10044000000921110100012222000705820320007A
:100450000107050303200001090402000103000055
:100460000009211101000122320007058403200048
:10047000011201000200000008CDCD375301000138
:100480000203011C037600690061006C003A0066FB
:100490000036003400630032006200330063000065
:1004A00000140342006F0061007200640077006175
:1004B000006C006B00000018037300680065006E9C
:1004C0000073006D006F00620069006C0065000041
:1004D0000004030904FFAA7F55402223252628296A
:1004E0002A2C2D2F3032333536383A3B3D3E4042B0
:1004F000434547494A4C4E5051535557595A5C5EF3
:100500006062646668696B6D6F71737577797B7D06
:100510007F81838587898A8C8E90929496989A9C05
:100520009E9FA1A3A5A7A8AAACAEAFB1B3B4B6B81D
:10053000B9BBBCBEBFC1C2C3C5C6C7C9CACBCCCD7F
:10054000CED0D1D2D2D3D4D5D6D7D7D8D9D9DADA5A
:10055000DBDBDBDCDCDCDCDCDDDDDDDDDCDCDCDCDA
:10056000DCDBDBDBDADAD9D9D8D7D7D6D5D4D3D20E
:10057000D2D1D0CECDCCCBCAC9C7C6C5C3C2C1BFEC
:10058000BEBCBBB9B8B6B4B3B1AFAEACAAA8A7A550
:10059000A3A19F9E9C9A98969492908E8C8A89870C
:1005A0008583817F7D7B79777573716F6D6B6968EA
:1005B000666462605E5C5A5957555351504E4C4ABE
:1005C0004947454342403E3D3B3A38363533323069
:1005D0002F2D2C2A29282625232229001E001F0022
:1005E0002000210022002D002E00230024002500E1
:1005F000260027002A002B0014001A00080015000E
:1006000017002F0030001C0018000C00120013000F
:100610003400390004001600070009000A004A00EF
:100620004B000B000D000E000F0033002800E1000E
:100630001D001B000600190005004D004E001100B2
:100640001000360037003800E500E000E3000151FB
:10065000E2002C002C002C002C002C00500051003B
:1006600052004F00E40035003A003B003C003D00E2
:100670003E003F004000410042004300440045006E
:100680004C000100010065000100010001000100B3
:10069000010001000100010001004600010001000D
:1006A0000100010001000100010001000100010042
:1006B0000100010001000100005C010001000100D7
:1006C000010001000100010001000100A800AA00D2
:1006D000A90031000100010001000100010001003A
:1006E0000100010001000100010001000100010002
:1006F00001000100010001000100010001000100F2
:1007000001000100010001000100010001000100E1
:1007100001000100010001000100010001000100D1
:1007200001000100010001000100010001000100C1
:1007300001000100010001000100010001000100B1
:1007400001000100010001000100010001000100A1
:100750000100010001000100010001000100010091
:100760000100010001000100010001000100010081
:100770000100010001000100010001000100010071
:100780000100010001000100010001000100010061
:100790000100010001000100010001000100010051
:1007A0000100010001000100010001000100010041
:1007B0000100010001000100010001000100010031
:1007C0000100010001000100010001000100010021
:1007D0000100010001000100010001000100010011
:1007E0000100010001000100010001000100010001
:1007F00001000100010001000100010001000100F1
:1008000001000100010001000100010001000100E0
:1008100001000100010001000100010001000100D0
:1008200001000100010001000100010001000100C0
:1008300001000100010001000100010001000100B0
:1008400001000100010001000100010001000100A0
:100850000100010001000100010001000100010090
:100860000100010001000100010001000100010080
:100870000100010001000100010001000100010070
:100880000100010001000100010001000100010060
:100890000100010001000000000000000000000055
:1008A0000000000000000000000000000000000048
:1008B000000000000000000000007E0F00D4FFFFD9
:1008C000FFC70000007800000000000000002A2B95
:1008D00028000000000000000000000000000000F0
:1008E0000029000000002C1E342021222434262759
:1008F000252E362D3738271E1F202122232425267A
:100900003333362E37381F0405060708090A0B0C47
:100910000D0E0F101112131415161718191A1B1C8F
:100920001D2F3130232D350405060708090A0B0C4D
:100930000D0E0F101112131415161718191A1B1C6F
:100940001D2F3130354C0001010101010101010170
:100950000202020202020202020303030303030370
:10096000030404040404040405050505050606063D
:100970000606070707070708080808090909090AFA
:100980000A0A0B0B0B0C0C0C0D0D0D0E0E0E0F0F9F
:100990000F1010111111121213131414151516162D
:1009A0001717181819191A1A1B1B1C1D1D1E1E1F9C
:1009B0002020212222232424252626272829292AEB
:1009C0002B2C2D2D2E2F3031323233343536373813
:1009D000393A3B3C3D3E3F4041424344454647480F
:1009E000494A4C4D4E4F50515354555658595A5BE5
:1009F0005D5E5F616264656668696B6C6D6F707285
:100A0000737577787A7B7D7E8082838587888A8CF0
:100A10008E8F91939596989A9C9EA0A2A3A5A7A924
:100A2000ABADAFB1B3B5B7BABCBEC0C2C4C6C9CB1B
:100A3000CDCFD1D4D6D8DBDDDFE2E4E7E9EBEEF0D1
:100A4000F3F5F8FAFDFF11241FBECFEFDAE0DEBFA9
:100A5000CDBF04B603FE18C080917A0490917B0448
:100A6000A0917C04B0917D048730904BA740B04B9F
:100A700059F410927A0410927B0410927C04109224
:100A80007D04E0E0F8E3099511E0A0E0B1E0E4E9DD
:100A9000F5E602C005900D92AE39B107D9F724E012
:100AA000AEE9B1E001C01D92AA37B207E1F70E949A
:100AB0005D050C94C8320C940000CF93DF93CDB742
:100AC000DEB7E4970FB6F894DEBF0FBECDBF84B794
:100AD000877F84BF0FB6F894A895809160008861E5
:100AE00080936000109260000FBE90E080E80FB627
:100AF000F89480936100909361000FBE85B7806881
:100B000085BF85B7806885BF86EF92E290939F018D
:100B100080939E010E94CD1D0E94352C0E94481793
:100B20000E9467178091E20084608093E2007894CD
:100B30008091DE018823A1F01091E9001F7090914F
:100B4000EC00892F817090FD80E8182B1092E9004D
:100B50008091E80083FD0E9422141F701093E90029
:100B600082E084BD93E095BD9AEF97BD80936E00BF
:100B70000E94FB1F811102C00E94EC1F06E211E0DF
:100B8000D8018D918D018F3F11F00E943B23B1E080
:100B90000B321B07A9F70BE211E0F80181918F01DD
:100BA0008F3F11F00E943B23F1E009331F07A9F7A3
:100BB0008AE0EDEBF1E0DF01282F1D922A95E9F79D
:100BC000E0EAF1E0DF011D928A95E9F70E94CD2568
:100BD000811102C00E94D82582E090E00E94B531C8
:100BE0008093AD010E94BC259093AB018093AA0134
:100BF0000E945223EFE3FCE93197F1F700C00000B7
:100C00000E9452238091BD0180FF08C06FEF7FEFEB
:100C100080E090E00E94E7310E94D22783E090E0DC
:100C20000E94B5310E94E01B8091AC01811133C05C
:100C30000E94CD25811104C00E94D8250E94DD307C
:100C400088E090E00E94BD3160932A0270932B02ED
:100C500080932C0290932D026E7F71F40E94DD3000
:100C600088E090E00E94BD3160932A0270932B02CD
:100C700080932C0290932D020E9441301092FC012F
:100C800080912A0280FF04C060E086950E9488302F
:100C900081E08093AC0180E091E0909369048093BF
:100CA0006804E8E12E2E312C8E010F5F1F4F8091DA
:100CB000DE01853009F046C060E1E62E72E1F72ED4
:100CC0008091DE01853009F039C08091DE018430E9
:100CD00011F110926C04F0E40FB6F894A8952092EC
:100CE00060000FBEF093600083B7817F846083BF94
:100CF00083B7816083BF7894889583B78E7F83BFE5
:100D00000FB6F894A8958091600088618093600088
:100D1000109260000FBE8091D401882309F4D0CFD7
:100D20000E945223EDEBF1E081919191892B09F022
:100D30006DC521E0E73CF207B9F7C2CF0E94E41B82
:100D40000E94B3280E945223882359F08FB7F89449
:100D500040916D0450916E0460916F047091700425
:100D60008FBF5DEBA52E51E0B52EAEEAB1E0F501E7
:100D7000E12CF12C7E2D219131918D919D91822735
:100D80009327009779F160E0CC24C394D12CAC0177
:100D90004C215D21452B09F16BA77CA72C213D211E
:100DA00081E0232B09F480E08DA70E942B2881602D
:100DB000782F9FA78EA74BA55CA56DA58FA50E9438
:100DC000782DF701EE0FFF1FE255FE4F80819181D4
:100DD000C826D926D182C0821CC06F5FCC0CDD1C16
:100DE0006E30A9F63FEFE31AF30A45E0E416F1048A
:100DF00009F68FEF88AB89AB1AAA0E942B28816075
:100E0000782F9CAB8BAB48A959A96AA98CA90E94E1
:100E1000782D80910C0190910D01019649F1712C72
:100E200036E1632E1CC0689EF001699EF00D11240E
:100E3000E453FC4FC288D388C114D10419F42FEABB
:100E4000C22ED12C689E4001699E900C1124F401A1
:100E5000E453FC4F7F01868181110FC07394872D6D
:100E600090E020910C0130910D0128173907DCF634
:100E700080911201811111C038C0858596850E942C
:100E80001C28C816D90650F7C7010E940629C401BC
:100E90008E529C4F0E94BF28E1CF8091C303909156
:100EA000C403009711F10E941C2820910F03309178
:100EB000100328173907C8F49091C1038091C20329
:100EC000981759F00E944C2A1092100310920F03A9
:100ED0001092C4031092C30308C00E94CC29109240
:100EE000C4031092C3030E942D2A8091FC01882321
:100EF00009F498C08091FB01E0912A02E695E81B75
:100F0000E0937604823059F4F0E0EE5FFE4FE49116
:100F1000EE2EF12C89EBC82E8DE1D82E5EC08630E6
:100F200059F4F0E0E150FF4FE491EE2EF12CB9EAD4
:100F3000CB2EBDE1DB2E51C0893061F4E695F0E0A7
:100F4000E450FF4FE491EE2EF12CA0EECA2EA1E268
:100F5000DA2E43C08F3061F4E695F0E0E750FF4FA2
:100F6000E491EE2EF12CF3E7CF2EF1E2DF2E35C027
:100F7000853159F4F0E0EA50FF4FE491EE2EF12C68
:100F8000E5E2CE2EE1E2DE2E28C08831B1F08332D8
:100F900049F4E4EFF0E0E590F4907BE1C72E72E2D3
:100FA000D72E1BC0843289F050EDE52E57E0F52E88
:100FB00068EAC62E6DE1D62E10C038E2E32EF12C81
:100FC0004CE9C42E40E2D42E08C094EFE92EFF2451
:100FD000F39422E6C22E20E2D22E80917704882359
:100FE00061F0109277040E942B28909375048093EF
:100FF000740410927904109278040E942B28E091D6
:101000007404F09175048E1B9F0B8F3F9F4750F423
:10101000EE0EFF1EF0927504E092740484E794E0F3
:10102000F60109950E94B3289091B8018913809325
:10103000B8018091DE01843009F039CE83E08093DD
:10104000E9008091E80082FF32CE8091E80085FFC0
:1010500024C00E949F1881111EC080E2C82ED12C8E
:101060009E012F5F3F4F790109C08091F100D701A8
:101070008D937D01B1E0CB1AD10869F08091E80031
:1010800085FDF3CF8091E8008B778093E8000E9484
:101090009F18882399F391E001C090E08091E800C7
:1010A0008B778093E800992309F401CEE0900D033B
:1010B000F0900E038981E114F10461F08E3F09F094
:1010C000A1C38A81833008F436C28550833008F08A
:1010D00099C331C28B3009F418C280F5853009F408
:1010E00088C0B0F4823009F445C030F4813009F092
:1010F00087C31A8289E0E4C2833009F46BC084306C
:1011000009F07EC34C816B818A810E94EB2B6FC0FA
:10111000873009F47CC008F477C0883009F4B9C07E
:10112000893009F06DC360912A0270912B02809181
:101130002C0290912D020E94543064C3803109F436
:1011400026C160F48D3009F4C7C008F4C3C08E30E6
:1011500009F4C5C08F3009F4ECC052C3823109F4E0
:101160001BC108F417C1833109F440C18E3F09F453
:10117000E2C146C38A81823009F45EC3833089F0BC
:10118000813009F03DC32FB7F89480916D049091A0
:101190006E04A0916F04B09170042FBFBB83AC8329
:1011A00026C08091090390910A03892B09F42AC370
:1011B000FE013196CE010B96D5012C9111963C91F2
:1011C000B2E0AB0EB11C3283238332968E179F0799
:1011D00099F718C38A81823009F012C36B817C8130
:1011E0008D819E810E9463320E94CA1F0BC39D8322
:1011F0002AC32D813E813227232732274C816B81E0
:101200008A810E94202BFEC20E94562BFBC28A813B
:101210008138B1F050F4803809F0F4C220E04B81FD
:1012200060912C0280912B0231C0823859F18338B1
:1012300009F0E8C220E040912D026C818B8126C02C
:1012400060E08B810E9488309B8180912A029111FD
:1012500011C08E7F80932A021092FC01EFEFF0E71D
:1012600022E0E150F0402040E1F700C000000E9481
:101270002C20C8C2816080932A0260E086950E947B
:101280008830C0C28B8180932E02BCC20E945B2238
:10129000B9C28A81813899F030F4803809F0B2C23D
:1012A00080912D020DC2823891F0833809F0AAC2D4
:1012B00080912B028B8380912C028C83A3C280911E
:1012C0002A0280FF02C08695FBC180E0F9C18091AF
:1012D0002E02F6C180E132C21A8283E7F1C1EA80B0
:1012E000FB80FE24EF24FE24AC80B12C3DE1A3164C
:1012F000B10408F087C26801C70183579C4F96016B
:10130000201B310B2A153B0508F07CC243E7E4168D
:10131000F10430F40E94B531D60114968C9302C0CA
:10132000F6011482FFEFEF1AFF0A2FEFC21AD20A5A
:10133000E3CF8091090390910A03892B09F462C2DB
:10134000EA80FB80FE24EF24FE24CC80D12C3DE1FA
:10135000C316D10408F056C25801C70183579C4FE9
:101360009501201B310B2C153D0508F04BC243E7BE
:10137000E416F10428F4D50114966C910E94C93149
:10138000BFEFEB1AFB0AEFEFAE1ABE0AE6CF0E94E0
:10139000FB2A38C285E0D2C1EA80FB80FE24EF241C
:1013A000FE24AC80B12CFDE1AF16B10408F02AC2D6
:1013B0006801C70187969601201B310B2A153B0552
:1013C00008F020C22CEBE21622E0F20630F40E9474
:1013D000B531D60114968C9302C0F6011482FFEF4A
:1013E000EF1AFF0A2FEFC21AD20AE3CFEA80FB807E
:1013F000FE24EF24FE24AC80B12C3DE1A316B10401
:1014000008F000C24CEBE41642E0F40608F0FAC122
:101410008CEB92E08E199F098A159B0508F4F2C1A6
:10142000370187E2680E711C8091090390910A03CD
:10143000892B11F0680160C0E0FE0FC0C7018696DD
:101440000E94B53190E0982F88272D81822B81153D
:101450009C4531F48FEF8D8303C0C12CD12C03C088
:10146000CC24C394D12CC5018E0D9F1D450180FF56
:101470001BC0B1E08B1A9108E5E04E2E512C4C0EAA
:101480005D1E480C591CC3018A0D9B1D0E94B5317D
:10149000F201208130E0322F2227282B21153C45F4
:1014A00019F48FEFD2018C93F801EC0DFD1D2FEF95
:1014B000CF01801B910B8815990508F0BBCF848163
:1014C00090E0982F88273581832B81159C4511F456
:1014D000248325833296ECCFECEBEE16E2E0FE0699
:1014E00028F4D60114966C910E94C931BFEFEB1A13
:1014F000FB0AEFEFCE1ADE0AC70187969601201B82
:10150000310B2A153B0540F37DC180910903909171
:101510000A03892B09F476C1C8010E94FE18FFEF67
:1015200021EE34E0F15020403040E1F700C00000EF
:101530000E94D22767C1EA818E2F90E08E309105FC
:1015400008F060C1FC01EA5AFF4F0C945D3288E05C
:10155000EEE1F1E0DE01919601900D928A95E1F7BE
:1015600080E2D8011D928A95E9F785E0898388E0B9
:10157000FE01B196DE0115961FC18CE7898382E0DA
:101580008A831B821C823EC18C8190E0982F882721
:101590002B81820F911D092E000CAA0BBB0B65E05D
:1015A000880F991FAA1FBB1F6A95D1F7AC01BD0117
:1015B000405E5F4F6F4F7F4F481759076A077B07A1
:1015C00008F420C18C37E2E09E07A105B10508F0C0
:1015D00019C14D37F2E05F076105710520F04CE756
:1015E00052E060E070E0481B590BBC016A5F7E4F1F
:1015F000C8010E949C3106C140E250E06FEF70E0EC
:10160000C8010E94C132809109038983EA821B824A
:101610001C821D8281E017C181E090E090930E034F
:1016200080930D0382E390E09093BC018093BB0113
:101630000E942B289093BA018093B901E3C0EF2850
:10164000B9F18091BD019091BE019C01369527951D
:101650008170F82EF2228091B9019091BA010E9416
:101660001C2885369105F0F0FF20E1F00E942B2820
:101670009093BA018093B9018091BB019091BC0114
:1016800001979093BC018093BB01892B89F4109240
:101690000E0310920D0381E090E090930A03809373
:1016A000090306C082E390E09093BC018093BB01E4
:1016B00080910903898380910D038A838091BB0106
:1016C0008B83A0C010920A03109209039BC040E2D2
:1016D00050E06FEF70E0C8010E94C13293C08B816F
:1016E000823071F1E8F4882309F1813009F08AC071
:1016F0008C819AE0F92E6E01B1E2CB0ED11CF6017D
:101700002F2D11922A95E9F7B6010E940B2B8983A0
:10171000F601DE01129601900D92FA94E1F772C083
:10172000833069F1843009F44CC06CC080E2D80188
:101730001D928A95E9F787E089838AE08A8362C0EF
:101740006C818AE0FE013596DE01919601900D9242
:101750008A95E1F7673070F43AE0639FB001112495
:101760006D517D4F4AE050E0CE0181960E94ED31EF
:1017700080E001C08FEF89830E94CD1D43C06C8142
:10178000CE0181962AE0DC011D922A95E9F76A30A4
:1017900060F4BAE06B9FB0011124675D7C4F4AE0B2
:1017A00050E00E94A53180E001C08FEF89838AE07C
:1017B000FE01B196DE01129601900D928A95E1F735
:1017C00021C06C818AE0FE013596DE019196019080
:1017D0000D928A95E1F76A3070F4EAE06E9FB001ED
:1017E0001124675D7C4F4AE050E0CE0181960E9453
:1017F000ED3180E001C08FEF89830E94352C02C05B
:101800008FEF8983C8010E94FE1851CAE9BCF9BC58
:1018100009B400FEFDCF8091D8008F7D8093D80061
:101820008091E00082608093E0008091E00081FD83
:10183000FCCF0E94E41B44CA86E290E00E94B531CE
:101840001B821C821D828E83DDCF6F927F928F92CE
:101850009F92AF92BF92CF92DF92EF92FF920F933F
:101860001F93CF93DF9300D000D0CDB7DEB7FC013C
:101870008081918123813481232B31F09F3F31F48A
:1018800091E08F3F19F403C091E001C090E090FD1A
:1018900000C77F0161E0CF010E94412D8C01D7017B
:1018A00012968C91811105C0F701828181113EC091
:1018B000F4C080910C0190910D010196A9F33CECCC
:1018C000C32E33E0D32EA12CB12C99249394809174
:1018D0000C0190910D018A159B0534F3D6011696E3
:1018E0008C9116978823D9F019968D919C911A970F
:1018F0000817190739F48091CA039091CB03081790
:10190000190769F0F601978614870387C6010E94BC
:101910000629C60106960E94BF281092C903FFEF50
:10192000AF1ABF0A26E1C20ED11CD1CFC801825125
:101930009F45409708F0D4C58FEF93E00E94B531E2
:101940008111B4C02EEED22ED00E0DE813E0DD20B2
:1019500071F0011584E0180709F4A8C0C8010E94BD
:10196000B531811101C0DA940F5F1F4FF0CF19829A
:101970001A821B821C82AA24AA9468019FEFC91AAA
:10198000D90AC8010E94B53189831A82882309F4D3
:101990008DC0813009F07CC04801A2E08A0E911C04
:1019A000C6010E94B531B82E8A83882309F47EC00F
:1019B0008FEF8B0D833060F46801B3E0CB0ED11C48
:1019C000C4010E94B5318B83811162C08601D5CFDD
:1019D0008BEF8B0D833078F53801E3E06E0E711CD0
:1019E000C4010E94B5318B83811102C06301EECF27
:1019F0006801F4E0CF0ED11CC3010E94B5318C8385
:101A0000882321F32B813C8121308FEF380718F098
:101A1000922F80E001C0C901A6E0BA1631F0B7E00C
:101A2000BB1631F00E94151FD1CF0E94C91ECECF28
:101A30000E94231ECBCFE4E0BE1611F06401C6CF96
:101A4000C4010E94B531B82E6801F4E0CF0ED11C5C
:101A5000C80103960E94B531BB2041F1882331F1C2
:101A6000282F30E021503109A29EA001A39E500DE5
:101A700011248B2D90E00197840F951F019708F496
:101A8000A5CFAFE9BFE01197F1F700C00000F6CF96
:101A9000CE0101960E948E2C99CF00318FE5180758
:101AA000C1F481E00E94C91B0E9417148091950225
:101AB000877009F4EEC5D70112968C91882309F43A
:101AC000E8C58091AB0182FDE4C582E00E94AF26AB
:101AD000E0C501319FE5190711F482E0E3CF680109
:101AE000F7E5DF1A2FEFC216D10411F008F03FC05E
:101AF00066E372E08C2D0E940B2B892BC1F586E1E9
:101B00008C9DF0018D9DF00D1124E453FC4F8681D6
:101B10008130C9F48091360290913702892B39F1D6
:101B20008091380290913902892B09F180913A0213
:101B300090913B02892BD9F480913C0290913D0217
:101B4000892B49F014C0823091F480913A0290912F
:101B50003B02892B61F026E12C9DC0012D9D900D4B
:101B6000112484539C4FFC01108A0E940629C8014D
:101B700097558F3F910511F008F053C020910C014B
:101B800030910D012817390724F490930D018093AB
:101B90000C01D70112962C91129736E1389F500113
:101BA000399FB00C1124F501E453FC4F6F01208BD9
:101BB00012969C918681992351F1128701878F5F3C
:101BC00086830E942B28D6011E969C938E931D9788
:101BD0008091A00217968C9317979091C9038091DA
:101BE000C803892B18968C931897ED91FC91119747
:101BF000309741F054966D917C915597C5018E5266
:101C00009C4F09951093CB030093CA030AC0882305
:101C100041F08189882329F0C5018E529C4F0E9492
:101C2000BF28033FFCE51F0759F190F4083D8CE500
:101C30001807E9F0093D9CE51907A1F1073DACE55E
:101C40001A07B1F506E221EE41EE67ED7CE514C01E
:101C5000053FBCE51B0701F1C8F0063FFCE51F0787
:101C600039F507E225EE46EE66EF7CE505C007E2B2
:101C700025EE45EE68ED7CE5C7010E942B2916CFC5
:101C800006E221EE40EE63EF7CE5F6CF07E225EEBB
:101C900044EE64EF7CE5F0CF06E221EE42EE65EF24
:101CA0007CE5EACF08E221E045EE69ED7CE5E4CF92
:101CB000D70112968C91882309F45BC11092C70357
:101CC0000330BDE51B0758F40A3FECE51E0780F41E
:101CD000C80182509C45449708F035C109C00136BF
:101CE000FDE51F0729F0053A2DE5120709F02BC184
:101CF0000E94BC259093AB018093AA0101318CE531
:101D0000180709F4C6C008F042C00930ACE51A074C
:101D100009F49BC000F50530ECE51E0709F485C009
:101D200078F403302CE5120709F478C008F07AC083
:101D300002301C4509F0F7C08091AA018160F1C012
:101D40000730ACE51A0709F478C008F07AC0809132
:101D5000AA018061E6C00D30ECE51E0709F487C0DA
:101D600058F40B302CE5120709F479C008F07BC059
:101D70008091AA0188606FC00F309CE5190709F4B3
:101D800080C008F082C08091AA01877FCAC00D3F41
:101D9000BCE51B0709F471C000F50531FCE51F0720
:101DA00009F485C068F403318CE5180709F475C09F
:101DB00008F095C00E94E41B8091AA018F77B1C002
:101DC0000B3FACE51A07A9F108F054C00A3F1C45C7
:101DD00009F0A9C08091AB0140C00130FDE51F07AB
:101DE00009F489C058F40F3F8CE5180709F45AC06C
:101DF00008F069C08091AB0182602FC00136ADE56B
:101E00001A0709F47EC0053ABDE51B0709F483C033
:101E100002301D4509F087C060E06EC08091AA01C4
:101E200082607FC08091AA0116C08091AA0188605B
:101E300078C08091AB0182604FC08091AA0180621E
:101E400070C08091AA0180646CC00E94E41B8091E4
:101E5000AA01806866C0846064C081603DC08091D2
:101E6000AA018E7F5EC08091AA018D7F5AC08091A9
:101E7000AA0116C08091AB0118C08091AB018D7F83
:101E80002BC08091AA018F7E4CC08091AA018F7DCA
:101E900048C08091AA018F7B44C08091AA01877FAE
:101EA0008B7F3FC08091AB018D7F8E7F15C080916D
:101EB000AA0182FB222720F991E0922790FB82F968
:101EC00090FB83F92EC08091AB01982F9095917073
:101ED0008E7F892B90FB81F98093AB0124C00E94F7
:101EE000E41B8091AA0187FB222720F991E0922729
:101EF00090FB87F916C061E08EE090E00E94C93146
:101F000012C08091AA0184FB222720F991E0922738
:101F100090FB84F906C08091AA01982F909590FBC0
:101F200080F98093AA016091AA011091AB0184E02D
:101F300090E00E94C931612F82E290E00E94C93195
:101F40000E94E41BB3CD0631BCE51B0721F580914F
:101F5000C8038A7A91E009F490E09093C70188233E
:101F600011F065E301C069E280E492E00E946D280F
:101F70000FC00631ECE51E0709F040C08091C70193
:101F8000882309F4BCC265E380E492E00E946028E3
:101F90000E945B268BCD0A35BDE51B0749F158F43D
:101FA0000115FCE51F07B1F00E3D1C4509F042C0CC
:101FB0000E94D8257BCD0B358DE51807D9F00C355F
:101FC0001D45C1F58091AB0182FB882780F991E026
:101FD000892711C00E94E41BAFEFB4E3ECE0A150ED
:101FE000B040E040E1F700C000000E94D2275ECD83
:101FF00081E001C080E00E94CC261CC08091C80313
:1020000082720C3CFCE51F0709F423C308F0A9C247
:10201000063C9CE5190709F408C308F080C2033C9C
:10202000BCE51B0709F4F7C208F06BC2023C1C4573
:1020300009F4CCC2F701868197810097B9F4F701C2
:10204000828100811181882349F0C8010E943019E2
:10205000D82E682FC8010E94981B04C0C8010E9496
:10206000681BD82EB8018D2D0E94192C0E94332494
:102070008C01D7011296CC9012971596DC90D294D1
:102080009FE0D922809195028770B9F0CC20A9F009
:10209000812F807F803421F080E2800F883068F0CB
:1020A0008091AB0182FD09C082E00E94AF26809141
:1020B00095028770BB24B3948111B12CA12EA294F8
:1020C0008FE0A8228A2D90E08C30910508F0E3C1C2
:1020D000FC01EC59FF4F0C945D32812F807F1F7003
:1020E000882311F01295107FCC20B9F0112309F448
:1020F000BFC180E2800F883010F0011106C09091BE
:10210000C803192B1093C80305C09091C903192B5C
:102110001093C9030E945B26ABC1802F0E94971CBD
:10212000112309F4B8C180E2800F883060F10023E8
:1021300051F1812F0E944D2629C0812F807F1F7071
:10214000803211F01295107F002321F0013009F444
:102150005EC069C08091AB0182FF1BC0CC2069F0DA
:10216000112339F09091C803192B1093C8030E94D2
:102170005B2680E00E94EE1C8EC180E00E94971CCE
:10218000112309F488C1812F0E9454260E945B26E6
:1021900082C1CC2031F1DD2001F1B1E0DB120FC0B2
:1021A0008091A002182B181709F475C10E942B28E2
:1021B00090939F0280939E021093A0026CC1E5E071
:1021C000DE120BC00E9442268091920218131093D7
:1021D0009202812F0E948D1C5EC18091A002812BF2
:1021E000F9CFDD2051F0F1E0DF120DC08091C8037E
:1021F000812309F450C10E94FF260E944226812FAC
:102200000E94861C48C125E0D212F7CF44C1CC20E1
:1022100029F085E08D1508F43EC1DBCF94E09D15D3
:1022200008F439C1ECCFCC2019F0DD2091F220C1A7
:10223000D11023C1E4CF812F86958695837019F044
:10224000813059F028C1CC2019F0C801937002C028
:1022500080E090E00E949D2824C1CC2019F0C801A4
:10226000937002C080E090E00E9487281AC1812FFD
:102270008370A9F5C11013C1402F42954695477050
:10228000440F440F802F8F7090E09C01042E01C0FA
:10229000220F0A94EAF704FF08C08FE090E001C023
:1022A000880F4A95EAF7809501C080E0169516954B
:1022B0001370123069F088F49091A102113019F076
:1022C000822B892302C0922B892B0E94E01BE7C03E
:1022D000822B9091A1028927F8CF822BF6CFCC20B8
:1022E00019F0812F817001C08695882309F4D7C029
:1022F000402F429546954770440F440F802F8F70B2
:1023000090E09C01042E01C0220F0A94EAF704FF1A
:1023100008C08FE090E001C0880F4A95EAF78095E9
:1023200001C080E0169516951370123059F078F4BC
:102330009091DF01113019F0822B892309C0922B73
:10234000892B06C0822B9091DF01892701C0822B47
:102350000E94C51BA4C01F70CC2039F0812F0E94A1
:10236000D51B802F0E948D1C9AC0802F0E94861C36
:10237000812F0E94C91B93C0023F61F128F4003FE6
:1023800041F0013F01F16FC0033F59F1043FB9F043
:102390006AC0CC2079F0F4E0FD1508F47CC01F7110
:1023A00081E090E001C0880F1A95EAF79091DF0173
:1023B000892721C025E02D1508F46DC0F0CF80914C
:1023C000AB0182FF1BC0CC2039F0812F8F710E949E
:1023D000D51B61C0CC20C9F3812F8F710E94C91B0E
:1023E0005AC0CC2039F01F7181E001C0880F1A95C6
:1023F000EAF701C080E00E94C51B4DC0CC20D9F097
:10240000809192020E9454268091950287708430B8
:1024100039F40E94A826812F8F710E94C91B5EC0CB
:1024200084E08D1508F45AC01F71812F0E94D51BBE
:1024300063E0812F11C09091C80380919202892B93
:102440008093C80394E09D1550F40E94A8260E9432
:10245000FF2664E0812F8F710E94E9263FC081E052
:102460000E94AF263BC0CC2029F0DD2009F4ADCF7F
:10247000802F80CEDD2009F4AFCF093349F4AFEFD0
:10248000B7EEE3E0A150B040E040E1F700C000004B
:10249000802F0E94971C88EF8A0D843010F40E94D0
:1024A000B328BB20B1F08091950280FD12C0D70106
:1024B00012961C928595859585950E94D51BC7011E
:1024C0000E94250C809195028595859585950E94A1
:1024D000C91B60E0C7010E94412DDBC0B12CDFCFDA
:1024E0000031AFE51A0711F481E006C00131BFE504
:1024F0001B0709F03CCB82E00E94D51BD5CA69E2DC
:1025000043CD043C2CE5120709F48AC0053C1C4568
:1025100009F090CD4FE250E368E370E39EC0093CC0
:10252000ACE51A0709F48BC070F4073CECE51E0714
:1025300009F480C0083C1C4509F07CCD43E250E31F
:1025400067E170E38AC00A3C2CE5120709F47CC0FD
:102550000B3C1C4509F06ECD46E650E367E770E39F
:102560007CC0013DACE51A0709F483C098F40E3C29
:10257000ECE51E0709F477C008F472C00F3C2CE5A7
:10258000120709F473C0003D1C4509F053CD6EE0FD
:1025900089E077C0043D9CE5190709F470C060F438
:1025A000023DBCE51B0709F467C0033D1C4509F06B
:1025B00041CD61E088E16AC0053DFCE51F0709F4F3
:1025C00063C00D351D4509F471CA34CD80912A02CE
:1025D00080FF1BC08E7F80932A0260912A02709137
:1025E0002B0280912C0290912D020E945430109267
:1025F000FC018FEF90E7A2E081509040A040E1F70E
:1026000000C000000E942C2051CA816080932A02E1
:1026100061E086953BC04AEC50E363ED70E31DC07A
:1026200043ED50E36AEC70E318C048E350E36FE217
:1026300070E313C047E150E363E270E30EC04FEF75
:102640005FE26BE070E309C04BE050E36FEF7FE2C5
:1026500004C047E750E366E670E30E94262026CADE
:1026600061E081E013C065E082E00BC068E086E0D5
:1026700008C064E18FE005C067E185E102C062E265
:1026800089E10E94142012CA61E083E20E9488302E
:102690000DCA0F900F900F900F90DF91CF911F9167
:1026A0000F91FF90EF90DF90CF90BF90AF909F90F1
:1026B0008F907F906F9008958091D60187FF11C011
:1026C0008091E80082FD05C08091DE018111F8CF84
:1026D00011C08091E8008B770BC08091DE018823C8
:1026E00049F08091E80080FFF8CF8091E8008E7774
:1026F0008093E8000895982F973068F59093E9004B
:10270000981739F07091EC002091ED005091F00095
:1027100003C0242F762F50E021FD02C09F5FECCF35
:102720003091EB003E7F3093EB003091ED003D7F28
:102730003093ED003091EB0031603093EB007093FB
:10274000EC002093ED005093F0002091EE0027FD67
:10275000E5CF80E008958F708093E90081E00895CF
:102760002091DC013091DD012617370748F0611513
:10277000710539F42091E8002E772093E80001C01C
:10278000B901FC0120E06115710579F18091DE014C
:102790008823F1F18530F1F18091E80083FD3CC0A0
:1027A0008091E80082FD2EC08091E80080FFEBCF91
:1027B0002091F3008091F20090E0922B6115710559
:1027C00051F08830910538F421912093F100615047
:1027D00071090196F3CF21E0089709F020E080917C
:1027E000E8008E778093E800CECF2111CFCF0AC0CA
:1027F0008091DE01882361F0853061F08091E800EE
:1028000083FD0AC08091E80082FFF2CF80E0089546
:1028100082E0089583E0089581E008950895BC0161
:1028200084E00C94A827BC0183E00C94A827809135
:10283000DF01982F9670963011F4886001C0877F71
:102840000C94C51B1F93CF93DF93CDB7DEB7AA9728
:102850000FB6F894DEBF0FBECDBFE6EDF1E08EED12
:1028600091E02091F10021938E179F07D1F780917D
:10287000D701833009F463C030F4813071F08230C5
:1028800009F49DC0B4C08A3009F489C08B3009F4C2
:102890006EC0893009F0ABC020C08091D601813A6A
:1028A00009F0A5C08091E800877F8093E8008091BF
:1028B000DA019091DB01892B21F468E08BEC91E047
:1028C00003C060E080E090E070E00E94B01380916F
:1028D000E8008B778093E8008AC08091D60181322E
:1028E00009F085C08091DA019091DB01009719F021
:1028F000029709F07CC08091E800877F8093E80010
:102900008091E80082FD05C08091DE018111F8CF41
:102910006EC02091F3008091F20090E0922B02971C
:1029200031F48091F100813011F0863021F48091F2
:10293000F1008093CA018091E8008B7754C08091A8
:10294000D601813A09F053C08091DA019091DB0100
:10295000892B09F04CC08091E800877F8093E800C4
:102960008091E80080FFFCCF80910E0137C08091FC
:10297000D6018132E1F58091DA019091DB01892B5A
:10298000B1F58091E800877F8093E8000E945C1396
:102990008091D80180930E010E94E41B28C0809191
:1029A000D601813221F58091E800877F8093E8008D
:1029B0000E945C138091D9018093C90118C0809155
:1029C000D601813AA1F48091E800877F8093E800E6
:1029D0008091E80080FFFCCF8091C9018093F100D5
:1029E0008091E8008E778093E8000E945C138091CC
:1029F000E80083FFEBC18091D6019091D701492F68
:102A000050E04A30510508F0E1C1FA01E059FF4FAA
:102A10000C945D32803821F0823809F0D7C108C0AB
:102A20008091D3019091D401992389F082600FC0E5
:102A30008091DA018F70873008F0C8C18093E90077
:102A40008091EB0085FB882780F91092E900909136
:102A5000E800977F9093E8008093F1001092F100D6
:102A60007CC1282F2D7F09F0B1C1882319F0823055
:102A700061F0ACC18091D801813009F0A7C19330D9
:102A800009F080E08093D4012EC08091D80181119B
:102A90002AC08091DA018F702FEF280F263008F0BE
:102AA00095C18093E9002091EB0020FF1CC093307A
:102AB00021F48091EB00806214C09091EB00906152
:102AC0009093EB0021E030E0A90102C0440F551FB4
:102AD0008A95E2F74093EA001092EA008091EB00B9
:102AE00088608093EB001092E9008091E800877F76
:102AF0008093E8000E945C1369C1811167C1109145
:102B0000D8011F778091E3008078812B8093E300C8
:102B10008091E800877F8093E8000E945C13809199
:102B2000E80080FFFCCF8091E30080688093E300A1
:102B3000111102C082E001C083E08093DE0146C132
:102B40008058823008F042C12091D8013091D901DB
:102B50002C3D53E0350779F583E08A838AE2898347
:102B60004FB7F894DE01139620E03EE051E2E32FE8
:102B7000F0E050935700E49120FF03C0E295EF701E
:102B80003F5FEF708E2F90E0EA3010F0C79601C0E3
:102B9000C0968D939D932F5F243149F74FBF80914D
:102BA000E800877F8093E8006AE270E0CE0101963A
:102BB0000E94B013C0C08091DA019091DB01432FD5
:102BC000552743305105B1F068F44130510509F4FF
:102BD0000CC14230510509F0F9C08BE590E0E6E107
:102BE000F4E057C04132510589F14232510509F4F0
:102BF0003CC0ECC0C901992781309105B9F070F053
:102C000082309105D9F0039709F0E0C0E3E8F4E0E1
:102C1000E4918E2F90E0E3E8F4E038C0E1EDF4E0D9
:102C2000E4918E2F90E0E1EDF4E030C0E7EBF4E0CA
:102C3000E4918E2F90E0E7EBF4E028C0E1EAF4E0C5
:102C4000E4918E2F90E0E1EAF4E020C0833091051A
:102C500008F0BCC0880F991FFC01EE5BFE4F01908D
:102C6000F081E02D89E090E014C08330910508F0F8
:102C7000ADC0FC01EE0FFF1FE45CFE4F0190F08140
:102C8000E02DDC01A75CBE4F8C9190E0009709F429
:102C90009DC02091E800277F2093E8002091DC016F
:102CA0003091DD012817390708F4C90140E0009789
:102CB00089F12091DE01222309F43DC02530D9F1AC
:102CC0002091E80023FD37C02091E80022FD2FC0AD
:102CD0002091E80020FFEBCF4091F3002091F2001B
:102CE00030E0342B009759F02830310540F44491FE
:102CF0004093F100319601972F5F3F4FF3CF41E0B2
:102D00002830310509F040E02091E8002E7720932B
:102D1000E800CDCF4111CDCF0AC08091DE018823DC
:102D200051F0853041F08091E80083FD04C080912E
:102D3000E80082FFF2CF8091E8008B778093E80073
:102D400045C0803809F042C08091E800877F8093B9
:102D5000E8008091D5018093F1008091E8008E77A2
:102D6000C7CE811133C08091D8019091D9019927A4
:102D7000029764F58091E800877F8093E8001091C6
:102D8000D8011093D5010E945C13111106C08091E7
:102D9000E30087FD02C081E001C084E08093DE0192
:102DA00042E061EC81E00E947B1342E261EC84E04E
:102DB0000E947B1342E261EC82E00E947B1342E2BC
:102DC00060EC83E00E947B138091DE018091E8003B
:102DD00083FF10C08091E800877F8093E800809196
:102DE000EB0080628093EB0005C082E190E0E1E7B8
:102DF000F4E04FCFAA960FB6F894DEBF0FBECDBF5A
:102E0000DF91CF911F9108951F920F920FB60F92ED
:102E100011242F933F934F935F936F937F938F93DF
:102E20009F93AF93BF93CF93DF93EF93FF93C091A3
:102E3000E900CF708091EC00D82FD17080FDD0E8F0
:102E40001092E9008091F000877F8093F0007894E1
:102E50000E9422141092E9008091F0008860809313
:102E6000F000CD2BCF70C093E900FF91EF91DF917F
:102E7000CF91BF91AF919F918F917F916F915F9112
:102E80004F913F912F910F900FBE0F901F9018956B
:102E9000E8EDF0E080818E7F80831092E200109256
:102EA000DA001092E100A0EEB0E08C9181608C938A
:102EB00080818F77808319BCA7EDB0E08C918E7FE5
:102EC0008C9380818F7E80831092C8010895CF9269
:102ED000DF92EF92FF920F931F93CF93DF93C8ED92
:102EE000D0E088818F7E8883E7EDF0E0808181608B
:102EF000808384E082BF81E08093C80188818E7FD7
:102F0000888302EE10E0F80110821092DA0081EE60
:102F1000C82ED12CF601108288818F778883888112
:102F20008068888388818F7D888319BC1092DE0138
:102F30001092D5011092D4011092D30190EEE92E97
:102F4000F12CF70180818B7F808388818160888369
:102F500042E060E080E00E947B13F60180818E7F7A
:102F60008083F80180818160808380818860808394
:102F7000F70180818E7F8083888180618883DF91E3
:102F8000CF911F910F91FF90EF90DF90CF90089518
:102F90001F920F920FB60F9211242F933F934F93CE
:102FA0005F936F937F938F939F93AF93BF93EF93B1
:102FB000FF938091E10082FF09C08091E20082FFCF
:102FC00005C08091E1008B7F8093E1008091DA0061
:102FD00080FF2AC08091D80080FF26C08091DA004F
:102FE0008E7F8093DA008091D90080FF18C080E145
:102FF00089BD82E189BD09B400FEFDCF81E08093E7
:10300000DE018091C80181110FC00E9448170E9403
:1030100067178091E20084608093E20005C019BCCC
:103020001092DE011092C8018091E10080FF17C06C
:103030008091E20080FF13C08091E2008E7F809338
:10304000E2008091E20080618093E2008091D800EC
:1030500080628093D80019BC85E08093DE01809166
:10306000E10084FF30C08091E20084FF2CC080E149
:1030700089BD82E189BD09B400FEFDCF8091D800F1
:103080008F7D8093D8008091E1008F7E8093E10056
:103090008091E2008F7E8093E2008091E200816067
:1030A0008093E2008091D501882311F084E007C06D
:1030B0008091E30087FD02C081E001C083E080933E
:1030C000DE018091DE018091E10083FF27C08091C5
:1030D000E20083FF23C08091E100877F8093E100BD
:1030E00082E08093DE011092D5018091E1008E7F15
:1030F0008093E1008091E2008E7F8093E2008091D6
:10310000E20080618093E20042E060E080E00E94A3
:103110007B138091F00088608093F000FF91EF9125
:10312000BF91AF919F918F917F916F915F914F91DF
:103130003F912F910F900FBE0F901F9018952091E7
:10314000E4003091E50095E64091EC00842F817019
:1031500040FF23C08091E80080FD1DC08091DE010A
:10316000882399F0853099F08091EB0085FD11C09E
:103170004091E4005091E5002417350729F3915060
:1031800011F09A01E1CF84E0089582E0089583E090
:10319000089581E0089580E008954091E80042FF9D
:1031A000DDCF0895EF92FF920F931F93CF93DF939C
:1031B0007C018B010E949F18811119C0E701011544
:1031C0001105A1F08091E80085FD0AC08091E8001A
:1031D0008E778093E8000E949F18882381F307C0B0
:1031E00089918093F10001501109E9CF80E0DF91CE
:1031F000CF911F910F91FF90EF900895CF93209161
:10320000DE012430F9F4C091E900CF703091EC0078
:10321000232F217030FD20E8C22B22E02093E9000B
:103220002091E80020FF0BC040E050E060E270E039
:103230000E94D2188091E8008E778093E800CF70CA
:10324000C093E900CF91089580E090E00E949D280E
:1032500080E090E00E9487281092C9030C945B26BE
:10326000CF92DF92FF920F931F93CF93DF936C0166
:103270000091DF018091A102082BC7E0D0E010E0AF
:10328000C8010C2E02C0959587950A94E2F780FD3F
:1032900004C02197A8F7F12C09C0FC2EB6018C2F91
:1032A0000E94192C0E943324019799F38F2DDF91EE
:1032B000CF911F910F91FF90DF90CF900895CF9302
:1032C000DF93EC010E943019BE010E94192C0E946C
:1032D0003324DF91CF910895FC0186819781009777
:1032E00019F00E94332404C0808191810E945F19EB
:1032F00092959F70963079F010F4925001C09A50D8
:10330000923068F4803F69F018F4883E40F409C0B8
:10331000843F29F406C0883E20F0813F11F080E010
:10332000089581E008959F92AF92BF92CF92DF926D
:10333000EF92FF920F931F93CF93DF93CDB7DEB73A
:1033400065970FB6F894DEBF0FBECDBF8C0185E048
:10335000F801DE01519601900D928A95E1F7F8018E
:10336000E280909148026091490240914B02509155
:103370004C024115510531F06F3F31F481E09F3F20
:1033800019F403C081E001C080E0F82FF1709F2E96
:1033900080FD4EC1F80130812181C380D48078E462
:1033A000A72E72E0B72EF0904A02F601E41BF50B4F
:1033B000FF2009F4EFC080914D02EF3AF10508F0CB
:1033C000AAC0482F407F09F05AC062131BC0931354
:1033D00019C060914E0270914F02F80146815781E9
:1033E0006417750779F4FE2CE1100CC08F708061B2
:1033F00080934D02C5010E94250C80914D02F80179
:10340000858353C1CD2831F02F3F31F481E03F3F18
:1034100019F403C081E001C080E080FD03C081E0B9
:103420008E2502C080E090E0F82FF170FF2E80FF23
:103430001CC08091910240915002841709F413C17D
:1034400090E0FC0153E0EE0FFF1F5A95E1F7EF5AB1
:10345000FD4F5181251306C05081531303C0528183
:10346000E51203C001968770E8CFFE2CEE2009F428
:103470001CC180914D02816080934D0258C062133F
:103480000FC093130DC040914E0250914F02F801AE
:10349000268137814217530719F4EE2009F4A7C09B
:1034A000C8010E946C19882381F1EE2071F12091EE
:1034B0004D02822F82958F7090E00297A4F0809148
:1034C0004802909149029A8789871B86DD86CC86BF
:1034D0002E8780914E0290914F02988B8F87CE015C
:1034E00009960E94250C88E0F801A8E4B2E001905A
:1034F0000D928A95E1F70E940F270AC06217C9F062
:10350000C8010E946C19811127C0C8010E94250CB6
:10351000FF24F394CAC0482F407F81F788E492E0EB
:103520000E94250C88E0F50111928A95E9F7F12CAB
:10353000BCC09313E5CF40914E0250914F02F80169
:103540002681378142175307D9F6E110D9CF8583F9
:10355000C8010E94250C66C0EE20B9F220914D02F0
:10356000822F82958F7090E002970CF4BCCF8091EF
:103570004802909149029A8389831B82DD82CC8222
:103580002E8380914E0290914F0298878F83CE01B7
:103590000196A7CFEF3AF10508F044C0FE2CEE20CB
:1035A00009F4B3CF621330C093132EC020914E02A2
:1035B00030914F02F801868197812817390721F54C
:1035C00090914D0290FD17C0892F82958F70282F02
:1035D00030E02115310579F095832F30310541F028
:1035E0008F5F982F9295907F85818F70892B85832F
:1035F000C8010E94250C88E0F801A8E4B2E001901F
:103600000D928A95E1F751C0C8010E946C19811191
:103610006ACF80914D02816080934D02C8010E9463
:10362000250C43C088E0F50111928A95E9F73DC069
:10363000EE2009F46ACFC8010E946C19F82E882385
:1036400009F463CF88E0F801A8E4B2E001900D929C
:103650008A95E1F780914802909149020E945F1992
:103660000E940F2722C0398B2A8B89899A890E9450
:103670005F19292F22952F70223028F49F7039F07E
:10368000811105C00BC0243028F49F7049F4805E7E
:10369000883020F0C8010E94250C9F2CF92C05C011
:1036A000F8019581907F99F7F9CF8F2D65960FB628
:1036B000F894DEBF0FBECDBFDF91CF911F910F9168
:1036C000FF90EF90DF90CF90BF90AF909F900895C4
:1036D0009E3F61F12EE0929F800D1124682F669528
:1036E00066956695982F977083E0689FB0011124C6
:1036F00040E050E080E0FB01E40FF51FE052FE4F98
:10370000208130E0092E02C0369527950A94E2F711
:1037100021703327042E01C0220F0A94EAF7822B6E
:103720004F5F5F4F4330510531F7089580E00895B2
:103730009E3F51F12EE0929F800D1124E82FE695D7
:10374000E695E695877051E001C0550F8A95EAF736
:1037500083E0E89FF0011124E052FE4F20E030E0CA
:1037600070E04081CB01022E02C0969587950A94A5
:10377000E2F78170819584278523842781932F5FC9
:103780003F4F2330310569F708958093DF010C9492
:10379000241921E030E001C0220F8A95EAF7209534
:1037A0008091DF0182230C94C51B21E030E001C031
:1037B000220F8A95EAF78091DF01822B0C94C51BBA
:1037C0008093A1020C9424191092C80386E0E2E4CD
:1037D000F2E0DF011D928A95E9F70C942419CF934A
:1037E000DF93CDB7DEB760970FB6F894DEBF0FBE9C
:1037F000CDBF29873A874B875C876D877E878F8708
:10380000988BCE0109960E949319811151C088E0CE
:10381000FE013996DE01119601900D928A95E1F72D
:1038200079856A854C855D854115510531F06F3F7D
:1038300031F481E07F3F19F403C081E001C080E0F2
:1038400080FD36C0A0915002B0E0CD010196877096
:1038500099272091910230E08217930781F17983B3
:103860006A835D834C8393E0AA0FBB1F9A95E1F7AF
:10387000AF5ABD4F98E0FE01319601900D929A9596
:10388000E1F7809350020E94052712C028E0829F32
:10389000C00111248F5A9D4F0E9493198823E1F093
:1038A0008091910290E00196877099278093910210
:1038B00080919102909150028913E8CF0DC00E942F
:1038C000E41B1092500210929102E8E4F2E088E0CA
:1038D000DF011D928A95E9F760960FB6F894DEBF76
:1038E0000FBECDBFDF91CF910895882321F00E94B4
:1038F0004D260C945B260895882339F09091C903D6
:10390000892B8093C9030C945B260895882321F0AA
:103910000E9454260C945B260895882339F09091D8
:10392000C803892B8093C8030C945B2608958823D1
:1039300009F453C0682F823869F40E94B32881FFCC
:103940004CC069E380E492E00E946D280E945B26EF
:1039500069E30EC0833891F40E94B32880FF3DC014
:1039600063E580E492E00E946D280E945B2663E597
:1039700080E492E00E9460280C945B26843869F40D
:103980000E94B32882FF29C067E480E492E00E948D
:103990006D280E945B2667E4EBCF8CEF860F813A9F
:1039A00038F380E2860F883048F4677081E001C008
:1039B000880F6A95EAF70E945426DECF8BE5860FC2
:1039C000833020F480E090E00C949D28685A6731A1
:1039D00020F480E090E00C9487280895CF9388230A
:1039E00009F496C0C82F8238B1F40E94B32881FD33
:1039F0008FC069E380E492E00E946D280E945B26FC
:103A00002FEF81EE94E0215080409040E1F700C01C
:103A1000000069E317C08338E1F40E94B32880FDF9
:103A200077C063E580E492E00E946D280E945B26E7
:103A30002FEF81EE94E0215080409040E1F700C0EC
:103A4000000063E580E492E00E946028CF910C942E
:103A50005B268438B1F40E94B32882FD59C067E424
:103A600080E492E00E946D280E945B262FEF81EE99
:103A700094E0215080409040E1F700C0000067E4EE
:103A8000E1CF8CEF8C0F813A80F4E2E4F2E088E43D
:103A900092E02191C217A1F18E179F07D1F76C2FE9
:103AA00080E492E00E946D28D1CF80E28C0F8830B4
:103AB00068F4C77081E090E001C0880FCA95EAF70A
:103AC0009091C803892B8093C803C0CFEBE5EC0F1E
:103AD000E33040F4F0E0E359FE4F808190E0CF9175
:103AE0000C949D28C85AC73198F4EC2FF0E0EE0FE3
:103AF000FF1FE059FE4F80819181CF910C94872860
:103B00006C2F80E492E00E9460280E945B26C7CF61
:103B1000CF9108951F93CF93DF93182F893319F016
:103B2000C0E0D0E002C0C0E5D0E0812F0E94EE1CD2
:103B3000209741F08FE99FE00197F1F700C0000066
:103B40002197F6CF812FDF91CF911F910C94971C75
:103B50000895CF93DF93EC01EAE2F2E043816281C2
:103B60008C810E9482318C818F5F8C83DF91CF9119
:103B70000895CF93DF93EC01EC81F0E0E652FB4F28
:103B80004491EAE2F2E0628181810E9482318C817B
:103B90008F5F8C83DF91CF9108958F929F92AF9228
:103BA000BF92CF92DF92EF92FF920F931F93CF932A
:103BB000DF93CDB7DEB72A970FB6F894DEBF0FBEFE
:103BC000CDBF0CEC13E0E12CF12C8FE1C82E8FE17E
:103BD000D82E9AE4A92E9FE1B92E26E7822E2EE157
:103BE000922EF801D182C082B382A2829582848211
:103BF000F58AE48ABE016F5F7F4F8E2D0E940B2BEA
:103C0000892B29F489859A85F801938B828BFFEFA4
:103C1000EF1AFF0A0A5E1F4F87E0E816F10409F762
:103C20002A960FB6F894DEBF0FBECDBFDF91CF91BD
:103C30001F910F91FF90EF90DF90CF90BF90AF90CA
:103C40009F908F9008950F931F93CF93DF9300D091
:103C500000D01F92CDB7DEB78C0190930C038093F8
:103C60000B03011580E2180738F5802F0E94971C7E
:103C7000C801805E9109089718F00115110571F4CB
:103C8000C8010E94D22F0F900F900F900F900F90AD
:103C9000DF91CF911F910F910C94861CC8010E9457
:103CA000D22F0F900F900F900F900F90DF91CF9128
:103CB0001F910F910C94751C8EEF89838A831B8250
:103CC0000E942B288160782F9D838C8349815A81A3
:103CD0006B818D810E94782D0F900F900F900F9027
:103CE0000F90DF91CF911F910F9108950F931F9324
:103CF000CF93DF938C01EB0166E372E08C2F0E947F
:103D00000B2B892B09F040C0DD27C15DDD4F888179
:103D1000F80110821882833079F048F4813041F143
:103D2000823091F5809138029091390209C0843037
:103D300051F08530E9F028C080913A0290913B0221
:103D40000097B1F01BC080913C0290913D0200971A
:103D5000A9F4209136023091370280913802909177
:103D600039022115310541F0009741F4C90106C01F
:103D70008091360290913702009731F0DF91CF9118
:103D80001F910F910C94231EDF91CF911F910F91E2
:103D900008950F931F93CF93DF9300D000D01F920D
:103DA000CDB7DEB78C0190930C0380930B03011504
:103DB00080E21807F8F4C801805E9109089718F0AE
:103DC0000115110531F4C8010E94D22F0E948D1CEB
:103DD00005C0C8010E94D22F0E947C1C802F0F902A
:103DE0000F900F900F900F90DF91CF911F910F9137
:103DF0000C94EE1C8EEF89838A8381E08B830E9472
:103E00002B288160782F9D838C8349815A816B8117
:103E10008D810E94782D0F900F900F900F900F9032
:103E2000DF91CF911F910F910895CF93DF93EC0114
:103E30000E94C91ECE01DF91CF910C94231E0F93D7
:103E40001F93CF93DF938C01862F66E372E00E946D
:103E50000B2B892BD1F4C0913602D09137022097D9
:103E6000A1F0F8018081833039F4CE010E94151F42
:103E7000CE010E94151F02C0843038F0CE01DF91C0
:103E8000CF911F910F910C94151FDF91CF911F912E
:103E90000F9108950F931F93CF93DF938C01EB0144
:103EA00066E372E08C2F0E940B2B892B09F06DC00A
:103EB000DD27F8018081813041F49185911115C091
:103EC0009285992391F082E010C0823049F4F80184
:103ED0008185811107C08285811106C083E005C0FC
:103EE00086E003C085E001C084E0C15DDD4F8883CA
:103EF0008330B1F028F4813071F0823031F045C068
:103F00008430A9F0853079F140C0809138029091D9
:103F100039020097A1F5809136029091370220C0B6
:103F200080913A0290913B020097E9F028C080917D
:103F30003C0290913D02009711F5809136029091DC
:103F40003702009749F00E94151F80913802909126
:103F50003902009781F013C08091380290913902A4
:103F6000009799F00CC0809136029091370200972B
:103F700061F00E94151F8091360290913702DF9107
:103F8000CF911F910F910C94C91EDF91CF911F917A
:103F90000F91089586E290E00C94C931CF93C82F19
:103FA000811102C06FEF01C063ED83E290E00E94D7
:103FB000C931C11102C06FEF01C062E284E290E03A
:103FC0000E94C931C11102C06FEF01C064EA85E2ED
:103FD00090E0CF910C94C93180E00E94CE1F60E048
:103FE00070E0CB010E94CA1F0E94562B0E94FB2A40
:103FF00081E00C94CE1F83E290E00E94B531833DB6
:1040000081F484E290E00E94B531823251F485E27D
:1040100090E00E94B53191E0843A09F090E0892F58
:1040200001C080E08170089590912A0290FF04C041
:104030009695981740F003C0811105C090E096173F
:1040400010F40C94D33061E00C948830882311F084
:10405000FA0101C0FB01099480912A0280FF0AC085
:10406000279A85B18F7795B190682FB7F894E0E0E3
:10407000F2E00BC0E0E0F2E011821082128233968F
:1040800032E0EA32F307C1F7EBCF32E0EA32F3076E
:1040900089F0319148E095B9000000C037FF85B93B
:1040A000330F000000C000C000C085B900C04A95B1
:1040B00091F7EBCF2FBF8FE594E00197F1F700C0A8
:1040C00000000895EF92FF920F931F93CF93DF9319
:1040D0008C01C0E0D2E0E12CF12CF8018481F7E002
:1040E000EF16F1041CF4882339F002C0811104C0DA
:1040F0009E0140912D0202C09E0140E060912C0281
:1041000080912B020E94EC308FEFE81AF80A239678
:104110009EE0E916F10409F70E942C20F801848141
:1041200090E00196817099278483DF91CF911F9150
:104130000F91FF90EF9008958F929F92AF92BF9250
:10414000CF92DF92EF92FF920F931F93CF93DF9363
:10415000EC014C81042F10E09801D8010E947232CA
:104160009B01AC010E9488326B017C01E0E2F0E02F
:10417000E01BF10BA5E5B0E09B01AC010E94883289
:104180004B015C019F01DF010E946A329B01AC017F
:104190000E9493329B01AC012C0D3D1D4E1D5F1DF5
:1041A000C501B4010E943B32822FF22E99E2921790
:1041B00028F093E0299F900111240DC025E530E0FF
:1041C000281B3109C901880F991F280F391F37FF94
:1041D00002C02F5F3F4F35952795122F109590E025
:1041E000C92E92E0D92E00E085E5E82EEF1801FDFA
:1041F00002C08E2D01C08F2D9601412F60912C029F
:104200000E94EC300F5F83E0C80ED11C0E3079F7AE
:104210000E942C208C81811102C091E003C0803269
:1042200019F49FEF9093110190911101890F8C83E4
:10423000DF91CF911F910F91FF90EF90DF90CF9082
:10424000BF90AF909F908F9008950F931F93CF933F
:10425000DF93C0E0D2E0FE01118210821282339619
:1042600082E0EA32F807C1F700E010E08091FE0139
:10427000082E000C990B0817190794F08091100173
:10428000082E000C990B8017910754F09E01409165
:104290002D0260912C0280912B020E94EC3003C011
:1042A000198218821A820F5F1F4F23960E30110554
:1042B000E9F60E942C2080910F019091FE01980F49
:1042C0009093FE0120911001280F209310011216E7
:1042D00014F49D301CF0819580930F01DF91CF91F4
:1042E0001F910F910895BF92CF92DF92EF92FF92AC
:1042F0000F931F93CF93DF93FC01828180FF03C054
:10430000DD24DA9402C0DD24D39400E012E0C0E0A2
:10431000D0E02EE0B22EF80111821082128294E0D9
:10432000E92EF12CC12C8091FD018C0D8F302CF0E9
:104330006B2D0E940532892F02C087FD825F082EF7
:10434000000C990BC817D90791F480912D028E9D0E
:10435000A0018F9D500D1124559547955595479572
:10436000980160912C0280912B020E94EC30CD0CC0
:10437000F1E0EF1AF108B9F621960D5F1F4FCE302C
:10438000D10549F60E942C208091FD0191E0D912BF
:1043900006C0811102C08DE007C0815005C090E0C9
:1043A0000196BE010E9427328093FD01DF91CF91DB
:1043B0001F910F91FF90EF90DF90CF90BF900895E5
:1043C000EF92FF921F93CF93DF93EC0180E0E82EF2
:1043D00082E0F82E10E08C81970140912D026091CF
:1043E0002C02810F0E94EC301E5E83E0E80EF11C6F
:1043F0001C3F89F70E942C209A818C8190FF02C07B
:104400008F5F01C081508C83DF91CF911F91FF900E
:10441000EF90089590912A0290FF0CC0E0E0F2E046
:10442000818360834283339692E0EA32F907C1F7D1
:104430000C942C2008950F931F93CF93DF9300D0FB
:104440001F92CDB7DEB78C018091FF0181110AC0A8
:104450009E012F5F3F4F4FEF6FEF0E94EC308A813C
:104460008093FF01F8018481813051F028F082307F
:1044700061F44091FF010AC08091FF0140E007C054
:104480006091FF0140E080E003C040E080E060E038
:104490000E940A22F801848190E0019663E070E0B6
:1044A0000E94273284830F900F900F90DF91CF915D
:1044B0001F910F9108955F926F927F928F929F92BA
:1044C000AF92BF92CF92DF92EF92FF920F931F9322
:1044D000CF93DF9300D01F92CDB7DEB7182F762E83
:1044E000042F622E90912A0290FF6DC0E92FE6956D
:1044F000AE2FB0E0A85BBE4F8C918093FB019E7FF6
:10450000923061F49E012F5F3F4F812F0E94EC306B
:104510004B8169818A810E940A2243C0823019F44A
:1045200000912D023EC0863019F410912B0239C043
:104530008930D9F38931A9F5E9518E2F8170582E30
:10454000E695F0E0EB52FB4FA590B49080E0C82ECA
:1045500082E0D82EE12CF12CBB249EE0892E912CF8
:10456000AE9CC001AF9C900DBE9C900D1124B40177
:104570000E941332812F511002C0860F01C0861B8A
:104580009601402F672D0E94EC308FEFE81AF80A51
:1045900083E0C80ED11C8EE0E816F10409F70E94F2
:1045A0002C2010932B0270922C0200932D02662077
:1045B00051F060912A0270912B0280912C0290910F
:1045C0002D020E9454300F900F900F90DF91CF91E9
:1045D0001F910F91FF90EF90DF90CF90BF90AF9021
:1045E0009F908F907F906F905F90089580E00895E6
:1045F0009091AA0192FF0DC0282F2871283019F43C
:10460000877F846006C0282F2471243011F48B7FAB
:10461000886093FF0DC0282F2871283119F4877EF8
:10462000846106C0282F2471243111F48B7E8861A7
:104630002091AB0120FF0DC0382F3871383019F4AC
:10464000877F816006C0382F3171313011F48E7F41
:10465000886021FF0DC0282F2871283119F4877E2A
:10466000816106C0282F2171213111F48E7E88616D
:1046700094FD877E0895F894E82FE295EF70F0E0BE
:1046800031A1282F2F7081E090E001C0880F2A957A
:10469000EAF7982F9095932391A392A1892B82A357
:1046A000789408958F929F92AF92BF92CF92DF92AB
:1046B000EF92FF920F931F93CF93DF93CDB7DEB7A7
:1046C0002A970FB6F894DEBF0FBECDBFAE014F5F85
:1046D0005F4F7A018AE0FA0111928A95E9F706E2C2
:1046E00011E06A01AA24A394B12CF80180818F3FC4
:1046F00009F447C0F894E82FE295EF70F0E021A1AB
:104700008F70A50102C0440F551F8A95E2F7CA01B8
:10471000922F982B91A392A18095892382A37894BC
:1047200000C0EBE2F1E021E030E0812C912C4191DE
:104730004F3F89F0A42FA295AF70B0E090968C9176
:1047400090E04F7002C0959587954A95E2F780FDFD
:1047500002C0C90102C080E090E0882A992A220F95
:10476000331F51E0E933F50711F7F80180818F3FDE
:1047700011F00E943B23F0EAFA95F1F7F6019182DD
:1047800080820F5F1F4FF2E0CF0ED11C41E00B3251
:10479000140709F0AACF4AE050E0B70180EA91E09F
:1047A0000E94B43211E0009709F410E0892B89F0DF
:1047B0008AE0F701A0EAB1E001900D928A95E1F755
:1047C00081E08093A4020E942B289093A3028093FF
:1047D000A2028091A402882391F18091A20290917B
:1047E000A3020E941C28059750F18091A00190918E
:1047F000A1019093BE018093BD018091A20190918F
:10480000A3019093C0018093BF018091A401909176
:10481000A5019093C2018093C1018091A60190915E
:10482000A7019093C4018093C3018091A801909146
:10483000A9019093C6018093C5011092A402812F13
:104840002A960FB6F894DEBF0FBECDBFDF91CF9191
:104850001F910F91FF90EF90DF90CF90BF90AF909E
:104860009F908F900895CF93DF938238910569F1DF
:10487000B0F48133910509F46FC048F48932910591
:1048800009F465C08A32910509F46BC08AC085338A
:10489000910509F457C089339105B9F082C0833E70
:1048A000910571F138F4803E9105B1F0823E910599
:1048B00011F177C0863E9105B9F1873E9105C9F1A6
:1048C000843E910509F06DC024C02091AA0120FD0D
:1048D00053C021FD51C065C08091AA0180FD46C032
:1048E0008091AB0180FF48C08091AA0184FD3FC147
:1048F00083EE90E03EC18091AA0182FF3AC0F4CFDE
:104900008091AA0182FD35C08091AB0180FD34C049
:10491000EBCF8091AB0181FF35C08091AA0184FD6E
:1049200026C187EE90E025C18091AA0183FF27C0B0
:10493000F4CF8091AA0183FD22C08091AB0181FD5B
:1049400021C0EBCF8091AA0185FD1FC021C08091BD
:10495000AA0185FD1DC019C08091AA0186FD1BC05A
:104960001DC08091AA0186FD19C015C089E390E0A1
:1049700000C182EE90E0FDC080EE90E0FAC086EECD
:1049800090E0F7C084EE90E0F4C089E290E0F1C0DE
:1049900085E390E0EEC08AE290E0EBC081E390E036
:1049A000E8C0811532E5930708F069C0811541E53B
:1049B000940728F0982F8827816F906ADAC0883E84
:1049C000910568F5803E910508F0D3C0883A9105BD
:1049D000B8F4853A910548F0855AE82FF0E0E3599C
:1049E000FE4F808190E09064C4C08130910509F44D
:1049F000BBC008F4BCC08430910508F4B8C0B9C08D
:104A00008F3B910508F0B3C0885AE82FF0E0EE0F15
:104A1000FF1FE059FE4F808191819464AAC08115E7
:104A200020E59207F0F09C0174E0369527957A9581
:104A3000E1F7922F9370482F437021E030E002C0DD
:104A4000220F331F4A95E2F73C68392B8F70982F5D
:104A50009695969540E2949FC0011124822B932B4A
:104A600088C0811530E4930718F09F70906A81C068
:104A70009C013A9521153F4108F47BC078C0EC01B8
:104A8000C11586E5D807E8F5C11525E5D20748F038
:104A90008C2F0E94F8228F7190E0982F88279062C7
:104AA00068C0C11534E5D30728F09C2F8827846F90
:104AB000906A5FC0AE01437055272C2F269526952E
:104AC000C115D34578F481E090E002C0880F991FAA
:104AD0004A95E2F740E2249F90011124822B932B08
:104AE0009C6847C081E090E002C0880F991F4A95FA
:104AF000E2F740E2249F90011124822B932B9A68C5
:104B000038C0C1152AE5D207F8F4C11539E5D30735
:104B100090F08C2F8F700E94F82294E0D695C79564
:104B20009A95E1F7CF70D0E0DC2FCC27D0699E01B9
:104B3000282BC9011EC0C11548E5D407C0F09C2F21
:104B40008827806F906A15C0CE01905681159042DB
:104B500070F48D2F8F710E94F822282F2F71CE01B3
:104B600099279062922B05C081E090E002C080E01E
:104B700090E0DF91CF910895CF9384E090E00E9480
:104B8000B531C82F82E290E00E94B5312C2F30E081
:104B9000A901582BCA01CF91089580E090E00E94AE
:104BA000C331893E9E4F11F40C94FB1F80E00895A1
:104BB00069EE7EEF80E090E00E94E73160E082E005
:104BC00090E00E94C93160E083E090E00E94C9312A
:104BD0001092A10260E084E090E00E94C93160E0A0
:104BE00082E290E00E94C93160E085E090E00E949E
:104BF000C93160E086E090E00E94C9316FEF87E044
:104C000090E00E94C93140E050E0BA0188E090E0B5
:104C10000E94DB3160E08DE090E00E94C93140E00D
:104C200050E0BA0188E190E00E94DB3160E087E16A
:104C300090E00E94C93140E050E0BA018CE190E080
:104C40000E94DB3160E070E080E290E00E94E7319A
:104C500040E050E0BA0188E190E00E94DB3180E062
:104C60000E94CE1F0E94EC1F40E050E0BA018FE08E
:104C700090E00E94DB3140E050E0BA0183E190E037
:104C80000C94DB318091A002882331F01092A002B5
:104C900010929F0210929E02089580959091C903F0
:104CA00089238093C903089580959091C80389232F
:104CB0008093C80308959091C8038091C903892BFC
:104CC000809340028091A002882311F10E942B283A
:104CD00020919E0230919F02821B930B8838934152
:104CE00010F00E944226909140028091A002892BF0
:104CF00080934002E2E4F2E097E080E0915029F0F6
:104D000021912223D9F38F5FF9CF81110E9442268E
:104D100048E050E066E972E080E492E00E94B4323C
:104D2000892BA9F088E0E0E4F2E0A6E9B2E0019086
:104D30000D928A95E1F7E0916804F091690430974B
:104D400031F00280F381E02D80E492E0099408952F
:104D5000109295021092940210929302089520915D
:104D600095028095822380939502982F977099F4ED
:104D700030E0482F082E000C550B2417350759F04A
:104D80009091AB0192FD07C08595859585950E9410
:104D9000C91B0C94A8260895CF93C091AB01C2FB08
:104DA000992790F9981799F080FBC2F9C093AB014D
:104DB0006091AA0184E090E00E94C9316C2F82E2E8
:104DC00090E00E94C93182E0CF910C94AF26CF9140
:104DD00008959091AB0192FD10C098E0899F9001D9
:104DE0001124262B209395020E94D51B0E942B286C
:104DF000909394028093930208950C94D51B809114
:104E000092028111109292020895809191029091E4
:104E10005002891719F08F5F8770FBCF08951F9399
:104E2000CF93DF9380914D0282958F7009F05CC023
:104E300080914A02882309F457C080919102109111
:104E400050026091480270914902C0914B02D0918A
:104E50004C0291E06F3F09F090E0292F811709F48F
:104E600043C0209721F07F3F21F030E003C031E0C4
:104E700001C0322F90E030FD34C0FC0133E0EE0F72
:104E8000FF1F3A95E1F7DF01AF5ABD4F11963C91F4
:104E90001197371326C03C91361323C012963C91CC
:104EA000129731111EC013964D915C9114974C1BB3
:104EB0005D0B4F3A5105A8F480914D028F708061CF
:104EC00080934D02EA5AFD4F80818F70806180830C
:104ED00088E492E00E94250CDF91CF911F910C9401
:104EE000052701968770BACFDF91CF911F91089562
:104EF00008958091CA010895CF93DF9321E0209314
:104F0000E9002FEF3091E800215035FD06C035ED66
:104F10003A95F1F700002111F5CF2091E80025FF27
:104F200014C0EC0140E050E068E070E00E94D2184C
:104F30008091E8008E778093E80088E0FE01ABEC7A
:104F4000B1E001900D928A95E1F7DF91CF9108953C
:104F50008093710470937304609372048091DE01F6
:104F60008430F9F48093E9008FEF9091E80081504C
:104F700095FD06C095ED9A95F1F700008111F5CFEA
:104F80008091E80085FF0DC040E050E063E070E0F4
:104F900081E794E00E94D2188091E8008E77809398
:104FA000E800089581E08093E00080E28093D800DB
:104FB0001092C9008FE19EE40197F1F700C0000054
:104FC00087E090EBDC0180937A0490937B04A093BC
:104FD0007C04B0937D049CE088E10FB6F894A8951A
:104FE000809360000FBE90936000FFCF78941F9273
:104FF0000F920FB60F9211248F939F93AF93BF938D
:1050000080916D0490916E04A0916F04B091700432
:105010000196A11DB11D80936D0490936E04A09321
:105020006F04B0937004BF91AF919F918F910F90D7
:105030000FBE0F901F9018959C014FB7F894809168
:105040006D0490916E04A0916F04B09170044FBFF5
:10505000821B930B08952FB7F89480916D04909163
:105060006E04A0916F04B09170042FBF08951F9239
:105070000F920FB60F9211248F939F93AF93BF930C
:1050800080916C04811113C080916D0490916E0425
:10509000A0916F04B09170044196A11DB11D809341
:1050A0006D0490936E04A0936F04B0937004BF914D
:1050B000AF919F918F910F900FBE0F901F901895F9
:1050C0009C012A5F3F4FFC014281461301C01282BE
:1050D000019682179307B9F708959C01FC01329657
:1050E0009FEF80E04191461789F09F3F19F44111ED
:1050F00001C0982F8F5F8630A9F79F3F39F0F901E3
:10510000E90FF11D97FDFA956283089508952091A6
:105110006A0430916B042817390771F090936B047F
:1051200080936A04E0916804F0916904309721F05B
:105130000084F185E02D0994089520916604309152
:1051400067042817390771F0909367048093660409
:10515000E0916804F0916904309721F00680F781AE
:10516000E02D09940895E0916804F0916904309766
:1051700021F00190F081E02D099480E00895EF92F4
:10518000FF920F931F93CF93DF93FC012285211190
:1051900036C0EC01E380F480F7E5FF1A26E12E9D8E
:1051A000C0012F9D900D1124DC01A453BC4F149617
:1051B000ED91FC9115978E529C4F309729F05496A3
:1051C0006D917C915597099586E18E9D80018F9D0B
:1051D000100D112404531C4FF80187810E9454269E
:1051E000F80180850E944D260E945B261882198650
:1051F0001B861E821D821092CB031092CA03DF9180
:10520000CF911F910F91FF90EF900895CF93DF936F
:10521000FC01218921111CC0EC0181E0818B90915E
:10522000C8038781892B8093C8039091C903808527
:10523000892B8093C9030E945B26EA81FB81CE0102
:105240000696309729F06C897D89DF91CF9109947A
:10525000DF91CF9108950F931F93CF93DF93C42FC6
:10526000D22FFC0182818823C9F04093C7030E949A
:105270002B289093C6038093C50380E28C0F88305F
:1052800008F057C0C77081E001C0880FCA95EAF7DF
:10529000DF91CF911F910F910C948D1C8091C703CA
:1052A000481330C08091C5039091C6030E941C280A
:1052B0008F3A910538F510E21D0FCD17B9F080E255
:1052C0008C0F883040F4C77081E001C0880FCA9508
:1052D000EAF70E94861C183028F581E09D2F977010
:1052E00001C0880F9A95EAF70E948D1C802F0E94BA
:1052F0008A1D1830F0F4D77081E001C0880FDA956C
:10530000EAF70AC080E28C0F883098F4C77081E019
:1053100001C0880FCA95EAF7DF91CF911F910F91D5
:105320000C94861C802FDF91CF911F910F910C94CC
:105330008A1DDF91CF911F910F910895BC0140917B
:10534000C1038091C203942F981729F1292F30E0CF
:10535000F901EE0FFF1FE754FC4F0190F081E02DA3
:10536000E617F70799F487E0869FF001879FF00D15
:105370001124ED58FC4F81E0848394130CC02F5FFF
:105380003F4F237033272093C10308952F5F3F4F72
:10539000922F9370D9CF08950F931F93CF93DF93DC
:1053A00080911203882309F453C0C09111031CE0BB
:1053B00080911203C81708F047C001E00C0F00935A
:1053C0001103D0E01C9FF0011D9FF00D1124ED5E34
:1053D000FC4F9081818123813481232B31F08F3FD9
:1053E00031F481E09F3F19F403C081E001C080E007
:1053F00080FD28C01C9FD0011D9FB00D1124AD5E03
:10540000BC4F16968D919C911797892B31F4189665
:105410008D919C911997019651F42081318142819F
:10542000538164817581868197810E94EF1B1C9F47
:10543000F0011D9FF00D1124ED5EFC4F14821382CC
:105440001092C903C02FB4CF10921203109211030F
:10545000DF91CF911F910F91089510921003109238
:105460000F03E3E7F3E08581811102C01482168205
:10547000379683E0E93BF807B1F708951092C4032B
:105480001092C303109212018091C2038093C10352
:105490000E942D2A0C94CC293F924F925F926F92DA
:1054A0007F928F929F92AF92BF92CF92DF92EF92B4
:1054B000FF920F931F93CF93DF93C091C10397E0A7
:1054C000892E01E010E02CE0322E3EEF932E442492
:1054D00043948091C203C81709F478C0D0E0FE015C
:1054E000EE0FFF1FE754FC4F80819181889ED00111
:1054F000899EB00D1124AD58BC4F14962C91149771
:10550000211161C050901203E3E1F3E020E030E0AC
:10551000712C5D01251508F054C0E284F384D50197
:10552000CD90DC906FEF7FEF612C462D50E0DA01DB
:10553000AA0FBB1FAC0DBD1D0D90BC91A02D1097E7
:1055400031F0EA16FB0609F4BA016394EECF6F3F1F
:10555000BFEF7B0791F1D80102C0AA0FBB1F6A956C
:10556000E2F77A2AB80102C0660F771F6A94E2F761
:10557000AB0141505109672D70E046175707D9F428
:10558000329EF001339EF00D1124ED5EFC4F889E9B
:10559000D001899EB00D1124AD58BC4F12962D91AB
:1055A0003C911397378326839082918291878087DD
:1055B00015964C9206C0148213822F5F3F4F3C9683
:1055C000A9CF0E949E292196C37083CF0E94CC2927
:1055D000DF91CF911F910F91FF90EF90DF90CF90CF
:1055E000BF90AF909F908F907F906F905F904F9003
:1055F0003F900C942D2ACF93DF93CDE8D3E060E069
:10560000CE010E94C9312196C11584E0D807B9F7AF
:10561000DF91CF910895873080F49B01982F8AE025
:10562000989FB00111246D517D4F4AE050E0C901AF
:105630000E94A53180E090E008958FEF9FEF0895DC
:105640000F931F93CF93DF93853058F5653048F55E
:105650004E3038F521159CE5390731F4E091090306
:10566000F0910A03EF2BE9F08901C42FD0E0CC0FB1
:10567000DD1F9CE1699FC00DD11D11249CE8899F0D
:10568000C00DD11D1124612FCE0187960E94C93112
:10569000602FCE018896DF91CF911F910F910C94CE
:1056A000C931DF91CF911F910F9108956F927F9231
:1056B0008F929F92AF92BF92CF92DF92EF92FF9222
:1056C0000F931F93CF93DF93CDB7DEB764970FB6D9
:1056D000F894DEBF0FBECDBFA0900903B0900A03BF
:1056E00081E090E090930A0380930903612CC12C20
:1056F000D12C712CE12CF12C00E010E046018E0C35
:105700009F1CF801EE0FFF1FE80DF91DE652FA4F3E
:1057100025913491402F672D862D0E94202B0F5FFD
:105720001F4F0E30110569F78CE1E80EF11C7394E0
:10573000E5E07E12E1CFFCE8CF0ED11C639485E05A
:105740006812D7CF1A8219821C821B821E821D8288
:1057500018861F828FEA90E09A87898703EE12E00D
:105760004AE050E0B801CE0101960E94ED31065F9B
:105770001F4F0932E3E01E0799F77E01FBE0EF0EB1
:10578000F11C8AE0F70111928A95E9F74AE050E0AE
:10579000B801C7010E94ED31065F1F4F0D38F3E0DD
:1057A0001F07A1F7B0920A03A092090364960FB6EF
:1057B000F894DEBF0FBECDBFDF91CF911F910F9147
:1057C000FF90EF90DF90CF90BF90AF909F908F9021
:1057D0007F906F9008950F931F93CF93DF93853041
:1057E00008F56530F8F44E30E8F4C42FD0E0CC0F63
:1057F000DD1F2CE1629FC00DD11D11243CE8839F69
:10580000C00DD11D1124CE0187960E94B53190E0C4
:10581000182F0027CE0188960E94B5319801282BB9
:10582000C90102C080E090E0DF91CF911F910F91FC
:105830000895462F20910D0330910E03232B91F4F0
:105840007E3F39F46E3F71F480910B0390910C030D
:105850000895853038F4753028F46E3018F4672FC9
:105860000C94EB2B80E090E00895CF92DF92EF92C2
:10587000FF920F931F93CF93DF93CDB7DEB72A9795
:105880000FB6F894DEBF0FBECDBF84E6E5EAF2E0C6
:10589000DF011D928A95E9F786E4E3E7F3E0DF0193
:1058A0001D928A95E9F785EAC82E82E0D82E7F01FD
:1058B00009E213E0F701D182C0824AE050E0B8016A
:1058C000CE0101960E94A53188E0FE013196D601F5
:1058D00001900D928A95E1F789859A85D7011396F3
:1058E0009C938E931297BAE0CB0ED11CE7E0EE0E9C
:1058F000F11C065F1F4F0D38F3E01F07D9F62A96FB
:105900000FB6F894DEBF0FBECDBFDF91CF911F91D0
:105910000F91FF90EF90DF90CF900895AF92BF92DC
:10592000CF92DF92EF92FF920F931F93CF93DF936B
:10593000EC018AE0A82E2881222309F497C02130A7
:1059400009F041C08981813039F48E010E5F1F4F0B
:105950008A810E948A1D08C0823041F48E010E5F48
:105960001F4F8A810E94EE1CE8017EC0833039F40B
:105970008E010E5F1F4F8A810E94971CF5CF8430E5
:1059800011F0219671C02A81229680E090E030E0EB
:10599000205331092A30310558F4A89EA001A99E50
:1059A000500D1124C901840F951F21962881EFCF36
:1059B000009709F459C0EFE9FFE03197F1F700C013
:1059C00000000197F5CFE22FF0E0EA53F74FB490D3
:1059D000822F86958695869590E0FC01EA54F74FD4
:1059E000E4902770F12C022E02C0F594E7940A94FB
:1059F000E2F7F1E0EF22FF24FC01EA55F74FC490F3
:105A0000D12C022E02C0D594C7940A94E2F731E05B
:105A1000C322DD24FC01EA56F74F049110E002C0D6
:105A2000159507952A95E2F701701127E114F10405
:105A300019F081EE0E94EE1CC114D10419F086EE1B
:105A40000E94EE1C8B2D0E948A1DCD2819F086EE37
:105A50000E94971CEF2819F081EE0E94971C012BE1
:105A600019F08CE20E948A1D219665CFDF91CF91BB
:105A70001F910F91FF90EF90DF90CF90BF90AF906C
:105A800008951F93CF93DF9300D000D01F92CDB71E
:105A9000DEB7FC0186819781009709F5CF0125E0EB
:105AA000DE01119601900D922A95E1F7FC01228109
:105AB00089819A81222359F0662349F00E94301986
:105AC000182F682F89819A810E94981B03C00E9419
:105AD000681B182F69817A81812F0E94192C0F90E1
