:100000000C94AF040C94E7040C94E7040C94E704FC
:100010000C94E7040C94E7040C94E7040C94E704B4
:100020000C94E7040C94E7040C945C180C94981757
:100030000C9446290C94E7040C94E7040C94E70410
:100040000C94E7040C94E7040C94E7040C94E70484
:100050000C94E7040C94F9280C94E7040C94E7043E
:100060000C94E7040C94E7040C94E7040C94E70464
:100070000C94E7040C94E7040C94E7040C94E70454
:100080000C94E7040C94E7040C94E7040C94E70444
:100090000C94E7040C94E7040C94E7040C94E70434
:1000A0000C94E7040C94E7040C94E7043A0B500B0F
:1000B000560B8E0B9F0BAA0BBA0BCD0B100C150C0D
:1000C000B00CB00CB00C1D0C2C112C115C115C117F
:1000D000DB11F7111613161302127612871287120C
:1000E0009E15C5157A17C5157A17111634167A1785
:1000F000351745171E140A05FD377A585A000004B3
:10010000E6D6B4460200210116000000742FE5A3D4
:10011000E0083901BF5D003D8889C65436C3174FDA
:10012000E4E6BF66179AFC6817941FDEA313E44445
:100130007FFE3BB4E488099A4BBAC6C87C13BFA4BF
:10014000E48731191ED3370EFA90E02BBB42DCCF87
:100150001905B45A8583598DA713D6E64D3C4FFB3C
:10016000BC17B505B31F650C44264689161E17CD6E
:1001700022484D4B573366D55672D841046A3F89A1
:1001800093EEE8943C1EE57CD368D68D7A7E9DEE96
:10019000B43894B4C5D194B1412BC95D05DC315A52
:1001A000613ED45CAA304E4AEC7E3B861A0148A2DE
:1001B0009FAF570BBC565846E3701B501EBD6D11C8
:1001C0003BCD284E6857DF00E780E6C36FEC7D41EA
:1001D00083DFECF87E6D8810ECC1461C6CD271D1C7
:1001E0009B9AA122E8A4B4813A4CF3E4395AEB85F6
:1001F000A8412ED350C2E348E5CBAB17CF40918B3B
:10020000F5D0EC9B1642017E38D05639A8BAF0A141
:10021000DE3C809BC4CE4E5CD5F54DE8CCDF013989
:10022000209C9A010E789D4405D34B0826456BD33C
:10023000E3B5AFC99A485C32B18B86454BA843A35E
:1002400063F4172C24385596A9301A4DA34EA8559F
:10025000C5B1F3BE7D84B0C8FF7F95B2EBE973E40E
:10026000AA65A5FB8784892ED0657459B49C1C842B
:100270006F094B366791B4D8F2C8B520C2F6C215E3
:1002800057AD91178D0CD6B92309ADF529EBEEA327
:1002900076D7978B49A3B8A426A97E004806381ABA
:1002A000EF1EE284038F72AC1390A77B1692969197
:1002B0001C498A799529162BD5BF79D3D1D8F6C296
:1002C000FF2637BDEA2E1C1E1C053F99BDC5BB6726
:1002D0002608ECC5E100000037F682F14FB417E2C2
:1002E0000001DB03BA1000006F4FE592B1C467FB59
:1002F000020000000004595A05010902A10185020B
:100300000901A10005091901290515002501950517
:1003100075018102950175038101050109300931DB
:100320001581257F95027508810609381581257F7D
:10033000950175088106050C0A38021581257F95FF
:100340000175088106C0C005010980A10185031956
:10035000012AB700150126B700950175108100C06C
:10036000050C0901A101850419012AA00215012625
:10037000A002950175108100C00660FF0961A1010E
:100380000962150026FF0095207508810209631592
:100390000026FF00952075089102C005010906A1FD
:1003A00001050719E029E715002501950875018168
:1003B000029501750881010507190029FF1500261E
:1003C000FF009506750881000508190129059505A6
:1003D00075019102950175039101C009025B00034B
:1003E0000100A0FA09040000010301010009211124
:1003F00001000122400007058103080001090401F2
:10040000000203000000092111010001222200075F
:1004100005820320000107050303200001090402EF
:1004200000010300000009211101000122810007E1
:100430000584032000011201000200000008EDFE07
:1004400000000100010203011C0376006900610045
:100450006C003A006600360034006300320062002F
:100460003300630000001A03740068006500620036
:100470006F0075006C00650076006100720064001A
:1004800000001E0365007900650020006F00680011
:100490002000640065007300690067006E0073004F
:1004A000000004030904000101010101010101012F
:1004B0000202020202020202020303030303030315
:1004C00003040404040404040505050505060606E2
:1004D0000606070707070708080808090909090A9F
:1004E0000A0A0B0B0B0C0C0C0D0D0D0E0E0E0F0F44
:1004F0000F101011111112121313141415151616D2
:100500001717181819191A1A1B1B1C1D1D1E1E1F40
:100510002020212222232424252626272829292A8F
:100520002B2C2D2D2E2F30313232333435363738B7
:10053000393A3B3C3D3E3F404142434445464748B3
:10054000494A4C4D4E4F50515354555658595A5B89
:100550005D5E5F616264656668696B6C6D6F707229
:10056000737577787A7B7D7E8082838587888A8C95
:100570008E8F91939596989A9C9EA0A2A3A5A7A9C9
:10058000ABADAFB1B3B5B7BABCBEC0C2C4C6C9CBC0
:10059000CDCFD1D4D6D8DBDDDFE2E4E7E9EBEEF076
:1005A000F3F5F8FAFDFF2223252628292A2C2D2FE2
:1005B0003032333536383A3B3D3E40424345474979
:1005C0004A4C4E5051535557595A5C5E60626466AE
:1005D00068696B6D6F71737577797B7D7F818385BA
:1005E00087898A8C8E90929496989A9C9E9FA1A3BC
:1005F000A5A7A8AAACAEAFB1B3B4B6B8B9BBBCBEE0
:10060000BFC1C2C3C5C6C7C9CACBCCCDCED0D1D25B
:10061000D2D3D4D5D6D7D7D8D9D9DADADBDBDBDC5D
:10062000DCDCDCDCDDDDDDDDDCDCDCDCDCDBDBDB09
:10063000DADAD9D9D8D7D7D6D5D4D3D2D2D1D0CE69
:10064000CDCCCBCAC9C7C6C5C3C2C1BFBEBCBBB96E
:10065000B8B6B4B3B1AFAEACAAA8A7A5A3A19F9EEC
:100660009C9A98969492908E8C8A89878583817FB4
:100670007D7B79777573716F6D6B69686664626095
:100680005E5C5A5957555351504E4C4A4947454361
:1006900042403E3D3B3A3836353332302F2D2C2AFE
:1006A000292826252322A800290000000000000098
:1006B000000000000000000000003E003F0040007D
:1006C0003A002B0014001A000800150017001C0047
:1006D00018000C00120013002A003B00390004002F
:1006E0001600070009000A000B000D000E000F00A5
:1006F000330028003C00E1001D001B00060019002B
:10070000050011001000360037003800E5003D00FC
:10071000E000E3000151E20002512C0002510351BC
:10072000E600E400E7000000010001000000000016
:1007300000000000000000000000000001000100B7
:1007400001000100010001000100010001000100A1
:100750000100010001000100010001000100010091
:100760000100010001000100010001000100010081
:100770000100010001000100010001000100010071
:100780000100010001000100010001000100010061
:100790000100010001000100010001000100010051
:1007A0000100010001000100000001000100000043
:1007B0000000000000000000000000000000010038
:1007C0000100010001000100010001000100010021
:1007D0000100010001000100010001000100010011
:1007E0000100010001000100010001000100010001
:1007F00001000100010001000100010001000100F1
:1008000001000100010001000100010001000100E0
:1008100001000100010001000100010001000100D0
:1008200001000100010001000100000001000100C1
:1008300000000000000000000000000000000000B8
:1008400001000100010001000100010001000100A0
:100850000100010001000100010001000100010090
:100860000100010001000100010001000100010080
:100870000100010001000100010001000100010070
:100880000100010001000100010001000100010060
:100890000100010001000100010001000100010050
:1008A0000100010001000100010001000000000042
:1008B0000000000000000000000000000000000038
:1008C0000000000000000000000000000000000028
:1008D00000007E0F00D4FFFFFFC70000007800007B
:1008E0000000000000002A2B28000000000000008B
:1008F00000000000000000000029000000002C1E85
:100900003420212224342627252E362D3738271E41
:100910001F202122232425263333362E37381F0467
:1009200005060708090A0B0C0D0E0F1011121314FF
:1009300015161718191A1B1C1D2F3130232D3504BD
:1009400005060708090A0B0C0D0E0F1011121314DF
:1009500015161718191A1B1C1D2F3130354C112470
:100960001FBECFEFDAE0DEBFCDBF04B603FE18C076
:100970008091820490918304A0918404B0918504B5
:100980008730904BA740B04B59F4109282041092DC
:1009900083041092840410928504E0E0F8E3099542
:1009A00011E0A0E0B1E0ECE3F5E602C005900D92A5
:1009B000A238B107D9F724E0A2E8B1E001C01D9246
:1009C000A238B207E1F70E94E9040C949C320C941F
:1009D0000000CF93DF93CDB7DEB7E4970FB6F8945E
:1009E000DEBF0FBECDBF84B7877F84BF0FB6F8943C
:1009F000A8958091600088618093600010926000EB
:100A00000FBE90E080E80FB6F89480936100909359
:100A100061000FBE85B7806885BF85B7806885BFD8
:100A20008AEC93E290938301809382010E940C1BD5
:100A30000E94B31A0E94DC170E94FB178091E2000B
:100A400084608093E20078948091C7018823A1F0AC
:100A50001091E9001F709091EC00892F817090FD3A
:100A600080E8182B1092E9008091E80083FD0E9435
:100A7000B6141F701093E90082E084BD93E095BD29
:100A80009AEF97BD80936E000E948E1D811102C067
:100A90000E947F1D09E111E07EE1E72E71E0F72E53
:100AA000D8018D918D018F3F11F00E940F24E01627
:100AB000F106B1F70EE111E06BE2E62E61E0F62EF1
:100AC000F80181918F018F3F11F00E940F24E016F1
:100AD000F106B1F78AE0E6EAF1E0DF01282F1D9286
:100AE0002A95E9F7E4E8F1E0DF011D928A95E9F73C
:100AF0000E94B226811102C00E94BD2682E090E0D1
:100B00000E94F631809393010E94A12690938F0159
:100B100080938E010E942624EFE3FCE93197F1F7E0
:100B200000C000000E9426248091A60180FF08C01A
:100B30006FEF7FEF80E090E00E9428320E94D5287E
:100B400083E090E00E94F6310E945E228091900145
:100B5000811133C00E94B226811104C00E94BD26BB
:100B60000E945A1F88E090E00E94FE316093C90104
:100B70007093CA018093CB019093CC016E7F71F486
:100B80000E945A1F88E090E00E94FE316093C901E4
:100B90007093CA018093CB019093CC010E943A1EBE
:100BA0001092E5018091C90180FF04C060E0869544
:100BB0000E940C1F81E08093900185988D9A849803
:100BC0008C9A8FE891E00197F1F700C000008FB197
:100BD00085FB882780F97C9B02C092E001C090E0F1
:100BE000892B8093A00180E091E09093740480931E
:100BF00073048091C701853009F077C0FF24F39416
:100C000000E112E18091C701853009F059C080915F
:100C1000C701843009F440C01092E501809192012F
:100C2000811116C0F09292018091C901982F9170A4
:100C3000909391018E7F8093C9019FEFA0E7B2E06E
:100C40009150A040B040E1F700C000000E94C31DD9
:100C500010927704E8E1F0E020E40FB6F894A8954C
:100C6000E09360000FBE2093600083B7817F8460B3
:100C700083BF83B7816083BF7894889583B78E7F65
:100C800083BF0FB6F894A895809160008861809327
:100C90006000109260000FBE8091BD01882309F4AE
:100CA000B1CF0E942624E6EAF1E081919191892B4F
:100CB00009F05AC680EB91E08E179F07B1F7A2CFDB
:100CC0000E9462220E94B5291092920180919101A6
:100CD000882349F08091C90181608093C90160E057
:100CE00086950E940C1F0E94AD1D0E942624811132
:100CF0000E942E2956EAC52E51E0D52EA4E9B1E076
:100D0000F60100E010E0702F219131918D919D91BD
:100D100082279327009779F160E0EE24E394F12C89
:100D2000AC014E215F21452B09F16BA77CA72E2139
:100D30003F2181E0232B09F480E08DA70E943A290E
:100D40008160782F9FA78EA74BA55CA56DA58FA569
:100D50000E94272E000F111FF801EC56FE4F8081D4
:100D60009181E826F926F182E0821AC06F5FEE0CCD
:100D7000FF1C6D30A9F60F5F1F4F0530110519F6E6
:100D80008FEF88AB89AB1AAA0E943A298160782F2D
:100D90009CAB8BAB48A959A96AA98CA90E94272EA4
:100DA00080910C0190910D01019649F1912C46E141
:100DB000842E1CC0889EF001899EF00D1124EF53F3
:100DC000FC4FE288F388E114F10419F43FEAE32EC2
:100DD000F12C889E5001899EB00C112485010F537F
:100DE0001C4FF801868181110FC09394892D90E0EA
:100DF00020910C0130910D0128173907DCF6809104
:100E00001001811111C038C0858596850E941F2967
:100E1000E816F90650F7C8010E94082AC50189534F
:100E20009C4F0E94C129E1CF8091B8039091B903F2
:100E3000009711F10E941F292091F6023091F702CC
:100E400028173907C8F49091B6038091B703981713
:100E500059F00E944E2B1092F7021092F602109257
:100E6000B9031092B80308C00E94CE2A1092B903A9
:100E70001092B8030E942F2B8091E501882309F47A
:100E800040C08091E401E091C901E695E81BE09340
:100E9000E001823059F4F0E0EC50FF4FE4910E2F66
:100EA00010E02CE0E22E2EE1F22E06C000ED17E05D
:100EB00098EBE92E99E1F92E8091E101882361F008
:100EC0001092E1010E943A299093DF018093DE01A4
:100ED0001092E3011092E2010E943A29E091DE01B2
:100EE000F091DF018E1B9F0B8F3F9F4750F40E0F39
:100EF0001F1F1093DF010093DE018EED91E0F701DB
:100F000009958091A001E82FEE0FEE0FE093A0016C
:100F10008FB185FB222420F8312C7C9B03C082E01A
:100F200090E002C080E090E0822993298E2B80938C
:100F3000A0018F70E82FF0E0E55DFE4F9081809179
:100F40009F01890F80939F0184305CF080919E0106
:100F50008F5F80939E0160E080E00E94541C21E03E
:100F600001C020E080919F018D3F54F480919E014B
:100F7000815080939E0161E080E00E94541C21E03A
:100F800080919F01082E000C990B64E070E00E9494
:100F90005A3280939F0121110E942E2986E0E2EDB2
:100FA000F1E08E010F5F1F4FD80101900D928A95DD
:100FB000E1F7A090D401B090D501E090D601F09077
:100FC000D7011092D4011092D5011092D60110923F
:100FD000D701A11003C0BB2009F451C08091D001FA
:100FE0009091D1010E941F299C0190918004992326
:100FF00009F4D9C42531310508F441C09F3F19F0E7
:101000009F5F90938004AA2061F00E9455311A14CA
:1010100014F491E001C09FEF899F802D11248093EB
:10102000D401BB2061F00E9455311B1414F491E0EF
:1010300001C09FEF899F802D11248093D5013091AD
:10104000D4013323E1F02091D5012223C1F045EBF7
:101050003403C0011124992319F09093D40103C0E3
:1010600081E08093D40135EB2303C001112499233F
:1010700019F09093D50103C081E08093D501E11070
:1010800003C0FF2009F451C08091CE019091CF019F
:101090000E941F299C0190917F04992309F488C420
:1010A0002135310508F441C09F3F19F09F5F9093AF
:1010B0007F04EE2061F00E9433311E1414F491E09D
:1010C00001C09FEF899F802D11248093D601FF20BE
:1010D00061F00E9433311F1414F491E001C09FEFBE
:1010E000899F802D11248093D7013091D60133231D
:1010F000E1F02091D7012223C1F045EB3403C00178
:101100001124992319F09093D60103C081E08093B4
:10111000D60135EB2303C0011124992319F09093D4
:10112000D70103C081E08093D7018091D401811160
:101130000BC08091D501811107C08091D60181112A
:1011400003C08091D70181110E94691FAB82BC82CC
:10115000ED82FE8286E0F801A2EDB1E001900D92F1
:101160008A95E1F70E94B5299091A1018913809396
:10117000A1018091C701843009F03BCD83E08093C9
:10118000E9008091E80082FF34CD8091E80085FF7E
:1011900021C00E94331981111BC080E2E82EF12C7E
:1011A000580109C08091F100D5018D935D01B1E036
:1011B000EB1AF10869F08091E80085FDF3CF80918A
:1011C000E8008B778093E8000E943319882399F315
:1011D00091E001C090E08091E8008B778093E80077
:1011E000992309F406CDE090F402F090F50289818C
:1011F000E114F10461F08E3F09F0B2C38A818330BB
:1012000008F42CC28550833008F0AAC327C28B3063
:1012100009F40EC288F5853009F47FC0B8F4823035
:1012200009F446C030F4813009F098C31A8289E08D
:10123000F5C2833009F464C0843009F08FC34C8157
:101240006B818A810E94851A9D83ABC3873009F424
:1012500072C008F46DC0883009F4AFC0893009F05D
:101260007DC36091C9017091CA018091CB019091B9
:10127000CC010E944D1E74C3803109F41BC160F47F
:101280008D3009F4BCC008F4B8C08E3009F4BAC07F
:101290008F3009F4E1C062C3823109F410C108F44F
:1012A0000CC1833109F435C18E3F09F4D7C156C34F
:1012B0008A81823009F46EC3833051F0813009F0A5
:1012C0004DC30E942E299B838C837D836E8348C3EC
:1012D0008091F0029091F102892B09F441C3F80149
:1012E000CE010B96D6012C9111963C91B2E0CB0E1B
:1012F000D11C3283238332968E179F0799F730C310
:101300008A81823009F02AC36B817C818D819E8124
:101310000E9474320E945D1D23C32D813E813227BD
:10132000232732274C816B818A810E944F1A18C370
:101330000E94702C15C38A818138B1F050F4803836
:1013400009F00EC320E04B816091CB018091CA016E
:1013500031C0823859F1833809F002C320E040914E
:10136000CC016C818B8126C060E08B810E940C1FB8
:101370009B818091C901911111C08E7F8093C90119
:101380001092E501EFEFF0E722E0E150F04020405D
:10139000E1F700C000000E94C31DE2C2816080939B
:1013A000C90160E086950E940C1FDAC28B81809390
:1013B000CD01D6C20E945F1ED3C28A81813891F0CE
:1013C00030F4803809F0CCC28091CC0127C2823839
:1013D00089F0833809F0C4C28091CA018B8380915F
:1013E000CB01ABC18091C90180FF02C0869516C2B6
:1013F00080E014C28091CD0111C280E14DC21A82F9
:1014000083E70CC2EA80FB80FE24EF24FE24AC803C
:10141000B12C3DE1A316B10408F0A2C26801C701D6
:1014200083579C4F9601201B310B2A153B0508F072
:1014300097C243E7E416F10430F40E94F631D60176
:1014400014968C9302C0F6011482FFEFEF1AFF0A84
:101450002FEFC21AD20AE3CF8091F0029091F102ED
:10146000892B09F47DC2EA80FB80FE24EF24FE2450
:10147000CC80D12C3DE1C316D10408F071C25801D3
:10148000C70183579C4F9501201B310B2C153D053F
:1014900008F066C243E7E416F10428F4D501149677
:1014A0006C910E940A32BFEFEB1AFB0AEFEFAE1A03
:1014B000BE0AE6CF0E94FD2B53C285E0EDC1EA8053
:1014C000FB80FE24EF24FE24AC80B12CFDE1AF169E
:1014D000B10408F045C26801C70187969601201B38
:1014E000310B2A153B0508F03BC22AE8E21622E040
:1014F000F20630F40E94F631D60114968C9302C0A5
:10150000F6011482FFEFEF1AFF0A2FEFC21AD20A78
:10151000E3CFEA80FB80FE24EF24FE24AC80B12CD4
:101520003DE1A316B10408F01BC24AE8E41642E00C
:10153000F40608F015C28AE892E08E199F098A1510
:101540009B0508F40DC2370187E2680E711C80917B
:10155000F0029091F102892B11F0680160C0E0FE69
:101560000FC0C70186960E94F63190E0982F882719
:101570002D81822B81159C4531F48FEF8D8303C023
:10158000C12CD12C03C0CC24C394D12CC5018E0D09
:101590009F1D450180FF1BC0B1E08B1A9108E5E05B
:1015A0004E2E512C4C0E5D1E480C591CC3018A0D49
:1015B0009B1D0E94F631F201208130E0322F22275C
:1015C000282B21153C4519F48FEFD2018C93F8019B
:1015D000EC0DFD1D2FEFCF01801B910B8815990598
:1015E00008F0BBCF848190E0982F88273581832B2A
:1015F00081159C4511F4248325833296ECCFEAE8CB
:10160000EE16E2E0FE0628F4D60114966C910E94D4
:101610000A32BFEFEB1AFB0AEFEFCE1ADE0AC70160
:1016200087969601201B310B2A153B0540F398C184
:101630008091F0029091F102892B09F491C1C801C7
:101640000E949219FFEF21EE34E0F150204030402B
:10165000E1F700C000000E94D52882C1EA818E2FE8
:1016600090E08E30910508F07BC1FC01EA5AFF4FF3
:101670000C946E3288E0E1E1F1E0DE019196019098
:101680000D928A95E1F780E2D8011D928A95E9F7DB
:1016900085E0898388E0FE01B196DE0115963AC1A6
:1016A000198282E08A831B821C825AC18C8190E05D
:1016B000982F88272B81820F911D092E000CAA0BD1
:1016C000BB0B65E0880F991FAA1FBB1F6A95D1F756
:1016D000AC01BD01405E5F4F6F4F7F4F4817590708
:1016E0006A077B0708F43CC18115E2E09E07A1056B
:1016F000B10508F035C14130F2E05F0761057105C1
:1017000020F040E052E060E070E0481B590BBC0163
:1017100068507F4FC8010E94DD3122C1FB80EC8000
:1017200040E06E2D8F2D0E94132D99838A8341E016
:101730006E2D8F2D0E94132D9B838C8311C12E81C2
:101740003F813227232732274D816C818B810E9474
:101750003E2C06C140E250E06FEF70E0C8010E94ED
:1017600095328091F0028983EA8281E08B831C822A
:101770008D8317C181E090E09093F5028093F4028D
:1017800082E390E09093A5018093A4010E943A29FE
:101790009093A3018093A201E3C0EF28B9F1809157
:1017A000A8019091A9019C01369527958170F82E8A
:1017B000F2228091A2019091A3010E941F298536F7
:1017C0009105F0F0FF20E1F00E943A299093A301E7
:1017D0008093A2018091A4019091A501019790931B
:1017E000A5018093A401892B89F41092F50210922F
:1017F000F40281E090E09093F1028093F00206C041
:1018000082E390E09093A5018093A4018091F0027F
:1018100089838091F4028A838091A4018B83A0C084
:101820001092F1021092F0029BC040E250E06FEF84
:1018300070E0C8010E94953293C08B81823071F1B3
:10184000E8F4882309F1813009F08AC08C819AE09C
:10185000D92E7E01B1E2EB0EF11CF7012D2D119274
:101860002A95E9F7B7010E94292C8983F701DE0147
:10187000129601900D92DA94E1F772C0833069F10B
:10188000843009F44CC06CC080E2D8011D928A9566
:10189000E9F788E089838CE08A8362C06C818AE002
:1018A000FE013596DE01919601900D928A95E1F741
:1018B000683070F43AE0639FB00111246B537D4FA0
:1018C0004AE050E0CE0181960E942E3280E001C0B5
:1018D0008FEF89830E940C1B43C06C81CE018196DF
:1018E0002AE0DC011D922A95E9F76C3060F4BAE039
:1018F0006B9FB00111246B5E7C4F4AE050E00E9468
:10190000E63180E001C08FEF89838AE0FE01B19665
:10191000DE01129601900D928A95E1F721C06C814B
:101920008AE0FE013596DE01919601900D928A952E
:10193000E1F76C3070F4EAE06E9FB00111246B5E49
:101940007C4F4AE050E0CE0181960E942E3280E02A
:1019500001C08FEF89830E94B31A02C08FEF898381
:10196000C8010E94921945C909BD19BD09B400FEFC
:10197000FDCF8091D8008F7D8093D8008091E000CA
:1019800082608093E0008091E00081FDFCCF0E94A6
:10199000622238C986E290E00E94F6311B821C82E6
:1019A0001D828E83DDCF2B30310508F029CB67CB2C
:1019B0002B30310508F07ACBB8CB6F927F928F92A3
:1019C0009F92AF92BF92CF92DF92EF92FF920F93CE
:1019D0001F93CF93DF9300D000D0CDB7DEB7FC01CB
:1019E0008081918123813481232B31F09F3F31F419
:1019F00091E08F3F19F403C091E001C090E090FDA9
:101A0000CDC67F0161E0CF010E94F02D8C01D7018E
:101A100012968C91811105C0F701828181113EC01F
:101A2000F4C080910C0190910D010196A9F331EC65
:101A3000C32E33E0D32EA12CB12C99249394809102
:101A40000C0190910D018A159B0534F3D601169671
:101A50008C9116978823D9F019968D919C911A979D
:101A60000817190739F48091BF039091C003081734
:101A7000190769F0F601978614870387C6010E944B
:101A8000082AC60106960E94C1291092BE03FFEFE4
:101A9000AF1ABF0A26E1C20ED11CD1CFC8018251B4
:101AA0009F45409708F0E7C58FEF93E00E94F6311D
:101AB0008111B4C02EEED22ED00E0DE813E0DD2041
:101AC00071F0011584E0180709F4A8C0C8010E944C
:101AD000F631811101C0DA940F5F1F4FF0CF1982E8
:101AE0001A821B821C82AA24AA9468019FEFC91A39
:101AF000D90AC8010E94F63189831A82882309F421
:101B00008DC0813009F07CC04801A2E08A0E911C92
:101B1000C6010E94F631B82E8A83882309F47EC05C
:101B20008FEF8B0D833060F46801B3E0CB0ED11CD6
:101B3000C4010E94F6318B83811162C08601D5CF2A
:101B40008BEF8B0D833078F53801E3E06E0E711C5E
:101B5000C4010E94F6318B83811102C06301EECF74
:101B60006801F4E0CF0ED11CC3010E94F6318C83D2
:101B7000882321F32B813C8121308FEF380718F027
:101B8000922F80E001C0C901A6E0BA1631F0B7E09B
:101B9000BB1631F00E94A81CD1CF0E94081CCECFEA
:101BA0000E94621BCBCFE4E0BE1611F06401C6CFE9
:101BB000C4010E94F631B82E6801F4E0CF0ED11CAA
:101BC000C80103960E94F631BB2041F1882331F110
:101BD000282F30E021503109A29EA001A39E500D74
:101BE00011248B2D90E00197840F951F019708F425
:101BF000A5CFAFE9BFE01197F1F700C00000F6CF25
:101C0000CE0101960E943D2D99CF00318FE5180736
:101C1000C1F481E00E9447220E94AB148091E1024E
:101C2000877009F4BBC5D70112968C91882309F4FB
:101C3000B5C580918F0182FDB1C582E00E949427D5
:101C4000ADC501319FE5190711F482E0E3CF6801CA
:101C5000F7E5DF1A2FEFC216D10411F008F03FC0EC
:101C60006FEE71E08C2D0E94292C892BC1F586E145
:101C70008C9DF0018D9DF00D1124EF53FC4F86815A
:101C80008130C9F48091EF019091F001892B39F1F5
:101C90008091F1019091F201892B09F18091F3017A
:101CA0009091F401892BD9F48091F5019091F6017E
:101CB000892B49F014C0823091F48091F301909106
:101CC000F401892B61F026E12C9DC0012D9D900D22
:101CD00011248F539C4FFC01108A0E94082AC801CE
:101CE00097558F3F910511F008F053C020910C01DA
:101CF00030910D012817390724F490930D0180933A
:101D00000C01D70112962C91129736E1389F5001A1
:101D1000399FB00C1124F501EF53FC4F6F01208B5C
:101D200012969C918681992351F1128701878F5FCA
:101D300086830E943A29D6011E969C938E931D9706
:101D40008091EC0217968C9317979091BE03809127
:101D5000BD03892B18968C931897ED91FC911197E0
:101D6000309741F054966D917C915597C5018953F8
:101D70009C4F09951093C0030093BF030AC08823AA
:101D800041F08189882329F0C50189539C4F0E9425
:101D9000C129033FFCE51F0759F190F4083D8CE58C
:101DA0001807E9F0093D9CE51907A1F1073DACE5ED
:101DB0001A07B1F506E221EE41EE67ED7CE514C0AD
:101DC000053FBCE51B0701F1C8F0063FFCE51F0716
:101DD00039F507E225EE46EE66EF7CE505C007E241
:101DE00025EE45EE68ED7CE5C7010E942D2A16CF51
:101DF00006E221EE40EE63EF7CE5F6CF07E225EE4A
:101E000044EE64EF7CE5F0CF06E221EE42EE65EFB2
:101E10007CE5EACF08E221E045EE69ED7CE5E4CF20
:101E2000D70112968C91882309F45BC11092BC03F0
:101E30000330BDE51B0758F40A3FECE51E0780F4AC
:101E4000C80182509C45449708F035C109C001364D
:101E5000FDE51F0729F0053A2DE5120709F02BC112
:101E60000E94A12690938F0180938E0101318CE511
:101E7000180709F4C6C008F042C00930ACE51A07DB
:101E800009F49BC000F50530ECE51E0709F485C098
:101E900078F403302CE5120709F478C008F07AC012
:101EA00002301C4509F0F7C080918E018160F1C0BD
:101EB0000730ACE51A0709F478C008F07AC08091C1
:101EC0008E018061E6C00D30ECE51E0709F487C085
:101ED00058F40B302CE5120709F479C008F07BC0E8
:101EE00080918E0188606FC00F309CE5190709F45E
:101EF00080C008F082C080918E01877FCAC00D3FEC
:101F0000BCE51B0709F471C000F50531FCE51F07AE
:101F100009F485C068F403318CE5180709F475C02D
:101F200008F095C00E94622280918E018F77B1C027
:101F30000B3FACE51A07A9F108F054C00A3F1C4555
:101F400009F0A9C080918F0140C00130FDE51F0755
:101F500009F489C058F40F3F8CE5180709F45AC0FA
:101F600008F069C080918F0182602FC00136ADE515
:101F70001A0709F47EC0053ABDE51B0709F483C0C2
:101F800002301D4509F087C060E06EC080918E016F
:101F900082607FC080918E0116C080918E01886022
:101FA00078C080918F0182604FC080918E018062E5
:101FB00070C080918E0180646CC00E94622280910A
:101FC0008E01806866C0846064C081603DC080917D
:101FD0008E018E7F5EC080918E018D7F5AC0809170
:101FE0008E0116C080918F0118C080918F018D7F66
:101FF0002BC080918E018F7E4CC080918E018F7D91
:1020000048C080918E018F7B44C080918E01877F74
:102010008B7F3FC080918F018D7F8E7F15C0809117
:102020008E0182FB222720F991E0922790FB82F912
:1020300090FB83F92EC080918F01982F909591701D
:102040008E7F892B90FB81F980938F0124C00E94A1
:10205000622280918E0187FB222720F991E092274E
:1020600090FB87F916C061E08EE090E00E940A3292
:1020700012C080918E0184FB222720F991E09227E3
:1020800090FB84F906C080918E01982F909590FB6B
:1020900080F980938E0160918E0110918F0184E010
:1020A00090E00E940A32612F82E290E00E940A32A0
:1020B0000E946222B3CD0631BCE51B0759F5809121
:1020C000BD038A7A91E009F490E09093B0018823EF
:1020D00011F065E301C069E28CE892E00E946F298B
:1020E00016C00631ECE51E0709F047C08091B0012B
:1020F000882309F4CFC285E3ECE8F2E092818913EA
:1021000001C01282319622E0E239F207B9F70E944B
:10211000402784CD0A352DE5120749F158F4011501
:102120009CE51907B1F00E3D1C4509F042C00E9424
:10213000BD2674CD0B35BDE51B07D9F00C351D450B
:10214000C1F580918F0182FB882780F991E0892772
:1021500011C00E946222FFEF24E38CE0F150204086
:102160008040E1F700C000000E94D52857CD81E0F3
:1021700001C080E00E94B1271CC08091BD03827223
:10218000093C9CE5190709F4F3C208F091C2053C2B
:10219000BCE51B0709F4DDC208F07EC2033CFCE588
:1021A0001F0709F4CCC208F0CFC2023C1C4509F459
:1021B000A1C2F701868197810097B9F4F701828166
:1021C00000811181882349F0C8010E94AE1FD82EDA
:1021D000682FC8010E94162204C0C8010E94E6218F
:1021E000D82EB8018D2D0E940D2C0E9407258C0140
:1021F000D7011296DC9012971596CC90C2949FE06E
:10220000C9228091E1028770B9F0DD20A9F0812F09
:10221000807F803421F080E2800F883068F08091E8
:102220008F0182FD09C082E00E9494278091E10223
:102230008770BB24B3948111B12CA12EA2948FE09E
:10224000A8228A2D90E08C30910508F0EFC1FC01A6
:10225000EC59FF4F0C946E32812F807F1F708823C2
:1022600011F01295107FDD20B9F0112309F4CBC1D4
:1022700080E2800F883010F0011106C09091BD03FC
:10228000192B1093BD0305C09091BE03192B109319
:10229000BE030E944027B7C1802F0E94152311233F
:1022A00009F4C4C180E2800F883060F1002351F14D
:1022B000812F0E94322729C0812F807F1F7080329A
:1022C00011F01295107F002321F0013009F45EC057
:1022D00069C080918F0182FF1BC0DD2069F011234E
:1022E00039F09091BD03192B1093BD030E94402734
:1022F00080E00E944D239AC180E00E9415231123A3
:1023000009F494C1812F0E9439270E9440278EC171
:10231000DD2031F1CC20F1F0B1E0CB120FC0809183
:10232000EC02182B181709F481C10E943A299093E6
:10233000EB028093EA021093EC0278C1E5E0CE1242
:1023400009C00E9427278091DE02181779F11093A7
:10235000DE022CC08091EC02812B0E940B2366C10F
:10236000CC2051F0F1E0CF120DC08091BD0381234C
:1023700009F45CC10E94E4270E942727812F0E9454
:10238000042354C125E0C212F7CF50C1DD2029F04B
:1023900085E08C1508F44AC109C094E09C1508F446
:1023A00045C1ECCFDD2021F0C1102DC1812FD5CF4B
:1023B000C1102EC1E3CF812F86958695837019F0C9
:1023C000813059F033C1DD2019F0C801937002C08B
:1023D00080E090E00E949F292FC1DD2019F0C80104
:1023E000937002C080E090E00E94892925C1802F6F
:1023F000DD2019F00E94753102C00E94AE300E94AB
:10240000691F1AC1812F8370A9F5D11013C1402F04
:10241000429546954770440F440F802F8F7090E08F
:102420009C01042E01C0220F0A94EAF704FF08C0A1
:102430008FE090E001C0880F4A95EAF7809501C0CF
:1024400080E0169516951370123069F088F490911B
:10245000E601113019F0822B892302C0922B892BBF
:102460000E945E22E7C0822B9091E6018927F8CF77
:10247000822BF6CFDD2019F0812F817001C0869567
:10248000882309F4D7C0402F429546954770440FE2
:10249000440F802F8F7090E09C01042E01C0220F0A
:1024A0000A94EAF704FF08C08FE090E001C0880FAB
:1024B0004A95EAF7809501C080E01695169513704D
:1024C000123059F078F49091C801113019F0822B34
:1024D000892309C0922B892B06C0822B9091C801B9
:1024E000892701C0822B0E944322A4C01F70DD20D7
:1024F00039F0812F0E945322802F0E940B239AC013
:10250000802F0E940423812F0E94472293C0023F04
:1025100061F128F4003F41F0013F01F16FC0033F3A
:1025200059F1043FB9F06AC0DD2079F0F4E0FC1500
:1025300008F47CC01F7181E090E001C0880F1A95FB
:10254000EAF79091C801892721C025E02C1508F4ED
:102550006DC0F0CF80918F0182FF1BC0DD2039F06C
:10256000812F8F710E94532261C0DD20C9F3812F1A
:102570008F710E9447225AC0DD2039F01F7181E01F
:1025800001C0880F1A95EAF701C080E00E9443223B
:102590004DC0DD20D9F08091DE020E943927809164
:1025A000E1028770843039F40E948D27812F8F716A
:1025B0000E9447225EC084E08C1508F45AC01F7147
:1025C000812F0E94532263E0812F11C09091BD039F
:1025D0008091DE02892B8093BD0394E09C1550F41A
:1025E0000E948D270E94E42764E0812F8F710E9452
:1025F000CE273FC081E00E9494273BC0DD2029F018
:10260000CC2009F4ADCF802F74CECC2009F4AFCF0D
:10261000093349F4AFEFB7EEE3E0A150B040E0403A
:10262000E1F700C00000802F0E94152388EF8A0D7B
:10263000843010F40E94B529BB20B1F08091E102F2
:1026400080FD12C0D70112961C92859585958595BF
:102650000E945322C7010E94DD0C8091E102859502
:10266000859585950E94472260E0C7010E94F02D64
:1026700095C0B12CDFCF0031AFE51A0711F481E02E
:1026800006C00131BFE51B0709F029CB82E00E949B
:102690005322C2CA89E230CD073C9CE5190709F4F0
:1026A0005DC008F060C041EE5EE168ED7EE16EC0A5
:1026B0000D3CBCE51B0709F46CC060F40B3CFCE569
:1026C0001F0709F45AC008F05DC044EB5EE168EAF8
:1026D0007EE15CC0063D8CE5180738F40F3C1C45D4
:1026E00008F09CCA0E949C1499CA0D351D4509F436
:1026F00095CA5FCD8091C90180FF1BC08E7F8093FA
:10270000C9016091C9017091CA018091CB0190917A
:10271000CC010E944D1E1092E501BFEFE0E7F2E010
:10272000B150E040F040E1F700C000000E94C31D3E
:1027300075CA81608093C90161E086952CC047E429
:102740005FE160E57FE122C040E55FE167E47FE1B2
:102750001DC048ED5EE161EE7EE118C040EC5EE137
:102760006CEC7EE113C04CEC5EE160EC7EE10EC0EF
:1027700048EA5EE164EB7EE109C04AEE5EE16BEFA0
:102780007EE104C04BEF5EE16AEE7EE10E94A71D90
:1027900045CA61E081E00E940C1F40CA0F900F9073
:1027A0000F900F90DF91CF911F910F91FF90EF90BD
:1027B000DF90CF90BF90AF909F908F907F906F9061
:1027C00008958091BF0187FF11C08091E80082FDCC
:1027D00005C08091C7018111F8CF11C08091E80038
:1027E0008B770BC08091C701882349F08091E80066
:1027F00080FFF8CF8091E8008E778093E8000895FD
:10280000982F973068F59093E900981739F07091F8
:10281000EC002091ED005091F00003C0242F762FA2
:1028200050E021FD02C09F5FECCF3091EB003E7F76
:102830003093EB003091ED003D7F3093ED0030910F
:10284000EB0031603093EB007093EC002093ED00CF
:102850005093F0002091EE0027FDE5CF80E0089531
:102860008F708093E90081E008952091C501309137
:10287000C6012617370748F06115710539F4209114
:10288000E8002E772093E80001C0B901FC0120E0A8
:102890006115710579F18091C7018823F1F18530C7
:1028A000F1F18091E80083FD3CC08091E80082FD59
:1028B0002EC08091E80080FFEBCF2091F300809143
:1028C000F20090E0922B6115710551F0883091056E
:1028D00038F421912093F100615071090196F3CFF2
:1028E00021E0089709F020E08091E8008E7780933E
:1028F000E800CECF2111CFCF0AC08091C701882335
:1029000061F0853061F08091E80083FD0AC080911C
:10291000E80082FFF2CF80E0089582E0089583E02E
:10292000089581E008950895BC0184E00C94AB28DB
:10293000BC0183E00C94AB288091C90180FF07C0E3
:10294000869582588F77833010F40C94501F61E085
:1029500082E00C940C1F8091C801982F96709630DD
:1029600011F4886001C0877F0C9443221F93CF939A
:10297000DF93CDB7DEB7AA970FB6F894DEBF0FBED0
:10298000CDBFEFEBF1E087EC91E02091F1002193D6
:102990008E179F07D1F78091C001833009F463C07F
:1029A00030F4813071F0823009F49DC0B4C08A30B7
:1029B00009F489C08B3009F46EC0893009F0ABC0CE
:1029C00020C08091BF01813A09F0A5C08091E80044
:1029D000877F8093E8008091C3019091C401892B87
:1029E00021F468E084EB91E003C060E080E090E0D7
:1029F00070E00E9435148091E8008B778093E800A6
:102A00008AC08091BF01813209F085C08091C301E5
:102A10009091C401009719F0029709F07CC0809151
:102A2000E800877F8093E8008091E80082FD05C080
:102A30008091C7018111F8CF6EC02091F300809181
:102A4000F20090E0922B029731F48091F1008130F6
:102A500011F0863021F48091F1008093B3018091D0
:102A6000E8008B7754C08091BF01813A09F053C0D0
:102A70008091C3019091C401892B09F04CC08091D1
:102A8000E800877F8093E8008091E80080FFFCCF1A
:102A900080910E0137C08091BF018132E1F58091B4
:102AA000C3019091C401892BB1F58091E800877F23
:102AB0008093E8000E94E1138091C10180930E0190
:102AC0000E94622228C08091BF01813221F580914D
:102AD000E800877F8093E8000E94E1138091C201A3
:102AE0008093B20118C08091BF01813AA1F4809116
:102AF000E800877F8093E8008091E80080FFFCCFAA
:102B00008091B2018093F1008091E8008E778093EC
:102B1000E8000E94E1138091E80083FFEBC18091FF
:102B2000BF019091C001492F50E04A30510508F093
:102B3000E1C1FA01E059FF4F0C946E32803821F068
:102B4000823809F0D7C108C08091BC019091BD01C5
:102B5000992389F082600FC08091C3018F70873004
:102B600008F0C8C18093E9008091EB0085FB8827BD
:102B700080F91092E9009091E800977F9093E80027
:102B80008093F1001092F1007CC1282F2D7F09F075
:102B9000B1C1882319F0823061F0ACC18091C101CC
:102BA000813009F0A7C1933009F080E08093BD0126
:102BB0002EC08091C10181112AC08091C3018F7004
:102BC0002FEF280F263008F095C18093E90020915F
:102BD000EB0020FF1CC0933021F48091EB00806259
:102BE00014C09091EB0090619093EB0021E030E0F5
:102BF000A90102C0440F551F8A95E2F74093EA00ED
:102C00001092EA008091EB0088608093EB001092B4
:102C1000E9008091E800877F8093E8000E94E1133B
:102C200069C1811167C11091C1011F778091E300D3
:102C30008078812B8093E3008091E800877F8093E8
:102C4000E8000E94E1138091E80080FFFCCF8091B2
:102C5000E30080688093E300111102C082E001C0AC
:102C600083E08093C70146C18058823008F042C19A
:102C70002091C1013091C2012C3D53E0350779F517
:102C800083E08A838AE289834FB7F894DE01139642
:102C900020E03EE051E2E32FF0E050935700E49152
:102CA00020FF03C0E295EF703F5FEF708E2F90E042
:102CB000EA3010F0C79601C0C0968D939D932F5FA8
:102CC000243149F74FBF8091E800877F8093E80067
:102CD0006AE270E0CE0101960E943514C0C0809176
:102CE000C3019091C401432F552743305105B1F0E2
:102CF00068F44130510509F40CC14230510509F026
:102D0000F9C08BE590E0EBEDF3E057C0413251059F
:102D100089F14232510509F43CC0ECC0C901992740
:102D200081309105B9F070F082309105D9F00397A8
:102D300009F0E0C0E8E4F4E0E4918E2F90E0E8E4EC
:102D4000F4E038C0E2EAF4E0E4918E2F90E0E2EAA9
:102D5000F4E030C0E2E8F4E0E4918E2F90E0E2E8A5
:102D6000F4E028C0E6E6F4E0E4918E2F90E0E6E699
:102D7000F4E020C08330910508F0BCC0880F991F93
:102D8000FC01EC5BFE4F0190F081E02D89E090E0CA
:102D900014C08330910508F0ADC0FC01EE0FFF1F99
:102DA000E25CFE4F0190F081E02DDC01A55CBE4F9E
:102DB0008C9190E0009709F49DC02091E800277F56
:102DC0002093E8002091C5013091C60128173907EA
:102DD00008F4C90140E0009789F12091C70122233E
:102DE00009F43DC02530D9F12091E80023FD37C01A
:102DF0002091E80022FD2FC02091E80020FFEBCFBA
:102E00004091F3002091F20030E0342B009759F00C
:102E10002830310540F444914093F10031960197F8
:102E20002F5F3F4FF3CF41E02830310509F040E0FC
:102E30002091E8002E772093E800CDCF4111CDCF2F
:102E40000AC08091C701882351F0853041F08091FC
:102E5000E80083FD04C08091E80082FFF2CF8091FA
:102E6000E8008B778093E80045C0803809F042C0C5
:102E70008091E800877F8093E8008091BE01809375
:102E8000F1008091E8008E77C7CE811133C0809128
:102E9000C1019091C2019927029764F58091E800E1
:102EA000877F8093E8001091C1011093BE010E94BA
:102EB000E113111106C08091E30087FD02C081E09B
:102EC00001C084E08093C70142E061EC81E00E9490
:102ED000001442E261EC84E00E94001442E261ECE2
:102EE00082E00E94001442E260EC83E00E94001441
:102EF0008091C7018091E80083FF10C08091E800B5
:102F0000877F8093E8008091EB0080628093EB00E4
:102F100005C082E190E0E6E3F4E04FCFAA960FB659
:102F2000F894DEBF0FBECDBFDF91CF911F91089502
:102F30001F920F920FB60F9211242F933F934F932E
:102F40005F936F937F938F939F93AF93BF93CF9331
:102F5000DF93EF93FF93C091E900CF708091EC0075
:102F6000D82FD17080FDD0E81092E9008091F00058
:102F7000877F8093F00078940E94B6141092E90045
:102F80008091F00088608093F000CD2BCF70C093CB
:102F9000E900FF91EF91DF91CF91BF91AF919F91A8
:102FA0008F917F916F915F914F913F912F910F90F2
:102FB0000FBE0F901F901895E8EDF0E080818E7F96
:102FC00080831092E2001092DA001092E100A0EEED
:102FD000B0E08C9181608C9380818F77808319BC65
:102FE000A7EDB0E08C918E7F8C9380818F7E808363
:102FF0001092B1010895CF92DF92EF92FF920F935A
:103000001F93CF93DF93C8EDD0E088818F7E8883B4
:10301000E7EDF0E080818160808384E082BF81E021
:103020008093B10188818E7F888302EE10E0F801E1
:1030300010821092DA0081EEC82ED12CF601108297
:1030400088818F77888388818068888388818F7D55
:10305000888319BC1092C7011092BE011092BD0165
:103060001092BC0190EEE92EF12CF70180818B7F4C
:10307000808388818160888342E060E080E00E94F4
:103080000014F60180818E7F8083F8018081816049
:103090008083808188608083F70180818E7F808338
:1030A000888180618883DF91CF911F910F91FF907C
:1030B000EF90DF90CF9008951F920F920FB60F926E
:1030C00011242F933F934F935F936F937F938F932D
:1030D0009F93AF93BF93EF93FF938091E10082FFA3
:1030E00009C08091E20082FF05C08091E1008B7FE2
:1030F0008093E1008091DA0080FF2AC08091D8009F
:1031000080FF26C08091DA008E7F8093DA00809164
:10311000D90080FF18C080E189BD82E189BD09B472
:1031200000FEFDCF81E08093C7018091B101811144
:103130000FC00E94DC170E94FB178091E2008460A0
:103140008093E20005C019BC1092C7011092B10132
:103150008091E10080FF17C08091E20080FF13C0E2
:103160008091E2008E7F8093E2008091E200806196
:103170008093E2008091D80080628093D80019BCCF
:1031800085E08093C7018091E10084FF30C0809189
:10319000E20084FF2CC080E189BD82E189BD09B4D1
:1031A00000FEFDCF8091D8008F7D8093D800809164
:1031B000E1008F7E8093E1008091E2008F7E80931A
:1031C000E2008091E20081608093E2008091BE0184
:1031D000882311F084E007C08091E30087FD02C0DE
:1031E00081E001C083E08093C7018091C701809195
:1031F000E10083FF27C08091E20083FF23C080911C
:10320000E100877F8093E10082E08093C701109204
:10321000BE018091E1008E7F8093E1008091E20009
:103220008E7F8093E2008091E20080618093E200D3
:1032300042E060E080E00E9400148091F00088602D
:103240008093F000FF91EF91BF91AF919F918F918B
:103250007F916F915F914F913F912F910F900FBE92
:103260000F901F9018952091E4003091E50095E6AD
:103270004091EC00842F817040FF23C08091E800D2
:1032800080FD1DC08091C701882399F0853099F099
:103290008091EB0085FD11C04091E4005091E50064
:1032A0002417350729F3915011F09A01E1CF84E0FA
:1032B000089582E0089583E0089581E0089580E014
:1032C00008954091E80042FFDDCF0895EF92FF920C
:1032D0000F931F93CF93DF937C018B010E943319CF
:1032E000811119C0E70101151105A1F08091E800D5
:1032F00085FD0AC08091E8008E778093E8000E94E7
:103300003319882381F307C089918093F10001501C
:103310001109E9CF80E0DF91CF911F910F91FF90CC
:10332000EF900895CF932091C7012430F9F4C09114
:10333000E900CF703091EC00232F217030FD20E8A0
:10334000C22B22E02093E9002091E80020FF0BC06F
:1033500040E050E060E270E00E9466198091E80071
:103360008E778093E800CF70C093E900CF910895E5
:103370000895AF92BF92CF92DF92EF92FF920F9398
:103380001F93CF93DF93E82EF62EE901E42FF0E0B0
:10339000611106C0EA55FB4FE4914E2F2E2F71C0EC
:1033A000062F10E0EA55FB4F4491F42FC42ED12C88
:1033B00026E0829FC00111242FEF30E0B9010E9466
:1033C00046325BEA5603C001579F900D11248E0DC3
:1033D000911D8E0D911D582F550F580FD901A01B0F
:1033E000B10BAC9DC001AD9D900DBC9D900D112405
:1033F000E92FF59ED0011124AB2FBB277901EA1AE2
:10340000FB0AEC9CD001ED9CB00DFC9CB00D11248E
:103410005901A51AB108A09E7001A19EF00CB09EA2
:10342000F00C1124EF2CFF242E193F092C9D800154
:103430002D9D100D3C9D100D1124212F6230710522
:1034400091F048F461157105E1F061307105B9F44E
:10345000242F4B2F16C06430710569F040F06630A0
:10346000710579F00CC0242F492FE12F0AC0492F94
:10347000EF2F2B2F06C0292FE42F412F02C0292F19
:10348000EB2F49832883EA83DF91CF911F910F911E
:10349000FF90EF90DF90CF90BF90AF9008950F9383
:1034A0001F93CF93DF93853058F5653048F54D3045
:1034B00038F521159CE5390731F4E091F002F091DF
:1034C000F102EF2BE9F08901C42FD0E0CC0FDD1F12
:1034D0009AE1699FC00DD11D112492E8899FC00D0A
:1034E000D11D1124612FCE0187960E940A32602FD0
:1034F000CE018896DF91CF911F910F910C940A32E3
:10350000DF91CF911F910F9108950F931F93CF9348
:10351000DF93853008F56530F8F44D30E8F4C42FBA
:10352000D0E0CC0FDD1F2AE1629FC00DD11D112418
:1035300032E8839FC00DD11D1124CE0187960E94D1
:10354000F63190E0182F0027CE0188960E94F631C0
:103550009801282BC90102C080E090E0DF91CF9153
:103560001F910F910895CF92DF92EF92FF920F93E8
:103570001F93CF93DF93CDB7DEB72A970FB6F8949A
:10358000DEBF0FBECDBF88E7E9EFF1E0DF011D929E
:103590008A95E9F784E5EAE5F3E0DF011D928A9573
:1035A000E9F789EFC82E81E0D82E7F0105E113E00D
:1035B000F701D182C0824AE050E0B801CE01019605
:1035C0000E94E63188E0FE013196D60101900D920D
:1035D0008A95E1F789859A85D70113969C938E93F6
:1035E0001297BAE0CB0ED11CE7E0EE0EF11C065F9D
:1035F0001F4F0D38F3E01F07D9F62A960FB6F8943F
:10360000DEBF0FBECDBFDF91CF911F910F91FF9015
:10361000EF90DF90CF9008958F929F92AF92BF92DC
:10362000CF92DF92EF92FF920F931F93CF93DF938E
:10363000CDB7DEB72A970FB6F894DEBF0FBECDBF69
:1036400001EC13E0E12CF12C82EBC82E8CE1D82E9A
:103650009DEDA92E9CE1B92E25EB822E2BE1922E19
:10366000F801D182C082B382A28295828482F58AD7
:10367000E48ABE016F5F7F4F8E2D0E94292C892B1B
:1036800029F489859A85F801938B828BFFEFEF1AD5
:10369000FF0A0A5E1F4F88E0E816F10409F72A9630
:1036A0000FB6F894DEBF0FBECDBFDF91CF911F9153
:1036B0000F91FF90EF90DF90CF90BF90AF909F90D1
:1036C0008F9008950F931F93CF93DF9300D000D076
:1036D0001F92CDB7DEB78C019093F3028093F20274
:1036E000011580E2180738F5802F0E941523C801C4
:1036F000805E9109089718F00115110571F4C80151
:103700000E9481300F900F900F900F900F90DF91DB
:10371000CF911F910F910C940423C8010E94813016
:103720000F900F900F900F900F90DF91CF911F91FE
:103730000F910C94F3228EEF89838A831B820E945F
:103740003A298160782F9D838C8349815A816B81CE
:103750008D810E94272E0F900F900F900F900F9049
:10376000DF91CF911F910F9108950F931F93CF93E6
:10377000DF938C01EB016FEE71E08C2F0E94292CFE
:10378000892B09F040C0DD27C951DE4F8881F8013F
:1037900010821882833079F048F4813041F1823010
:1037A00091F58091F1019091F20109C0843051F0BE
:1037B0008530E9F028C08091F3019091F4010097E1
:1037C000B1F01BC08091F5019091F6010097A9F42A
:1037D0002091EF013091F0018091F1019091F2017F
:1037E0002115310541F0009741F4C90106C08091CF
:1037F000EF019091F001009731F0DF91CF911F918F
:103800000F910C94621BDF91CF911F910F9108953E
:103810000F931F93CF93DF9300D000D01F92CDB7AB
:10382000DEB78C019093F3028093F202011580E2DF
:103830001807F8F4C801805E9109089718F001157F
:10384000110531F4C8010E9481300E940B2305C08C
:10385000C8010E9481300E94FA22802F0F900F90A1
:103860000F900F900F90DF91CF911F910F910C94BB
:103870004D238EEF89838A8381E08B830E943A29CE
:103880008160782F9D838C8349815A816B818D81E2
:103890000E94272E0F900F900F900F900F90DF91A6
:1038A000CF911F910F910895AF92BF92CF92DF9267
:1038B000EF92FF920F931F93CF93DF93B82EA62E14
:1038C000C090C8018091E601C82AC7E0D0E0D12CA1
:1038D000E12CF12CD701C6010C2E04C0B695A7959A
:1038E000979587950A94D2F780FF13C04A2D6B2DC8
:1038F0008C2F0E94132D8C018130910551F00E9474
:10390000081C8FE39CE90197F1F700C00000C80193
:1039100011C02197F8F64A2D6B2D80E00E94132DDF
:10392000EC010E94081C8FE39CE90197F1F700C0AD
:103930000000CE010E94621B81E0DF91CF911F91B8
:103940000F91FF90EF90DF90CF90BF90AF900895D0
:10395000CF93DF93EC010E94081CCE01DF91CF9141
:103960000C94621B0F931F93CF93DF938C01862FD0
:103970006FEE71E00E94292C892BD1F4C091EF01E8
:10398000D091F0012097A1F0F8018081833039F4C3
:10399000CE010E94A81CCE010E94A81C02C0843047
:1039A00038F0CE01DF91CF911F910F910C94A81C9C
:1039B000DF91CF911F910F9108950F931F93CF9394
:1039C000DF938C01EB016FEE71E08C2F0E94292CAC
:1039D000892B09F06DC0DD27F8018081813041F429
:1039E0009185911115C09285992391F082E010C0C4
:1039F000823049F4F8018185811107C082858111E7
:103A000006C083E005C086E003C085E001C084E015
:103A1000C951DE4F88838330B1F028F4813071F0D2
:103A2000823031F045C08430A9F0853079F140C052
:103A30008091F1019091F2010097A1F58091EF0141
:103A40009091F00120C08091F3019091F4010097D2
:103A5000E9F028C08091F5019091F601009711F5E9
:103A60008091EF019091F001009749F00E94A81C0D
:103A70008091F1019091F201009781F013C0809143
:103A8000F1019091F201009799F00CC08091EF0143
:103A90009091F001009761F00E94A81C8091EF01C5
:103AA0009091F001DF91CF911F910F910C94081C20
:103AB000DF91CF911F910F91089586E290E00C94D1
:103AC0000A32CF93C82F811102C06FEF01C06EE39D
:103AD00083E290E00E940A32C11102C06FEF01C080
:103AE00069E884E290E00E940A32C11102C06FEFDF
:103AF00001C060E185E290E0CF910C940A3280E051
:103B00000E94611D60E070E0CB010E945D1D0E947B
:103B1000702C0E94FD2B81E00C94611D83E290E0EB
:103B20000E94F6318E3381F484E290E00E94F631F7
:103B3000893851F485E290E00E94F63191E08031BD
:103B400009F090E0892F01C080E0817008958823FA
:103B500011F0FA0101C0FB0109946091C901669559
:103B600070E041E050E08FE091E00E947B32892BD1
:103B700019F481E08093E5010E943A299093DF01D6
:103B80008093DE0108958091C90180FD0CC01092E0
:103B9000D9011092D8011092DA011092DC01109232
:103BA000DB011092DD01869A81B38F7B91B3906423
:103BB0002FB7F894E8EDF1E031E0EE3DF30789F03E
:103BC000319148E091BB000000C037FF81BB330F4B
:103BD000000000C000C000C081BB00C04A9591F742
:103BE000EBCF2FBF8FE594E00197F1F700C0000005
:103BF00008959091C90190FF0EC08093D901609300
:103C0000D8014093DA018093DC016093DB0140939B
:103C1000DD010C94C31D08950F931F93CF93DF9381
:103C200000D01F92CDB7DEB78C01DC011496EC9169
:103C3000F0E0EA55FA4F44918091C90180FF0EC02F
:103C40009E012F5F3F4F6091CB018091CA010E947E
:103C5000B9194B8169818A810E94F91DF80184811B
:103C60008F5F84830F900F900F90DF91CF911F9102
:103C70000F9108958091C901282F269530E02115D4
:103C8000310519F48170826005C02630310524F0B9
:103C900081708A608093C9010895CF92DF92EF927C
:103CA000FF926B017C010E943A1EB701A60188E0D9
:103CB00090E0FF90EF90DF90CF900C941C32EF9249
:103CC000FF920F931F93CF93DF9300D01F92CDB736
:103CD000DEB7F82E062F142FE22E8091C90180FF47
:103CE0002DC0E82FE695F0E0E65BFE4F90819093C3
:103CF000E4018E7F823061F49E012F5F3F4F8F2D54
:103D00000E94B9194B8169818A810E94F91D04C002
:103D1000923011F41091CC01F092CA010093CB01C2
:103D20001093CC01EE2051F06091C9017091CA014D
:103D30008091CB019091CC010E944D1E0F900F906D
:103D40000F90DF91CF911F910F91FF90EF90089509
:103D5000E9ECF1E0438128E0421B08F440E021E077
:103D6000628181810C945F1EE9ECF1E0438128E0DF
:103D7000420F08F44FEF21E0628181810C945F1EB5
:103D8000E9ECF1E0628128E0621B08F460E021E0E8
:103D9000438181810C945F1EE9ECF1E0628128E0AF
:103DA000620F08F46FEF21E0438181810C945F1E64
:103DB000E9ECF1E0818121E04381628188500C943B
:103DC0005F1EE9ECF1E0818121E043816281885F3F
:103DD0000C945F1E8091CD01882319F0815080934F
:103DE000CD016091C9017091CA018091CB01909180
:103DF000CC010C944D1E8091CD01833018F48F5F5F
:103E00008093CD016091C9017091CA018091CB016D
:103E10009091CC010C944D1E9091C90190FF36C039
:103E20009170811102C0926006C0863010F09A60D5
:103E300002C0880F982B9093C901662351F06091BE
:103E4000C9017091CA018091CB019091CC010E946F
:103E50004D1E6091C901669570E041E050E08FE031
:103E600091E00E947B32892B19F01092E50102C08B
:103E70000E94AD1D81E08093E10120E04091CC01E2
:103E80006091CB018091CA010C945F1E08958091CE
:103E9000C9018695815009F485E061E00C940C1FFE
:103EA0008091C90186958F5F863008F081E061E0DE
:103EB0000C940C1FE9ECF1E083E0808311828FEF1A
:103EC00082838383148260817181828193810C94C7
:103ED0004D1E0E943A292091D401211104C0209145
:103EE000D501222321F09093D1018093D00120911C
:103EF000D601211104C02091D701222321F09093F3
:103F0000CF018093CE01E0917304F0917404309757
:103F100049F082E08093D2010480F581E02D82EDAA
:103F200091E00994089580E090E00E949F2980E04C
:103F300090E00E9489291092BE030E944027E2ED82
:103F4000F1E086E0DF011D928A95E9F71092800486
:103F500010927F04109281040C94691FCF92DF921B
:103F6000FF920F931F93CF93DF936C010091C801D1
:103F70008091E601082BC7E0D0E010E0C8010C2ECC
:103F800002C0959587950A94E2F780FD04C02197B9
:103F9000A8F7F12C09C0FC2EB6018C2F0E940D2C25
:103FA0000E940725019799F38F2DDF91CF911F91E3
:103FB0000F91FF90DF90CF900895CF93DF93EC01A6
:103FC0000E94AE1FBE010E940D2C0E940725DF91AA
:103FD000CF910895FC0186819781009719F00E9486
:103FE000072504C0808191810E94DD1F92959F70FA
:103FF000963079F010F4925001C09A50923068F4E3
:10400000803F69F018F4883E40F409C0843F29F4E9
:1040100006C0883E20F0813F11F080E0089581E0E5
:1040200008959F92AF92BF92CF92DF92EF92FF924C
:104030000F931F93CF93DF93CDB7DEB765970FB67E
:10404000F894DEBF0FBECDBF8C0185E0F801DE0124
:10405000519601900D928A95E1F7F801E2809091D6
:1040600094026091950240919702509198024115F7
:10407000510531F06F3F31F481E09F3F19F403C0E7
:1040800081E001C080E0F82FF1709F2E80FD4EC1CD
:10409000F80130812181C380D48074E9A72E72E0B9
:1040A000B72EF0909602F601E41BF50BFF2009F401
:1040B000EFC080919902EF3AF10508F0AAC0482FAD
:1040C000407F09F05AC062131BC0931319C060915E
:1040D0009A0270919B02F801468157816417750717
:1040E00079F4FE2CE1100CC08F70806180939902EE
:1040F000C5010E94DD0C80919902F801858353C1AE
:10410000CD2831F02F3F31F481E03F3F19F403C057
:1041100081E001C080E080FD03C081E08E2502C007
:1041200080E090E0F82FF170FF2E80FF1CC080919E
:10413000DD0240919C02841709F413C190E0FC0158
:1041400053E0EE0FFF1F5A95E1F7E356FD4F518103
:10415000251306C05081531303C05281E51203C0DA
:1041600001968770E8CFFE2CEE2009F41CC18091E7
:10417000990281608093990258C062130FC0931313
:104180000DC040919A0250919B02F801268137811F
:104190004217530719F4EE2009F4A7C0C8010E9482
:1041A000EA1F882381F1EE2071F120919902822F7C
:1041B00082958F7090E00297A4F080919402909184
:1041C00095029A8789871B86DD86CC862E8780910B
:1041D0009A0290919B02988B8F87CE0109960E943C
:1041E000DD0C88E0F801A4E9B2E001900D928A9517
:1041F000E1F70E94F4270AC06217C9F0C8010E94C3
:10420000EA1F811127C0C8010E94DD0CFF24F3942E
:10421000CAC0482F407F81F784E992E00E94DD0CFC
:1042200088E0F50111928A95E9F7F12CBCC093134F
:10423000E5CF40919A0250919B02F8012681378187
:1042400042175307D9F6E110D9CF8583C8010E94E0
:10425000DD0C66C0EE20B9F220919902822F829582
:104260008F7090E002970CF4BCCF809194029091F3
:1042700095029A8389831B82DD82CC822E83809172
:104280009A0290919B0298878F83CE010196A7CFC7
:10429000EF3AF10508F044C0FE2CEE2009F4B3CF4C
:1042A000621330C093132EC020919A0230919B026A
:1042B000F801868197812817390721F59091990295
:1042C00090FD17C0892F82958F70282F30E021151F
:1042D000310579F095832F30310541F08F5F982FAC
:1042E0009295907F85818F70892B8583C8010E946C
:1042F000DD0C88E0F801A4E9B2E001900D928A9506
:10430000E1F751C0C8010E94EA1F81116ACF809174
:104310009902816080939902C8010E94DD0C43C01C
:1043200088E0F50111928A95E9F73DC0EE2009F485
:104330006ACFC8010E94EA1FF82E882309F463CFD0
:1043400088E0F801A4E9B2E001900D928A95E1F7C6
:1043500080919402909195020E94DD1F0E94F427A3
:1043600022C0398B2A8B89899A890E94DD1F292FC7
:1043700022952F70223028F49F7039F0811105C0EA
:104380000BC0243028F49F7049F4805E883020F000
:10439000C8010E94DD0C9F2CF92C05C0F801958105
:1043A000907F99F7F9CF8F2D65960FB6F894DEBF01
:1043B0000FBECDBFDF91CF911F910F91FF90EF9076
:1043C000DF90CF90BF90AF909F9008959E3F61F196
:1043D0002DE0929F800D1124682F66956695669555
:1043E000982F977083E0689FB001112440E050E05F
:1043F00080E0FB01E40FF51FEF58FD4F208130E016
:10440000092E02C0369527950A94E2F721703327CA
:10441000042E01C0220F0A94EAF7822B4F5F5F4FF0
:104420004330510531F7089580E008959E3F51F1E2
:104430002DE0929F800D1124E82FE695E695E695F4
:10444000877051E001C0550F8A95EAF783E0E89F35
:10445000F0011124EF58FD4F20E030E070E0408182
:10446000CB01022E02C0969587950A94E2F78170DF
:10447000819584278523842781932F5F3F4F2330A5
:10448000310569F708958093C8010C94931F21E0CA
:1044900030E001C0220F8A95EAF720958091C8018B
:1044A00082230C94432221E030E001C0220F8A9540
:1044B000EAF78091C801822B0C9443228093E60195
:1044C0000C94931F1092BD0386E0EEE8F2E0DF014A
:1044D0001D928A95E9F70C94931FCF93DF93CDB784
:1044E000DEB760970FB6F894DEBF0FBECDBF298749
:1044F0003A874B875C876D877E878F87988BCE0145
:1045000009960E941120811151C088E0FE01399660
:10451000DE01119601900D928A95E1F779856A8501
:104520004C855D854115510531F06F3F31F481E0D7
:104530007F3F19F403C081E001C080E080FD36C0F8
:10454000A0919C02B0E0CD0101968770992720913F
:10455000DD0230E08217930781F179836A835D83FE
:104560004C8393E0AA0FBB1F9A95E1F7A356BD4F6A
:1045700098E0FE01319601900D929A95E1F78093B3
:104580009C020E94EA2712C028E0829FC0011124E9
:1045900083569D4F0E9411208823E1F08091DD0217
:1045A00090E00196877099278093DD028091DD026B
:1045B00090919C028913E8CF0DC00E946222109254
:1045C0009C021092DD02E4E9F2E088E0DF011D9236
:1045D0008A95E9F760960FB6F894DEBF0FBECDBF9F
:1045E000DF91CF910895882321F00E9432270C9407
:1045F00040270895882339F09091BE03892B80933A
:10460000BE030C9440270895882321F00E94392787
:104610000C9440270895882339F09091BD03892B8D
:104620008093BD030C94402708958823A9F19CEF43
:10463000980F913A60F4ECE8F2E09281891301C09E
:104640001282319692E0E239F907B9F70DC090E293
:10465000980F983058F4877091E001C0990F8A95AF
:10466000EAF7892F0E9439270C9440279BE5980F81
:10467000933020F480E090E00C949F2998E5980F07
:10468000973120F480E090E00C948929803F20F05D
:104690000E94AE300C94691F0895CF93882309F4CB
:1046A00059C0C82F8CEF8C0F813AF8F4EEE8F2E095
:1046B00084E992E02191C21721F08E179F07D1F76C
:1046C0000EC0ECE8F2E082E992E02281C21301C060
:1046D000128231968E179F07C1F70E9440276C2FD8
:1046E0008CE892E00E946F2910C080E28C0F883025
:1046F00078F4C77081E090E001C0880FCA95EAF7AE
:104700009091BD03892B8093BD03CF910C944027DA
:10471000EBE5EC0FE33040F4F0E0E05BFE4F80812E
:1047200090E0CF910C949F29E8E5EC0FE73150F42D
:10473000F0E0EE0FFF1FED5AFE4F80819181CF9187
:104740000C948929C03F30F08C2F0E947531CF9195
:104750000C94691FCF9108951F93CF93DF93182F67
:10476000893319F0C0E0D0E002C0C0E5D0E0812F6D
:104770000E944D23209741F08FE99FE00197F1F7C8
:1047800000C000002197F6CF812FDF91CF911F91BC
:104790000C94152380E0089590918E0192FF0DC036
:1047A000282F2871283019F4877F846006C0282FAD
:1047B0002471243011F48B7F886093FF0DC0282F63
:1047C0002871283119F4877E846106C0282F24714E
:1047D000243111F48B7E886120918F0120FF0DC060
:1047E000382F3871383019F4877F816006C0382F30
:1047F0003171313011F48E7F886021FF0DC0282F78
:104800002871283119F4877E816106C0282F217113
:10481000213111F48E7E886194FD877E0895F8948D
:10482000E82FE295EF70F0E031A1282F2F7081E0A2
:1048300090E001C0880F2A95EAF7982F909593236E
:1048400091A392A1892B82A3789408958F929F922D
:10485000AF92BF92CF92DF92EF92FF920F931F938E
:10486000CF93DF93CDB7DEB72A970FB6F894DEBFAC
:104870000FBECDBFAE014F5F5F4F7A018AE0FA01F4
:1048800011928A95E9F709E111E06A01AA24A3943B
:10489000B12CF80180818F3F09F447C0F894E82FCC
:1048A000E295EF70F0E021A18F70A50102C0440FE6
:1048B000551F8A95E2F7CA01922F982B91A392A1D6
:1048C0008095892382A3789400C0EEE1F1E021E095
:1048D00030E0812C912C41914F3F89F0A42FA2957B
:1048E000AF70B0E090968C9190E04F7002C09595BB
:1048F00087954A95E2F780FD02C0C90102C080E0B9
:1049000090E0882A992A220F331F51E0EB32F507F5
:1049100011F7F80180818F3F11F00E940F24F0EA17
:10492000FA95F1F7F601918280820F5F1F4FF2E056
:10493000CF0ED11C41E00E31140709F0AACF4AE096
:1049400050E0B70184E891E00E94883211E00097BE
:1049500009F410E0892B89F08AE0F701A4E8B1E0BE
:1049600001900D928A95E1F781E08093EF020E9419
:104970003A299093EE028093ED028091EF02882312
:1049800091F18091ED029091EE020E941F2905970E
:1049900050F180918401909185019093A7018093BB
:1049A000A60180918601909187019093A90180933F
:1049B000A80180918801909189019093AB01809327
:1049C000AA0180918A0190918B019093AD0180930F
:1049D000AC0180918C0190918D019093AF018093F7
:1049E000AE011092EF02812F2A960FB6F894DEBF27
:1049F0000FBECDBFDF91CF911F910F91FF90EF9030
:104A0000DF90CF90BF90AF909F908F900895CF93FD
:104A1000DF938238910569F1B0F48133910509F48F
:104A20006FC048F48932910509F465C08A32910556
:104A300009F46BC08AC08533910509F457C08933E6
:104A40009105B9F082C0833E910571F138F4803E42
:104A50009105B1F0823E910511F177C0863E910536
:104A6000B9F1873E9105C9F1843E910509F06DC009
:104A700024C020918E0120FD53C021FD51C065C08E
:104A800080918E0180FD46C080918F0180FF48C0DB
:104A900080918E0184FD50C183EE90E04FC18091E2
:104AA0008E0182FF3AC0F4CF80918E0182FD35C025
:104AB00080918F0180FD34C0EBCF80918F0181FF09
:104AC00035C080918E0184FD37C187EE90E036C1FC
:104AD00080918E0183FF27C0F4CF80918E0183FDEA
:104AE00022C080918F0181FD21C0EBCF80918E018A
:104AF00085FD1FC021C080918E0185FD1DC019C09C
:104B000080918E0186FD1BC01DC080918E0186FDA7
:104B100019C015C089E390E011C182EE90E00EC18A
:104B200080EE90E00BC186EE90E008C184EE90E04C
:104B300005C189E290E002C185E390E0FFC08AE20E
:104B400090E0FCC081E390E0F9C0811531E5930766
:104B500008F069C0811540E59407F0F09C0174E00D
:104B6000369527957A95E1F7922F9370482F4370E9
:104B700021E030E002C0220F331F4A95E2F73C6883
:104B8000392B982F9F709695969540E2949FC0017F
:104B90001124822B932BD2C0883E910568F5803E6C
:104BA000910508F0CBC0883A9105B8F4853A910593
:104BB00048F0855AE82FF0E0E05BFE4F808190E0FE
:104BC0009064BCC08130910509F4B3C008F4B4C04E
:104BD0008430910508F4B0C0B1C08F3B910508F056
:104BE000ABC0885AE82FF0E0EE0FFF1FED5AFE4FE2
:104BF000808191819464A2C0811520E2920758F4CB
:104C0000811531E0930708F099C0803F910508F4C1
:104C100093C0906593C0811540E4940708F48CC05C
:104C20009F70906A8BC0811525E5920708F042C0FD
:104C3000811534E5930728F0982F8827846F906AB0
:104C40007DC0811543E59407B0F09C0123703327A4
:104C500041E050E002C0440F551F2A95E2F7282F8B
:104C60002695269580E2289F90011124CA01822B67
:104C7000932B9A6863C0811522E5920728F4982F38
:104C80008827816F906A5AC09C012370332741E0C6
:104C900050E002C0440F551F2A95E2F7282F2695B1
:104CA000269580E2289F90011124CA01822B932B24
:104CB0009C6844C0EC01811539E59307A8F481157F
:104CC000984528F09C2F8827806F906A37C0C115BF
:104CD00086E5D80788F58C2F0E94CC238F7190E051
:104CE000982F882790622AC081152AE5920790F4B0
:104CF0008C2F8F700E94CC2394E0D695C7959A95FF
:104D0000E1F7CF70D0E0DC2FCC27D0699E01282BB3
:104D1000C90114C090568115904270F48D2F8F7187
:104D20000E94CC23282F2F71CE0199279062922BBD
:104D300005C081E090E002C080E090E0DF91CF917B
:104D40000895CF9384E090E00E94F631C82F82E26C
:104D500090E00E94F6312C2F30E0A901582BCA01B7
:104D6000CF91089580E090E00E940432893E9E4FEA
:104D700011F40C948E1D80E0089569EE7EEF80E0C2
:104D800090E00E94283260E082E090E00E940A32C7
:104D900060E083E090E00E940A321092E60160E059
:104DA00084E090E00E940A3260E082E290E00E949B
:104DB0000A3260E085E090E00E940A3260E086E01E
:104DC00090E00E940A326FEF87E090E00E940A3282
:104DD00040E050E0BA0188E090E00E941C3260E0C0
:104DE0008DE090E00E940A3240E050E0BA0188E194
:104DF00090E00E941C3260E087E190E00E940A325D
:104E000040E050E0BA018CE190E00E941C3260E08A
:104E100070E080E290E00E94283240E050E0BA0169
:104E200088E190E00E941C3280E00E94611D0E9497
:104E30007F1D40E050E0BA018FE090E00E941C32FC
:104E400040E050E0BA0183E190E00C941C32809184
:104E5000EC02882331F01092EC021092EB021092D7
:104E6000EA02089580959091BE0389238093BE0342
:104E7000089580959091BD0389238093BD03089583
:104E80009091BD038091BE03892B80938C02809109
:104E9000EC02882311F10E943A292091EA02309114
:104EA000EB02821B930B8838934110F00E94272756
:104EB00090918C028091EC02892B80938C02EEE819
:104EC000F2E097E080E0915029F021912223D9F37C
:104ED0008F5FF9CF81110E94272748E050E062EEF2
:104EE00072E08CE892E00E948832892BA9F088E079
:104EF000ECE8F2E0A2EEB2E001900D928A95E1F7C3
:104F0000E0917304F0917404309731F00280F381E2
:104F1000E02D8CE892E0099408951092E10210923D
:104F2000E0021092DF0208952091E1028095822331
:104F30008093E102982F977099F430E0482F082E63
:104F4000000C550B2417350759F090918F0192FDF5
:104F500007C08595859585950E9447220C948D27DD
:104F60000895CF93C0918F01C2FB992790F99817AC
:104F700099F080FBC2F9C0938F0160918E0184E0AB
:104F800090E00E940A326C2F82E290E00E940A3286
:104F900082E0CF910C949427CF91089590918F0146
:104FA00092FD10C098E0899F90011124262B209338
:104FB000E1020E9453220E943A299093E0028093DA
:104FC000DF0208950C9453228091DE028111109229
:104FD000DE0208958091DD0290919C02891719F0FC
:104FE0008F5F8770FBCF08951F93CF93DF938091DE
:104FF000990282958F7009F05CC080919602882397
:1050000009F457C08091DD0210919C0260919402D6
:1050100070919502C0919702D091980291E06F3FF4
:1050200009F090E0292F811709F443C0209721F05F
:105030007F3F21F030E003C031E001C0322F90E02B
:1050400030FD34C0FC0133E0EE0FFF1F3A95E1F76D
:10505000DF01A356BD4F11963C911197371326C01F
:105060003C91361323C012963C91129731111EC009
:1050700013964D915C9114974C1B5D0B4F3A510563
:10508000A8F4809199028F70806180939902EE5507
:10509000FD4F80818F708061808384E992E00E945F
:1050A000DD0CDF91CF911F910C94EA270196877058
:1050B000BACFDF91CF911F9108958091B3010895E8
:1050C00024E02093E9002FEF3091E800215035FDD6
:1050D00006C035ED3A95F1F700002111F5CF20918A
:1050E000E80025FF0BC040E050E066E070E00E9461
:1050F00066198091E8008E778093E8000895CF9339
:10510000DF9321E02093E9002FEF3091E800215058
:1051100035FD06C035ED3A95F1F700002111F5CFC8
:105120002091E80025FF14C0EC0140E050E068E069
:1051300070E00E9466198091E8008E778093E80005
:1051400088E0FE01A4EBB1E001900D928A95E1F7B1
:10515000DF91CF91089580937C0470937E046093D7
:105160007D048091C7018430F9F48093E9008FEFCA
:105170009091E800815095FD06C095ED9A95F1F764
:1051800000008111F5CF8091E80085FF0DC040E05F
:1051900050E063E070E08CE794E00E946619809133
:1051A000E8008E778093E800089581E08093E00026
:1051B00080E28093D8001092C9008FE19EE40197AD
:1051C000F1F700C0000087E090EBDC0180938204DF
:1051D00090938304A0938404B09385049CE088E1B9
:1051E0000FB6F894A895809360000FBE909360006E
:1051F000FFCF78941F920F920FB60F9211248F93C6
:105200009F93AF93BF938091780490917904A0917C
:105210007A04B0917B040196A11DB11D809378049E
:1052200090937904A0937A04B0937B04BF91AF91DB
:105230009F918F910F900FBE0F901F9018959C011A
:105240004FB7F8948091780490917904A0917A04F2
:10525000B0917B044FBF821B930B08952FB7F89436
:10526000609178047091790480917A0490917B0424
:105270002FBF08952FB7F894809178049091790406
:10528000A0917A04B0917B042FBF08951F920F92D2
:105290000FB60F9211248F939F93AF93BF9380917A
:1052A0007704811113C08091780490917904A091C2
:1052B0007A04B0917B044196A11DB11D80937804BE
:1052C00090937904A0937A04B0937B04BF91AF913B
:1052D0009F918F910F900FBE0F901F9018959C017A
:1052E000FC0132969FEF80E04191461789F09F3F85
:1052F00019F4411101C0982F8F5F8630A9F79F3FA5
:1053000039F0F901E90FF11D97FDFA9562830895CF
:10531000089520917504309176042817390771F0AB
:105320009093760480937504E0917304F091740473
:10533000309721F00084F185E02D099408952091A3
:105340007104309172042817390771F09093720438
:1053500080937104E0917304F0917404309721F00C
:105360000680F781E02D09940895E0917304F0918F
:105370007404309721F00190F081E02D099480E0D1
:105380000895EF92FF920F931F93CF93DF93FC0149
:105390002285211136C0EC01E380F480F7E5FF1A85
:1053A00026E12E9DC0012F9D900D1124DC01AF53ED
:1053B000BC4F1496ED91FC91159789539C4F3097F3
:1053C00029F054966D917C915597099586E18E9DB3
:1053D00080018F9D100D11240F531C4FF801878100
:1053E0000E943927F80180850E9432270E944027B9
:1053F000188219861B861E821D821092C00310928D
:10540000BF03DF91CF911F910F91FF90EF9008950F
:10541000CF93DF93FC01218921111CC0EC0181E0B5
:10542000818B9091BD038781892B8093BD039091DF
:10543000BE038085892B8093BE030E944027EA81AA
:10544000FB81CE010696309729F06C897D89DF912A
:10545000CF910994DF91CF9108950F931F93CF932C
:10546000DF93C42FD22FFC0182818823C9F040939F
:10547000BC030E943A299093BB038093BA0380E255
:105480008C0F883008F057C0C77081E001C0880FCA
:10549000CA95EAF7DF91CF911F910F910C940B23DE
:1054A0008091BC03481330C08091BA039091BB0334
:1054B0000E941F298F3A910538F510E21D0FCD1774
:1054C000B9F080E28C0F883040F4C77081E001C0F1
:1054D000880FCA95EAF70E940423183028F581E066
:1054E0009D2F977001C0880F9A95EAF70E940B23B1
:1054F000802F0E94AC231830F0F4D77081E001C0F7
:10550000880FDA95EAF70AC080E28C0F883098F4A9
:10551000C77081E001C0880FCA95EAF7DF91CF918B
:105520001F910F910C940423802FDF91CF911F9135
:105530000F910C94AC23DF91CF911F910F9108959F
:10554000BC014091B6038091B703942F981729F1BD
:10555000292F30E0F901EE0FFF1FE255FC4F0190BB
:10556000F081E02DE617F70799F487E0869FF001B8
:10557000879FF00D1124E65AFC4F81E08483941339
:105580000CC02F5F3F4F237033272093B60308953D
:105590002F5F3F4F922F9370D9CF08950F931F9392
:1055A000CF93DF938091F902882309F453C0C0910F
:1055B000F8021CE08091F902C81708F047C001E02A
:1055C0000C0F0093F802D0E01C9FF0011D9FF00D1E
:1055D0001124E650FD4F9081818123813481232B5A
:1055E00031F08F3F31F481E09F3F19F403C081E037
:1055F00001C080E080FD28C01C9FD0011D9FB00D20
:105600001124A650BD4F16968D919C911797892B0A
:1056100031F418968D919C911997019651F420813F
:1056200031814281538164817581868197810E9495
:105630006D221C9FF0011D9FF00D1124E650FD4FBF
:10564000148213821092BE03C02FB4CF1092F902BD
:105650001092F802DF91CF911F910F91089510924F
:10566000F7021092F602EAE5F3E08581811102C0AB
:1056700014821682379683E0EE3AF807B1F7089560
:105680001092B9031092B803109210018091B703E1
:105690008093B6030E942F2B0C94CE2A3F924F92F8
:1056A0005F926F927F928F929F92AF92BF92CF92B2
:1056B000DF92EF92FF920F931F93CF93DF93C091EE
:1056C000B60397E0892E01E010E02CE0322E3EEF89
:1056D000932E442443948091B703C81709F478C0EB
:1056E000D0E0FE01EE0FFF1FE255FC4F808191815B
:1056F000889ED001899EB00D1124A65ABC4F1496E5
:105700002C911497211161C05090F902EAEFF2E058
:1057100020E030E0712C5D01251508F054C0E284D2
:10572000F384D501CD90DC906FEF7FEF612C462D97
:1057300050E0DA01AA0FBB1FAC0DBD1D0D90BC914E
:10574000A02D109731F0EA16FB0609F4BA01639414
:10575000EECF6F3FBFEF7B0791F1D80102C0AA0FD8
:10576000BB1F6A95E2F77A2AB80102C0660F771F5D
:105770006A94E2F7AB0141505109672D70E046177A
:105780005707D9F4329EF001339EF00D1124E650F4
:10579000FD4F889ED001899EB00D1124A65ABC4FA2
:1057A00012962D913C911397378326839082918294
:1057B0009187808715964C9206C0148213822F5FC2
:1057C0003F4F3C96A9CF0E94A02A2196C37083CF59
:1057D0000E94CE2ADF91CF911F910F91FF90EF9001
:1057E000DF90CF90BF90AF909F908F907F906F9001
:1057F0005F904F903F900C942F2BCF93DF93CDE889
:10580000D3E060E0CE010E940A322196C11584E007
:10581000D807B9F7DF91CF910895462F2091F40270
:105820003091F502232B91F47E3F39F46E3F71F4F1
:105830008091F2029091F3020895853038F475302A
:1058400028F46D3018F4672F0C94851A80E090E0EE
:105850000895883080F49B01982F8AE0989FB001CA
:1058600011246B537D4F4AE050E0C9010E94E6319C
:1058700080E090E008958FEF9FEF08950F931F93BE
:10588000CF93DF93853038F5611125C0423018F58C
:1058900021159CE5390731F46091F0027091F10215
:1058A000672BC9F08901C42FD0E0CC0FDD1F94E035
:1058B000899FC00DD11D1124CF54DD4F612FCE0122
:1058C0000E940A32602FCE010196DF91CF911F9185
:1058D0000F910C940A32DF91CF911F910F9108958F
:1058E0006F927F928F929F92AF92BF92CF92DF92F0
:1058F000EF92FF920F931F93CF93DF93CDB7DEB755
:1059000064970FB6F894DEBF0FBECDBFA090F00233
:10591000B090F10281E090E09093F1028093F00268
:10592000C12CD12C712C612CE12CF12C00E010E069
:1059300047018C0C9D1CF801EE0FFF1FE80DF91DAF
:10594000EA55F94F25913491402F662D872D0E94FD
:105950004F1A0F5F1F4F0D30110569F78AE1E80EEE
:10596000F11C6394E5E06E12E1CF21E030E040E00D
:1059700060E0872D0E943E2C21E030E041E060E0B5
:10598000872D0E943E2C7394F2E8CF0ED11C85E047
:105990007812C9CF1A8219821C821B821E821D8234
:1059A00018861F828FEA90E09A87898705EC12E0BB
:1059B0004AE050E0B801CE0101960E942E32065F07
:1059C0001F4F0531E3E01E0799F77E01FBE0EF0E64
:1059D000F11C8AE0F70111928A95E9F74AE050E05C
:1059E000B801C7010E942E32065F1F4F0D38F3E049
:1059F0001F07A1F7B092F102A092F00264960FB6D1
:105A0000F894DEBF0FBECDBFDF91CF911F910F91F4
:105A1000FF90EF90DF90CF90BF90AF909F908F90CE
:105A20007F906F9008950F931F93CF93DF938530EE
:105A3000E8F461111BC04230C8F4C42FD0E0CC0F91
:105A4000DD1F24E0829FC00DD11D1124CF54DD4FF6
:105A5000CE010E94F63190E0182F0027CE0101966A
:105A60000E94F6319801282BC90102C080E090E025
:105A7000DF91CF911F910F910895AF92BF92CF9276
:105A8000DF92EF92FF920F931F93CF93DF93EC017E
:105A90008AE0A82E2881222309F497C0213009F03A
:105AA00041C08981813039F48E010E5F1F4F8A8198
:105AB0000E94AC2308C0823041F48E010E5F1F4F5C
:105AC0008A810E944D23E8017EC0833039F48E0123
:105AD0000E5F1F4F8A810E941523F5CF843011F08D
