:100000000C94D7040C940F050C940F050C940F0559
:100010000C940F050C940F050C940F050C940F0510
:100020000C940F050C940F050C948E280C944A2800
:100030000C948B290C940F050C940F050C940F0550
:100040000C940F050C940F050C940F050C940F05E0
:100050000C940F050C9467290C940F050C940F0554
:100060000C940F050C940F050C940F050C940F05C0
:100070000C940F050C940F050C940F050C940F05B0
:100080000C940F050C940F050C940F050C940F05A0
:100090000C940F050C940F050C940F050C940F0590
:1000A0000C940F050C940F050C940F050501090223
:1000B000A10185020901A100050919012905150001
:1000C00025019505750181029501750381010501E1
:1000D000093009311581257F950275088106093897
:1000E0001581257F950175088106050C0A380215D2
:1000F00081257F950175088106C0C005010980A191
:1001000001850319012AB700150126B7009501756D
:10011000108100C0050C0901A101850419012AA064
:1001200002150126A002950175108100C00660FF2E
:100130000961A1010962150026FF0095207508815B
:10014000020963150026FF00952075089102C0057D
:10015000010906A101050719E029E7150025019508
:1001600008750181029501750881010507190029AB
:10017000FF150026FF009506750881000508190186
:100180002905950575019102950175039101C0003E
:10019000000000000000000000000000000000005F
:1001A000000000000000000000000000000000004F
:1001B0000000007E0F00D4FFFFFFC70000007800A2
:1001C000000000000000002A2B28000000000000B2
:1001D0000000000000000000000029000000002CCA
:1001E0001E3420212224342627252E362D37382769
:1001F0001E1F202122232425263333362E37381F75
:100200000405060708090A0B0C0D0E0F1011121336
:100210001415161718191A1B1C1D2F3130232D35D4
:100220000405060708090A0B0C0D0E0F1011121316
:100230001415161718191A1B1C1D2F3130354C1E9A
:10024000140A05FD377A585A000004E6D6B446026F
:1002500000210116000000742FE5A3E007E701B6B6
:100260005D003D8889C65436C3174FE4E6BF661764
:100270009AFC6817941FDEA313E4447FFE3BB4E4AA
:1002800088099A4BBAC6C87C13BFA4E48731191EEB
:10029000D3370EFA90E02BBB42DCCF1905B45A8558
:1002A00083598DA713D6E64D3C4FFBBC17B505B35C
:1002B0001F650C44264689161E17CD22484D4B5704
:1002C0003366D55672D841046A3F8993EEE8943C70
:1002D0001EE57CD368D68D7A7E9DEEB43894B4C585
:1002E000D194B1412BC95D05DC315A613ED45CAA81
:1002F000304E4AEC7E3B861A0148A29FAF570BBC9A
:10030000565846EE3FCF01B173BE1D9DD596E9A963
:1003100062A7549D24D76193BA698EF1151B4FD102
:10032000A9E3B7FDCA0C9AF6D5948D56A75D3E2574
:1003300022FDA6DB84851293F475EF737A7E2B552C
:10034000BC8546C44E03540203CEE8696211870D92
:100350000B0A9F8B0208FAD61886E2CA23107C7A11
:10036000606254C58D82DD13894405E6BEE164896F
:10037000E1A9FCD2BB8703D68FD8AAD8DC1C03F82E
:10038000300893EF0BA236B92F3DF07CE7285EEFE3
:1003900026E0A8D38872C594F62A0C286239F5B2F3
:1003A0008FA969B76CE8DE50F22E40F18A3793933B
:1003B00007452C7A23B4AE07A02DE77B59FE33C343
:1003C000B18F91AD48E524A16F275EA679C7A7D369
:1003D000DF3EF2E7D2828E789760DAC5E380F7904D
:1003E00009B52011BF0231FCC3F8A451C9C8A23C11
:1003F000AB112305A9757F6817FEC1CC0A1A9E9D13
:1004000086764409290510B2C6E234F27A0BB0EAC6
:100410006381DF5A70F71A9E000000175B3DCC64C1
:100420002C31420001D203E80F0000C33D94C3B158
:10043000C467FB020000000004595A0001010101D9
:10044000010101010102020202020202020203038F
:10045000030303030303040404040404040505055F
:100460000505060606060607070707070808080821
:10047000090909090A0A0A0B0B0B0C0C0C0D0D0DCE
:100480000E0E0E0F0F0F1010111111121213131464
:1004900014151516161717181819191A1A1B1B1CDC
:1004A0001D1D1E1E1F202021222223242425262636
:1004B000272829292A2B2C2D2D2E2F30313232336B
:1004C0003435363738393A3B3C3D3E3F4041424374
:1004D0004445464748494A4C4D4E4F505153545558
:1004E0005658595A5B5D5E5F616264656668696B08
:1004F0006C6D6F7072737577787A7B7D7E80828386
:100500008587888A8C8E8F91939596989A9C9EA0C9
:10051000A2A3A5A7A9ABADAFB1B3B5B7BABCBEC0D6
:10052000C2C4C6C9CBCDCFD1D4D6D8DBDDDFE2E49F
:10053000E7E9EBEEF0F3F5F8FAFDFF222325262894
:10054000292A2C2D2F3032333536383A3B3D3E4068
:1005500042434547494A4C4E5051535557595A5CAE
:100560005E6062646668696B6D6F71737577797BC5
:100570007D7F81838587898A8C8E90929496989AC4
:100580009C9E9FA1A3A5A7A8AAACAEAFB1B3B4B6D9
:10059000B8B9BBBCBEBFC1C2C3C5C6C7C9CACBCC34
:1005A000CDCED0D1D2D2D3D4D5D6D7D7D8D9D9DA07
:1005B000DADBDBDBDCDCDCDCDCDDDDDDDDDCDCDC7C
:1005C000DCDCDBDBDBDADAD9D9D8D7D7D6D5D4D3A4
:1005D000D2D2D1D0CECDCCCBCAC9C7C6C5C3C2C179
:1005E000BFBEBCBBB9B8B6B4B3B1AFAEACAAA8A7D6
:1005F000A5A3A19F9E9C9A98969492908E8C8A898E
:10060000878583817F7D7B79777573716F6D6B696A
:1006100068666462605E5C5A5957555351504E4C3F
:100620004A4947454342403E3D3B3A3836353332EE
:10063000302F2D2C2A292826252322A80029000026
:100640000000000000000000000000000000003E6C
:10065000003F0040003A002B0014001A000800156B
:100660000017001C0018000C00120013002A003BA9
:1006700000390004001600070009000A000B000DF5
:10068000000E000F00330028003C00E1001D001B9D
:100690000006001900050011001000360037003870
:1006A00000E5003D00E000E3000151E20002512CB2
:1006B0000002510351E600E400E7000000010001E0
:1006C000000000000000000000000000000000002A
:1006D0000001000100010001000100010001000112
:1006E0000001000100010001000100010001000102
:1006F00000010001000100010001000100010001F2
:1007000000010001000100010001000100010001E1
:1007100000010001000100010001000100010001D1
:1007200000010001000100010001000100010001C1
:1007300000010001000100010001000100000001B2
:1007400000010000000000000000000000000000A8
:100750000000000100010001000100010001000192
:100760000001000100010001000100010001000181
:100770000001000100010001000100010001000171
:100780000001000100010001000100010001000161
:100790000001000100010001000100010001000151
:1007A0000001000100010001000100010001000141
:1007B0000001000100010001000100010001000032
:1007C0000001000100000000000000000000000027
:1007D0000000000000010001000100010001000113
:1007E0000001000100010001000100010001000101
:1007F00000010001000100010001000100010001F1
:1008000000010001000100010001000100010001E0
:1008100000010001000100010001000100010001D0
:1008200000010001000100010001000100010001C0
:1008300000010001000100010001000100010001B0
:10084000000000010001001C03000002000200186B
:10085000030000030001001D030000040002000269
:1008600003D607050001001E030000060002000475
:10087000030000070002001A030000080001001F27
:10088000030000090002000603B1070A0002000885
:1008900003B1070B0002000A03B1070C0002000CB1
:1008A00003B1070D0002000E03B1070E0002001095
:1008B00003B1070F0002001203B107100002001479
:1008C00003B107110002001603B107120002002055
:1008D00003000013000200220300001400010024A2
:1008E00003000009025B00030100A0FA09040000F4
:1008F0000103010100092111010001224000070547
:10090000810308000109040100020300000009211D
:1009100011010001222200070582032000010705C2
:100920000303200001090402000103000000092163
:10093000110100012281000705840320000112013A
:10094000000200000008EDFE0000010001020301AA
:100950001C037600690061006C003A0066003600F6
:1009600034006300320062003300630000001A03A9
:1009700074006800650062006F0075006C0065001F
:10098000760061007200640000001E0365007900BB
:10099000650020006F00680020006400650073009F
:1009A000690067006E00730000000403090411244D
:1009B0001FBECFEFDAE0DEBFCDBF04B603FE18C026
:1009C0008091550390915603A0915703B09158031D
:1009D0008730904BA740B04B59F4109255031092BA
:1009E00056031092570310925803E0E0F8E309957C
:1009F00011E0A0E0B1E0E4EDF4E602C005900D9254
:100A0000AA37B107D9F723E0AAE7B1E001C01D92E8
:100A1000A535B207E1F70E94B2290C9444320C9438
:100A20000000E8EDF0E080818E7F80831092E2008C
:100A30001092DA001092E100A0EEB0E08C9181609B
:100A40008C9380818F77808319BCA7EDB0E08C9167
:100A50008E7F8C9380818F7E8083109237030895E0
:100A60002091E4003091E50095E6A9012091EC0089
:100A7000822F817020FF06C08091E80080FF06C0B1
:100A800080E008952091E80022FD1AC080914D0376
:100A9000882389F0853089F08091EB0085FD0FC0B7
:100AA0002091E4003091E50042175307F9F291508C
:100AB000E1F684E0089582E0089583E0089581E0FE
:100AC0000895EF92FF920F931F93CF937C018B01B8
:100AD0000E943005C82F811117C08091E80085FD64
:100AE0000BC08091E8008E778093E8000E9430056B
:100AF000882399F3C82F08C0F70181917F01809363
:100B0000F1000150110949F78C2FCF911F910F91DE
:100B1000FF90EF900895CF93FC0180914D038430B6
:100B200001F5C091E900CF702091EC00922F9170F7
:100B300020FD90E8C92B82E08093E9008091E800D5
:100B400080FF0CC050E040E060E270E0CF010E9406
:100B500061058091E8008E778093E800CF70C093A4
:100B6000E900CF9108958091450387FF13C08091DC
:100B7000E80082FF06C08091E8008B778093E80050
:100B800004C080914D038111F2CF089580914D03EF
:100B90008823D9F38091E80080FFF8CF8091E800A6
:100BA0008E77ECCF982F9093E900242F762F50E08A
:100BB000891731F07091EC002091ED005091F00018
:100BC00021FD07C09F5F973071F78093E90081E0B6
:100BD00008953091EB003E7F3093EB003091ED00B3
:100BE0003D7F3093ED003091EB0031603093EB00AE
:100BF0007093EC002093ED005093F0002091EE00F4
:100C000027FDE0CF80E00895CF92DF92EF92FF9230
:100C10000F931F93CF93DF93C8EDD0E088818F7E31
:100C20008883E7EDF0E080818160808384E082BF8B
:100C300081E08093370388818E7F888302EE10E005
:100C4000F80110821092DA0081EEC82ED12CF60144
:100C5000108288818F7788838881806888838881E3
:100C60008F7D888319BC10924D031092440310921B
:100C700043031092420390EEE92EF12CF70180819C
:100C80008B7F808388818160888342E060E080E0A0
:100C90000E94D205F60180818E7F8083F8018081D9
:100CA00081608083808188608083F70180818E7F6E
:100CB0008083888180618883DF91CF911F910F911C
:100CC000FF90EF90DF90CF900895FC0180914B034F
:100CD00090914C0386179707A0F06115710529F4D0
:100CE0009091E8009E779093E80090E0611571057F
:100CF00051F4911108C08091E80082FF34C080E077
:100D00000895BC01F2CF80914D038823C1F1853055
:100D1000C1F18091E80083FD30C08091E80082FD40
:100D2000EACF8091E80080FFE1CF8091F30020912D
:100D3000F200382F6115710519F02830310558F08F
:100D400091E02830310509F090E02091E8002E77FD
:100D50002093E800CBCF81918093F100615071091D
:100D60002F5F3F4FE7CF80914D03882341F08530BF
:100D700041F08091E80083FFBECF81E0089582E0DA
:100D8000089583E0089508958091390308959C01A2
:100D90004FB7F8948091300390913103A0913203C2
:100DA000B09133034FBF821B930B08952FB7F89474
:100DB000609130037091310380913203909133033D
:100DC0002FBF08952FB7F89480913003909131038D
:100DD000A0913203B09133032FBF08959C01FC0111
:100DE00032969FEF80E04191461751F09F3F19F4F2
:100DF000411101C0982F8F5F8630A9F79F3F09F4FA
:100E00000895290F311D97FD3A95F90162830895E0
:100E100020912D0330912E032817390771F09093FC
:100E20002E0380932D03E0912B03F0912C03309738
:100E300021F00084F185E02D099408952091290383
:100E400030912A032817390771F090932A03809371
:100E50002903E0912B03F0912C03309721F00680B9
:100E6000F781E02D09940895E0912B03F0912C0374
:100E7000309721F00190F081E02D099480E00895F1
:100E8000CF93DF93EC014091F7025091F80260910B
:100E9000F9027091FA022FB7F89480913003909183
:100EA0003103A0913203B09133032FBF841B950B04
:100EB000A60BB70B843F9140A105B10518F58091B1
:100EC000F7029091F802A091F902B091FA02809392
:100ED000F3029093F402A093F502B093F60284EF2C
:100EE00091E0A0E0B0E08093EF029093F002A09335
:100EF000F102B093F202D093FF02C093FE02DF91A1
:100F0000CF9108950E94D6066093F3027093F40285
:100F10008093F5029093F60282E390E0A0E0B0E0C7
:100F2000E2CFFC018481862351F492819923B9F0A8
:100F30006923808583FF05C081E061110FC080E0D7
:100F40000895892F8F7092959F70982B862F8F70A0
:100F500062956F70682B81E09613F1CF089581E060
:100F6000FDCFE2E0F3E0848195812AE030E0B90131
:100F70000E947C31609315018681809314018285E3
:100F80008093130184858093120186859785B9012A
:100F90000E947C31609311018089809310018289C5
:100FA00080930F01848980930E010895809102033C
:100FB0009091030390931701809316010895FA010D
:100FC000811101C0FB010994089580914F03982F6E
:100FD0009E7F29F48170826080934F0308958C3046
:100FE000E8F381708A60F8CFAF92BF92DF92EF9200
:100FF000FF920F931F93CF93DF93082F162FE901D2
:10100000E42FF0E0E55CFB4F611110C0E4915E2F2E
:101010004E2F4983E8835A83DF91CF911F910F911F
:10102000FF90EF90DF90BF90AF900895E62EF12CE7
:101030004491D42EE42FF0E026E0829FC0011124D9
:101040002FEF30E0B9010E947C31802F90E0880FB3
:10105000991F55E5569FD001579FB00D11248A1B4B
:101060009B0B982F990F890F5901AE18BF08AE9EA0
:10107000D001AF9EB00DBE9EB00D11245B2F189F06
:1010800080011124012F11275901A01AB10AAE9E27
:101090008001AF9E100DBE9E100D11245901A81A9B
:1010A000B108AE9CC001AF9C900DBE9C900D112468
:1010B000892F9927281B390B2E9FC0012F9F900D38
:1010C0003E9F900D1124E92F62307105A1F050F47C
:1010D0006115710509F49DCF6130710581F0EB2F29
:1010E000512F97CF6430710569F080F0663071053B
:1010F00009F48FCFF4CFE42F4B2F592F8ACFE42F51
:10110000412F87CFEB2F542F492F83CF4B2F5D2DAE
:10111000E12F7FCF0E94E2069C01909127028091EF
:101120002802982B21F030932402209323029091DF
:10113000290280912A02982B21F0309322022093D9
:101140002102E0912B03F0912C03309749F082E0CB
:10115000809325020480F581E02D85E292E00994D8
:10116000089590912702803F59F48091280287FFCB
:101170000DC01092280291110BC010921F0208C0DE
:10118000813F81F48091280218169CF3992381F005
:101190008091290290912A02892B09F064C0109253
:1011A0001E020895823F49F497FFF0CF1092270264
:1011B000809128028111ECCFE0CF833F19F41916FA
:1011C000ACF3E4CF20912902893F29F41216F4F6FA
:1011D00010922902DBCF8A3F19F427FFD7CFF8CF2F
:1011E00020912A028B3F29F427FFD0CF10922A02A8
:1011F000CDCF8C3F19F41216CCF3C8CF843F31F415
:10120000809126028E7F80932602C0CF853F21F4F5
:10121000809126028D7FF7CF863F21F480912602B0
:101220008B7FF1CF873F21F480912602877FEBCF20
:10123000883F21F4809126028F7EE5CF8D3F31F4E7
:10124000809120028E7F80932002A0CF8E3F21F4D8
:10125000809120028D7FF7CF8F3F09F097CF80914B
:1012600020028B7FF0CF08958091200280FF0CC078
:1012700060910F0170E0759567957595679561159B
:10128000710549F1862F089581FF06C060910F0115
:1012900070E075956795F3CF60910F0182FD0BC0EB
:1012A00090911E029923A1F060910E0180910F018F
:1012B000961738F0682F70E06038710500F38FE7FB
:1012C0000895899FC001112470E00E949031F4CFED
:1012D00061E070E0D7CF81E00895809120026091B5
:1012E0000A0370910B0380FF16C020911301269F03
:1012F000C001279F900D1124BC01769567957695C6
:1013000067956038710508F043C06115710509F4EF
:1013100041C0862F089581FF0BC020911301269FA5
:10132000C001279F900D1124BC0176956795E9CFE8
:1013300082FF09C0809113019B01829FB001839FAE
:10134000700D1124DECF20911F022223D1F2909143
:10135000120180911301482F50E0291748F0CB016A
:10136000849FB001859F700D949F700D1124C9CF8B
:10137000289F90011124269FA001279F500D369F82
:10138000500D1124692F70E0CA010E947C31B9CF41
:101390008FE7089581E00895803F31F40E946D0940
:1013A0008195809328020895813F19F40E946D0968
:1013B000F8CF823F31F40E946D0981958093270216
:1013C0000895833F19F40E946D09F8CF893F29F4ED
:1013D0000E9434098093290208958A3F21F40E94D3
:1013E00034098195F7CF8B3F31F40E943409819500
:1013F00080932A0208958C3F19F40E943409F8CF93
:10140000843F31F480912602816080932602089502
:10141000853F21F4809126028260F7CF863F21F438
:10142000809126028460F1CF873F21F480912602CB
:101430008860EBCF883F21F4809126028061E5CF60
:101440008D3F31F4809120028160809320020895C5
:101450008E3F21F4809120028260F7CF8F3FB9F751
:10146000809120028460F1CF80E00895F894E82F05
:10147000E295EF70F0E031A1282F2F7081E090E02D
:1014800001C0880F2A95EAF7982F9095932391A38E
:1014900092A1892B82A3789408959091F90192FFEB
:1014A00006C0282F28712830F9F4877F846093FFC5
:1014B00006C0282F28712831F1F4877E846120919D
:1014C000FA0120FF06C0382F38713830D9F4877FF1
:1014D000816021FF06C0282F28712831D1F4877E32
:1014E000816194FD877E0895282F24712430F9F6B8
:1014F0008B7F8860DCCF282F2471243101F78B7E0D
:101500008861DDCF382F3171313019F78E7F8860D7
:10151000E0CF282F2171213121F78E7E8861E1CF24
:10152000CF93DF93EC0182389105A9F1D8F581338F
:10153000910509F496C048F58932910509F48AC0ED
:101540008A9709F495C0C11521E5D20708F0BCC0FF
:10155000C11530E5D30708F014C1C83ED10508F025
:101560009CC0C03ED10560F5C83AD10508F087C0DF
:10157000C53AD10508F0FDC0C130D10509F1209769
:10158000F9F0C430D105E0F440C08533910509F489
:101590005AC0C997C1F68091F901837089F0C0EEF5
:1015A000D0E00EC0833E910599F170F4803E910524
:1015B00001F1823E910539F68091F90182FD21C049
:1015C000CE01DF91CF910895863E910561F1873E6E
:1015D000910571F1843E910509F0B5CF8091FA0132
:1015E00081FFEECF8091F901C7EED0E084FD0DC000
:1015F000E7CF8091F90180FD12C19091FA0190FF2F
:10160000DFCFC3EED0E084FFDBCFD0E0C0E0D8CFA7
:101610008091F90182FD06C19091FA0190FDBFCF42
:1016200084FFCECFF2CF8091F90183FDDDCFC8CF0B
:101630008091F90183FDF9C09091FA0191FFF0CFFB
:10164000C4EED0E0BDCF8091F90185FFB9CFC9E2EA
:10165000D0E0B6CF8091F90185FFB2CFC5E3D0E0ED
:10166000AFCF8091F90186FFABCFCAE2D0E0A8CF1F
:101670008091F90186FFA4CFC1E3D0E0A1CFCF3B99
:10168000D10518F6C85AD0E0CC0FDD1FCB5DDE4F78
:101690000990D881C02DD46493CFC11540E2D407FE
:1016A00058F4C11581E0D80708F08ACFC03FD105B2
:1016B00008F4ABCFD06584CFC11590E4D90708F406
:1016C000A4CFDF70D06A7CCFC11525E5D20700F525
:1016D000C11534E5D30708F08AC0C11543E5D40726
:1016E00008F071C0C11582E5D80708F467C0CE01C3
:1016F0008370992721E030E002C0220F331F8A95C2
:10170000E2F7C695C69580E2C89FE001112452C059
:10171000C11599E5D907A8F4C11528E5D20708F045
:101720006BC0C11536E5D30708F06FCF8C2F0E9430
:101730004D0AC82FD0E0DC2FCC27CC27DF71D06238
:101740003FCFC1154AE5D40708F45BC0CE019056DF
:101750008115904208F059CF8D2F8F710E944D0A4C
:1017600090E0982F882788279F719C012C2BE901F6
:10177000E6CFC55AD0E0CE5DDE4FC881D0E0D06460
:101780001FCFCE01E4E096958795EA95E1F7837047
:101790002C2F26952695237040E2249F900111243A
:1017A000382B8C2F8370C1E0D0E002C0CC0FDD1F3E
:1017B0008A95E2F7C22BD32BDC6802CFDC2FCC2733
:1017C000C16FD06AFDCECE018370992721E030E051
:1017D00002C0220F331F8A95E2F7C695C69590E2A4
:1017E000C99FE0011124C22BD32BDA68E9CEDC2F8C
:1017F000CC27C46FD06AE4CEDC2FCC27C06FD06A70
:10180000DFCE8C2F8F700E944D0A34E0D695C7959D
:101810003A95E1F7CF709C2FEC01D069D1CEC9E3A6
:10182000D0E0CECEC2EED0E0CBCEC6EED0E0C8CE79
:101830008091EA01882331F01092EA011092E901C7
:101840001092E8010895CF93C82F8091FA0182FD8C
:101850000CC08091EA018C1741F00E94E20690933F
:10186000E9018093E801C093EA01CF910895809542
:101870009091CA0298239093CA0208959091CA0247
:10188000892B8093CA0208951092DF011092DE0125
:101890001092DD0108958091040390910503892B36
:1018A00089F00E94E2062091E8013091E901AC0143
:1018B000421B530B81E02091040330910503421732
:1018C000530708F480E0817008958091DC01811154
:1018D0001092DC010895EEE7F1E09191891303C0C5
:1018E000DF0111971C9291E0E438F907B1F70895F0
:1018F0002091DB019091AA0156E0291302C080E0FB
:10190000089530E0529FF001539FF00D1124E555EA
:10191000FE4F7181761306C07081781303C0728107
:10192000741304C02F5F3F4F2770E7CF81E0089505
:10193000452B39F0682381E06F3F09F080E081702A
:10194000089581E0FCCF8091DB019091AA0198136A
:1019500001C008958F5F8770FACF9E3F49F1E82F4D
:101960002DE0929FE00D11249E2F9770E695E6954D
:10197000E69583E0E89FF0011124E757FE4F50E021
:1019800040E080E0219130E0092E02C03695279595
:101990000A94E2F721703327042E01C0220F0A9423
:1019A000EAF7822B4F5F5F4F4330510559F7089597
:1019B00080E008959E3F69F1E82F2DE0929FE00DB1
:1019C00011248E2F877041E001C0440F8A95EAF7F9
:1019D000E695E695E69583E0E89FF0011124E75748
:1019E000FE4F30E020E070E05191DF011197CB0114
:1019F000022E02C0969587950A94E2F78170819530
:101A00008527842385278C932F5F3F4F2330310513
:101A100059F7089592959F70963091F058F4925F1F
:101A20009F70923058F4803F19F030F4883E30F4C3
:101A300081E008959A5FF4CF843FD1F380E0089568
:101A4000883EB0F3813FD1F7F3CF9C013A95211541
:101A50003F4150F5FC01EE27F170BC016627727022
:101A6000AC01442754709C012227387094FF0EC0AB
:101A700080E1EF2B09F480E0672B09F08062452BB1
:101A800009F08064232B89F08068089581E0EF2BB2
:101A900009F480E0672B09F08260452B09F084602F
:101AA000232B19F08860089580E008958093340313
:101AB000709336036093350380914D038430F9F4BD
:101AC0008093E9008FEF9091E800815095FD06C06A
:101AD00095ED9A95F1F700008111F5CF8091E8001E
:101AE00085FF0DC050E040E063E070E084E393E0E8
:101AF0000E9461058091E8008E778093E800089548
:101B0000BC0184E00C94560DBC0183E00C94560D8E
:101B10009C0184E08093E9009FEF8091E800915060
:101B200085FD06C085ED8A95F1F700009111F5CF8E
:101B30008091E80085FF0CC050E040E066E070E076
:101B4000C9010E9461058091E8008E778093E800CA
:101B50000895CF93DF93EC0181E08093E9008FEF4C
:101B60009091E800815095FD06C095ED9A95F1F7AA
:101B700000008111F5CF8091E80085FF14C050E08E
:101B800040E068E070E0CE010E9461058091E800CD
:101B90008E778093E80088E0FE01AAE3B3E001902D
:101BA0000D928A95E1F7DF91CF91089581E08093BE
:101BB000E00080E28093D8001092C9008FE19EE49B
:101BC0000197F1F700C0000087E090EBDC01809303
:101BD000550390935603A0935703B093580388E19D
:101BE0009CE00FB6F894A895809360000FBE909388
:101BF0006000FFCF019708F40895EFE9FFE0319707
:101C0000F1F700C00000F6CF80914F0380FD0CC0BB
:101C100010922C0210922B0210922D0210922F0281
:101C200010922E0210923002869A31B33F7B21B37C
:101C300020644FB7F8948BE292E0FC015191CF0100
:101C400068E021BB000000C057FF31BB550F00000A
:101C500000C000C000C031BB00C06A9591F7F2E03F
:101C600081339F0751F74FBF8FE594E00197F1F75C
:101C700000C00000089590914F0390FF0EC0809324
:101C80002C0260932B0240932D0280932F026093CD
:101C90002E02409330020C94040E08950F931F936C
:101CA000CF93DF9300D00F92CDB7DEB78C01DC016C
:101CB0001496EC91F0E0E55CFA4F449180914F036B
:101CC00080FF0EC09E012F5F3F4F609151038091B6
:101CD00050030E94F4074B8169818A810E943B0E68
:101CE000F80184818F5F84830F900F900F90DF91B4
:101CF000CF911F910F9108950F931F93CF93DF936F
:101D000002E013E0CFE2D2E0CE010E94F431F8010C
:101D100081938F012196C335F2E0DF07A9F7C9E46B
:101D2000D8E0FE0185919491009711F0FC0109958E
:101D30002896F8E0C93EDF07A1F7DF91CF911F9108
:101D40000F9108950F931F93CF93DF93843030F555
:101D5000653020F54D3010F5C42FD0E0CC0FDD1FDD
:101D60002AE1629FC00DD11D112432E8839FC00D6E
:101D7000D11D1124CE0187960E94F431082F10E066
:101D8000102F0027CE0188960E94F4319801282B4D
:101D9000C901DF91CF911F910F91089590E080E0EC
:101DA000F8CF462F2091C8023091C902232B91F41D
:101DB0007E3F39F46E3F71F48091C6029091C70264
:101DC0000895843038F4753028F46D3018F4672F96
:101DD0000C94A20E90E080E00895CF92DF92FF92E3
:101DE0000F931F93CF93DF936C0100915403809165
:101DF000EB01082BC7E0D0E010E0FC2EC8010C2E50
:101E000002C0959587950A94E2F780FD0CC0219752
:101E1000A0F7F12C8F2DDF91CF911F910F91FF90A3
:101E2000DF90CF900895B6018C2F0E94D10E0E94B2
:101E3000900A019761F3EECFCF93DF93EC010E94FC
:101E4000ED0EBE010E94D10EDF91CF910C94900A4D
:101E5000FC01808191810E941C0F0C940A0D1F933C
:101E6000CF93DF9300D000D00F92CDB7DEB7498378
:101E70005A8389819A816623B9F02223A9F00E94AE
:101E8000ED0E182F682F89819A810E94DA0C6981E2
:101E90007A81812F0F900F900F900F900F90DF910C
:101EA000CF911F910C94D10E0E94AD0C182FEFCF43
:101EB000FC01262F408151816281738184810C94C1
:101EC0002F0F83E290E00E94F431843E89F484E293
:101ED00090E00E94F431803A59F485E290E00E944B
:101EE000F43191E0863C09F090E0892F81700895EB
:101EF00080E0FCCFCF9384E090E00E94F431C82FC3
:101F000082E290E00E94F431982F8C2FCF910895B7
:101F10000F931F93CF93DF9302E013E0CFE2D2E061
:101F2000CE010E94F431F80161918F01681719F018
:101F3000CE010E9408322196C335F2E0DF0781F717
:101F4000DF91CF911F910F910895E2E0F3E0128E9F
:101F5000138E8FEA90E09183808325E0248F88E8B8
:101F600093E1938382838AE090E09583848344E1C4
:101F700050E05783468368E070E0718760879387FD
:101F800082874EE150E0558744879787868740E5F2
:101F900050E0518B408B738B628B68E270E0758BE5
:101FA000648B62E370E0778B668B68EC70E0718F16
:101FB000608F158E978F868F51A340A322A30E9416
:101FC000880F0C947C0ECF93DF93C3EAD2E060E0DD
:101FD000CE010E9408322196C11584E0D807B9F7D6
:101FE000DF91CF9108950F931F93CF93DF938901D2
:101FF000843048F5653038F54D3028F521153C45DD
:1020000031F42091C4023091C502232BE1F0C42F9A
:10201000D0E0CC0FDD1F9AE1699FC00DD11D1124C6
:1020200092E8899FC00DD11D1124612FCE018796A2
:102030000E940832602FCE018896DF91CF911F91C8
:102040000F910C940832DF91CF911F910F91089559
:10205000CF93C82F6FEF811164EE83E290E00E946E
:1020600008326FEFC11160EA84E290E00E9408320A
:102070006FEFC11166EC85E290E0CF910C940832CD
:102080007F928F929F92AF92BF92CF92DF92EF9208
:10209000FF920F931F93CF93DF93CDB7DEB72A97AD
:1020A0000FB6F894DEBF0FBECDBFA090C402B090B3
:1020B000C50281E090E09093C5028093C4028BE357
:1020C000C82E86E0D82E00E0760110E015C0F4019D
:1020D00025913491472D612F802F0E94F30F82E0CC
:1020E000880E911C73949DE07912F1CFEAE1EE0E17
:1020F000F11C1F5F153019F04701712CE8CF0F5FFD
:10210000F2E8CF0ED11C0430F9F60E94A50FCE01E3
:1021100001967C018AE0F70111928A95E9F78FEF29
:102120009FEF9E838D8387E08A8703E512E04AE074
:1021300050E0B801C7010E942C32065F1F4F033ADE
:10214000F2E01F07A1F7B092C502A092C4022A963E
:102150000FB6F894DEBF0FBECDBFDF91CF911F91B8
:102160000F91FF90EF90DF90CF90BF90AF909F9036
:102170008F907F90089580E00E94281060E086E2B2
:1021800090E00E9408320E9440100E94E30F81E01C
:102190000C9428108F929F92AF92BF92CF92DF92B1
:1021A000EF92FF920F931F93CF93DF93CDB7DEB7DC
:1021B0002A970FB6F894DEBF0FBECDBF0CE412E035
:1021C0008AE3C82E82E0D82E93E5E92E92E0F92E1C
:1021D00027E0922E39E3A32E32E0B32E8824839495
:1021E000D6010D931D936D014AE050E0B701CE0179
:1021F00001960E94E431F8013896DF01892D1D9285
:102200008A95E9F789819A81D80111969C938E93DA
:102210008F8112968C9312978D8113968C931397BE
:10222000888514968C931497898515968C931597A9
:102230008B819C8117969C938E93169718961C926F
:1022400018978A8587FF4BC01E961C921E921D9779
:1022500080FF03C0D80118968C9281FF04C0F8015A
:1022600090859260908782FF07C0D80118969C9154
:102270001897946018969C9383FF04C0F80190858A
:102280009860908784FF07C0D80118969C91189792
:10229000906118969C9385FF04C0F8018085806248
:1022A0008087015F1F4FFAE0EF0EF11C83EAE8160A
:1022B00082E0F80609F094CF2A960FB6F894DEBFB4
:1022C0000FBECDBFDF91CF911F910F91FF90EF9087
:1022D000DF90CF90BF90AF909F908F900895F801BE
:1022E000B686A586B5CF60914F03669570E041E054
:1022F00050E08DE091E00E94BA31892B19F481E021
:10230000809338020E94E206909332028093310259
:102310000895CF92DF92EF92FF926B017C010E94B1
:10232000E507B701A60188E090E0FF90EF90DF900D
:10233000CF900C941A32EF92FF920F931F93CF938A
:10234000DF9300D00F92CDB7DEB7F82E062F142FF3
:10235000E22E80914F0380FF28C0E82FE695F0E041
:10236000EB59FE4F9081909337028E7F823039F582
:102370009E012F5F3F4F8F2D0E94F4074B81698193
:102380008A810E943B0EF0925003009351031093F8
:102390005203EE2051F060914F03709150038091F1
:1023A0005103909152030E9489110F900F900F904A
:1023B000DF91CF911F910F91FF90EF900895923090
:1023C00011F710915203DFCFEFE4F3E0438128E0EF
:1023D000421B08F440E021E0628181810C949B1152
:1023E000EFE4F3E0438128E0420F08F44FEF21E0EF
:1023F000628181810C949B11EFE4F3E0628128E01B
:10240000621B08F460E021E0438181810C949B1100
:10241000EFE4F3E0628128E0620F08F46FEF21E05F
:10242000438181810C949B11EFE4F3E0818121E0F1
:102430004381628188500C949B11EFE4F3E0818129
:1024400021E043816281885F0C949B11809153034A
:10245000882319F081508093530360914F0370914A
:10246000500380915103909152030C9489118091F3
:102470005303833018F48F5F8093530360914F03AD
:102480007091500380915103909152030C948911E3
:1024900090914F0390FF36C09170811129C09260D6
:1024A00090934F03662351F060914F037091500356
:1024B00080915103909152030E94891160914F03C2
:1024C000669570E041E050E08DE091E00E94BA3105
:1024D000892BA9F01092380281E08093340220E029
:1024E0004091520360915103809150030C949B11D1
:1024F000863010F09A60D4CF880F982BD1CF0E94ED
:102500007311EACF089580914F038695815009F4A5
:1025100085E061E00C94481280914F0386958F5FAF
:10252000863008F081E061E00C94481280914F03FE
:1025300080FF07C0869582588F77833010F40C9403
:102540008C1261E082E00C944812EFE4F3E083E047
:10255000808311828FEF82838383148260817181F3
:10256000828193810C94891169EE7EEF90E080E086
:102570000E94263260E082E090E00E94083260E033
:1025800083E090E00E9408321092EB0160E084E06A
:1025900090E00E94083260E082E290E00E940832FF
:1025A00060E085E090E00E94083260E086E090E024
:1025B0000E9408326FEF87E090E00E94083240E00E
:1025C00050E0BA0188E090E00E941A3260E08DE0AD
:1025D00090E00E94083240E050E0BA0188E190E0CB
:1025E0000E941A3260E087E190E00E94083240E0E9
:1025F00050E0BA018CE190E00E941A3270E060E095
:1026000080E290E00E94263240E050E0BA0188E18A
:1026100090E00E941A3280E00E9428100E94BB10B5
:1026200040E050E0BA018FE090E00E941A3240E0B2
:1026300050E0BA0183E190E00C941A324F925F921D
:102640006F927F928F929F92AF92BF92CF92DF92C2
:10265000EF92FF920F931F93CF93DF93CDB7DEB727
:102660002A970FB6F894DEBF0FBECDBF8E010F5F65
:102670001F4F8AE0F80111928A95E9F793E5E92E58
:1026800091E0F92E680128E5422E21E0522E6624C1
:102690006394712C45E6842E41E0942EF7018191DC
:1026A0007F018F3F09F445C0F894E82FE295EF7061
:1026B000F0E021A18F70A30102C0440F551F8A953D
:1026C000E2F7CA01922F982B91A392A180958923BA
:1026D00082A3789400C0E8E5F1E021E030E0B12C7D
:1026E000A12C41914F3F09F47EC0A42FA295AF7059
:1026F000B0E090968C9190E04F7002C095958795D0
:102700004A95E2F780FD6FC0C901A82AB92A220FB5
:10271000331F8E169F0629F7F701319780818F3F6F
:1027200011F00E94360A50EA5A95F1F7F601B1828B
:10273000A082F2E0CF0ED11C4E145F0409F0AECFA0
:102740004AE050E0B8018FEE91E00E94C731FF24CB
:10275000F394009709F4F12C892B09F447C08AE01F
:10276000F801AFEEB1E001900D928A95E1F781E0BA
:102770008093EE010E94E2069093ED018093EC01BC
:102780008091EC019091ED010E94C706059790F1B0
:102790008091EF019091F0019093150280931402C3
:1027A0008091F1019091F2019093170280931602AB
:1027B0008091F3019091F401909319028093180293
:1027C0008091F5019091F60190931B0280931A027B
:1027D0008091F7019091F80190931D0280931C0263
:1027E0001092EE0107C090E080E08FCF8091EE0163
:1027F0008111C6CF8F2D2A960FB6F894DEBF0FBE7B
:10280000CDBFDF91CF911F910F91FF90EF90DF909F
:10281000CF90BF90AF909F908F907F906F905F9080
:102820004F9008958091CA0290914E03892B809316
:102830007C018091EA01882309F180910403909141
:102840000503892B29F00E944B0C81110E94180C62
:1028500080917C019091EA01892B80937C0120E09A
:102860008EE791E0FC013191CF0131112F5FF1E052
:1028700084389F07B9F721110E94180C8091FB0240
:10288000809590917C0189239091FC02892B809303
:102890007C0148E050E060EE71E08CE791E00E943E
:1028A000C731892BA9F088E0ECE7F1E0A0EEB1E0B8
:1028B00001900D928A95E1F7E0912B03F0912C03A2
:1028C000309731F00280F381E02D8CE791E009949C
:1028D000089580911801877F8093180190914E038D
:1028E0009D7F90934E0384FF06C08F7E80931801D6
:1028F00082E00E943E0C8091180185FF06C08F7D0A
:102900008093180180E20E943E0C0C94121490E017
:1029100080E00E941E0790E080E00E94080710926D
:102920004E030E94121486E0E5E2F2E0DF011D9200
:102930008A95E9F710921F0210921E02109220024F
:102940000C948A08809354030C9487148091540348
:10295000982F9670963019F488600C94A214877F93
:10296000FCCF21E030E001C0220F8A95EAF72095E4
:102970008091540382230C94A2149091DF018095DE
:1029800089238093DF01282F277091F4282F082EA8
:10299000000C330B9217130659F09091FA0192FD37
:1029A00007C08595859585950E94B1140C94440CBB
:1029B0000895CF93C091FA01C2FB992790F9981717
:1029C00099F080FBC2F9C093FA016091F90184E0AB
:1029D00090E00E9408326C2F82E290E00E94083260
:1029E00082E0CF910C94BD14CF91089521E030E0A6
:1029F00001C0220F8A95EAF780915403822B0C9430
:102A0000A2149091FA0192FD10C098E0899F900164
:102A10001124622B6093DF010E94F6140E94E206EB
:102A20009093DE018093DD0108950C94F614809359
:102A3000EB010C9487141092CA02EEE7F1E086E0F5
:102A4000DF011D928A95E9F70C9487141F93CF93A9
:102A5000DF93CDB7DEB7AA970FB6F894DEBF0FBEEF
:102A6000CDBF85E493E02091F100DC012D93CD01F1
:102A7000B3E08D349B07B9F780914603833009F4A6
:102A800072C0B8F4813009F449C0823009F4B3C08F
:102A90008091E80083FF96C28091450390914603A0
:102AA0009A3008F08FC2E92FF0E0EA5BFD4C0C94FD
:102AB000A4318A3009F48EC08B3009F471C089309A
:102AC00039F780914503813219F78091490390913C
:102AD0004A03009711F00297D9F68091E800877FAA
:102AE0008093E8008091E80082FF38C09091F30065
:102AF0008091F200029731F48091F100813011F061
:102B0000863021F48091F100809339038091E800B0
:102B10008B778093E8000E94B305BACF809145037C
:102B2000813A09F0B5CF8091E800877F8093E80073
:102B30008091490390914A03892B61F468E08AE30C
:102B400093E070E00E9465068091E8008B778093A7
:102B5000E8009ECF60E090E080E0F3CF80914D03ED
:102B60008111C0CF95CF80914503813A09F090CF74
:102B70008091490390914A03892B09F089CF809174
:102B8000E800877F8093E8008091E80080FFFCCF19
:102B9000809119018093F1008091E8008E77B9CF80
:102BA00080914503813209F073CF80914903909160
:102BB0004A03892B09F06CCF8091E800877F8093CE
:102BC000E8000E94B30580914703809319010E9499
:102BD0001B155ECF80914503813209F059CF80915A
:102BE000E800877F8093E8000E94B3058091480346
:102BF000809338034DCF80914503813A09F048CF47
:102C00008091E800877F8093E8008091E80080FF52
:102C1000FCCF80913803BECF803899F0823809F01C
:102C2000D1C1809149038F70873008F0CBC1809368
:102C3000E9008091EB0085FB882780F91092E9007C
:102C400006C080914203909143039111826090915C
:102C5000E800977F9093E8008093F1001092F100D4
:102C60008091E8008E77AAC1882309F498C1823048
:102C700009F0A8C18091470381119BC1809149034C
:102C80008F702FEF280F263008F09CC18093E90049
:102C90002091EB0020FF8DC1933031F48091EB0047
:102CA00080628093EB0085C19091EB0090619093DE
:102CB000EB0021E030E001C0220F8A95EAF7209373
:102CC000EA001092EA008091EB008860EACF81115F
:102CD00079C1109147031F778091E3008078812BA1
:102CE0008093E3008091E800877F8093E8000E9452
:102CF000B3058091E80080FFFCCF8091E3008068FD
:102D00008093E30082E0111183E080934D035AC168
:102D10008058823008F056C1209147033091480313
:102D20002C3DE3E03E07A1F583E08A838AE28983B4
:102D30004FB7F894DE01139620E03EE051E2E32F16
:102D4000F0E050935700E49120FF03C0E295EF704C
:102D50003F5FEF708E2F90E0EA30C0F0C7968D9302
:102D60009D932F5F243159F74FBF8091E800877FF3
:102D70008093E8006AE270E0CE0101960E94650649
:102D80008091E8008B778093E8001CC1C096E7CF64
:102D90008091490390914A03432F552743305105B1
:102DA00009F44AC078F54130510509F485C08BE536
:102DB00090E0E3EEF8E04230510509F003C12091C4
:102DC000E800277F2093E80020914B0330914C03CB
:102DD0008217930708F49C0140E02115310509F0A2
:102DE00070C041116EC08091E80082FDC9CF809112
:102DF0004D03882329F2853019F28091E80083FF82
:102E0000F2CFBECF4132510509F447C042325105DD
:102E100009F0D8C08330910508F0D4C0FC01EE0F52
:102E2000FF1FE259FE4F0190F081E02D85599E4F22
:102E3000DC018C9190E01DC0332721303105E9F091
:102E40002115310579F022303105F9F023303105B3
:102E500009F0B8C0E0E5F9E0E4918E2F90E0E0E5FC
:102E6000F9E007C0EAEAF9E0E4918E2F90E0EAEA9F
:102E7000F9E0009709F4A6C0A2CFEAE8F9E0E491EE
:102E80008E2F90E0EAE8F9E0F4CFEEE6F9E0E49185
:102E90008E2F90E0EEE6F9E0ECCF8330910508F05C
:102EA00091C0880F991FFC01EC58FE4F0190F081F2
:102EB000E02D89E090E083CF82E190E0EEE3F9E05D
:102EC0007ECF80914D03882309F45ACF853009F4D1
:102ED00057CF8091E80083FD53CF8091E80082FDB9
:102EE00082CF8091E80080FF78CF9091F3008091AD
:102EF000F2002115310519F08830910550F041E0BC
:102F0000089709F040E08091E8008E778093E80010
:102F100064CF44914093F1003196215031090196DC
:102F2000E8CF803809F04EC08091E800877F809319
:102F3000E800809144038093F10092CE811142C059
:102F4000109147031230F0F58091E800877F80935D
:102F5000E800109344030E94B305112311F084E0AC
:102F600005C08091E30087FDFACF81E080934D0397
:102F700042E061EC81E00E94D20542E261EC84E033
:102F80000E94D20542E261EC82E00E94D20542E258
:102F900060EC83E00E94D20580914D0313C08091C4
:102FA0004703813079F481E0933009F080E0809329
:102FB00043031092E9008091E800877F8093E80046
:102FC0000E94B3058091E80083FF0AC08091E80069
:102FD000877F8093E8008091EB0080628093EB0014
:102FE000AA960FB6F894DEBF0FBECDBFDF91CF918A
:102FF0001F910895882341F0809590914E03892375
:1030000080934E030C9412140895882339F0909104
:103010004E03982B90934E030C941214089588231A
:1030200021F00E94370C0C9412140895882321F08B
:103030000E943E0C0C9412140895882361F19CEFB9
:10304000980F913A20F40E946B0C0C94121490E2A9
:10305000980F983050F4877091E001C0990F8A95CD
:10306000EAF7892F0E94370CF0CF9BE5980F933039
:1030700020F490E080E00C941E0798E5980F9731BB
:1030800020F490E080E00C940807803F20F00E943C
:10309000B1080C948A080895FF920F931F93CF9361
:1030A000DF93F82E00910003109101030115110523
:1030B00009F449C01092FF021092FE021092FB0226
:1030C0001092FC02D8011696CD91DC919E013A95A2
:1030D00021153F4108F4D07ED1E0C11101C0D0E0FC
:1030E000D8011996ED91FC911A97309731F01B9603
:1030F0006D917C9180E00995D823DD2339F08CEF28
:103100008C0F813A38F58C2F0E946B0CFF2099F0C0
:10311000E0910003F0910103808584FD0CC0809153
:10312000FD02882341F0808191819C012150310969
:10313000253A3D45A8F00E94121410920103109206
:1031400000031092FD02C801DF91CF911F910F91F2
:10315000FF9008950E9412148C2F0E941D18D6CF44
:103160000E944007E8CFCF93DF93EC010E941D1827
:10317000CE010E94250D9E01205E310928303105C7
:1031800010F0CD2B21F4DF91CF910C940F18DF912B
:10319000CF910C94FA17CF93C82F882309F44AC013
:1031A0008CEF8C0F813A88F4EEE7F1E08191C8173B
:1031B000D9F181E0E438F807C9F76C2F8CE791E08A
:1031C0000E94EE06CF910C94121480E28C0F88308E
:1031D00048F4C77081E001C0880FCA95EAF70E94E1
:1031E0003E0CF0CFEBE5EC0FE33040F4F0E0EE5DA9
:1031F000FE4F808190E0CF910C941E07E8E5EC0F24
:10320000E73150F4F0E0EE0FFF1FEB5DFE4F8081E1
:103210009181CF910C940807C03F60F08C2F0E94E1
:10322000CC09CF910C948A088C2F0E946B0C0E94C1
:103230001214C3CFCF9108951F93CF93DF93182F0C
:10324000C0912203D0912303893321F0C091200340
:10325000D0912103812F0E94CB18209731F4812F28
:10326000DF91CF911F910C941D188FE99FE001977A
:10327000F1F700C000002197F0CF0F931F93CF9379
:10328000DF93C42FD22FFC0182818823A1F04093C9
:1032900028030E94E2069093270380932603C770B9
:1032A00081E001C0880FCA95EAF7DF91CF911F91A5
:1032B0000F910C94161810912803141339C08091A3
:1032C0002603909127030E94C70620911A0330918C
:1032D0001B038217930760F5C0E2CD0F1D17B9F0ED
:1032E00080E2810F883040F4177081E001C0880FC0
:1032F0001A95EAF70E940F18C83048F481E09D2F14
:10330000977001C0880F9A95EAF70E941618802FCF
:103310000E941C19C83098F4D77081E001C0880F52
:10332000DA95EAF7DF91CF911F910F910C940F1866
:10333000C77081E001C0880FCA95EAF7F3CFDF912B
:10334000CF911F910F910895AF92BF92CF92DF92CC
:10335000EF92FF920F931F93CF93DF93EC018AE0DC
:10336000A82E2881222309F48CC02130C9F5998127
:103370008A81913021F422960E941C1905C0923056
:1033800029F422960E94CB182196EBCF933021F49A
:1033900022960E941D18F8CF943011F02196F4CF98
:1033A000229630E020E0AE014F5F5F4F8053990BD3
:1033B0008A30910550F02150310930F38FE99FE0B8
:1033C0000197F1F700C00000F6CFA29EB001A39EC6
:1033D000700D11249C01260F371F8981EA01E3CF6C
:1033E000E22FF0E0E154FE4FB490822F869586954F
:1033F000869590E0FC01E155FE4FE4902770F12C9A
:10340000022E02C0F594E7940A94E2F731E0E32239
:10341000FF24FC01E156FE4FC490D12C022E02C0C5
:10342000D594C7940A94E2F731E0C322DD24FC016D
:10343000E157FE4F049110E002C0159507952A95BB
:10344000E2F701701127E114F10419F081EE0E94F6
:10345000CB18C114D10419F086EE0E94CB188B2D25
:103460000E941C19CD2819F086EE0E941D18EF2825
:1034700019F081EE0E941D18012B09F485CF8CE212
:103480007BCFDF91CF911F910F91FF90EF90DF9055
:10349000CF90BF90AF900895CF93DF93EC010E943F
:1034A000250D9E01205E31092830310510F020974E
:1034B00039F40E9416188C2FDF91CF910C94CB1801
:1034C0000E940518F8CF662329F020914E03226050
:1034D00020934E039C013056211540E2340720F022
:1034E000305E2115304108F499270C944C1ADF9274
:1034F000EF92FF920F931F93CF93DF937C018B0189
:10350000D42E8091180182FF8CC0C091ED02D09121
:10351000EE02CE15DF0521F0E114F10409F081C0BF
:10352000809118018B7F8093180181FD73C0809179
:10353000EB029091EC02A801481B590B81E020910D
:103540001601309117014217530708F480E081708B
:10355000F82E80911801F0FA81F980931801FE018C
:1035600083E0F695E7958A95E1F7EE71FF27E5533D
:10357000FD4F20813181AE014F70552781E090E0F1
:1035800002C0880F991F4A95E2F7FF2009F444C052
:10359000822B932B918380838091CA0281FF08C084
:1035A0008091180180618093180182E00E94370C9D
:1035B0008091CA0285FF08C08091180180628093C3
:1035C000180180E20E94370C6F2DCE010E94631A11
:1035D000DD2031F080911D0385FF02C086FF3BC0D6
:1035E00080912003909121030E94FA0D8091ED02B9
:1035F0009091EE029C013056211540E2340720F0F4
:10360000305E2115304108F499270E94B3180E94BA
:1036100069141DC081E09BCF8095909582239323F0
:10362000B9CFC701992797013056211540E23407D9
:1036300028F0305E2115304108F0C7010E94B31810
:103640008091ED029091EE028E159F0501F310938B
:10365000EC020093EB02DF91CF911F910F91FF904D
:10366000EF90DF9008952F923F924F925F926F926A
:103670007F928F929F92AF92BF92CF92DF92EF9202
:10368000FF920F931F93CF93DF9300D000D000D011
:103690000F92CDB7DEB77C01DC0113964D915C91A2
:1036A000149711966C9111978C910E94980C81112E
:1036B0002AC061E0C7010E94580F8C01F7015280B7
:1036C000552009F4E0C782519F45409708F0B9C7DB
:1036D0008FEF93E00E94F4317EEED72ED00E03EAF6
:1036E00012E08823A9F18091DF01877061F0D70192
:1036F00012968C91882339F08091FA0182FD03C0E3
:1037000082E00E94BD1427960FB6F894DEBF0FBE6C
:10371000CDBFDF91CF911F910F91FF90EF90DF9080
:10372000CF90BF90AF909F908F907F906F905F9061
:103730004F903F902F9008950115F4E01F0799F2E4
:10374000C8010E94F431811101C0DA940F5F1F4F4C
:10375000D110F2CF19821A821B821C8299249A946A
:1037600068012FEFC21AD20AC8010E94F43189837E
:103770001A82882309F4B7CF813009F07BC0580141
:1037800032E0A30EB11CC6010E94F431C82E8A8318
:10379000882309F4A8CFC5010E94F431D82E8FEFF9
:1037A0008C0D833068F4580143E0A40EB11CDB8219
:1037B000DD2021F0CE0101960E94A4198501D0CF11
:1037C0008BEF8C0D833070F5C8010396DB825C01B2
:1037D000DD20A1F3580154E0A50EB11C0E94F43184
:1037E0008C83882359F30B811C8101308FEF1807DC
:1037F00010F0102F002796E0C91681F0A7E0CA1636
:1038000049F0C8010E940F28809120039091210364
:103810000E94FA0DC8010E94E027D0CFC8010E9483
:103820000F28CCCFB4E0CB12C9CF5801E4E0AE0EE4
:10383000B11CC80103960E94F431DD2009F453CF76
:10384000882309F450CF8150990B989E9001999E3E
:10385000300D11244D2D4150550BCA01820F931F7D
:10386000019708F4ABCFAFE9BFE01197F1F700C0C3
:103870000000F6CFCE0101960E94A41956019ECFFA
:1038800081E00E94F6140E94A6142DCF81E00E94D0
:10389000B114F9CF82E0F5CF82E0F9CF81E08093D7
:1038A000000121CF809548221AC7552009F49DC6F2
:1038B00010938501009384010E94D6066093F7025D
:1038C0007093F8028093F9029093FA021092FF022B
:1038D0001092FE0204C782FB882780F943C7552057
:1038E00009F181703FC70E941D180C947924049738
:1038F000813A910558F46A2D8CE791E00E94EE061A
:10390000552009F417C60E941214EDCE0E9412141D
:103910008FE39CE90197F1F700C000008A2D0E9417
:10392000CB18EECF9D819F5F9D83F1C6FC01208166
:1039300031810217130709F0F6C55110F6C5109230
:10394000FD0280E07BC680911801816080931801A0
:103950001EC6809118018E7F809318010E94691401
:1039600016C6809118018F7E013E110531F0053E8B
:103970001105C1F4809118018F7D80931801809109
:10398000180180FF13C6F70182810832110528F55E
:103990000E31110508F074C00430110580F5811155
:1039A00001C604C6C80190568115A0E29A0720F00E
:1039B000905E8115904118F78091180182FFF6C53D
:1039C00080911F0381FDF2C529E032E040E0B6019D
:1039D00090E080E00E94771AE9C50933110558F498
:1039E0000D32110518F40B321105C9F690911D0323
:1039F00092FDD5CF08C004361105C1F3D0CF909108
:103A00001D0394FDCCCF882309F4A1C09091CA0274
:103A10008091EA01282F292B322F3D7FB1F110929E
:103A2000EE021092ED0230911D0331FD2EC0F8011F
:103A300043E0F695E7954A95E1F7EE71FF27E553E8
:103A4000FD4F98012F70332781E090E002C0880F6E
:103A5000991F2A95E2F780959095208131818223E4
:103A600093239183808360E0C8010E94631A809150
:103A7000EA018D7F0E94230C82E00E94BD1433CEA8
:103A800090911D0393FD8BCFBECF36E0F701A9E0E7
:103A9000B2E001900D923A95E1F710920B0210926C
:103AA0000D0210920C02A090ED02B090EE020A15E9
:103AB0001B05B1F530911D0335FF32C0409118014F
:103AC00041FB992490F841FF02C036FF29C0409184
:103AD000EB025091EC02B601641B750B40911A0386
:103AE00050911B0364177507D8F491FF08C08091AB
:103AF000180180618093180182E00E94370C809148
:103B0000CA0285FF08C08091180180628093180165
:103B100080E20E94370C692DC5010E94631AE3CD33
:103B20009091180121FB91F9909318018D7F0E94CB
:103B3000230C1093EE020093ED02D092EC02C0929F
:103B4000EB028091180184608093180195CF970152
:103B500040E0B601C8010E94771AC5CD053F8CE54B
:103B6000180709F468C008F460C0063FACE51A07FE
:103B700009F467C0F7013281332309F426C6109295
:103B800028030330FDE51F0708F067C00A3F2CE556
:103B9000120730F4C80182509C45449708F067C072
:103BA0000E947A0F9093FA018093F90101318CE51C
:103BB000180709F44DC108F0CAC00930ACE51A076E
:103BC00009F438C108F094C00530ECE51E0709F48B
:103BD00025C108F07FC003302CE5120709F414C199
:103BE00008F018C18091F901816002301C4509F488
:103BF0000EC16091F9011091FA0184E090E00E94F9
:103C00000832612F82E290E00E9408320E941B1568
:103C10006ACD07E225EE45EE68ED7CE5E2C406E2FA
:103C200021EE40EE63EF7CE5DCC407E225EE44EED6
:103C300064EF7CE5D6C406E221EE42EE65EF7CE55A
:103C4000D0C407E225EE46EE66EF7CE5CAC408E282
:103C500021E045EE69ED7CE5C4C401364DE514076D
:103C600009F49ECF053A5DE5150709F499CF0631B1
:103C7000BCE51B0709F0A2C18091CA02982F9A7A6D
:103C800020911C0320FF04C0482F447409F090E0E9
:103C900021FF04C0482F417109F090E022FF04C0C9
:103CA000482F487809F090E023FF03C0827209F0A2
:103CB00090E0332309F4F6C081E0911101C080E067
:103CC0008093860169E2911165E38CE791E00E949F
:103CD000EE0619CE8091F901806207305CE5150788
:103CE00009F495C008F4A2C08091F90180648FC0E6
:103CF0008091F9018B7F0D309CE5190709F487C08D
:103D000098F48091F9018E7F0B30BCE51B0709F414
:103D10007EC08091F9018C600C301C4508F477C09E
:103D20008091F9018D7F73C08091F9018F7E0F30F2
:103D3000FCE51F0709F46BC08091F901877F003112
:103D40001C4508F464C08091F9018F7D60C00D3F6F
:103D50003CE5130709F478C050F505315CE515071B
:103D600009F480C098F48091F901837F03319CE5C8
:103D7000190709F44CC008F46FC00E941B159091FC
:103D8000F901892F97FB87F9805841C00B3FBCE5AB
:103D90001B0709F447C008F053C08091FA01816005
:103DA0000A3F1C4509F025CF8093FA0122CF01304C
:103DB0002DE5120709F462C0B8F48091FA018C7FF6
:103DC0000F3F4CE5140781F38091FA0183600115E0
:103DD0001D4550F38091FA01982F909591708E7F38
:103DE000892B90FB81F9E0CF01368DE5180709F4A6
:103DF0004BC0053A9DE5190709F44DC002301D4539
:103E000009F0F7CE60E03BC08091F90182608093B9
:103E1000F901EFCE8091F9018460F9CF8091F90129
:103E20008860F5CF8091FA018260BECF8091F90160
:103E30008061EDCF0E941B158091F9018068E7CF6A
:103E40008091FA018E7FB0CF8091FA018D7FACCF47
:103E50008091F9018F7BDBCF0E941B158091F901C6
:103E60008F77D5CF8091F90182FB992790F921E0D6
:103E7000922790FB82F990FB83F9C9CF61E08EE035
:103E800090E00E940832B5CE9091F901892F8F7E83
:103E900094FF8061BCCF9091F901892F8E7F90FFB4
:103EA0008160B5CF80918601811104C089E20E94B2
:103EB0006B0C29CD85E3FBCF4CEF51E168E072E15B
:103EC000073C9CE5190709F464C04DE152E164E147
:103ED00072E1083C1C4508F45CC048E052E16CEF1C
:103EE00071E157C00D3CBCE51B0709F464C0B0F498
:103EF00046E252E167E372E10B3CFCE51F0709F47F
:103F000048C040EF51E164EE71E10C3C1C4508F4FF
:103F100040C047E352E166E272E13BC0063D3CE54A
:103F2000130738F40F3C1C4508F0DDCB0E949612B5
:103F3000DACB0D351D4509F4D6CB68C480914F030B
:103F400080FF1BC08E7F80934F0360914F03709161
:103F5000500380915103909152030E948911109255
:103F600038028FEF90E7A2E081509040A040E1F747
:103F700000C000000E94040EB6CB816080934F0306
:103F800061E086950E944812AECB43E852E16CE8AE
:103F900072E10E94DF07A7CB4CE852E163E872E1CF
:103FA000F8CF44E152E16DE172E1F3CF44EE51E12B
:103FB00060EF71E1EECF61E081E0E4CF0A35BDE56D
:103FC0001B0759F158F40115FCE51F07C9F00E3D18
:103FD0001C4509F01BC40E94B41285CB0B353DE58E
:103FE0001307E9F00C351D4509F010C48091FA0162
:103FF00082FB882780F991E089270E94D91406C4A2
:104000000E941B155FEF84E39CE05150804090407C
:10401000E1F700C000000E94D60D81E0EECF80E005
:10402000ECCFC8010E94AD0CD82EFFC3E02FEF707B
:10403000BE2E802F807F19F0B29490EFB922DD2040
:10404000A9F0BB2059F080E2810F883010F0811078
:1040500007C08B2D0E943E0C0E941214812F5EC05F
:1040600080914E03B82AB0924E03F6CF812F0E9462
:104070001D18BB2009F454C080E2810F883010F075
:10408000811004C08B2D0E94370C06C0B094809123
:104090004E03B822B0924E030E94121441C0F02F7A
:1040A000FF70BF2E802F807F803219F0B29480EF96
:1040B000B822882029F121E0821609F4A4C0DD206D
:1040C00009F4ADC0CC2009F47DC020E0D7014C91AB
:1040D00011965C91119712966C91129713967C91A0
:1040E000139714968C910E942F0F80911F0381FDCE
:1040F000B5CFF701858180FFB1CF8F70858362C016
:104100008091FA0182FF40C0DD20C1F1BB2029F07F
:104110008B2D0E943E0C0E94121480E00E94CB184E
:10412000292D2850330B2430310510F40E94340718
:10413000812F902F0E940A0D8111CFC1109288010A
:1041400010928701AA20A9F08091DF0180FD11C0A3
:10415000F70112828595859585950E94F614C70111
:104160000E94331B8091DF018595859585950E947E
:10417000B11460E0C7010E94580FC5CA80E00E94D8
:104180001D18BB2069F27ECFDD2001F1C11004C0F3
:104190008091EA018B2917C031E0C31206C08091DB
:1041A000EA018B290E94230CBBCF80911E03823031
:1041B00078F3C812EDCF0E94180C8091DC01B81280
:1041C000B092DC018B2D0E941618AACFC11006C038
:1041D0000E94180C8B2D0E940F18A2CF80911E03F5
:1041E00041E0C4120BC0823008F49ACF8091CA0219
:1041F0008B2109F495CF0E94650CEACF823040F301
:104200008C11E6CF8DCF80912403DD2021F08C1519
:1042100008F486CFD7CFC81608F082CFDBCFCC20EA
:10422000C9F2F9E38F1251C18091220390912303C7
:104230000E94FA0D812F0E941D1872CF802F869543
:104240008695837069F0813009F06ACF812F902FB5
:104250009370D11002C090E080E00E94080760CF08
:10426000812F902F9370D11002C090E080E00E94C7
:104270001E0756CF812FDD2029F00E94CC090E9415
:104280008A084ECF0E94B108FACF802F837091F533
:10429000D11046CF412F429546954770440F440FA9
:1042A000812F8F70042E01C0880F0A94EAF7212F06
:1042B000207114FF07C02FE030E001C0220F4A95A3
:1042C000EAF72095302F369536953370323069F005
:1042D00050F44091EB01313029F0822B84230E946D
:1042E00017151ECF842B822BFACF282B8091EB0140
:1042F0008227F5CF8695DD2011F0802F81708823ED
:1043000009F40ECF412F429546954770440F440F54
:10431000812F8F70042E01C0880F0A94EAF7212F95
:10432000207114FF07C02FE030E001C0220F4A9532
:10433000EAF72095302F369536953370323069F094
:1043400050F440915403313029F0822B84230E9491
:10435000A214E6CE842B822BFACF282B8091540313
:104360008227F5CF202F2F70B22EDD2029F0822F4B
:104370000E94F614812F27CF812F0E940F188B2DBA
:104380000E94B114CDCE812F32EF8316B1F13815D2
:1043900070F040EF8416D1F051EF851691F0DD20DA
:1043A00009F48EC0C1105ACE802F8F712AC093EFAE
:1043B000891651F1A4EF8A12F2CF8091FA0182FF9F
:1043C0002FC0802F8F71DD20D9F21BC08091240374
:1043D000DD2079F0C81608F0A3CE202F2F7181E0E0
:1043E00090E001C0880F2A95EAF79091540389273D
:1043F000AECF8C1508F494CEF0CF802F8F71D110F2
:10440000BFCF0E94F6148CCE80E0DD2009F49FCF50
:1044100081E0902F9F7101C0880F9A95EAF797CF9E
:1044200080911E038230A0F18091DC01DD20F1F04B
:104430000E94370C8091DF018770843041F40E9424
:10444000440C802F8F710E94B114A12C69CE8091F1
:104450001E03C816D0F7B02FBF71BB2E8B2F0E9442
:10446000F61463E08B2D0E940115EFCF0E943E0CE5
:1044700080911E03C81640F00E94440C0E94650CF7
:1044800064E0802F8F71EFCF81E00E94BD14DDCFFB
:10449000DD2059F0E02FEF71BE2E8E2F0E94F61412
:1044A00063E08B2D0E9401153BCE81E00E94BD147C
:1044B000F1E0FC1508F034CE82E00E94BD1430CE4D
:1044C000CC2041F0893309F4AFCE80912003909144
:1044D0002103AECE802F8F7153CFDD2019F0C11094
:1044E0002DCE30CEC1102ACE20E0D7014C911196AE
:1044F0005C91119712966C91129713967C91139779
:1045000014968C910E942F0F80911F0383FF16CE6B
:104510008091870190918801029709F00FCE812F39
:104520000E941C190BCE552029F0DC0118968C91A5
:1045300085FF07CA80911D0380FF38C00E94E206F4
:104540006C01F7018281882309F40BCA809118015C
:1045500082FF08C029E032E040E0B60190E080E050
:104560000E94771A0B31FCE51F0709F4ECC90C31E6
:104570002CE5120709F4EDC990911801892F8E7F5F
:1045800090FF81600A313CE5130709F4E5C9C801D1
:104590009056811540E2940728F0905E8115904175
:1045A00008F0EDC91092EE021092ED02033FFCE517
:1045B0001F0709F434CB08F0D1CA083D3CE51307C6
:1045C00009F427CB093D4CE5140709F440CB073D1E
:1045D0005CE5150709F0CECA06E221EE41EE67ED73
:1045E0007CE5C7010E943D197EC8809184019091AD
:1045F00085010817190781F4109285011092840132
:104600001092F7021092F8021092F9021092FA0238
:104610001092FF021092FE0280910003909101031C
:10462000009709F487CFA8E08A16910408F07EC9A4
:10463000642D0E94910781117DCF81E00E944C186A
:1046400079CF0031BFE51B0709F41AC90131EFE545
:104650001E0709F41FC90F35EDE51E0709F41EC931
:104660000036FDE51F0749F00E352DE51207A1F4D0
:1046700080910001882309F411C91092000180E0A3
:104680000E944C1830C88031FFE59F0709F4FEC82E
:1046900081319F4509F400C980910001882309F404
:1046A00049CF480130EE831A91084090EA01809189
:1046B000DC01482A8091CA02482A48E08416910405
:1046C00008F0F3C898012770332781E090E001C01B
:1046D000880F2A95EAF7552009F4E4C8482AD7013B
:1046E0008D919C910E94AD0C21E030E0190102C037
:1046F000220C331C8A95E2F7E0910003F09101034C
:10470000FF83EE8360908401709085011D822D816E
:10471000E22FF0E0EE0FFF1FE65CFD4FC080D1807E
:10472000C114D10409F478CF411005C0D601129606
:104730008C918111F7C8F601838190E08221932149
:10474000892B09F4EFC88085982F977009F487E0CA
:10475000F8E08F16910408F0C2C8552009F4BBC8D0
:1047600086958170882309F4DDC8D601AD90BC9090
:104770000A151B0519F4552009F4D4C8EE81FF81F0
:10478000CE16DF0609F4CEC8D6011D96ED91FC9138
:10479000309721F08081882309F4C4C8642DC601B4
:1047A0000E949107882309F4BDC80A151B0509F06A
:1047B00079C00115110509F47AC051107AC0A61408
:1047C000B70409F0AFC8512C74C006314CE514078A
:1047D00009F452CA8091CA028272093CECE51E07B4
:1047E00009F4E4CB08F07ECB053C2CE5120709F474
:1047F000D8CB08F061CB033C4CE5140709F4C5CBDA
:1048000008F0CACB023C1C4509F498CBF701828121
:1048100000811181882309F404CCC8010E94ED0EA7
:10482000D82E682FC8010E94DA0CB8018D2D0E9485
:10483000D10E0E94900A182F092F882ED7011296A8
:10484000DC9012971596CC90C2943FE0C3228091E1
:10485000DF018770C1F0AD2CDD20B1F0892F807FA2
:10486000803421F080E2810F883068F08091FA0175
:1048700082FD09C082E00E94BD148091DF01877033
:10488000AA24A3948111A12C902E92942FE092221D
:10489000BBE0B91508F444CCE92DF0E0E05BFD4C39
:1048A0000C94A431A114B10409F089CF512CB12C7E
:1048B000A12C80E00E944C18D0920103C09200030A
:1048C00081E08093FD02D60115968C918093FB02C6
:1048D00051100FC0AB2869F0F601808191819C01D5
:1048E00024503109213A310510F00C94731C0E94B8
:1048F0006B0CD6011696AD90BC90C5019A958115AA
:104900009F4110F4E0EEBE2277247394C501019715
:10491000853A9D4508F0712CD6011996ED91FC91D0
:104920001A97309731F01B966D917C9181E0099533
:104930007822772081F0F601868197810E94250DEB
:104940008093FC02C501F8E08F16910410F00C94DE
:10495000771C0E9440070E9412140C94801CBF9286
:10496000CF92DF92EF92FF920F931F93CF93DF933B
:104970008091A901807F61F48091A601882341F094
:10498000C091DB0186E0B82E8091AA018C130AC089
:10499000DF91CF911F910F91FF90EF90DF90CF901B
:1049A000BF900895F090A401E090A501C090A701E8
:1049B000D090A801A6016E2D8F2D0E94980CD0E0FA
:1049C00081113DC0BC9E8001BD9E100D1124F801D7
:1049D000E555FE4F81818E1132C080818F112FC02D
:1049E000828181112CC0E380F480EC18FD0860E026
:1049F00084EA91E00E94580F80911A0390911B0362
:104A0000E816F906E0F48091A9018F708061809327
:104A1000A901F801E055FE4F80818F70806180838D
:104A200084EA91E00E94331BDF91CF911F910F9197
:104A3000FF90EF90DF90CF90BF900C94A30C219645
:104A4000C770A2CF3F924F925F926F927F928F92E8
:104A50009F92AF92BF92CF92DF92EF92FF920F930D
:104A60001F93CF93DF93CDB7DEB761970FB6F8945E
:104A7000DEBF0FBECDBF8C0185E0F801DE011D96C3
:104A800001900D928A95E1F7D8014C9011965C90B7
:104A900011971296EC9012971396CD90DC9060E0EF
:104AA00084EA91E00E94580F84EAA82E81E0B82E93
:104AB0008090A7019090A801A4016091A501809128
:104AC000A4010E94980C811197C1F090A601F601F3
:104AD000E819F9094F0160E0FF2009F443C1C5015D
:104AE0000E94580F60901A0370901B033090A90128
:104AF0008614970408F0F8C04091A7015091A801CE
:104B0000B090A401A090A501832D807F6A2D09F0AB
:104B1000A3C08B2D0E94980CFE2C811131C0D801AE
:104B200011968C9111978A112BC08C918B1128C0F2
:104B3000E11026C0832D8F7080618093A90184EAE3
:104B400091E00E94331B8091A901F80185838F2D8C
:104B500061960FB6F894DEBF0FBECDBFDF91CF9147
:104B60001F910F91FF90EF90DF90CF90BF90AF908B
:104B70009F908F907F906F905F904F903F9008959F
:104B8000F4EF6F16F1E07F0620F480911F0380FFA1
:104B900021C0A601652D842D0E94980C811118C09A
:104BA00081E08E2580FF16C04E2D652D842D0E943C
:104BB000780C882379F084EA91E00E94331B86E028
:104BC000E4EAF1E0DF011D928A95E9F7F12CBFCF0D
:104BD00080E0E8CFA601652D842D0E94980C8111FC
:104BE00024C081E08E25B82FB170CB2E80FF2BC062
:104BF0004E2D652D842D0E94780CD82E811123C056
:104C00004D865E868D859E850E941C0F292F2295DC
:104C10002F70223060F0243088F49F7061F0F8012A
:104C20009581907F41F4FD2C92CF80E0DCCF9F7086
:104C300011F08823C1F3805E8830A8F3C8010E9478
:104C4000331BDC2CF0CFEE2009F481CF8091A90139
:104C500081608093A901BACF8B2D0E94980C81119D
:104C600019C0D80111968C9111978A1113C08C919B
:104C70008B1110C0E1100EC015963C92C8010E9425
:104C8000331B86E0F801A4EAB1E001900D928A9509
:104C9000E1F75DCFC8010E94280F882309F1EE20BB
:104CA000F9F08091A901803270F02091A401309137
:104CB000A50138872F831986DB86CA868C87CE01AB
:104CC00007960E94331B86E0F801A4EAB1E0019048
:104CD0000D928A95E1F70E94AF24FF24F39437CF19
:104CE000C8010E94331BF9CF832D807F09F463CF65
:104CF0009090A4018090A5014091A7015091A80136
:104D0000682D892D0E94980C811113C0F8018181B2
:104D100088110FC0808189110CC0E1100AC0358252
:104D2000C8010E94331B86E0D5011D928A95E9F7E0
:104D30000ECFC8010E94280F882391F2EE2081F245
:104D40008091A901803208F4BECF2091A401309156
:104D5000A5013A8329831B82DD82CC828E83CE011A
:104D60000196AFCF84EA91E00E94580F80911A0318
:104D700090911B0388169906B0F6FE2CEE2009F4DC
:104D8000AFCFE090A401D090A5014091A701509130
:104D9000A8016D2D8E2D0E94980C81111FC0F80165
:104DA00081818D111BC080818E1118C080911F03DD
:104DB00082FD67CF9091A90190FD63CF907F09F4A8
:104DC00060CF8091A9018583903F09F457CF982F38
:104DD000907F905F8F70892B858350CFC8010E9490
:104DE000280F811170CF8091A90181608093A90162
:104DF000C8010E94331BABCEEE2009F471CFC8016D
:104E00000E94280FF82E882309F46ACF86E0F80163
:104E1000A4EAB1E001900D928A95E1F78091A40196
:104E20009091A5010E941C0F0E94AF2490CE1F9369
:104E3000CF93DF93CDB7DEB767970FB6F894DEBF99
:104E40000FBECDBF942F4B8B252F5C8B6D8B7E8B34
:104E50008F8B4E895F89622F892F0E94980C811158
:104E600009C08091870190918801019690938801F3
:104E7000809387018D89811110924E031A8A198AB5
:104E800085E0FE017396DE011D9601900D928A95D4
:104E9000E1F78091FA0182FD1EC080910403909198
:104EA0000503892BC1F00E94E2062091DD013091BB
:104EB000DE01821B930B20910403309105038217BE
:104EC000930720F08091DF0182FF76C00E944B0C97
:104ED00081110E94180C86E0FE013D96DE011796B6
:104EE00001900D928A95E1F7CE0107960E94222546
:104EF000811111C086E0FE013796DE011196019006
:104F00000D928A95E1F74A855B8568858F810E94BD
:104F1000980C882389F016E08091DB019091AA011A
:104F2000891337C067960FB6F894DEBF0FBECDBFAA
:104F3000DF91CF911F9108952091AA0130E0C9011E
:104F40000196877099274091DB014817190699F05F
:104F500096E0929FD001939FB00D1124A555BE4FAE
:104F6000FE01319601900D929A95E1F78093AA0186
:104F70000E94A30CD0CF0E941B151092AA01109280
:104F8000DB0186E0E4EAF1E0DF011D928A95E9F7B2
:104F9000C2CF819FC001112485559E4F0E942225BA
:104FA000882309F4BFCF8091DB0190E001968770E0
:104FB00099278093DB01B0CF82E00E94BD1486CF99
:104FC000CF93DF9300D000D00F92CDB7DEB7909390
:104FD000C7028093C602811520E2920748F40F9021
:104FE0000F900F900F900F90DF91CF910C94B3180A
:104FF0008EEF89838A831B820E94E2068160782F6C
:105000009D838C8349815A816B818D810F900F9094
:105010000F900F900F90DF91CF910C941727CF93A3
:10502000DF9300D000D00F92CDB7DEB79093C702C8
:105030008093C602811520E2920748F40F900F90EA
:105040000F900F900F90DF91CF910C944C1A8EEF30
:1050500089838A8381E08B830E94E2068160782FB6
:105060009D838C8349815A816B818D810F900F9034
:105070000F900F900F90DF91CF910C94172790E035
:1050800080E00E940232893E9E4F11F40C94610F21
:1050900080E008951F920F920FB60F9211242F9364
:1050A0003F934F935F936F937F938F939F93AF93B0
:1050B000BF93CF93DF93EF93FF93D091E900DF701D
:1050C0008091EC00C82FC17080FDC0E81092E9000B
:1050D0008091F000877F8093F00078940E942615DD
:1050E0001092E9008091F00088608093F000CD2B51
:1050F000CF70C093E900FF91EF91DF91CF91BF9105
:10510000AF919F918F917F916F915F914F913F915F
:105110002F910F900FBE0F901F9018951F920F9216
:105120000FB60F9211242F933F934F935F936F937A
:105130007F938F939F93AF93BF93EF93FF93809150
:10514000E10082FF09C08091E20082FF05C08091EA
:10515000E1008B7F8093E1008091DA0080FF24C022
:105160008091D80080FF20C08091DA008E7F8093EC
:10517000DA008091D90080FF9DC080E189BD82E185
:1051800089BD09B400FEFDCF81E080934D0380917D
:105190003703811109C00E9411050E940406809105
:1051A000E20084608093E2008091E10080FF17C0FC
:1051B0008091E20080FF13C08091E2008E7F809397
:1051C000E2008091E20080618093E2008091D8004B
:1051D00080628093D80019BC85E080934D03809154
:1051E000E10084FF2BC08091E20084FF27C080E1B2
:1051F00089BD82E189BD89B5982F917080FFFBCF71
:105200008091D8008F7D8093D8008091E1008F7EBF
:105210008093E1008091E2008F7E8093E200809194
:10522000E20081608093E20080914403882309F4C6
:1052300047C084E080934D0380914D038091E1004D
:1052400083FF27C08091E20083FF23C08091E100AB
:10525000877F8093E10082E080934D0310924403A6
:105260008091E1008E7F8093E1008091E2008E7F4B
:105270008093E2008091E20080618093E20042E04E
:1052800060E080E00E94D2058091F0008860809309
:10529000F000FF91EF91BF91AF919F918F917F911E
:1052A0006F915F914F913F912F910F900FBE0F9093
:1052B0001F90189519BC10924D031092370374CFAC
:1052C0008091E30087FD93E090934D03B5CF7894F0
:1052D0001F921FB61F9211248F939F93AF93BF937A
:1052E0008091300390913103A0913203B091330348
:1052F0000196A11DB11D8093300390933103A093BB
:105300003203B0933303BF91AF919F918F911F9060
:105310001FBE1F9018951F921FB61F9211248F93C6
:105320009F93AF93BF9380912F03811113C08091FE
:10533000300390913103A0913203B0913303419631
:10534000A11DB11D8093300390933103A0933203CC
:10535000B0933303BF91AF919F918F911F901FBE68
:105360001F901895CDB7DEB7E4970FB6F894DEBF5F
:105370000FBECDBF84B7877F84BF0FB6F894A895C2
:1053800080916000886180936000109260000FBE81
:1053900080E890E00FB6F8948093610090936100EC
:1053A0000FBE85B7806885BF85B7806885BF84E3F9
:1053B0009AE090937B0180937A010E94CA100E9428
:1053C0007C0E0E9411050E9404068091E200846018
:1053D0008093E200789480914D038823A1F010918E
:1053E000E9001F709091EC00892F817090FD80E89A
:1053F000182B1092E9008091E80083FD0E94261589
:105400001F701093E90082E084BD93E095BD9AEF90
:1054100097BD80936E000E94610F811102C00E94AF
:10542000BB1003E511E0E8E5EE2EE1E0FE2ED80129
:105430008D918D018F3F11F00E94360AE016F10622
:10544000B1F708E511E075E6E72E71E0F72EF801F7
:1054500081918F018F3F11F00E94360AE016F1060C
:10546000B1F78AE0E4E1F2E0DF01282F1D922A95EE
:10547000E9F7EFEEF1E0DF011D928A95E9F70E946E
:105480003F28811102C00E94B41282E090E00E9485
:10549000F4318093FE010E947A0F9093FA01809379
:1054A000F9010E941E13EFE3FCE93197F1F700C008
:1054B00000000E941E138091140280FF08C06FEF4D
:1054C0007FEF90E080E00E9426320E94D60D83E0BC
:1054D00090E00E94F4310E9417158091FB01811128
:1054E00033C00E943F28811104C00E94B4120E9460
:1054F000A51288E090E00E94FC3160934F03709306
:10550000500380935103909352036E7F71F40E9475
:10551000A51288E090E00E94FC3160934F037093E5
:10552000500380935103909352030E94E507109219
:10553000380280914F0380FF04C060E086950E948E
:10554000481281E08093FB0181E091E090932C036D
:1055500080932B038E010F5F1F4F80914D03DD243D
:10556000D39450E1E52E62E1F62E853009F4DBC1DB
:105570000E941E1381110E94D606A4E1B2E0EFEF53
:10558000F1E0F12CE12C7E2D8D919D9121913191B5
:105590002817390709F4E8C12827392760E0CC2407
:1055A000C394D12CA9014C215D21452B09F4D6C10E
:1055B0006BA77CA79C012C213D2191E0232B09F4B2
:1055C00090E09DA70E94E2068160782F9FA78EA79A
:1055D0004BA55CA56DA58FA50E941727F701EE0FBF
:1055E000FF1FE150FE4F80819181C826D926D182CC
:1055F000C0828091FE029091FF02892B09F43EC087
:105600004091F3025091F4026091F5027091F6021C
:105610002FB7F8948091300390913103A091320319
:10562000B09133032FBF841B950BA60BB70B409192
:10563000EF025091F0026091F1027091F202841732
:105640009507A607B707D0F08091FE029091FF0260
:105650000E944C1A1092FF021092FE021092F30266
:105660001092F4021092F5021092F6021092EF02DC
:105670001092F0021092F1021092F20280911D033A
:1056800080FF1EC08091180182FF1AC00E94E206AE
:105690002091EB023091EC02AC01421B530B2091A4
:1056A0001601309117014217530750F029E032E0FC
:1056B00041E0BC018091ED029091EE020E94771AC8
:1056C000809138028823D1F180913702E0914F0315
:1056D000E695E81BE0933302823009F05EC1F0E00A
:1056E000E15CFD4FE491EE2EF12CAEE4CA2EAEE06B
:1056F000DA2E80913402882361F0109234020E94E5
:10570000E206909332028093310210923602109298
:1057100035020E94E206E0913102F09132028E1BC6
:105720009F0B8F3F9F4750F4EE0EFF1EF092320208
:10573000E092310281E392E0F601099586E0E5E22C
:10574000F2E0D80101900D928A95E1F7C09027020E
:10575000D0902802E0902902F0902A0210922702AD
:10576000109228021092290210922A028C2D8D2963
:1057700091F080912302909124020E94C706AC010F
:1057800090911F02992309F411C18091140184178B
:10579000150608F419C18E2D8F2991F080912102F0
:1057A000909122020E94C706AC0190911E0299239B
:1057B00009F449C1809110018417150608F451C1FC
:1057C0008091270290912802892B90912902892BA0
:1057D00090912A02892B11F00E948A0886E0F80134
:1057E000A5E2B2E001900D928A95E1F70E9434079C
:1057F00090910F02891380930F0280914D038430A2
:1058000009F0ABCE83E08093E9008091E80082FF4D
:10581000A4CE8091E80090E085FF0AC00E94300588
:1058200070E2C72ED12C7801882309F463C191E07E
:105830008091E8008B778093E800992309F48DCE5E
:10584000E090C802F090C9028981E114F10409F4E2
:105850005FC18E3F09F0EEC18A81833020F0855010
:10586000833008F0E7C1EA81EE3008F0E3C1F0E0F0
:10587000E45AFD4C0C94A43180914D03843009F41A
:1058800040C0109238028091FD01811116C0D09263
:10589000FD0180914F03982F91709093FC018E7FB2
:1058A00080934F03FFEF20E732E0F150204030407B
:1058B000E1F700C000000E94040E10922F0388E15F
:1058C00090E0A0E40FB6F894A895809360000FBE16
:1058D000A093600083B7817F846083BF83B78160BA
:1058E00083BF7894889583B78E7F83BF0FB6F89473
:1058F000A89580916000886180936000109260009C
:105900000FBE80914303882371F00E941E13E4E1CF
:10591000F2E081919191892B09F098C42EE132E057
:105920002E173F07B1F780914D03853009F4A4CFBE
:105930000E941B150E9434071092FD018091FC010A
:10594000882349F080914F03816080934F0360E08A
:1059500086950E9448120E9473110ACE6F5FCC0C8C
:10596000DD1C6D3009F01ECE3FEFE31AF30A45E06F
:10597000E416F10409F007CE8FEF88AB89AB1AAAC1
:105980000E94E2068160782F9CAB8BAB48A959A995
:105990006AA98CA90E9417272CCEE0EDEE2EE7E035
:1059A000FE2EF4EECF2EF7E0DF2EA3CE20911501D0
:1059B000FAE02F9F900111242417350708F0EBCE51
:1059C0009F5F90931F0202C09F3FD1F7CC2059F0F8
:1059D0000E946D099FEF1C140CF491E0899F802DAB
:1059E000112480932702DD2059F00E946D099FEF5A
:1059F0001D140CF491E0899F802D112480932802BE
:105A000030912702332309F4C6CE209128022223A5
:105A100009F4C1CE45EB3403C0011124992359F098
:105A20009093270245EB240390011124332339F08E
:105A300030932802B0CE81E080932702F3CF81E03B
:105A400080932802A8CE209111018AE0289F90011E
:105A500011242417350708F0B3CE9F5F90931E02E0
:105A600002C09F3FD1F7EE2059F00E9434099FEF0A
:105A70001E140CF491E0899F802D1124809329023B
:105A8000FF2059F00E9434099FEF1F140CF491E09D
:105A9000899F802D112480932A023091290233237B
:105AA00009F48ECE20912A02222309F489CE45EBF7
:105AB0003403C0011124992359F09093290245EB36
:105AC000240390011124332339F030932A0278CE35
:105AD00081E080932902F3CF81E080932A0270CE87
