:100000000C94DD040C9424050C9424050C94240514
:100010000C9424050C9424050C9424050C942405BC
:100020000C9424050C9424050C948B2F0C94C72E4F
:100030000C94F5310C9424050C9424050C9424059F
:100040000C9424050C9424050C9424050C9424058C
:100050000C9424050C94A8310C9424050C942405CC
:100060000C9424050C9424050C9424050C9424056C
:100070000C9424050C9424050C9424050C9424055C
:100080000C9424050C9424050C9424050C9424054C
:100090000C9424050C9424050C9424050C9424053C
:1000A0000C9424050C9424050C942405C50BDD0B3D
:1000B000E40B1C0C2D0C380C490C5C0CA30CA80C8C
:1000C000D00CE20CF80CFB0C8B138B13C313C31373
:1000D0004F146B14431643167814551564156415A4
:1000E00071277127832783277A27832783278327ED
:1000F000712771277F27832783277F27CF2CF62C13
:10010000A92EF62CA92E422D652DA92E662E762E0F
:100110001E0F0500047F3F1F643214643214783CC4
:100120001E1E140A0501000100DA0100000200028F
:1001300000D601000003000100DB01000004000202
:1001400000C001262005000100DC010000060002BD
:1001500000C201000007000200D8010000080001F1
:1001600000DD01000009000200C40101200A0002B4
:1001700000C60101200B000200C80101200C000292
:1001800000CA0101200D000200CC0101200E000276
:1001900000CE0101200F000200D00101201000025A
:1001A00000D201012011000200D40101201200023E
:1001B00000DE01000013000200E0010000FD377ABC
:1001C000585A000004E6D6B4460200210116000089
:1001D00000742FE5A3E003FC01605D003D8889C643
:1001E0005436C3174FE4DCC669CCF10FCE94230E0E
:1001F000F3585F33912EC6FE16D94F5894BB287919
:100200008AA88FD55302A8343AA538BADC994C8015
:100210009699C82127D69BE7167FD6326CE2C93261
:10022000427664C73B5BA1B3452375C45F7746EE56
:1002300009D9258A90A909FBAE132FC99D1E7415F3
:100240008BDD5B6BC0D106F1BE79DD4E15538DB6EB
:1002500029CBB09A8E29F3E81A14B167D35638A384
:100260000492A424AC97445E39D2A1021D35965B5A
:10027000B003CE08A014D04DA9C7780FDAA819F59D
:10028000840032DD5C7959F2B86D31DA2614CA3F48
:10029000D561921DE415936BE429DBB37BD008DDB7
:1002A000CCB887706279377B6A5A4D0AE90BD55C06
:1002B000E11D71A0A6D7511A8E4813A60BBAD03DE6
:1002C000621F1019AB1F9C2046AA4C59CA95B5BA9B
:1002D00011DBD9486AF1742052C33F7E43AA5810FB
:1002E000E469FC2EF29B6710024B0FEFC724F8293C
:1002F000EB5206B3AF288559B73F48312F93BD0C59
:10030000CF21CE91F810183865054C2A085956BAF5
:10031000F412E61D262025B2ED44A6D29111E9265D
:1003200071B9AA661EEA61F5210439B3E19861AD9D
:10033000A35C45CB217736E882CBD615000D475E0E
:100340009CE90A7DF80001FC02FD0700002086867A
:10035000AAB1C467FB020000000004595A00000063
:10036000000000000000000000000000000000008D
:10037000000000000000000000000000000000007D
:10038000007E0F00D4FFFFFFC700000078000000D0
:1003900000000000002A2B280000000000000000E0
:1003A000000000000000000029000000002C1E34A6
:1003B00020212224342627252E362D3738271E1FAC
:1003C000202122232425263333362E37381F0405D7
:1003D000060708090A0B0C0D0E0F10111213141545
:1003E000161718191A1B1C1D2F3130232D35040523
:1003F000060708090A0B0C0D0E0F10111213141525
:10040000161718191A1B1C1D2F3130354C0001010D
:1004100001010101010101020202020202020202C3
:100420000303030303030303040404040404040593
:100430000505050506060606060707070707080857
:100440000808090909090A0A0A0B0B0B0C0C0C0D08
:100450000D0D0E0E0E0F0F0F1010111111121213A1
:10046000131414151516161717181819191A1A1B1C
:100470001B1C1D1D1E1E1F2020212222232424257B
:100480002626272829292A2B2C2D2D2E2F303132B4
:1004900032333435363738393A3B3C3D3E3F4041C4
:1004A00042434445464748494A4C4D4E4F505153AC
:1004B00054555658595A5B5D5E5F61626465666863
:1004C000696B6C6D6F7072737577787A7B7D7E80E7
:1004D00082838587888A8C8E8F91939596989A9C33
:1004E0009EA0A2A3A5A7A9ABADAFB1B3B5B7BABC47
:1004F000BEC0C2C4C6C9CBCDCFD1D4D6D8DBDDDF18
:10050000E2E4E7E9EBEEF0F3F5F8FAFDFFFFAA7F8E
:1005100055402223252628292A2C2D2F30323335E9
:1005200036383A3B3D3E4042434547494A4C4E509F
:1005300051535557595A5C5E6062646668696B6DC9
:100540006F71737577797B7D7F81838587898A8CCD
:100550008E90929496989A9C9E9FA1A3A5A7A8AAD4
:10056000ACAEAFB1B3B4B6B8B9BBBCBEBFC1C2C309
:10057000C5C6C7C9CACBCCCDCED0D1D2D2D3D4D5A3
:10058000D6D7D7D8D9D9DADADBDBDBDCDCDCDCDCCC
:10059000DDDDDDDDDCDCDCDCDCDBDBDBDADAD9D9A4
:1005A000D8D7D7D6D5D4D3D2D2D1D0CECDCCCBCA32
:1005B000C9C7C6C5C3C2C1BFBEBCBBB9B8B6B4B358
:1005C000B1AFAEACAAA8A7A5A3A19F9E9C9A9896EE
:1005D0009492908E8C8A89878583817F7D7B7977C1
:1005E0007573716F6D6B6968666462605E5C5A59A1
:1005F00057555351504E4C4A4947454342403E3D62
:100600003B3A3836353332302F2D2C2A29282625EF
:100610002322A900AA00010001000100010001003D
:1006200001002B0014001A000800150017001C0020
:1006300018000C00120013004C002A00C25C296153
:1006400004001600070009000A000B000D000E0050
:100650000F003300340000000000D75C1D001B00B9
:1006600006001900050011001000360037003800A0
:10067000D85C52000000E0000000E300E2002841E6
:1006800028412C422C420351000000005000510030
:100690004F0035021E021F02200221022202230205
:1006A00024022502260227020100010001000100A8
:1006B00001003D013D04010001002D002E002F022C
:1006C000300231023500010000000100010001008C
:1006D0000100010001002D022E022F003000310028
:1006E00035020100000001000100010001000100CD
:1006F00001000100010001000100010001000100F2
:10070000010035001E001F002000210022002300F0
:10071000240025002600270001000100010001003F
:1007200001000100010001000100500051005200D1
:100730004F004B004A0001000000010001000100D1
:100740000100010001000100500051004F004E0067
:100750004D00010000000100010001000100010046
:100760000100010001000100010001000100010081
:100770000100C25CCD5CCE5CCF5CD05CD15CD25C55
:10078000D35CD45C29020100010001000100C35CBC
:10079000C95CC55CC75C01000100010001000100EB
:1007A00001000100010001000000C45CCA5CC65CDD
:1007B000C85C01000100010001000100010001000E
:1007C000010001000000005C0100010001000100C7
:1007D0000100010001000100010001000100010011
:1007E000010005010902A10185020901A100050915
:1007F000190129051500250195057501810295014D
:10080000750381010501093009311581257F9502A4
:100810007508810609381581257F950175088106BF
:10082000050C0A38021581257F950175088106C0DF
:10083000C005010980A101850319012AB70015012E
:1008400026B700950175108100C0050C0901A101B2
:10085000850419012AA002150126A0029501751030
:100860008100C005010906A1018505050719E029D8
:10087000E715002501950875018102050719002972
:10088000EF1500250195F075018102050819012970
:1008900005950575019102950175039101C00660EA
:1008A000FF0961A1010962150026FF009520750866
:1008B00081020963150026FF00952075089102C08A
:1008C00005010906A101050719E029E71500250121
:1008D00095087501810295017508810105071900C8
:1008E00029FF150026FF00950675088100050819E7
:1008F000012905950575019102950175039101C0C6
:1009000009025B00030100A0FA09040000010301D1
:10091000010009211101000122400007058103089F
:10092000000A09040100020300000009211101006E
:10093000012222000705820320000107050303208E
:100940000001090402000103000000092111010057
:100950000122BC000705840320000A1201100100D7
:10096000000008425761630100010203011C037685
:1009700000690061006C003A0066003600340063D4
:1009800000320062003300630000000C034300618A
:10099000006A0061006C0000001A03570061006CDF
:1009A000006C00650074006200750072006E0065E6
:1009B0000072000000040309040011241FBECFEFE1
:1009C000DAE0DEBFCDBF04B603FE27C08091C903C5
:1009D0009091CA03A091CB03B091CC038730904B88
:1009E000A740B04BD1F41092C9031092CA031092E1
:1009F000CB031092CC0314BE84B7877F84BF0FB69D
:100A0000F894A895809160008861809360001092AE
:100A100060000FBEE0E0F8E3099511E0A0E0B1E06E
:100A2000ECEDFEE602C005900D92AE3BB107D9F7A2
:100A300023E0AEEBB1E001C01D92A93CB207E1F7A3
:100A40000E9426050C946C370C940000CF93DF9322
:100A5000CDB7DEB7E6970FB6F894DEBF0FBECDBFB9
:100A600084B7877F84BF0FB6F894A8958091600003
:100A7000886180936000109260000FBE90E080E873
:100A80000FB6F89480936100909361000FBE85B714
:100A9000806885BF85B7806885BF88EE90E39093B6
:100AA000BF018093BE01E2EEF1E080E090E091832F
:100AB00080830196359688309105C9F70E946E2390
:100AC0000E940B2F0E942A2F8091E2008460809365
:100AD000E2007894809137038823A1F01091E90017
:100AE0001F709091EC00892F817090FD80E8182B89
:100AF0001092E9008091E80083FD0E94E92B1F70AD
:100B00001093E90082E084BD93E095BD9AEF97BD14
:100B100080936E0084E90E94FE1B85E90E94FE1B03
:100B200087E60E94FE1B86E60E94FE1B05E311E09D
:100B3000E3E4EE2EE1E0FE2EF80181918F010E94A8
:100B4000FE1BE016F106C1F710920D0210920C0286
:100B5000109243021092420210920F0210920E0263
:100B6000109245021092440210921102109210024B
:100B70001092470210924602109213021092120233
:100B8000109249021092480280E090E00E944C3698
:100B90008A3E9E4F11F00E948C3282E090E00E94CB
:100BA0003E3680932E020E947B3290930B028093FC
:100BB0000A020E94151C8FE39CE90197F1F700C01F
:100BC00000000E94151C8091420280FF17C06FEF49
:100BD00083E290E00E9452366FEF84E290E00E9440
:100BE00052366FEF85E290E00E9452366FEF7FEF52
:100BF00080E090E00E9470360E94843183E090E0B3
:100C00000E943E36682F70E080E090E00E94D4346D
:100C1000609138037091390380913A0390913B03BE
:100C20000E949C1F259A2D98269A2E98279A2F98D5
:100C300083E290E00E943E36833081F484E290E0CB
:100C40000E943E368D3A51F485E290E00E943E3695
:100C500091E0853F09F090E0892F01C080E080FF9E
:100C60005FC780911402811136C080E090E00E943D
:100C70004C368A3E9E4F21F00E948C320E94B31760
:100C800088E090E00E94463660933D0270933E02F9
:100C900080933F02909340026E7F71F40E94B317DD
:100CA00088E090E00E94463660933D0270933E02D9
:100CB00080933F02909340020E946C1710923C0276
:100CC00080913D0280FF04C060E086950E940A1A70
:100CD00081E08093140256985E9A57985F9A89B182
:100CE00086FB882780F929B130E0220F232F221FAD
:100CF000330B232B11F092E001C090E0892B8093FD
:100D0000200288E091E090931602809315028E01F4
:100D10000F5F1F4F4E01F1E28F0E911C8091370340
:100D2000853009F048C050E1E52E62E1F62E809151
:100D30003703853009F03BC080913703843021F1BF
:100D40001092170228E130E040E40FB6F894A8951D
:100D5000209360000FBE4093600083B7817F846062
:100D600083BF83B7816083BF7894889583B78E7F74
:100D700083BF0FB6F894A895809160008861809336
:100D80006000109260000FBE80912D03882309F44B
:100D9000CECF0E94151CE2E4F2E081919191892B63
:100DA00009F072C682E0EA34F807B9F7C0CF0E94B2
:100DB000A9270E9458220E94151C81110E94DD3132
:100DC000A2E4B2E0EFE2F2E0E12CF12C7E2D2D91D5
:100DD0003D918191919182279327009779F160E06D
:100DE000CC24C394D12CAC014C215D21452B09F1BD
:100DF0006BA77CA72C213D2181E0232B09F480E007
:100E00008DA70E94E9318160782F9FA78EA74BA5FF
:100E10005CA56DA58FA50E94A425F701EE0FFF1F0D
:100E2000E15DFD4F80819181C826D926D182C082A3
:100E30001CC06F5FCC0CDD1C6E30A9F69FEFE91A69
:100E4000F90A24E0E216F10409F68FEF88AB89ABCA
:100E50001AAA0E94E9318160782F9CAB8BAB48A91C
:100E600059A96AA98CA90E94A42580913C028823D3
:100E700009F4AAC080913B02E0913D02E695E81B8F
:100E8000E0931A02823059F4F0E0EF5DFE4FE491F6
:100E9000EE2EF12C62E8C62E68E1D62E70C08630A8
:100EA00059F4F0E0E25EFE4FE491EE2EF12C52E7B1
:100EB000C52E58E1D52E63C0893061F4E695F0E087
:100EC000E55EFE4FE491EE2EF12C43E0C42E49E1A5
:100ED000D42E55C08F3061F4E695F0E0E85EFE4F09
:100EE000E491EE2EF12C36E9C32E38E1D32E47C023
:100EF000853159F4F0E0EB5EFE4FE491EE2EF12CDB
:100F000023E9C22E21E2D22E3AC08831F9F0833291
:100F100049F4E3E1F1E0E590F49091EEC92E91E21D
:100F2000D92E2DC08432D1F0853209F58E2F63E0A1
:100F30000E94F136E92FF0E0E05FFE4FE491EE2EE3
:100F4000F12C8FE2C82E80E2D82E19C0A8E2EA2E3A
:100F5000F12CBAE0CB2EB1E2DB2E11C0E4EFEE2E85
:100F6000FF24F394F0EDCF2EF0E2DF2E08C060ED09
:100F7000E62E67E0F62E74EBC72E76E1D72E809131
:100F80001B02882361F010921B020E94E9319093AA
:100F900019028093180210921D0210921C020E94E6
:100FA000E931E0911802F09119028E1B9F0B8F3FDF
:100FB0009F4750F4EE0EFF1EF0921902E0921802C5
:100FC00088E192E0F601099580912002E82FEE0F6A
:100FD000EE0FE093200289B186FB882780F98DAB64
:100FE0001EAA99B1892F90E0880F892F881F990B2D
:100FF000009711F082E090E02DA93EA9822B932B5F
:101000008E2B809320028F70E82FF0E0ED5BFE4F77
:10101000908180911F02890F80931F0284305CF0C1
:1010200080911E028F5F80931E0260E080E00E942C
:10103000E12621E001C020E080911F028D3F54F4A1
:1010400080911E02815080931E0261E080E00E9428
:10105000E12621E080911F02082E000C990B64E02C
:1010600070E00E941F3780931F0221110E94DD3122
:1010700086E0E7E2F2E0D80101900D928A95E1F76F
:10108000C0902902D0902A02E0902B02F0902C020E
:101090001092290210922A0210922B0210922C0216
:1010A000C11003C0DD2009F45DC08091250290913C
:1010B00026020E94CE31AC0190912402992339F08E
:1010C0002091070130E02417350758F04BC02091DC
:1010D00006018AE0289F900111242417350718F093
:1010E00041C09F3F19F09F5F90932402CC2061F094
:1010F0000E94471B1C1414F491E001C09FEF899FCC
:10110000802D112480932902DD2061F00E94471B6D
:101110001D1414F491E001C09FEF899F802D1124CC
:1011200080932A02309129023323E1F020912A0290
:101130002223C1F045EB3403C0011124992319F097
:101140009093290203C081E08093290235EB2303A9
:10115000C0011124992319F090932A0203C081E061
:1011600080932A02E11003C0FF2009F45DC0809142
:101170002202909123020E94CE31AC019091210273
:10118000992339F02091050130E02417350758F0F4
:101190004BC0209104018AE0289F9001112424175C
:1011A000350718F041C09F3F19F09F5F90932102CF
:1011B000EE2061F00E940E1B1E1414F491E001C099
:1011C0009FEF899F802D112480932B02FF2061F0D7
:1011D0000E940E1B1F1414F491E001C09FEF899F21
:1011E000802D112480932C0230912B023323E1F0C7
:1011F00020912C022223C1F045EB3403C0011124BD
:10120000992319F090932B0203C081E080932B0265
:1012100035EB2303C0011124992319F090932C027C
:1012200003C081E080932C028091290281110BC0C0
:1012300080912A02811107C080912B02811103C085
:1012400080912C0281110E945F1ACB82DC82ED8298
:10125000FE8286E0F801A7E2B2E001900D928A9545
:10126000E1F70E94582290912D02891721F00E94E7
:10127000582280932D0280913703843009F04ECD9F
:1012800083E08093E9008091E80082FF47CD809160
:10129000E80085FF21C00E94603081111BC040E240
:1012A000E42EF12C680109C08091F100F6018193D0
:1012B0006F01F1E0EF1AF10869F08091E80085FD17
:1012C000F3CF8091E8008B778093E8000E94603034
:1012D000882399F391E001C090E08091E8008B773A
:1012E0008093E800992309F419CDE0904C02F09026
:1012F0004D028981E114F10461F08E3F09F0C0C311
:101300008A81833008F435C28550833008F0B8C331
:1013100030C28B3009F417C288F5853009F489C0D2
:10132000B8F4823009F446C030F4813009F0A6C325
:101330001A8289E006C3833009F46CC0843009F056
:101340009DC34C816B818A810E9442259D83E6C3A7
:10135000873009F47CC008F477C0883009F4B9C03C
:10136000893009F08BC360913D0270913E028091FB
:101370003F02909140020E947F1782C3803109F49E
:1013800026C160F48D3009F4C6C008F4C2C08E30A6
:1013900009F4C5C08F3009F4ECC070C3823109F480
:1013A0001BC108F417C1833109F43FC18E3F09F412
:1013B000E0C164C38A81823009F4A9C3833051F04B
:1013C000813009F05BC30E94DD319B838C837D8378
:1013D0006E8356C380914A0290914B02892B09F487
:1013E0004FC380914202909143029B838C838091F2
:1013F0004402909145029D838E8380914602909194
:1014000047029F838887809148029091490299877B
:101410008A8736C38A81823009F030C36B817C8130
:101420008D819E810E94393786E290E00E9452367B
:1014300027C32D813E813227232732274C816B81A0
:101440008A810E9474241CC30E94AA2419C38A8121
:101450008138B1F050F4803809F012C320E04B819C
:1014600060913F0280913E0231C0823859F1833849
:1014700009F006C320E0409140026C818B8126C0B8
:1014800060E08B810E940A1A9B8180913D0291113C
:1014900011C08E7F80933D0210923C022FEF30E707
:1014A00042E0215030404040E1F700C000000E947F
:1014B0002517E6C2816080933D0260E086950E9418
:1014C0000A1ADEC28B8180934102DAC20E942D1972
:1014D000D7C28A81813891F030F4803809F0D0C2C7
:1014E000809140022EC2823889F0833809F0C8C248
:1014F00080913E028B8380913F02ADC180913D027D
:1015000080FF02C086951DC280E01BC2809141020F
:1015100018C280E17DC281E08A8387E912C2EA8035
:10152000FB80FE24EF24FE24AC80B12C8DE1A816B4
:10153000B10408F0A5C26801C70187599D4F960103
:10154000201B310B2A153B0508F09AC2E7E9EE167D
:10155000E1E0FE0628F40E943E36F601848302C0D4
:10156000F6011482FFEFEF1AFF0A2FEFC21AD20A18
:10157000E3CF80914A0290914B02892B09F480C2FB
:10158000EA80FB80FE24EF24FE24CC80D12C3DE1B8
:10159000C316D10408F074C25801C70187599D4F82
:1015A0009501201B310B2C153D0508F069C247E958
:1015B000E41641E0F40620F4F50164810E945236FD
:1015C000FFEFEF1AFF0A2FEFA21AB20AE6CF0E942E
:1015D000F32356C284E01CC2EA80FB80FE24EF2481
:1015E000FE24AC80B12C3DE1A316B10408F048C242
:1015F0006801C70187969601201B310B2A153B0510
:1016000008F03EC240ECE41641E0F40628F40E94E3
:101610003E36F601848302C0F6011482FFEFEF1A12
:10162000FF0A2FEFC21AD20AE4CFEA80FB80FE2421
:10163000EF24FE24AC80B12C3DE1A316B10408F0E8
:101640001FC240ECE41641E0F40608F019C280EC39
:1016500091E08E199F098A159B0508F411C2270194
:1016600087E2480E511C80914A0290914B02892BCF
:1016700011F068015FC0E0FE0FC0C70186960E94AE
:101680003E3690E0982F88272D81822B81159C452E
:1016900031F48FEF8D8303C0C12CD12C03C0CC2437
:1016A000C394D12CC7018A0D9B1D350180FF1BC03F
:1016B000F1E06F1A7108B5E02B2E312C2C0E3D1E77
:1016C000260C371CC2018A0D9B1D0E943E36F1017B
:1016D000208130E0322F2227282B21153C4519F498
:1016E0008FEFF1018083F801EC0DFD1D2FEFCF018D
:1016F000801B910B8615970508F0BBCF848190E085
:10170000982F88273581832B81159C4511F42483DC
:1017100025833296ECCF40ECE41641E0F40620F449
:10172000F60164810E945236FFEFEF1AFF0A2FEF95
:10173000C21AD20AC70187969601201B310B2A15BF
:101740003B0548F39DC180914A0290914B02892B41
:1017500009F496C1C8010E94BF303FEF41EE84E01A
:10176000315040408040E1F700C000000E948431C9
:1017700087C1EA818E2F90E08E30910508F080C1FC
:10178000FC01EA5AFF4F0C94333788E0E9E2F1E0BC
:10179000D40101900D928A95E1F780E2F80111924F
:1017A0008A95E9F784E0898388E0F401DE011596E3
:1017B00001900D928A95E1F763C180EA898381E007
:1017C0008A831B821C825CC18C8190E0982F8827C1
:1017D0002B81820F911D092E000CAA0BBB0B75E00B
:1017E000880F991FAA1FBB1F7A95D1F7AC01BD01C5
:1017F000405E5F4F6F4F7F4F481759076A077B075F
:1018000008F43EC1803AF1E09F07A105B10508F058
:1018100037C1413A21E052076105710520F040EAE5
:1018200051E060E070E0481B590BBC0163547E4FEF
:10183000C8010E94253624C1FB80EC8040E06E2D5B
:101840008F2D0E944A2499838A8341E06E2D8F2D2B
:101850000E944A249B838C8313C12E813F813227AF
:10186000232732274D816C818B810E94182408C167
:1018700040E250E06FEF70E0C8010E946537809150
:101880004A028983EA821B821C8283E08D838DE079
:1018900045C181E090E090934D0280934C0282E339
:1018A00090E090933A02809339020E94E93190933C
:1018B000380280933702E4C0EF28D9F180914802C2
:1018C00090914902892F992782958695877020915A
:1018D00042022170F22EF822809137029091380254
:1018E0000E94CE3185369105F0F0FF20E1F00E9494
:1018F000E9319093380280933702809139029091B8
:101900003A02019790933A0280933902892B89F425
:1019100010924D0210924C0281E090E090934B02A5
:1019200080934A0206C082E390E090933A0280934B
:10193000390280914A02898380914C028A83809186
:1019400039028B839DC010924B0210924A0298C0BC
:10195000EB80FC8040E250E06FEF70E0C8010E9435
:10196000653725E231E0ADEBB1E080E090E0AC011D
:101970004E5F5F4F4132510508F082C0F901659119
:101980007491E616F70630F4F801E80FF91F718339
:101990006083CA01285F3F4FA217B30741F770C0A9
:1019A0004B815C812DEB31E085E291E0FC0165919A
:1019B00074914617570709F47DC008962817390710
:1019C000A9F75CC02B813C818DEB91E045E2E42ED0
:1019D00041E0F42EF701459154912417350709F49D
:1019E00045C048E0E40EF11C8E159F0599F746C0EE
:1019F0000E94B22345C08B81833061F08430F1F0C6
:101A000081113EC080E2F80111928A95E9F788E0E1
:101A10008A8336C08C819AE0F92EF4012F2D119221
:101A20002A95E9F7B4010E9403248983F401DE01B9
:101A3000129601900D92FA94E1F722C06C818AE02F
:101A4000FE013596D40101900D928A95E1F7683038
:101A5000A8F43AE0639FB0011124675E7D4F4AE02D
:101A600050E0C4010E94763680E009C0C7010296AA
:101A7000FC01259134912D31310588F18FEF898357
:101A8000C8010E94BF304AC9E9BCF9BC09B400FED4
:101A9000FDCF8091D8008F7D8093D8008091E000A9
:101AA00082608093E0008091E00081FDFCCF0E9485
:101AB000A9273DC99C012E5F3F4FF90145915491E3
:101AC00040325105D8F6F90145915491FC01349604
:101AD00065917491CE0102960E945C37C5CFFC01DE
:101AE00045915491F701349685919491BE016B5FB5
:101AF0007F4F0E945C370E949523F70136968591AF
:101B00009491009709F4B0CFFC010995ADCF86E21E
:101B100090E00E943E361B821C821D828E83B0CFD5
:101B200060E086E290E00E9452360E94AA240E9461
:101B3000F32363E083E290E00E9452366DEA84E290
:101B400090E00E94523665EF85E290E00E945236A6
:101B500088C82F923F924F925F926F927F928F929E
:101B60009F92AF92BF92CF92DF92EF92FF920F932C
:101B70001F93CF93DF93CDB7DEB764970FB6F8947A
:101B8000DEBF0FBECDBF7C01FC014381548161816A
:101B900080810E94FE3481110C949B1621E0F70194
:101BA000408151816281738184810E94471F8C0131
:101BB000F7018281882309F482C0980122513F45B0
:101BC0002031310508F097C08FEF93E00E943E3638
:101BD000811180C09EEED92ED00E09E612E0DD20E4
:101BE00071F00115F4E01F0709F474C0C8010E94E8
:101BF0003E36811101C0DA940F5F1F4FF0CF19827A
:101C00001A821B821C82AA24AA9468012FEFC21A8E
:101C1000D20AC8010E943E3689831A82882309F4B9
:101C200059C0813009F046C0480142E0840E911C41
:101C3000C6010E943E368A83882309F44BC09FEF79
:101C4000980F933060F4680153E0C50ED11CC401B5
:101C50000E943E368B8381112DC08601D6CF843001
:101C600011F06401FACFC4010E943E36B82E68011B
:101C700084E0C80ED11CC80103960E943E36BB20EA
:101C800049F1882339F1282F30E021503109A29EF3
:101C9000A001A39E500D11248B2D90E00197840F7D
:101CA000951F0197D0F2EFE9FFE03197F1F700C0FF
:101CB0000000F7CFCE0101960E94941ECECF0031D6
:101CC0004FE5140711F00C94921681E00E945B34EA
:101CD0000E94CB2B8091BA03877011F40C949B1651
:101CE000F7018281882311F40C949B1682E00E94F4
:101CF00080340C949B160031FFE51F0711F481E03E
:101D000005C001312FE5120721F482E00E949D34C5
:101D1000DFCF073FFCE51F0731F48823F9F081E0AE
:101D2000809312012EC1083F2CE5120761F488232D
:101D3000A9F01092120110925E0210925D0281E0F1
:101D40000E94D7221EC1093F4CE5140739F48823AD
:101D500029F080911201882311F3EBCF40901201FA
:101D6000442009F40EC11092610210926002612CAD
:101D7000B5E05B2E88248394912C33243394A09077
:101D80006002B090610258E0A516B10408F0C6C028
:101D90005A9CF0015B9CF00D1124EE51FE4FBE01E8
:101DA000655F7F4F80810E940324892B11F0712C85
:101DB000AAC0FE013B9680E090E022242A94282FBE
:101DC000419151914115510551F00417150709F43E
:101DD000282E01968430910591F724E002C08230CC
:101DE00030F35FEF251619F3F7017280772009F4BD
:101DF0003FC05A9CC0015B9C900D1124AC014E5118
:101E00005E4F6A01C40101C0880F2A94EAF7FA0103
:101E10009481892B8483A40102C0440F551F2A9505
:101E2000E2F79A012150310990E08F77281739079E
:101E300009F068C080E00E94D722F60184818068A2
:101E4000848382819381009719F00E94861F0DC0C0
:101E5000BE016F5F7F4F809160020E940324892B37
:101E600021F489859A850E94B02630925F024BC08A
:101E7000A40102C0440F551F2A95E2F79A01215090
:101E800031095A9CF0015B9CF00D1124EE51FE4F7C
:101E9000848190E08F7728173907A1F4828193819C
:101EA000009719F00E94701F0DC0BE016F5F7F4F39
:101EB000809160020E940324892B21F489859A85F0
:101EC0000E9480265A9CF0015B9CF00D1124EE517B
:101ED000FE4F9481292F30E0022C02C035952795C2
:101EE0000A94E2F720FF63CF940101C0220F2A94E5
:101EF000EAF7822F80958923848387FF58CF803823
:101F000009F41482742C6728809160029091610218
:101F10000196909361028093600231CF80915F02BD
:101F2000882359F00E94E93190935E0280935D020C
:101F300010925F026110CECE24C0611006C081E015
:101F40000E94D7220E94C5221CC0F70182818823EB
:101F500009F4C0CE0E94E93190935E0280935D0245
:101F6000E0915C02E73008F0B5CE81E08E0F8093FF
:101F70005C02F0E0EE0FFF1FE25BFD4F1183008378
:101F8000A9CE8091DB0180FF65C00E94E9316C0120
:101F9000F7018281882379F18091130182FF06C0C5
:101FA00040E0B60180E090E00E94642282E00E945E
:101FB00002330B31FCE51F0779F00C312CE51207D9
:101FC00089F00A314CE51407B1F480911301982F80
:101FD000909590FB80F909C08091130181608093F6
:101FE00013017FC0809113018E7F8093130182E0E3
:101FF0000E94023376C00832110538F40E31110503
:10200000B8F40430110578F425C00933110538F40B
:102010000D32110590F40B32110579F01BC0043616
:10202000110559F017C08091DB0184FD13C009C070
:102030008091DB0183FD0EC004C08091DB0182FD35
:1020400009C0F7018281882309F4B3C1809113018B
:1020500080FD74C1033FFCE51F0741F190F4083D8A
:102060004CE51407E9F0093D5CE5150789F1073DEA
:102070008CE51807B1F506E221EE41EE67ED7CE54F
:102080002CC0053F9CE51907E9F0B0F0063FFCE5E0
:102090001F0739F507E225EE46EE66EF7CE51DC029
:1020A00007E225EE45EE68ED7CE517C006E221EE7D
:1020B00040EE63EF7CE511C007E225EE44EE64EFED
:1020C0007CE50BC006E221EE42EE65EF7CE505C043
:1020D00008E221E045EE69ED7CE5C7010E94F722A8
:1020E000F9CDF7012281222309F469C11092660219
:1020F0000230FCE51F0708F462C106314CE5140705
:1021000030F0C8018A5F9C45099708F058C10E94C9
:102110007B3290930B0280930A0200315CE5150735
:1021200009F4C3C008F041C008309CE5190709F460
:102130009AC0F0F40430FCE51F0709F487C068F486
:1021400002304CE5140709F477C003301C4509F050
:10215000E5C080910A02826076C006308CE51807DF
:1021600009F46EC008F07BC080910A0288606BC0E1
:102170000C30ECE51E0709F485C068F40A302CE544
:10218000120709F474C008F079C00E94A927809151
:102190000A02806858C00E305CE5150709F476C065
:1021A00008F07FC080910A028BC00B3F9CE51907A5
:1021B00009F44FC018F50331FCE51F0709F47DC091
:1021C00078F401314CE5140709F473C002311C4561
:1021D00009F0A4C00E94A92780910A028F7733C01A
:1021E00005318CE5180709F472C008F486C00A3F6F
:1021F0001C4509F093C080910B023EC00F3FFCE5E7
:102200001F0709F45FC058F40D3F4CE5140709F4AB
:1022100044C008F43FC080910B0282602DC00130A1
:102220008DE5180709F475C008F45DC002301D453E
:1022300009F074C060E06EC080910A02816003C042
:1022400080910A02806180930A0268C080910A022C
:1022500011C080910B02826080930B025FC080915D
:102260000A028062F0CF80910A028064ECCF8091F4
:102270000A0288608460E7CF8160EECF80910A0215
:102280008E7FE1CF80910A028D7FDDCF80910A029F
:10229000877FD9CF80910B0218C080910B028D7F70
:1022A000DBCF80910A028F7ECECF80910A028F7D94
:1022B000CACF80910A028F7BC6CF80910A02877FA6
:1022C0008B7FC1CF80910B028D7F8E7FC5CF809198
:1022D0000A0282FB222720F991E0922790FB82F9E3
:1022E00090FB83F9B0CF80910B02982F909591705D
:1022F0008E7F892B90FB81F9AFCF0E94A927809117
:102300000A0287FB222720F991E0922790FB87F9A8
:102310009ACF61E08EE090E00E94523660910A020E
:1023200010910B0284E090E00E945236612F82E20D
:1023300090E00E9452360E94A927CCCC9091DB01FC
:1023400091FD04C02091BC03211184CE95FF20C0D3
:1023500096FD02C081FD1CC020916402309165028F
:10236000F601E21BF30BE83CF10590F420916202C8
:10237000309163020217130759F481FF05C0809161
:10238000BD0382608093BD03802F0E941E28A2CCD3
:102390001093630200936202D0926502C0926402BD
:1023A0008091130184608093130182E00E94803445
:1023B00091CC40E0B601C8010E9464228BCC06316A
:1023C000FCE51F0709F040C08091BC03982F9A7A62
:1023D0003091DA0130FF04C0482F447409F090E0D6
:1023E00031FF04C0482F417109F090E032FF04C072
:1023F000482F487809F090E033FF02C0827261F400
:102400002223A1F081E0911101C080E08093670256
:10241000992331F065E305C0222341F01092670251
:1024200069E28CE393E00E9446320BC08091670220
:10243000882311F065E301C069E28CE393E00E9418
:102440001E320E944B3346CC222309F41EC18091D8
:10245000BC0382720C3CFCE51F0709F4C4C008F001
:1024600045C0063C4CE5140709F4A9C0D8F4033C68
:102470009CE5190709F499C030F4023CFCE51F07FC
:1024800009F46EC0D1C0043C2CE5120709F492C0D7
:10249000053C4CE5140709F0C7C048EF59E161E07D
:1024A0007AE1A5C0093C5CE5150709F492C078F40F
:1024B000073CECE51E0709F487C0083CFCE51F0754
:1024C00009F0B2C04CEE59E160EE79E190C00A3CEF
:1024D0002CE5120709F482C00B3C4CE5140709F007
:1024E000A3C041E957E162EA77E181C0013D5CE5C3
:1024F000150709F488C0A0F40E3C9CE5190709F4FF
:102500007CC008F477C00F3CFCE51F0709F478C0D5
:10251000003D2CE5120709F087C06EE089E081C01C
:10252000043D4CE5140709F474C068F4023D8CE5E1
:10253000180709F46BC0033D9CE5190709F074C046
:1025400061E088E16BC0053DECE51E0709F464C05D
:102550000D35FDE51F0709F067C06AE285E261C03D
:1025600080913D0280FF1BC08E7F80933D02609171
:102570003D0270913E0280913F02909140020E9484
:102580007F1710923C022FEF40E752E0215040406D
:102590005040E1F700C000000E9425179BCB8160EE
:1025A00080933D0261E0869539C04CE45AE165E5CF
:1025B0007AE11DC045E55AE16CE47AE118C041E0DA
:1025C0005AE168EF79E113C040EE59E16CEE79E130
:1025D0000EC048EC59E164ED79E109C044ED59E1E0
:1025E00068EC79E104C042EA57E161E977E10E94D1
:1025F0009E2570CB61E081E011C065E082E011C0F2
:1026000068E086E00EC064E18FE00BC067E185E121
:1026100008C062E289E105C061E083E20E940A1A13
:1026200059CB0E948C2556CB0A358DE5180741F110
:1026300050F40115ECE51E07A9F00E3D1C4529F5E7
:102640000E948C3247CB0B352DE51207D9F00C35A3
:102650001D45D9F480910B0282FB882780F991E017
:10266000892711C00E94A9275FEF84E39CE05150A5
:1026700080409040E1F700C000000E9484312ACBE6
:1026800081E001C080E00E941033F7018281008167
:102690001181882349F0C8010E94A533D82E682FE4
:1026A000C8010E94223404C0C8010E94F233D82E0F
:1026B000B8018D2D0E94051D8C01882EF701B28076
:1026C000C580C2947FE0C7228091BA03877099F0D9
:1026D000BB2089F0812F807F803421F080E2800F41
:1026E000883048F082E00E9480348091BA0387707D
:1026F000AA24A3948111A12C912E92946FE096228A
:10270000892D90E08C30910508F0BDC2FC01EC5998
:10271000FF4F0C943337912F9F70812F807FD92EDC
:1027200019F0D29450EFD522BB20B9F0DD2009F486
:1027300088C280E2800F883010F0811006C080913E
:10274000BC03D82AD092BC0305C08091BD03D82A0F
:10275000D092BD030E944B3374C2802F0E94BE27CB
:10276000DD2009F490C280E2800F883010F08110E3
:1027700004C08D2D0E94093303C08D2D0E940233A9
:102780000E944B3380C2912F9F70812F807FD92E62
:10279000803219F0D29440EFD422882029F0F1E061
:1027A0008F1609F44FC05CC0BB2079F1CC2039F101
:1027B00044244394C41013C080910B0282FD63C271
:1027C0008091C003D82AD81609F45DC20E94E9316D
:1027D0009093BF038093BE03D092C00354C28091F4
:1027E000DC01823060F0C8120AC00E94F73280918A
:1027F000B703D81609F44BC0D092B70348C08091F4
:10280000C0038D290E944B273EC2CC2081F08091CD
:10281000DC0155245394C51010C0823008F433C233
:102820008091BC038D2109F42EC20E949F330E9427
:10283000F7328D2D0E945C2726C28230C0F3C81269
:10284000F6CF21C2BB2031F035E0632E6C1408F4C2
:102850001AC21DC024E0722E7C1408F414C2E9CF01
:10286000BB20B9F0CC2099F020E0F70140815181E4
:102870006281738184810E94471F8091DD0181FD07
:10288000E0C1F701858180FFDCC18F7085838D2DCC
:10289000B9CFCC2071F2F9E38F12E5C1DFC1812FEE
:1028A00086958695837019F0813059F0ECC1BB2074
:1028B00019F0C801937002C080E090E00E944222AB
:1028C000E2C1BB2019F0C801937002C080E090E023
:1028D0000E942C22D8C1802FBB2029F00E94961B79
:1028E0000E945F1A02C00E94891A0E945F1ACBC11F
:1028F000812F837009F06AC0B110C5C1902F9295E5
:1029000096959770990F990F802F8F70482E512CA4
:10291000612C712C092E04C0440C551C661C771CBC
:102920000A94D2F704FF12C04FE050E060E070E07C
:1029300004C0440F551F661F771F9A95D2F7DB011D
:10294000CA0180959095A095B09503C080E090E075
:10295000DC01612F6695669563706230D9F068F589
:102960002091C1033091C2034091C3035091C4032D
:10297000613059F084299529A629B729BC01CD01D8
:1029800062237323842395231EC0422A532A642A78
:10299000752A13C084299529A629B7294090C10317
:1029A0005090C2036090C3037090C403BC01CD017A
:1029B000642575258625972506C0BC01CD016429AF
:1029C0007529862997290E94D4345DC1BB2019F04E
:1029D000812F817001C08695882309F454C1902FFE
:1029E000929596959770990F990F802F8F70482E1A
:1029F000512C612C712C092E04C0440C551C661CF2
:102A0000771C0A94D2F704FF12C04FE050E060E058
:102A100070E004C0440F551F661F771F9A95D2F7C8
:102A2000DB01CA0180959095A095B09503C080E028
:102A300090E0DC01612F6695669563706230D9F095
:102A400068F5209138033091390340913A03509151
:102A50003B03613059F084299529A629B729BC0187
:102A6000CD01622373238423952392C0422A532AE3
:102A7000642A752A13C084299529A629B72940906C
:102A800038035090390360903A0370903B03BC01C7
:102A9000CD0164257525862597257AC0BC01CD0119
:102AA000642975298629972973C0212F2F70D22E6A
:102AB000BB2029F0822F0E949D34802FA3CE802F2F
:102AC0000E945C278D2DDBC0802F42EF841609F415
:102AD00044C0481538F050EF851661F091EF891623
:102AE000B1F1ABC0E3EF8E16F1F1F4EF8F1609F4FC
:102AF00052C0A3C0BB2031F094E0492E4C1408F41E
:102B0000C2C005C085E0582E5C1408F4BCC0212F5B
:102B10002F7181E090E0A0E0B0E0AC01BD0104C005
:102B2000440F551F661F771F2A95D2F780913803EF
:102B300090913903A0913A03B0913B032A013B01E4
:102B4000482659266A267B26C301B20121C0812F5F
:102B50008F71BB2009F493C07AC0812F8F71BB2085
:102B600009F475C08CC0BB2081F0212F2F7181E04A
:102B700090E0A0E0B0E0BC01CD0104C0660F771F7B
:102B8000881F991F2A95D2F703C060E070E0CB013F
:102B90000E944F3478C09091DC019230B8F1BB2094
:102BA000F1F08091B7030E9409338091BA038770D6
:102BB000843039F40E942A33812F8F710E945B3454
:102BC00061C08091DC01C81608F05CC0212F2F7114
:102BD000D22E822F0E949D3463E08D2D10C0209153
:102BE000BC038091B703822B8093BC03C91650F0BD
:102BF0000E942A330E949F3364E0812F8F710E94CC
:102C0000BE3440C081E00E9480343CC0BB2059F0FB
:102C1000412F4F71D42E842F0E949D3463E08D2D5F
:102C20000E94BE3430C081E00E94803451E05C15C7
:102C300050F582E00E94803426C0BB2059F0CC20A1
:102C400021F0802F0E941E281EC0812F8F710E94AC
:102C50009D3419C0CC2089F0893329F48091E0019A
:102C60009091E10104C08091DE019091DF010E940A
:102C70002122802F0E94BE2706C0812F8F710E94C3
:102C80005B3401C0A12C88EF890D843010F40E94C0
:102C90005822C8010E946327811105C01092690261
:102CA000109268021EC0BB2019F0C110F7CF19C0E6
:102CB000C110F4CF20E0F70140815181628173811E
:102CC00084810E94471F8091DD0183FFE7CF8091BF
:102CD000680290916902029709F7802F0E94E2280A
:102CE000DDCFAA20A9F08091BA0380FD11C0F701C1
:102CF00012828595859585950E949D34C7010E9415
:102D0000A90D8091BA038595859585950E945B34C0
:102D100020E0F701408151816281738184810E94AA
:102D2000471F09C001315FE5150711F00C94890EAA
:102D300082E00C94660E64960FB6F894DEBF0FBE68
:102D4000CDBFDF91CF911F910F91FF90EF90DF905A
:102D5000CF90BF90AF909F908F907F906F905F903B
:102D60004F903F902F900895089590910A0292FFFE
:102D70000DC0282F2871283019F4877F846006C081
:102D8000282F2471243011F48B7F886093FF0DC0AD
:102D9000282F2871283119F4877E846106C0282FD6
:102DA0002471243111F48B7E886120910B0220FF65
:102DB0000DC0382F3871383019F4877F816006C014
:102DC000382F3171313011F48E7F886021FF0DC0B2
:102DD000282F2871283119F4877E816106C0282F99
:102DE0002171213111F48E7E886194FD877E0895D2
:102DF0009C013A9521153F4138F5DC01AA27B270B4
:102E0000AC01442754709C012227387094FF0FC0F6
:102E100090FF02C080E101C080E0AB2B09F080622E
:102E2000452B09F08064232B69F080680BC0892F43
:102E30008170AB2B09F08260452B09F08460232B55
:102E400009F08860FB010994089580913D0280FF9C
:102E50000AC0879A81B38F7791B390682FB7F8949F
:102E6000E0E7F2E00BC0E0E7F2E0118210821282AC
:102E7000339632E0E63AF307C1F7EBCF32E0E63AB9
:102E8000F30789F0319148E091BB000000C037FFA3
:102E900081BB330F000000C000C000C081BB00C078
:102EA0004A9591F7EBCF2FBF8FE594E00197F1F7AB
:102EB00000C00000089590913D0290FF0CC0E0E733
:102EC000F2E0818360834283339692E0E63AF90729
:102ED000C1F70C942517089580913D02282F26955F
:102EE00030E02115310519F48170826005C02B3264
:102EF000310524F08170846580933D020895CF925E
:102F0000DF92EF92FF926B017C010E946C17B70178
:102F1000A60188E090E0FF90EF90DF90CF900C94B6
:102F2000643680914102882319F0815080934102D8
:102F300060913D0270913E0280913F02909140026B
:102F40000C947F1780914102833018F48F5F809337
:102F5000410260913D0270913E0280913F0290914A
:102F600040020C947F17EDE3F2E083E0808311824E
:102F70008FEF828383831482608171818281938148
:102F80000C947F17AF92BF92CF92DF92EF92FF9295
:102F90000F931F93CF93DF93E82EF62EE901E42FD2
:102FA000F0E0611106C0E35FFB4FE4914E2F2E2F3E
:102FB00071C0062F10E0E35FFB4F4491F42FC42E45
:102FC000D12C26E0829FC00111242FEF30E0B901FF
:102FD0000E940B375BEA5603C001579F900D1124E6
:102FE0008E0D911D8E0D911D582F550F580FD90123
:102FF000A01BB10BAC9DC001AD9D900DBC9D900D73
:103000001124E92FF59ED0011124AB2FBB277901A4
:10301000EA1AFB0AEC9CD001ED9CB00DFC9CB00DB3
:1030200011245901A51AB108A09E7001A19EF00CAF
:10303000B09EF00C1124EF2CFF242E193F092C9D7B
:1030400080012D9D100D3C9D100D1124212F62300B
:10305000710591F048F461157105E1F06130710579
:10306000B9F4242F4B2F16C06430710569F040F07D
:103070006630710579F00CC0242F492FE12F0AC06A
:10308000492FEF2F2B2F06C0292FE42F412F02C0ED
:10309000292FEB2F49832883EA83DF91CF911F915A
:1030A0000F91FF90EF90DF90CF90BF90AF90089579
:1030B000CF93DF9300D01F92CDB7DEB790913D0242
:1030C00090FF0AC09E012F5F3F4F0E94C2174B81A5
:1030D00069818A810E945B170F900F900F90DF919A
:1030E000CF910895CF93DF93EC01EDE3F2E04381BC
:1030F00062818C810E9458188C818F5F8C83DF9154
:10310000CF910895CF93DF93EC01EC81F0E0EE5E78
:10311000FA4F4491EDE3F2E0628181810E945818F8
:103120008C818F5F8C83DF91CF910895BF92CF9276
:10313000DF92EF92FF920F931F93CF93DF93FC01E7
:10314000828180FF03C0DD24DA9402C0DD24D394A1
:1031500000E712E0C0E0D0E022E1B22EF8011182D7
:103160001082128294E0E92EF12CC12C80916D0224
:103170008C0D83312CF06B2D0E94FD36892F02C0FF
:1031800087FD8E5E082E000C990BC817D90791F4A5
:10319000809140028E9DA0018F9D500D1124559568
:1031A000479555954795980160913F0280913E0261
:1031B0000E94C217CD0CF1E0EF1AF108B9F6219682
:1031C0000D5F1F4FC231D10549F60E94251780912E
:1031D0006D0291E0D91206C0811102C081E107C0E1
:1031E000815005C090E00196BE010E941F37809378
:1031F0006D02DF91CF911F910F91FF90EF90DF90C3
:10320000CF90BF900895EF92FF921F93CF93DF93DB
:10321000EC0180E7E82E82E0F82E10E08C81970127
:103220004091400260913F02810F0E94C217125FDD
:1032300083E0E80EF11C1C3F89F70E9425179A8154
:103240008C8190FF02C08F5F01C081508C83DF9121
:10325000CF911F91FF90EF9008955F926F927F92B0
:103260008F929F92AF92BF92CF92DF92EF92FF9296
:103270000F931F93CF93DF9300D01F92CDB7DEB78C
:10328000182F762E042F622E90913D0290FF6DC074
:10329000E92FE695AE2FB0E0AD5ABE4F8C918093EA
:1032A0003B029E7F923061F49E012F5F3F4F812F42
:1032B0000E94C2174B8169818A810E945B1743C0BB
:1032C000823019F4009140023EC0863019F410910A
:1032D0003E0239C08930D9F38931A9F5E9518E2FE1
:1032E0008170582EE695F0E0E35FFA4FA590B49018
:1032F00080E7C82E82E0D82EE12CF12CBB2492E18D
:10330000892E912CAE9CC001AF9C900DBE9C900D5F
:103310001124B4010E940B37812F511002C0860F77
:1033200001C0861B9601402F672D0E94C2178FEFA8
:10333000E81AF80A83E0C80ED11C82E1E816F1040D
:1033400009F70E94251710933E0270923F020093E6
:103350004002662051F060913D0270913E028091E2
:103360003F02909140020E947F170F900F900F90A4
:10337000DF91CF911F910F91FF90EF90DF90CF9051
:10338000BF90AF909F908F907F906F905F900895C7
:10339000EDE3F2E0438128E0421B08F440E021E045
:1033A000628181810C942D19EDE3F2E0438128E0E4
:1033B000420F08F44FEF21E0628181810C942D19B6
:1033C000EDE3F2E0628128E0621B08F460E021E0B6
:1033D000438181810C942D19EDE3F2E0628128E0B4
:1033E000620F08F46FEF21E0438181810C942D1965
:1033F000EDE3F2E0818121E04381628188500C9409
:103400002D19EDE3F2E0818121E043816281885F43
:103410000C942D1990913D0290FF3DC09170811147
:1034200002C0926006C08B3210F0946502C0880F13
:10343000982B90933D02662351F060913D0270916C
:103440003E0280913F02909140020E947F1760915E
:103450003D02669570E04BE050E084E191E00E940F
:103460004F37892B19F010923C0209C081E08093FC
:103470003C020E94E931909319028093180281E086
:1034800080931B0220E04091400260913F028091B6
:103490003E020C942D19089580913D02869581502D
:1034A00009F48AE261E00C940A1A80913D02869543
:1034B0008F5F8B3208F081E061E00C940A1A0E9461
:1034C000E93120912902211104C020912A022223EE
:1034D00021F0909326028093250220912B02211146
:1034E00004C020912C02222321F090932302809388
:1034F0002202E0911502F0911602309749F082E025
:10350000809327020480F581E02D87E292E0099400
:103510000895803F39F480912A0287FF6AC0109293
:103520002A0267C0813F29F480912A021816BCF351
:1035300060C090912902823F29F497FF5AC01092EF
:10354000290257C0833F19F41916CCF352C0909149
:103550002B02893F31F419160CF04BC010922B024C
:1035600048C08A3F19F497FF44C0F8CF8B3F39F425
:1035700080912C0287FF3DC010922C023AC08C3FF4
:1035800029F480912C021816BCF333C0843F21F437
:10359000809128028E7F17C0853F21F480912802F8
:1035A0008D7F11C0863F21F4809128028B7F0BC054
:1035B000873F21F480912802877F05C0883F31F43E
:1035C000809128028F7E8093280213C08D3F21F4C2
:1035D000809108038E7F0BC08E3F21F480910803F9
:1035E0008D7F05C08F3F29F4809108038B7F8093E6
:1035F000080380912902811106C080912A0281115D
:1036000002C01092240280912B02811106C0809189
:103610002C02811102C010922102089580910803AA
:1036200080FF08C06091230170E0759567957595DE
:10363000679521C081FF06C06091230170E07595F8
:10364000679519C082FF04C06091230170E010C02B
:1036500090912102992399F0609122019617A0F789
:1036600080912301899FC001112470E00E941F37BF
:103670006038710540F46115710519F406C061E008
:1036800070E0862F08958FE7089581E00895809176
:1036900008032091C8013091C90180FF0CC08091BE
:1036A0002501829FB001839F700D11247695679547
:1036B000769567952FC081FF0AC080912501829F72
:1036C000B001839F700D11247695679523C082FF0A
:1036D00008C080912501829FB001839F700D112445
:1036E00019C040912402411102C0B90113C0609178
:1036F0002401461770F780912501849FA0011124B1
:10370000429FC001439F900D529F900D112470E085
:103710000E940B376038710528F46115710521F09E
:10372000862F08958FE7089581E00895803F21F462
:103730000E94471B819504C0813F29F40E94471BCA
:1037400080932A020895823F21F40E94471B8195AD
:1037500004C0833F29F40E94471B809329020895E7
:10376000893F19F40E940E1B05C08A3F31F40E9464
:103770000E1B819580932B0208958B3F21F40E94AC
:103780000E1B819504C08C3F29F40E940E1B809370
:103790002C020895843F21F480912802816017C093
:1037A000853F21F480912802826011C0863F21F478
:1037B0008091280284600BC0873F21F48091280209
:1037C000886005C0883F31F4809128028061809331
:1037D000280208958D3F21F48091080381600BC079
:1037E0008E3F21F480910803826005C08F3F29F449
:1037F000809108038460809308030895F894E82F6B
:10380000E295EF70F0E031A1282F2F7081E090E079
:1038100001C0880F2A95EAF7982F9095932391A3DA
:1038200092A1892B82A3789408959F92AF92BF9220
:10383000CF92DF92EF92FF920F931F93CF93DF937C
:1038400001E311E0CCE0D2E084E1E82E82E0F82E42
:10385000912CCC24C394D12CB801D8018C91F8942C
:10386000E82FE295EF70F0E021A18F70A60102C071
:10387000440F551F8A95E2F7CA01922F982B91A306
:1038800092A18095892382A3789400C0E5E3F1E0BA
:1038900020E030E0A12CB12C4191842F82958F70D3
:1038A00090E0DC0190968C9190E04F7002C095956D
:1038B00087954A95E2F780FD08C0C601022E02C036
:1038C000880F991F0A94E2F702C080E090E0A82ACE
:1038D000B92A2F5F3F4F2E303105F1F60F5F1F4F92
:1038E000FB0180810E94FE1BF0EAFA95F1F78881C6
:1038F0009981A816B90621F0B982A88281E001C099
:1039000080E0982A2296EC16FD0609F0A5CF9920B2
:1039100049F081E080936C020E94E93190936B0240
:1039200080936A0280916C02882351F180916A022F
:1039300090916B020E94CE31069710F180910C029B
:1039400090910D02909343028093420280910E0267
:1039500090910F029093450280934402809110024F
:103960009091110290934702809346028091120237
:1039700090911302909349028093480210926C0236
:10398000809112018823A1F080915D0290915E02E6
:10399000009771F00E94CE312091D6013091D7016D
:1039A0002817390728F481E00E94D7220E94C522F7
:1039B0008091DB0180FF1CC08091130182FF18C041
:1039C0000E94E9312091640230916502AC01421BF2
:1039D000530B20912601309127014217530740F0E5
:1039E00041E0BC0180916202909163020E946422D6
:1039F000892DDF91CF911F910F91FF90EF90DF9074
:103A0000CF90BF90AF909F900895CF93DF930E9487
:103A10007025EC018238910559F1A0F481339105AC
:103A200009F473C040F48932910509F467C08A979C
:103A300009F472C084C08533910509F458C0C99750
:103A4000B9F07DC0833E910571F138F4803E910557
:103A5000B1F0823E910511F172C0863E9105B9F137
:103A6000873E9105C9F1843E910509F068C024C0E4
:103A700080910A0280FD5DC081FD5BC060C08091C5
:103A80000A0280FD50C080910B0280FF49C18091E5
:103A90000A0284FD43C1C3EED0E042C180910A0214
:103AA00082FF3EC1F4CF80910A0282FD3FC0809127
:103AB0000B0280FD3EC0EBCF80910B0281FF30C135
:103AC00080910A0284FD2AC1C7EED0E029C180910D
:103AD0000A0283FF25C1F4CF80910A0283FD2CC026
:103AE00080910B0281FFECCFC4EED0E019C1809130
:103AF0000A0285FF15C1C9E2D0E012C180910A0215
:103B000085FF0EC1C5E3D0E00BC180910A0286FF9C
:103B100007C1CAE2D0E004C180910A0286FF00C159
:103B2000C1E3D0E0FDC0C9E3D0E0FAC0C2EED0E00E
:103B3000F7C0C0EED0E0F4C0C6EED0E0F1C0C115D1
:103B400081E5D80708F066C0C11520E5D207E0F08E
:103B5000CE0174E0969587957A95E1F783709C2F56
:103B6000937021E030E002C0220F331F9A95E2F7F4
:103B70003C68382BCF70C695C69540E2C49FE001E3
:103B80001124C22BD32BCCC0C83ED10560F5C03E5A
:103B9000D10508F0C5C0C83AD105B0F4C53AD10581
:103BA00040F0C55AD0E0C258DE4FC881D0E0D064A2
:103BB000B7C0C130D10509F4B3C008F4AFC0C430F8
:103BC000D10508F4ABC0ACC0CF3BD10508F0A6C00E
:103BD000C85AD0E0CC0FDD1FCF57DE4F0990D881F7
:103BE000C02DD4649DC0C11540E2D40758F4C1155E
:103BF00081E0D80708F094C0C03FD10508F48EC01A
:103C0000D0658EC0C11520E4D20708F487C0DF70EC
:103C1000D06A86C0C11545E5D40708F042C0C11579
:103C200084E5D80728F0DC2FCC27C46FD06A78C091
:103C3000C11523E5D207B0F0CE018370992721E0AA
:103C400030E002C0220F331F8A95E2F78C2F869551
:103C5000869540E2849FC0011124E901C82BD92B2D
:103C6000DA685EC0C11542E5D40728F4DC2FCC2702
:103C7000C16FD06A55C0CE018370992721E030E032
:103C800002C0220F331F8A95E2F78C2F8695869506
:103C900040E2849FC0011124E901C82BD92BDC68C4
:103CA0003FC0C11589E5D807B8F4C11528E5D2078A
:103CB00028F0DC2FCC27C06FD06A32C0C11546E592
:103CC000D40760F58C2F0E94B5168F71C82FD0E0F5
:103CD000DC2FCC27D06224C0C1158AE5D80780F438
:103CE0008C2F8F700E94B51694E0D695C7959A9543
:103CF000E1F7CF70D0E0DC2FCC27D069C82B10C003
:103D0000CE0190568115904248F48D2F8F710E94FC
:103D1000B516DD27D0628F71D82B02C0C0E0D0E08D
:103D2000CE01DF91CF910895AF92BF92CF92DF92F3
:103D3000EF92FF920F931F93CF93DF93EC018AE0F2
:103D4000A82E2881222309F497C0213009F041C010
:103D50008981813039F48E010E5F1F4F8A810E9464
:103D6000E22808C0823041F48E010E5F1F4F8A8125
:103D70000E941E28E8017EC0833039F48E010E5F58
:103D80001F4F8A810E94BE27F5CF843011F0219603
:103D900071C02A81229680E090E030E02053310902
:103DA0002A30310558F4A89EA001A99E500D112477
:103DB000C901840F951F21962881EFCF009709F440
:103DC00059C0EFE9FFE03197F1F700C0000001971B
:103DD000F5CFE22FF0E0E357FC4FB490822F8695A9
:103DE0008695869590E0FC01E358FC4FE49027709F
:103DF000F12C022E02C0F594E7940A94E2F7F1E068
:103E0000EF22FF24FC01E359FC4FC490D12C022E79
:103E100002C0D594C7940A94E2F731E0C322DD24AE
:103E2000FC01E35AFC4F049110E002C01595079580
:103E30002A95E2F701701127E114F10419F081EEDF
:103E40000E941E28C114D10419F086EE0E941E287B
:103E50008B2D0E94E228CD2819F086EE0E94BE2705
:103E6000EF2819F081EE0E94BE27012B19F08CE299
:103E70000E94E228219665CFDF91CF911F910F918B
:103E8000FF90EF90DF90CF90BF90AF9008951F9379
:103E9000CF93DF9300D000D01F92CDB7DEB7498318
:103EA0005A8389819A81662359F0222349F00E941E
:103EB000A533182F682F89819A810E94223403C06C
:103EC0000E94F233182F69817A81812F0F900F9011
:103ED0000F900F900F90DF91CF911F910C94702550
:103EE000CF93DF93EC010E94BE27CE01805E910943
:103EF000089710F0209719F46CE577E202C065E5A9
:103F000077E2CE01DF91CF910C94F816CF93DF9337
:103F1000EC01805E9109089710F0209719F46BE48A
:103F200077E202C061E477E2CE010E94F8168C2F9E
:103F3000DF91CF910C941E288F929F92AF92BF92E7
:103F4000CF92DF92EF92FF922D982E982F984C01EE
:103F5000AA24BB2481149104A104B10411F020E12E
:103F600003C04B015C0120E0FF24EB2CDA2CC92CB0
:103F7000C114D104E104F10419F0285F460157018E
:103F80007501640154E0F694E794D794C7945A9568
:103F9000D1F7C114D104E104F10419F02C5F4601FA
:103FA00057017501640142E0F694E794D794C794F1
:103FB0004A95D1F7C114D104E104F10419F02E5F40
:103FC0004601570175016401F694E794D794C794AC
:103FD000CD28CE28CF2809F02F5F223031F02330B2
:103FE00031F0213029F42D9A03C02E9A01C02F9A66
:103FF000FF90EF90DF90CF90BF90AF909F908F9009
:104000000895E0ECF1E0848195812AE030E0B90187
:104010000E940B3760930601868180930701828599
:104020008093250184858093240186859785B90135
:104030000E940B3760930401808980930501828977
:104040008093230184898093220108958091C00187
:104050009091C101909327018093260108959F922A
:10406000AF92BF92CF92DF92EF92FF920F931F9386
:10407000CF93DF93FC01A280948081E08483E2E10E
:10408000F5E0B490E1E9F5E0E491C6EAD2E0F0E7CA
:10409000EF2EF2E0FF2ECC24CA94D12CEB190E2F78
:1040A00010E022E02A1530F080913E028883809152
:1040B0003F028983911003C01B821A8255C08B81F5
:1040C0008823F9F081508B832FEF829FC001112448
:1040D0006C8170E00E940B37FB01FF27EE5EFA4F08
:1040E0008491E82FEB192FEFE29FC0011124B80152
:1040F0000E940B3780914002689FB00111247A839F
:1041000033C00E941536209140022695215830E098
:10411000A901440F551F322F2227240F351F232FAB
:1041200033278217930704F582E08A1588F40E94EA
:104130001536B6010E941F3788830E9415362091DC
:104140003F022695622F70E00E941F37280F2983B7
:104150001A8280914002843120F0893C18F088EC6A
:1041600001C084E18C838B8397014A8169818881B6
:104170000E94C217259623E0E20EF11C83E0C030B6
:10418000D80709F08ECFDF91CF911F910F91FF904B
:10419000EF90DF90CF90BF90AF909F900C94251739
:1041A000EF92FF920F931F93CF93DF938C01C0E7A1
:1041B000D2E0E12CF12CF8018481F9E0EF16F10452
:1041C0001CF4882339F002C0811104C09E01409183
:1041D000400202C09E0140E060913F0280913E0299
:1041E0000E94C2178FEFE81AF80A239692E1E916A7
:1041F000F10409F70E942517F801848190E00196E7
:10420000817099278483DF91CF911F910F91FF9047
:10421000EF9008958F929F92AF92BF92CF92DF92CC
:10422000EF92FF920F931F93CF93DF93EC014C819A
:10423000042F10E09801D8010E94E2369B01AC01E6
:104240000E94AD366B017C01E0E2F0E0E01BF10B77
:10425000A5E5B0E09B01AC010E94AD364B015C01CD
:104260009F01DF010E9440379B01AC010E94B836DC
:104270009B01AC012C0D3D1D4E1D5F1DC501B40100
:104280000E94C036822FF22E99E2921728F093E016
:10429000299F900111240DC025E530E0281B31092C
:1042A000C901880F991F280F391F37FF02C02F5FE0
:1042B0003F4F35952795122F109590E7C92E92E024
:1042C000D92E00E085E5E82EEF1801FD02C08E2D05
:1042D00001C08F2D9601412F60913F020E94C217AD
:1042E0000F5F83E0C80ED11C023179F70E942517B9
:1042F0008C81811102C091E003C0803219F49FEFDC
:104300009093210190912101890F8C83DF91CF91AE
:104310001F910F91FF90EF90DF90CF90BF90AF90E3
:104320009F908F9008950F931F93CF93DF93C0E7D3
:10433000D2E0FE01118210821282339682E0E63AC8
:10434000F807C1F700E010E080916E02082E000C23
:10435000990B0817190794F080912001082E000C82
:10436000990B8017910754F09E0140914002609193
:104370003F0280913E020E94C21703C01982188238
:104380001A820F5F1F4F239602311105E9F60E9432
:10439000251780911F0190916E02980F90936E02E5
:1043A00020912001280F20932001121614F491313E
:1043B0001CF0819580931F01DF91CF911F910F9188
:1043C00008950F931F93CF93DF9300D01F92CDB723
:1043D000DEB78C0180916F0281110AC09E012F5FB0
:1043E0003F4F4FEF6FEF0E94C2178A8180936F0299
:1043F000F8018481813051F028F0823061F44091DD
:104400006F020AC080916F0240E007C060916F02A6
:1044100040E080E003C040E080E060E00E945B1785
:10442000F801848190E0019663E070E00E941F37FC
:1044300084830F900F900F90DF91CF911F910F9178
:104440000895009741F0EFE9FFE03197F1F700C0E0
:1044500000000197F6CF08952091060330910703DD
:104460002817390771F09093070380930603E091B2
:104470001502F0911602309721F00084F185E02DAD
:1044800009940895209104033091050328173907F2
:1044900071F09093050380930403E0911502F0916D
:1044A0001602309721F00680F781E02D09940895D7
:1044B000E0911502F0911602309721F00190F08101
:1044C000E02D099480E00895FF920F931F93CF93FE
:1044D000DF938C01EB01F42E8091130182FF3CC02D
:1044E0008B7F8093130180916402909165029B0100
:1044F000281B390B80912601909127012817390735
:1045000050F4809162020E941E28809113018D7FD9
:104510008093130116C08091BD0382608093BD0318
:10452000809162020E941E28809113018260809314
:1045300013018091DB0185FF04C086FD02C0F110EC
:104540001EC08091DE019091DF010E9421228091A6
:1045500062020E94BE270AC0802F0E94BE2780915F
:104560006202909163020817190719F482E00E9411
:1045700002330E944B33D0936502C0936402DF91F3
:10458000CF911F910F91FF900895E2EEF1E080E04E
:1045900090E08830910531F0248127FF1482019644
:1045A0003596F7CF90936102809360020895CF9380
:1045B00090915C029923C9F0882311F0C0E003C0F8
:1045C00010925C0212C080915C02C817C8F7EC2FF1
:1045D000F0E0EE0FFF1FE25BFD4F808191810E94B2
:1045E000861F0E944B33CF5FEECFCF9108950F937C
:1045F0001F93CF93DF93C42FD22FFC018281882396
:10460000C9F0409366020E94E931909303038093BE
:10461000020380E28C0F883008F05BC0C77081E035
:1046200001C0880FCA95EAF7DF91CF911F910F91D2
:104630000C944B2780916602481334C0809102038A
:10464000909103030E94CE312091D8013091D9017D
:104650008217930738F510E21D0FCD17B9F080E2ED
:104660008C0F883040F4C77081E001C0880FCA9574
:10467000EAF70E945C27183028F581E09D2F97709B
:1046800001C0880F9A95EAF70E944B27802F0E945D
:10469000E2281830F0F4D77081E001C0880FDA9575
:1046A000EAF70AC080E28C0F883098F4C77081E086
:1046B00001C0880FCA95EAF7DF91CF911F910F9142
:1046C0000C945C27802FDF91CF911F910F910C9458
:1046D000E228DF91CF911F910F9108950F931F93BF
:1046E000CF93DF9300EC11E0C7EFD1E0CE010E9441
:1046F0003E36F80181938F012196C931F2E0DF0740
:10470000A9F7C0E0D0E0FE01E55DFE4F85919491F0
:10471000009711F0FC0109952896C839D10599F741
:10472000DF91CF911F910F9108950F931F93CF9316
:10473000DF9300EC11E0C7EFD1E0CE010E943E36DE
:10474000F80161918F01681719F0CE010E9452366D
:104750002196C931F2E0DF0781F7DF91CF911F91F8
:104760000F910895E0ECF1E0128E138E8FEA90E045
:104770009183808385E0848F88E893E193838283AB
:104780002CE231E03583248382E390E097838683B3
:1047900085E090E0918780878AE090E09387828728
:1047A00044E150E0558744873787268724E630E088
:1047B000318B208B28E030E0338B228B28E230E0F5
:1047C000358B248B28EC30E0378B268B318F208F74
:1047D000158E978F868F80E590E091A380A30E942D
:1047E00095230C946E23CF93DF93C9E6D2E060E06B
:1047F000CE010E9452362196C11584E0D807B9F740
:10480000DF91CF910895883080F49B01982F8AE042
:10481000989FB0011124675E7D4F4AE050E0C901C6
:104820000E942E3680E090E008958FEF9FEF08956C
:104830000F931F93CF93DF93843038F5611125C018
:10484000423018F521159CE5390731F460914A0290
:1048500070914B02672BC9F08901C42FD0E0CC0FB7
:10486000DD1F94E0899FC00DD11D1124C951DE4F79
:10487000612FCE010E945236602FCE010196DF914A
:10488000CF911F910F910C945236DF91CF911F91D0
:104890000F9108950F931F93CF93DF938430E8F423
:1048A00061111BC04230C8F4C42FD0E0CC0FDD1F13
:1048B00024E0829FC00DD11D1124C951DE4FCE01CD
:1048C0000E943E3690E0182F0027CE0101960E94EC
:1048D0003E369801282BC90102C080E090E0DF91AC
:1048E000CF911F910F9108950F931F93CF93DF9353
:1048F000843058F5643048F54E3038F521159CE584
:10490000390731F4E0914A02F0914B02EF2BE9F0C4
:104910008901C42FD0E0CC0FDD1F9CE1699FC00D41
:10492000D11D112490E7899FC00DD11D1124612F45
:10493000CE0187960E945236602FCE018896DF9175
:10494000CF911F910F910C945236DF91CF911F910F
:104950000F9108954F925F926F927F928F929F92E4
:10496000AF92BF92CF92DF92EF92FF920F931F937D
:10497000CF93DF93CDB7DEB72A970FB6F894DEBF9B
:104980000FBECDBF60904A0270904B0281E090E074
:1049900090934B0280934A0292E1E92E96E0F92E21
:1049A000A12CB12C512C412CC12CD12C00E010E0B9
:1049B00045018C0C9D1CF801EE0FFF1FE80DF91D41
:1049C000EE5DF94F25913491402F642D852D0E9485
:1049D00074240F5F1F4F0E30110569F78CE1C80E6C
:1049E000D11C439494E04912E1CFF7012591349111
:1049F00040E060E0852D0E941824F7013296259151
:104A0000349141E060E0852D0E941824E4E0EE0E30
:104A1000F11C5394F0E7AF0EB11C84E05812C3CFE1
:104A20000E94B223FE0131967F018AE011928A959D
:104A3000E9F709E112E04AE050E0B801C7010E943D
:104A40007636065F1F4F0936F2E01F07A1F7709216
:104A50004B0260924A022A960FB6F894DEBF0FBE50
:104A6000CDBFDF91CF911F910F91FF90EF90DF901D
:104A7000CF90BF90AF909F908F907F906F905F90FE
:104A80004F9008950F931F93CF93DF93843008F5D1
:104A90006430F8F44E30E8F4C42FD0E0CC0FDD1FC2
:104AA0002CE1629FC00DD11D112430E7839FC00D02
:104AB000D11D1124CE0187960E943E3690E0182F1A
:104AC0000027CE0188960E943E369801282BC90106
:104AD00002C080E090E0DF91CF911F910F91089587
:104AE000462F20914C0230914D02232B91F47E3FB2
:104AF00039F46E3F71F480910003909101030895A1
:104B0000843038F4743028F46E3018F4672F0C9425
:104B1000422580E090E0089590913D0290FF04C00E
:104B20009695981740F003C0811105C090E0961744
:104B300010F40C94551A61E00C940A1A882311F0B1
:104B4000FA0101C0FB010994CF92DF92FF920F930B
:104B50001F93CF93DF93CDB7DEB767970FB6F89467
:104B6000DEBF0FBECDBFF42E4B8B052F5C8B162FF7
:104B70006D8B7E8B8F8BCE88DF88A601602F8F2D6B
:104B80000E94FE34811109C08091680290916902EF
:104B90000196909369028093680211111092BD03EF
:104BA000FE013D9686E0DF011D928A95E9F780912E
:104BB000C2019091C301892B11F10E94E93120912A
:104BC000B8033091B903821B930B2091C20130913D
:104BD000C3018217930740F08091BA0382FB9927A3
:104BE00090F981E0892701C080E080FF03C082E066
:104BF0000E9480340E94313381110E94F732FD8679
:104C00000E871F87D98AC88A86E0FE013D96DE019D
:104C1000179601900D928A95E1F7CE0107960E94B2
:104C20007F29811146C086E0FE013796DE0111968C
:104C300001900D928A95E1F7DF80F8840A851B8543
:104C4000A8016F2D8D2D0E94FE34811132C020915C
:104C5000620330E0C9010196877099274091930360
:104C600050E084179507B9F0D982FA821D830C832E
:104C700096E0929FD001939FB00D1124AD59BC4F87
:104C8000FE01319601900D929A95E1F780936203AF
:104C90000E940D350EC00E94A92710926203109247
:104CA0009303ECE5F3E086E0DF011D928A95E9F7D6
:104CB00019C016E08091930390916203891791F0D7
:104CC000189FC00111248D599C4F0E947F29882371
:104CD00049F08091930390E0019687709927809323
:104CE0009303E8CF67960FB6F894DEBF0FBECDBF33
:104CF000DF91CF911F910F91FF90DF90CF9008959A
:104D0000CF93DF9300D000D01F92CDB7DEB7909342
:104D1000010380930003811520E2920748F40F906D
:104D20000F900F900F900F90DF91CF910C94701F08
:104D30008EEF89838A831B820E94E9318160782FFC
:104D40009D838C8349815A816B818D810E94A4252A
:104D50000F900F900F900F900F90DF91CF910895CB
:104D6000CF93DF9300D000D01F92CDB7DEB79093E2
:104D7000010380930003811520E2920748F40F900D
:104D80000F900F900F900F90DF91CF910C94861F92
:104D90008EEF89838A8381E08B830E94E931816071
:104DA000782F9D838C8349815A816B818D810E94EC
:104DB000A4250F900F900F900F900F90DF91CF913F
:104DC0000895AF92BF92CF92DF92EF92FF920F932E
:104DD0001F93CF93DF93B82EA62EC0903803D090A8
:104DE0003903E0903A03F0903B038091C103909126
:104DF000C203A091C303B091C403C82AD92AEA2AE6
:104E0000FB2ACFE1D0E0D701C6010C2E04C0B69535
:104E1000A795979587950A94D2F780FF13C04A2DDE
:104E20006B2D8C2F0E944A248C018130910551F00A
:104E30000E94B0268FE39CE90197F1F700C00000C3
:104E4000C80111C02197F8F64A2D6B2D80E00E9411
:104E50004A24EC010E94B0268FE39CE90197F1F708
:104E600000C00000CE010E94802681E0DF91CF913A
:104E70001F910F91FF90EF90DF90CF90BF90AF9078
:104E80000895882339F09091BD03892B8093BD0349
:104E90000C944B330895882339F09091BC03892BEF
:104EA0008093BC030C944B330895882321F00E9417
:104EB00002330C944B330895882321F00E94093368
:104EC0000C944B330895E92FE295EF704E2F50E08C
:104ED000FA013297EE30F105B0F4E059FF4F0C942F
:104EE0003337803F91F018F4883E68F40EC0843F59
:104EF00051F40BC0883E48F0813F29F406C093FB73
:104F0000882780F9089580E0089581E008950E943F
:104F1000E7330E946327089580E090E00E944222D8
:104F200080E090E00E942C221092BD031092BB03FF
:104F30000E944B33E7E2F2E086E0DF011D928A95A2
:104F4000E9F71092240210922102109208030C94A7
:104F50005F1A1092BC0380912801882331F0809160
:104F60000A0287FF02C08EE101C086E0EEE3F3E0B3
:104F7000DF011D928A95E9F70C948C27882309F4A8
:104F80005CC0823869F40E94582281FF56C069E3F0
:104F90008CE393E00E9446320E944B3369E30EC0DB
:104FA000833891F40E94582280FF47C063E58CE368
:104FB00093E00E9446320E944B3363E58CE393E01A
:104FC0000E941E320C944B33843869F40E9458229C
:104FD00082FF33C067E48CE393E00E9446320E9474
:104FE0004B3367E4EBCF9CEF980F913A10F4682FA6
:104FF000E5CF90E2980F983050F4877091E001C0AF
:10500000990F8A95EAF7892F0E940933DBCF9BE538
:10501000980F933020F480E090E00C94422298E5C1
:10502000980F973120F480E090E00C942C22803F80
:1050300020F00E94891A0C945F1A0895CF93882358
:1050400009F4BEC0C82F8238B1F40E94582281FDF5
:10505000B7C069E38CE393E00E9446320E944B3371
:105060002FEF81EE94E0215080409040E1F700C0A6
:10507000000069E317C08338E1F40E94582280FDE4
:105080009FC063E58CE393E00E9446320E944B335D
:105090002FEF81EE94E0215080409040E1F700C076
:1050A000000063E58CE393E00E941E32CF910C94E4
:1050B0004B338438B1F40E94582282FD81C067E4EA
:1050C0008CE393E00E9446320E944B332FEF81EE37
:1050D00094E0215080409040E1F700C0000067E478
:1050E000E1CF8CEF8C0F813AC0F5809128018823A5
:1050F000E1F080910A0287FF18C0EC2FE695E69553
:10510000E695F0E0E45CFC4F8281282F30E04C2FE4
:10511000477081E090E002C0880F991F4A95E2F73E
:1051200082239323892B61F412C0EEE3F3E084E43D
:1051300093E02191C21721F08E179F07D1F707C086
:105140006C2F8CE393E00E941E320E944B336C2F35
:105150008CE393E00E944632A9CF80E28C0F883026
:1051600068F4C77081E090E001C0880FCA95EAF743
:105170009091BC03892B8093BC0398CFEBE5EC0F97
:10518000E33040F4F0E0E258FE4F808190E0CF91B0
:105190000C944222E8E5EC0FE73150F4F0E0EE0F1A
:1051A000FF1FEF57FE4F80819181CF910C942C22ED
:1051B000C03F30F08C2F0E94961BCF910C945F1A49
:1051C000CF9108951F93CF93DF93182F893329F43C
:1051D000C091E001D091E10104C0C091DE01D09105
:1051E000DF01812F0E941E28209741F08FE99FE068
:1051F0000197F1F700C000002197F6CF812FDF91D2
:10520000CF911F910C94BE27BF92CF92DF92EF9265
:10521000FF920F931F93CF93DF9380916103829549
:105220008F7009F062C080915E03882309F45DC02D
:10523000C091930386E0B82E80916203C81709F4E9
:1052400054C0F0905C03E0905D03C0905F03D09089
:105250006003A6016E2D8F2D0E94FE34D0E08111D7
:1052600041C0BC9E8001BD9E100D1124F801ED5976
:10527000FC4F51815E1136C040814F1133C0828195
:10528000811130C0E380F480EC18FD0820E06091CB
:105290005E0370915F03809160030E94471F8091BD
:1052A000D8019091D901E816F906E0F480916103E4
:1052B0008F70806180936103F801E859FC4F808111
:1052C0008F70806180838CE593E00E94A90DDF914F
:1052D000CF911F910F91FF90EF90DF90CF90BF90F3
:1052E0000C940D352196C770A7CFDF91CF911F91F8
:1052F0000F91FF90EF90DF90CF90BF9008954F9265
:105300005F926F927F928F929F92AF92BF92CF9255
:10531000DF92EF92FF920F931F93CF93DF93CDB75E
:10532000DEB761970FB6F894DEBF0FBECDBF8C011C
:1053300085E0F801DE011D9601900D928A95E1F756
:10534000D801EC901196FC90119712966C908CE518
:10535000A82E83E0B82E80905F0390906003A40194
:1053600060915D0380915C030E94FE34782E811170
:10537000DBC1F801C380D48040905E03C601881968
:1053800099094C0120E040915C0350915D03442059
:1053900009F457C1642D70915F03809160030E94EE
:1053A000471F8091D8019091D901509061038816D0
:1053B000990608F013C140915F0350916003B090CB
:1053C0005C03A0905D03852D807F6A2D09F0A5C048
:1053D0008B2D0E94FE34811115C0AF1013C0BE107A
:1053E00011C061100FC0852D8F70806180936103A3
:1053F0008CE593E00E94A90D80916103D801159678
:105400008C93B1C120E040915C0350915D036091A9
:105410005E0370915F03809160030E94471F80913B
:10542000D8019091D901843F914050F0A6016F2D91
:105430008E2D0E94FE34811115C081E0862514C096
:1054400020E040915C0350915D0360915E03709198
:105450005F03809160030E94471F8091DD0180FD02
:10546000E5CF17C080E090E080FF13C0462D6F2D80
:105470008E2D0E94DE34882361F08CE593E00E943B
:10548000A90DECE5F3E086E0DF011D928A95E9F7CE
:105490006AC1A6016F2D8E2D0E94FE34811103C0BA
:1054A00081E0862502C080E090E0B82FB170CB2E5D
:1054B00080FF2AC0462D6F2D8E2D0E94DE34D82EFF
:1054C000811122C0ED86FE868D859E850E94E73380
:1054D000292F22952F70223018F0243078F405C03F
:1054E0009F7049F0811107C00DC09F7021F0F80135
:1054F0009581907F39F0805E883020F0C8010E944D
:10550000A90DDC2C7D2C2FC1662009F42BC18091C4
:10551000610381608093610326C18B2D0E94FE345C
:10552000811115C0AF1013C0BE1011C061100FC0A3
:10553000D80115965C92C8010E94A90D86E0F80179
:10554000ACE5B3E001900D928A95E1F760C0ED867D
:10555000FE868D859E850E9487278823C9F1662057
:10556000B9F120916103822F82958F7090E00297AC
:1055700074F080915C0390915D0398878F83198606
:10558000DB86CA862C87CE0107960E94A90D86E08D
:10559000F801ACE5B3E001900D928A95E1F70E9425
:1055A000042919C090905C0380905D0340915F03D3
:1055B00050916003682D892D0E94FE348823B1F03C
:1055C000ED86FE868D859E850E948727811121C0EC
:1055D000C8010E94A90D77247394C5C0852D807FD2
:1055E00009F78CE593E00E94A90D98C08F10E8CFD1
:1055F0009E10E6CF6110E4CFD80115965C92C801E9
:105600000E94A90D86E0F50111928A95E9F7742CA4
:10561000AAC06620E9F220916103822F82958F70E3
:1056200090E002970CF4B3CF80915C0390915D03FE
:105630009A8389831B82DD82CC822E83CE010196E0
:10564000A4CF60E070915F03809160030E94471FC8
:105650008091D8019091D9018816990608F05EC012
:10566000762C662009F4B4CFC0905C03D0905D0323
:1056700040915F03509160036D2D8C2D0E94FE348C
:1056800081113BC0DF1039C0CE1037C020E0A60129
:1056900060915E0370915F03809160030E94471FD9
:1056A0008091DD0182FD20C08091610380FD1CC0DE
:1056B00082958F70482F50E041155105A9F0209137
:1056C0006103D80115962C9315974F30510549F079
:1056D0008F5F982F9295907F822F8F70892B1596D0
:1056E0008C93C8010E94A90D86E0F801ACE5B3E0F7
:1056F00001900D928A95E1F736C0ED86FE868D8584
:105700009E850E948727811142CF8091610381602D
:1057100080936103C8010E94A90D25C086E0F501B0
:1057200011928A95E9F71FC0662009F451CFED86E2
:10573000FE868D859E850E948727782E882309F412
:1057400047CF86E0F801ACE5B3E001900D928A9571
:10575000E1F780915C0390915D030E94E7330E9422
:10576000042901C0712C872D61960FB6F894DEBF15
:105770000FBECDBFDF91CF911F910F91FF90EF90A2
:10578000DF90CF90BF90AF909F908F907F906F9061
:105790005F904F9008950F931F93809138039091DD
:1057A0003903A0913A03B0913B038C019D0106702F
:1057B000112722273327BC01CD0106301105210511
:1057C000310511F4686001C0677F1F910F910C943F
:1057D0004F341F93CF93DF93CDB7DEB7AA970FB6A1
:1057E000F894DEBF0FBECDBFEFE2F3E08091F10091
:1057F000819343E0E733F407C9F7809130038330A6
:1058000009F462C030F4813071F0823009F49CC038
:10581000B3C08A3009F488C08B3009F46DC0893078
:1058200009F0AAC020C080912F03813A09F0A4C0DA
:105830008091E800877F8093E80080913303909106
:105840003403892B21F460E28CE093E003C060E034
:1058500080E090E070E00E946B358091E8008B77EB
:105860008093E80089C080912F03813209F084C0C1
:105870008091330390913403009719F0029709F057
:105880007BC08091E800877F8093E8008091E800EA
:1058900082FD05C0809137038111F8CF6DC0209142
:1058A000F3008091F20090E0922B029729F480910E
:1058B000F1008B7F813021F48091F10080930B0304
:1058C0008091E8008B7754C080912F03813A09F0D2
:1058D00053C08091330390913403892B09F04CC05D
:1058E0008091E800877F8093E8008091E80080FF46
:1058F000FCCF8091280137C080912F038132E1F5E0
:105900008091330390913403892BB1F58091E800A5
:10591000877F8093E8000E94173580913103809340
:1059200028010E94A92728C080912F03813221F5E8
:105930008091E800877F8093E8000E94173580916E
:10594000320380930A0318C080912F03813AA1F497
:105950008091E800877F8093E8008091E80080FFD5
:10596000FCCF80910A038093F1008091E8008E774C
:105970008093E8000E9417358091E80083FFE9C119
:1059800080912F0390913003492F50E04A30510508
:1059900008F0DFC1FA01E258FF4F0C94333780382A
:1059A00021F0823809F0D5C108C080912C03909174
:1059B0002D03992389F082600FC0809133038F708B
:1059C000873008F0C6C18093E9008091EB0085FB29
:1059D000882780F91092E9009091E800977F9093D2
:1059E000E8008093F1001092F1007CC1282F2D7FF8
:1059F00009F0AFC1882319F0823061F0AAC180910B
:105A00003103813009F0A5C1933009F080E0809323
:105A10002D032EC08091310381112AC08091330360
:105A20008F702FEF280F263008F093C18093E90084
:105A30002091EB0020FF1CC0933021F48091EB00FB
:105A4000806214C09091EB0090619093EB0021E094
:105A500030E0A90102C0440F551F8A95E2F7409338
:105A6000EA001092EA008091EB0088608093EB00DE
:105A70001092E9008091E800877F8093E8000E94FF
:105A8000173567C1811165C1109131031F7780916E
:105A9000E3008078812B8093E3008091E800877F8A
:105AA0008093E8000E9417358091E80080FFFCCFCA
:105AB0008091E30080688093E300111102C082E0CE
:105AC00001C083E08093370344C18058823008F0DE
:105AD00040C120913103309132032C3D53E0350712
