:100000000C94B6040C94EE040C94EE040C94EE04E0
:100010000C94EE040C94EE040C94EE040C94EE0498
:100020000C94EE040C94EE040C94B5180C94F11797
:100030000C94592D0C94EE040C94EE040C94EE04E4
:100040000C94EE040C94EE040C94EE040C94EE0468
:100050000C94EE040C940C2D0C94EE040C94EE0411
:100060000C94EE040C94EE040C94EE040C94EE0448
:100070000C94EE040C94EE040C94EE040C94EE0438
:100080000C94EE040C94EE040C94EE040C94EE0428
:100090000C94EE040C94EE040C94EE040C94EE0418
:1000A0000C94EE040C94EE040C94EE04720B880B8A
:1000B0008F0BC70BD80BE30BF40B070C4D0C520C3A
:1000C000ED0CED0CED0C5A0C6211621192119211B3
:1000D00011122D124C134C133812AC12BD12BD125A
:1000E000F7151E16D3171E16D3176A168D16D317BB
:1000F0008E179E171E0F057F3F1F643214783C1E1B
:100100001E140A05FD377A585A000004E6D6B44694
:100110000200210116000000742FE5A3E0061C0177
:100120007D5D003D8889C65436C3174FE4DCC6693F
:10013000CCF1100C3DFAD5C97F5E5CC6AA3D842186
:100140008796FA59859B9CD7381B2760E4FA0B2ABF
:100150006D62A37DF3139EE9B8FF6058943E71ED84
:1001600030F0200821F1978564D7393961A523CC77
:10017000B4ED80978FC1CC1D734ECC8C0797F84897
:100180007418CFD59D855D9142D2D9ACD6AA87157A
:100190007780DFE6CCB0086BAC15BAFA7B4B500425
:1001A000B5282D547ACB7FAEA225B76EBBEB4E158A
:1001B000A6954F6A48DB91979852E23CBDA6B0E9FC
:1001C00001F8473880509C8C28EE07D5FDE23B7E35
:1001D000D0AA19DC6C0E8292F78B567D308F35FEDB
:1001E0003588FBE0C2BBDCAA718E81F1094AAB21E4
:1001F00017256AE55801E30449A5D14A4CA90ABE6E
:1002000069991C93BD5C1F73975E1BCC1008A36299
:100210003780D5FC28C4CD4A34296C7F3D44F6781C
:100220003C8D74D3C4E4605A5FBEE00B84D7E865AC
:10023000184B0D0BB49F989A328071BDFBACC50D65
:10024000C3EA3BF8535AA2F2AB3B66ABA60D93D27E
:1002500012DA2CEACB210FDA1D46883EE159D1A3F0
:100260005AD242A7849732FF34B69CACFA3F55D697
:100270004830BA2FCBF2D52EF49ACE0B24B5E3E753
:10028000A61C8BC19649EA3D09C0676B44C3BC7587
:10029000CB93212A512AC45E44CB4FA8672A7867A2
:1002A0000000000033FCD9E5C1ADE59700019903DA
:1002B0009D0C00009B29ACF8B1C467FB0200000054
:1002C0000004595A05010902A10185020901A10092
:1002D00005091901290515002501950575018102FA
:1002E0009501750381010501093009311581257FCB
:1002F00095027508810609381581257F95017508D5
:100300008106050C0A38021581257F950175088143
:1003100006C0C005010980A101850319012AB700A3
:10032000150126B700950175108100C0050C090163
:10033000A101850419012AA002150126A002950138
:1003400075108100C005010906A101850605071980
:10035000E029E715002501950875018102050719B7
:100360000029EF1500250195F07501810205081996
:10037000012905950575019102950175039101C04B
:100380000660FF0961A1010962150026FF009520A2
:10039000750881020963150026FF009520750891F4
:1003A00002C005010906A101050719E029E71500AA
:1003B00025019508750181029501750881010507E0
:1003C000190029FF150026FF009506750881000514
:1003D000081901290595057501910295017503918B
:1003E00001C009025B00030100A0FA09040000013A
:1003F00003010100092111010001224000070581CC
:100400000308000109040100020300000009211192
:1004100001000122220007058203200001070503D5
:10042000032000010904020001030000000921115A
:1004300001000122BC000705840320000112010015
:100440000200000008425761630100010203011C21
:10045000037600690061006C003A006600360034E3
:10046000006300320062003300630000000C0343AD
:100470000061006A0061006C0000001A035700610F
:10048000006C006C00650074006200750072006E04
:1004900000650072000000040309042225282A2DAB
:1004A0003033363A3D4043474A4E5155595C6064BB
:1004B000686B6F73777B7F83878A8E92969A9EA1F3
:1004C000A5A8ACAFB3B6B9BCBFC2C5C7CACCCED164
:1004D000D2D4D6D7D9DADBDBDCDCDDDDDCDCDCDB7F
:1004E000DAD9D8D7D5D3D2D0CDCBC9C6C3C1BEBB3C
:1004F000B8B4B1AEAAA7A39F9C9894908C8985812B
:100500007D7975716D6966625E5A5753504C4945E5
:10051000423E3B3835322F2C2926230001010101B0
:1005200001010101010202020202020202020303AE
:10053000030303030303040404040404040505057E
:100540000505060606060607070707070808080840
:10055000090909090A0A0A0B0B0B0C0C0C0D0D0DED
:100560000E0E0E0F0F0F1010111111121213131483
:1005700014151516161717181819191A1A1B1B1CFB
:100580001D1D1E1E1F202021222223242425262655
:10059000272829292A2B2C2D2D2E2F30313232338A
:1005A0003435363738393A3B3C3D3E3F4041424393
:1005B0004445464748494A4C4D4E4F505153545577
:1005C0005658595A5B5D5E5F616264656668696B27
:1005D0006C6D6F7072737577787A7B7D7E808283A5
:1005E0008587888A8C8E8F91939596989A9C9EA0E9
:1005F000A2A3A5A7A9ABADAFB1B3B5B7BABCBEC0F6
:10060000C2C4C6C9CBCDCFD1D4D6D8DBDDDFE2E4BE
:10061000E7E9EBEEF0F3F5F8FAFDFF290014001A14
:10062000000800150017001C0018000C0012001331
:10063000002F002A00C25C2B61040016000700098D
:10064000000A000B000D000E000F003300340028DC
:10065000000000E1001D001B00060019000500114C
:10066000001000360037003800E10052000000653D
:1006700000E000E300E20001512C002C000251E6F2
:1006800000E4004C00500051004F0035001E001FD8
:10069000002000210022002300240025002600273E
:1006A0000030003100C35C01002D002E002F00300F
:1006B0000031005000510052004F00330001000192
:1006C0000000000100010001000100010001000123
:1006D00000010001000100460001004B0000000184
:1006E00000010001000100010001000100035101AF
:1006F00000010001004A004E004D0035023A003B67
:10070000003C003D003E003F0040004100420043ED
:10071000004400450001000100010001000100014A
:1007200000010001000100010001000100010001C1
:1007300000000001000100010001000100010001B2
:100740000001000100C85CC75C0100C95C00000139
:10075000000100010001000351010001000100013E
:100760000001000100C65CCA5CC55C01000100011B
:100770000001000100010001000100010001000171
:100780000001000100010001000100010001000161
:100790000001000100010001000100010001000151
:1007A0000000000100010001000100010001000142
:1007B0000001000100010001000100010000000132
:1007C0000001000100010001000100010001000121
:1007D0000001000100010001000100010001000111
:1007E0000001000100010001000100010001000101
:1007F00000010001000100010001000100010001F1
:1008000000010001000100010001000100010001E0
:1008100000000001000100010001000100010001D1
:1008200000010001000100010001000100000001C1
:1008300000010001000100010001000100010001B0
:1008400000010001000100010001000100010001A0
:100850000001000100010001000100010001000190
:100860000001000100010001000100010001000180
:100870000001000100010001000100010001000170
:100880000000000100010001000100010001000161
:100890000001000100010001000100010000000151
:1008A0000001000100010001000100010001000140
:1008B0000001000100010001000100000000000033
:1008C0000000000000000000000000000000000028
:1008D0000000000000000000000000000000007E9A
:1008E0000F00D4FFFFFFC7000000780000000000E9
:1008F0000000002A2B28000000000000000000007B
:1009000000000000000029000000002C1E342021FF
:100910002224342627252E362D3738271E1F202146
:1009200022232425263333362E37381F04050607A5
:1009300008090A0B0C0D0E0F1011121314151617BF
:1009400018191A1B1C1D2F3130232D3504050607DD
:1009500008090A0B0C0D0E0F10111213141516179F
:1009600018191A1B1C1D2F3130354C0011241FBEC5
:10097000CFEFDAE0DEBFCDBF04B603FE18C0809132
:10098000030590910405A0910505B09106058730F7
:10099000904BA740B04B59F41092030510920405F8
:1009A0001092050510920605E0E0F8E3099511E0C4
:1009B000A0E0B1E0EAEBFCE602C005900D92AA3996
:1009C000B107D9F725E0AAE9B1E001C01D92A33033
:1009D000B207E1F70E94F0040C945B360C9400001F
:1009E000CF93DF93CDB7DEB7E4970FB6F894DEBFB1
:1009F0000FBECDBF84B7877F84BF0FB6F894A8958C
:100A000080916000886180936000109260000FBE4A
:100A100090E080E80FB6F8948093610090936100B5
:100A20000FBE85B7806885BF85B7806885BF89E2BE
:100A300094E290939B0180939A010E9476210E94F8
:100A40001D210E9435180E9454188091E200846094
:100A50008093E20078948091ED018823A1F01091B9
:100A6000E9001F709091EC00892F817090FD80E863
:100A7000182B1092E9008091E80083FD0E940F1569
:100A80001F701093E90082E084BD93E095BD9AEF5A
:100A900097BD80936E000E94F823811102C00E94CE
:100AA000E9230FE111E073E2E72E71E0F72ED801A0
:100AB0008D918D018F3F11F00E946E24E016F1069A
:100AC000B1F703E211E061E3E62E61E0F62EF801F2
:100AD00081918F018F3F11F00E946E24E016F10684
:100AE000B1F788E0E6EBF1E0DF01282F1D922A95AF
:100AF000E9F7ECE9F1E0DF011D928A95E9F7259A23
:100B00002D98269A2E98279A2F980E9409278111AE
:100B100002C00E94142782E090E00E944635809334
:100B2000A5010E94F8269093FF048093FE040E9482
:100B30008524EFE3FCE93197F1F700C000000E9443
:100B400085248091B60180FF08C06FEF7FEF80E0C1
:100B500090E00E9478350E94E82C83E090E00E94AB
:100B600046350E94DE1C8091EE010E94BC348091CB
:100B7000A401811133C00E940927811104C00E9481
:100B800014270E945B2988E090E00E944E35609314
:100B900095027093960280939702909398026E7FCD
:100BA00071F40E945B2988E090E00E944E356093CA
:100BB00095027093960280939702909398020E94F8
:100BC00014291092C9038091950280FF04C060E04F
:100BD00086950E94AD2A81E08093A40156985E9A82
:100BE00057985F9A8FE891E00197F1F700C00000F5
:100BF00089B186FB882780F929B130E0220F232FA5
:100C0000221F330B232B11F092E001C090E0892BBF
:100C10008093B00184E091E09093F6048093F50412
:100C20008091ED01853009F047C000E112E180912B
:100C3000ED01853009F03CC08091ED01843021F157
:100C40001092F904A8E1B0E0E0E40FB6F894A8959A
:100C5000A09360000FBEE093600083B7817F846043
:100C600083BF83B7816083BF7894889583B78E7F75
:100C700083BF0FB6F894A895809160008861809337
:100C80006000109260000FBE8091E301882309F498
:100C9000CECF0E948524E6EBF1E081919191892BE2
:100CA00009F09FC62EEB31E02E173F07B1F7BFCFFB
:100CB0000E94E21C0E940B2E0E94852481110E943A
:100CC000412DE6EBF1E0A6EAB1E000E010E0702F84
:100CD000219131918D919D9182279327009779F1F0
:100CE00060E0EE24E394F12CAC014E215F21452B12
:100CF00009F16BA77CA72E213F2181E0232B09F46A
:100D000080E08DA70E944D2D8160782F9FA78EA730
:100D10004BA55CA56DA58FA50E943532000F111F54
:100D2000F801EA55FE4F80819181E826F926F1828B
:100D3000E0821AC06F5FEE0CFF1C6E30A9F60F5FE9
:100D40001F4F0430110519F68FEF88AB89AB1AAA33
:100D50000E944D2D8160782F9CAB8BAB48A959A97F
:100D60006AA98CA90E9435328091100190911101DD
:100D7000019659F1B12CE6E1AE2E1EC0A89EF001FD
:100D8000A99EF00D1124E556FB4FE288F388E1148B
:100D9000F10419F47FEAE72EF12CA89E6001A99EC8
:100DA000D00C1124860105561B4FD80116968C9144
:100DB000169781110FC0B3948B2D90E020911001F4
:100DC0003091110128173907CCF680911601811155
:100DD00013C03AC01D968D919C911E970E94322D92
:100DE000E816F90640F7C8010E945E2EC6018F552D
:100DF0009B4F0E94172EDFCF809192049091930415
:100E0000009711F10E94322D2091D0033091D1032F
:100E100028173907C8F4909190048091910498178D
:100E200059F00E94A42F1092D1031092D003109277
:100E300093041092920408C00E94242F10929304ED
:100E4000109292040E94852F8091C903882309F48F
:100E500083C08091C803E0919502E695E81BE0937A
:100E6000C403823059F4F0E0E050FF4FE4910E2FBC
:100E700010E067E4E62E60E2F62E49C0863059F4B1
:100E8000F0E0E350FF4FE4910E2F10E057E3E52E22
:100E900050E2F52E3CC0893061F4E695F0E0E65072
:100EA000FF4FE4910E2F10E04DE0E42E40E2F42ECF
:100EB0002EC08F3059F4F0E0E950FF4FE4910E2F2F
:100EC00010E03FEBE32E3FE1F32E21C0823191F0A1
:100ED0008331B9F48E2F63E00E94F935E92FF0E0F9
:100EE000EC50FF4FE4910E2F10E022EEE22E2EE1A7
:100EF000F22E0DC004EF11E095E8E92E9FE1F92EE6
:100F000006C000ED17E081EEE82E8EE1F82E80910C
:100F1000C503882361F01092C5030E944D2D909364
:100F2000C3038093C2031092C7031092C6030E94AA
:100F30004D2DE091C203F091C3038E1B9F0B8F3F99
:100F40009F4750F40E0F1F1F1093C3030093C2035B
:100F500082EC93E0F70109958091B001E82FEE0F44
:100F6000EE0FE093B00189B186FB222420F8312CEA
:100F700099B1892F90E0880F892F881F990B0097CE
:100F800011F082E090E0822993298E2B8093B001AA
:100F90008F70E82FF0E0EF5CFE4F90818091AF0101
:100FA000890F8093AF0184305CF08091AE018F5F38
:100FB0008093AE0160E080E00E94BE2221E001C08B
:100FC00020E08091AF018D3F54F48091AE018150BB
:100FD0008093AE0161E080E00E94BE2221E080911A
:100FE000AF01082E000C990B64E070E00E941936E6
:100FF0008093AF0121110E94412D86E0ECEBF3E0DC
:101000008E010F5F1F4FD80101900D928A95E1F775
:10101000C090BE03D090BF03E090C003F090C10326
:101020001092BE031092BF031092C0031092C1032E
:10103000C11003C0DD2009F451C08091BA03909122
:10104000BB030E94322D9C019091B603992309F4B1
:10105000E7C42531310508F441C09F3F19F09F5F77
:101060009093B603CC2061F00E94D32B1C1414F48F
:1010700091E001C09FEF899F802D11248093BE03D2
:10108000DD2061F00E94D32B1D1414F491E001C007
:101090009FEF899F802D11248093BF033091BE0361
:1010A0003323E1F02091BF032223C1F045EB340349
:1010B000C0011124992319F09093BE0303C081E06D
:1010C0008093BE0335EB2303C0011124992319F04B
:1010D0009093BF0303C081E08093BF03E11003C07E
:1010E000FF2009F451C08091B8039091B9030E9488
:1010F000322D9C019091B503992309F496C42135B2
:10110000310508F441C09F3F19F09F5F9093B503EC
:10111000EE2061F00E94B12B1E1414F491E001C086
:101120009FEF899F802D11248093C003FF2061F0E1
:101130000E94B12B1F1414F491E001C09FEF899F0E
:10114000802D11248093C1033091C0033323E1F03B
:101150002091C1032223C1F045EB3403C0011124C7
:10116000992319F09093C00303C081E08093C003DA
:1011700035EB2303C0011124992319F09093C10387
:1011800003C081E08093C1038091BE0381110BC035
:101190008091BF03811107C08091C003811103C0FA
:1011A0008091C10381110E94022BCB82DC82ED82EF
:1011B000FE8286E0F801ACEBB3E001900D928A95D7
:1011C000E1F70E940B2E9091B10189138093B10138
:1011D0008091ED01843009F023CD83E08093E90014
:1011E0008091E80082FF1CCD8091E80085FF21C03E
:1011F0000E948C1981111BC0A0E2EA2EF12C68011B
:1012000009C08091F100D6018D936D01B1E0EB1A18
:10121000F10869F08091E80085FDF3CF8091E80046
:101220008B778093E8000E948C19882399F391E0D2
:1012300001C090E08091E8008B778093E8009923CB
:1012400009F4EECCE090CE03F090CF038981E11455
:10125000F10461F08E3F09F0C0C38A81833008F445
:1012600035C28550833008F0B8C330C28B3009F4E2
:1012700017C288F5853009F487C0B8F4823009F4C4
:1012800046C030F4813009F0A6C31A8289E0EBC071
:10129000833009F46CC0843009F09DC34C816B81AC
:1012A0008A810E94EF209D83B9C3873009F47AC0F8
:1012B00008F475C0883009F4B7C0893009F08BC3D1
:1012C0006091950270919602809197029091980298
:1012D0000E94272982C3803109F424C160F48D3033
:1012E00009F4C5C008F4C1C08E3009F4C3C08F3002
:1012F00009F4EAC070C3823109F419C108F415C1B8
:10130000833109F43EC18E3F09F4E0C164C38A8190
:10131000823009F47CC3833051F0813009F05BC323
:101320000E94412D9B838C837D836E8356C3809165
:10133000CA039091CB03892B09F44FC38091B60166
:101340009091B7019B838C838091B8019091B901F2
:101350009D838E838091BA019091BB019F83888782
:101360008091BC019091BD0199878A8736C38A819B
:10137000823009F030C36B817C818D819E810E9417
:1013800033360E94C72329C32D813E81322723276C
:1013900032274C816B818A810E94B9201EC30E9432
:1013A0007F301BC38A818138B1F050F4803809F056
:1013B00014C320E04B81609197028091960231C066
:1013C000823859F1833809F008C320E0409198022F
:1013D0006C818B8126C060E08B810E94AD2A9B814D
:1013E00080919502911111C08E7F80939502109289
:1013F000C903EFEFF0E722E0E150F0402040E1F7D1
:1014000000C000000E94CD28E8C281608093950250
:1014100060E086950E94AD2AE0C28B81809399029C
:10142000DCC20E941A2AD9C28A81813891F030F434
:10143000803809F0D2C28091980215C0823889F0B4
:10144000833809F0CAC2809196028B8380919702FB
:10145000ADC18091950280FF02C0869504C080E0F6
:1014600002C0809199028B83B8C280E152C21A8275
:1014700081E8F9CFEA80FB80FE24EF24FE24AC80D3
:10148000B12C3DE1A316B10408F0A7C26801C70161
:1014900081589C4F9601201B310B2A153B0508F003
:1014A0009CC241E8E416F10430F40E944635D601AE
:1014B00014968C9302C0F6011482FFEFEF1AFF0A14
:1014C0002FEFC21AD20AE3CF8091CA039091CB03C7
:1014D000892B09F482C2EA80FB80FE24EF24FE24DB
:1014E000CC80D12C3DE1C316D10408F076C258015E
:1014F000C70181589C4F9501201B310B2C153D05D0
:1015000008F06BC241E8E416F10428F4D501149602
:101510006C910E945A35BFEFEB1AFB0AEFEFAE1A3F
:10152000BE0AE6CF0E94533058C286E0F2C1EA807C
:10153000FB80FE24EF24FE24AC80B12CFDE1AF162D
:10154000B10408F04AC26801C70187969601201BC2
:10155000310B2A153B0508F040C220EAE21622E0D2
:10156000F20630F40E944635D60114968C9302C0E0
:10157000F6011482FFEFEF1AFF0A2FEFC21AD20A08
:10158000E3CFEA80FB80FE24EF24FE24AC80B12C64
:101590003DE1A316B10408F020C240EAE41642E09F
:1015A000F40608F01AC280EA92E08E199F098A15A3
:1015B0009B0508F412C2370187E2680E711C809106
:1015C000CA039091CB03892B11F0680160C0E0FE43
:1015D0000FC0C70186960E94463590E0982F882755
:1015E0002D81822B81159C4531F48FEF8D8303C0B3
:1015F000C12CD12C03C0CC24C394D12CC7018A0D9B
:101600009B1D450180FF1BC0B1E08B1A910865E06E
:10161000462E512C4C0E5D1E480C591CC3018A0DE0
:101620009B1D0E944635F201208130E0322F222797
:10163000282B21153C4519F48FEFD2018C93F8012A
:10164000EC0DFD1D2FEFCF01801B910B8815990527
:1016500008F0BBCF848190E0982F88273581832BB9
:1016600081159C4511F4248325833296ECCFE0EA62
:10167000EE16E2E0FE0628F4D60114966C910E9464
:101680005A35BFEFEB1AFB0AEFEFCE1ADE0AC7019D
:1016900087969601201B310B2A153B0540F39DC10F
:1016A0008091CA039091CB03892B09F496C1C8019C
:1016B0000E94EB19FFEF21EE34E0F1502040304062
:1016C000E1F700C000000E94E82C87C1EA818E2F5C
:1016D00090E08E30910508F080C1FC01EA5AFF4F7E
:1016E0000C942D3688E0E7E1F1E0DE01919601905F
:1016F0000D928A95E1F780E2D8011D928A95E9F76B
:1017000085E0898388E0FE01B196DE0115963FC130
:1017100080EC898381E08A831B821C825EC18C817C
:1017200090E0982F88272B81820F911D092E000CA5
:10173000AA0BBB0B45E0880F991FAA1FBB1F4A9538
:10174000D1F7AC01BD01405E5F4F6F4F7F4F48172F
:1017500059076A077B0708F440C1803CE1E09E0717
:10176000A105B10508F039C1413CF1E05F07610511
:10177000710520F040EC51E060E070E0481B590B2F
:10178000BC016C5F7E4FC8010E942D3526C1FB80D5
:10179000EC8040E06E2D8F2D0E948F2099838A83EC
:1017A00041E06E2D8F2D0E948F209B838C8315C16D
:1017B0002E813F813227232732274D816C818B81F7
:1017C0000E945D200AC140E250E06FEF70E0C80166
:1017D0000E9454368091CA038983EA821B821C824C
:1017E00083E08D838DE01AC181E090E09093CF0378
:1017F0008093CE0382E390E09093B5018093B4018F
:101800000E944D2D9093B3018093B201E6C0EF2862
:10181000D9F18091BC019091BD01892F99278295C2
:10182000869587702091B6012170F22EF822809162
:10183000B2019091B3010E94322D85369105F0F0EE
:10184000FF20E1F00E944D2D9093B3018093B201EF
:101850008091B4019091B50101979093B501809367
:10186000B401892B89F41092CF031092CE0381E04A
:1018700090E09093CB038093CA0306C082E390E08C
:101880009093B5018093B4018091CA0389838091BC
:10189000CE038A838091B401E6CD1092CB031092DF
:1018A000CA039BC040E250E06FEF70E0C8010E94A5
:1018B000543693C08B81823071F1E8F4882309F1AA
:1018C000813009F08AC08C819AE0D92E7E01B1E284
:1018D000EB0EF11CF7012D2D11922A95E9F7B701B6
:1018E0000E9422318983F701DE01129601900D9248
:1018F000DA94E1F772C0833069F1843009F44CC0A6
:101900006CC080E2D8011D928A95E9F784E0898352
:101910008CE08A8362C06C818AE0FE013596DE012C
:10192000919601900D928A95E1F7643070F43AE057
:10193000639FB001112461527D4F4AE050E0CE0117
:1019400081960E947E3580E001C08FEF89830E94DE
:10195000762143C06C81CE0181962AE0DC011D9284
:101960002A95E9F76C3060F4BAE06B9FB00111245E
:10197000695F7C4F4AE050E00E94363580E001C04C
:101980008FEF89838AE0FE01B196DE011296019005
:101990000D928A95E1F721C06C818AE0FE013596AF
:1019A000DE01919601900D928A95E1F76C3070F40A
:1019B000EAE06E9FB0011124695F7C4F4AE050E07D
:1019C000CE0181960E947E3580E001C08FEF898331
:1019D0000E941D2102C08FEF8983C8010E94EB196C
:1019E0001FC909BD19BD09B400FEFDCF8091D80003
:1019F0008F7D8093D8008091E00082608093E0002A
:101A00008091E00081FDFCCF0E94E21C10C986E2BB
:101A100090E00E9446351B821C821D828E83DDCFA2
:101A20002B30310508F01BCB59CB2B30310508F09A
:101A30006CCBAACB6F927F928F929F92AF92BF9204
:101A4000CF92DF92EF92FF920F931F93CF93DF938A
:101A500000D000D0CDB7DEB7FC0180819181238119
:101A60003481232B31F09F3F31F491E08F3F19F403
:101A700003C091E001C090E090FDF8C67F0161E0F5
:101A8000CF010E94FE318C01D70112968C918111F9
:101A900005C0F701828181113EC0F4C08091100120
:101AA000909111010196A9F33BE9C32E34E0D32EA6
:101AB000A12CB12C99249394809110019091110143
:101AC0008A159B0534F3D60116968C9116978823B8
:101AD000D9F019968D919C911A970817190739F426
:101AE0008091990490919A040817190769F0F601FA
:101AF000978614870387C6010E945E2EC60106964C
:101B00000E94172E10929804FFEFAF1ABF0A26E129
:101B1000C20ED11CD1CFC80182519F45409708F019
:101B2000E0C58FEF93E00E9446358111B4C02EEEE0
:101B3000D22ED00E0FE713E0DD2071F0011584E006
:101B4000180709F4A8C0C8010E944635811101C0D8
:101B5000DA940F5F1F4FF0CF19821A821B821C820A
:101B6000AA24AA9468019FEFC91AD90AC8010E9441
:101B7000463589831A82882309F48DC0813009F0A3
:101B80007CC04801A2E08A0E911CC6010E94463525
:101B9000B82E8A83882309F47EC08FEF8B0D8330A3
:101BA00060F46801B3E0CB0ED11CC4010E9446353D
:101BB0008B83811162C08601D5CF8BEF8B0D833073
:101BC00078F53801E3E06E0E711CC4010E944635C1
:101BD0008B83811102C06301EECF6801F4E0CF0E68
:101BE000D11CC3010E9446358C83882321F32B81AD
:101BF0003C8121308FEF380718F0922F80E001C030
:101C0000C901A6E0BA1631F0B7E0BB1631F00E9468
:101C10001223D1CF0E947222CECF0E94CC21CBCFF3
:101C2000E4E0BE1611F06401C6CFC4010E9446353F
:101C3000B82E6801F4E0CF0ED11CC80103960E94B3
:101C40004635BB2041F1882331F1282F30E0215067
:101C50003109A29EA001A39E500D11248B2D90E06E
:101C60000197840F951F019708F4A5CFAFE9BFE056
:101C70001197F1F700C00000F6CFCE0101960E9447
:101C80004B3199CF00318FE51807C1F481E00E94F4
:101C9000C71C0E94041580918E03877009F4E6C565
:101CA000D70112968C91882309F4E0C58091FF0436
:101CB00082FDDCC582E00E940428D8C501319FE581
:101CC000190711F482E0E3CF6801F7E5DF1A2FEF7F
:101CD000C216D10411F008F03FC06FE972E08C2DFC
:101CE0000E942231892BC1F586E18C9DF0018D9DEA
:101CF000F00D1124E556FB4F86818130C9F48091A7
:101D00009F029091A002892B39F18091A1029091BC
:101D1000A202892B09F18091A3029091A402892B40
:101D2000D9F48091A5029091A602892B49F014C0A4
:101D3000823091F48091A3029091A402892B61F0EA
:101D400026E12C9DC0012D9D900D112485569B4FA1
:101D5000FC01108A0E945E2EC80197558F3F9105A5
:101D600011F008F053C02091100130911101281793
:101D7000390724F49093110180931001D701129632
:101D80002C91129736E1389F5001399FB00C1124E5
:101D9000F501E556FB4F6F01208B12969C918681D1
:101DA000992351F1128701878F5F86830E944D2D01
:101DB000D6011E969C938E931D978091B103179622
:101DC0008C9317979091980480919704892B18967B
:101DD0008C931897ED91FC911197309741F05496A0
:101DE0006D917C915597C5018F559B4F0995109327
:101DF0009A04009399040AC0882341F081898823BA
:101E000029F0C5018F559B4F0E94172E033FFCE51B
:101E10001F0759F190F4083D8CE51807E9F0093DDA
:101E20009CE51907A1F1073DACE51A07B1F506E2FB
:101E300021EE41EE67ED7CE514C0053FBCE51B07D4
:101E400001F1C8F0063FFCE51F0739F507E225EE72
:101E500046EE66EF7CE505C007E225EE45EE68ED4F
:101E60007CE5C7010E94832E16CF06E221EE40EEEC
:101E700063EF7CE5F6CF07E225EE44EE64EF7CE508
:101E8000F0CF06E221EE42EE65EF7CE5EACF08E214
:101E900021E045EE69ED7CE5E4CFD70112968C9107
:101EA000882309F45BC1109296040330BDE51B073B
:101EB00058F40A3FECE51E0780F4C80182509C45A7
:101EC000449708F035C109C00136FDE51F0729F028
:101ED000053A2DE5120709F02BC10E94F8269093D0
:101EE000FF048093FE0401318CE5180709F4C6C095
:101EF00008F042C00930ACE51A0709F49BC000F5B0
:101F00000530ECE51E0709F485C078F403302CE5B4
:101F1000120709F478C008F07AC002301C4509F0B5
:101F2000F7C08091FE048160F1C00730ACE51A076C
:101F300009F478C008F07AC08091FE048061E6C0A0
:101F40000D30ECE51E0709F487C058F40B302CE582
:101F5000120709F479C008F07BC08091FE04886004
:101F60006FC00F309CE5190709F480C008F082C0EB
:101F70008091FE04877FCAC00D3FBCE51B0709F4B2
:101F800071C000F50531FCE51F0709F485C068F450
:101F900003318CE5180709F475C008F095C00E945C
:101FA000E21C8091FE048F77B1C00B3FACE51A07AD
:101FB000A9F108F054C00A3F1C4509F0A9C080915E
:101FC000FF0440C00130FDE51F0709F489C058F443
:101FD0000F3F8CE5180709F45AC008F069C08091DA
:101FE000FF0482602FC00136ADE51A0709F47EC0F8
:101FF000053ABDE51B0709F483C002301D4509F011
:1020000087C060E06EC08091FE0482607FC08091D6
:10201000FE0416C08091FE04886078C08091FF04A1
:1020200082604FC08091FE04806270C08091FE0487
:1020300080646CC00E94E21C8091FE04806866C0CF
:10204000846064C081603DC08091FE048E7F5EC06C
:102050008091FE048D7F5AC08091FE0416C080914D
:10206000FF0418C08091FF048D7F2BC08091FE0477
:102070008F7E4CC08091FE048F7D48C08091FE040D
:102080008F7B44C08091FE04877F8B7F3FC080910F
:10209000FF048D7F8E7F15C08091FE0482FB222776
:1020A00020F991E0922790FB82F990FB83F92EC0F2
:1020B0008091FF04982F909591708E7F892B90FBD3
:1020C00081F98093FF0424C00E94E21C8091FE04E9
:1020D00087FB222720F991E0922790FB87F916C011
:1020E00061E08EE090E00E945A3512C08091FE04BB
:1020F00084FB222720F991E0922790FB84F906C007
:102100008091FE04982F909590FB80F98093FE04B7
:102110006091FE041091FF0484E090E00E945A3523
:10212000612F82E290E00E945A350E94E21CB3CDFA
:102130000631BCE51B0721F5809197048A7A91E06E
:1021400009F490E09093BE01882311F065E301C08B
:1021500069E281E293E00E94AA2D0FC00631ECE50E
:102160001E0709F040C08091BE01882309F4C8C24F
:1021700065E381E293E00E94822D0E9497278BCD38
:102180000A358DE5180749F158F40115ACE51A0731
:10219000B1F00E3D1C4509F042C00E9414277BCDD2
:1021A0000B35EDE51E07D9F00C351D45C1F58091C5
:1021B000FF0482FB882780F991E0892711C00E94E3
:1021C000E21C2FEF84E39CE0215080409040E1F737
:1021D00000C000000E94E82C5ECD81E001C080E0DC
:1021E0000E9421281CC08091970482720B3CFCE560
:1021F0001F0709F422C308F0A8C2063C9CE5190792
:1022000009F407C308F08CC2033CBCE51B0709F4C2
:10221000F6C208F077C2023C1C4509F4CBC2F701B4
:10222000868197810097B9F4F7018281008111813D
:10223000882349F0C8010E942C1AD82E682FC801A3
:102240000E94941C04C0C8010E94641CD82EB801CE
:102250008D2D0E9463300E945E258C01D70112965D
:10226000DC9012971596CC90C2949FE0C922809181
:102270008E038770B9F0DD20A9F0812F807F803434
:1022800021F080E2800F883068F08091FF0482FDA9
:1022900009C082E00E94042880918E038770BB24CD
:1022A000B3948111B12CA12EA2948FE0A8228A2D83
:1022B00090E08C30910508F0EFC1FC01EC59FF4F24
:1022C0000C942D36812F807F1F70882311F012957A
:1022D000107FDD20B9F0112309F4CBC180E2800F1B
:1022E000883010F0011106C090919704192B1093BB
:1022F000970405C090919804192B109398040E949C
:102300009727B7C1802F0E949F1D112309F4C4C1D4
:1023100080E2800F883060F1002351F1812F0E940C
:10232000892729C0812F807F1F70803211F012957C
:10233000107F002321F0013009F45EC069C0809154
:10234000FF0482FF1BC0DD2069F0112339F090915A
:102350009704192B109397040E94972780E00E94FE
:10236000FF1D9AC180E00E949F1D112309F494C1B2
:10237000812F0E9490270E9497278EC1DD2031F186
:10238000CC20F1F0B1E0CB120FC08091B103182B3B
:10239000181709F481C10E944D2D9093B0038093CA
:1023A000AF031093B10378C1E5E0CE1209C00E94DB
:1023B0007E2780918B03181779F110938B032CC023
:1023C0008091B103812B0E94951D66C1CC2051F0F4
:1023D000F1E0CF120DC080919704812309F45CC114
:1023E0000E9454280E947E27812F0E948E1D54C176
:1023F00025E0C212F7CF50C1DD2029F085E08C1511
:1024000008F44AC109C094E09C1508F445C1ECCF1A
:10241000DD2021F0C1102DC1812FD5CFC1102EC1DB
:10242000E3CF812F86958695837019F0813059F01E
:1024300033C1DD2019F0C801937002C080E090E044
:102440000E94F52D2FC1DD2019F0C801937002C044
:1024500080E090E00E94DF2D25C1802FDD2019F063
:102460000E94F32B02C00E942C2B0E94022B1AC147
:10247000812F8370A9F5D11013C1402F4295469545
:102480004770440F440F802F8F7090E09C01042E02
:1024900001C0220F0A94EAF704FF08C08FE090E021
:1024A00001C0880F4A95EAF7809501C080E0169533
:1024B00016951370123069F088F490919A021130D9
:1024C00019F0822B892302C0922B892B0E94DE1CDB
:1024D000E7C0822B90919A028927F8CF822BF6CF02
:1024E000DD2019F0812F817001C08695882309F4C1
:1024F000D7C0402F429546954770440F440F802F18
:102500008F7090E09C01042E01C0220F0A94EAF71C
:1025100004FF08C08FE090E001C0880F4A95EAF7F9
:10252000809501C080E0169516951370123059F011
:1025300078F49091EE01113019F0822B892309C0B3
:10254000922B892B06C0822B9091EE01892701C026
:10255000822B0E94C11CA4C01F70DD2039F0812F86
:102560000E94D31C802F0E94951D9AC0802F0E942C
:102570008E1D812F0E94C71C93C0023F61F128F479
:10258000003F41F0013F01F16FC0033F59F1043FAB
:10259000B9F06AC0DD2079F0F4E0FC1508F47CC0E5
:1025A0001F7181E090E001C0880F1A95EAF79091C1
:1025B000EE01892721C025E02C1508F46DC0F0CF6D
:1025C0008091FF0482FF1BC0DD2039F0812F8F71C5
:1025D0000E94D31C61C0DD20C9F3812F8F710E943E
:1025E000C71C5AC0DD2039F01F7181E001C0880F7F
:1025F0001A95EAF701C080E00E94C11C4DC0DD20A1
:10260000D9F080918B030E94902780918E03877070
:10261000843039F40E94FD27812F8F710E94C71CDE
:102620005EC084E08C1508F45AC01F71812F0E948F
:10263000D31C63E0812F11C09091970480918B038C
:10264000892B8093970494E09C1550F40E94FD27F9
:102650000E94542864E0812F8F710E943E283FC061
:1026600081E00E9404283BC0DD2029F0CC2009F441
:10267000ADCF802F74CECC2009F4AFCF093349F40D
:10268000AFEFB7EEE3E0A150B040E040E1F700C0AB
:102690000000802F0E949F1D88EF8A0D843010F467
:1026A0000E940B2EBB20B1F080918E0380FD12C0E2
:1026B000D70112961C928595859585950E94D31C0D
:1026C000C7010E941A0D80918E0385958595859589
:1026D0000E94C71C60E0C7010E94FE31C7C0B12C38
:1026E000DFCF0031AFE51A0711F481E006C00131F8
:1026F000BFE51B0709F030CB82E00E94D31CC9CA9A
:1027000069E237CD043C2CE5120709F47DC0053C95
:102710001C4509F084CD4BE95AE264EA7AE296C09E
:10272000083CACE51A0709F47EC008F477C0093C00
:10273000ECE51E0709F47CC00A3C1C4509F06FCD8E
:1027400047E75AE26BE67AE281C0003D2CE51207CA
:1027500009F487C098F40D3CACE51A0709F479C078
:1027600008F470C00E3CECE51E0709F477C00F3C7E
:102770001C4509F054CD68E086E075C0063D2CE5A7
:10278000120788F4033D8CE5180708F084CA013D60
:102790009CE5190709F47FCA023D1C4509F03FCDAD
:1027A00061E18FE060C00D351D4509F038CD68E16D
:1027B00083E159C08091950280FF1BC08E7F80937A
:1027C0009502609195027091960280919702909186
:1027D00098020E9427291092C903EFEFF0E722E048
:1027E000E150F0402040E1F700C000000E94CD28F9
:1027F00052CA81608093950261E086952CC04FEEAD
:102800005AE268EF7AE222C048EF5AE26FEE7AE2CB
:102810001DC044EA5AE26BE97AE218C043E85AE282
:102820006FE87AE213C04FE85AE263E87AE20EC03A
:102830004BE65AE267E77AE209C049E359E26AE403
:1028400079E204C04AE459E269E379E20E94232470
:1028500022CA61E081E00E94AD2A1DCA65E082E0E3
:1028600002C06EE089E00E94112415CA0F900F90FB
:102870000F900F90DF91CF911F910F91FF90EF90EC
:10288000DF90CF90BF90AF909F908F907F906F9090
:1028900008958091E50187FF11C08091E80082FDD5
:1028A00005C08091ED018111F8CF11C08091E80041
:1028B0008B770BC08091ED01882349F08091E8006F
:1028C00080FFF8CF8091E8008E778093E80008952C
:1028D000982F973068F59093E900981739F0709128
:1028E000EC002091ED005091F00003C0242F762FD2
:1028F00050E021FD02C09F5FECCF3091EB003E7FA6
:102900003093EB003091ED003D7F3093ED0030913E
:10291000EB0031603093EB007093EC002093ED00FE
:102920005093F0002091EE0027FDE5CF80E0089560
:102930008F708093E90081E008952091EB01309140
:10294000EC012617370748F06115710539F420911D
:10295000E8002E772093E80001C0B901FC0120E0D7
:102960006115710579F18091ED018823F1F18530D0
:10297000F1F18091E80083FD3CC08091E80082FD88
:102980002EC08091E80080FFEBCF2091F300809172
:10299000F20090E0922B6115710551F0883091059D
:1029A00038F421912093F100615071090196F3CF21
:1029B00021E0089709F020E08091E8008E7780936D
:1029C000E800CECF2111CFCF0AC08091ED0188233E
:1029D00061F0853061F08091E80083FD0AC080914C
:1029E000E80082FFF2CF80E0089582E0089583E05E
:1029F000089581E008950895BC0184E00C94BE2CF4
:102A0000BC0183E00C94BE2C8091EE01982F96704F
:102A1000963011F4886001C0877F0C94C11C1F930D
:102A2000CF93DF93CDB7DEB7AA970FB6F894DEBF8A
:102A30000FBECDBFE5EEF1E08DEE91E02091F1000B
:102A400021938E179F07D1F78091E601833009F417
:102A500063C030F4813071F0823009F49DC0B4C09D
:102A60008A3009F489C08B3009F46EC0893009F0CE
:102A7000ABC020C08091E501813A09F0A5C08091EA
:102A8000E800877F8093E8008091E9019091EA0156
:102A9000892B21F460E282EC91E003C060E080E0E9
:102AA00090E070E00E949D148091E8008B77809305
:102AB000E8008AC08091E501813209F085C08091EB
:102AC000E9019091EA01009719F0029709F07CC0A2
:102AD0008091E800877F8093E8008091E80082FD84
:102AE00005C08091ED018111F8CF6EC02091F300F7
:102AF0008091F20090E0922B029731F48091F100E6
:102B0000813011F0863021F48091F1008093C10171
:102B10008091E8008B7754C08091E501813A09F0FB
:102B200053C08091E9019091EA01892B09F04CC0D2
:102B30008091E800877F8093E8008091E80080FF23
:102B4000FCCF8091120137C08091E5018132E1F51F
:102B50008091E9019091EA01892BB1F58091E8001B
:102B6000877F8093E8000E9449148091E701809359
:102B700012010E94E21C28C08091E501813221F5FA
:102B80008091E800877F8093E8000E94491480913B
:102B9000E8018093C00118C08091E501813AA1F459
:102BA0008091E800877F8093E8008091E80080FFB3
:102BB000FCCF8091C0018093F1008091E8008E7776
:102BC0008093E8000E9449148091E80083FFEBC1E4
:102BD0008091E5019091E601492F50E04A3051057E
:102BE00008F0E1C1FA01E059FF4F0C942D3680380E
:102BF00021F0823809F0D7C108C08091E20190919C
:102C0000E301992389F082600FC08091E9018F7000
:102C1000873008F0C8C18093E9008091EB0085FB04
:102C2000882780F91092E9009091E800977F9093AF
:102C3000E8008093F1001092F1007CC1282F2D7FD5
:102C400009F0B1C1882319F0823061F0ACC18091E4
:102C5000E701813009F0A7C1933009F080E080934B
:102C6000E3012EC08091E70181112AC08091E90122
:102C70008F702FEF280F263008F095C18093E90060
:102C80002091EB0020FF1CC0933021F48091EB00D9
:102C9000806214C09091EB0090619093EB0021E072
:102CA00030E0A90102C0440F551F8A95E2F7409316
:102CB000EA001092EA008091EB0088608093EB00BC
:102CC0001092E9008091E800877F8093E8000E94DD
:102CD000491469C1811167C11091E7011F77809183
:102CE000E3008078812B8093E3008091E800877F68
:102CF0008093E8000E9449148091E80080FFFCCF97
:102D00008091E30080688093E300111102C082E0AB
:102D100001C083E08093ED0146C18058823008F005
:102D200042C12091E7013091E8012C3D53E0350785
:102D300079F583E08A838AE289834FB7F894DE01CC
:102D4000139620E03EE051E2E32FF0E0509357006D
:102D5000E49120FF03C0E295EF703F5FEF708E2F8C
:102D600090E0EA3010F0C79601C0C0968D939D9315
:102D70002F5F243149F74FBF8091E800877F809310
:102D8000E8006AE270E0CE0101960E949D14C0C086
:102D90008091E9019091EA01432F55274330510575
:102DA000B1F068F44130510509F40CC142305105CD
:102DB00009F0F9C08BE590E0E2EEF3E057C0413254
:102DC000510589F14232510509F43CC0ECC0C901FA
:102DD000992781309105B9F070F082309105D9F0D2
:102DE000039709F0E0C0EFE4F4E0E4918E2F90E067
:102DF000EFE4F4E038C0E7E9F4E0E4918E2F90E0EE
:102E0000E7E9F4E030C0EBE7F4E0E4918E2F90E0E6
:102E1000EBE7F4E028C0EDE6F4E0E4918E2F90E0DB
:102E2000EDE6F4E020C08330910508F0BCC0880FC7
:102E3000991FFC01E65BFE4F0190F081E02D89E0D7
:102E400090E014C08330910508F0ADC0FC01EE0F96
:102E5000FF1FEC5BFE4F0190F081E02DDC01AF5BCA
:102E6000BE4F8C9190E0009709F49DC02091E8003E
:102E7000277F2093E8002091EB013091EC01281787
:102E8000390708F4C90140E0009789F12091ED016C
:102E9000222309F43DC02530D9F12091E80023FD1B
:102EA00037C02091E80022FD2FC02091E80020FFCC
:102EB000EBCF4091F3002091F20030E0342B0097EB
:102EC00059F02830310540F444914093F100319697
:102ED00001972F5F3F4FF3CF41E02830310509F0D4
:102EE00040E02091E8002E772093E800CDCF4111FB
:102EF000CDCF0AC08091ED01882351F0853041F09B
:102F00008091E80083FD04C08091E80082FFF2CF49
:102F10008091E8008B778093E80045C0803809F005
:102F200042C08091E800877F8093E8008091E401AF
:102F30008093F1008091E8008E77C7CE811133C075
:102F40008091E7019091E8019927029764F58091BB
:102F5000E800877F8093E8001091E7011093E40177
:102F60000E944914111106C08091E30087FD02C040
:102F700081E001C084E08093ED0142E061EC81E0FA
:102F80000E94681442E261EC84E00E94681442E20C
:102F900061EC82E00E94681442E260EC83E00E94EF
:102FA00068148091ED018091E80083FF10C080914A
:102FB000E800877F8093E8008091EB008062809337
:102FC000EB0005C082E190E0EDE3F4E04FCFAA967C
:102FD0000FB6F894DEBF0FBECDBFDF91CF911F912A
:102FE00008951F920F920FB60F9211242F933F93C3
:102FF0004F935F936F937F938F939F93AF93BF9301
:10300000CF93DF93EF93FF93C091E900CF7080914E
:10301000EC00D82FD17080FDD0E81092E9008091AB
:10302000F000877F8093F00078940E940F15109233
:10303000E9008091F00088608093F000CD2BCF7084
:10304000C093E900FF91EF91DF91CF91BF91AF91D4
:103050009F918F917F916F915F914F913F912F91B0
:103060000F900FBE0F901F901895E8EDF0E0808153
:103070008E7F80831092E2001092DA001092E100BD
:10308000A0EEB0E08C9181608C9380818F778083FB
:1030900019BCA7EDB0E08C918E7F8C9380818F7EE0
:1030A00080831092BF010895CF92DF92EF92FF923A
:1030B0000F931F93CF93DF93C8EDD0E088818F7E6D
:1030C0008883E7EDF0E080818160808384E082BFC7
:1030D00081E08093BF0188818E7F888302EE10E0BB
:1030E000F80110821092DA0081EEC82ED12CF60180
:1030F000108288818F77888388818068888388811F
:103100008F7D888319BC1092ED011092E40110921A
:10311000E3011092E20190EEE92EF12CF70180819B
:103120008B7F808388818160888342E060E080E0DB
:103130000E946814F60180818E7F8083F80180816F
:1031400081608083808188608083F70180818E7FA9
:103150008083888180618883DF91CF911F910F9157
:10316000FF90EF90DF90CF9008951F920F920FB6CF
:103170000F9211242F933F934F935F936F937F93FD
:103180008F939F93AF93BF93EF93FF938091E10051
:1031900082FF09C08091E20082FF05C08091E100BA
:1031A0008B7F8093E1008091DA0080FF2AC08091BC
:1031B000D80080FF26C08091DA008E7F8093DA00ED
:1031C0008091D90080FF18C080E189BD82E189BD6E
:1031D00009B400FEFDCF81E08093ED018091BF0135
:1031E00081110FC00E9435180E9454188091E2008E
:1031F00084608093E20005C019BC1092ED0110922A
:10320000BF018091E10080FF17C08091E20080FF44
:1032100013C08091E2008E7F8093E2008091E200F3
:1032200080618093E2008091D80080628093D80012
:1032300019BC85E08093ED018091E10084FF30C0EE
:103240008091E20084FF2CC080E189BD82E189BDCC
:1032500009B400FEFDCF8091D8008F7D8093D80007
:103260008091E1008F7E8093E1008091E2008F7E6B
:103270008093E2008091E20081608093E20080917F
:10328000E401882311F084E007C08091E30087FD0A
:1032900002C081E001C083E08093ED018091ED01E7
:1032A0008091E10083FF27C08091E20083FF23C06B
:1032B0008091E100877F8093E10082E08093ED01BF
:1032C0001092E4018091E1008E7F8093E100809173
:1032D000E2008E7F8093E2008091E2008061809323
:1032E000E20042E060E080E00E9468148091F0001B
:1032F00088608093F000FF91EF91BF91AF919F9113
:103300008F917F916F915F914F913F912F910F908E
:103310000FBE0F901F9018952091E4003091E500AA
:1033200095E64091EC00842F817040FF23C080918E
:10333000E80080FD1DC08091ED01882399F0853063
:1033400099F08091EB0085FD11C04091E40050910F
:10335000E5002417350729F3915011F09A01E1CFC8
:1033600084E0089582E0089583E0089581E008955F
:1033700080E008954091E80042FFDDCF0895EF928C
:10338000FF920F931F93CF93DF937C018B010E94D9
:103390008C19811119C0E70101151105A1F0809167
:1033A000E80085FD0AC08091E8008E778093E800F0
:1033B0000E948C19882381F307C089918093F100C2
:1033C00001501109E9CF80E0DF91CF911F910F915A
:1033D000FF90EF900895CF932091ED012430F9F400
:1033E000C091E900CF703091EC00232F217030FDA7
:1033F00020E8C22B22E02093E9002091E80020FF82
:103400000BC040E050E060E270E00E94BF19809184
:10341000E8008E778093E800CF70C093E900CF91E9
:10342000089580E090E00E94F52D80E090E00E94F9
:10343000DF2D109298040E949727ECEBF3E086E0D2
:10344000DF011D928A95E9F71092B6031092B50339
:103450001092B7030C94022BCF92DF92FF920F933E
:103460001F93CF93DF936C010091EE0180919A023C
:10347000082BC7E0D0E010E0C8010C2E02C09595E3
:1034800087950A94E2F780FD04C02197A8F7F12CF4
:1034900009C0FC2EB6018C2F0E9463300E945E256D
:1034A000019799F38F2DDF91CF911F910F91FF908D
:1034B000DF90CF900895CF93DF93EC010E942C1AF8
:1034C000BE010E9463300E945E25DF91CF91089576
:1034D000FC0186819781009719F00E945E2504C047
:1034E000808191810E945B1A92959F70963079F04D
:1034F00010F4925001C09A50923068F4803F69F005
:1035000018F4883E40F409C0843F29F406C0883E80
:1035100020F0813F11F080E0089581E008959F92AE
:10352000AF92BF92CF92DF92EF92FF920F931F93D1
:10353000CF93DF93CDB7DEB765970FB6F894DEBFB4
:103540000FBECDBF8C0185E0F801DE0151960190E0
:103550000D928A95E1F7F801E28090914103609124
:10356000420340914403509145034115510531F008
:103570006F3F31F481E09F3F19F403C081E001C047
:1035800080E0F82FF1709F2E80FD4EC1F801308150
:103590002181C380D48071E4A72E73E0B72EF09010
:1035A0004303F601E41BF50BFF2009F4EFC0809103
:1035B0004603EF3AF10508F0AAC0482F407F09F012
:1035C0005AC062131BC0931319C0609147037091D6
:1035D0004803F801468157816417750779F4FE2C7A
:1035E000E1100CC08F70806180934603C5010E947A
:1035F0001A0D80914603F801858353C1CD2831F01F
:103600002F3F31F481E03F3F19F403C081E001C056
:1036100080E080FD03C081E08E2502C080E090E064
:10362000F82FF170FF2E80FF1CC080918A0340911B
:103630004903841709F413C190E0FC0153E0EE0F35
:10364000FF1F5A95E1F7E65BFC4F5181251306C039
:103650005081531303C05281E51203C00196877055
:10366000E8CFFE2CEE2009F41CC180914603816056
:103670008093460358C062130FC093130DC040914E
:10368000470350914803F8012681378142175307B9
:1036900019F4EE2009F4A7C0C8010E94681A882313
:1036A00081F1EE2071F120914603822F82958F7077
:1036B00090E00297A4F080914103909142039A8791
:1036C00089871B86DD86CC862E8780914703909163
:1036D0004803988B8F87CE0109960E941A0D88E0C7
:1036E000F801A1E4B3E001900D928A95E1F70E9400
:1036F00064280AC06217C9F0C8010E94681A8111C3
:1037000027C0C8010E941A0DFF24F394CAC0482F95
:10371000407F81F781E493E00E941A0D88E0F50173
:1037200011928A95E9F7F12CBCC09313E5CF409133
:10373000470350914803F801268137814217530708
:10374000D9F6E110D9CF8583C8010E941A0D66C051
:10375000EE20B9F220914603822F82958F7090E07F
:1037600002970CF4BCCF80914103909142039A835D
:1037700089831B82DD82CC822E83809147039091C6
:10378000480398878F83CE010196A7CFEF3AF105C2
:1037900008F044C0FE2CEE2009F4B3CF621330C011
:1037A00093132EC02091470330914803F80186817E
:1037B00097812817390721F59091460390FD17C08E
:1037C000892F82958F70282F30E02115310579F0EF
:1037D00095832F30310541F08F5F982F9295907F20
:1037E00085818F70892B8583C8010E941A0D88E01E
:1037F000F801A1E4B3E001900D928A95E1F751C080
:10380000C8010E94681A81116ACF809146038160C5
:1038100080934603C8010E941A0D43C088E0F50159
:1038200011928A95E9F73DC0EE2009F46ACFC801EC
:103830000E94681AF82E882309F463CF88E0F80103
:10384000A1E4B3E001900D928A95E1F780914103E4
:10385000909142030E945B1A0E94642822C0398B17
:103860002A8B89899A890E945B1A292F22952F70A9
:10387000223028F49F7039F0811105C00BC024302C
:1038800028F49F7049F4805E883020F0C8010E94BF
:103890001A0D9F2CF92C05C0F8019581907F99F79E
:1038A000F9CF8F2D65960FB6F894DEBF0FBECDBF52
:1038B000DF91CF911F910F91FF90EF90DF90CF900C
:1038C000BF90AF909F9008959E3F61F12EE0929F30
:1038D000800D1124682F669566956695982F9770D0
:1038E00083E0689FB001112440E050E080E0FB01DC
:1038F000E40FF51FE151FE4F208130E0092E02C098
:10390000369527950A94E2F721703327042E01C0DB
:10391000220F0A94EAF7822B4F5F5F4F4330510525
:1039200031F7089580E008959E3F51F12EE0929F77
:10393000800D1124E82FE695E695E695877051E015
:1039400001C0550F8A95EAF783E0E89FF001112442
:10395000E151FE4F20E030E070E04081CB01022ECB
:1039600002C0969587950A94E2F781708195842725
:103970008523842781932F5F3F4F2330310569F7DB
:1039800008950E94BC348093EE010C94111A21E03A
:1039900030E001C0220F8A95EAF720958091EE0170
:1039A00082230C94C11C21E030E001C0220F8A95D3
:1039B000EAF78091EE01822B0C94C11C80939A024D
:1039C0000C94111A1092970480911201882331F0FF
:1039D0008091FE0487FF02C08EE101C086E0E3E231
:1039E000F3E0DF011D928A95E9F70C94111ACF9349
:1039F000DF93CDB7DEB760970FB6F894DEBF0FBE8A
:103A0000CDBF29873A874B875C876D877E878F87F5
:103A1000988BCE0109960E948F1A811151C088E0BF
:103A2000FE013996DE01119601900D928A95E1F71B
:103A300079856A854C855D854115510531F06F3F6B
:103A400031F481E07F3F19F403C081E001C080E0E0
:103A500080FD36C0A0914903B0E0CD01019687708A
:103A6000992720918A0330E08217930781F17983A7
:103A70006A835D834C8393E0AA0FBB1F9A95E1F79D
:103A8000A65BBC4F98E0FE01319601900D929A958D
:103A9000E1F7809349030E945A2812C028E0829FD0
:103AA000C0011124865B9C4F0E948F1A8823E1F08D
:103AB00080918A0390E001968770992780938A030A
:103AC00080918A03909149038913E8CF0DC00E9429
:103AD000E21C1092490310928A03E1E4F3E088E0CB
:103AE000DF011D928A95E9F760960FB6F894DEBF64
:103AF0000FBECDBFDF91CF910895882321F00E94A2
:103B000089270C9497270895882339F09091980479
:103B1000892B809398040C9497270895882321F08B
:103B20000E9490270C9497270895882339F090914C
:103B30009704892B809397040C94972708958823E2
:103B400009F45CC0823869F40E940B2E81FF56C0D4
:103B500069E381E293E00E94AA2D0E94972769E31E
:103B60000EC0833891F40E940B2E80FF47C063E59E
:103B700081E293E00E94AA2D0E94972763E581E2EB
:103B800093E00E94822D0C949727843869F40E9458
:103B90000B2E82FF33C067E481E293E00E94AA2DDE
:103BA0000E94972767E4EBCF9CEF980F913A10F4AF
:103BB000682FE5CF90E2980F983050F4877091E02D
:103BC00001C0990F8A95EAF7892F0E949027DBCFD1
:103BD0009BE5980F933020F480E090E00C94F52D55
:103BE00098E5980F973120F480E090E00C94DF2D59
:103BF000803F20F00E942C2B0C94022B0895CF9331
:103C0000882309F4BEC0C82F8238B1F40E940B2E5D
:103C100081FDB7C069E381E293E00E94AA2D0E9472
:103C200097272FEF81EE94E0215080409040E1F7FC
:103C300000C0000069E317C08338E1F40E940B2E36
:103C400080FD9FC063E581E293E00E94AA2D0E945F
:103C500097272FEF81EE94E0215080409040E1F7CC
:103C600000C0000063E581E293E00E94822DCF91C5
:103C70000C9497278438B1F40E940B2E82FD81C0EA
:103C800067E481E293E00E94AA2D0E9497272FEF1C
:103C900081EE94E0215080409040E1F700C00000A8
:103CA00067E4E1CF8CEF8C0F813AC0F5809112016F
:103CB0008823E1F08091FE0487FF18C0EC2FE69581
:103CC000E695E695F0E0EF5DFC4F8281282F30E02D
:103CD0004C2F477081E090E002C0880F991F4A95F1
:103CE000E2F782239323892B61F412C0E3E2F3E02D
:103CF00089E293E02191C21721F08E179F07D1F737
:103D000007C06C2F81E293E00E94822D0E949727CA
:103D10006C2F81E293E00E94AA2DA9CF80E28C0F44
:103D2000883068F4C77081E090E001C0880FCA95C0
:103D3000EAF790919704892B8093970498CFEBE54D
:103D4000EC0FE33040F4F0E0E05BFE4F808190E068
:103D5000CF910C94F52DE8E5EC0FE73150F4F0E04D
:103D6000EE0FFF1FED5AFE4F80819181CF910C9491
:103D7000DF2DC03F30F08C2F0E94F32BCF910C949D
:103D8000022BCF9108951F93CF93DF93182F893380
:103D900019F0C0E0D0E002C0C0E5D0E0812F0E9461
:103DA000FF1D209741F08FE99FE00197F1F700C0D8
:103DB00000002197F6CF812FDF91CF911F910C94B6
:103DC0009F1D08959F92AF92BF92CF92DF92EF9284
:103DD000FF920F931F93CF93DF93FC01A2809480F7
:103DE00081E08483EBE9F4E0B490EAEDF4E0E4915F
:103DF000CBE3D2E0B5E0EB2EB2E0FB2ECC24CA94AC
:103E0000D12CEB190E2F10E022E02A1530F0809112
:103E100096028883809197028983911003C01B8248
:103E20001A8257C08B81882309F181508B832FEF31
:103E3000829FC00111246C8170E00E940536FB0155
:103E4000FF27F595E795E556FB4F8491E82FEB1991
:103E50002FEFE29FC0011124B8010E940536809126
:103E60009802689FB00111247A8333C00E941D35E7
:103E7000209198022695215830E0A901440F551F42
:103E8000322F2227240F351F232F33278217930722
:103E900004F582E08A1588F40E941D35B6010E945F
:103EA000193688830E941D35209197022695622F2E
:103EB00070E00E941936280F29831A828091980297
:103EC000843120F0893C18F088EC01C084E18C83B7
:103ED0008B8397014A81698188810E946A2925968E
:103EE00023E0E20EF11C82E0C539D80709F08CCF3F
:103EF000DF91CF911F910F91FF90EF90DF90CF90C6
:103F0000BF90AF909F900C94CD28EF92FF920F93AB
:103F10001F93CF93DF938C01C5E0D2E0E12CF12C0D
:103F2000F8018481F9E0EF16F1041CF4882339F0DC
:103F300002C0811104C09E014091980202C09E01FE
:103F400040E060919702809196020E946A298FEF6B
:103F5000E81AF80A239692E1E916F10409F70E949B
:103F6000CD28F801848190E001968170992784839F
:103F7000DF91CF911F910F91FF90EF9008950F93D4
:103F80001F93CF93DF93C5E0D2E0FE011182108230
:103F90001282339682E0EB33F807C1F700E010E0BD
:103FA00080910402082E000C990B0817190794F051
:103FB00080911401082E000C990B8017910754F082
:103FC0009E014091980260919702809196020E9412
:103FD0006A2903C0198218821A820F5F1F4F239625
:103FE00002311105E9F60E94CD28809113019091CC
:103FF0000402980F9093040220911401280F20933B
:104000001401121614F491311CF081958093130160
:10401000DF91CF911F910F910895EF92FF921F931F
:10402000CF93DF93EC0185E0E82E82E0F82E10E0DC
:104030008C8197014091980260919702810F0E94B4
:104040006A29125F83E0E80EF11C1C3F89F70E9489
:10405000CD289A818C8190FF02C08F5F01C0815072
:104060008C83DF91CF911F91FF90EF900895CF93B4
:10407000DF93EC01E5E9F2E0438162818C810E94EB
:10408000002A8C818F5F8C83DF91CF910895CF932D
:10409000DF93EC01EC81F0E0F595E795E556FB4FF9
:1040A0004491E5E9F2E0628181810E94002A8C81DD
:1040B0008F5F8C83DF91CF9108950F931F93CF93E0
:1040C000DF93863038F5611125C0423018F521158F
:1040D0009CE5390731F46091CA037091CB03672BDB
:1040E000C9F08901C42FD0E0CC0FDD1F94E0899F77
:1040F000C00DD11D1124C953DD4F612FCE010E9487
:104100005A35602FCE010196DF91CF911F910F910B
:104110000C945A35DF91CF911F910F9108950F9311
:104120001F93CF93DF938630E8F461111BC04230B8
:10413000C8F4C42FD0E0CC0FDD1F24E0829FC00D57
:10414000D11D1124C953DD4FCE010E94463590E0A8
:10415000182F0027CE0101960E9446359801282B82
:10416000C90102C080E090E0DF91CF911F910F91D3
:1041700008950F931F93CF93DF93863058F56430E3
:1041800048F54E3038F521159CE5390731F4E091BA
:10419000CA03F091CB03EF2BE9F08901C42FD0E0E3
:1041A000CC0FDD1F9CE1699FC00DD11D112490E74C
:1041B000899FC00DD11D1124612FCE0187960E94C9
:1041C0005A35602FCE018896DF91CF911F910F91C4
:1041D0000C945A35DF91CF911F910F9108950F9351
:1041E0001F93CF93DF93863008F56430F8F44E3098
:1041F000E8F4C42FD0E0CC0FDD1F2CE1629FC00D8E
:10420000D11D112430E7839FC00DD11D1124CE0193
:1042100087960E94463590E0182F0027CE01889699
:104220000E9446359801282BC90102C080E090E029
:10423000DF91CF911F910F910895CF92DF92EF926E
:10424000FF920F931F93CF93DF93CDB7DEB72A97DB
:104250000FB6F894DEBF0FBECDBF88E7E9EAF2E003
:10426000DF011D928A95E9F784E5E4E3F4E0DF01DC
:104270001D928A95E9F789EAC82E82E0D82E7F013F
:1042800007E013E0F701D182C0824AE050E0B801B4
:10429000CE0101960E94363588E0FE013196D601A6
:1042A00001900D928A95E1F789859A85D701139639
:1042B0009C938E931297BAE0CB0ED11CE7E0EE0EE2
:1042C000F11C065F1F4F0F37F3E01F07D9F62A9640
:1042D0000FB6F894DEBF0FBECDBFDF91CF911F9117
:1042E0000F91FF90EF90DF90CF9008958F929F9263
:1042F000AF92BF92CF92DF92EF92FF920F931F93F4
:10430000CF93DF93CDB7DEB72A970FB6F894DEBF11
:104310000FBECDBF0BE914E0E12CF12C8CE1C82ECF
:1043200083E2D82E97E4A92E93E2B92E2FE1822EB4
:1043300022E2922EF801D182C082B382A2829582BB
:104340008482F58AE48ABE016F5F7F4F8E2D0E94C2
:104350002231892B29F489859A85F801938B828BE8
:10436000FFEFEF1AFF0A0A5E1F4F84E0E816F10420
:1043700009F72A960FB6F894DEBF0FBECDBFDF91C6
:10438000CF911F910F91FF90EF90DF90CF90BF9052
:10439000AF909F908F9008950F931F93CF93DF93CB
:1043A00000D000D01F92CDB7DEB78C019093CD0323
:1043B0008093CC03011580E2180738F5802F0E9406
:1043C0009F1DC801805E9109089718F0011511051D
:1043D00071F4C8010E948F340F900F900F900F90CE
:1043E0000F90DF91CF911F910F910C948E1DC801FA
:1043F0000E948F340F900F900F900F900F90DF91CD
:10440000CF911F910F910C947D1D8EEF89838A832C
:104410001B820E944D2D8160782F9D838C83498162
:104420005A816B818D810E9435320F900F900F90D1
:104430000F900F90DF91CF911F910F9108950F93DF
:104440001F93CF93DF938C01EB016FE972E08C2F08
:104450000E942231892B09F040C0DD27C556DD4F6F
:104460008881F80110821882833079F048F4813015
:1044700041F1823091F58091A1029091A20209C090
:10448000843051F08530E9F028C08091A3029091EA
:10449000A4020097B1F01BC08091A5029091A602E2
:1044A0000097A9F420919F023091A0028091A1026F
:1044B0009091A2022115310541F0009741F4C90104
:1044C00006C080919F029091A002009731F0DF9189
:1044D000CF911F910F910C94CC21DF91CF911F911F
:1044E0000F9108950F931F93CF93DF9300D000D0C7
:1044F0001F92CDB7DEB78C019093CD038093CC0390
:10450000011580E21807F8F4C801805E9109089748
:1045100018F00115110531F4C8010E948F340E9472
:10452000951D05C0C8010E948F340E94841D802FF4
:104530000F900F900F900F900F90DF91CF911F91E0
:104540000F910C94FF1D8EEF89838A8381E08B830A
:104550000E944D2D8160782F9D838C8349815A81E3
:104560006B818D810E9435320F900F900F900F90CC
:104570000F90DF91CF911F910F910895AF92BF924D
:10458000CF92DF92EF92FF920F931F93CF93DF931F
:10459000B82EA62EC090EE0180919A02C82AC7E0DC
:1045A000D0E0D12CE12CF12CD701C6010C2E04C097
:1045B000B695A795979587950A94D2F780FF13C073
:1045C0004A2D6B2D8C2F0E948F208C0181309105FC
:1045D00051F00E9472228FE39CE90197F1F700C02D
:1045E0000000C80111C02197F8F64A2D6B2D80E01C
:1045F0000E948F20EC010E9472228FE39CE90197B8
:10460000F1F700C00000CE010E94CC2181E0DF91D3
:10461000CF911F910F91FF90EF90DF90CF90BF90BF
:10462000AF900895CF93DF93EC010E947222CE01E8
:10463000DF91CF910C94CC210F931F93CF93DF93F5
:104640008C01862F6FE972E00E942231892BD1F410
:10465000C0919F02D091A0022097A1F0F801808123
:10466000833039F4CE010E941223CE010E9412231E
:1046700002C0843038F0CE01DF91CF911F910F91AD
:104680000C941223DF91CF911F910F9108950F93F6
:104690001F93CF93DF938C01EB016FE972E08C2FB6
:1046A0000E942231892B09F06DC0DD27F80180813D
:1046B000813041F49185911115C09285992391F033
:1046C00082E010C0823049F4F8018185811107C071
:1046D0008285811106C083E005C086E003C085E0C5
:1046E00001C084E0C556DD4F88838330B1F028F4E3
:1046F000813071F0823031F045C08430A9F08530CE
:1047000079F140C08091A1029091A2020097A1F599
:1047100080919F029091A00220C08091A30290916D
:10472000A4020097E9F028C08091A5029091A6020A
:10473000009711F580919F029091A002009749F097
:104740000E9412238091A1029091A202009781F011
:1047500013C08091A1029091A202009799F00CC021
:1047600080919F029091A002009761F00E94122315
:1047700080919F029091A002DF91CF911F910F91A4
:104780000C947222DF91CF911F910F91089586E2D0
:1047900090E00C945A35CF93C82F811102C06FEF6F
:1047A00001C06BE883E290E00E945A35C11102C05B
:1047B0006FEF01C065E484E290E00E945A35C111B8
:1047C00002C06FEF01C06CEB85E290E0CF910C94DA
:1047D0005A3580E00E94CB2360E070E0CB010E945C
:1047E000C7230E947F300E94533081E00C94CB237A
:1047F00083E290E00E9446358B3881F484E290E0B9
:104800000E944635853451F485E290E00E94463599
:1048100091E08C3B09F090E0892F01C080E081702D
:1048200008959091950290FF04C09695981740F0D6
:1048300003C0811105C090E0961710F40C94F82A7B
:1048400061E00C94AD2A882311F0FA0101C0FB014C
:10485000099480E008959091FE0492FF0DC0282FE6
:104860002871283019F4877F846006C0282F2471AE
:10487000243011F48B7F886093FF0DC0282F28719E
:10488000283119F4877E846106C0282F24712431D1
:1048900011F48B7E88612091FF0420FF0DC0382F1A
:1048A0003871383019F4877F816006C0382F317134
:1048B000313011F48E7F886021FF0DC0282F2871C0
:1048C000283119F4877E816106C0282F217121319A
:1048D00011F48E7E886194FD877E0895F894E82F08
:1048E000E295EF70F0E031A1282F2F7081E090E089
:1048F00001C0880F2A95EAF7982F9095932391A3EA
:1049000092A1892B82A3789408958F929F92AF925F
:10491000BF92CF92DF92EF92FF920F931F93CF93AC
:10492000DF93CDB7DEB728970FB6F894DEBF0FBE82
:10493000CDBFAE014F5F5F4F7A0188E0FA0111925F
:104940008A95E9F70FE111E06A01AA24A394B12C3A
:10495000F80180818F3F09F447C0F894E82FE29571
:10496000EF70F0E021A18F70A50102C0440F551F28
:104970008A95E2F7CA01922F982B91A392A1809574
:10498000892382A3789400C0E3E2F1E021E030E0E3
:10499000812C912C41914F3F89F0A42FA295AF70AB
:1049A000B0E090968C9190E04F7002C095958795FD
:1049B0004A95E2F780FD02C0C90102C080E090E0A4
:1049C000882A992A220F331F51E0E133F50711F7A6
:1049D000F80180818F3F11F00E946E24F0EAFA9571
:1049E000F1F7F601918280820F5F1F4FF2E0CF0E48
:1049F000D11C41E00332140709F0AACF48E050E08F
:104A0000B7018CE991E00E94473611E0009709F464
:104A100010E0892B89F088E0F701ACE9B1E0019062
:104A20000D928A95E1F781E08093B4030E944D2DA9
:104A30009093B3038093B2038091B403882351F120
:104A40008091B2039091B3030E94322D059710F12B
:104A500080919C0190919D019093B7018093B60144
:104A600080919E0190919F019093B9018093B8012C
:104A70008091A0019091A1019093BB018093BA0114
:104A80008091A2019091A3019093BD018093BC01FC
:104A90001092B403812F28960FB6F894DEBF0FBE94
:104AA000CDBFDF91CF911F910F91FF90EF90DF90DD
:104AB000CF90BF90AF909F908F900895CF93DF934A
:104AC0008238910569F1B0F48133910509F46FC022
:104AD00048F48932910509F465C08A32910509F4D8
:104AE0006BC08AC08533910509F457C0893391059D
:104AF000B9F082C0833E910571F138F4803E910592
:104B0000B1F0823E910511F177C0863E9105B9F171
:104B1000873E9105C9F1843E910509F06DC024C01E
:104B20002091FE0420FD53C021FD51C065C080913D
:104B3000FE0480FD46C08091FF0480FF48C0809144
:104B4000FE0484FD50C183EE90E04FC18091FE04CD
:104B500082FF3AC0F4CF8091FE0482FD35C080917F
:104B6000FF0480FD34C0EBCF8091FF0481FF35C08E
:104B70008091FE0484FD37C187EE90E036C18091BC
:104B8000FE0483FF27C0F4CF8091FE0483FD22C082
:104B90008091FF0481FD21C0EBCF8091FE0485FD53
:104BA0001FC021C08091FE0485FD1DC019C08091E9
:104BB000FE0486FD1BC01DC08091FE0486FD19C049
:104BC00015C089E390E011C182EE90E00EC180EE45
:104BD00090E00BC186EE90E008C184EE90E005C144
:104BE00089E290E002C185E390E0FFC08AE290E0B4
:104BF000FCC081E390E0F9C0811531E5930708F02E
:104C000069C0811540E59407F0F09C0174E0369589
:104C100027957A95E1F7922F9370482F437021E002
:104C200030E002C0220F331F4A95E2F73C68392B6F
:104C3000982F9F709695969540E2949FC0011124FD
:104C4000822B932BD2C0883E910568F5803E91055A
:104C500008F0CBC0883A9105B8F4853A910548F040
:104C6000855AE82FF0E0E05BFE4F808190E0906491
:104C7000BCC08130910509F4B3C008F4B4C08430DD
:104C8000910508F4B0C0B1C08F3B910508F0ABC0EE
:104C9000885AE82FF0E0EE0FFF1FED5AFE4F80819B
:104CA00091819464A2C0811520E2920758F4811585
:104CB00031E0930708F099C0803F910508F493C054
:104CC000906593C0811540E4940708F48CC09F70F0
:104CD000906A8BC0811525E5920708F042C08115C6
:104CE00034E5930728F0982F8827846F906A7DC059
:104CF000811543E59407B0F09C012370332741E010
:104D000050E002C0440F551F2A95E2F7282F269540
:104D1000269580E2289F90011124CA01822B932BB3
:104D20009A6863C0811522E5920728F4982F882796
:104D3000816F906A5AC09C012370332741E050E094
:104D400002C0440F551F2A95E2F7282F2695269575
:104D500080E2289F90011124CA01822B932B9C682A
:104D600044C0EC01811539E59307A8F481159845F5
:104D700028F09C2F8827806F906A37C0C11586E580
:104D8000D80788F58C2F0E942B248F7190E0982FE4
:104D9000882790622AC081152AE5920790F48C2F0B
:104DA0008F700E942B2494E0D695C7959A95E1F7D1
:104DB000CF70D0E0DC2FCC27D0699E01282BC90111
:104DC00014C090568115904270F48D2F8F710E94FF
:104DD0002B24282F2F71CE0199279062922B05C08A
:104DE00081E090E002C080E090E0DF91CF910895F3
:104DF000CF9384E090E00E944635C82F82E290E095
:104E00000E9446352C2F30E0A901582BCA01CF91C2
:104E1000089580E090E00E945435893E9E4F11F441
:104E20000C94F82380E0089569EE7EEF80E090E036
:104E30000E94783560E082E090E00E945A3560E0A0
:104E400083E090E00E945A3510929A0260E084E07C
:104E500090E00E945A3560E082E290E00E945A356C
:104E600060E085E090E00E945A3560E086E090E0E6
:104E70000E945A356FEF87E090E00E945A3540E07B
:104E800050E0BA0188E090E00E946C3560E08DE06F
:104E900090E00E945A3540E050E0BA0188E190E08D
:104EA0000E946C3560E087E190E00E945A3540E056
:104EB00050E0BA018CE190E00E946C3560E070E057
:104EC00080E290E00E94783540E050E0BA0188E14D
:104ED00090E00E946C3580E00E94CB230E94E92381
:104EE00040E050E0BA018FE090E00E946C3540E075
:104EF00050E0BA0183E190E00C946C358091B103ED
:104F0000882331F01092B1031092B0031092AF03D6
:104F1000089580959091980489238093980408952A
:104F20008095909197048923809397040895909198
:104F3000970480919804892B809321038091B10379
:104F4000882361F10E944D2D2091AF033091B00371
:104F5000821B930B8838934110F00E947E2790911A
:104F600021038091B103892B809321038091120149
:104F7000882331F08091FE0487FF02C08EE101C0DA
:104F800086E0E3E2F3E090E0815028F021912223D3
:104F9000D9F39F5FF9CF91110E947E2740E250E044
:104FA0006FE873E081E293E00E944736892B21F19C
:104FB00080E2E1E2F3E0AFE8B3E001900D928A9580
:104FC000E1F7E091F504F091F6043097A9F08091B3
:104FD0001201882359F08091FE0487FF07C0809159
:104FE00021038093220386E0809321030280F381D2
:104FF000E02D81E293E00994089510928E031092BF
:105000008D0310928C03089520918E038095822346
:1050100080938E03982F977099F430E0482F082ED4
:10502000000C550B2417350759F09091FF0492FDA1
:1050300007C08595859585950E94C71C0C94FD2712
:105040000895CF93C091FF04C2FB992790F9981758
:1050500099F080FBC2F9C093FF046091FE0484E0E4
:1050600090E00E945A356C2F82E290E00E945A35FF
:1050700082E0CF910C940428CF9108959091FF0481
:1050800092FD10C098E0899F90011124262B209357
:105090008E030E94D31C0E944D2D90938D0380930C
:1050A0008C0308950C94D31C80918B038111109272
:1050B0008B03089580918A0390914903891719F011
:1050C0008F5F8770FBCF08951F93CF93DF938091FD
:1050D000460382958F7009F05CC08091430388235A
:1050E00009F457C080918A031091490360914103EC
:1050F00070914203C0914403D091450391E06F3F0A
:1051000009F090E0292F811709F443C0209721F07E
:105110007F3F21F030E003C031E001C0322F90E04A
:1051200030FD34C0FC0133E0EE0FFF1F3A95E1F78C
:10513000DF01A65BBC4F11963C911197371326C037
:105140003C91361323C012963C91129731111EC028
:1051500013964D915C9114974C1B5D0B4F3A510582
:10516000A8F4809146038F70806180934603E15BD1
:10517000FC4F80818F708061808381E493E00E9486
:105180001A0DDF91CF911F910C945A2801968770C8
:10519000BACFDF91CF911F9108958091950280FF42
:1051A0000AC0879A81B38F7791B390682FB7F8942C
:1051B000E5E0F2E00BC0E5E0F2E01182108212823D
:1051C000339632E0EB33F307C1F7EBCF32E0EB334A
:1051D000F30789F0319148E091BB000000C037FF30
:1051E00081BB330F000000C000C000C081BB00C005
:1051F0004A9591F7EBCF2FBF8FE594E00197F1F738
:1052000000C0000008959091950290FF0CC0E5E069
:10521000F2E0818360834283339692E0EB33F907B7
:10522000C1F70C94CD28089580919502282F2695DA
:1052300030E02115310519F48170826005C02931F3
:10524000310524F081708063809395020895CF9298
:10525000DF92EF92FF926B017C010E941429B7014B
:10526000A60188E090E0FF90EF90DF90CF900C9443
:105270006C3580919902882319F0815080939902AE
:105280006091950270919602809197029091980298
:105290000C94272980919902833018F48F5F8093B2
:1052A0009902609195027091960280919702909177
:1052B00098020C942729E5E9F2E083E080831182CB
:1052C0008FEF8283838314826081718182819381D5
:1052D0000C942729AF92BF92CF92DF92EF92FF9268
:1052E0000F931F93CF93DF93E82EF62EE901E42F5F
:1052F000F0E0611106C0E55EFA4FE4914E2F2E2FCB
:1053000071C0062F10E0E55EFA4F4491F42FC42ED1
:10531000D12C26E0829FC00111242FEF30E0B9018B
:105320000E9405365BEA5603C001579F900D112479
:105330008E0D911D8E0D911D582F550F580FD901AF
:10534000A01BB10BAC9DC001AD9D900DBC9D900DFF
:105350001124E92FF59ED0011124AB2FBB27790131
:10536000EA1AFB0AEC9CD001ED9CB00DFC9CB00D40
:1053700011245901A51AB108A09E7001A19EF00C3C
:10538000B09EF00C1124EF2CFF242E193F092C9D08
:1053900080012D9D100D3C9D100D1124212F623098
:1053A000710591F048F461157105E1F06130710506
:1053B000B9F4242F4B2F16C06430710569F040F00A
:1053C0006630710579F00CC0242F492FE12F0AC0F7
:1053D000492FEF2F2B2F06C0292FE42F412F02C07A
:1053E000292FEB2F49832883EA83DF91CF911F91E7
:1053F0000F91FF90EF90DF90CF90BF90AF90089506
:10540000CF93DF9300D01F92CDB7DEB79091950276
:1054100090FF0AC09E012F5F3F4F0E946A294B8177
:1054200069818A810E9403290F900F900F90DF916C
:10543000CF910895EF92FF920F931F93CF93DF9335
:1054400000D01F92CDB7DEB7082FF62E142FE22E14
:105450008091950280FF35C0E82FE695F0E0EF5788
:10546000FE4F90819093C8038E7F823061F49E013D
:105470002F5F3F4F802F0E946A294B8169818A816B
:105480000E9403290CC0923019F41091980207C0B1
:10549000963019F40091960202C09930D9F3009326
:1054A0009602F092970210939802EE2051F06091CC
:1054B00095027091960280919702909198020E94B5
:1054C00027290F900F900F90DF91CF911F910F918F
:1054D000FF90EF900895E5E9F2E0438128E0421B58
:1054E00008F440E021E0628181810C941A2AE5E908
:1054F000F2E0438128E0420F08F44FEF21E062819F
:1055000081810C941A2AE5E9F2E0628128E0621BAD
:1055100008F460E021E0438181810C941A2AE5E9D6
:10552000F2E0628128E0620F08F46FEF21E043812E
:1055300081810C941A2AE5E9F2E0818121E043811E
:10554000628188500C941A2AE5E9F2E0818121E019
:1055500043816281885F0C941A2A9091950290FF92
:105560003DC09170811102C0926006C0893110F077
:10557000906302C0880F982B90939502662351F098
:105580006091950270919602809197029091980295
:105590000E94272960919502669570E041E050E0F5
:1055A00085E191E00E943A36892B19F01092C903E7
:1055B00009C081E08093C9030E944D2D9093C303DD
:1055C0008093C20381E08093C50320E0409198025C
:1055D00060919702809196020C941A2A0895809106
:1055E00095028695815009F488E161E00C94AD2A1A
:1055F0008091950286958F5F893108F081E061E0A6
:105600000C94AD2A0E944D2D2091BE03211104C09F
:105610002091BF03222321F09093BB038093BA0310
:105620002091C003211104C02091C103222321F045
:105630009093B9038093B803E091F504F091F604D8
:10564000309749F082E08093BC030480F581E02D1F
:105650008CEB93E009940895803F39F48091BF0367
:1056600087FF6AC01092BF0367C0813F29F4809111
:10567000BF031816BCF360C09091BE03823F29F4AB
:1056800097FF5AC01092BE0357C0833F19F41916F2
:10569000CCF352C09091C003893F31F419160CF03D
:1056A0004BC01092C00348C08A3F19F497FF44C012
:1056B000F8CF8B3F39F48091C10387FF3DC0109232
:1056C000C1033AC08C3F29F48091C1031816BCF382
:1056D00033C0843F21F48091BD038E7F17C0853F86
:1056E00021F48091BD038D7F11C0863F21F480910C
:1056F000BD038B7F0BC0873F21F48091BD03877F63
:1057000005C0883F31F48091BD038F7E8093BD0337
:1057100013C08D3F21F48091B7038E7F0BC08E3F65
:1057200021F48091B7038D7F05C08F3F29F48091CC
:10573000B7038B7F8093B7038091BE03811106C0AE
:105740008091BF03811102C01092B6038091C00303
:10575000811106C08091C103811102C01092B5036E
:1057600008958091B70380FD16C081FD16C082FDAB
:1057700018C08091B503882391F0883290F428E016
:10578000829FC001112468E270E00E941936862FC2
:10579000672B29F007C082E0089584E0089581E036
:1057A000089588E008958091B70380FD14C081FDBD
:1057B00014C082FD16C08091B603882381F08E311B
:1057C00080F420E5829FC00111246EE170E00E9408
:1057D0001936862F089584E1089588E2089588E0B7
:1057E000089580E50895803F21F40E94D32B819590
:1057F00004C0813F29F40E94D32B8093BF030895F6
:10580000823F21F40E94D32B819504C0833F29F469
:105810000E94D32B8093BE030895893F19F40E9400
:10582000B12B05C08A3F31F40E94B12B8195809342
:10583000C00308958B3F21F40E94B12B819504C0D1
:105840008C3F29F40E94B12B8093C1030895843FBB
:1058500021F48091BD03816017C0853F21F48091C0
:10586000BD03826011C0863F21F48091BD03846036
:105870000BC0873F21F48091BD03886005C0883F3D
:1058800031F48091BD0380618093BD0308958D3F05
:1058900021F48091B70381600BC08E3F21F4809189
:1058A000B703826005C08F3F29F48091B7038460FD
:1058B0008093B70308958091C101089524E0209357
:1058C000E9002FEF3091E800215035FD06C035ED9D
:1058D0003A95F1F700002111F5CF2091E80025FF5E
:1058E0000BC040E050E066E070E00E94BF1980917C
:1058F000E8008E778093E8000895CF93DF9320919E
:105900001201222339F02091FE0427FF03C060E238
:1059100024E002C068E021E02093E9002FEF3091FD
:10592000E800215035FD06C035ED3A95F1F700004D
:105930002111F5CF2091E80025FF1DC0EC018091D9
:105940001201811105C040E050E068E070E003C042
:1059500070E040E050E0CE010E94BF198091E80065
:105960008E778093E80080E2FE01A2ECB1E0019026
:105970000D928A95E1F7DF91CF910895809300050C
:1059800070930205609301058091ED018430F9F474
:105990008093E9008FEF9091E800815095FD06C05B
:1059A00095ED9A95F1F700008111F5CF8091E8000F
:1059B00085FF0DC040E050E063E070E080E095E0DE
:1059C0000E94BF198091E8008E778093E8000895C7
:1059D00081E08093E00080E28093D8001092C900BB
:1059E0008FE19EE40197F1F700C0000087E090EBA3
:1059F000DC018093030590930405A0930505B09303
:105A000006059CE088E10FB6F894A89580936000A5
:105A10000FBE90936000FFCF78941F920F920FB645
:105A20000F9211248F939F93AF93BF938091FA04A9
:105A30009091FB04A091FC04B091FD040196A11D7E
:105A4000B11D8093FA049093FB04A093FC04B093DF
:105A5000FD04BF91AF919F918F910F900FBE0F905A
:105A60001F9018959C014FB7F8948091FA0490917B
:105A7000FB04A091FC04B091FD044FBF821B930B6B
:105A800008952FB7F8946091FA047091FB04809107
:105A9000FC049091FD042FBF08952FB7F8948091D6
:105AA000FA049091FB04A091FC04B091FD042FBF77
:105AB00008951F920F920FB60F9211248F939F9308
:105AC000AF93BF938091F904811113C08091FA04C0
:105AD0009091FB04A091FC04B091FD044196A11D9E
