:100000000C9401040C9439040C9439040C943904B4
:100010000C9439040C9439040C9439040C9439046C
:100020000C9439040C9439040C94A0170C94DC162D
:100030000C94751E0C9439040C9439040C943904F6
:100040000C9439040C9439040C9439040C9439043C
:100050000C9439040C94281E0C9439040C94390423
:100060000C9439040C9439040C9439040C9439041C
:100070000C9439040C9439040C9439040C9439040C
:100080000C9439040C9439040C9439040C943904FC
:100090000C9439040C9439040C9439040C943904EC
:1000A0000C9439040C9439040C9439040D0A0D0A8B
:1000B0003D0A3D0AD60A2E0C2E0C2E0CF40A670BB4
:1000C0007A0B7A0B15112B1132116A117B118611E3
:1000D0009711AA11EB11F011181241127B127E1226
:1000E000E2140915BE160915BE1655157815BE166B
:1000F00079168916FD377A585A000004E6D6B446B8
:100100000200210116000000742FE5A3E0058A011A
:10011000AF5D003D8889C65436C3174FE4E62BD641
:1001200049EDDCF2E44148CBC76089AE55F0F00000
:10013000EB13F2BB9E653F30B7AA080BE74CC5F442
:100140002DA193F9452B4EE76529670D2A3FB7B3DB
:100150003F60ECEA160E9DFFE39D6E21F5808DDB7E
:10016000A35369512C5975D61C455F464B539F8B41
:10017000563A17ED50DE0BAA80B7BF756B25EB8E94
:1001800078EA2C46D5D437B6E46FA4F45A66FD1C41
:1001900010D021E567933A0B7CF92D7982D97CDF69
:1001A000E6F49C5A00CFDF9ECDC3D1D043AE79B1E7
:1001B000562C5F5AF7062BE33C8B16F2F38C5DFE50
:1001C0001F87850BA396DA7700C5C944DE1D64AC92
:1001D0005F959C53575459598EE49BCA203C9D20EF
:1001E000527BEAA333C4FF5E3D3C46639F22FE8CF4
:1001F00040D3156FF35FB0EFC89049DD7C8E24B11A
:1002000053B86DD88982DF8368EF0748D21850E26F
:10021000E8E8294CDEAB1CF7A3C398763CFF2F71AE
:10022000A42A394FD72171A50BB3AC41FC7CA4663D
:10023000822572455AF41BA83255B6D365EA640587
:10024000352FE6C68DFCFBCC4378C90A05E99674C8
:10025000A8C0F2E7455967BE2AE1728CE06DAE197D
:100260006E366423D7282405028B8C636423A4692B
:100270001AFB563C075F2DBC4178ACCBA720B3CA14
:10028000779D84D1332656F0949DC5740A5384D546
:100290000774D1E95910FCE39E281E92DE8B32E1EF
:1002A000053E87F65B649395404068090EF8CB7B6A
:1002B000685A86283BF2F0A7BD658354342A6DE066
:1002C000E50000003A370220E759A4370001CB03CC
:1002D0008B0B0000A19ED7C9B1C467FB02000000D0
:1002E0000004595A05010980A101850319012AB7A3
:1002F00000150126B700950175108100C0050C0995
:1003000001A101850419012AA002150126A0029568
:100310000175108100C00660FF0961A10109621525
:100320000026FF009520750881020963150026FF4D
:1003300000952075089102C005010906A101050775
:1003400019E029E71500250195087501810295013D
:10035000750881010507190029FF150026FF009582
:100360000675088100050819012905950575019193
:1003700002950175039101C009025B00030100A011
:10038000FA09040000010301010009211101000123
:10039000224000070581030800010904010002034F
:1003A000000000092111010001222200070582033B
:1003B00020000107050303200001090402000103D6
:1003C0000000000921110100012232000705840309
:1003D00020000112010002000000084156452001E2
:1003E00000010203011C037600690061006C003A01
:1003F00000660036003400630032006200330063A0
:100400000000000E03730070006100630065007956
:100410000000001003760061006E0069006C006C43
:10042000006100000004030904AA00A90001000102
:100430000001000100010001000100010029001E6F
:10044000001F002000210022002300240025002698
:100450000027002D002E002A002B0014001A00088F
:1004600000150017001C0018000C00120013002FCC
:100470000030003100390004001600070009000AAE
:10048000000B000D000E000F003300340028005256
:1004900000E1001D001B00060019000500110010FE
:1004A00000360037003800E50050005100E000E35E
:1004B000000151AE00E2002C0000002A004C0000B8
:1004C00000E600E700E4004F0035003A003B003C46
:1004D000003D003E003F0040004100420043004418
:1004E0000045002A002B001E001F002000210022D2
:1004F00000230024002500260027002D002E004C9C
:10050000003A003B003C003D003E003F00400041FF
:100510000042004300440045002800F000E10000D4
:10052000000000000000000000000000003600375E
:10053000003800E500F200F100E000E300000001F7
:1005400000E2002C0000002A00E60000006500E741
:1005500000E400F3000100010001000100010001BE
:100560000001000100010001000100010001000183
:100570000001000100010001000100010001000173
:100580000001000100010001000100010001000163
:100590000001000100010001000100010001000153
:1005A0000001000100010001000100010001000143
:1005B0000001000100010001000100010001000133
:1005C0000001000100010001000100010001000123
:1005D0000001000100010001000100010001000113
:1005E0000001000100010001000100010001000103
:1005F00000010001000100010001000100010001F3
:1006000000010001000100010001000100010001E2
:1006100000010001000100010001000100010001D2
:1006200000010001000100010001000100010001C2
:1006300000010001000100010001000100010001B2
:1006400000010001000100010001000100010001A2
:100650000001000100010001000100010001000192
:100660000001000100010001000100010001000182
:100670000001000100010001000100010001000172
:100680000001000100010001000100010001000162
:100690000001000100010001000100010001000152
:1006A0000001000100010001000100010001000142
:1006B0000001000100010001000100010001000132
:1006C0000001000100010001000100010001000122
:1006D0000001000100010001000100010001000112
:1006E0000001000100010001000100010001000102
:1006F00000010001000100010001000100D402001E
:100700000002000200D002000003000100D5020038
:100710000004000200BA02A51D05000100D6020077
:100720000006000200BC02000007000200D2020026
:100730000008000100D702000012000200D80200E9
:100740000013000200DA02000014000100DC0200C5
:100750000000000000000000000000000000000099
:100760000000000000000000000000000000000089
:1007700000000000007E0F00D4FFFFFFC700000054
:100780007800000000000000002A2B280000000074
:100790000000000000000000000000002900000030
:1007A000002C1E3420212224342627252E362D37D6
:1007B00038271E1F202122232425263333362E37A7
:1007C000381F0405060708090A0B0C0D0E0F10113F
:1007D00012131415161718191A1B1C1D2F3130234C
:1007E0002D350405060708090A0B0C0D0E0F101114
:1007F00012131415161718191A1B1C1D2F3130351A
:100800004C0011241FBECFEFDAE0DEBFCDBF04B62F
:1008100003FE18C080910D0490910E04A0910F0466
:10082000B09110048730904BA740B04B59F4109210
:100830000D0410920E0410920F0410921004E0E0C8
:10084000F8E3099511E0A0E0B1E0E6E9F0E602C0C6
:1008500005900D92AE37B107D9F724E0AEE7B1E0CD
:1008600001C01D92AD30B207E1F70E94920C0C94CA
:1008700049300C9400006F927F928F929F92AF92BA
:10088000BF92CF92DF92EF92FF920F931F93CF937D
:10089000DF9300D000D0CDB7DEB77C01DC0113962A
:1008A0004D915C91149711966C9111978C910E94C7
:1008B000D01F81110C947F0C61E0C7010E946A294E
:1008C0008C01F7018281811106C0D70112968C91AB
:1008D00081113EC0F0C080910C0190910D010196F4
:1008E000A1F364EEC62E62E0D62EA12CB12C992481
:1008F000939480910C0190910D018A159B052CF326
:10090000F60186818823E9F0818592850817190709
:1009100039F48091E2029091E3020817190789F0F7
:10092000D6011F969C921F971C961C930E931B97A3
:10093000C6010E94371FC60106960E94F01E109243
:10094000E102BFEFAB1ABB0AE6E1CE0ED11CD1CF5C
:10095000C80182519F45409708F0C9C08FEF93E0CE
:100960000E94AD2F8111B1C0025153E9A52E53E071
:10097000B52E002379F0A114F4E0BF0609F4A5C058
:10098000C5010E94AD2F811101C001502FEFA21AA5
:10099000B20AEFCF19821A821B821C82CC24CA941D
:1009A00085010F5F1F4FC5010E94AD2F89831A82F9
:1009B000882309F48AC0813009F078C0450182E0BB
:1009C000880E911CC8010E94AD2FD82E8A838823DF
:1009D00009F47BC08FEF8D0D833050F40E5F1F4FF5
:1009E000C4010E94AD2F8B83811160C05801D8CF04
:1009F0008BEF8D0D833070F5350193E0690E711C1E
:100A0000C4010E94AD2F8B83811102C08301EECF00
:100A100085010C5F1F4FC3010E94AD2F8C8388237B
:100A200029F32B813C812130AFEF3A0718F0922F48
:100A300080E001C0C901B6E0DB1631F0E7E0DE1668
:100A400031F00E948F2ED2CF0E940A2ECFCF0E946B
:100A5000812DCCCFF4E0DF1611F08401C7CFC401A3
:100A60000E94AD2FD82E85010C5F1F4FC501039644
:100A70000E94AD2FDD2049F1882339F1282F30E085
:100A800021503109C29EA001C39E500D11248D2D0D
:100A900090E00197840F951F019708F4A7CFAFE965
:100AA000BFE01197F1F700C00000F6CFCE0101962C
:100AB0000E948E289BCF00318FE5180709F0DDC317
:100AC00081E00E94A5190E94EF1380919F03877017
:100AD00009F415C7F7018281882309F410C78091B2
:100AE0008E0182FD0CC782E00E94092708C70031F1
:100AF000BFE51B0711F481E005C00131EFE51E07DA
:100B0000A1F482E00E94B119DECF6801F7E5DF1A97
:100B10002FEFC216D10409F040F463EB73E08C2D83
:100B20000E947923892B09F4AFC3C80197558F3FE1
:100B3000910511F008F053C020910C0130910D0186
:100B40002817390724F490930D0180930C01D701E5
:100B500012962C91129736E1389F5001399FB00CB4
:100B60001124F501EC51FD4F6F01208B12969C91E1
:100B70008681992351F1128701878F5F86830E94B6
:100B8000691ED6011E969C938E931D978091AA0391
:100B900017968C9317979091E1028091ED01892B24
:100BA00018968C931897ED91FC911197309741F01E
:100BB00054966D917C915597C50186519D4F09952D
:100BC0001093E3020093E2020AC0882341F0818976
:100BD000882329F0C50186519D4F0E94F01E809107
:100BE000D50280FFBFC00E94691E6C01D70112961A
:100BF0008C918823D9F18091110182FF08C02AE9E4
:100C000031E040E0B60180E090E00E946A210B31C3
:100C1000BCE51B0779F00C31ECE51E0789F00A31C1
:100C2000FCE51F07A1F480911101982F909590FB8E
:100C300080F909C08091110181608093110107C082
:100C4000809111018E7F809311010E942D21C80196
:100C50009056811520E2920720F0905E8115904118
:100C600080F510921102109210027CC0013E110515
:100C700021F4809111018F7E06C0053E110531F4EB
:100C8000809111018F7D809311011BC0C801905686
:100C90008115B0E29B0720F0905E8115904188F4A9
:100CA0008091110182FF5EC08091D70281FD5AC000
:100CB0002AE931E040E0B60180E090E00E946A213C
:100CC00051C08091110180FF4DC0D70112968C91C7
:100CD0000832110538F40E311105B8F4043011054D
:100CE00078F41CC00933110538F40D32110590F465
:100CF0000B32110579F012C00436110559F00EC0FF
:100D00009091D50294FD0AC0BEC19091D50293FD89
:100D100005C0B9C19091D50292FFB5C1882311F1E8
:100D20001092110210921002033FBCE51B07B9F1AB
:100D300078F4083DFCE51F0761F1093D2CE5120739
:100D400009F44EC0073D8CE5180709F057C01BC0D9
:100D5000053F9CE51907A1F168F1063FBCE51B07BB
:100D6000C9F14CC0033FFCE51F07C9F0F0F4083D92
:100D70008CE5180771F0093D9CE5190789F1073DDD
:100D8000ACE51A07B1F506E221EE41EE67ED7CE530
:100D90002CC007E225EE45EE68ED7CE526C006E2B4
:100DA00021EE40EE63EF7CE520C0053FBCE51B076C
:100DB00039F060F407E225EE44EE64EF7CE515C0FF
:100DC00006E221EE42EE65EF7CE50FC0063FFCE552
:100DD0001F0779F407E225EE46EE66EF7CE505C0D5
:100DE00008E221E045EE69ED7CE5C7010E94591F4C
:100DF0006CCEF7012281222309F4F3C11092E002A4
:100E00000330FDE51F0758F40A3F2CE5120780F474
:100E1000C80182509C45449708F0E2C109C00136E0
:100E20008DE5180729F0053A9DE5190709F0D8C1A5
:100E30000E94542690938E0180938D010131ACE580
:100E40001A0709F4C6C008F042C00930ECE51E07D5
:100E500009F49BC000F505302CE5120709F485C0A4
:100E600078F403309CE5190709F478C008F07AC0DB
:100E700002301C4509F0F7C080918D018160F1C0FE
:100E80000730ECE51E0709F478C008F07AC08091BD
:100E90008D018061E6C00D302CE5120709F487C092
:100EA00058F40B309CE5190709F479C008F07BC0B1
:100EB00080918D0188606FC00F30BCE51B0709F47D
:100EC00080C008F082C080918D01877FCAC00D3F2D
:100ED000FCE51F0709F471C000F505318CE5180722
:100EE00009F485C068F40331ACE51A0709F475C04C
:100EF00008F095C00E94EA1980918D018F77B1C0EA
:100F00000B3FECE51E07A9F108F054C00A3F1C4551
:100F100009F0A9C080918E0140C001308DE518070D
:100F200009F489C058F40F3FACE51A0709F45AC018
:100F300008F069C080918E0182602FC00136EDE516
:100F40001E0709F47EC0053AFDE51F0709F483C0BA
:100F500002301D4509F087C060E06EC080918D01B0
:100F600082607FC080918D0116C080918D01886064
:100F700078C080918E0182604FC080918D01806227
:100F800070C080918D0180646CC00E94EA198091CC
:100F90008D01806866C0846064C081603DC08091BE
:100FA0008D018E7F5EC080918D018D7F5AC08091B2
:100FB0008D0116C080918E0118C080918E018D7FA9
:100FC0002BC080918D018F7E4CC080918D018F7DD3
:100FD00048C080918D018F7B44C080918D01877FB7
:100FE0008B7F3FC080918E018D7F8E7F15C0809159
:100FF0008D0182FB222720F991E0922790FB82F954
:1010000090FB83F92EC080918E01982F909591705E
:101010008E7F892B90FB81F980938E0124C00E94E2
:10102000EA1980918D0187FB222720F991E0922710
:1010300090FB87F916C061E08EE090E00E94BB2F24
:1010400012C080918D0184FB222720F991E0922724
:1010500090FB84F906C080918D01982F909590FBAC
:1010600080F980938D0160918D0110918E0184E053
:1010700090E00E94BB2F612F82E290E00E94BB2F84
:101080000E94EA1922CD882309F4A3C02091ED0122
:101090008091AA03982F922B392F3D7F79F11092DE
:1010A0001102109210023091D50231FD27C0F801D3
:1010B00043E0F695E7954A95E1F7EE71FF27E25197
:1010C000FE4F98012F70332781E090E002C0880F17
:1010D000991F2A95E2F7809590952081318182238E
:1010E000932391838083A70160E0C8010E944B2174
:1010F0008091AA038D7F0E94DA2667C038E0F7014D
:10110000AAE9B1E001900D923A95E1F710929C01A5
:1011100010929E0110929D01409110025091110277
:1011200004171507D1F53091D50235FF36C040912F
:10113000110141FF02C036FF30C040910E025091B4
:101140000F02B601641B750B4091D2025091D3027D
:101150006417750710F521FF08C0809111018061A7
:101160008093110182E00E94F5268091ED0185FFB8
:1011700008C08091110180628093110180E20E9479
:10118000F5266091110166956170A70180911002AA
:10119000909111020E944B2198CC969591702091CC
:1011A000110190FB21F9209311018D7F0E94DA2615
:1011B0001093110200931002D0920F02C0920E02FF
:1011C0008091110184608093110182E00E940927BF
:1011D0007CCC970140E0B601C8010E946A2175CC21
:1011E00021E006318CE5180709F08CC08091ED01F3
:1011F000982F9A7A3091D40230FF04C0482F44745B
:1012000009F090E031FF04C0482F417109F090E0EF
:1012100032FF04C0482F487809F090E033FF02C045
:10122000827261F42223A1F081E0911101C080E07B
:1012300080938001992331F065E305C0222341F0BA
:101240001092800169E28AE493E00E949E1E12C01F
:1012500080918001882311F085E301C089E2EAE4EE
:10126000F3E09281891301C01282319693E0E03558
:10127000F907B9F70E94732728CC01319FE51907B8
:1012800009F043CC82E01DCC86E18C9DF0018D9D60
:10129000F00D1124EC51FD4F86818130E1F48091F5
:1012A000B3039091B403892B09F43FCC8091B5032B
:1012B0009091B603892B09F438CC8091B7039091B3
:1012C000B803892B09F031CC8091B9039091BA030E
:1012D000892B59F02ACC823009F027CC8091B703B2
:1012E0009091B803892B09F420CC26E12C9DC001F4
:1012F0002D9D900D11248C519D4FFC01108A0E9450
:10130000371F13CCD70112968C91882389F10A35A7
:10131000ADE51A0741F150F40115ECE51E07A9F0FF
:101320000E3D1C4529F50E946526CFCB0B352DE5DA
:101330001207D9F00C351D45D9F480918E0182FB3E
:10134000882780F991E0892711C00E94EA199FEF50
:10135000A4E3BCE09150A040B040E1F700C0000021
:101360000E94041EB2CB81E001C080E00E942627CB
:10137000D70116968D919C9117970097C9F4D701C4
:1013800012968C9112970D911C91882349F0C801F7
:101390000E940819D82E682FC8010E94741904C031
:1013A000C8010E944419D82EB8018D2D0E94AA228E
:1013B0000E94CB24182F092FF701B280C580C29458
:1013C0003FE0C32280919F038770B9F0BB20A9F052
:1013D000892F807F803421F080E2810F883068F08F
:1013E00080918E0182FD09C082E00E9409278091D0
:1013F0009F038770AA24A3948111A12C902E92940C
:101400002FE09222892D90E08C30910508F026C2C1
:10141000FC01EA5AFF4F0C940B30902F9F70802FE5
:10142000807FD92E19F0D29490EFD922BB20A9F059
:10143000DD2009F4F3C180E2810F883010F0111132
:1014400004C08D2D0E94FC2605C08091E102D82A9F
:10145000D092E1020E947327E1C1812F0E94141AE9
:10146000DD2009F4FBC180E2810F883068F111238F
:1014700059F18D2D0E94EE262AC0902F9F70802F4B
:10148000807FD92E803219F0D29480EFD822112398
:1014900021F0113009F45CC067C080918E0182FF99
:1014A00019C0BB2059F0DD2029F08D2D0E94FC26AB
:1014B0000E94732780E00E94451AD0C180E00E94FC
:1014C000141ADD2009F4CAC18D2D0E94F5260E9450
:1014D0007327C4C1BB2001F1CC20D1F0F1E0CF12C1
:1014E00006C08091AA038D290E94DA26B7C1809197
:1014F000D602823068F0C8120BC00E94CF268091BD
:101500009C03D812D0929C038D2D0E940D1AA6C167
:101510008091AA038D29F9CFCC2079F08091D60251
:1015200021E0C21210C0823008F498C18091ED0110
:101530008D2109F493C10E94BE270E94CF268D2DD4
:101540000E94061A8BC18230C0F3C812F6CF86C142
:101550008091DC02BB2021F08C1508F47FC1D4CF30
:10156000C81608F07BC1EBCFBB20E9F0CC2061F2BC
:1015700020E0D7014C9111965C91119712966C91D5
:10158000129713967C91139714968C910E9441297F
:101590008091D70281FD42C1F701858180FF3EC164
:1015A0008F708583B1CFC11042C1C9CF802F86957E
:1015B0008695837019F0813061F050C1BB2021F015
:1015C000812F902F937002C080E090E00E94CE1E89
:1015D0004BC1BB2021F0812F902F937002C080E07F
:1015E00090E00E94B81E40C1802F8370A1F5B11019
:1015F00039C1412F429546954770440F440F212F22
:101600002F7030E0C901042E01C0880F0A94EAF758
:1016100014FF08C02FE030E001C0220F4A95EAF71E
:10162000209501C020E0302F36953695337032304A
:1016300069F040F44091AE03313019F0822B8423DD
:1016400002C0842B822B0E94BC190CC1282B8091D4
:10165000AE038227F8CFBB2019F0802F817001C024
:101660008695882309F4FEC0412F42954695477020
:10167000440F440F212F2F7030E0C901042E01C008
:10168000880F0A94EAF714FF08C02FE030E001C089
:10169000220F4A95EAF7209501C020E0302F3695B9
:1016A00036953370323051F070F44091CB013130C7
:1016B00019F0822B842308C0842B05C0282B80912D
:1016C000CB01822701C0822B0E94A119CBC0F02F31
:1016D000FF70DF2EBB2039F08F2F0E94B119812FB0
:1016E0000E940D1ABFC0812F0E94061A8D2D0E94E4
:1016F000A519B8C0123F11F128F4103F41F0113F75
:10170000A9F188C0133F01F1143F61F183C08091BA
:10171000DC02BB2021F0C81608F0A0C003C08C1565
:1017200008F49CC0202F2F7181E090E001C0880F49
:101730002A95EAF79091CB0189270FC0802F8F71EE
:10174000BB2009F46FC086C0BB2051F081E0902F10
:101750009F7101C0880F9A95EAF70E94A1197EC077
:1017600080E0FBCF80918E0182FF06C0802F8F71B9
:10177000BB2009F46FC056C08091D6028230A0F120
:1017800080919C03BB20E1F00E94F52680919F038D
:101790008770843039F40E940227802F8F710E9455
:1017A000A5195BC08091D602C81608F056C0202F3C
:1017B0002F71D22E822F0E94B11963E08D2D0DC0A2
:1017C0000E94FC268091D602C81650F00E94022783
:1017D0000E94BE2764E0802F8F710E9443273DC086
:1017E00081E00E94092739C0BB2051F0802F8F7102
:1017F000D82E0E94B11963E08D2D0E9443272EC080
:1018000081E00E94092791E09C1540F582E00E944A
:10181000092724C0BB2049F0CC2011F0812F4BCEEA
:10182000802F8F710E94B11919C0CC2089F0193313
:1018300029F48091DA029091DB0204C08091D802F1
:101840009091D9020E945F21812F0E94141A06C034
:10185000802F8F710E94A51901C0A12C88EF890DDE
:10186000843010F40E94E41E812F902F0E94C01932
:10187000811105C0109282011092810125C0BB2008
:1018800019F0C110F7CF20C0C110F4CF20E0D7016C
:101890004C9111965C91119712966C911297139638
:1018A0007C91139714968C910E9441298091D702C4
:1018B00083FFE0CF80918101909182010297D1F660
:1018C000812F0E94971AD6CFAA20A9F080919F035A
:1018D00080FD11C0F70112828595859585950E943E
:1018E000B119C7010E943B0480919F03859585959E
:1018F00085950E94A51960E0C7010E946A290F9092
:101900000F900F900F90DF91CF911F910F91FF904B
:10191000EF90DF90CF90BF90AF909F908F907F908F
:101920006F900895CF93DF93CDB7DEB7E4970FB6EE
:10193000F894DEBF0FBECDBF84B7877F84BF0FB6DC
:10194000F894A8958091600088618093600010925F
:1019500060000FBE90E080E80FB6F89480936100BD
:10196000909361000FBE85B7806885BF85B780689A
:1019700085BF8EE893E290937F0180937E010E9461
:101980002B2D0E94D22C0E9432220E9420170E94EE
:101990003F178091E20084608093E2007894809108
:1019A000CA018823A1F01091E9001F709091EC000A
:1019B000892F817090FD80E8182B1092E9008091AA
:1019C000E80083FD0E94FA131F701093E90082E083
:1019D00084BD93E095BD9AEF97BD80936E000E9401
:1019E0007B2F811102C00E946C2F0BE111E0F0E20D
:1019F000EF2EF1E0FF2ED8018D918D018F3F11F078
:101A00000E94D323E016F106B1F700E211E0EEE206
:101A1000EE2EE1E0FE2EF80181918F018F3F11F053
:101A20000E94D323E016F106B1F78AE0EAEAF1E07A
:101A3000DF01282F1D922A95E9F7E3E8F1E0DF01A5
:101A40001D928A95E9F780E090E00E94B52F893ECB
:101A50009E4F21F40E947B2F811102C00E946526B7
:101A600082E090E00E94AD2F80938F010E94542667
:101A700090938E0180938D010E94EA23EFE3FCE9AD
:101A80003197F1F700C000000E94EA238091AA017B
:101A900080FF08C06FEF7FEF80E090E00E94D92FB9
:101AA0000E94041E83E090E00E94AD2F0E94BC19AA
:101AB0005098589A5198599A8FE891E00197F1F708
:101AC00000C0000089B1982F9170499B02C082E04C
:101AD00001C080E0892B8093A40180E091E0909385
:101AE0003F0380933E038E010F5F1F4F8091CA0119
:101AF000853009F049C060E1E62E72E1F72E809151
:101B0000CA01853009F03CC08091CA01843021F1BE
:101B100010924203A8E1B0E0E0E40FB6F894A89573
:101B2000A09360000FBEE093600083B7817F846064
:101B300083BF83B7816083BF7894889583B78E7F96
:101B400083BF0FB6F894A895809160008861809358
:101B50006000109260000FBE8091C001882309F4DC
:101B6000CECF0E94EA23EAEAF1E081919191892B9C
:101B700009F05BC524EB31E02E173F07B1F7BFCF6B
:101B80000E94EA190E94E41E0E94EA2381110E9429
:101B90005D1E5AEAA52E51E0B52EA0E9B1E0F5018F
:101BA000E12CF12C6E2D219131918D919D91822707
:101BB0009327009779F170E0CC24C394D12CAC0129
:101BC0004C215D21452B09F17BA76CA72C213D21E0
:101BD00081E0232B09F480E08DA70E94691E8160BB
:101BE000782F9FA78EA74BA55CA56DA58FA50E94FA
:101BF0007829F701EE0FFF1FE057FE4F808191819A
:101C0000C826D926D182C0821CC07F5FCC0CDD1CC7
:101C10007E30A9F63FEFE31AF30A45E0E416F1043B
:101C200009F68FEF88AB89AB1AAA0E94691E816002
:101C3000782F9CAB8BAB48A959A96AA98CA90E94A3
:101C4000782980910C0190910D01019651F1712C30
:101C5000B6E16B2E1DC0689EF001699EF00D112447
:101C6000EC51FD4FC288D388C114D10421F4C09037
:101C7000D202D090D302689E4001699E900C11243C
:101C8000F401EC51FD4F7F01868181110FC07394E7
:101C9000872D90E020910C0130910D012817390714
:101CA000D4F680911201811111C038C085859685C6
:101CB0000E944E1EC816D90650F7C7010E94371F52
:101CC000C40186519D4F0E94F01EE1CF8091B80261
:101CD0009091B902009711F10E944E1E20911202BC
:101CE0003091130228173907C8F49091B6028091F9
:101CF000B702981759F00E947E201092130210929A
:101D000012021092B9021092B80208C00E940D206F
:101D10001092B9021092B8020E945F208091D50201
:101D200080FF1EC08091110182FF1AC00E94691EAF
:101D300020910E0230910F02AC01421B530B2091F7
:101D40000F01309110014217530750F02AE931E09A
:101D500041E0BC0180911002909111020E946A2121
:101D60008091A401E82FEE0FEE0FE093A40189B15A
:101D700080FB222420F8312C499B03C082E090E0B4
:101D800002C080E090E0822993298E2B8093A401E9
:101D90008F70E82FF0E0E25DFE4F90818091A3010B
:101DA000890F8093A30184305CF08091A2018F5F42
:101DB0008093A20161E080E00E943B2E21E001C0FF
:101DC00020E08091A3018D3F54F48091A2018150C5
:101DD0008093A20160E080E00E943B2E21E0809190
:101DE000A301082E000C990B64E070E00E94F72F0D
:101DF0008093A30121110E945D1E0E94E41E909118
:101E0000A50189138093A5018091CA01843009F04E
:101E10006DCE83E08093E9008091E80082FF66CE7A
:101E20008091E80085FF24C00E94771881111EC0B0
:101E3000A0E2EA2EF12C9E012F5F3F4F690109C0FD
:101E40008091F100D6018D936D01B1E0EB1AF1089C
:101E500069F08091E80085FDF3CF8091E8008B77F1
:101E60008093E8000E947718882399F391E001C0DD
:101E700090E08091E8008B778093E800992309F443
:101E800035CEE090EB01F090EC018981E114F10492
:101E900061F08E3F09F0C5C38A81833008F4B9C16F
:101EA0008550833008F0BDC3B4C18B3009F49BC1A9
:101EB00010F5853009F471C0B0F48230C1F130F40E
:101EC000813009F0ACC31A8289E083C2833009F4FF
:101ED00057C0843009F0A3C34C816B818A810E9472
:101EE000A42C9D83BFC3873009F499C308F097C31E
:101EF0000E94C62296C3803109F4B7C060F48D30C9
:101F000009F458C008F454C08E3009F456C08F301C
:101F100009F47DC084C3823109F4ACC008F4A8C0C0
:101F2000833109F4D1C08E3F09F473C178C38A812B
:101F3000823009F490C3833051F0813009F06FC3CF
:101F40000E945D1E9B838C837D836E836AC3809118
:101F5000E7019091E801892B09F463C3FE013196F2
:101F6000CE010B96D5012C9111963C91B2E0AB0EAF
:101F7000B11C328323833296E817F90799F751C3CE
:101F80008A81823009F04BC36B817C818D819E8177
:101F90000E9411300E944A2F44C32D813E81322776
:101FA000232732274C816B818A810E946E2C39C392
:101FB00080E1D3C21A828DE60CC2EA80FB80FE2447
:101FC000EF24FE24AC80B12CEDE1AE16B10408F094
:101FD00028C36801C7018D569C4F9601201B310B09
:101FE0002A153B0508F01DC3FDE6EF16F10430F499
:101FF0000E94AD2FD60114968C9302C0F601148274
:10200000FFEFEF1AFF0A2FEFC21AD20AE3CF809137
:10201000E7019091E801892B09F403C3EA80FB8072
:10202000FE24EF24FE24CC80D12C3DE1C316D10444
:1020300008F0F7C25801C7018D569C4F9501201B2F
:10204000310B2C153D0508F0ECC24DE6E416F10409
:1020500028F4D50114966C910E94BB2FBFEFEB1AA8
:10206000FB0AEFEFAE1ABE0AE6CF0E949A22D9C24F
:1020700085E073C2EA80FB80FE24EF24FE24AC805E
:10208000B12CFDE1AF16B10408F0CBC26801C70165
:1020900087969601201B310B2A153B0508F0C1C21B
:1020A0002CEBE21622E0F20630F40E94AD2FD601AE
:1020B00014968C9302C0F6011482FFEFEF1AFF0A08
:1020C0002FEFC21AD20AE3CFEA80FB80FE24EF246E
:1020D000FE24AC80B12C3DE1A316B10408F0A1C2EE
:1020E0004CEBE41642E0F40608F09BC28CEB92E065
:1020F0008E199F098A159B0508F493C2370187E260
:10210000680E711C8091E7019091E801892B11F014
:10211000680160C0E0FE0FC0C70186960E94AD2F27
:1021200090E0982F88272D81822B81159C4531F4D2
:102130008FEF8D8303C0C12CD12C03C0CC24C3945A
:10214000D12CC7018A0D9B1D450180FF1BC0B1E04A
:102150008B1A910865E0462E512C4C0E5D1E480CE2
:10216000591CC3018A0D9B1D0E94AD2FF2012081D5
:1021700030E0322F2227282B21153C4519F48FEF10
:10218000D2018C93F801EC0DFD1D2FEFCF01801BC8
:10219000910B8815990508F0BBCF848190E0982FAA
:1021A00088273581832B81159C4511F42483258351
:1021B0003296ECCFECEBEE16E2E0FE0628F4D60108
:1021C00014966C910E94BB2FBFEFEB1AFB0AEFEF46
:1021D000CE1ADE0AC70187969601201B310B2A15FD
:1021E0003B0540F31EC28091E7019091E801892BE5
:1021F00009F417C2C8010E94D618FFEF21EE34E09F
:10220000F15020403040E1F700C000000E94041E61
:1022100008C2EA818E2F90E08E30910508F001C24D
:10222000FC01EE59FF4F0C940B3088E0E3E1F1E044
:10223000DE01919601900D928A95E1F780E2D80136
:102240001D928A95E9F785E0898388E0FE01B196C1
:10225000DE011596C0C180EF898381E08A831B82ED
:102260001C82DFC18C8190E0982F88272B81820F00
:10227000911D092E000CAA0BBB0B45E0880F991F7E
:10228000AA1FBB1F4A95D1F7AC01BD01405E5F4F4D
:102290006F4F7F4F481759076A077B0708F4C1C182
:1022A000803FE1E09E07A105B10508F0BAC1413FBA
:1022B000F1E05F076105710520F040EF51E060E05B
:1022C00070E0481B590BBC016C507F4FC8010E9445
:1022D000942FA7C1FB80EC8040E06E2D8F2D0E94D3
:1022E000442C99838A8341E06E2D8F2D0E94442CCB
:1022F0009B838C8396C12E813F81322723273227EF
:102300004D816C818B810E94122C8BC140E250E088
:102310006FEF70E0C8010E9442308091E70189832D
:10232000EA821B821C8282E08D838CE09BC181E06B
:1023300090E09093EC018093EB0182E390E0909326
:10234000A9018093A8010E94691E9093A701809320
:10235000A60167C1EF28A9F1F090AF01F4FAFF24BC
:10236000F0F88091AA01F8228091A6019091A7012E
:102370000E944E1E85369105F0F0FF20E1F00E948C
:10238000691E9093A7018093A6018091A801909166
:10239000A90101979093A9018093A801892B89F441
:1023A0001092EC011092EB0181E090E09093E80133
:1023B0008093E70106C082E390E09093A9018093A7
:1023C000A8018091E70189838091EB018A83809144
:1023D000A8018B8326C11092E8011092E70121C168
:1023E000EB80FC8040E250E06FEF70E0C8010E949B
:1023F000423029EF36E0A1E5B7E080E090E0AC01A3
:102400004E5F5F4F4132510508F00BC1F9016591F4
:102410007491E616F70630F4F801E80FF91F71839E
:102420006083CA01285F3F4FA217B30741F7F9C085
:102430002B813C8189EF96E0FC0145915491421734
:10244000530731F0089647E081359407A9F7E7C0B4
:10245000009709F4E4C09C012E5F3F4FF9014591BC
:1024600054914032510508F0DAC0F9014591549178
:10247000FC01349665917491CE0102960E94393028
:1024800038C08B819C8129EFE22E26E0F22EF701E5
:10249000259134918217930749F0A8E0EA0EF11CC8
:1024A000B1E5EB16B7E0FB0691F7B9C0E114F10412
:1024B00009F4B5C0C7010296FC01259134912D3174
:1024C000310508F0ACC0FC0145915491F7013496F8
:1024D00085919491BE016B5F7F4F0E9439300E94BD
:1024E0005922F701369685919491009711F0FC01DD
:1024F000099580E095C00E94762293C08B8182303E
:1025000071F1E8F4882309F1813009F08AC08C81E7
:102510009AE0D92E7E01B1E2EB0EF11CF7012D2DD0
:1025200011922A95E9F7B7010E9479238983F7016F
:10253000DE01129601900D92DA94E1F772C08330B9
:1025400069F1843009F44CC06CC080E2D8011D925E
:102550008A95E9F784E0898388E08A8362C06C8188
:102560008AE0FE013596DE01919601900D928A95E2
:10257000E1F7643070F43AE0639FB0011124655EC6
:102580007C4F4AE050E0CE0181960E94DF2F80E030
:1025900001C08FEF89830E942B2D43C06C81CE0137
:1025A00081962AE0DC011D922A95E9F7683060F4F3
:1025B000BAE06B9FB00111246D5B7C4F4AE050E0A4
:1025C0000E949D2F80E001C08FEF89838AE0FE0189
:1025D000B196DE01129601900D928A95E1F721C025
:1025E0006C818AE0FE013596DE01919601900D9294
:1025F0008A95E1F7683070F4EAE06E9FB00111242B
:102600006D5B7C4F4AE050E0CE0181960E94DF2F47
:1026100080E001C08FEF89830E94D22C02C08FEF2F
:102620008983C8010E94D61861CAE9BCF9BC09B403
:1026300000FEFDCF8091D8008F7D8093D8008091DF
:10264000E00082608093E0008091E00081FDFCCF9B
:102650000E94EA1954CA86E290E00E94AD2F1B82C4
:102660001C821D828E83DDCF8091C20187FF11C045
:102670008091E80082FD05C08091CA018111F8CFE8
:1026800011C08091E8008B770BC08091CA0188232C
:1026900049F08091E80080FFF8CF8091E8008E77C4
:1026A0008093E8000895982F973068F59093E9009B
:1026B000981739F07091EC002091ED005091F000E6
:1026C00003C0242F762F50E021FD02C09F5FECCF86
:1026D0003091EB003E7F3093EB003091ED003D7F79
:1026E0003093ED003091EB0031603093EB0070934C
:1026F000EC002093ED005093F0002091EE0027FDB8
:10270000E5CF80E008958F708093E90081E008951F
:102710002091C8013091C9012617370748F061158B
:10272000710539F42091E8002E772093E80001C06C
:10273000B901FC0120E06115710579F18091CA01B0
:102740008823F1F18530F1F18091E80083FD3CC0F0
:102750008091E80082FD2EC08091E80080FFEBCFE1
:102760002091F3008091F20090E0922B61157105A9
:1027700051F08830910538F421912093F100615097
:1027800071090196F3CF21E0089709F020E08091CC
:10279000E8008E778093E800CECF2111CFCF0AC01A
:1027A0008091CA01882361F0853061F08091E80052
:1027B00083FD0AC08091E80082FFF2CF80E0089597
:1027C00082E0089583E0089581E008950895BC01B2
:1027D00084E00C94DA1DBC0183E00C94DA1D809136
:1027E000CB01982F9670963011F4886001C0877FD6
:1027F0000C94A1191F93CF93DF93CDB7DEB7AA979F
:102800000FB6F894DEBF0FBECDBFE2ECF1E08AEC6C
:1028100091E02091F10021938E179F07D1F78091CD
:10282000C301833009F463C030F4813071F0823029
:1028300009F49DC0B4C08A3009F489C08B3009F412
:102840006EC0893009F0ABC020C08091C201813ACE
:1028500009F0A5C08091E800877F8093E80080910F
:10286000C6019091C701892B21F468E087EB91E0C4
:1028700003C060E080E090E070E00E9488138091E7
:10288000E8008B778093E8008AC08091C201813292
:1028900009F085C08091C6019091C701009719F099
:1028A000029709F07CC08091E800877F8093E80060
:1028B0008091E80082FD05C08091CA018111F8CFA6
:1028C0006EC02091F3008091F20090E0922B02976D
:1028D00031F48091F100813011F0863021F4809143
:1028E000F1008093B6018091E8008B7754C080910D
:1028F000C201813A09F053C08091C6019091C7018D
:10290000892B09F04CC08091E800877F8093E80014
:102910008091E80080FFFCCF80910E0137C080914C
:10292000C2018132E1F58091C6019091C701892BE6
:10293000B1F58091E800877F8093E8000E9434130E
:102940008091C40180930E010E94EA1928C08091F1
:10295000C201813221F58091E800877F8093E800F1
:102960000E9434138091C5018093B50118C08091F5
:10297000C201813AA1F48091E800877F8093E8004A
:102980008091E80080FFFCCF8091B5018093F10039
:102990008091E8008E778093E8000E943413809144
:1029A000E80083FFEBC18091C2019091C301492FE0
:1029B00050E04A30510508F0E1C1FA01E059FF4FFB
:1029C0000C940B30803821F0823809F0D7C108C050
:1029D0008091BF019091C001992389F082600FC05E
:1029E0008091C6018F70873008F0C8C18093E900DC
:1029F0008091EB0085FB882780F91092E900909187
:102A0000E800977F9093E8008093F1001092F10026
:102A10007CC1282F2D7F09F0B1C1882319F08230A5
:102A200061F0ACC18091C401813009F0A7C193303D
:102A300009F080E08093C0012EC08091C401811113
:102A40002AC08091C6018F702FEF280F263008F022
:102A500095C18093E9002091EB0020FF1CC09330CA
:102A600021F48091EB00806214C09091EB009061A2
:102A70009093EB0021E030E0A90102C0440F551F04
:102A80008A95E2F74093EA001092EA008091EB0009
:102A900088608093EB001092E9008091E800877FC6
:102AA0008093E8000E94341369C1811167C11091BD
:102AB000C4011F778091E3008078812B8093E3002D
:102AC0008091E800877F8093E8000E943413809112
:102AD000E80080FFFCCF8091E30080688093E300F2
:102AE000111102C082E001C083E08093CA0146C197
:102AF0008058823008F042C12091C4013091C50154
:102B00002C3D53E0350779F583E08A838AE2898397
:102B10004FB7F894DE01139620E03EE051E2E32F38
:102B2000F0E050935700E49120FF03C0E295EF706E
:102B30003F5FEF708E2F90E0EA3010F0C79601C033
:102B4000C0968D939D932F5F243149F74FBF80919D
:102B5000E800877F8093E8006AE270E0CE0101968A
:102B60000E948813C0C08091C6019091C701432F75
:102B7000552743305105B1F068F44130510509F44F
:102B80000CC14230510509F0F9C08BE590E0E8E74F
:102B9000F3E057C04132510589F14232510509F441
:102BA0003CC0ECC0C901992781309105B9F070F0A3
:102BB00082309105D9F0039709F0E0C0E5EEF3E02B
:102BC000E4918E2F90E0E5EEF3E038C0E5E2F4E02A
:102BD000E4918E2F90E0E5E2F4E030C0E3E1F4E030
:102BE000E4918E2F90E0E3E1F4E028C0E3E0F4E02C
:102BF000E4918E2F90E0E3E0F4E020C08330910573
:102C000008F0BCC0880F991FFC01E95BFE4F0190E2
:102C1000F081E02D89E090E014C08330910508F048
:102C2000ADC0FC01EE0FFF1FEF5BFE4F0190F08186
:102C3000E02DDC01A25CBE4F8C9190E0009709F47E
:102C40009DC02091E800277F2093E8002091C801D3
:102C50003091C9012817390708F4C90140E00097ED
:102C600089F12091CA01222309F43DC02530D9F110
:102C70002091E80023FD37C02091E80022FD2FC0FD
:102C80002091E80020FFEBCF4091F3002091F2006B
:102C900030E0342B009759F02830310540F444914E
:102CA0004093F100319601972F5F3F4FF3CF41E002
:102CB0002830310509F040E02091E8002E7720937C
:102CC000E800CDCF4111CDCF0AC08091CA01882341
:102CD00051F0853041F08091E80083FD04C080917F
:102CE000E80082FFF2CF8091E8008B778093E800C4
:102CF00045C0803809F042C08091E800877F80930A
:102D0000E8008091C1018093F1008091E8008E7706
:102D1000C7CE811133C08091C4019091C50199271C
:102D2000029764F58091E800877F8093E800109116
:102D3000C4011093C1010E943413111106C0809187
:102D4000E30087FD02C081E001C084E08093CA01F6
:102D500042E061EC81E00E94531342E261EC84E0C6
:102D60000E94531342E261EC82E00E94531342E25C
:102D700060EC83E00E9453138091CA018091E800C7
:102D800083FF10C08091E800877F8093E8008091E6
:102D9000EB0080628093EB0005C082E190E0E3ED00
:102DA000F3E04FCFAA960FB6F894DEBF0FBECDBFAB
:102DB000DF91CF911F9108951F920F920FB60F923E
:102DC00011242F933F934F935F936F937F938F9330
:102DD0009F93AF93BF93CF93DF93EF93FF93C091F4
:102DE000E900CF708091EC00D82FD17080FDD0E841
:102DF0001092E9008091F000877F8093F000789432
:102E00000E94FA131092E9008091F000886080938C
:102E1000F000CD2BCF70C093E900FF91EF91DF91CF
:102E2000CF91BF91AF919F918F917F916F915F9162
:102E30004F913F912F910F900FBE0F901F901895BB
:102E4000E8EDF0E080818E7F80831092E2001092A6
:102E5000DA001092E100A0EEB0E08C9181608C93DA
:102E600080818F77808319BCA7EDB0E08C918E7F35
:102E70008C9380818F7E80831092B4010895CF92CD
:102E8000DF92EF92FF920F931F93CF93DF93C8EDE2
:102E9000D0E088818F7E8883E7EDF0E080818160DB
:102EA000808384E082BF81E08093B40188818E7F3B
:102EB000888302EE10E0F80110821092DA0081EEB1
:102EC000C82ED12CF601108288818F778883888163
:102ED0008068888388818F7D888319BC1092CA019D
:102EE0001092C1011092C0011092BF0190EEE92E24
:102EF000F12CF70180818B7F8083888181608883BA
:102F000042E060E080E00E945313F60180818E7FF2
:102F10008083F801808181608083808188608083E4
:102F2000F70180818E7F8083888180618883DF9133
:102F3000CF911F910F91FF90EF90DF90CF90089568
:102F40001F920F920FB60F9211242F933F934F931E
:102F50005F936F937F938F939F93AF93BF93EF9301
:102F6000FF938091E10082FF09C08091E20082FF1F
:102F700005C08091E1008B7F8093E1008091DA00B1
:102F800080FF2AC08091D80080FF26C08091DA009F
:102F90008E7F8093DA008091D90080FF18C080E195
:102FA00089BD82E189BD09B400FEFDCF81E0809337
:102FB000CA018091B40181110FC00E9420170E94A4
:102FC0003F178091E20084608093E20005C019BC45
:102FD0001092CA011092B4018091E10080FF17C0E5
:102FE0008091E20080FF13C08091E2008E7F809389
:102FF000E2008091E20080618093E2008091D8003D
:1030000080628093D80019BC85E08093CA018091CA
:10301000E10084FF30C08091E20084FF2CC080E199
:1030200089BD82E189BD09B400FEFDCF8091D80041
:103030008F7D8093D8008091E1008F7E8093E100A6
:103040008091E2008F7E8093E2008091E2008160B7
:103050008093E2008091C101882311F084E007C0D1
:103060008091E30087FD02C081E001C083E080938E
:10307000CA018091CA018091E10083FF27C080913D
:10308000E20083FF23C08091E100877F8093E1000D
:1030900082E08093CA011092C1018091E1008E7F8D
:1030A0008093E1008091E2008E7F8093E200809126
:1030B000E20080618093E20042E060E080E00E94F4
:1030C00053138091F00088608093F000FF91EF919E
:1030D000BF91AF919F918F917F916F915F914F9130
:1030E0003F912F910F900FBE0F901F901895209138
:1030F000E4003091E50095E64091EC00842F81706A
:1031000040FF23C08091E80080FD1DC08091CA016E
:10311000882399F0853099F08091EB0085FD11C0EE
:103120004091E4005091E5002417350729F39150B0
:1031300011F09A01E1CF84E0089582E0089583E0E0
:10314000089581E0089580E008954091E80042FFED
:10315000DDCF0895EF92FF920F931F93CF93DF93EC
:103160007C018B010E947718811119C0E7010115BC
:103170001105A1F08091E80085FD0AC08091E8006A
:103180008E778093E8000E947718882381F307C028
:1031900089918093F10001501109E9CF80E0DF911E
:1031A000CF911F910F91FF90EF900895CF932091B1
:1031B000CA012430F9F4C091E900CF703091EC00DD
:1031C000232F217030FD20E8C22B22E02093E9005C
:1031D0002091E80020FF0BC040E050E060E270E08A
:1031E0000E94AA188091E8008E778093E800CF7043
:1031F000C093E900CF91089580E090E00E94CE1E38
:1032000080E090E00E94B81E1092E1020C947327B7
:10321000CF92DF92FF920F931F93CF93DF936C01B6
:103220000091CB018091AE03082BC7E0D0E010E005
:10323000C8010C2E02C0959587950A94E2F780FD8F
:1032400004C02197A8F7F12C09C0FC2EB6018C2FE1
:103250000E94AA220E94CB24019799F38F2DDF911F
:10326000CF911F910F91FF90DF90CF900895CF9352
:10327000DF93EC010E940819BE010E94AA220E945D
:10328000CB24DF91CF9108959E3F61F12EE0929F74
:10329000800D1124682F669566956695982F977016
:1032A00083E0689FB001112440E050E080E0FB0122
:1032B000E40FF51FE453FE4F208130E0092E02C0D9
:1032C000369527950A94E2F721703327042E01C022
:1032D000220F0A94EAF7822B4F5F5F4F433051056C
:1032E00031F7089580E008959E3F51F12EE0929FBE
:1032F000800D1124E82FE695E695E695877051E05C
:1033000001C0550F8A95EAF783E0E89FF001112488
:10331000E453FE4F20E030E070E04081CB01022E0C
:1033200002C0969587950A94E2F78170819584276B
:103330008523842781932F5F3F4F2330310569F721
:1033400008958093CB010C94FC1821E030E001C07B
:10335000220F8A95EAF720958091CB0182230C9465
:10336000A11921E030E001C0220F8A95EAF780918F
:10337000CB01822B0C94A1198093AE030C94FC1802
:1033800092959F70963079F010F4925001C09A5047
:10339000923068F4803F69F018F4883E40F409C028
:1033A000843F29F406C0883E20F0813F11F080E080
:1033B000089581E00895FC0186819781009719F0B6
:1033C0000E94CB2404C0808191810E9437190E9401
:1033D000C01908951092ED0186E0ECE4F3E0DF01FE
:1033E0001D928A95E9F70C94FC18882321F00E941D
:1033F000EE260C9473270895882339F09091E1020A
:10340000892B8093E1020C9473270895882321F07F
:103410000E94F5260C9473270895882321F00E94BA
:10342000FC260C9473270895882371F19CEF980F64
:10343000913A60F4EAE4F3E09281891301C01282C8
:10344000319693E0E035F907B9F70DC090E2980F97
:10345000983058F4982F977081E001C0880F9A95A2
:10346000EAF70E94F5260C9473279BE5980F93309A
:1034700020F480E090E00C94CE1E885A873120F42E
:1034800080E090E00C94B81E0895CF93882309F44F
:103490004CC0C82F8CEF8C0F813AF0F4ECE4F3E0D1
:1034A00082E593E02191C21721F08E179F07D1F793
:1034B0000DC0EAE4F3E08281C81301C012823196A4
:1034C00083E0E035F807B9F70E9473276C2F8AE490
:1034D00093E00E949E1E0CC080E28C0F883058F44E
:1034E000C77081E001C0880FCA95EAF70E94FC26E8
:1034F000CF910C947327EBE5EC0FE33040F4F0E050
:10350000E35BFE4F808190E0CF910C94CE1EC85AB1
:10351000C73158F4EC2FF0E0EE0FFF1FE05BFE4FD9
:1035200080819181CF910C94B81ECF9108951F9303
:10353000CF93DF93182F893329F4C091DA02D09109
:10354000DB0204C0C091D802D091D902812F0E9421
:10355000451A209741F08FE99FE00197F1F700C0ED
:1035600000002197F6CF812FDF91CF911F910C940E
:10357000141A2F923F924F925F926F927F928F9286
:103580009F92AF92BF92CF92DF92EF92FF920F93F2
:103590001F93CF93DF93CDB7DEB765970FB6F8943F
:1035A000DEBF0FBECDBF8C0185E0F801DE01519674
:1035B00001900D928A95E1F7D8014C9011965C909C
:1035C00011971296EC9012971396CD90DC90149769
:1035D00060E082E593E00E946A2982E5A82E83E0FC
:1035E000B82E8090550390905603A4016091530328
:1035F000809152030E94D01FF82E8111E5C13090B6
:103600005403F601E819F9094F0160E0332009F489
:1036100069C1C5010E946A296090D2027090D302EC
:10362000209057038614970408F014C14091550365
:1036300050915603B0905203A0905303822D807F87
:103640006A2D09F097C08B2D0E94D01F811124C0D4
:10365000D80111968C9111978A111EC08C918B11F3
:103660001BC0209158033091590316968D919C915F
:1036700017972817390781F4E1100EC0822D8F703B
:1036800080618093570382E593E00E943B04809120
:103690005703F8018583B4C1F4EF6F16F1E07F069C
:1036A00020F48091D70280FF21C0A601652D842DD2
:1036B0000E94D01F811103C081E08E2502C080E0EE
:1036C00090E080FF13C04E2D652D842D0E94C427ED
:1036D000882361F082E593E00E943B04E2E5F3E099
:1036E00088E0DF011D928A95E9F78AC1A601652D60
:1036F000842D0E94D01F811103C081E08E2502C05D
:1037000080E090E0B82FB170CB2E80FF2AC04E2D04
:10371000652D842D0E94C427D82E811122C0498A8C
:103720005A8A89899A890E943719292F22952F70E0
:10373000223018F0243078F405C09F7049F08111D0
:1037400007C00DC09F7021F0F8019581907F39F07E
:10375000805E883020F0C8010E943B04DC2CFD2CE8
:103760004FC1EE2009F44BC18091570381608093D3
:10377000570346C18B2D0E94D01F811124C0D80150
:1037800011968C9111978A111EC08C918B111BC0C0
:10379000209158033091590316968D919C9117975B
:1037A0002817390781F4E1100EC015962C92C80134
:1037B0000E943B0488E0F801A2E5B3E001900D927D
:1037C0008A95E1F76FC0C8010E94DB198823E1F1F7
:1037D000EE20D1F120915703822F82958F7090E0D7
:1037E0000297A4F080915203909153039A8789879E
:1037F0001B86DD86CC862E878091580390915903D5
:10380000988B8F87CE0109960E943B0488E0F801CF
:10381000A2E5B3E001900D928A95E1F70E94EE27B0
:1038200016C0F0905203909053034091550350916D
:103830005603692D8F2D0E94D01F882399F0C8014F
:103840000E94DB19811130C0C8010E943B04FF2493
:10385000F394D6C0822D807F21F782E593E00E9409
:103860003B04ACC0D80111968C9111978911E7CF18
:103870008C918F11E4CF2091580330915903169603
:103880008D919C91179728173907C9F6E110D7CF6A
:1038900015962C92C8010E943B0488E0F501119214
:1038A0008A95E9F7F32CACC0EE2071F22091570312
:1038B000822F82958F7090E002970CF4A7CF8091B1
:1038C0005203909153039A8389831B82DD82CC82B9
:1038D0002E83809158039091590398878F83CE014E
:1038E000019692CF82E593E00E946A298091D202EC
:1038F0009091D3028816990608F060C0FE2CEE2045
:1039000009F4A2CFE0905203D090530340915503A5
:10391000509156036D2D8E2D0E94D01F811140C0F5
:10392000D80111968C9111978D113AC08C918E11FE
:1039300037C0209158033091590316968D919C9170
:1039400017972817390761F58091D70282FD1FC0AC
:103950008091570380FD1BC082958F70482F50E0E7
:1039600041155105A1F02091570315962C931597F9
:103970004F30510549F08F5F982F9295907F822F9D
:103980008F70892B15968C93C8010E943B0488E0A8
:10399000F801A2E5B3E001900D928A95E1F730C0FD
:1039A000C8010E94DB19811131CF809157038160DA
:1039B00080935703C8010E943B0422C088E0F501B0
:1039C00011928A95E9F71CC0EE2009F43DCFC80199
:1039D0000E94DB19F82E882309F436CF88E0F8011D
:1039E000A2E5B3E001900D928A95E1F78091520330
:1039F000909153030E9437190E94EE2701C0F12CC9
:103A00008F2D65960FB6F894DEBF0FBECDBFDF9148
:103A1000CF911F910F91FF90EF90DF90CF90BF90CB
:103A2000AF909F908F907F906F905F904F903F905E
:103A30002F900895EF92FF920F931F93CF93DF93F0
:103A4000CDB7DEB760970FB6F894DEBF0FBECDBF1F
:103A500029873A874B875C876D877E878F87988B0E
:103A6000CE0109960E94B91A81114AC088E0FE0170
:103A70003996DE01119601900D928A95E1F7E9845D
:103A8000FA840C851D85A8016F2D8E2D0E94D01FF4
:103A9000811136C0A0915A03B0E0CD010196877024
:103AA000992720919B0330E08217930781F1E982E7
:103AB000FA821D830C8393E0AA0FBB1F9A95E1F74E
:103AC000A55ABC4F98E0FE01319601900D929A954F
:103AD000E1F780935A030E94E42712C028E0829FF6
:103AE000C0011124855A9C4F0E94B91A8823E1F025
:103AF00080919B0390E001968770992780939B03A8
:103B000080919B0390915A038913E8CF0DC00E94C6
:103B1000EA1910925A0310929B03E2E5F3E088E061
:103B2000DF011D928A95E9F760960FB6F894DEBF23
:103B30000FBECDBFDF91CF911F910F91FF90EF90FE
:103B4000089508958091B60108958091BA029091E8
:103B5000BB029093100180930F010895CF93DF93E0
:103B600021E02093E9002FEF3091E800215035FD4E
:103B700006C035ED3A95F1F700002111F5CF2091FF
:103B8000E80025FF14C0EC0140E050E068E070E080
:103B90000E94AA188091E8008E778093E80088E060
:103BA000FE01A7EBB1E001900D928A95E1F7DF915C
:103BB000CF9108958093470370934903609348031E
:103BC0008091CA018430F9F48093E9008FEF9091DD
:103BD000E800815095FD06C095ED9A95F1F700003B
:103BE0008111F5CF8091E80085FF0DC040E050E0E5
:103BF00063E070E087E493E00E94AA188091E800F7
:103C00008E778093E800089581E08093E00080E261
:103C10008093D8001092C9008FE19EE40197F1F7DC
:103C200000C0000087E090EBDC0180930D049093CE
:103C30000E04A0930F04B09310049CE088E10FB62B
:103C4000F894A895809360000FBE90936000FFCF1A
:103C500078941F920F920FB60F9211248F939F9317
:103C6000AF93BF938091430390914403A091450388
:103C7000B09146030196A11DB11D8093430390931B
:103C80004403A0934503B0934603BF91AF919F9126
:103C90008F910F900FBE0F901F9018959C014FB7FA
:103CA000F8948091430390914403A0914503B0910F
:103CB00046034FBF821B930B08952FB7F894609172
:103CC00043037091440380914503909146032FBFB5
:103CD00008952FB7F8948091430390914403A091E5
:103CE0004503B09146032FBF08951F920F920FB660
:103CF0000F9211248F939F93AF93BF9380914203B0
:103D0000811113C08091430390914403A091450316
:103D1000B09146034196A11DB11D8093430390933A
:103D20004403A0934503B0934603BF91AF919F9185
:103D30008F910F900FBE0F901F9018959C01FC0162
:103D400032969FEF80E04191461789F09F3F19F42A
:103D5000411101C0982F8F5F8630A9F79F3F39F03E
:103D6000F901E90FF11D97FDFA9562830895089511
:103D700020914003309141032817390771F0909347
:103D8000410380934003E0913E03F0913F0330975D
:103D900021F00084F185E02D0994089520913C03E1
:103DA00030913D032817390771F090933D038093BC
:103DB0003C03E0913E03F0913F03309721F00680F1
:103DC000F781E02D09940895E0913E03F0913F03BF
:103DD000309721F00190F081E02D099480E0089562
:103DE000EF92FF920F931F93CF93DF93FC012285F5
:103DF000211136C0EC01E380F480F7E5FF1A26E1DB
:103E00002E9DC0012F9D900D1124DC01AC51BD4FA2
:103E10001496ED91FC91159786519D4F309729F09E
:103E200054966D917C915597099586E18E9D800100
:103E30008F9D100D11240C511D4FF80187810E9498
:103E4000F526F80180850E94EE260E9473271882CD
:103E500019861B861E821D821092E3021092E202D6
:103E6000DF91CF911F910F91FF90EF900895CF9325
:103E7000DF93FC012189211119C0EC0181E0818BC4
:103E800087810E94FC269091E1028885892B80938E
:103E9000E1020E947327EA81FB81CE0106963097EA
:103EA00029F06C897D89DF91CF910994DF91CF91C1
:103EB00008950F931F93CF93DF93C42FD22FFC014C
:103EC00082818823C9F04093E0020E94691E90938A
:103ED000DF028093DE0280E28C0F883008F05BC046
:103EE000C77081E001C0880FCA95EAF7DF91CF91D2
:103EF0001F910F910C940D1A8091E002481334C069
:103F00008091DE029091DF020E944E1E2091D2022B
:103F10003091D3028217930738F510E21D0FCD17A9
:103F2000B9F080E28C0F883040F4C77081E001C0A6
:103F3000880FCA95EAF70E94061A183028F581E022
:103F40009D2F977001C0880F9A95EAF70E940D1A6D
:103F5000802F0E94971A1830F0F4D77081E001C0CA
:103F6000880FDA95EAF70AC080E28C0F883098F45F
:103F7000C77081E001C0880FCA95EAF7DF91CF9141
:103F80001F910F910C94061A802FDF91CF911F91F2
:103F90000F910C94971ADF91CF911F910F91089573
:103FA000452B41F06F3F41F491E08F3F09F090E0E5
:103FB000892F03C081E001C080E081700895BC01B9
:103FC0004091B6028091B702942F981729F1292FBA
:103FD00030E0F901EE0FFF1FE255FD4F0190F08137
:103FE000E02DE617F70799F487E0869FF001879F99
:103FF000F00D1124EA58FD4F81E0848394130CC026
:104000002F5F3F4F237033272093B60208952F5F11
:104010003F4F922F9370D9CF0895EF92FF920F9355
:104020001F93CF93DF9380911502882309F440C03A
:10403000009114028CE0F82E809115020817A0F56B
:10404000EE24E394E00EE092140210E0F09EE00112
:10405000F19ED00D1124CA5EDD4F4B815C816981D8
:1040600088810E94D01F81111DC08E819F81892B64
:1040700021F488859985019651F4288139814A81F6
:104080005B816C817D818E819F810E941A1DF09ED3
:10409000F001F19EF00D1124EA5EFD4F14821382AF
:1040A0001092E1020E2DC8CF109215021092140248
:1040B000DF91CF911F910F91FF90EF900895109293
:1040C000130210921202E6E7F2E08581811102C02C
:1040D00014821682379682E0EE3AF807B1F7089517
:1040E0001092B9021092B802109212018091B70298
:1040F0008093B6020E945F200C940D203F924F9255
:104100005F926F927F928F929F92AF92BF92CF9267
:10411000DF92EF92FF920F931F93CF93DF93C091A3
:10412000B60297E0892E01E010E02CE0322E3EEF3F
:10413000932E442443948091B702C81709F478C0A1
:10414000D0E0FE01EE0FFF1FE255FD4F808191810F
:10415000889ED001899EB00D1124AA58BD4F149697
:104160002C911497211161C050901502E6E1F2E004
:1041700020E030E0712C5D01251508F054C0E28488
:10418000F384D501CD90DC906FEF7FEF612C462D4D
:1041900050E0DA01AA0FBB1FAC0DBD1D0D90BC9104
:1041A000A02D109731F0EA16FB0609F4BA016394CA
:1041B000EECF6F3FBFEF7B0791F1D80102C0AA0F8E
:1041C000BB1F6A95E2F77A2AB80102C0660F771F13
:1041D0006A94E2F7AB0141505109672D70E0461730
:1041E0005707D9F4329EF001339EF00D1124EA5E98
:1041F000FD4F889ED001899EB00D1124AA58BD4F55
:1042000012962D913C911397378326839082918249
:104210009187808715964C9206C0148213822F5F77
:104220003F4F3C96A9CF0E94DF1F2196C37083CFDA
:104230000E940D20DF91CF911F910F91FF90EF9081
:10424000DF90CF90BF90AF909F908F907F906F90B6
:104250005F904F903F900C945F2080911101877F79
:104260008093110182E00E94EE268091110184FF6B
:1042700006C08F7E8093110182E00E94FC2680910F
:10428000110185FF06C08F7D8093110180E20E949D
:10429000FC260C947327662329F02091E10222600A
:1042A0002093E1029C013056211540E2340720F0B2
:1042B000305E2115304108F499270C94F92B0097B2
:1042C00041F0EFE9FFE03197F1F700C000000197FE
:1042D000F6CF0895AF92BF92CF92DF92EF92FF9206
:1042E0000F931F93CF93DF935C017B01C42E890151
:1042F0008091110182FF8DC0C0911002D0911102F6
:10430000CA15DB0521F0A114B10409F082C0809127
:1043100011018B7F8093110181FD11C080910E02EC
:1043200090910F02A701481B590B81E020910F01CA
:10433000309110014217530718F480E001C081E06A
:104340008170D82E80911101D0FA81F980931101EA
:10435000FE01FF2784E0F695E7958A95E1F79E0137
:104360002F703327EE0FFF1FE251FE4F81E090E0E8
:1043700002C0880F991F2A95E2F7DD2029F02081DD
:104380003181822B932B06C08095909520813181BD
:1043900082239323918380838091ED0181FF08C064
:1043A0008091110180618093110182E00E94F526C5
:1043B0008091ED0185FF08C080911101806280939A
:1043C000110180E20E94F526A8016D2DCE010E9408
:1043D0004B21CC2031F08091D50285FF02C086FFB1
:1043E00036C08091D8029091D9020E945F218091BD
:1043F0001002909111029C013056211540E23407C1
:1044000020F0305E2115304108F499270E94DF2BFF
:1044100018C095013327C5019056811540E29407D5
:1044200020F0905E8115904110F4C90101C0C501D2
:104430000E94DF2B8091100290911102A816B906FC
:1044400011F40E942D21F0920F02E0920E02DF91F2
:10445000CF911F910F91FF90EF90DF90CF90BF9081
:10446000AF9008950F931F93CF93DF930AEB12E061
:10447000C7EFD2E0CE010E94AD2FF80181938F01EA
:104480002196CB31F3E0DF07A9F7C0E0D0E0FE01D1
:10449000E150F94F85919491009711F0FC01099535
:1044A0002896C835D10599F7DF91CF911F910F91CB
:1044B00008950F931F93CF93DF930AEB12E0C7EF9A
:1044C000D2E0CE010E94AD2FF80161918F016817F3
:1044D00019F0CE010E94BB2F2196CB31F3E0DF070C
:1044E00081F7DF91CF911F910F910895EAEBF2E0F0
:1044F000128E138E8FEA90E09183808385E0848F03
:1045000028E833E13383228322E330E0378B268BA4
:1045100028EC30E0318F208F158E2AE030E0378F85
:10452000268F20E530E031A320A382A30E945922E8
:104530000C943222CF93DF93C3E9D3E060E0CE0145
:104540000E94BB2F2196C11584E0D807B9F7DF91EF
:10455000CF910895462F2091EB013091EC01232B50
:1045600091F47E3F39F46E3F71F48091E9019091AE
:10457000EA010895853038F4753028F46E3018F467
:10458000672F0C94A42C80E090E008954F925F92E6
:104590006F927F928F929F92AF92BF92CF92DF9253
:1045A000EF92FF920F931F93CF93DF93CDB7DEB7B8
:1045B00064970FB6F894DEBF0FBECDBF6090E701E1
:1045C0007090E80181E090E09093E8018093E7012A
:1045D00099E2E92E94E0F92EA12CB12C512C412C1A
:1045E000C12CD12C00E010E045018C0C9D1CF80181
:1045F000EE0FFF1FE80DF91DE35CFB4F2591349191
:10460000402F642D852D0E946E2C0F5F1F4F0E30A2
:10461000110569F78CE1C80ED11C4394E5E04E12F8
:10462000E1CFF7012591349140E060E0852D0E94B3
:10463000122CF70132962591349141E060E0852DEE
:104640000E94122CF4E0EF0EF11C53948CE8A80E9B
:10465000B11CE5E05E12C3CF0E9476221A82198255
:104660001C821B821E821D8218861F8288EC90E0AD
:104670009A8789870BE113E04AE050E0B801CE0148
:1046800001960E94DF2F065F1F4F0334F3E01F07E0
:1046900099F77E018BE0E80EF11C8AE0F701119298
:1046A0008A95E9F74AE050E0B801C7010E94DF2F80
:1046B000065F1F4F0339F3E01F07A1F77092E8016F
:1046C0006092E70164960FB6F894DEBF0FBECDBFCF
:1046D000DF91CF911F910F91FF90EF90DF90CF90DE
:1046E000BF90AF909F908F907F906F905F904F9012
:1046F0000895843080F49B01982F8AE0989FB00140
:104700001124655E7C4F4AE050E0C9010E949D2F54
:1047100080E090E008958FEF9FEF089580E0089586
:1047200090918D0192FF0DC0282F2871283019F427
:10473000877F846006C0282F2471243011F48B7F7A
:10474000886093FF0DC0282F2871283119F4877EC7
:10475000846106C0282F2471243111F48B7E886176
:1047600020918E0120FF0DC0382F3871383019F498
:10477000877F816006C0382F3171313011F48E7F10
:10478000886021FF0DC0282F2871283119F4877EF9
:10479000816106C0282F2171213111F48E7E88613C
:1047A00094FD877E0895F894E82FE295EF70F0E08D
:1047B00031A1282F2F7081E090E001C0880F2A9549
:1047C000EAF7982F9095932391A392A1892B82A326
:1047D000789408958F929F92AF92BF92CF92DF927A
:1047E000EF92FF920F931F93CF93DF93CDB7DEB776
:1047F0002A970FB6F894DEBF0FBECDBFAE014F5F54
:104800005F4F7A018AE0FA0111928A95E9F70BE18C
:1048100011E06A01AA24A394B12CF80180818F3F92
:1048200009F447C0F894E82FE295EF70F0E021A179
:104830008F70A50102C0440F551F8A95E2F7CA0187
:10484000922F982B91A392A18095892382A378948B
:1048500000C0E0E2F1E021E030E0812C912C4191B8
:104860004F3F89F0A42FA295AF70B0E090968C9145
:1048700090E04F7002C0959587954A95E2F780FDCC
:1048800002C0C90102C080E090E0882A992A220F64
:10489000331F51E0EE32F50711F7F80180818F3FA9
:1048A00011F00E94D323F0EAFA95F1F7F601918214
:1048B00080820F5F1F4FF2E0CF0ED11C41E000322B
:1048C000140709F0AACF4AE050E0B70183E891E06D
:1048D0000E942C3011E0009709F410E0892B89F038
:1048E0008AE0F701A3E8B1E001900D928A95E1F723
:1048F00081E08093AD030E94691E9093AC03809386
:10490000AB038091AD03882391F18091AB0390912B
:10491000AC030E944E1E059750F180918301909147
:1049200084019093AB018093AA01809185019091BD
:1049300086019093AD018093AC01809187019091A5
:1049400088019093AF018093AE018091890190918D
:104950008A019093B1018093B00180918B01909175
:104960008C019093B3018093B2011092AD03812F1B
:104970002A960FB6F894DEBF0FBECDBFDF91CF9160
:104980001F910F91FF90EF90DF90CF90BF90AF906D
:104990009F908F900895CF93DF938238910569F1AE
:1049A000B0F48133910509F46FC048F48932910560
:1049B00009F465C08A32910509F46BC08AC0853359
:1049C000910509F457C089339105B9F082C0833E3F
:1049D000910571F138F4803E9105B1F0823E910568
:1049E00011F177C0863E9105B9F1873E9105C9F175
:1049F000843E910509F06DC024C020918D0120FDF9
:104A000053C021FD51C065C080918D0180FD46C01D
:104A100080918E0180FF48C080918D0184FD3FC14F
:104A200083EE90E03EC180918D0182FF3AC0F4CFC9
:104A300080918D0182FD35C080918E0180FD34C052
:104A4000EBCF80918E0181FF35C080918D0184FD77
:104A500026C187EE90E025C180918D0183FF27C09C
:104A6000F4CF80918D0183FD22C080918E0181FD64
:104A700021C0EBCF80918D0185FD1FC021C08091A9
:104A80008D0185FD1DC019C080918D0186FD1BC063
:104A90001DC080918D0186FD19C015C089E390E08D
:104AA00000C182EE90E0FDC080EE90E0FAC086EE9C
:104AB00090E0F7C084EE90E0F4C089E290E0F1C0AD
:104AC00085E390E0EEC08AE290E0EBC081E390E005
:104AD000E8C0811532E5930708F069C0811541E50A
:104AE000940728F0982F8827816F906ADAC0883E53
:104AF000910568F5803E910508F0D3C0883A91058C
:104B0000B8F4853A910548F0855AE82FF0E0E35B68
:104B1000FE4F808190E09064C4C08130910509F41B
:104B2000BBC008F4BCC08430910508F4B8C0B9C05B
:104B30008F3B910508F0B3C0885AE82FF0E0EE0FE4
:104B4000FF1FE05BFE4F808191819464AAC08115B4
:104B500020E59207F0F09C0174E0369527957A9550
:104B6000E1F7922F9370482F437021E030E002C0AC
:104B7000220F331F4A95E2F73C68392B8F70982F2C
:104B80009695969540E2949FC0011124822B932B19
:104B900088C0811530E4930718F09F70906A81C037
:104BA0009C013A9521153F4108F47BC078C0EC0187
:104BB000C11586E5D807E8F5C11525E5D20748F007
:104BC0008C2F0E9490238F7190E0982F88279062FD
:104BD00068C0C11534E5D30728F09C2F8827846F5F
:104BE000906A5FC0AE01437055272C2F26952695FD
:104BF000C115D34578F481E090E002C0880F991F79
:104C00004A95E2F740E2249F90011124822B932BD6
:104C10009C6847C081E090E002C0880F991F4A95C8
:104C2000E2F740E2249F90011124822B932B9A6893
:104C300038C0C1152AE5D207F8F4C11539E5D30704
:104C400090F08C2F8F700E94902394E0D695C7959A
:104C50009A95E1F7CF70D0E0DC2FCC27D0699E0188
:104C6000282BC9011EC0C11548E5D407C0F09C2FF0
:104C70008827806F906A15C0CE01905681159042AA
:104C800070F48D2F8F710E949023282F2F71CE01E9
:104C900099279062922B05C081E090E002C080E0ED
:104CA00090E0DF91CF910895CF9384E090E00E944F
:104CB000AD2FC82F82E290E00E94AD2F2C2F30E064
:104CC000A901582BCA01CF91089569EE7EEF80E0CB
:104CD00090E00E94D92F60E082E090E00E94BB2F1C
:104CE00060E083E090E00E94BB2F1092AE0360E092
:104CF00084E090E00E94BB2F60E082E290E00E949E
:104D0000BB2F60E085E090E00E94BB2F60E086E072
:104D100090E00E94BB2F6FEF87E090E00E94BB2FD6
:104D200040E050E0BA0188E090E00E94CD2F60E0C2
:104D30008DE090E00E94BB2F40E050E0BA0188E196
:104D400090E00E94CD2F60E087E190E00E94BB2FB1
:104D500040E050E0BA018CE190E00E94CD2F60E08D
:104D600070E080E290E00E94D92F40E050E0BA016C
:104D700088E190E00E94CD2F80E00E944E2F0E949B
:104D80006C2F40E050E0BA018FE090E00E94CD2F00
:104D900040E050E0BA0183E190E00C94CD2F809187
:104DA000AA03882331F01092AA031092A90310924B
:104DB000A8030895CF9390918E0192FD0DC090911C
:104DC000AA03981749F0C82F0E94691E9093A9035F
:104DD0008093A803C093AA03CF91089580959091E2
:104DE000E10289238093E102089580959091ED017D
:104DF00089238093ED0108959091ED01892B809393
:104E0000ED01089510929F0310929E0310929D034E
:104E1000089520919F038095822380939F03982F6C
:104E2000977099F430E0482F082E000C550B24178A
:104E3000350759F090918E0192FD07C085958595B3
:104E400085950E94A5190C9402270895CF93C091CF
:104E50008E01C2FB992790F9981799F080FBC2F94F
:104E6000C0938E0160918D0184E090E00E94BB2F81
:104E70006C2F82E290E00E94BB2F82E0CF910C94D5
:104E80000927CF91089590918E0192FD10C098E06E
:104E9000899F90011124262B20939F030E94B11912
:104EA0000E94691E90939E0380939D0308950C9425
:104EB000B1198091BC029091BD02892B89F00E94AA
:104EC000691E2091A8033091A903AC01421B530B2A
:104ED00081E02091BC023091BD024217530708F4D3
:104EE00080E0817008959091ED018091E102892B1D
:104EF00080934A038091AA03882301F18091BC0228
:104F00009091BD02892B29F00E94592781110E949E
:104F1000CF2690914A038091AA03892B80934A035C
:104F2000ECE4F3E097E080E0915029F02191222316
:104F3000D9F38F5FF9CF81110E94CF2648E050E06E
:104F400060EA73E08AE493E00E942C30892BA9F098
:104F500088E0EAE4F3E0A0EAB3E001900D928A95DC
:104F6000E1F7E0913E03F0913F03309731F002808A
:104F7000F381E02D8AE493E00994089580919C03E5
:104F8000811110929C03089520919B0390915A03E4
:104F90002917B1F030E0F90153E0EE0FFF1F5A95E9
:104FA000E1F7E55AFC4F5181561306C05081581362
:104FB00003C05281541306C02F5F3F4F2770E8CFC4
:104FC00080E0089581E0089580919B0390915A03B9
:104FD000891719F08F5F8770FBCF0895CF92DF920A
:104FE000EF92FF920F931F93CF93DF93809157031C
:104FF00082958F7009F05CC080915403882309F476
:1050000057C0C0919B0380915A03C81709F450C040
:10501000F0905203E0905303C0905503D090560394
:10502000A6016E2D8F2D0E94D01FD0E081113DC0B2
:105030008E0183E0000F111F8A95E1F7F801E55A10
:10504000FC4F81818E1131C080818F112EC08281F1
:1050500081112BC0E380F480EC18FD0860E082E54C
:1050600093E00E946A298091D2029091D302E816BF
:10507000F906D8F4809157038F70806180935703AD
:10508000F801E05AFC4F80818F708061808382E557
:1050900093E00E943B04DF91CF911F910F91FF900D
:1050A000EF90DF90CF900C94E4272196C770ABCFA0
:1050B000DF91CF911F910F91FF90EF90DF90CF90F4
:1050C00008959C013A9521153F4130F5BC016627B2
:1050D0007270AC01442754709C012227387094FFF1
:1050E0000FC090FF02C080E101C080E0672B09F093
:1050F0008062452B09F08064232B79F08068089545
:10510000892F8170672B09F08260452B09F084603C
:10511000232B19F08860089580E00895AF92BF9224
:10512000CF92DF92EF92FF920F931F93CF93DF9373
:10513000EC018AE0A82E2881222309F497C02130AF
:1051400009F041C08981813039F48E010E5F1F4F13
:105150008A810E94971A08C0823041F48E010E5F46
:105160001F4F8A810E94451AE8017EC0833039F4BE
:105170008E010E5F1F4F8A810E94141AF5CF843072
:1051800011F0219671C02A81229680E090E030E0F3
:10519000205331092A30310558F4A89EA001A99E58
:1051A000500D1124C901840F951F21962881EFCF3E
:1051B000009709F459C0EFE9FFE03197F1F700C01B
:1051C00000000197F5CFE22FF0E0EF57F84FB490D1
:1051D000822F86958695869590E0FC01EF58F84FD2
:1051E000E4902770F12C022E02C0F594E7940A9403
:1051F000E2F7F1E0EF22FF24FC01EF59F84FC490F1
:10520000D12C022E02C0D594C7940A94E2F731E063
:10521000C322DD24FC01EF5AF84F049110E002C0D4
:10522000159507952A95E2F701701127E114F1040D
:1052300019F081EE0E94451AC114D10419F086EECE
:105240000E94451A8B2D0E94971ACD2819F086EEE0
:105250000E94141AEF2819F081EE0E94141A012BF3
:1052600019F08CE20E94971A219665CFDF91CF91B9
:105270001F910F91FF90EF90DF90CF90BF90AF9074
:1052800008951F93CF93DF9300D000D01F92CDB726
:10529000DEB749835A8389819A81662359F0222394
:1052A00049F00E940819182F682F89819A810E945D
:1052B000741903C00E944419182F69817A81812FC3
:1052C0000F900F900F900F900F90DF91CF911F9143
:1052D0000C94AA22FC01262F86819781009739F42D
:1052E000408151816281738184810C9441290895A8
:1052F0002F923F924F925F926F927F928F929F92E6
:10530000AF92BF92CF92DF92EF92FF920F931F93D3
:10531000CF93DF93CDB7DEB76A970FB6F894DEBFB1
:105320000FBECDBF942F498B252F5A8B6B8B7C8B57
:105330008D8B4C895D89622F892F0E94D01F81112E
:1053400009C0809181019091820101969093820120
:10535000809381018B8981111092E1028E01075F98
:105360001F4F88E0F80111928A95E9F785E0FE0168
:105370007196D80101900D928A95E1F780918E0186
:1053800082FD28C08091BC029091BD02892B11F151
:105390000E94691E20919D0330919E03821B930BF6
:1053A0002091BC023091BD028217930740F080919A
:1053B0009F0382FB992790F981E0892701C080E053
:1053C00080FF03C082E00E9409270E9459278111B3
:1053D0000E94CF264C855D856A8589850E94D01FF5
:1053E0008111CAC161E0C8010E946A296C01873F2E
:1053F000FCE59F0739F48B858823A9F081E0809331
:105400001201BAC1883F9C4531F48B85882359F03D
:105410000E947020B1C189EFC8168CE5D80619F436
:105420008B85811111C006E712E0512CA12CB12C03
:1054300066246394712C33243394FE013196FF8BE0
:10544000EE8BF7E02F2E4DC0809112018823B1F230
:10545000DFCFC616D70609F097019F5F7901292F84
:1054600030E0F901EE0FFF1FE40FF51F608171813D
:105470006115710571F7FFEFEF16FF0609F430C1F2
:10548000F8016481611135C020911201822F817071
:105490004B84F80135812681442009F4C9C0882352
:1054A00009F4C6C08090D0029090D102332321F13C
:1054B000930102C0220F331F9A95E2F72150310960
:1054C000F801868190E02817390749F15428FFEF49
:1054D000AF1ABF0A095F1F4F28E0A216B10409F4F2
:1054E00001C1F80140815181EE24EA94FE2C90E044
:1054F000B6CF20E030E0CACFA30101C0440FEA9448
:10550000EAF7242B268320911202309113022815EA
:10551000390570F69092130280921202C9CF8091E1
:10552000B8029091B902009731F00E944E1E881681
:10553000990608F41EC18091B602F091B702F88F67
:10554000E0E0F0E0288D821709F460C0282F30E0F9
:10555000F901EE0FFF1FE255FD4F80809180289CDE
:10556000F001299CF00D1124EA58FD4FF080E180F4
:1055700050E090E040E0EF2DFE2DE40FF11DE40F30
:10558000F11DA081B1811097D1F0F801F081F98F60
:10559000F801F181FA8F90E0E98DFA8DE90FF11DA4
:1055A000E90FF11D608171816115710531F0A61758
:1055B000B70709F451E09F5FEFCF4F5FDCCF552372
:1055C000F9F09417C8F0289CF001299CF00D1124E3
:1055D000EA58FD4F3097B1F03482E017F10709F433
:1055E00075CF9091B60289130DC0C90101968370E1
:1055F00099278093B60206C00115110509F0B9C0BC
:10560000E0E0F0E0C901019683709CCFE017F1075C
:1056100009F45CCF90E0FC01EE0FFF1FE255FD4F57
:10562000B182A0820196837099278093B7024ECFF2
:10563000311112C0A30102C0440F551F9A95E2F721
:105640004150510930E042175307E9F56623E1F173
:10565000C5010E94DF1F37C0822F90E09C012150BE
:105660003109282339230E2C02C0959587950A9479
:10567000E2F7232B31F580FF24C0F801828193816A
:10568000892BD9F088E0EE89FF8911928A95E9F794
:105690008EEF89838A830E94691E8160582F9D83C3
:1056A0008C83F801828193818F83988729813A8145
:1056B0004B816D817E810E941A1DF801158281E067
:1056C00003C0817001C080E0930101C0220FEA9401
:1056D000EAF72095F801968129232683482EF6CEF5
:1056E000412CF4CE8B85882381F1552071F10E94E5
:1056F000691E9093B9028093B80280911502883098
:1057000008F044C091E0980F9093150298E0FE01D4
:105710003996DE01119601900D929A95E1F7ECE031
:105720008E9FC00111248A5E9D4F28E0FE013196B4
:10573000DC0101900D922A95E1F72FEF3FEFFC017C
:1057400031872087D386C28621C09091B60280918E
:10575000B702981719F00E947E2008C00E940D2001
:105760001092B9021092B8020E945F20552021F0D9
:105770000DC0F8013482AACE29853A854B855C8517
:105780006D857E858F8598890E941A1D6A960FB651
:10579000F894DEBF0FBECDBFDF91CF911F910F9167
:1057A000FF90EF90DF90CF90BF90AF909F908F9041
:1057B0007F906F905F904F903F902F900895CF9380
:1057C000DF93EC010E94141ACE01805E91090897C4
:1057D00010F0209739F4CE010E946128DF91CF911B
:1057E0000C94061ACE010E946128DF91CF910C948F
:1057F000F519CF93DF93EC01805E9109089710F0C3
:10580000209731F4CE010E9461280E940D1A05C034
:10581000CE010E9461280E94FC198C2FDF91CF914C
:105820000C94451A0F931F93CF93DF93853038F56F
:10583000611125C0423018F521159CE5390731F476
:105840006091E7017091E801672BC9F08901C42FCD
:10585000D0E0CC0FDD1F94E0899FC00DD11D112435
:10586000CD51DD4F612FCE010E94BB2F602FCE01A5
:105870000196DF91CF911F910F910C94BB2FDF9177
:10588000CF911F910F9108950F931F93CF93DF93A3
:105890008530E8F461111BC04230C8F4C42FD0E059
:1058A000CC0FDD1F24E0829FC00DD11D1124CD51EE
:1058B000DD4FCE010E94AD2F90E0182F0027CE01C2
:1058C00001960E94AD2F9801282BC90102C080E0EB
:1058D00090E0DF91CF911F910F9108950F931F9347
:1058E000CF93DF93853058F5653048F54E3038F565
:1058F00021159CE5390731F4E091E701F091E801C9
:10590000EF2BE9F08901C42FD0E0CC0FDD1F9CE123
:10591000699FC00DD11D11249CE8899FC00DD11D28
:105920001124612FCE0187960E94BB2F602FCE01DC
:105930008896DF91CF911F910F910C94BB2FDF912F
:10594000CF911F910F9108950F931F93CF93DF93E2
:10595000853008F56530F8F44E30E8F4C42FD0E017
:10596000CC0FDD1F2CE1629FC00DD11D11243CE83E
:10597000839FC00DD11D1124CE0187960E94AD2FAB
:1059800090E0182F0027CE0188960E94AD2F980135
:10599000282BC90102C080E090E0DF91CF911F91D8
:1059A0000F910895CF92DF92EF92FF920F931F9382
:1059B000CF93DF93CDB7DEB72A970FB6F894DEBF4B
:1059C0000FBECDBF80E5EDEBF3E0DF011D928A95C0
:1059D000E9F788E3E6E7F2E0DF011D928A95E9F74F
:1059E0008DEBC82E83E0D82E7F0103E413E0F7018E
:1059F000D182C0824AE050E0B801CE0101960E94F7
:105A00009D2F88E0FE013196D60101900D928A9576
:105A1000E1F789859A85D70113969C938E93129707
:105A2000BAE0CB0ED11CE7E0EE0EF11C065F1F4F73
:105A30000339F3E01F07D9F62A960FB6F894DEBFB4
:105A40000FBECDBFDF91CF911F910F91FF90EF90CF
:105A5000DF90CF9008958F929F92AF92BF92CF9296
:105A6000DF92EF92FF920F931F93CF93DF93CDB707
:105A7000DEB72A970FB6F894DEBF0FBECDBF04EE97
:105A800012E0E12CF12C8FE9C82E8EE2D82E9AEC90
:105A9000A92E9EE2B92E21EB822E2DE2922EF80144
:105AA000D182C082B382A28295828482F58AE48AFE
:105AB000BE016F5F7F4F8E2D0E947923892B29F4C1
:105AC00089859A85F801938B828BFFEFEF1AFF0A85
:105AD0000A5E1F4F84E0E816F10409F72A960FB614
