:100000000C942F040C9467040C9467040C946704FC
:100010000C9467040C9467040C9467040C946704B4
:100020000C9467040C9467040C9463220C94A5212F
:100030000C940D190C9467040C9467040C946704D9
:100040000C9467040C9467040C9467040C94670484
:100050000C9467040C94C0180C9467040C94670407
:100060000C9467040C9467040C9467040C94670464
:100070000C9467040C9467040C9467040C94670454
:100080000C9467040C9467040C9467040C94670444
:100090000C9467040C9467040C9467040C94670434
:1000A0000C9467040C9467040C946704FB0BFB0B23
:1000B0002B0C2B0CD00CEE0C280E280EF90C6C0D12
:1000C0007F0D7F0D68147E1485148A168A16BD1460
:1000D000CE14E114201525154D157115A415A7157D
:1000E000B315BD15D4150B1628164D166316B11F82
:1000F000D81F8D21D81F8D21242047208D214821F4
:100100005821FD377A585A000004E6D6B44602005A
:10011000210116000000742FE5A3E0058401AB5D0A
:10012000003D8889C65436C3174FE4E62BD649ED07
:10013000DCF2E44148CBC76089AE55F0F000EB1328
:10014000F2BB9E653F30B7AA080BE74CC5F42DA162
:1001500093F9452B4EE76529670D2A3FB7B33F60FA
:10016000ECEA160E9DFFE39D6E21F5808DDBA35317
:1001700069512C5975D61C455F464B539F8B563A97
:1001800017ED50DE0BAA80B7BF756B25EB8E78EAB2
:100190002C46D5D437B6E46FA4F45A66FD1C10D0B3
:1001A00021E567933A0B7CF92D7982D97CDFE6F45F
:1001B0009C5A00CFDF9ECDC3D1D043AE79B1562C2F
:1001C0005F5AF7062BE33C8B16F2F38C5DFE1F871C
:1001D000850BA396DA7700C5C944DE1D64AC5F9534
:1001E0009C53575459598EE49BCA203C9D20527B06
:1001F000EAA333C4FF5E3D3C46639F22FE8C40D39E
:10020000156FF35FB0EFC89049DD7C8E24B153B811
:100210006DD88982E1F14C7AB83F76AD8FEDBF168B
:1002200066A97102911F7442F14D2F27295A94C873
:10023000E394DAFB1453CF6AD302E8945FE92FA664
:100240003AFB0383C00CCF8761347452F77F698E09
:1002500086E084407C494188D365AA73F9C52E2C79
:1002600024E83D0BF2FFDC62EA599819D89F27EF8A
:10027000A459F3B50622C4106997ACA052FBD1D69D
:10028000B16520297D09B226B4CCC8ABE6E1F6DE23
:100290003831C203A7FF961B82E0EC53B6F5AF9C42
:1002A0009F3CA283C49FA0DFFD816C0F7D20BBDC3F
:1002B000EE630EEA7FCF2324D9EA676F9AA68D55A5
:1002C000DD1735F9C801E1ACB3AADB000000981CCA
:1002D0006602409227AE0001C703850B0000E929A2
:1002E000CA5EB1C467FB020000000004595A010055
:1002F00001000B0224185718000002000200070238
:10030000241857180000030001000C022418571885
:10031000000004000200F1012418571852170500CC
:1003200001000D0224185718000006000200F30116
:100330002418571800000700020009022418571853
:100340000000080001000E022418571800000900E0
:100350000200F501241857182D170A000200F701B2
:10036000241857182D170B000200F90124185718EC
:100370002D170C000200FB01241857182D170D0033
:100380000200FD01241857182D170E000200FF016E
:10039000241857182D170F000200010224185718AF
:1003A0002D17100002000302241857182D171100F2
:1003B00002000502241857182D17120002000F0220
:1003C00024185718000013000200110224185718AF
:1003D0000000140001001302241857180000150033
:1003E00000000000B016A617000005010902A101D7
:1003F00085020901A100050919012905150025013A
:10040000950575018102950175038101050109308A
:1004100009311581257F95027508810609381581F6
:10042000257F950175088106050C0A38021581257E
:100430007F950175088106C0C005010980A101856D
:100440000319012AB700150126B70095017510811F
:1004500000C0050C0901A101850419012AA002159B
:100460000126A002950175108100C00660FF096198
:10047000A1010962150026FF009520750881020977
:1004800063150026FF00952075089102C00501093B
:1004900006A101050719E029E71500250195087552
:1004A0000181029501750881010507190029FF15D1
:1004B0000026FF0095067508810005081901290529
:1004C000950575019102950175039101C009025BC3
:1004D00000030100A0FA0904000001030101000962
:1004E00021110100012240000705810308000109D4
:1004F0000401000203000000092111010001222271
:1005000000070582032000010705030320000109FD
:1005100004020001030000000921110100012281F1
:1005200000070584032000011201000200000008FA
:10053000415645200100010203011C0376006900B9
:1005400061006C003A00660036003400630032003F
:1005500062003300630000000E037300700061004E
:1005600063006500790000001003760061006E00F2
:1005700069006C006C00610000000403090429009C
:100580001E001F002000210022002300240025005F
:10059000260027002D002E002A002B0014001A0030
:1005A0000800150017001C0018000C0012001300B2
:1005B0002F00300031003900040016000700090048
:1005C0000A000B000D000E000F003300340028005D
:1005D0005200E1001D001B0006001900050011007B
:1005E0001000360037003800E50050005100E000F0
:1005F000E3000151A800E2002C0000002A004C009A
:100600000000E600E700E4004F0035003A003B0040
:100610003C003D003E003F004000410042004300DE
:10062000440045002A002B001E001F00200021006E
:100630002200230024002500260027002D002E0084
:100640004C003A003B003C003D003E003F004000B3
:10065000410042004300440045002800F000E10052
:100660000000000000000000000000000000360054
:1006700037003800E500F200F100E000E300000080
:100680002900E2002C0000002A00E60000006500BE
:10069000E700E400F3000100010001000100010097
:1006A0000100010001000100010001000100010042
:1006B0000100010001000100010001000100010032
:1006C0000100010001000100010001000100010022
:1006D0000100010001000100010001000100010012
:1006E0000100010001000100010001000100010002
:1006F00001000100010001000100010001000100F2
:1007000001000100010001000100010001000100E1
:1007100001000100010001000100010001000100D1
:1007200001000100010001000100010001000100C1
:1007300001000100010001000100010001000100B1
:1007400001000100010001000100010001000100A1
:100750000100010001000100010001000100010091
:100760000100010001000100010001000100010081
:100770000100010001000100010001000100010071
:100780000100010001000100010001000100010061
:100790000100010001000100010001000100010051
:1007A0000100010001000100010001000100000042
:1007B0000000000000000000000000000000000039
:1007C0000000000000000000000000000000000029
:1007D00000007E0F00D4FFFFFFC70000007800007C
:1007E0000000000000002A2B28000000000000008C
:1007F00000000000000000000029000000002C1E86
:100800003420212224342627252E362D3738271E42
:100810001F202122232425263333362E37381F0468
:1008200005060708090A0B0C0D0E0F101112131400
:1008300015161718191A1B1C1D2F3130232D3504BE
:1008400005060708090A0B0C0D0E0F1011121314E0
:1008500015161718191A1B1C1D2F3130354C112471
:100860001FBECFEFDAE0DEBFCDBF04B603FE18C077
:100870008091E3049091E404A091E504B091E60432
:100880008730904BA740B04B59F41092E30410927C
:10089000E4041092E5041092E604E0E0F8E3099520
:1008A00011E0A0E0B1E0E0EAFDE602C005900D92A3
:1008B000A638B107D9F724E0A6E8B1E001C01D923F
:1008C000A33EB207E1F70E947D0E0C94CE360C9445
:1008D0000000ACE0B0E0EFE6F4E00C947A367C0186
:1008E000DC0113964D915C91149711966C911197C0
:1008F0008C910E942A1B81110C94790E61E0C70132
:100900000E9415328C01F70182818823E1F08091E9
:10091000D8029091D9020097B1F00817190799F001
:10092000FEE08F9FC0011124FC01E35CFC4F20819D
:1009300024602083885C9C4FDC010D931C930E94F3
:10094000B0191092D702F7013280332009F486C61D
:10095000C80182519F45409708F0B3C08FEF93E0E4
:100960000E94FB35811167C66EEED62ED00E0BE7C6
:1009700013E0DD2071F00115F4E01F0709F45BC6F8
:10098000C8010E94FB35811101C0DA940F5F1F4F2F
:10099000F0CF19821A821B821C82AA24AA946801B1
:1009A0002FEFC21AD20AC8010E94FB3589831A822E
:1009B000882309F440C6813009F07EC0480132E046
:1009C000830E911CC6010E94FB35B82E8A838823B2
:1009D00009F431C68FEF8B0D833060F4680143E07A
:1009E000C40ED11CC4010E94FB358B83811164C0ED
:1009F0008601D5CF8BEF8B0D833078F5380153E02E
:100A0000650E711CC4010E94FB358B83811102C0ED
:100A10006301EECF680184E0C80ED11CC3010E94BF
:100A2000FB358C83882321F32B813C8121309FEF80
:100A3000390718F0922F80E001C0C901A6E0BA166C
:100A400031F0B7E0BB1631F00E948D2AD1CF0E9461
:100A5000672ACECF0E94ED29CBCFE4E0BE1611F07D
:100A60006401C6CFC4010E94FB35B82E6801F4E0D2
:100A7000CF0ED11CC80103960E94FB35BB2009F4A0
:100A8000DAC5882309F4D7C5282F30E02150310971
:100A9000A29EA001A39E500D11248B2D90E00197E2
:100AA000840F951F019708F4A3CFAFE9BFE011971A
:100AB000F1F700C00000F6CFCE0101960E94E634A7
:100AC00097CF0031EFE51E0731F00131FFE51F0739
:100AD000B1F482E001C081E00E9440240E94DA3437
:100AE000AAC5680127E5D21A3FEFC316D10409F061
:100AF00008F4C3C5D70112963C903320D1F00F35CE
:100B0000BDE51B0761F00036EDE51E0761F00E350F
:100B1000FDE51F0771F480910001811104C081E09F
:100B20008093000188C51092000180E00E949B1A0A
:100B300082C580910001811108C0C80197558F3F7F
:100B4000910509F008F47AC1CAC1480120EE821A61
:100B500091082090DC0480918B01282A8091D0019B
:100B6000282A38E08316910480F4980127703327EF
:100B700081E090E001C0880F2A95EAF7332011F058
:100B8000282A18C08095282215C0332009F416C1E0
:100B900010938901009388010E94F5186093C9029F
:100BA0007093CA028093CB029093CC021092D10230
:100BB0001092D002D7018D919C910E94C52321E013
:100BC00030E0F90102C0EE0FFF1F8A95E2F7FC87C3
:100BD000EB872091D2023091D30238872F83409146
:100BE0008801509189015A8749871D82432C512CD5
:100BF0005D81E52FF0E0EE0FFF1FE750FC4FC08056
:100C0000D180C114D10409F4F0C0211005C0D6016F
:100C100012968C918111CEC0F601838190E02B85D4
:100C20003C8582239323892B09F4C4C08085982FA7
:100C3000977009F487E038E08316910440F433207C
:100C400019F081FD09C0B6C082FD06C0B3C03320D3
:100C500009F4B0C080FFAEC0D601AD90BC900A15BB
:100C60001B0519F4332009F4A5C0EF81F885CE16D1
:100C7000DF0609F49FC0D6011D96ED91FC911E97E9
:100C8000309721F08081882309F494C0622DC60139
:100C90000E940A1B882309F48DC00A151B0511F454
:100CA000320102C0612C712CB62DB170BE8381E07F
:100CB000A114B10441F0B11106C0E985FA85AE1660
:100CC000BF0609F080E080FF75C080E00E949B1A9B
:100CD000D092D302C092D20281E08093CF02D6019B
:100CE00015968C918093CD02BE81B11113C0AB28B3
:100CF00089F0F601808191819C0124503109213ACB
:100D0000310530F4682F82EC91E00E94361902C060
:100D10000E949724D6011696AD90BC901797C501F6
:100D20009A9581159F4110F4E0EEBE22552453940C
:100D3000C5010197803B9D4508F0512CD6011996BD
:100D4000ED91FC911A97309739F01B966D917C913B
:100D50001C9781E009955822552029F1F6018681DA
:100D600097810E9479348093CE02C501F8E08F16F6
:100D7000910418F40E944A1A16C00497813A91050A
:100D800030F46A2D82EC91E00E9443190EC00E945B
:100D90000C318FE39CE90197F1F700C000008A2D28
:100DA0000E94CC2402C00E940C3191E0692660FEB2
:100DB00073C1C3CEAD81AF5FAD831ACF809188017F
:100DC000909189010817190781F4109289011092F6
:100DD00088011092C9021092CA021092CB0210929E
:100DE000CC021092D1021092D0028091D202909146
:100DF000D302009709F4A1CEB8E08B16910438F421
:100E0000622D0E940A1B811198CE81E014C0FC0162
:100E1000208131810217130729F4311006C0109286
:100E2000CF0208C0332009F488CEDC0118968C91DB
:100E300085FD83CE80E00E949B1A7FCE5801BB24A3
:100E4000BEE00B9FF00111249F01285C3C4F69011B
:100E5000D70112969C911297E35CFC4F808190FB26
:100E600080F9808312969C919923A1F10E94011927
:100E70009093A6018093A501F60182818F5F828302
:100E80009091D7028091D001892B83838091DC04DB
:100E900084830680F781E02D309739F0D6011C96C7
:100EA0006D917C911D97C60109958EE08A9DF00198
:100EB0008B9DF00D1124E35CFC4F808181FF03C00A
:100EC00090E080E002C0902F812F9093D802809311
:100ED000D90205C081FF03C0C9010E949619809103
:100EE0000C0280FF9BC00E9401196C01F7018281F6
:100EF0008823D9F18091170182FF08C027EA31E0E9
:100F000040E0B60180E090E00E94AF1C0B31FCE5B0
:100F10001F0779F00C312CE5120789F00A313CE506
:100F20001307A1F480911701982F909590FB80F9F9
:100F300009C08091170181608093170107C08091DB
:100F400017018E7F809317010E94701CC801905674
:100F5000811540E2940720F0905E8115904180F564
:100F6000109218021092170259C0013E110521F487
:100F7000809117018F7E06C0053E110531F48091E6
:100F800017018F7D809317011BC0C80190568115F2
:100F9000A0E29A0720F0905E8115904188F480913C
:100FA000170182FF3BC080910E0281FD37C027EA06
:100FB00031E040E0B60180E090E00E94AF1C2EC01E
:100FC0008091170180FF2AC0F70182810832110544
:100FD00038F40E311105B8F40430110578F41CC052
:100FE0000933110538F40D32110590F40B32110557
:100FF00079F012C00436110559F00EC090910C0220
:1010000094FD0AC01EC290910C0293FD05C019C246
:1010100090910C0292FF15C2811141C0033FFCE583
:101020001F0709F469C008F06DC0083D3CE51307CF
:1010300009F45CC0093D4CE5140709F47FC0073D85
:101040005CE5150709F44CC0F701228121117FC02E
:101050000631BCE51B0709F0CFC28091D001982F63
:101060009A7A30910B0230FDA0C231FDA4C232FD4C
:10107000A8C233FDACC2222309F4B2C281E09111AF
:1010800001C080E080938A01992309F4A7C265E337
:1010900082EC91E00E9443190E940C31CCC2109264
:1010A000180210921702033FFCE51F0729F170F4A4
:1010B000083D3CE51307D1F0093D4CE51407F1F17B
:1010C000073D5CE5150709F042C00AC0053F8CE505
:1010D000180719F1E0F0063FACE51A0749F137C0EF
:1010E00006E221EE41EE67ED7CE52DC007E225EE3C
:1010F00045EE68ED7CE527C006E221EE40EE63EFA9
:101100007CE521C0053F8CE5180739F060F407E263
:1011100025EE44EE64EF7CE516C006E221EE42EED9
:1011200065EF7CE510C0063FACE51A0709F08CCFEF
:1011300007E225EE46EE66EF7CE505C008E221E019
:1011400045EE69ED7CE5C7010E94D81974C2109282
:10115000D6020330FDE51F0758F40A3F2CE51207BD
:10116000C0F4C80182509C45449708F01CC211C0CD
:10117000053A3DE5130769F030F401365DE51507E2
:1011800009F011C206C0C8018D5A9D45039708F0A9
:101190000AC20E94F32F9093CF018093CE010231B7
:1011A0008CE5180709F40CC108F04DC00930ACE516
:1011B0001A0709F4D9C008F50530ECE51E0709F453
:1011C000C0C080F403302CE5120709F4B1C008F068
:1011D000B5C002304CE5140709F02AC18091CE0158
:1011E0008160A9C007305CE5150709F4B5C008F0B7
:1011F000B7C08091CE0180619EC00D309CE519077B
:1012000009F4C8C058F40B30BCE51B0709F4B6C09C
:1012100008F0BCC08091CE018860ACC00F30FCE506
:101220001F0709F4C5C008F4B8C000313CE5130736
:1012300009F4C2C001314CE5140709F0F9C08091EE
:10124000CE018F7B78C00F3F5CE5150709F4C3C062
:1012500098F50A3F9CE5190709F477C0C0F40431FA
:10126000BCE51B0709F4C6C008F4B0C00531FCE5B5
:101270001F0709F0DDC08091CE0182FB222720F9F3
:1012800091E0922790FB82F990FB83F954C00C3FC8
:101290002CE5120709F485C008F45AC00D3F4CE54F
:1012A000140709F481C00E3F5CE5150709F0C0C0C2
:1012B0008091CF01826060C001368DE5180709F486
:1012C000ABC070F40130ADE51A0709F49FC008F413
:1012D00087C00230EDE51E0709F0AAC060E097C0A4
:1012E0000D3AFDE51F0701F160F4053A3DE51307EE
:1012F00009F09EC08091CE01982F909590FB80F9C7
:101300001AC00E3A4DE51407E9F10F3A5DE51507ED
:1013100009F08EC08091CF0183FB222720F991E054
:10132000922790FB83F982C08091CF0188607EC0B4
:101330008091CE0182608093CE017AC08091CE01EF
:1013400019C08091CE018860F6CF8091CF0114C082
:101350008091CF0182606AC08091CE018062EBCF24
:101360008091CE018064E7CF0E946C248091CE01F1
:101370008068E1CF8460DFCF816058C08091CE016A
:101380008E7FD9CF8091CF01877F50C08091CE01D1
:101390008D7FD1CF8091CE011CC08091CE01877FFF
:1013A000CACF8091CF011AC08091CF018D7F3EC0FE
:1013B0008091CE018F7EBFCF8091CE018F7DBBCF3C
:1013C0000E946C248091CE018F77B5CF8091CE01A1
:1013D000877F8B7FB0CF8091CF018D7F8E7F26C09E
:1013E0008091CF01982F909591708E7F892B90FBE3
:1013F00081F91CC00E946C248091CE0187FB2227BA
:1014000020F991E0922790FB87F995CF61E08EE07B
:1014100090E00E9409360CC08091CE0184FB222707
:1014200020F991E0922790FB84F985CF8093CF013A
:101430008091CE019091CF010E94E52F0E946C24F3
:10144000FAC0882309F4A8C09091DC048091D001EF
:10145000892B8D7F79F110921802109217028091DA
:101460000C0281FD27C0F80143E0F695E7954A9507
:10147000E1F7EE71FF27EF52FE4F98012F703327EF
:1014800081E090E002C0880F991F2A95E2F78095CD
:101490009095208131818223932391838083A701BA
:1014A00060E0C8010E948F1C8091DC048D7F0E9447
:1014B0007A306EC088E0F701A7EAB1E001900D92A2
:1014C0008A95E1F71092A9011092AB011092AA013E
:1014D000809117029091180208171907E1F5809181
:1014E0000C0285FF38C09091170191FF02C086FF62
:1014F00032C080911502909116025601A81AB90ABD
:10150000B701C8010E94B729A816B90620F5809135
:10151000D00181FF08C0809117018061809317017D
:1015200082E00E9495308091D00185FF08C08091B3
:10153000170180628093170180E20E9495306091CC
:10154000170166956170A7018091170290911802AA
:101550000E948F1C70C08091DC049091D001982B68
:10156000969591702091170190FB21F92093170116
:101570008D7F0E947A301093180200931702D09248
:101580001602C092150280911701846080931701A2
:1015900082E00E94A9304FC0970140E0B601C80127
:1015A0000E94AF1C48C021E053CD482F447409F479
:1015B0005CCD90E05ACD482F417109F458CD90E0B0
:1015C00056CD482F487809F454CD90E052CD827220
:1015D00009F451CD222321F010928A0169E258CDFD
:1015E00080918A01882311F065E301C069E282ECF1
:1015F00091E00E94361950CDD70112968C91882324
:1016000009F4A5C00A358DE5180709F49BC008F058
:1016100085C00115ACE51A0709F079C00E946C2459
:101620003FEF44E35CE0315040405040E1F700C000
:1016300000000E949C188091D104877009F459C35E
:10164000D70112968C91882309F453C38091CF015E
:1016500082FF4FC382E00E94A9304BC30031FFE5F7
:101660001F0721F481E00E94332438CA01312FE59D
:10167000120709F036CA82E0F6CF6EE273E08C2DD5
:101680000E940428892B09F035CA8EE08C9DF00158
:101690008D9DF00D1124E85CFC4F82818130E1F4D6
:1016A00080912E0390912F03892B09F423CA8091F6
:1016B000300390913103892B09F41CCA80913203C5
:1016C00090913303892B09F015CA809134039091CE
:1016D0003503892B59F00ECA823009F00BCA80916C
:1016E000320390913303892B09F404CA2EE02C9D18
:1016F000C0012D9D900D1124FC01E35CFC4F208165
:101700002E7F2083885C9C4F0E94B019F3C90E3D48
:10171000BCE51B07E1F40E94043009C00C35EDE57F
:101720001E0741F088F0073A2DE5120781F40E9468
:10173000633481CF8091CF0182FB882780F991E0CB
:10174000892703C081E001C080E00E94C630F70114
:10175000868197810097B9F4F70182810081118118
:10176000882349F0C8010E948923D82E682FC80118
:101770000E94F92304C0C8010E94C523D82EB801D5
:101780008D2D0E94F41D0E94492E182F092FD7017C
:101790001296BC9012971596CC90C2943FE0C3224B
:1017A0008091D1048770B9F0BB20A9F0892F807F88
:1017B000803421F080E2810F883068F08091CF0181
:1017C00082FF09C082E00E94A9308091D104877015
:1017D000AA24A3948111A12C902E92942FE09222FE
:1017E000892D90E08C30910508F032C2FC01EA5A54
:1017F000FF4F0C946D36902F9F70802F807FD92ED5
:1018000019F0D29490EFD922BB20A9F0DD2009F481
:10181000FFC180E2810F883010F0111104C08D2DBE
:101820000E949C3005C08091D702D82AD092D7025E
:101830000E940C31EDC1812F0E949724DD2009F414
:1018400007C280E2810F883068F1112359F18D2D94
:101850000E948E302AC0902F9F70802F807FD92EBB
:10186000803219F0D29480EFD822112321F0113068
:1018700009F468C073C08091CF0182FD19C0BB20FC
:1018800059F0DD2029F08D2D0E949C300E940C31F2
:1018900080E00E94CC24DCC180E00E949724DD20FF
:1018A00009F4D6C18D2D0E9495300E940C31D0C113
:1018B000BB2011F1CC20E1F0B1E0CB1206C0809149
:1018C000DC048D290E947A30C3C180910D028230E0
:1018D00078F0C8120DC00E946F3090918B018D2D51
:1018E000892B891380938B018D2D0E949024B0C188
:1018F0008091DC048D29F9CFCC20F1F080910D028C
:10190000E1E0CE1214C0823008F4A2C18091D0016F
:101910008D2109F49DC10E946F3090918B018D2D16
:1019200080958923891751F080938B0107C08230FD
:1019300018F0C81609F48CC10E946F308D2D0E94DA
:10194000892486C180911302BB2021F08C1508F4F4
:101950007FC1CACFC81608F07BC1F0CFBB20E9F029
:10196000CC2011F220E0D7014C9111965C91119797
:1019700012966C91129713967C91139714968C91F2
:101980000E94F23180910E0281FD42C1F7018581F2
:1019900080FF3EC18F708583A7CFC11042C1CECFDB
:1019A000802F86958695837019F0813061F050C143
:1019B000BB2021F0812F902F937002C080E090E037
:1019C0000E9473194BC1BB2021F0812F902F93707F
:1019D00002C080E090E00E945D1940C1812FBB20D1
:1019E00019F00E94D32C02C00E94C62B0E949C2B8F
:1019F00035C1802F8370A1F5B1102EC1412F4295C2
:101A000046954770440F440F212F2F7030E0C901D5
:101A1000042E01C0880F0A94EAF714FF08C02FE0D3
:101A200030E001C0220F4A95EAF7209501C020E07E
:101A3000302F369536953370323069F040F440914E
:101A4000DD04313019F0822B842302C0842B822BD9
:101A50000E944C2401C1282B8091DD048227F8CFFD
:101A6000BB2019F0802F817001C08695882309F46E
:101A7000F3C0412F429546954770440F440F212FE4
:101A80002F7030E0C901042E01C0880F0A94EAF7D4
:101A900014FF08C02FE030E001C0220F4A95EAF79A
:101AA000209501C020E0302F3695369533703230C6
:101AB00051F070F44091E204313019F0822B84230C
:101AC00008C0842B05C0282B8091E204822701C026
:101AD000822B0E942E24C0C0F02FFF70DF2EBB206F
:101AE00039F08F2F0E944024812F0E949024B4C08F
:101AF000812F0E9489248D2D0E943324ADC0123F76
:101B000011F128F4103F41F0113FA9F17DC0133FBE
:101B100001F1143F61F178C080911302BB2021F0E4
:101B2000C81608F095C003C08C1508F491C0202F8A
:101B30002F7181E090E001C0880F2A95EAF790911B
:101B4000E20489270FC0802F8F71BB2009F464C085
:101B50007BC0BB2051F081E0902F9F7101C0880FA6
:101B60009A95EAF70E942E2473C080E0FBCF809103
:101B7000CF0182FD06C0802F8F71BB2009F464C0A5
:101B80004BC080910D02823040F1BB20C1F090919A
:101B9000D1049770943039F40E94A230802F8F7155
:101BA0000E94332454C0C81608F051C0202F2F7152
:101BB000D22E822F0E94402463E08D2D07C0C816CC
:101BC00040F00E94A23064E0802F8F710E94DB30D1
:101BD0003EC081E00E94A9303AC0BB2059F0302FAE
:101BE0003F71D32E832F0E94402463E08D2D0E94ED
:101BF000DB302EC081E00E94A93041E04C1540F559
:101C000082E00E94A93024C0BB2049F0CC2011F012
:101C1000812F3FCE802F8F710E94402419C0CC208D
:101C200089F0193329F4809111029091120204C0B5
:101C300080910F02909110020E94A41C812F0E949B
:101C4000972406C0802F8F710E94332401C0A12CDD
:101C500088EF890D843010F40E948919812F902F0C
:101C60000E945124811105C010928D0110928C01A7
:101C700025C0BB2019F0C110F7CF20C0C110F4CF90
:101C800020E0D7014C9111965C91119712966C91BE
:101C9000129713967C91139714968C910E94F231AF
:101CA00080910E0283FFE0CF80918C0190918D0195
:101CB0000297D1F6812F0E942025D6CFAA20A9F025
:101CC0008091D10480FD11C0F70112828595859520
:101CD00085950E944024C7010E9469048091D10427
:101CE0008595859585950E94332460E0C7010E9403
:101CF00015322C96E2E10C949636ACE3B0E0E3E8C2
:101D0000FEE00C947A3685B7806885BF85B7806819
:101D100085BF84B7877F84BF0FB6F894A89580915C
:101D20006000886180936000109260000FBE90E0B8
:101D300080E80FB6F89480936100909361000FBE25
:101D40008BE39DE290938701809386010E94D529C1
:101D50000E9473290E94FF280E946D1D0E94E921A4
:101D60000E9408228091E20084608093E2007894CF
:101D70008091E1048823A1F01091E9001F709091F7
:101D8000EC00892F817090FD80E8182B1092E900FB
:101D90008091E80083FD0E94CE1E1F701093E90021
:101DA00082E084BD93E095BD9AEF97BD80936E006D
:101DB0000E94832B811102C00E94732B02E211E06A
:101DC00037E2E32E31E0F32ED8018D918D018F3F64
:101DD00011F00E94802DE016F106B1F707E211E044
:101DE000F80181918F018F3F11F00E94802DF1E069
:101DF00005331F07A9F78AE0E8EBF1E0DF01282FA0
:101E00001D922A95E9F7EEE8F1E0DF011D928A952F
:101E1000E9F780E090E00E940336883E9E4F21F46F
:101E20000E94832B811102C00E94043082E090E066
:101E30000E94FB3580939A010E94F32F9093CF016B
:101E40008093CE010E94972DEFE3FCE93197F1F7E3
:101E500000C000000E94972D8091B80180FF08C04B
:101E60006FEF7FEF80E090E00E9427360E949C1881
:101E700083E090E00E94FB350E944C2481E0809337
:101E8000B1015098589A5198599A8FE891E001976A
:101E9000F1F700C000003091B101E2EBF1E090E019
:101EA000931761F089B1282F2170499B02C082E00D
:101EB00001C080E0822B81939F5FF2CF81E091E0AF
:101EC0009093DD028093DC0224E0222E312C80915D
:101ED000E104853009F047C000E112E18091E1049E
:101EE000853009F03CC08091E104843021F11092EA
:101EF000E002A8E1B0E0E0E40FB6F894A895A09362
:101F000060000FBEE093600083B7817F846083BF71
:101F100083B7816083BF7894889583B78E7F83BFB2
:101F20000FB6F894A8958091600088618093600056
:101F3000109260000FBE8091F402882309F4CECF86
:101F40000E94972DE8EBF1E081919191892B09F0A6
:101F5000E5C622EC31E02E173F07B1F7BFCF0E9454
:101F60006C240E9489190E94972D9BE9E92E91E02B
:101F7000F92E08EB11E025EA31E0D801F701419193
:101F800051918D919D91842795272E173F0719F028
:101F9000892BA9F322C0892B01F50E9401197C012C
:101FA0008091980190919901E816F90609F457C0BB
:101FB0008FEF8BAB8CAB1DAA0E9401198160782F2B
:101FC0009FAB8EAB4BA95CA96DA98FA90E94233250
:101FD000F0929901E092980142C088EB682E81E06E
:101FE000782E512CD3018D909D903D01F701A0805A
:101FF000B180A824B924A114B10441F1412CCC240E
:10200000C394D12CC5018C219D21892BB1F048AE00
:1020100059AE21E0C4018C219D21892B09F420E0D7
:102020002AAF0E9401198160782F9CAF8BAF48AD19
:1020300059AD6AAD8CAD0E9423324394CC0CDD1CAB
:10204000FEE04F12DFCFD7018D929C925394B2E005
:10205000EB0EF11CE5E05E12C5CF0E94F5188091F1
:10206000D0029091D102892B09F43EC04091C50263
:102070005091C6026091C7027091C8022FB7F894C0
:102080008091E1029091E202A091E302B091E4021A
:102090002FBF841B950BA60BB70B4091C10250912B
:1020A000C2026091C3027091C40284179507A6070B
:1020B000B707D0F08091D0029091D1020E94C03435
:1020C0001092D1021092D0021092C5021092C60254
:1020D0001092C7021092C8021092C1021092C2025E
:1020E0001092C3021092C4028091D8029091D9023A
:1020F000892B41F18091A5019091A6010E94E618DB
:102100007C01BE01655D7F4F88E0DB011D928A95F1
:10211000E9F78091D8029091D9020E94B7298E15D3
:102120009F0580F48091D802BEE08B9FC0011124EE
:10213000FC01E35CFC4F208122FD04C0885C9C4FC5
:102140000E94B01980911801882341F18091BF024B
:102150009091C002009711F10E94E6182091190297
:1021600030911A0228173907C8F49091BD02809166
:10217000BE02981759F00E94D71B10921A021092B3
:1021800019021092C0021092BF0208C00E94671B81
:102190001092C0021092BF020E94B71B80910C02E5
:1021A00080FF1EC08091170182FF1AC00E94011992
:1021B0002091150230911602AC01421B530B209165
:1021C0001501309116014217530750F027EA31E00C
:1021D00041E0BC0180911702909118020E94AF1C4F
:1021E000B12CA12C8091B101B81608F058C0EB2C8D
:1021F000F12CE9B1E170499B02C092E001C090E08E
:102200008E2F892BD701AE54BE4FEC912E2F237009
:1022100030E0482F082E000C550B24173507E9F144
:10222000EE0FEE0FE82BEC93EF70F0E0EB5CFE4F5F
:10223000970120553E4F69019081D9018C91890FFA
:102240008C93843064F0F701E155FE4F80818F5FFD
:102250008083B11006C089EA0E94202502C020E0D8
:1022600001C021E0F60180818D3F64F4F701E15562
:10227000FE4F808181508083B11003C08AEA0E94A2
:10228000202521E0D6018C91082E000C990BB1017C
:102290000E945936F6018083A22AB394A3CFA110DD
:1022A0000E94F51886E0E0E2F3E09E012F5F3F4FC9
:1022B0007901D90101900D928A95E1F710922203DC
:1022C0001092230310922403109225038B81811115
:1022D00004C08C81882309F45FC080911E03909113
:1022E0001F030E94E618AC0190911A03992339F05C
:1022F0002091130130E02417350758F04DC020918C
:1023000014018AE0289F900111242417350718F042
:1023100043C09F3F19F09F5F90931A03DB80DD203D
:1023200061F00E94842C1D1414F491E001C09FEF11
:10233000899F802D112480932203DC80DD2061F0B1
:102340000E94842C1D1414F491E001C09FEF899F1A
:10235000802D112480932303309122033323E1F055
:10236000209123032223C1F045EB3403C001112443
:10237000992319F09093220303C081E080932203F4
:1023800035EB2303C0011124992319F09093230303
:1023900003C081E0809323038D81811104C08E816D
:1023A000882309F45FC080911C0390911D030E9453
:1023B000E618AC0190911903992339F020910F018F
:1023C00030E02417350758F04DC0209110018AE005
:1023D000289F900111242417350718F043C09F3F10
:1023E00019F09F5F90931903DD80DD2061F00E945A
:1023F0004B2C1D1414F491E001C09FEF899F802D98
:10240000112480932403DE80DD2061F00E944B2C98
:102410001D1414F491E001C09FEF899F802D1124B9
:1024200080932503309124033323E1F02091250389
:102430002223C1F045EB3403C0011124992319F084
:102440009093240303C081E08093240335EB23039E
:10245000C0011124992319F09093250303C081E052
:102460008093250346E050E0B70180E293E00E94AC
:10247000B136892BA9F48091220381110FC080917C
:10248000230381110BC080912403811107C081E0D7
:1024900090912503911103C080E001C081E080FD8F
:1024A0000E949C2B86E0F701A0E2B3E001900D9220
:1024B0008A95E1F70E9489199091B301891721F05B
:1024C0008093B3010E94F5188091E104843009F0F3
:1024D000FECC83E08093E9008091E80082FFF7CC96
:1024E0008091E80085FF21C00E943A2381111BC022
:1024F000F0E2CF2ED12C570109C08091F100D50117
:102500008D935D01B1E0CB1AD10869F08091E800AC
:1025100085FDF3CF8091E8008B778093E8000E94DF
:102520003A23882399F391E001C090E08091E8007C
:102530008B778093E800992309F4C9CCC090CC0133
:10254000D090CD018981C114D10461F08E3F09F092
:10255000E1C38A81833008F4AFC18550833008F02D
:10256000D9C3AAC18B3009F491C110F5853009F4A3
:102570006FC0B0F48230C1F130F4813009F0C8C3CB
:102580001A8289E0F8C2833009F455C0843009F01A
:10259000BFC34C816B818A810E94D1289D83DBC39C
:1025A000873009F4B5C308F0B3C30E944028B2C312
:1025B000803109F4B1C060F48D3009F456C008F4DC
:1025C00052C08E3009F454C08F3009F479C0A0C3D2
:1025D000823109F4A7C008F4A2C0833109F4CAC04B
:1025E0008E3F09F469C194C38A81823009F4ACC377
:1025F000833051F0813009F08BC30E94F5189B8322
:102600008C837D836E8386C3809183049091840440
:10261000892B09F47FC3F701CE010B96D8012C91C9
:1026200011963C910E5F1F4F328323833296E81739
:10263000F907A1F76FC38A81823009F069C36B8102
:102640007C818D819E810E9473360E944F2B62C3D4
:102650002D813E813227232732274C816B818A814D
:102660000E94192857C380E15BC01A8285E883C2A3
:102670000A811B81102701271027AC80B12CBDE1F6
:10268000AB16B10408F046C36701C80185589C4FDA
:1026900096012E193F092A153B0508F03BC3053862
:1026A000110528F40E94FB35F601848303C0D6018E
:1026B00014961C920F5F1F4FBFEFCB1ADB0AE5CFBA
:1026C0008091830490918404892B09F423C30A81A7
:1026D0001B81102701271027CC80D12CEDE1CE16CD
:1026E000D10408F017C35701C80185589C4F9501C4
:1026F0002E193F092C153D0508F00CC305381105AE
:1027000028F4D50114966C910E9409360F5F1F4F73
:10271000BFEFAB1ABB0AE8CF0E94E41DFBC284E006
:102720008A83F8C20A811B81102701271027AC80F9
:10273000B12CEDE1AE16B10408F0ECC26701C8019E
:10274000879696012E193F092A153B0508F0E2C22B
:102750000033F2E01F0730F40E94FB35D6011496D7
:102760008C9302C0F60114820F5F1F4FFFEFCF1A48
:10277000DF0AE5CF0A811B81102701271027AC80D3
:10278000B12C2DE1A216B10408F0C4C2380137E221
:10279000630E711C003342E0140708F0BBC280E3F3
:1027A00092E0801B910B8A159B0508F4B3C28091BF
:1027B000830490918404892B11F067015EC000FFAF
:1027C0000FC0C80186960E94FB3590E0982F88279D
:1027D0002D81822B81159C4531F48FEF8D8303C0B1
:1027E000C12CD12C03C0CC24C394D12CC501800FA3
:1027F000911F450180FF1BC0B1E08B1A910855E085
:10280000452E512C4C0E5D1E480C591CC3018A0DDF
:102810009B1D0E94FB35F201208130E0322F2227E0
:10282000282B21153C4519F48FEFD2018C93F70129
:10283000EC0DFD1D2FEFCF018E199F09881599050D
:1028400008F0BBCF848190E0982F88273581832BB7
:1028500081159C4511F4248325833296ECCF0033F7
:10286000E2E01E0728F4D60114966C910E94093606
:102870000F5F1F4FBFEFCB1ADB0AC8018796960187
:102880002E193F092A153B0550F344C28091830459
:1028900090918404892B09F43DC2C7010E94BC3584
:1028A000EFEFF1EE24E0E150F0402040E1F700C00E
:1028B00000000E949C182EC2EA818E2F90E08E307C
:1028C000910508F027C2FC01EE59FF4F0C946D36BC
:1028D00088E0EAE1F1E0DE01919601900D928A959F
:1028E000E1F780E2D7011D928A95E9F785E08983B7
:1028F00088E0FE01B196DE011596A5C18CEE8983B4
:1029000081E08A831B821C8205C28C8190E0982F13
:1029100088272B81820F911D092E000CAA0BBB0B5F
:1029200035E0880F991FAA1FBB1F3A95D1F7AC015C
:10293000BD01405E5F4F6F4F7F4F481759076A07D1
:102940007B0708F4E7C18C3EE1E09E07A105B105D5
:1029500008F0E0C14D3EF1E05F076105710520F030
:102960004CEE51E060E070E0481B590BBC016E5F1B
:102970007E4FC7010E94E235CDC140E250E06FEFCB
:1029800070E0C7010E94C736809183048983CA82A0
:102990001B821C8282E08D838CE0DDC181E090E0AF
:1029A0009093CD018093CC0182E390E09093B701A6
:1029B0008093B6010E9401199093B5018093B401F0
:1029C000A9C1CD28A1F11091BD011295117080917E
:1029D000B80118238091B4019091B5010E94E618C6
:1029E00085369105F0F01123E1F00E9401199093D2
:1029F000B5018093B4018091B6019091B701019720
:102A00009093B7018093B601892B89F41092CD0180
:102A10001092CC0181E090E0909384048093830431
:102A200006C082E390E09093B7018093B601809155
:102A3000830489838091CC018A838091B6019BC0F5
:102A4000109284041092830465C10B811C8140E2C2
:102A500050E06FEF70E0C7010E94C7362EEE32E003
:102A6000AAEEB3E080E090E0AC014E5F5F4F4132F0
:102A7000510508F04FC1F9016591749106171707C8
:102A800030F4F701E80FF91F71836083CA01245FF6
:102A90003F4FA217B30741F73DC14B815C812AEE3E
:102AA00033E08EEE92E0FC01659174916417750736
:102AB00029F00C9628173907B1F72AC1009709F4B5
:102AC00027C1FC013696259134912115310509F471
:102AD0001FC14FE150E0BE016E5F7F4FF9010995C4
:102AE00018C12B813C818AEE93E00EEE12E0F801D2
:102AF000459154914217530731F0045F1F4F8017DF
:102B00009107A9F705C10115110509F401C1F801E3
:102B10003896259134912115310509F4F9C04CE11D
:102B200050E0BE016B5F7F4FC801F9010995009726
:102B300009F0EFC0F8013A9685919491009711F051
:102B4000FC01099580E0E5C00E94941DE3C0EB8183
:102B50008E2F90E08730910508F0DCC0FC01E05931
:102B6000FF4F0C946D3680E2D7011D928A95E9F7EC
:102B700088E089838A838B83CDC08C819AE0D92EAB
:102B80008E010F5D1F4FF8012D2D11922A95E9F747
:102B9000B8010E9404288983F801DE011296019091
:102BA0000D92DA94E1F7B6C01C818AE0FE013596F9
:102BB000DE01919601900D928A95E1F789A19AA183
:102BC0000E943F2B9AA389A38BA19CA10E943F2B1B
:102BD0009CA38BA38DA19EA10E943F2B9EA38DA39E
:102BE0008FA198A50E943F2B98A78FA3183070F44F
:102BF0003AE0139FB001112465577D4F4AE050E041
:102C0000CE0181960E942D3680E001C08FEF89832E
:102C10000E94D5297FC06C81CE0181962AE0DC011B
:102C20001D922A95E9F7683038F4BAE06B9FB0013D
:102C3000112465527D4F41C08FEF89838AE0FE01E8
:102C4000B196DE01129601900D928A95E1F762C06D
:102C50001C818AE0FE013596DE01919601900D926D
:102C60008A95E1F789A59AA50E943F2B9AA789A783
:102C7000183070F4EAE01E9FB001112465527D4FB8
:102C80004AE050E0CE0181960E942D3680E001C0DE
:102C90008FEF89830E9473293DC06C81CE0181969C
:102CA0002AE0DC011D922A95E9F7683028F6BAE09F
:102CB0006B9FB0011124655D7C4F4AE050E00E949B
:102CC000EB3580E0BACF1C818AE0FE013596DE014B
:102CD000919601900D928A95E1F78BA19CA10E949B
:102CE0003F2B9CA38BA3183070F4EAE01E9FB00129
:102CF0001124655D7C4F4AE050E0CE0181960E9430
:102D00002D3680E001C08FEF89830E94FF2802C02A
:102D10008FEF8983C7010E94BC35D9C809BD19BD91
:102D200009B400FEFDCF8091D8008F7D8093D8003C
:102D30008091E00082608093E0008091E00081FD5E
:102D4000FCCF0E946C24CAC886E290E00E94FB354A
:102D50001B821C821D828E83DDCF8091EA02089542
:102D6000A0E0B0E0E6EBF6E10C9482364430510589
:102D700008F46CC04091CE0141FBCC24C0F8D12CAA
:102D8000CC0CDD1C42FB882780F9C82FE0E0DE2F49
:102D9000CC0FDD1FCC0FDD1FCC2ADD2A40FBEE243B
:102DA000E0F8F12CEC28FD2843FBAA27A0F9B0E0BD
:102DB00023E0AA0FBB1F2A95E1F7EA2AFB2A44FB6E
:102DC000EE27E0F9F0E034E0EE0FFF1F3A95E1F76F
:102DD000EE29FF2945FB222720F930E055E0220F9C
:102DE000331F5A95E1F72E2B3F2B46FB882780F99E
:102DF00090E0E6E0880F991FEA95E1F7822B932B8C
:102E000047FB442740F950E05695542F44275795E7
:102E10004795842B952B2091CF01322F3170132FA2
:102E200000E0082B192B26952170B22EBB0CA12C8B
:102E30000A291B29012E000C220B330BFB010083F6
:102E400011832283338380E090E002C08FEF9FEFF5
:102E5000CDB7DEB7EAE00C949E36E1EFF1E0848175
:102E600095812AE030E0B9010E9445366093140153
:102E700086818093130182858093120184858093DB
:102E8000110186859785B9010E944536609310012E
:102E9000808980930F01828980930E0184898093B9
:102EA0000D0108958091F1019091F2019093160126
:102EB00080931501089524E02093E9002FEF3091CD
:102EC000E800215035FD06C035ED3A95F1F70000D8
:102ED0002111F5CF2091E80025FF0BC040E050E024
:102EE00066E070E00E9492358091E8008E778093D2
:102EF000E8000895CF93DF9321E02093E9002FEFBE
:102F00003091E800215035FD06C035ED3A95F1F7D6
:102F100000002111F5CF2091E80025FF14C0EC013D
:102F200040E050E068E070E00E9492358091E80057
:102F30008E778093E80088E0FE01ABEEB2E001906E
:102F40000D928A95E1F7DF91CF910895CF92DF92AC
:102F5000EF92FF924430510508F46FC0FB01C0802E
:102F6000D180E280F3800E946C248091CE01C0FA6F
:102F700080F9B701A601769567955795479540FB6F
:102F800081F9B701A60122E0769567955795479597
:102F90002A95D1F740FB82F9B701A60133E0769577
:102FA0006795579547953A95D1F740FB83F9B70157
:102FB000A601E4E07695679557954795EA95D1F790
:102FC00040FB84F9B701A601F5E076956795579522
:102FD0004795FA95D1F740FB85F9B701A601A6E020
:102FE0007695679557954795AA95D1F740FB86F951
:102FF000B701A601B7E07695679557954795BA95BD
:10300000D1F740FB87F98093CE018091CF01D0FAB0
:1030100080F999E0F694E794D794C7949A95D1F7FC
:10302000C0FA81F98093CF018091CE019091CF01B8
:103030000E94E52F80E090E002C08FEF9FEFFF90AD
:10304000EF90DF90CF9008959C01CA01F90132966C
:10305000459154918417950750F0CB01F9013496AE
:10306000659174910E94BE3680E090E008958FEFE4
:103070009FEF08950F931F93CF93DF9301EF11E01C
:10308000C7E6D2E0CE010E94FB35F80161918F01C5
:10309000681719F0CE010E9409362196CB38F2E06C
:1030A000DF0781F7DF91CF911F910F910895DA012A
:1030B0009C012E5F3F4FF90145915491F9012591F3
:1030C0003491A217B30758F0FC013496859194917E
:1030D0000E94BE360E943A1880E090E008958FEF7B
:1030E0009FEF08958093E5027093E7026093E602F4
:1030F0008091E1048430F9F48093E9008FEF90919E
:10310000E800815095FD06C095ED9A95F1F7000015
:103110008111F5CF8091E80085FF0DC040E050E0BF
:1031200063E070E085EE92E00E9492358091E800C5
:103130008E778093E800089581E08093E00080E23C
:103140008093D8001092C9008FE19EE40197F1F7B7
:1031500000C0000087E090EBDC018093E3049093D3
:10316000E404A093E504B093E6049CE088E10FB684
:10317000F894A895809360000FBE90936000FFCFF5
:1031800078941F920F920FB60F9211248F939F93F2
:10319000AF93BF938091E1029091E202A091E3028C
:1031A000B091E4020196A11DB11D8093E1029093BC
:1031B000E202A093E302B093E402BF91AF919F912A
:1031C0008F910F900FBE0F901F9018959C014FB7D5
:1031D000F8948091E1029091E202A091E302B09113
:1031E000E4024FBF821B930B08952FB7F8946091B0
:1031F000E1027091E2028091E3029091E4022FBF1C
:1032000008952FB7F8948091E1029091E202A09185
:10321000E302B091E4022FBF08951F920F920FB600
:103220000F9211248F939F93AF93BF938091E002ED
:10323000811113C08091E1029091E202A091E3021A
:10324000B091E4024196A11DB11D8093E1029093DB
:10325000E202A093E302B093E402BF91AF919F9189
:103260008F910F900FBE0F901F9018959C012A5FB1
:103270003F4FFC014281461301C012820196821722
:103280009307B9F708959C01FC0132969FEF80E007
:103290004191461789F09F3F19F4411101C0982FC1
:1032A0008F5F8630A9F79F3F39F0F901E90FF11DD3
:1032B00097FDFA956283089508952091DE0230917A
:1032C000DF022817390771F09093DF028093DE0246
:1032D000E091DC02F091DD02309721F00084F1856D
:1032E000E02D099508952091DA023091DB0228172C
:1032F000390771F09093DB028093DA02E091DC02EF
:10330000F091DD02309721F00680F781E02D0995DC
:103310000895E091DC02F091DD02309729F00190F0
:10332000F081E02D0995089580E00895CF93DF9313
:10333000EC01EA85FB85309719F06C857D85099550
:103340008B810E948E308C810E9495300E940C31BE
:1033500086E0FE0111928A95E9F7DF91CF910895F9
:10336000CF93DF93EC018D8181FD15C082608D8349
:103370009091D7028B81892B8093D7028C810E94F8
:103380009C300E940C31E885F985309721F06C85DE
:103390007D85CE0109951092D9021092D8028D81B7
:1033A00080FD03C0CE010E949619DF91CF91089550
:1033B000A0E0B0E0EEEDF9E10C9482367C015B0117
:1033C000C42FD22FFC0182818823B1F04093D60212
:1033D0000E9401199093D5028093D40280E28C0F51
:1033E000883008F052C0C77081E001C0880FCA95CC
:1033F000EAF70E94902449C08091D602481335C054
:103400008091D4029091D5020E94E6186C01B70118
:10341000C5010E94B729C816D90638F510E21D0F5C
:10342000CD17B9F080E28C0F883040F4C77081E08E
:1034300001C0880FCA95EAF70E948924183010F558
:1034400081E09D2F977001C0880F9A95EAF70E943E
:103450009024802F0E9420251830B8F4D77081E086
:1034600001C0880FDA95EAF70AC080E28C0F883035
:1034700060F4C77081E001C0880FCA95EAF70E9426
:10348000892403C0802F0E942025CDB7DEB7EAE053
:103490000C949E36CF93DF93EC014091C90250917A
:1034A000CA026091CB027091CC022FB7F894809140
:1034B000E1029091E202A091E302B091E4022FBFF9
:1034C000841B950BA60BB70B843F9140A105B1055A
:1034D000A8F48091C9029091CA02A091CB02B09148
:1034E000CC028093C5029093C602A093C702B0930A
:1034F000C80284EF91E0A0E0B0E00EC00E94F51891
:103500006093C5027093C6028093C7029093C8026D
:1035100082E390E0A0E0B0E08093C1029093C20209
:10352000A093C302B093C402D093D102C093D0023F
:10353000DF91CF910895FF920F931F93CF93DF9365
:103540000091D2021091D3020115110509F45CC05B
:103550001092D1021092D0021092CD021092CE029F
:10356000D80116966D917C9117979B013A9521157C
:103570003F4108F4707EC62FD1E0611101C0D0E058
:10358000F82ED8011996ED91FC911A97309739F0E1
:103590001B966D917C911C9780E00995D823DD23C3
:1035A00079F08CEF8C0F813A30F46C2F82EC91E043
:1035B0000E94361905C00E940C318C2F0E9497245E
:1035C000E091D202F091D30240815181FF2071F04D
:1035D000808584FD0BC08091CF02882339F091E073
:1035E0009A0121503109203B3D4508F090E090FFC1
:1035F00003C0CA010E944A1A0E940C311092D302E1
:103600001092D2021092CF02C801CDB7DEB7E5E02A
:103610000C94A336FC0184818623C1F49281992302
:10362000B9F08085692383FF04C081E0611111C076
:103630000DC0892F8F7092959F70982B862F8F7059
:1036400062956F70682B81E0961719F080E00895FD
:1036500081E00895452B41F06F3F41F491E08F3FA9
:1036600009F090E0892F03C081E001C080E0817003
:103670000895BC014091BD028091BE02942F98171D
:1036800029F1292F30E0F901EE0FFF1FEB54FD4F18
:103690000190F081E02DE617F70799F487E0869F07
:1036A000F001879FF00D1124E358FD4F81E08483E2
:1036B00094130CC02F5F3F4F237033272093BD021C
:1036C00008952F5F3F4F922F9370D9CF0895EF92B7
:1036D000FF920F931F93CF93DF9380911C02882357
:1036E00009F440C000911B028CE0F82E80911C026E
:1036F0000817A0F5EE24E394E00EE0921B0210E020
:10370000F09EE001F19ED00D1124C35EDD4F4B8190
:103710005C81698188810E942A1B81111DC08E8174
:103720009F81892B21F488859985019651F4288100
:1037300039814A815B816C817D818E819F810E946C
:103740008E27F09EF001F19EF00D1124E35EFD4FF7
:10375000148213821092D7020E2DC8CF10921C0231
:1037600010921B02CDB7DEB7E6E00C94A2361092A1
:103770001A0210921902EDE7F2E08581811102C070
:1037800014821682379682E0E53BF807B1F7089578
:103790001092C0021092BF02109218018091BE02D6
:1037A0008093BD020E94B71B0E94671B0895A0E092
:1037B000B0E0EDEDFBE10C947B36C091BD0297E0EB
:1037C000892E01E010E02CE0322E3EEF932E4424AF
:1037D00043948091BE02C81709F479C0D0E0FE017D
:1037E000EE0FFF1FEB54FD4F80819181889ED00129
:1037F000899EB00D1124A358BD4F14962C91149797
:10380000211162C050901C02EDE1F2E020E030E0B6
:10381000712C5D01251508F055C0E284F384D501B3
:10382000CD90DC906FEF7FEF612C462D50E0DA01F8
:10383000AA0FBB1FAC0DBD1D0D90BC91A02D109704
:1038400031F0EA16FB0609F4BA016394EECF6F3F3C
:10385000BFEF7B0799F1D80102C0AA0FBB1F6A9581
:10386000E2F77A2AB801062C02C0660F771F0A9485
:10387000E2F7AB0141505109672D70E04617570739
:10388000D9F4329EF001339EF00D1124E35EFD4F1A
:10389000889ED001899EB00D1124A358BD4F129669
:1038A0002D913C9113973783268390829182918743
:1038B000808715964C9206C0148213822F5F3F4F6B
:1038C0003C96A8CF0E94391B2196C37082CF0E94DC
:1038D000671B0E94B71BCDB7DEB7E1E10C949736AA
:1038E00080911701877F8093170182E00E948E30BC
:1038F0008091170184FF06C08F7E8093170182E0BC
:103900000E949C308091170185FF06C08F7D8093B7
:10391000170180E20E949C300E940C3108956623BA
:1039200029F02091D70222602093D7029C013056C3
:10393000211540E2340720F0305E2115304108F4B3
:1039400099270E94C0340895009741F0EFE9FFE005
:103950003197F1F700C000000197F6CF0895A0E07D
:10396000B0E0E5EBFCE10C9482365C017B01C42EF7
:1039700089018091170182FF8DC0C0911702D091FB
:103980001802CA15DB0521F0A114B10409F082C0A8
:10399000809117018B7F8093170181FD11C0809169
:1039A000150290911602A701481B590B81E0209146
:1039B0001501309116014217530718F480E001C039
:1039C00081E08170D82E80911701D0FA81F980931F
:1039D0001701FE01FF2784E0F695E7958A95E1F748
:1039E0009E012F703327EE0FFF1FEF52FE4F81E035
:1039F00090E002C0880F991F2A95E2F7DD2029F098
:103A000020813181822B932B06C080959095208157
:103A1000318182239323918380838091D00181FF20
:103A200008C08091170180618093170182E00E9495
:103A300095308091D00185FF08C080911701806288
:103A40008093170180E20E949530A8016D2DCE0170
:103A50000E948F1CCC2031F080910C0285FF02C0A7
:103A600086FF36C080910F02909110020E94A41C24
:103A700080911702909118029C013056211540E266
:103A8000340720F0305E2115304108F499270E9458
:103A9000A63418C095013327C5019056811540E220
:103AA000940720F0905E8115904110F4C90101C087
:103AB000C5010E94A6348091170290911802A816A1
:103AC000B90611F40E94701CF0921602E0921502E1
:103AD000CDB7DEB7EAE00C949E360F931F93CF93D9
:103AE000DF9301EF11E0C7E6D2E0CE010E94FB3583
:103AF000F80181938F012196CB38F2E0DF07A9F717
:103B0000C0E0D0E0FE01E850FD4F85919491009710
:103B100011F0FC0109952C96CC3FD10599F7DF9166
:103B2000CF911F910F910895E1EFF1E0128E138E66
:103B30008FEA90E09183808325E0248F88E893E1E9
:103B4000938382838AE090E09583848344E150E00C
:103B50005783468348E050E05187408793878287A8
:103B60006EE170E0758764879787868780E590E0CF
:103B7000918B808B538B428B48E250E0558B448B6A
:103B800042E350E0578B468B48EC50E0518F408F1A
:103B9000158E178E168E91A380A322A30E943A1829
:103BA0000E946C241092CF011092CE01EFECF1E054
:103BB0008081846080838091CE019091CF010E94AA
:103BC000E52F0E946D1D0895CF93DF93CBE7D3E0DF
:103BD00060E0CE010E9409362196C11584E0D80725
:103BE000B9F7DF91CF9108952091CC013091CD01AB
:103BF000232BA1F4703F39F4603F81F48091CA0116
:103C00009091CB010895843048F4753038F46E30CB
:103C100028F4462F672F0E94D128089580E090E075
:103C200008958091F60287FF11C08091E80082FD1F
:103C300005C08091E1048111F8CF11C08091E800A6
:103C40008B770BC08091E104882349F08091E800D4
:103C500080FFF8CF8091E8008E778093E800089588
:103C6000982F973068F59093E900981739F0709184
:103C7000EC002091ED005091F00003C0242F762F2E
:103C800050E021FD02C09F5FECCF3091EB003E7F02
:103C90003093EB003091ED003D7F3093ED0030919B
:103CA000EB0031603093EB007093EC002093ED005B
:103CB0005093F0002091EE0027FDE5CF80E00895BD
:103CC0008F708093E90081E008952091FC0230918B
:103CD000FD022617370748F06115710539F4209168
:103CE000E8002E772093E80001C0B901FC0120E034
:103CF0006115710579F18091E1048823F1F1853036
:103D0000F1F18091E80083FD3CC08091E80082FDE4
:103D10002EC08091E80080FFEBCF2091F3008091CE
:103D2000F20090E0922B6115710551F088309105F9
:103D300038F421912093F100615071090196F3CF7D
:103D400021E0089709F020E08091E8008E778093C9
:103D5000E800CECF2111CFCF0AC08091E1048823A3
:103D600061F0853061F08091E80083FD0AC08091A8
:103D7000E80082FFF2CF80E0089582E0089583E0BA
:103D8000089581E008950895BC0184E00E947218AE
:103D90000895BC0183E00E9472180895AAE2B0E081
:103DA000E4EDFEE10C948936E6EFF2E08EEF92E06E
:103DB0002091F10021938E179F07D1F78091F70290
:103DC000833009F463C030F4813071F0823009F43B
:103DD0009DC0B4C08A3009F489C08B3009F46EC02C
:103DE000893009F0ABC020C08091F602813A09F019
:103DF000A5C08091E800877F8093E8008091FA0257
:103E00009091FB02892B21F468E08BEE92E003C0D5
:103E100060E080E090E070E00E94651E8091E80024
:103E20008B778093E8008AC08091F602813209F096
:103E300085C08091FA029091FB02009719F00297D9
:103E400009F07CC08091E800877F8093E800809132
:103E5000E80082FD05C08091E1048111F8CF6EC0B9
:103E60002091F3008091F20090E0922B029731F4C0
:103E70008091F100813011F0863021F48091F100C1
:103E80008093EA028091E8008B7754C08091F6021B
:103E9000813A09F053C08091FA029091FB02892B7C
:103EA00009F04CC08091E800877F8093E800809102
:103EB000E80080FFFCCF8091190137C08091F602A5
:103EC0008132E1F58091FA029091FB02892BB1F5E4
:103ED0008091E800877F8093E8000E94111E809106
:103EE000F802809319010E946C2428C08091F60288
:103EF000813221F58091E800877F8093E8000E945D
:103F0000111E8091F9028093E90218C08091F60297
:103F1000813AA1F48091E800877F8093E800809146
:103F2000E80080FFFCCF8091E9028093F10080914E
:103F3000E8008E778093E8000E94111E8091E800CF
:103F400083FFEBC18091F6029091F702492F50E078
:103F50004A30510508F0E1C1FA01E958FF4F0C94CD
:103F60006D36803821F0823809F0D7C108C08091C1
:103F7000F3029091F402992389F082600FC080913E
:103F8000FA028F70873008F0C8C18093E9008091F1
:103F9000EB0085FB882780F91092E9009091E800FA
:103FA000977F9093E8008093F1001092F1007CC11C
:103FB000282F2D7F09F0B1C1882319F0823061F0DC
:103FC000ACC18091F802813009F0A7C1933009F0AB
:103FD00080E08093F4022EC08091F80281112AC003
:103FE0008091FA028F702FEF280F263008F095C1CC
:103FF0008093E9002091EB0020FF1CC0933021F456
:104000008091EB00806214C09091EB0090619093DE
:10401000EB0021E030E0A90102C0440F551F8A9552
:10402000E2F74093EA001092EA008091EB0088608A
:104030008093EB001092E9008091E800877F8093E5
:10404000E8000E94111E69C1811167C11091F80238
:104050001F778091E3008078812B8093E30080912B
:10406000E800877F8093E8000E94111E8091E8009D
:1040700080FFFCCF8091E30080688093E300111102
:1040800002C082E001C083E08093E10446C1805811
:10409000823008F042C12091F8023091F9022C3DA3
:1040A00053E0350779F583E08A838AE289834FB745
:1040B000F894DE01139620E03EE051E2E32FF0E0B9
:1040C00050935700E49120FF03C0E295EF703F5FEB
:1040D000EF708E2F90E0EA3010F0C79601C0C096C6
:1040E0008D939D932F5F243149F74FBF8091E80056
:1040F000877F8093E8006AE270E0CE0101960E941B
:10410000651EC0C08091FA029091FB02432F552793
:1041100043305105B1F068F44130510509F40CC148
:104120004230510509F0F9C08BE590E0EDECF4E088
:1041300057C04132510589F14232510509F43CC062
:10414000ECC0C901992781309105B9F070F0823037
:104150009105D9F0039709F0E0C0EAE3F5E0E491B6
:104160008E2F90E0EAE3F5E038C0EAE7F5E0E4916D
:104170008E2F90E0EAE7F5E030C0E8E6F5E0E49164
:104180008E2F90E0E8E6F5E028C0E8E5F5E0E49160
:104190008E2F90E0E8E5F5E020C08330910508F02F
:1041A000BCC0880F991FFC01E25BFE4F0190F081BB
:1041B000E02D89E090E014C08330910508F0ADC097
:1041C000FC01EE0FFF1FE85BFE4F0190F081E02D38
:1041D000DC01AB5BBE4F8C9190E0009709F49DC071
:1041E0002091E800277F2093E8002091FC02309185
:1041F000FD022817390708F4C90140E0009789F14A
:104200002091E104222309F43DC02530D9F1209109
:10421000E80023FD37C02091E80022FD2FC0209147
:10422000E80020FFEBCF4091F3002091F20030E056
:10423000342B009759F02830310540F444914093D5
:10424000F100319601972F5F3F4FF3CF41E02830C7
:10425000310509F040E02091E8002E772093E80036
:10426000CDCF4111CDCF0AC08091E104882351F018
:10427000853041F08091E80083FD04C08091E80022
:1042800082FFF2CF8091E8008B778093E80045C0F1
:10429000803809F042C08091E800877F8093E80071
:1042A0008091F5028093F1008091E8008E77C7CE6F
:1042B000811133C08091F8029091F90299270297F9
:1042C00064F58091E800877F8093E8001091F80200
:1042D0001093F5020E94111E111106C08091E30097
:1042E00087FD02C081E001C084E08093E10442E0E8
:1042F00061EC81E00E94301E42E261EC84E00E94A9
:10430000301E42E261EC82E00E94301E42E260EC2C
:1043100083E00E94301E8091E1048091E80083FFD9
:1043200010C08091E800877F8093E8008091EB00C7
:1043300080628093EB0005C082E190E0E8E2F5E066
:104340004FCFAA96E3E00C94A5361F920F920FB6BA
:104350000F9211242F933F934F935F936F937F930B
:104360008F939F93AF93BF93CF93DF93EF93FF937D
:10437000C091E900CF708091EC00D82FD17080FD02
:10438000D0E81092E9008091F000877F8093F000E0
:1043900078940E94CE1E1092E9008091F00088600F
:1043A0008093F000CD2BCF70C093E900FF91EF9187
:1043B000DF91CF91BF91AF919F918F917F916F913D
:1043C0005F914F913F912F910F900FBE0F901F90D3
:1043D0001895E8EDF0E080818E7F80831092E200F6
:1043E0001092DA001092E100A0EEB0E08C918160B2
:1043F0008C9380818F77808319BCA7EDB0E08C917E
:104400008E7F8C9380818F7E80831092E802089546
:10441000A0E0B0E0EEE0F2E20C948436C8EDD0E02B
:1044200088818F7E8883E7EDF0E0808181608083E2
:1044300084E082BF81E08093E80288818E7F888358
:1044400002EE10E0F80110821092DA0081EEC82E20
:10445000D12CF601108288818F77888388818068CB
:10446000888388818F7D888319BC1092E104109223
:10447000F5021092F4021092F30290EEE92EF12C64
:10448000F70180818B7F808388818160888342E00F
:1044900060E080E00E94301EF60180818E7F808384
:1044A000F801808181608083808188608083F7014A
:1044B00080818E7F8083888180618883CDB7DEB7DD
:1044C000E8E00C94A0361F920F920FB60F921124C1
:1044D0002F933F934F935F936F937F938F939F930C
:1044E000AF93BF93EF93FF938091E10082FF09C0E8
:1044F0008091E20082FF05C08091E1008B7F809374
:10450000E1008091DA0080FF2AC08091D80080FF0E
:1045100026C08091DA008E7F8093DA008091D900E6
:1045200080FF18C080E189BD82E189BD09B400FE29
:10453000FDCF81E08093E1048091E80281110FC0FA
:104540000E94E9210E9408228091E2008460809309
:10455000E20005C019BC1092E1041092E8028091BB
:10456000E10080FF17C08091E20080FF13C08091BE
:10457000E2008E7F8093E2008091E2008061809370
:10458000E2008091D80080628093D80019BC85E059
:104590008093E1048091E10084FF30C08091E200CB
:1045A00084FF2CC080E189BD82E189BD09B400FE91
:1045B000FDCF8091D8008F7D8093D8008091E1005D
:1045C0008F7E8093E1008091E2008F7E8093E200F5
:1045D0008091E20081608093E2008091F50288235F
:1045E00011F084E007C08091E30087FD02C081E004
:1045F00001C083E08093E1048091E1048091E100B7
:1046000083FF27C08091E20083FF23C08091E100F7
:10461000877F8093E10082E08093E1041092F502AD
:104620008091E1008E7F8093E1008091E2008E7F97
:104630008093E2008091E20080618093E20042E09A
:1046400060E080E00E94301E8091F00088608093DE
:10465000F000FF91EF91BF91AF919F918F917F916A
:104660006F915F914F913F912F910F900FBE0F90DF
:104670001F9018952091E4003091E50095E6409157
:10468000EC00842F817040FF23C08091E80080FD02
:104690001DC08091E104882399F0853099F08091C4
:1046A000EB0085FD11C04091E4005091E500241716
:1046B000350729F3915011F09A01E1CF84E0089574
:1046C00082E0089583E0089581E0089580E00895F0
:1046D0004091E80042FFDDCF089580E090E00E9425
:1046E000731980E090E00E945D191092D7020E9439
:1046F0000C31E0E2F3E086E0DF011D928A95E9F7F4
:1047000010921A031092190310921B030E949C2B03
:104710000895CF92DF92FF920F931F93CF93DF9371
:104720006C010091E2048091DD04082BC7E0D0E029
:1047300010E0C8010C2E02C0959587950A94E2F707
:1047400080FD04C02197A8F7F12C09C0FC2EB6010A
:104750008C2F0E94F41D0E94492E019799F38F2DF2
:10476000DF91CF911F910F91FF90DF90CF9008952F
:10477000CF93DF93EC010E948923BE010E94F41DB8
:104780000E94492EDF91CF910895292F953078F519
:104790008E3068F590E03EE0239F800D911D11243E
:1047A000682F677023E0969587952A95E1F7FC01BD
:1047B000EE0FFF1FE80FF91FE250FD4F40E050E001
:1047C00080E0219130E0062E02C0369527950A94AC
:1047D000E2F721703327042E01C0220F0A94EAF772
:1047E000822B4F5F5F4F4330510559F7089580E0AA
:1047F0000895292F953088F58E3078F590E03EE0C9
:10480000239F800D911D1124282F277051E001C096
:10481000550F2A95EAF723E0969587952A95E1F7B3
:10482000FC01EE0FFF1FE80FF91FE250FD4F20E0E3
:1048300030E070E04081CB01022E02C09695879552
:104840000A94E2F7817081958427852384278193D8
:104850002F5F3F4F2330310569F708958093E204BD
:104860000E946D23089521E030E001C0220F8A9557
:10487000EAF720958091E20482230E942E24089575
:1048800021E030E001C0220F8A95EAF78091E2042E
:10489000822B0E942E2408958093DD040E946D23B4
:1048A000089592959F70963079F010F4925001C05F
:1048B0009A50923068F4803F69F018F4883E40F4D2
:1048C00009C0843F29F406C0883E20F0813F11F0E2
:1048D00080E0089581E008951092D00186E0E4EC34
:1048E000F1E0DF011D928A95E9F70E946D2308959A
:1048F000882321F00E948E300E940C310895882375
:1049000039F09091D702892B8093D7020E940C3105
:104910000895882321F00E9495300E940C3108955B
:10492000882321F00E949C300E940C310895882336
:1049300091F19CEF980F913A30F4682F82EC91E05E
:104940000E9436190DC090E2980F983060F487707D
:1049500091E001C0990F8A95EAF7892F0E9495305E
:104960000E940C3108959BE5980F933028F480E065
:1049700090E00E947319089598E5980F973128F4F4
:1049800080E090E00E945D190895803F20F00E9431
:10499000C62B0E949C2B0895CF93882309F44EC008
:1049A000C82F8CEF8C0F813A80F4E4ECF1E08AECB4
:1049B00091E02191C217D1F18E179F07D1F76C2F8B
:1049C00082EC91E00E9443190CC080E28C0F883089
:1049D00058F4C77081E001C0880FCA95EAF70E94B9
:1049E0009C300E940C312AC0EBE5EC0FE33040F420
:1049F000F0E0EC5AFE4F808190E00E9473191EC0D7
:104A0000E8E5EC0FE73150F4F0E0EE0FFF1FE95A54
:104A1000FE4F808191810E945D1910C0C03F70F0EF
:104A20008C2F0E94D32C0E949C2B08C06C2F82ECF0
:104A300091E00E9436190E940C31C1CFCF910895A8
:104A40001F93CF93DF93182F893329F4C09111025C
:104A5000D091120204C0C0910F02D0911002812F98
:104A60000E94CC24209741F08FE99FE00197F1F755
:104A700000C000002197F6CF812F0E949724DF917C
:104A8000CF911F910895CF93DF93EC014B815C810F
:104A9000698188810E942A1B81110EC08E819F81AD
:104AA000009719F00E94492E04C0888199810E94C4
:104AB000B8230E94512401C080E0DF91CF91089576
:104AC000A5E1B0E0E6E6F5E20C947C368C0185E0E9
:104AD000F801DE01519601900D928A95E1F7D80117
:104AE0005C9011966C9011971296EC901297139619
:104AF000CD90DC90149760E085E894E00E94153238
:104B000085E8A82E84E0B82E8090880490908904CF
:104B1000A40160918604809185040E942A1BF82ECE
:104B20008111DBC140908704F601E819F9094F01B2
:104B300060E0442009F45FC1C5010E941532B5014F
:104B40000E94B72970908A048816990608F00BC154
:104B50004091880450918904B0908504A090860407
:104B6000872D807F6A2D09F08EC08B2D0E942A1B15
:104B7000811124C0D80111968C9111978A111EC001
:104B80008C918B111BC020918B0430918C04169654
:104B90008D919C9117972817390781F4E1100EC069
:104BA000872D8F70806180938A0485E894E00E944D
:104BB000690480918A04F8018583ABC1A601662D42
:104BC000852D0E942A1BD82E811103C081E08E25DD
:104BD00002C080E090E080FF17C04E2D662D852D2D
:104BE0000E946231882381F080910E0280FF0CC008
:104BF00085E894E00E946904E5E8F4E088E0DF01DC
:104C00001D928A95E9F785C1D11003C081E08E25F8
:104C100002C080E090E0B82FB170CB2E80FF2AC098
:104C20004E2D662D852D0E946231D82E811122C015
:104C3000598A6A8A89899A890E94B823292F2295DC
:104C40002F70223018F0243078F405C09F7049F09E
:104C5000811107C00DC09F7021F0F8019581907FF0
:104C600039F0805E883020F0C8010E946904DC2C95
:104C7000FD2C4FC1EE2009F44BC180918A04816064
:104C800080938A0446C18B2D0E942A1B811124C067
:104C9000D80111968C9111978A111EC08C918B119D
:104CA0001BC020918B0430918C0416968D919C91A1
:104CB00017972817390781F4E1100EC015967C92DA
:104CC000C8010E94690488E0F801A5E8B4E00190F9
:104CD0000D928A95E1F76FC0C8010E944325882391
:104CE000E1F1EE20D1F120918A04822F82958F701C
:104CF00090E00297A4F080918504909186049A87B1
:104D000089871B86DD86CC862E8780918B049091C7
:104D10008C04988B8F87CE0109960E94690488E0E5
:104D2000F801A5E8B4E001900D928A95E1F70E94A0
:104D30008C3116C0F09085049090860440918804D0
:104D400050918904692D8F2D0E942A1B882399F088
:104D5000C8010E944325811130C0C8010E94690426
:104D6000FF24F394D6C0872D807F21F785E894E057
:104D70000E946904ACC0D80111968C9111978911D9
:104D8000E7CF8C918F11E4CF20918B0430918C046C
:104D900016968D919C91179728173907C9F6E1103F
:104DA000D7CF15967C92C8010E94690488E0F5016E
:104DB00011928A95E9F7F42CACC0EE2071F22091A3
:104DC0008A04822F82958F7090E002970CF4A7CF0F
:104DD00080918504909186049A8389831B82DD8269
:104DE000CC822E8380918B0490918C0498878F8342
:104DF000CE01019692CF85E894E00E94153265E8D5
:104E000074E00E94B7298816990608F060C0FE2C4D
:104E1000EE2009F4A2CFE0908504D0908604409162
:104E20008804509189046D2D8E2D0E942A1B8111BA
:104E300040C0D80111968C9111978D113AC08C9178
:104E40008E1137C020918B0430918C0416968D9171
:104E50009C9117972817390761F580910E0282FD02
:104E60001FC080918A0480FD1BC082958F70482FDF
:104E700050E041155105A1F020918A0415962C931C
:104E800015974F30510549F08F5F982F9295907F7D
:104E9000822F8F70892B15968C93C8010E9469040C
:104EA00088E0F801A5E8B4E001900D928A95E1F759
:104EB00030C0C8010E944325811131CF80918A04FE
:104EC000816080938A04C8010E94690422C088E03E
:104ED000F50111928A95E9F71CC0EE2009F43DCF47
:104EE000C8010E944325F82E882309F436CF88E0B4
:104EF000F801A5E8B4E001900D928A95E1F7809160
:104F00008504909186040E94B8230E948C3101C0D0
:104F1000F12C8F2D6596E0E10C949836A0E1B0E07D
:104F2000E4E9F7E20C94863629873A874B875C8759
:104F30006D877E878F87988BCE0109960E946025AA
:104F400081114AC088E0FE013996DE011196019078
:104F50000D928A95E1F7E984FA840C851D85A801F4
:104F60006F2D8E2D0E942A1B811136C0A0918D04B9
:104F7000B0E0CD010196877099272091CE0430E0F2
:104F80008217930781F1E982FA821D830C8393E0F3
:104F9000AA0FBB1F9A95E1F7A257BB4F98E0FE01FD
:104FA000319601900D929A95E1F780938D040E94BD
:104FB000823112C028E0829FC001112482579B4F8A
:104FC0000E9460258823E1F08091CE0490E0019654
:104FD000877099278093CE048091CE0490918D04A0
:104FE0008913E8CF0DC00E946C2410928D0410929A
:104FF000CE04E5E8F4E088E0DF011D928A95E9F748
:105000006096E6E00C94A236883080F49B01982FDD
:105010008AE0989FB001112465577D4F4AE050E027
:10502000C9010E94EB3580E090E008958FEF9FEF7B
:1050300008951F93CF93DF93962F8430E8F4653063
:10504000D8F44E30C8F4632F122FC42FD0E0CC0F09
:10505000DD1F2CE1929FC00DD11D11249CE8899F7A
:10506000C00DD11D1124CE0187960E940936612FF3
:10507000CE0188960E940936DF91CF911F91089545
:10508000AEE1B0E0E6E4F8E20C947E36A090830452
:10509000B090840481E090E0909384048093830432
:1050A000612CC12CD12C712CE12CF12C00E010E0F2
:1050B00047018C0C9D1CF801EE0FFF1FE80DF91D38
:1050C000E258FA4F25913491402F672D862D0E948A
:1050D00019280F5F1F4F0E30110569F78CE1E80E9C
:1050E000F11C7394E5E07E12E1CFFCE8CF0ED11CF9
:1050F000639484E06812D7CF0E94941D1A821982AB
:105100001C821B821E821D8218861F8288EC90E002
:105110009A8789870BE812E04AE050E0B801CE0197
:1051200001960E942D36065F1F4F0B3DE2E01E07E1
:1051300099F77E01FBE0EF0EF11C8AE0F701119276
:105140008A95E9F74AE050E0B801C7010E942D3680
:10515000065F1F4F0B32F3E01F07A1F77E0185E1C9
:10516000E80EF11C8AE0F70111928A95E9F78FEFBA
:105170009FEF9A8F898F87E08E8F4AE050E0B801C9
:10518000C7010E942D36065F1F4F0B37F3E01F0744
:10519000A1F7B0928404A09283046E96EEE00C9482
:1051A0009A360F931F93CF93DF93843008F56530C1
:1051B000F8F44E30E8F4C42FD0E0CC0FDD1F2CE122
:1051C000629FC00DD11D11243CE8839FC00DD11DED
:1051D0001124CE0187960E94FB3590E0182F0027FE
:1051E000CE0188960E94FB359801282BC90102C088
:1051F00080E090E0DF91CF911F910F910895AAE098
:10520000B0E0E5E0F9E20C9480360BE014E089EFC1
:10521000C82E83E0D82E9BE2E92E93E0F92E2FE0F2
:10522000922E38EFA32E33E0B32E88248394F60118
:10523000019311936F014AE050E0B701CE0101964E
:105240000E94EB35F801892D11928A95E9F7898141
:105250009A81F801918380838F8182838D818383FA
:1052600088858483898585838B819C8197838683C8
:1052700010868A8587FF03C01686158603C0F8014D
:10528000B686A58680FF02C0F801808681FF04C033
:10529000F80190859260908782FF04C0F8019085A4
:1052A0009460908783FF04C0F80190859860908790
:1052B00084FF04C0F80190859061908785FF04C049
:1052C000F801808580628087015F1F4FFAE0EF0E52
:1052D000F11C8BE7E81683E0F80609F0A8CF2A96C0
:1052E000ECE00C949C36AAE0B0E0E9E7F9E20C941B
:1052F000843680E5E8EAF3E0DF011D928A95E9F75C
:1053000088E3EDE7F2E0DF011D928A95E9F788EA8C
:10531000C82E83E0D82E7F010BED12E0F701D18279
:10532000C0824AE050E0B801CE0101960E94EB3500
:1053300088E0FE013196D60101900D928A95E1F741
:1053400089859A85D70113969C938E931297BAE01C
:10535000CB0ED11CE7E0EE0EF11C065F1F4F0B32A7
:10536000F3E01F07D9F62A96E8E00C94A036AAE0ED
:10537000B0E0EDEBF9E20C948A369C0137552F3FF3
:10538000310509F050F4BE016F5F7F4F0E94042881
:10539000892B19F489859A8504C08091090290911E
:1053A0000A022A96E2E00C94A636E8E3F3E080E0F5
:1053B00090E06EE97AE245EC5AE222E13AE2778344
:1053C0006683518740873387228795878487019634
:1053D0003E968830910599F70895A5E0B0E0E3EF97
:1053E000F9E20C948A369093CB018093CA0181151F
:1053F00020E2920718F40E94A63410C080EF89833F
:105400008A831B820E9401198160782F9D838C837F
:1054100049815A816B818D810E9423322596E2E079
:105420000C94A6360F931F93CF93DF938C01EB015F
:105430006EE273E08C2F0E940428892B09F042C091
:1054400080910F02909110020E94A41CDD27CA5D7A
:10545000DC4F8881F80112821882833079F048F499
:10546000813041F1823071F58091300390913103A8
:1054700009C0843051F08530E9F024C080913203B6
:10548000909133030097B1F01BC080913403909149
:1054900035030097A9F420912E0330912F038091BA
:1054A0003003909131032115310541F0009741F40B
:1054B000C90106C080912E0390912F03009711F02F
:1054C0000E94ED29DF91CF911F910F910895A5E0E2
:1054D000B0E0EDE6FAE20C948A369093CB0180932B
:1054E000CA01811520E2920718F40E94C03411C04D
:1054F00080EF89838A8381E08B830E940119816018
:10550000782F9D838C8349815A816B818D810E9484
:1055100023322596E2E00C94A636CF93DF93EC017C
:105520000E94672A80910F02909110020E94A41C91
:10553000CE010E94ED29DF91CF9108950F931F9323
:10554000CF93DF938C01862F6EE273E00E940428D4
:10555000892BB1F4C0912E03D0912F03209781F0B5
:10556000F8018281833039F4CE010E948D2ACE0168
:105570000E948D2A02C0843018F0CE010E948D2A2C
:10558000DF91CF911F910F9108950F931F93CF93A8
:10559000DF938C01EB016EE273E08C2F0E940428F4
:1055A000892B09F067C0DD27F8018281813039F449
:1055B000958192FD13C090FF11C082E00FC0823030
:1055C00041F4F801858182FD06C080FD06C083E0BC
:1055D00005C086E003C085E001C084E0CA5DDC4F01
:1055E00088838330B1F028F4813071F0823031F05B
:1055F00041C08430A9F0853079F13CC080913003FE
:10560000909131030097A1F580912E0390912F0383
:1056100020C080913203909133030097E9F028C0B5
:105620008091340390913503009711F580912E03FA
:1056300090912F03009749F00E948D2A80913003AA
:1056400090913103009781F013C0809130039091C5
:105650003103009779F00CC080912E0390912F03B5
:10566000009741F00E948D2A80912E0390912F0384
:105670000E94672ADF91CF911F910F9108958115A4
:105680002CE5920759F48091830490918404892B2E
:1056900019F480E090E0089580E09CE5089586E2AA
:1056A00090E00E9409360895CF93C82F811102C05F
:1056B0006FEF01C066EC83E290E00E940936C111F1
:1056C00002C06FEF01C06BE684E290E00E940936F1
:1056D000C11102C06FEF01C065E785E290E00E9452
:1056E0000936CF91089580E00E94542B60E070E06D
:1056F000CB010E944F2B0E9440280E94E41D81E0B4
:105700000E94542B089583E290E00E94FB35863C72
:1057100081F484E290E00E94FB358B3651F485E2FF
:1057200090E00E94FB3591E0853709F090E0892FE9
:1057300001C080E0817008950E9401192091220328
:10574000211104C020912303222321F090931F03F1
:1057500080931E0320912403211104C0209125036E
:10576000222321F090931D0380931C03E091DC021F
:10577000F091DD02309749F082E0809320030480AD
:10578000F581E02D80E293E009950895803F39F49A
:105790008091230387FF6AC01092230367C0813F73
:1057A00029F4809123031816BCF360C09091220362
:1057B000823F29F497FF5AC01092220357C0833FBB
:1057C00019F41916CCF352C090912403893F31F497
:1057D00019160CF04BC01092240348C08A3F19F4EC
:1057E00097FF44C0F8CF8B3F39F48091250387FFA2
:1057F0003DC0109225033AC08C3F29F480912503C7
:105800001816BCF333C0843F21F4809121038E7FAE
:1058100017C0853F21F4809121038D7F11C0863F01
:1058200021F4809121038B7F0BC0873F21F480916D
:105830002103877F05C0883F31F4809121038F7E4B
:105840008093210313C08D3F21F480911B038E7F31
:105850000BC08E3F21F480911B038D7F05C08F3FCD
:1058600029F480911B038B7F80931B03809122037B
:10587000811106C080912303811102C010921A0386
:1058800080912403811106C080912503811102C0FB
:1058900010921903089580911B0380FF08C0609146
:1058A0000E0170E0759567957595679521C081FF2C
:1058B00006C060910E0170E07595679519C082FF72
:1058C00004C060910E0170E010C0909119039923FB
:1058D00099F060910D019617A0F780910E01899FB4
:1058E000C001112470E00E9459366038710540F4FF
:1058F0006115710519F406C061E070E0862F089506
:105900008FE7089581E0089580911B032091F901AC
:105910003091FA0180FF0CC080911201829FB0018A
:10592000839F700D112476956795769567952FC0A6
:1059300081FF0AC080911201829FB001839F700D88
:1059400011247695679523C082FF08C080911201CB
:10595000829FB001839F700D112419C040911A03DA
:10596000411102C0B90113C060911101461770F7CF
:1059700080911201849FA0011124429FC001439F86
:10598000900D529F900D112470E00E9445366038B2
:10599000710528F46115710521F0862F08958FE7B0
:1059A000089581E00895803F21F40E94842C819520
:1059B00004C0813F29F40E94842C8093230308951E
:1059C000823F21F40E94842C819504C0833F29F4F6
:1059D0000E94842C809322030895893F19F40E9429
:1059E0004B2C05C08A3F31F40E944B2C819580934B
:1059F000240308958B3F21F40E944B2C819504C011
:105A00008C3F29F40E944B2C809325030895843FFA
:105A100021F480912103816017C0853F21F480919A
:105A20002103826011C0863F21F4809121038460AC
:105A30000BC0873F21F480912103886005C0883F17
:105A400031F48091210380618093210308958D3F7B
:105A500021F480911B0381600BC08E3F21F4809163
:105A60001B03826005C08F3F29F480911B03846073
:105A700080931B03089580E008959091CE0192FFDA
:105A80000DC0282F2871283019F4877F846006C044
:105A9000282F2471243011F48B7F886093FF0DC070
:105AA000282F2871283119F4877E846106C0282F99
:105AB0002471243111F48B7E88612091CF0120FF65
:105AC0000DC0382F3871383019F4877F816006C0D7
:105AD000382F3171313011F48E7F886021FF0DC075
