:100000000C94DA030C9421040C9421040C94210424
:100010000C9421040C9421040C9421040C942104CC
:100020000C9421040C9421040C94DD270C94992742
:100030000C94D8280C9421040C9421040C942104D1
:100040000C9421040C9421040C9421040C9421049C
:100050000C9421040C94B4280C9421040C942104D5
:100060000C9421040C9421040C9421040C9421047C
:100070000C9421040C9421040C9421040C9421046C
:100080000C9421040C9421040C9421040C9421045C
:100090000C9421040C9421040C9421040C9421044C
:1000A0000C9421040C9421040C94210405010902F0
:1000B000A10185020901A100050919012905150001
:1000C00025019505750181029501750381010501E1
:1000D000093009311581257F950275088106093897
:1000E0001581257F950175088106050C0A380215D2
:1000F00081257F950175088106C0C005010980A191
:1001000001850319012AB700150126B7009501756D
:10011000108100C0050C0901A101850419012AA064
:1001200002150126A002950175108100C00660FF2E
:100130000961A1010962150026FF0095207508815B
:10014000020963150026FF00952075089102C0057D
:10015000010906A101050719E029E7150025019508
:1001600008750181029501750881010507190029AB
:10017000FF150026FF009506750881000508190186
:100180002905950575019102950175039101C0003E
:10019000000000000000000000000000000000005F
:1001A000000000000000000000000000000000004F
:1001B0000000007E0F00D4FFFFFFC70000007800A2
:1001C000000000000000002A2B28000000000000B2
:1001D0000000000000000000000029000000002CCA
:1001E0001E3420212224342627252E362D37382769
:1001F0001E1F202122232425263333362E37381F75
:100200000405060708090A0B0C0D0E0F1011121336
:100210001415161718191A1B1C1D2F3130232D35D4
:100220000405060708090A0B0C0D0E0F1011121316
:100230001415161718191A1B1C1D2F3130354CFDBB
:10024000377A585A000004E6D6B446020021011657
:10025000000000742FE5A3E0058401AB5D003D883C
:1002600089C65436C3174FE4E62BD649EDDCF2E4D9
:100270004148CBC76089AE55F0F000EB13F2BB9E4E
:10028000653F30B7AA080BE74CC5F42DA193F9459B
:100290002B4EE76529670D2A3FB7B33F60ECEA169E
:1002A0000E9DFFE39D6E21F5808DDBA35369512CDC
:1002B0005975D61C455F464B539F8B563A17ED50E8
:1002C000DE0BAA80B7BF756B25EB8E78EA2C46D57E
:1002D000D437B6E46FA4F45A66FD1C10D021E5674C
:1002E000933A0B7CF92D7982D97CDFE6F49C5A0095
:1002F000CFDF9ECDC3D1D043AE79B1562C5F5AF734
:10030000062BE33C8B16F2F38C5DFE1F87850BA357
:1003100096DA7700C5C944DE1D64AC5F959C5357DF
:100320005459598EE49BCA203C9D20527BEAA3334A
:10033000C4FF5E3D3C46639F22FE8C40D3156FF3A5
:100340005FB0EFC89049DD7C8E24B153B86DD88979
:1003500082E1F14C7AB83F76AD8FEDBF1666A97198
:1003600002911F7442F14D2F27295A94C8E394DA61
:10037000FB1453CF6AD302E8945FE92FA63AFB033C
:1003800083C00CCF8761347452F77F698E86E08416
:10039000407C494188D365AA73F9C52E2C24E83DD9
:1003A0000BF2FFDC62EA599819D89F27EFA459F3A2
:1003B000B50622C4106997ACA052FBD1D6B1652016
:1003C000297D09B226B4CCC8ABE6E1F6DE3831C2ED
:1003D00003A7FF961B82E0EC53B6F5AF9C9F3CA2AF
:1003E00083C49FA0DFFD816C0F7D20BBDCEE630E1C
:1003F000EA7FCF2324D9EA676F9AA68D55DD17359A
:10040000F9C801E1ACB3AADB000000981C66024009
:100410009227AE0001C703850B0000E929CA5EB12F
:10042000C467FB020000000004595AAA00A9000199
:10043000000100010001000100010029001E001F51
:100440000020002100220023002400250026002790
:10045000002D002E002A002B0014001A00080015A1
:100460000017001C0018000C00120013002F0030B1
:10047000003100390004001600070009000A000BD3
:10048000000D000E000F003300340028005200E180
:10049000001D001B000600190005001100100036A9
:1004A0000037003800E50050005100E000E3000193
:1004B00051A800E2002C0000002A004C000000E6D9
:1004C00000E700E4004F0035003A003B003C003DEF
:1004D000003E003F00400041004200430044004510
:1004E000002A002B001E001F0020002100220023F4
:1004F0000024002500260027002D002E004C003A85
:10050000003B003C003D003E003F004000410042F7
:10051000004300440045002800F000E10000000016
:100520000000000000000000000000360037003826
:1005300000E500F200F100E000E30000002900E225
:10054000002C0000002A00E60000006500E700E43F
:1005500000F30001000100010001000100010001A1
:100560000001000100010001000100010001000183
:100570000001000100010001000100010001000173
:100580000001000100010001000100010001000163
:100590000001000100010001000100010001000153
:1005A0000001000100010001000100010001000143
:1005B0000001000100010001000100010001000133
:1005C0000001000100010001000100010001000123
:1005D0000001000100010001000100010001000113
:1005E0000001000100010001000100010001000103
:1005F00000010001000100010001000100010001F3
:1006000000010001000100010001000100010001E2
:1006100000010001000100010001000100010001D2
:1006200000010001000100010001000100010001C2
:1006300000010001000100010001000100010001B2
:1006400000010001000100010001000100010001A2
:100650000001000100010001000100010001000192
:10066000000100010001000100010001000100186B
:10067000040000020002001404000003000100193D
:1006800004000004000200FE03B406050001001A85
:10069000040000060002000004000007000200162B
:1006A000040000080001001B040000090002000211
:1006B000048F060A00020004048F060B00020006E5
:1006C000048F060C00020008048F060D0002000AC9
:1006D000048F060E0002000C048F060F0002000EAD
:1006E000048F061000020010048F06110002001291
:1006F000048F06120002001C040000130002001EFA
:1007000004000009025B00030100A0FA09040000D4
:100710000103010100092111010001224000070528
:10072000810308000A0904010002030000000921F6
:1007300011010001222200070582032000010705A4
:100740000303200001090402000103000000092145
:10075000110100012281000705840320000A120113
:10076000000200000008EDFE00000100010203018C
:100770001C037600690061006C003A0066003600D8
:1007800034006300320062003300630000000E0397
:1007900073007000610063006500790000001003C1
:1007A000760061006E0069006C006C006100000062
:1007B0000403090411241FBECFEFDAE0DEBFCDBF72
:1007C00004B603FE27C080914B0490914C04A09185
:1007D0004D04B0914E048730904BA740B04BD1F4FC
:1007E00010924B0410924C0410924D0410924E043F
:1007F00014BE84B7877F84BF0FB6F894A895809104
:100800006000886180936000109260000FBEE0E09D
:10081000F8E3099511E0A0E0B1E0E4E3F2E602C0FC
:1008200005900D92A438B107D9F724E0A4E8B1E00F
:1008300001C01D92AB34B207E1F70E94FF280C946F
:10084000E6300C940000E8EDF0E080818E7F80833C
:100850001092E2001092DA001092E100A0EEB0E0F7
:100860008C9181608C9380818F77808319BCA7EDF8
:10087000B0E08C918E7F8C9380818F7E80831092EC
:10088000320408952091E4003091E50095E6A90135
:100890002091EC00822F817020FF06C08091E8003B
:1008A00080FF06C080E008952091E80022FD1AC074
:1008B00080914804882389F0853089F08091EB008D
:1008C00085FD0FC02091E4003091E50042175307E9
:1008D000F9F29150E1F684E0089582E0089583E012
:1008E000089581E00895EF92FF920F931F93CF93A5
:1008F0007C018B010E944204C82F811117C0809196
:10090000E80085FD0BC08091E8008E778093E800B9
:100910000E944204882399F3C82F08C0F7018191EF
:100920007F018093F1000150110949F78C2FCF917D
:100930001F910F91FF90EF900895CF93FC0180914C
:100940004804843001F5C091E900CF702091EC009B
:10095000922F917020FD90E8C92B82E08093E900EE
:100960008091E80080FF0CC050E040E060E270E061
:10097000CF010E9473048091E8008E778093E80095
:10098000CF70C093E900CF9108958091400487FF14
:1009900013C08091E80082FF06C08091E8008B7749
:1009A0008093E80004C0809148048111F2CF08953B
:1009B000809148048823D9F38091E80080FFF8CF24
:1009C0008091E8008E77ECCF982F9093E900242F48
:1009D000762F50E0891731F07091EC002091ED00F6
:1009E0005091F00021FD07C09F5F973071F7809311
:1009F000E90081E008953091EB003E7F3093EB00F9
:100A00003091ED003D7F3093ED003091EB0031608F
:100A10003093EB007093EC002093ED005093F000C6
:100A20002091EE0027FDE0CF80E00895CF92DF9285
:100A3000EF92FF920F931F93CF93DF93C8EDD0E017
:100A400088818F7E8883E7EDF0E0808181608083FC
:100A500084E082BF81E08093320488818E7F888326
:100A600002EE10E0F80110821092DA0081EEC82E3A
:100A7000D12CF601108288818F77888388818068E5
:100A8000888388818F7D888319BC109248041092D6
:100A90003F0410923E0410923D0490EEE92EF12C9A
:100AA000F70180818B7F808388818160888342E029
:100AB00060E080E00E94E404F60180818E7F808304
:100AC000F801808181608083808188608083F70164
:100AD00080818E7F8083888180618883DF91CF9140
:100AE0001F910F91FF90EF90DF90CF900895FC0140
:100AF000809146049091470486179707A0F06115EE
:100B0000710529F49091E8009E779093E80090E0B9
:100B10006115710551F4911108C08091E80082FFC0
:100B200034C080E00895BC01F2CF8091480488234E
:100B3000C1F18530C1F18091E80083FD30C0809122
:100B4000E80082FDEACF8091E80080FFE1CF80914C
:100B5000F3002091F200382F6115710519F028304B
:100B6000310558F091E02830310509F090E02091EE
:100B7000E8002E772093E800CBCF81918093F1009D
:100B8000615071092F5F3F4FE7CF80914804882360
:100B900041F0853041F08091E80083FFBECF81E0D5
:100BA000089582E0089583E00895809134040895C3
:100BB0009C014FB7F89480912B0490912C04A09144
:100BC0002D04B0912E044FBF821B930B08952FB7B5
:100BD000F89480912B0490912C04A0912D04B09155
:100BE0002E042FBF08959C01FC0132969FEF80E0F8
:100BF0004191461751F09F3F19F4411101C0982FC0
:100C00008F5F8630A9F79F3F09F40895290F311DA2
:100C100097FD3A95F9016283089520912804309157
:100C200029042817390771F0909329048093280428
:100C3000E0912604F0912704309721F00084F1859B
:100C4000E02D09940895209124043091250428175B
:100C5000390771F09093250480932404E0912604D1
:100C6000F0912704309721F00680F781E02D099458
:100C70000895E0912604F0912704309721F0019027
:100C8000F081E02D099480E00895452B39F0682328
:100C900081E06F3F09F080E08170089581E0FCCF32
:100CA000DC016091460380914703962F891301C0B0
:100CB0000895292F30E0F901EE0FFF1FE25CFC4F91
:100CC000408151814A175B07A1F487E08A9FA00108
:100CD0008B9F500D11244A5F5C4F81E0FA018483A1
:100CE0009613E6CF2F5F3F4F2370332720934603A1
:100CF00008952F5F3F4F922F9370D8CF1092A30289
:100D00001092A202E6E0F3E08581811102C0148214
:100D10001682379683E0EE33F807B1F70895EEEFC9
:100D2000F3E0848195812AE030E0B9010E943130FE
:100D30006093120186818093110182858093100156
:100D4000848580930F0186859785B9010E94313093
:100D500060930E01808980930D01828980930C013C
:100D6000848980930B0108958091FE039091FF0385
:100D7000909315018093140108950E94E7059C014A
:100D80009091330280913402982B21F030933002FD
:100D900020932F029091350280913602982B21F0FA
:100DA00030932E0220932D02E0912604F091270427
:100DB000309749F082E0809331020480F581E02D84
:100DC00081E392E00994089590913302803F59F4B1
:100DD0008091340287FF0DC01092340291110BC034
:100DE00010922B0208C0813F81F4809134021816C2
:100DF0009CF3992381F08091350290913602892BE2
:100E000009F064C010922A020895823F49F497FFC6
:100E1000F0CF10923302809134028111ECCFE0CFF9
:100E2000833F19F41916ACF3E4CF20913502893FC2
:100E300029F41216F4F610923502DBCF8A3F19F42A
:100E400027FFD7CFF8CF209136028B3F29F427FF19
:100E5000D0CF10923602CDCF8C3F19F41216CCF3BE
:100E6000C8CF843F31F4809132028E7F809332026A
:100E7000C0CF853F21F4809132028D7FF7CF863F2E
:100E800021F4809132028B7FF1CF873F21F4809152
:100E90003202877FEBCF883F21F4809132028F7E30
:100EA000E5CF8D3F31F480912C028E7F80932C0210
:100EB000A0CF8E3F21F480912C028D7FF7CF8F3F02
:100EC00009F097CF80912C028B7FF0CF089580910D
:100ED0002C0280FF0CC060910C0170E07595679545
:100EE000759567956115710549F1862F089581FF04
:100EF00006C060910C0170E075956795F3CF609125
:100F00000C0182FD0BC090912A029923A1F06091FF
:100F10000B0180910C01961738F0682F70E0603853
:100F2000710500F38FE70895899FC001112470E0D7
:100F30000E944530F4CF61E070E0D7CF81E00895A2
:100F400080912C02609106047091070480FF16C006
:100F500020911001269FC001279F900D1124BC01F4
:100F600076956795769567956038710508F043C06A
:100F70006115710509F441C0862F089581FF0BC0EA
:100F800020911001269FC001279F900D1124BC01C4
:100F900076956795E9CF82FF09C0809110019B018A
:100FA000829FB001839F700D1124DECF20912B0210
:100FB0002223D1F290910F0180911001482F50E02F
:100FC000291748F0CB01849FB001859F700D949F35
:100FD000700D1124C9CF289F90011124269FA001D4
:100FE000279F500D369F500D1124692F70E0CA01C4
:100FF0000E943130B9CF8FE7089581E00895803F96
:1010000031F40E94A0078195809334020895813FB6
:1010100019F40E94A007F8CF823F31F40E94A00784
:101020008195809333020895833F19F40E94A007AD
:10103000F8CF893F29F40E9467078093350208950D
:101040008A3F21F40E9467078195F7CF8B3F31F4E7
:101050000E94670781958093360208958C3F19F4AA
:101060000E946707F8CF843F31F48091320281609B
:10107000809332020895853F21F48091320282608C
:10108000F7CF863F21F4809132028460F1CF873F11
:1010900021F4809132028860EBCF883F21F4809167
:1010A00032028061E5CF8D3F31F480912C02816066
:1010B00080932C0208958E3F21F480912C0282604F
:1010C000F7CF8F3FB9F780912C028460F1CF80E099
:1010D0000895F894E82FE295EF70F0E031A1282F01
:1010E0002F7081E090E001C0880F2A95EAF7982FD1
:1010F0009095932391A392A1892B82A3789408952C
:101100009091010292FF06C0282F28712830F9F42F
:10111000877F846093FF06C0282F28712831F1F45F
:10112000877E84612091020220FF06C0382F38712B
:101130003830D9F4877F816021FF06C0282F2871BD
:101140002831D1F4877E816194FD877E0895282F10
:1011500024712430F9F68B7F8860DCCF282F24712E
:10116000243101F78B7E8861DDCF382F317131302A
:1011700019F78E7F8860E0CF282F2171213121F768
:101180008E7E8861E1CFCF93DF93EC0182389105A9
:10119000A9F1D8F58133910509F496C048F5893253
:1011A000910509F48AC08A9709F495C0C11521E513
:1011B000D20708F0BCC0C11530E5D30708F014C150
:1011C000C83ED10508F09CC0C03ED10560F5C83AC4
:1011D000D10508F087C0C53AD10508F0FDC0C1307F
:1011E000D10509F12097F9F0C430D105E0F440C0F1
:1011F0008533910509F45AC0C997C1F6809101025F
:10120000837089F0C0EED0E00EC0833E910599F165
:1012100070F4803E910501F1823E910539F680918E
:10122000010282FD21C0CE01DF91CF910895863E5B
:10123000910561F1873E910571F1843E910509F0B8
:10124000B5CF8091020281FFEECF80910102C7EEFF
:10125000D0E084FD0DC0E7CF8091010280FD12C176
:101260009091020290FFDFCFC3EED0E084FFDBCF8E
:10127000D0E0C0E0D8CF8091010282FD06C19091FC
:10128000020290FDBFCF84FFCECFF2CF809101024A
:1012900083FDDDCFC8CF8091010283FDF9C090911D
:1012A000020291FFF0CFC4EED0E0BDCF80910102E9
:1012B00085FFB9CFC9E2D0E0B6CF8091010285FFAA
:1012C000B2CFC5E3D0E0AFCF8091010286FFABCFB4
:1012D000CAE2D0E0A8CF8091010286FFA4CFC1E38B
:1012E000D0E0A1CFCF3BD10518F6C85AD0E0CC0F43
:1012F000DD1FCD5DDE4F0990D881C02DD46493CF22
:10130000C11540E2D40758F4C11581E0D80708F0B0
:101310008ACFC03FD10508F4ABCFD06584CFC115CB
:1013200090E4D90708F4A4CFDF70D06A7CCFC11550
:1013300025E5D20700F5C11534E5D30708F08AC0CA
:10134000C11543E5D40708F071C0C11582E5D8077F
:1013500008F467C0CE018370992721E030E002C015
:10136000220F331F8A95E2F7C695C69580E2C89F83
:10137000E001112452C0C11599E5D907A8F4C1159F
:1013800028E5D20708F06BC0C11536E5D30708F091
:101390006FCF8C2F0E948008C82FD0E0DC2FCC2785
:1013A000CC27DF71D0623FCFC1154AE5D40708F4DE
:1013B0005BC0CE0190568115904208F059CF8D2F19
:1013C0008F710E94800890E0982F882788279F714E
:1013D0009C012C2BE901E6CFC55AD0E0C05EDE4F60
:1013E000C881D0E0D0641FCFCE01E4E09695879508
:1013F000EA95E1F783702C2F26952695237040E21D
:10140000249F90011124382B8C2F8370C1E0D0E0F1
:1014100002C0CC0FDD1F8A95E2F7C22BD32BDC680C
:1014200002CFDC2FCC27C16FD06AFDCECE018370F6
:10143000992721E030E002C0220F331F8A95E2F79E
:10144000C695C69590E2C99FE0011124C22BD32B0B
:10145000DA68E9CEDC2FCC27C46FD06AE4CEDC2F6B
:10146000CC27C06FD06ADFCE8C2F8F700E9480088F
:1014700034E0D695C7953A95E1F7CF709C2FEC01F3
:10148000D069D1CEC9E3D0E0CECEC2EED0E0CBCE93
:10149000C6EED0E0C8CE8091FD01882331F01092D5
:1014A000FD011092FC011092FB010895809590912E
:1014B000FD0398239093FD030895809590914A032E
:1014C000982390934A0308951092F9011092F8011D
:1014D0001092F70108958091000490910104892BE6
:1014E00089F00E94E7052091FB013091FC01AC01DD
:1014F000421B530B81E020910004309101044217FC
:10150000530708F480E08170089580914A03909118
:10151000FD03892B9091FA01892B8093860180919C
:10152000FD01882309F18091000490910104892B29
:1015300029F00E946B0A81110E944B0A809186015A
:101540009091FD01892B8093860120E088E891E04D
:10155000FC013191CF0131112F5FF1E08E389F07EF
:10156000B9F721110E944B0AE0912604F09127045B
:10157000309731F00280F381E02D86E891E0099404
:101580000895EF92FF920F931F93CF93DF93EC0197
:101590008A85811134C0EB80FC8087E5F81A26E14A
:1015A0002E9DC0012F9D900D1124DC01A35BBC4F2B
:1015B0001496ED91FC911597309731F054966D91FA
:1015C0007C918D5A9C4F099586E18E9D80018F9D5F
:1015D000100D1124035B1C4FF80187810E945D0AE6
:1015E000F80180850E94560A0E94850A1882198691
:1015F0001B861E821D8210924C0310924B03DF91BA
:10160000CF911F910F91FF90EF900895CF93DF93AB
:10161000EC01898981111BC081E0898B80914A038B
:101620009F81892B80934A038091FD039885892BA4
:101630008093FD030E94850AEA81FB81309739F08F
:101640006C897D89CE010696DF91CF910994DF9157
:10165000CF9108958091F60181111092F6010895BD
:101660002091F5019091B401291302C080E0089502
:1016700030E0F90153E0EE0FFF1F5A95E1F7EB540C
:10168000FE4F5181561306C05081581303C052813A
:10169000541304C02F5F3F4F2770E6CF81E00895B9
:1016A0008091F5019091B401981301C008958F5F66
:1016B0008770FACF9E3F49F1E82F2EE0929FE00D10
:1016C00011249E2F9770E695E695E69583E0E89FB6
:1016D000F0011124EF56FE4F50E040E080E02191F0
:1016E00030E0092E02C0369527950A94E2F7217062
:1016F0003327042E01C0220F0A94EAF7822B4F5F92
:101700005F4F4330510559F7089580E008959E3F9B
:1017100069F1E82F2EE0929FE00D11248E2F877043
:1017200041E001C0440F8A95EAF7E695E695E69513
:1017300083E0E89FF0011124EF56FE4F30E020E0F7
:1017400070E05191DF011197CB01022E02C09695F6
:1017500087950A94E2F781708195852784238527F0
:101760008C932F5F3F4F2330310559F70895E92FB0
:10177000E295EF70E250EE3070F4F0E0E851FF4C8B
:101780000C945930803F19F020F4883E20F481E019
:101790000895843FE1F380E00895883EC0F3813FDF
:1017A000D1F7F5CF93FB882780F9089590E080E08A
:1017B0000E94230690E080E00E940D061092FD0337
:1017C0001092FA010E94850A86E0E1E3F2E0DF016F
:1017D0001D928A95E9F710922B0210922A0210921C
:1017E0002C020C94BD0680934A040C94D60B809175
:1017F0004A04982F9670963019F488600C94F30B75
:10180000877FFCCF21E030E001C0220F8A95EAF704
:10181000209580914A0482230C94F30B9091F90156
:10182000809589238093F901282F277039F4282F78
:10183000082E000C330B9217130621F4909102022C
:1018400092FF07C08595859585950E94020C0C94A2
:10185000640A089521E030E001C0220F8A95EAF77A
:1018600080914A04822B0C94F30B9091020292FD1A
:1018700010C098E0899F90011124622B6093F901B8
:101880000E942A0C0E94E7059093F8018093F701CB
:1018900008950C942A0C809349040C94D60B882349
:1018A00021F00E94560A0C94850A0895882339F085
:1018B0009091FD03982B9093FD030C94850A089555
:1018C000882321F00E945D0A0C94850A08958823DC
:1018D00039F090914A03982B90934A030C94850A0F
:1018E00008958823B1F19CEF980F913A70F4E8E8DD
:1018F000F1E09191891303C0DF0111971C9291E0EF
:10190000EE38F907B1F70C94850A90E2980F9830F9
:1019100050F4877091E001C0990F8A95EAF7892FFA
:101920000E945D0AF0CF9BE5980F933020F490E081
:1019300080E00C94230698E5980F973120F490E00E
:1019400080E00C940D06803F20F00E94E4060C9489
:10195000BD060895CF93C82F882309F456C08CEF95
:101960008C0F813AF8F4E8E8F1E08EE891E0DF01CD
:101970002D91C21759F08A179B07D1F76C2F86E873
:1019800091E00E94F305CF910C94850A2191C21336
:1019900003C0DF0111971C928E179F07B9F70E94B1
:1019A000850AECCF80E28C0F883068F4C77021E0A4
:1019B00030E001C0220FCA95EAF780914A03822BDA
:1019C00080934A03E0CFEBE5EC0FE33040F4F0E026
:1019D000E05EFE4F808190E0CF910C942306E8E515
:1019E000EC0FE73150F4F0E0EE0FFF1FED5DFE4F1E
:1019F00080819181CF910C940D06C03F30F08C2FE7
:101A00000E94FF07CF910C94BD06CF9108959C01D1
:101A10003A9521153F4150F5FC01EE27F170BC01CC
:101A200066277270AC01442754709C0122273870DD
:101A300094FF0EC080E1EF2B09F480E0672B09F0E2
:101A40008062452B09F08064232B89F0806808951B
:101A500081E0EF2B09F480E0672B09F08260452BD1
:101A600009F08460232B19F08860089580E00895C0
:101A700090914804943029F580932F047093310499
:101A8000609330049093E9008FEF9091E8008150CB
:101A900095FD06C095ED9A95F1F700008111F5CFFF
:101AA0008091E80085FF0DC050E040E063E070E009
:101AB0008FE294E00E9473048091E8008E77809317
:101AC000E8000895BC0184E00C94380DBC0183E06B
:101AD0000C94380D9C0184E08093E9009FEF809185
:101AE000E800915085FD06C085ED8A95F1F700006C
:101AF0009111F5CF8091E80085FF0CC050E040E0E7
:101B000066E070E0C9010E9473048091E8008E775E
:101B10008093E8000895CF93DF93EC0181E08093F8
:101B2000E9008FEF9091E800815095FD06C095ED9A
:101B30009A95F1F700008111F5CF8091E80085FFBB
:101B400014C050E040E068E070E0CE010E947304F1
:101B50008091E8008E778093E80088E0FE01A5E39D
:101B6000B4E001900D928A95E1F7DF91CF9108954D
:101B700081E08093E00080E28093D8001092C90059
:101B80008FE19EE40197F1F700C0000087E090EB41
:101B9000DC0180934B0490934C04A0934D04B093CC
:101BA0004E0488E19CE00FB6F894A89580936000FD
:101BB0000FBE90936000FFCF019708F40895EFE9FE
:101BC000FFE03197F1F700C00000F6CFFF920F93CE
:101BD0001F93CF93DF938C01EB01F42E80911601BC
:101BE00082FF43C08B7F8093160180912004209157
:101BF000220430912304AB01421B530B9A01409104
:101C000014015091150124173507A8F40E94AA0C5D
:101C1000809116018D7F8093160180911C04909114
:101C20001D040E94DC0D809120040E94710C82E052
:101C30000E94560A24C09091FD0392609093FD0388
:101C40000E94AA0C809116018260809316018091F7
:101C5000190485FFE2CF86FDE0CFFF20F1F2DF918E
:101C6000CF911F910F91FF900895802F0E94710CCA
:101C7000809120049091210480179107C1F20E9465
:101C8000850AD0932304C0932204E9CF1F93CF93F6
:101C9000DF93182FC0911E04D0911F04893321F0C7
:101CA000C0911C04D0911D04812F0E94AA0C209782
:101CB00031F4812FDF91CF911F910C94710C8FE93A
:101CC0009FE00197F1F700C000002197F0CF0F933C
:101CD0001F93CF93DF93C42FD22FFC0182818823DF
:101CE000A1F04093A1020E94E7059093A002809387
:101CF0009F02C77081E001C0880FCA95EAF7DF91A3
:101D0000CF911F910F910C94670C1091A1021413A5
:101D100039C080919F029091A0020E94D805209125
:101D20001604309117048217930760F5C0E2CD0FB7
:101D30001D17B9F080E2810F883040F4177081E000
:101D400001C0880F1A95EAF70E94600CC83048F469
:101D500081E09D2F977001C0880F9A95EAF70E9445
:101D6000670C802F0E94460EC83098F4D77081E02F
:101D700001C0880FDA95EAF7DF91CF911F910F919B
:101D80000C94600CC77081E001C0880FCA95EAF717
:101D9000F3CFDF91CF911F910F910895AF92BF9232
:101DA000CF92DF92EF92FF920F931F93CF93DF9327
:101DB000EC018AE0A82E2881222309F48CC021306E
:101DC000C9F599818A81913021F422960E94460EAC
:101DD00005C0923029F422960E94AA0C2196EBCFDE
:101DE000933021F422960E94710CF8CF943011F0B8
:101DF0002196F4CF229630E020E0AE014F5F5F4F96
:101E00008053990B8A30910550F02150310930F3FD
:101E10008FE99FE00197F1F700C00000F6CFA29E86
:101E2000B001A39E700D11249C01260F371F8981DC
:101E3000EA01E3CFE22FF0E0E154FE4FB490822FAD
:101E400086958695869590E0FC01E155FE4FE490DD
:101E50002770F12C022E02C0F594E7940A94E2F761
:101E600031E0E322FF24FC01E156FE4FC490D12C67
:101E7000022E02C0D594C7940A94E2F731E0C3223F
:101E8000DD24FC01E157FE4F049110E002C01595DE
:101E900007952A95E2F701701127E114F10419F072
:101EA00081EE0E94AA0CC114D10419F086EE0E94A2
:101EB000AA0C8B2D0E94460ECD2819F086EE0E94AA
:101EC000710CEF2819F081EE0E94710C012B09F4BE
:101ED00085CF8CE27BCFDF91CF911F910F91FF9047
:101EE000EF90DF90CF90BF90AF9008950F931F9326
:101EF000CF93DF930EEF13E0C7E6D2E0CE010E944E
:101F00009C30F80181938F012196C938F2E0DF07F8
:101F1000A9F7C1E7D6E0FE0185919491009711F0F1
:101F2000FC0109952896F7E0C930DF07A1F7DF919A
:101F3000CF911F910F9108950F931F93CF93DF932C
:101F4000843000F561111EC024E0829F80011124BD
:101F500050E0440F551F040F151F095A1D4FC801AB
:101F60000E949C30C82FD0E0DC2FCC27C8010196FE
:101F70000E949C309E01282BC901DF91CF911F91B7
:101F80000F91089590E080E0F8CF0F931F93CF93C7
:101F9000DF93843030F5653020F54E3010F5C42FD6
:101FA000D0E0CC0FDD1F2CE1629FC00DD11D1124AC
:101FB0003CE8839FC00DD11D1124CE0187960E945D
:101FC0009C30082F10E0102F0027CE0188960E9429
:101FD0009C309801282BC901DF91CF911F910F915F
:101FE000089590E080E0F8CF462F20919D02309137
:101FF0009E02232B91F47E3F39F46E3F71F4809161
:102000009B0290919C020895843038F4753028F436
:102010006E3018F4672F0C94C50F90E080E008959F
:10202000CF92DF92FF920F931F93CF93DF936C01B8
:1020300000914A0480914904082BC7E0D0E010E0E9
:10204000FC2EC8010C2E02C0959587950A94E2F7E4
:1020500080FD0CC02197A0F7F12C8F2DDF91CF913F
:102060001F910F91FF90DF90CF900895B6018C2FB4
:102070000E94F40F0E94C308019761F3EECFCF9343
:10208000DF93EC010E941010BE010E94F40FDF915B
:10209000CF910C94C308FC0186819781009721F0B1
:1020A0000E94C3080C94B70B808191810E943F105D
:1020B000F9CF1F93CF93DF9300D000D00F92CDB70D
:1020C000DEB749835A8389819A816623B9F0222336
:1020D000A9F00E941010182F682F89819A810E9400
:1020E000870B69817A81812F0F900F900F900F904D
:1020F0000F90DF91CF911F910C94F40F0E945A0B17
:10210000182FEFCFFC01262F86819781009739F495
:10211000408151816281738184810C9459100895AA
:1021200083E290E00E949C30813D89F484E290E05B
:102130000E949C308E3659F485E290E00E949C30DB
:1021400091E08A3A09F090E0892F8170089580E04B
:10215000FCCFCF9384E090E00E949C30C82F82E2B5
:1021600090E00E949C30982F8C2FCF9108950F9370
:102170001F93CF93DF930EEF13E0C7E6D2E0CE01BB
:102180000E949C30F80161918F01681719F0CE010F
:102190000E94AA302196C938F2E0DF0781F7DF916B
:1021A000CF911F910F910895EEEFF3E0128E138EF1
:1021B0008FEA90E09183808385E0848F88E893E1C3
:1021C000938382834CE251E05583448322E330E0E1
:1021D0003783268385E090E0918780878AE090E0CE
:1021E0009387828764E170E07587648757874687A5
:1021F00044E650E0518B408B48E050E0538B428BDB
:1022000048E250E0558B448B378B268B28EC30E02E
:10221000318F208F158E978F868F80E590E091A368
:1022200080A30E94B7100C94760FCF93DF93C9E27E
:10223000D3E060E0CE010E94AA302196C11584E06F
:10224000D807B9F7DF91CF9108950F931F93CF93DC
:10225000DF938901843028F5611123C0423008F5ED
:1022600021153C4531F42091990230919A02232B9B
:10227000C1F094E0899FE001112450E0440F551F04
:10228000C40FD51FC95ADD4F612FCE010E94AA305D
:10229000602FCE010196DF91CF911F910F910C9489
:1022A000AA30DF91CF911F910F9108950F931F9343
:1022B000CF93DF938901843048F5653038F54E308F
:1022C00028F521153C4531F42091990230919A026C
:1022D000232BE1F0C42FD0E0CC0FDD1F9CE1699FE0
:1022E000C00DD11D11249CE8899FC00DD11D112462
:1022F000612FCE0187960E94AA30602FCE0188966A
:10230000DF91CF911F910F910C94AA30DF91CF9163
:102310001F910F910895CF93C82F6FEF811161ED39
:1023200083E290E00E94AA306FEFC1116EE684E272
:1023300090E00E94AA306FEFC1116AEA85E290E056
:10234000CF910C94AA30CF93C0910202C2FB99277F
:1023500090F9981781F080FBC2F9C0930202609156
:10236000010284E090E00E94AA306C2F82E290E0AB
:10237000CF910C94AA30CF9108955F926F927F9283
:102380008F929F92AF92BF92CF92DF92EF92FF9285
:102390000F931F93CF93DF93CDB7DEB764970FB63C
:1023A000F894DEBF0FBECDBFC0909902D0909A02C4
:1023B00081E090E090939A02809399028BE2E82E5C
:1023C00084E0F82E9BE3A92E94E0B92E10E045019D
:1023D00000E015C0F30125913491452D602F812F28
:1023E0000E94561182E0680E711C5394EEE05E125A
:1023F000F1CFFCE18F0E911C0F5F053019F0340115
:10240000512CE8CFF7012591349140E060E0812F15
:102410000E942511F70132962591349141E060E048
:10242000812F0E94251184E0E80EF11C1F5FECE86B
:10243000AE0EB11C143009F0CACF0E94D4101A821B
:1024400019821C821B821E821D8218861F8288ECC4
:1024500090E09A87898709E812E04AE050E0B801E5
:10246000CE0101960E94CE30065F1F4F093DF2E07B
:102470001F0799F77E018BE0E80EF11C8AE0F70157
:1024800011928A95E9F74AE050E0B801C7010E942D
:10249000CE30065F1F4F0932F3E01F07A1F7D0923D
:1024A0009A02C092990264960FB6F894DEBF0FBEEE
:1024B000CDBFDF91CF911F910F91FF90EF90DF90F3
:1024C000CF90BF90AF909F908F907F906F905F90D4
:1024D000089580E00E948B1160E086E290E00E9407
:1024E000AA300E94BD110E94151181E00C948B113D
:1024F0009B01883070F49AE0899FB00111246757DE
:102500007D4F4AE050E0C9010E948C3090E080E0AD
:1025100008958FEF9FEF08958F929F92AF92BF9291
:10252000CF92DF92EF92FF920F931F93CF93DF939F
:10253000CDB7DEB72A970FB6F894DEBF0FBECDBF7A
:102540000DE413E0F12CE12C83EFC82E86E2D82EA7
:102550009DE1A92E97E2B92E22EF822E25E2922E3E
:10256000F801D182C082B382A28295828482F58AE8
:10257000E48ABE016F5F7F4F8E2D0E947812892BF7
:1025800029F489859A85F801938B828BFFEFEF1AE6
:10259000FF0A0A5E1F4F88E0E816F10409F72A9641
:1025A0000FB6F894DEBF0FBECDBFDF91CF911F9164
:1025B0000F91FF90EF90DF90CF90BF90AF909F90E2
:1025C0008F900895CF92DF92EF92FF920F931F9317
:1025D000CF93DF93CDB7DEB72A970FB6F894DEBF5F
:1025E0000FBECDBFE9E4F2E080E5DF011D928A95E0
:1025F000E9F7E6E0F3E088E3DF011D928A95E9F769
:1026000089E4C82E82E0D82E7F0109ED12E0F7019F
:10261000D182C0824AE050E0B801CE0101960E940A
:102620008C3088E0FE013196D60101900D928A959A
:10263000E1F789859A85D70113969C938E9312971B
:10264000BAE0CB0ED11CE7E0EE0EF11C065F1F4F87
:102650000932F3E01F07D9F62A960FB6F894DEBFC9
:102660000FBECDBFDF91CF911F910F91FF90EF90E3
:10267000DF90CF90089510924A03E8E8F1E086E0F9
:10268000DF011D928A95E9F70C94D60B1F93CF9327
:10269000DF93CDB7DEB7AA970FB6F894DEBF0FBEB3
:1026A000CDBF80E494E02091F100DC012D93CD01B9
:1026B000B4E088349B07B9F780914104833009F472
:1026C00071C0B8F4813009F448C0823009F4B2C056
:1026D0008091E80083FF3AC18091400490914104C9
:1026E0009A3008F033C1E92FF0E0EA50FF4C0C9427
:1026F00059308A3009F48DC08B3009F470C08930AC
:1027000039F780914004813219F780914404909107
:102710004504009711F00297D9F68091E800877F71
:102720008093E8008091E80082FF37C09091F30029
:102730008091F200029729F48091F1008B7F813023
:1027400021F48091F100809334048091E8008B772C
:102750008093E8000E94C504BBCF80914004813A79
:1027600009F0B6CF8091E800877F8093E8008091E0
:10277000440490914504892B61F468E085E394E07A
:1027800070E00E9477058091E8008B778093E800E5
:102790009FCF60E090E080E0F3CF8091480481110A
:1027A000C1CF96CF80914004813A09F091CF8091BA
:1027B000440490914504892B09F08ACF8091E80068
:1027C000877F8093E8008091E80080FFFCCF8091B4
:1027D00017018093F1008091E8008E77B9CF809146
:1027E0004004813209F074CF8091440490914504F3
:1027F000892B09F06DCF8091E800877F8093E800F6
:102800000E94C50480914204809317010E943B13EB
:102810005FCF80914004813209F05ACF8091E80067
:10282000877F8093E8000E94C504809143048093D1
:1028300033044ECF80914004813A09F049CF809112
:10284000E800877F8093E8008091E80080FFFCCF5C
:1028500080913304BECF803899F0823809F076C079
:10286000809144048F70873008F070C08093E90035
:102870008091EB0085FB882780F91092E90006C063
:1028800080913D0490913E04911182609091E80006
:10289000977F9093E8008093F1001092F10080916F
:1028A000E8008E77C0C1882309F4ADC1823009F0F9
:1028B0004DC0809142048111B1C1809144048F7058
:1028C0002FEF280F263008F041C08093E9002091B7
:1028D000EB0020FFA3C1933031F48091EB008062C4
:1028E0008093EB009BC19091EB0090619093EB0083
:1028F00021E030E001C0220F8A95EAF72093EA0038
:102900001092EA008091EB008860EACF81111EC02E
:10291000109142041F778091E3008078812B80938F
:10292000E3008091E800877F8093E8000E94C5045F
:102930008091E80080FFFCCF8091E3008068809365
:10294000E30082E0111183E0809348048091E80065
:1029500083FF0AC08091E800877F8093E800809120
:10296000EB0080628093EB00AA960FB6F894DEBF6E
:102970000FBECDBFDF91CF911F9108958058823057
:1029800028F720914204309143042C3DE3E03E07B8
:10299000A1F583E08A838AE289834FB7F894DE0148
:1029A000139620E03EE051E2E32FF0E05093570011
:1029B000E49120FF03C0E295EF703F5FEF708E2F30
:1029C00090E0EA30C0F0C7968D939D932F5F24313D
:1029D00059F74FBF8091E800877F8093E8006AE253
:1029E00070E0CE0101960E9477058091E8008B7718
:1029F0008093E800ABCFC096E7CF809144049091DC
:102A00004504432F55274330510509F44AC078F552
:102A10004130510509F485C08BE590E0E3E0F7E033
:102A20004230510509F092CF2091E800277F209392
:102A3000E80020914604309147048217930708F478
:102A40009C0140E02115310509F070C041116EC0B4
:102A50008091E80082FDC9CF80914804882329F243
:102A6000853019F28091E80083FFF2CFBECF41326A
:102A7000510509F447C04232510509F067CF833050
:102A8000910508F063CFFC01EE0FFF1FE958FE4FE0
:102A90000190F081E02D8C589E4FDC018C9190E0EC
:102AA0001DC0332721303105E9F02115310579F0BA
:102AB00022303105F9F02330310509F047CFE0E746
:102AC000F7E0E4918E2F90E0E0E7F7E007C0E0EB5D
:102AD000F7E0E4918E2F90E0E0EBF7E0009709F447
:102AE00035CFA2CFEEE9F7E0E4918E2F90E0EEE94A
:102AF000F7E0F4CFEEE8F7E0E4918E2F90E0EEE817
:102B0000F7E0ECCF8330910508F020CF880F991FB4
:102B1000FC01E358FE4F0190F081E02D89E090E048
:102B200083CF82E190E0EEE5F7E07ECF809148042C
:102B3000882309F45ACF853009F457CF8091E800F3
:102B400083FD53CF8091E80082FD82CF8091E80021
:102B500080FF78CF9091F3008091F200211531052C
:102B600019F08830910550F041E0089709F040E0F5
:102B70008091E8008E778093E80064CF4491409381
:102B8000F1003196215031090196E8CF803809F0E3
:102B9000DDCE8091E800877F8093E80080913F043C
:102BA0008093F1007CCE8111D1CE1091420412307D
:102BB00008F0CCCE8091E800877F8093E8001093E6
:102BC0003F040E94C504112311F084E005C08091E8
:102BD000E30087FDFACF81E08093480442E061EC96
:102BE00081E00E94E40442E261EC84E00E94E4049B
:102BF00042E261EC82E00E94E40442E260EC83E0A5
:102C00000E94E404A3CE80914204813009F09ECE5C
:102C100081E0933009F080E080933E041092E90057
:102C20008091E800877F8093E8000E94C5048ECEE3
:102C30006AEE7EEF90E080E00E94C83060E082E0C3
:102C400090E00E94AA3060E083E090E00E94AA3009
:102C50001092490460E084E090E00E94AA3060E0B5
:102C600082E290E00E94AA3060E085E090E00E945D
:102C7000AA3060E086E090E00E94AA306FEF87E023
:102C800090E00E94AA3040E050E0BA0188E090E075
:102C90000E94BC3060E08DE090E00E94AA3040E0ED
:102CA00050E0BA0188E190E00E94BC3060E087E12A
:102CB00090E00E94AA3040E050E0BA018CE190E040
:102CC0000E94BC3070E060E080E290E00E94C8307A
:102CD00040E050E0BA0188E190E00E94BC3080E022
:102CE0000E948B110E94691240E050E0BA018FE00F
:102CF00090E00E94BC3040E050E0BA0183E190E0F7
:102D00000C94BC308F929F92AF92BF92CF92DF9281
:102D1000EF92FF920F931F93CF93DF9300D000D0D9
:102D2000CDB7DEB77C01DC0113964D915C91149711
:102D300011966C9111978C910E944506811174C077
:102D400061E0C7010E9482108C01F701828181112C
:102D500011C0D70112968C91811148C00031FFE556
:102D60001F0709F4E8C001312FE5120709F012C668
:102D700082E0E2C0809100018F3F59F35DE4C52EEF
:102D800053E0D52EB12CA12C99249394809100016D
:102D9000082E000C990B8A159B05DCF2F601868142
:102DA0008823E9F0818592850817190739F4809105
:102DB0004B0390914C030817190789F0D6011F9611
:102DC0009C921F971C961C930E931B97C6010E9402
:102DD000060BC60106960E94C10A1092FD03BFEFC2
:102DE000AB1ABB0AE6E1CE0ED11CD0CF980122511E
:102DF0003F452031310508F0C3C58FEF93E00E94B5
:102E00009C304EEED42ED00E09E213E0882349F117
:102E10008091F901877041F0D70112968C91882337
:102E200019F082E00E940E0C0F900F900F900F90FF
:102E3000DF91CF911F910F91FF90EF90DF90CF9096
:102E4000BF90AF909F908F9008950115F4E01F07F9
:102E5000F9F2C8010E949C30811101C0DA940F5F21
:102E60001F4FD110F2CF19821A821B821C82CC24F0
:102E7000CA9448012FEF821A920AC8010E949C301E
:102E800089831A82882321F2813009F048C05801D1
:102E900032E0A30EB11CC4010E949C30982E8A839C
:102EA000882309F4B5CFC5010E949C30D82E8FEF3E
:102EB000890D833068F4580143E0A40EB11CDB8215
:102EC000DD2021F0CE0101960E94CE0E8501D1CFEA
:102ED00054E09512FBCF580184E0A80EB11CC80144
:102EE00003960E949C30DD2009F492CF882309F4D8
:102EF0008FCF8150990BC89E9001C99E300D11242F
:102F0000AD2DA150BB0BCD01820F931F0197F0F2A5
:102F1000EFE9FFE03197F1F700C00000F7CFCE01F5
:102F200001960E94CE0E5401D1CF81E00E942A0C5E
:102F30000E94F70B6DCF81E00E94020CF9CF82E076
:102F4000F5CF4FEFC416D10411F008F02FC56FE391
:102F500072E08C2D0E947812892B29F586E18C9DD8
:102F6000F0018D9DF00D1124E35BFC4F86818130D3
:102F700009F061C080913F0290914002892B99F045
:102F80008091410290914202892B69F08091430225
:102F9000909144022091450230914602822B932B5E
:102FA000892B09F452C080910001082E000C990B66
:102FB0008C159D0514F4C0920001F701828196E101
:102FC0009C9D50019D9DB00C11249501235B3C4FAD
:102FD0006901D90150968C935097928116968C91E5
:102FE0001697992309F43FC01A961C930E931997CC
:102FF0008F5F16968C930E94E705F601968785876A
:103000008091FD0187838091FD0390914A03892B74
:1030100080870190F081E02D309741F0D6015496E1
:103020006D917C91C5018D5A9C4F099510934C036D
:1030300000934B03BBC4823009F0B5CF80914302AB
:1030400090914402892B09F4AECF26E12C9DC0015A
:103050002D9D900D1124835B9C4FDC0150961C929A
:103060000E94060BA0CF882309F4A0C4F90181892E
:10307000882309F49BC4C5018D5A9C4F0E94C10A44
:1030800095C480911601816080931601F701328109
:10309000332309F4E4C41092A1020230FCE51F07B7
:1030A00008F411C506312CE5120730F0C8018A5F1B
:1030B0009C45099708F007C50E94A9109093020249
:1030C0008093010200313CE5130709F473C108F055
:1030D00006C108305CE5150709F462C108F0D5C0E7
:1030E00004309CE5190709F453C108F0BBC0023055
:1030F000BCE51B0709F446C18091010282600330E0
:103100001C4509F442C1609101021091020284E061
:1031100090E00E94AA30612F82E290E00E94AA30E3
:103120000E943B1375CE809116018E7F809316010D
:1031300082E00E94560AAACF0933110560F40D32CD
:10314000110520F40B32110509F06AC480911904AD
:1031500082FD66C408C004361105C1F361C48091C4
:10316000190484FD5DC4D70112968C91882309F45B
:1031700045C08091160180FF53C49091190491FDC0
:1031800004C020914A0321114BC495FF26C096FD2F
:1031900002C081FD22C02091220430912304F60157
:1031A000E21BF30BE83CF105C0F4209120043091C0
:1031B00021040217130789F481FD09C0802F0E94A2
:1031C000AA0C26CE8091190483FD2AC4CCCF80910D
:1031D000FD0382608093FD03F1CF109321040093DF
:1031E0002004D0922304C0922204809116018460AE
:1031F0008093160182E00E940E0C0ACE40E0B601D8
:10320000C8010E94E60D04CE053F8CE51807F1F0D9
:10321000B8F0063FACE51A0709F038CF07E225EE13
:1032200046EE66EF7CE517C407E225EE45EE68ED55
:103230007CE511C406E221EE40EE63EF7CE50BC4B1
:1032400007E225EE44EE64EF7CE505C406E221EEDC
:1032500042EE65EF7CE5FFC308E221E045EE69ED53
:103260007CE5F9C38091010280610630FCE51F070F
:1032700009F48BC080910102886007301C4508F476
:1032800084C080910102806280C0809101028D7FA4
:103290000C303CE5130709F478C070F4809101020A
:1032A0008C600A305CE5150709F46FC008F47CC037
:1032B000809101028E7F69C080910102877F0E306C
:1032C0009CE5190709F461C0809101028B7F0F30E2
:1032D0001C4508F45AC0809101028F7E56C00B3FF6
:1032E000BCE51B0709F458C030F50331FCE51F07A6
:1032F00009F468C078F401313CE5130709F45EC0B5
:1033000002311C4509F0FFCE0E943B13809101025F
:103310008F773BC005315CE5150709F45BC008F405
:103320006FC08091020281600A3F1C4509F0EBCE1C
:1033300080930202E8CE0F3FACE51A0709F446C0BD
:1033400088F4809102028D7F0D3FECE51E0781F32A
:10335000809102028E7F0E3F1C4550F38091020245
:103360008360E6CF01302DE5120709F452C0F0F179
:1033700060E002301D4509F0C6CE8EE090E00E946C
:10338000AA30C1CE80910102816080930102BBCE40
:10339000809101028460F9CF809102028260C8CFDF
:1033A000809101028064F1CF0E943B138091010261
:1033B0008068EBCF809101028F7DE7CF8091010281
:1033C0008F7BE3CF80910102837FDFCF8091020268
:1033D0008C7FAECF8091010282FB992790F921E08A
:1033E000922790FB82F990FB83F9CFCF8091020264
:1033F000982F909591708E7F892B90FB81F998CFB3
:103400000E943B1390910102892F97FB87F9805806
:10341000BCCF61E0B2CF80918E0181110FC089E2F3
:10342000E8E8F1E02EE831E09191891303C0DF0173
:1034300011971C922E173F07B9F742C385E3F0CFCF
:103440000B35BDE51B0701F10C351D4509F04FC3D8
:103450008091020282FB882780F991E089270E94EF
:10346000A31145C30E943B13FFEF24E33CE0F1505E
:1034700020403040E1F700C000000E94B80D0E94DB
:103480001816C6CC81E0EBCF80E0E9CF82810081C5
:103490001181882369F0C8010E941010D82E682F6E
:1034A000C8010E94870BB8018D2D0E94F40F25C31F
:1034B000C8010E945A0BD82EF6CF202F2F70B22EA3
:1034C000802F807F19F0B29490EFB922CC20C9F000
:1034D000BB2069F080E2810F883010F011110BC021
:1034E00080914A03B82AB0924A030E94850A812F2C
:1034F0000E94AA0C16C08091FD03B82AB092FD0369
:10350000F4CF812F0E94710CBB2059F080E2810F13
:10351000883010F0111133C08B2D0E945D0A0E947B
:10352000850AA92DA850BB0B149710F40E943906E8
:10353000812F902F0E94B70B811103C2109290012E
:1035400010928F01AA20B1F08091F90180FD12C084
:10355000D70112961C928595859585950E942A0C17
:10356000C7010E9482168091F90185958595859500
:103570000E94020C60E0C7010E94821055CC8B2D86
:103580000E94560ACCCF302F3F70B32E802F807F01
:10359000803219F0B29480EFB822112321F111305A
:1035A00009F46DC0CC2009F476C0DD2009F448C0D0
:1035B00020E0D7014C9111965C91119712966C9175
:1035C000129713967C91139714968C910E94591020
:1035D00080911B0481FD8BCFF701858180FF87CF10
:1035E0008F7085832DC0CC2069F1D11006C08091E9
:1035F000FD018B290E94670C94CF41E0D41213C0C7
:103600008091020282FD8DCF8091FD01B82AB8160B
:1036100009F487CF0E94E7059093FC018093FB019A
:10362000B092FD017ECF80911A04823000F3D8124F
:10363000DECF0E944B0A8091F601B812B092F601DB
:103640008B2DD8CFD11006C00E944B0A8B2D0E9423
:10365000600C67CF80911A0451E0D5120BC0823004
:1036600008F45FCF80914A038B2109F45ACF0E945E
:103670002A0BEACF823040F3D812E6CF52CFCC20CB
:1036800029F085E08D1508F44CCFDACF94E09D1534
:1036900008F447CFDBCFDD20C9F280911E04909162
:1036A0001F04193321F080911C0490911D040E9485
:1036B000DC0D812F0E94710C34CF802F869586956A
:1036C000837069F0813009F02CCF812F902F937097
:1036D000C11002C090E080E00E940D0622CF812F31
:1036E000902F9370C11002C090E080E00E942306EA
:1036F00018CF812FCC2039F00E94FF070E94BD0611
:103700000E94BD060ECF0E94E406FACF802F837080
:1037100091F5C11006CF412F429546954770440F51
:10372000440F812F8F70042E01C0880F0A94EAF78E
:10373000212F207114FF07C02FE030E001C0220FBD
:103740004A95EAF72095302F36953695337032300A
:1037500069F050F440914904313029F0822B8423E0
:103760000E944B0CDECE842B822BFACF282B80912B
:1037700049048227F5CF8695CC2011F0802F8170E7
:10378000882309F4CECE412F429546954770440FC9
:10379000440F812F8F70042E01C0880F0A94EAF71E
:1037A000212F207114FF07C02FE030E001C0220F4D
:1037B0004A95EAF72095302F36953695337032309A
:1037C00069F050F440914A04313029F0822B84236F
:1037D0000E94F30BA6CE842B822BFACF282B80914C
:1037E0004A048227F5CFF02FFF70BF2ECC2029F09E
:1037F0008F2F0E942A0C812FFDCE812F0E94600CFA
:103800008B2D0E94020C8DCE123F09F44AC060F449
:10381000103F41F1113FE9F1CC2009F48DC0D110E6
:1038200066CE802F8F713AC0133F09F43FC0143F1A
:1038300099F720911A04223008F466C08091F601AD
:10384000CC2009F44EC00E945D0A8091F901877076
:103850008430C1F50E94640A802F8F710E94020C8F
:10386000A12C5FCECC2081F024E02D1508F459CE98
:10387000202F2F7181E090E001C0880F2A95EAF790
:1038800090914A048927A4CF35E03D1508F449CE2C
:10389000EFCF802F8F71CC2009F4B3CF0E942A0C78
:1038A00040CE802F8F71CC20C9F3ABCF80E0CC20ED
:1038B00009F48ECF81E0902F9F7101C0880F9A95F7
:1038C000EAF786CF80911A04D81650F6402F4F7130
:1038D000B42E842F0E942A0C63E08B2D0E94350C9D
:1038E000BFCF90914A03982B90934A03D21640F091
:1038F0000E94640A0E942A0B64E0802F8F71EECF31
:1039000081E00E940E0CACCFCC2059F0502F5F719B
:10391000B52E852F0E942A0C63E08B2D0E94350C5A
:1039200000CE81E00E940E0C81E08D1508F0F9CDEB
:1039300082E00E940E0CF5CDD110AFCE802F8F719A
:1039400060CFCC2019F0D110F9CDFCCDD110F6CD3F
:1039500020E0F701408151816281738184810E945E
:10396000591080911B0483FFE9CD80918F019091C4
:103970009001029709F0E2CD812F0E94460EDECD24
:103980000031BFE51B0709F4D0CA0131EFE51E077E
:1039900009F4D5CA680127E5D21A882309F4D1CAE7
:1039A0003FEFC316D10409F008F4FDCA8091190451
:1039B00080FF36C00E94E7056C01D70112968C91FA
:1039C000882311F18091160182FF06C040E0B60104
:1039D00090E080E00E94E60D82E00E94560A0B31E2
:1039E000BCE51B0709F44DCB0C31ECE51E0709F4CF
:1039F0009ACB90911601892F8E7F90FF81600A31BA
:103A0000FCE51F0709F492CB0832110508F094CBAE
:103A10000E31110508F0D6CB0430110508F09FCB0C
:103A2000033FFCE51F0709F405CC08F0EDCB083D8A
:103A30003CE5130709F4F8CB093D4CE5140709F4FC
:103A40000BCC073D5CE5150709F020CB06E221EE23
:103A500041EE67ED7CE5C7010E94670ED9C90631CA
:103A60001C4509F044C080914A03982F9A7A20910E
:103A7000180420FF04C0482F447409F090E021FF8F
:103A800004C0482F417109F090E022FF04C0482F84
:103A9000487809F090E023FF03C0827209F090E0BB
:103AA000332309F4B8CC81E0911101C080E0809308
:103AB0008E0169E2911165E386E891E00E94F305C9
:103AC0000E94850AA5C906315CE5150761F20A3531
:103AD0005DE5150709F4D6CC08F0B2CC01159CE5DC
:103AE000190709F4BFCC0E3D1C4509F4C8CCF701F9
:103AF00086819781009709F4C9CC0E94C308182FCA
:103B0000092FF701C280D580D2943FE0D322809163
:103B1000F9018770A1F0AC2CCC2091F0892F807F27
:103B2000803421F080E2810F883048F082E00E94EA
:103B30000E0C8091F9018770AA24A3948111A12C05
:103B4000902E92942FE09222FBE0F91508F4E9CC34
:103B5000E92DF0E0E050FF4C0C945930CF92DF9209
:103B6000EF92FF920F931F93CF93DF938091B10158
:103B7000807F31F48091AE01C091F50181110BC0BD
:103B8000DF91CF911F910F91FF90EF90DF90CF9039
:103B900008952196C7708091B4018C1789F3F09035
:103BA000AC01E090AD01C090AF01D090B001A60192
:103BB0006E2D8F2D0E944506D0E08111EACF8E0137
:103BC00083E0000F111F8A95E1F7F801EB54FE4FD7
:103BD00081818E11DECF80818F11DBCF82818111B7
:103BE000D8CFE380F480EC18FD0860E08CEA91E027
:103BF0000E9482108091160490911704E816F9062D
:103C000040F68091B1018F7080618093B101F8011D
:103C1000E654FE4F80818F70806180838CEA91E052
:103C20000E948216DF91CF911F910F91FF90EF902C
:103C3000DF90CF900C94500B5F926F927F928F9297
:103C40009F92AF92BF92CF92DF92EF92FF920F932B
:103C50001F93CF93DF93CDB7DEB765970FB6F89478
:103C6000DEBF0FBECDBF8C0185E0F801DE015196AD
:103C700001900D928A95E1F7D8011296EC908CEAAA
:103C8000A82E81E0B82E8090AF019090B001A401E1
:103C90006091AD018091AC010E9445068111EAC19D
:103CA000F801C380D480F090AE01C601881999094B
:103CB0004C01FF2009F47AC15080618060E0C501A9
:103CC0000E94821080911604909117047090B101A7
:103CD0008816990608F01DC14091AF015091B001BE
:103CE000B090AC01A090AD01872D807F6A2D09F0C6
:103CF000B7C08B2D0E944506FE2C811139C0D8011A
:103D000011968C9111978A1133C08C918B1130C010
:103D10002091B2013091B30116968D919C91281794
:103D2000390731F5E11024C0872D8F7080618093B1
:103D3000B1018CEA91E00E9482168091B101F801F4
:103D400085838F2D65960FB6F894DEBF0FBECDBF6D
:103D5000DF91CF911F910F91FF90EF90DF90CF9067
:103D6000BF90AF909F908F907F906F905F900895DD
:103D700060E08CEA91E00E9482108091160490919C
:103D80001704843F9140F8F0A601662D852D0E940E
:103D9000450681114CC081E08E2580FF1DC04E2D4F
:103DA000662D852D0E94300B8823B1F08CEA91E0BE
:103DB0000E94821688E0ECEAF1E0DF011D928A950C
:103DC000E9F7F12CBECF60E08CEA91E00E9482100E
:103DD00080911B0480FDD8CFA601662D852D0E9401
:103DE0004506811126C081E08E25B82FB170CB2EFB
:103DF00080FF2DC04E2D662D852D0E94300BD82EB4
:103E0000811125C0598A6A8A89899A890E943F103E
:103E1000292F22952F70223070F0243098F49F7053
:103E200071F0F8019581907F51F4FD2C8ACF80E0EC
:103E3000B4CF80E0DACF9F7011F08823B1F3805EB9
:103E4000883098F3C8010E948216DC2CEECFEE2059
:103E500009F477CF8091B10181608093B101B1CF36
:103E60008B2D0E944506811124C0D80111968C919A
:103E700011978A111EC08C918B111BC02091B20129
:103E80003091B30116968D919C9117972817390799
:103E900081F4E1100EC015967C92C8010E94821632
:103EA00088E0F801ACEAB1E001900D928A95E1F763
:103EB00048CFC8010E944B10882339F1EE2029F128
:103EC0008091B1018032A0F02091AC013091AD0120
:103ED0003A8729871B86DD86CC868E878091B20142
:103EE0009091B301988B8F87CE0109960E9482161C
:103EF00088E0F801ACEAB1E001900D928A95E1F713
:103F00000E94AE1DFF24F3941CCFC8010E948216AC
:103F1000F9CF872D807F09F449CF9090AC01809034
:103F2000AD014091AF015091B001682D892D0E94E3
:103F3000450681111CC0F8018181881118C080815B
:103F4000891115C02091B2013091B301868197810A
:103F50002817390761F4E1100AC07582C8010E9470
:103F6000821688E0D5011D928A95E9F7EACEC8014C
:103F70000E944B10882349F2EE2039F28091B10162
:103F8000803208F4B5CF2091AC013091AD013A8375
:103F900029831B82DD82CC828E838091B201909135
:103FA000B30198878F83CE010196A0CF60E08CEAA1
:103FB00091E00E9482108091160490911704881657
:103FC000990608F051C0FE2CEE2009F49ECFE09037
:103FD000AC01D090AD014091AF015091B0016D2D79
:103FE0008E2D0E944506811131C0F80181818D110D
:103FF0002DC080818E112AC02091B2013091B30171
:10400000868197812817390709F560E08CEA91E0ED
:104010000E94821080911B0482FD42CF9091B101D9
:1040200090FD3ECF907F09F43BCF8091B101D80144
:1040300015968C931597903F09F42FCF982F907F6A
:10404000905F8F70892B15968C9327CFC8010E94A3
:104050004B1081114DCF8091B10181608093B101EE
:10406000C8010E9482166DCE88E0F50111928A95F2
:10407000E9F767CEEE2009F448CFC8010E944B1043
:10408000F82E882309F441CF88E0F801ACEAB1E0CA
:1040900001900D928A95E1F78091AC019091AD016C
:1040A0000E943F100E94AE1D4CCECF93DF93CDB740
:1040B000DEB760970FB6F894DEBF0FBECDBF29877D
:1040C0003A874B875C876D877E878F87988BCE0179
:1040D00009960E941C1E81112FC088E0FE013996AE
:1040E000DE01119601900D928A95E1F74C855D8570
:1040F0006A8589850E94450681111EC0A091B40180
:10410000B0E0CD010196877099272091F50128171D
:10411000190609F193E0AA0FBB1F9A95E1F7AB547A
:10412000BE4F98E0FE01319601900D929A95E1F70D
:104130008093B4010E94500B8091F5019091B401DD
:10414000891317C060960FB6F894DEBF0FBECDBFBF
:10415000DF91CF9108950E943B131092B401109209
:10416000F50188E0ECEAF1E0DF011D928A95E9F7BC
:10417000E3CFB8E08B9FC00111248B549E4F0E9467
:104180001C1E8823F9F28091F50190E0019687705A
:1041900099278093F501D0CFEF92FF920F931F9351
:1041A000CF93DF938091A502882361F0C091A40290
:1041B0008CE0F82E8091A502C81758F01092A50245
:1041C0001092A402DF91CF911F910F91FF90EF9079
:1041D0000895EE24E394EC0EE092A4020C2F10E07C
:1041E000CF9DE0011124CA55DD4F4B815C8169816F
:1041F00088810E94450681111BC08E819F81892B79
:1042000021F488859985019651F4288139814A8164
:104210005B816C817D818E819F810E945520F09E03
:10422000F001F19EF00D1124EA55FD4F1482138226
:10423000CE2DC0CF10924903109248031092130163
:1042400080914703809346030E947E060C94CC2005
:104250003F924F925F926F927F928F929F92AF9216
:10426000BF92CF92DF92EF92FF920F931F93CF9363
:10427000DF93C091460397E0892E01E010E02CE027
:10428000322E3EEF932E44244394809147038C13A7
:1042900015C00E94CC20DF91CF911F910F91FF900C
:1042A000EF90DF90CF90BF90AF909F908F907F90D6
:1042B0006F905F904F903F900C947E06D0E0FE018F
:1042C000EE0FFF1FE25CFC4F80819181889ED00140
:1042D000899EB00D1124AA5FBC4F14962C9114979F
:1042E000211157C05090A502E6EAF2E030E020E04C
:1042F000712C5D01251508F04AC0E284F384D501D4
:10430000CD90DC906FEF7FEF612C462D50E0DA010D
:10431000AA0FBB1FAC0DBD1D0D90BC91A02D109719
:1043200031F0EA16FB0609F4BA016394EECF6F3F51
:104330007607A1F1D80102C0AA0FBB1F6A95E2F768
:104340007A2AB80102C0660F771F6A94E2F7AB01C0
:104350004150510974161506F9F4329EF001339E4E
:10436000F00D1124EA55FD4F889ED001899EB00DB5
:104370001124AA5FBC4F12962D913C91139737835D
:104380002683908291829187808715964C920E9415
:1043900050062196C37079CF148213822F5F3F4F4E
:1043A0003C96A8CF8F929F92AF92BF92CF92DF920E
:1043B000EF92FF920F931F93CF93DF93CDB7DEB7AA
:1043C0002A970FB6F894DEBF0FBECDBF8E010F5FE8
:1043D0001F4F8AE0F80111928A95E9F781E5E82EEE
:1043E00081E0F82E6801AA24A394B12CF7018191F1
:1043F0007F018F3F09F44BC0F894E82FE295EF70EE
:10440000F0E021A18F70A50102C0440F551F8A95CD
:10441000E2F7CA01922F982B91A392A1809589234C
:1044200082A3789400C0E6E5F1E030E020E0912C32
:10443000812C81918F3F09F486C0A82FA295AF707F
:10444000B0E090964C9150E08F7002C05595479522
:104450008A95E2F740FD77C0C501022E02C0880FA1
:10446000991F0A94E2F7882A992A2F5F3F4F2E302E
:104470003105F9F6F701319780818F3F11F00E94E5
:10448000690850EA5A95F1F7F60191828082F2E0CC
:10449000CF0ED11C46E5E41641E0F40609F0A6CFA4
:1044A0004AE050E0B80183E092E00E946F30DD24E2
:1044B000D394009709F4D12C892B09F447C08AE0E2
:1044C000F801A3E0B2E001900D928A95E1F781E056
:1044D000809300020E94E7059093FF018093FE0104
:1044E0008091FE019091FF010E94D805059790F1FF
:1044F0008091030290910402909321028093200204
:1045000080910502909106029093230280932202EB
:1045100080910702909108029093250280932402D3
:104520008091090290910A029093270280932602BB
:1045300080910B0290910C029093290280932802A3
:104540001092000207C090E080E08DCF80910002C1
:104550008111C6CF8091000110E006E18F3F09F084
:1045600067C08091130181116EC08091190480FF92
:104570001CC08091160182FF18C00E94E70520919F
:10458000220430912304AC01421B530B20911401EF
:10459000309115014217530740F041E0BC01809172
:1045A0002004909121040E94E60D8D2D2A960FB6CD
:1045B000F894DEBF0FBECDBFDF91CF911F910F9159
:1045C000FF90EF90DF90CF90BF90AF909F908F9033
:1045D0000895029FF001039FF00D1124E35BFC4F4F
:1045E000E288F388E114F10421F4E0901604F090DD
:1045F0001704029FF001039FF00D1124E35BFC4FB1
:1046000086818823A1F0858596850E94D805E816C5
:10461000F90668F4109F70011124C701835B9C4F59
:104620000E94060BC7018D5A9C4F0E94C10A1F5F52
:10463000212F30E080910001082E000C990B821789
:1046400093073CF68ECF80914803909149030097E1
:1046500009F48BCF0E94D8052091A2023091A302C9
:104660002817390708F081CF9091460380914703BE
:10467000981759F00E9428211092A3021092A202CA
:10468000109249031092480370CF0E94CC201092E0
:104690004903109248030E947E0667CF2F923F92F3
:1046A0004F925F926F927F928F929F92AF92BF9242
:1046B000CF92DF92EF92FF920F931F93CF93DF93EE
:1046C000CDB7DEB769970FB6F894DEBF0FBECDBF8A
:1046D000942F498B252F5A8B6B8B7C8B8D8B4C8920
:1046E0005D89622F892F0E944506811109C0809142
:1046F0008F019091900101969093900180938F018A
:104700008B8981111092FD031D861E861F86188AD3
:1047100085E0FE017196DE01199601900D928A9551
:10472000E1F78091000490910104892BC1F00E946F
:10473000E7052091F7013091F801821B930B20913E
:104740000004309101048217930720F08091F90151
:1047500082FFF5C10E946B0A81110E944B0A4C85B1
:104760005D856A8589850E944506811111C061E0D9
:10477000CE0109960E9482106C018B8527EFC2162C
:104780002CE5D20681F4882321F181E08093130186
:1047900029853A854B855C856D857E858F859889D1
:1047A0000E945520C5C038EFC3163CE5D30629F456
:1047B000882379F00E941A21EBCF49EFC4164CE50B
:1047C000D40639F4882329F0809113018111F2CFA6
:1047D000DCCF06E013E0512CB12CA12C2224239431
:1047E000312C2EEF422EF8014081518188248A9489
:1047F000982C20E0822F90E0FC01EE0FFF1FE40FC9
:10480000F51F608171816115710531F0C616D706FB
:1048100009F44C012F5FEECFF12CFFEF8F169F06AE
:1048200009F448C0F8014481F09013018F2D411123
:1048300080E0F82FF170FF2EF801E58086819B85DE
:10484000992309F40CC1FF2009F409C160901404F4
:1048500070901504E11012C0A10101C0440F8A94A8
:10486000EAF7842B86838091A2029091A302861599
:10487000970520F47092A3026092A202C10102C0C7
:10488000880F991F2A95E2F70197F80126812817CA
:10489000190681F48091480390914903009709F427
:1048A00060C00E94D8056816790608F05AC021E059
:1048B000F80124835F28FFEFAF1ABF0A095F1F4F7B
:1048C00028E0A216B10409F08ECF8B85882309F465
:1048D00021C1552009F41EC10E94E70590934903A8
:1048E000809348038091A502883010F591E0980FDD
:1048F0009093A50298E0FE013996DE011196019091
:104900000D929A95E1F73CE0839FC00111248A55EE
:104910009D4F28E0FE013196DC0101900D922A9511
:10492000E1F72FEF3FEFFC0131872087D386C28666
:1049300069960FB6F894DEBF0FBECDBFDF91CF9161
:104940001F910F91FF90EF90DF90CF90BF90AF90AD
:104950009F908F907F906F905F904F903F902F909F
:1049600008958091460350914703982FF0E0E0E0CE
:10497000851314C090934603E017F10709F49ACF0A
:1049800090E0FC01EE0FFF1FE25CFC4FB182A082C1
:10499000019683709927809347038CCF682E712CE2
:1049A000F301EE0FFF1FE25CFC4F2081318147E0F5
:1049B000429FD001439FB00D1124AA5FBC4F6D915F
:1049C0007C911197798F688F40E020E030E0E32FF1
:1049D000F0E0EE0FFF1F688D798DE60FF71F8080E6
:1049E000918081149104E1F0F8010190F081E02DB3
:1049F000FF8BEE8B20E005C08616970609F44F2D3D
:104A00002F5FE22FF0E0EE0FFF1F6E897F89E60F28
:104A1000F71F608171816115710571F73F5FD7CF15
:104A20004423D1F0F801231708F0FD0121E024838D
:104A30000E171F0721F490934603F42E3BCF9813D3
:104A400005C0AE17BF0711F49F5F937093012F5FEE
:104A50003F4F822F83708CCFF0E0E0E0F7CF90E003
:104A6000E1101FC0B10102C0660F771F2A95E2F75F
:104A70009B01215031098217930731F4442309F433
:104A800047C0C5010E945006C10101C0880F8A9429
:104A9000EAF7982F9095F801868189238683FE2C6A
:104AA00009CF9C01082C02C0359527950A94E2F79E
:104AB000A90141705527BC016150710986239723D4
:104AC000892B11F5452B01F1F80182819381892B06
:104AD000C1F01B821C821D821E8249824A820E9472
:104AE000E7058160582F9D838C83F8018281938133
:104AF0008F83988729813A814B816D817E810E94C5
:104B00005520F8011582C0CFF22FF170EF2EBCCFE7
:104B1000EF2CBACF9091460380914703981731F05C
:104B20000E942821552009F433CE02CF0E94CC20C8
:104B300010924903109248030E947E06F3CF82E050
:104B40000E940E0C07CE0F931F93CF93DF9300D0DC
:104B500000D00F92CDB7DEB78C0190939C0280936A
:104B60009B02011580E2180720F5802F0E94710C2E
:104B7000C8010E94070D9801205E310928303105D7
:104B800010F0012B59F40F900F900F900F900F9091
:104B9000DF91CF911F910F910C94600C0F900F90AB
:104BA0000F900F900F90DF91CF911F910F910C9468
:104BB0004F0C8EEF89838A831B820E94E7058160F8
:104BC000782F9D838C8349815A816B818D810F90D1
:104BD0000F900F900F900F90DF91CF911F910F9139
:104BE0000C944E230F931F93CF93DF938C01EB0113
:104BF0006FE372E08C2F0E947812892BA1F48091D0
:104C00001C0490911D040E94DC0DDD27C95CDD4F62
:104C10008881F80110821882833009F148F48130CC
:104C200059F0823081F0DF91CF911F910F9108955B
:104C30008430D1F08530B9F780913F0290914002E5
:104C4000009789F306C0809141029091420200973B
:104C500099F3DF91CF911F910F910C94A32580912F
:104C6000430290914402F3CF809145029091460215
:104C7000009779F720913F023091400280914102E4
:104C80009091420221153105D9F2009711F7C9011F
:104C9000E0CF0F931F93CF93DF9300D000D00F92FC
:104CA000CDB7DEB78C0190939C0280939B020115D7
:104CB00080E21807E8F4C8010E94070D9801205E01
:104CC00031092830310518F00115110571F40E94E1
:104CD000670C802F0F900F900F900F900F90DF9127
:104CE000CF911F910F910C94AA0C0E94560CF1CFFA
:104CF0008EEF89838A8381E08B830E94E705816040
:104D0000782F9D838C8349815A816B818D810F908F
:104D10000F900F900F900F90DF91CF911F910F91F7
:104D20000C944E23BF92CF92DF92EF92FF920F939B
:104D30001F93CF93DF93B82EC0904A04809149040B
:104D4000C82AC7E0D0E0D12CF12CE12CD701C60154
:104D50000C2E04C0B695A795979587950A94D2F71F
:104D600080FF1FC04B2D60E08C2F0E949C0F8C0198
:104D700081309105B1F00E9449268FE39CE90197AB
:104D8000F1F700C00000C8010E94A32581E0DF9177
:104D9000CF911F910F91FF90EF90DF90CF90BF9038
:104DA0000895219798F64B2D60E080E00E949C0FBB
:104DB000EC010E9449268FE39CE90197F1F700C0BE
:104DC0000000CE01E1CFCF93DF93EC010E94492692
:104DD00080911C0490911D040E94DC0DCE01DF9196
:104DE000CF910C94A3250F931F93CF93DF938C0146
:104DF000862F6FE372E00E947812892BC9F4C0916C
:104E00003F02D0914002209799F0F80180818330D1
:104E100069F4CE010E94E326CE010E94E326CE0172
:104E2000DF91CF911F910F910C94E3268430B8F756
:104E3000DF91CF911F910F9108950F931F93CF93FF
:104E4000DF938C01EB016FE372E08C2F0E947812EC
:104E5000892B09F064C0FE01FF27D8018C91E95C21
:104E6000FD4F8130D9F419969C911997992311F02F
:104E700080830CC01A969C919923D1F382E08083A1
:104E800080914102909142020097D9F480913F02B3
:104E900090914002009709F442C013C08230E9F5B6
:104EA00019968C91199781112DC01A968C918111A8
:104EB0000EC083E08083809143029091440200976A
:104EC00019F1DF91CF911F910F910C94492684E045
:104ED00080838091450290914602009791F78091DE
:104EE0003F02909140020097F9F00E94E3268091E2
:104EF000410290914202009721F780913F029091E8
:104F00004002DFCF85E0808380913F029091400294
:104F1000009729F00E94E326F0CF86E08083DF919E
:104F2000CF911F910F91089580914102909142027B
:104F3000B1CF1F920F920FB60F9211242F933F9370
:104F40004F935F936F937F938F939F93AF93BF9391
:104F5000CF93DF93EF93FF93D091E900DF708091BF
:104F6000EC00C82FC17080FDC0E81092E90080916C
:104F7000F000877F8093F00078940E94461310928F
:104F8000E9008091F00088608093F000CD2BCF7015
:104F9000C093E900FF91EF91DF91CF91BF91AF9165
:104FA0009F918F917F916F915F914F913F912F9141
:104FB0000F900FBE0F901F9018951F920F920FB673
:104FC0000F9211242F933F934F935F936F937F938F
:104FD0008F939F93AF93BF93EF93FF938091E100E3
:104FE00082FF09C08091E20082FF05C08091E1004C
:104FF0008B7F8093E1008091DA0080FF24C0809154
:10500000D80080FF20C08091DA008E7F8093DA0084
:105010008091D90080FF9BC080E189BD82E189BD7C
:1050200009B400FEFDCF81E08093480480913204F2
:10503000811109C00E9423040E9416058091E2009C
:1050400084608093E2008091E10080FF17C080912E
:10505000E20080FF13C08091E2008E7F8093E20027
:105060008091E20080618093E2008091D8008062AC
:105070008093D80019BC85E0809348048091E100BA
:1050800084FF29C08091E20084FF25C080E189BDB2
:1050900082E189BD89B5982F917080FFFBCF809107
:1050A000D8008F7D8093D8008091E1008F7E80931F
:1050B000E1008091E2008F7E8093E2008091E20027
:1050C00081608093E20080913F04882309F445C009
:1050D00084E0809348048091E10083FF27C08091A1
:1050E000E20083FF23C08091E100877F8093E1008D
:1050F00082E08093480410923F048091E1008E7F0B
:105100008093E1008091E2008E7F8093E2008091A5
:10511000E20080618093E20042E060E080E00E9473
:10512000E4048091F00088608093F000FF91EF919B
:10513000BF91AF919F918F917F916F915F914F91AF
:105140003F912F910F900FBE0F901F90189519BC93
:10515000109248041092320476CF8091E30087FDCC
:1051600093E090934804B7CF78941F921FB61F9294
:1051700011248F939F93AF93BF9380912B049091B1
:105180002C04A0912D04B0912E040196A11DB11DF7
:1051900080932B0490932C04A0932D04B0932E04A1
:1051A000BF91AF919F918F911F901FBE1F90189537
:1051B0001F921FB61F9211248F939F93AF93BF939B
:1051C00080912A04811113C080912B0490912C04AA
:1051D000A0912D04B0912E044196A11DB11D809384
:1051E0002B0490932C04A0932D04B0932E04BF9114
:1051F000AF919F918F911F901FBE1F901895CDB7B3
:10520000DEB7E6970FB6F894DEBF0FBECDBF84B70A
:10521000877F84BF0FB6F894A8958091600088615D
:1052200080936000109260000FBE80E890E00FB69F
:10523000F89480936100909361000FBE85B78068F9
:1052400085BF85B7806885BF87E698E09093850124
:10525000809384010E948C120E94E2120E94760FB9
:105260000E9423040E9416058091E20084608093CE
:10527000E2007894809148048823A1F01091E9001D
:105280001F709091EC00892F817090FD80E8182BA1
:105290001092E9008091E80083FD0E9446131F7080
:1052A0001093E90082E084BD93E095BD9AEF97BD2D
:1052B00080936E000E949010811102C00E946912BA
:1052C00001E511E0E6E5EE2EE1E0FE2ED8018D913C
:1052D0008D018F3F11F00E946908E016F106B1F7C9
:1052E00006E511E074E6E72E71E0F72EF8018191F2
:1052F0008F018F3F11F00E946908E016F106B1F7A7
:1053000010920402109203021092210210922002C5
:1053100010920602109205021092230210922202AD
:105320001092080210920702109225021092240295
:1053300010920A021092090210922702109226027D
:1053400010920C0210920B02109229021092280265
:1053500090E080E00E94A4308A3E9E4F21F40E949B
:105360009010811102C00E94181682E090E00E9405
:105370009C30809311020E94A910909302028093A6
:1053800001020E94D2218FE39CE90197F1F700C04E
:1053900000000E94D2218091200280FF08C06FEFA0
:1053A0007FEF90E080E00E94C8300E94B80D83E05B
:1053B00090E00E949C300E944B0C5098589A519853
:1053C000599A89B18170499950C190E0892B809395
:1053D0000F0281E091E090932704809326048E01D0
:1053E0000F5F1F4F8091480450E1E52E62E1F62ED9
:1053F000853009F476C10E94D221882359F08FB7F5
:10540000F89440912B0450912C0460912D047091DC
:105410002E048FBFA0E2B2E0E2E1F2E0F12CE12C39
:105420007E2D8D919D91219131912817390709F495
:1054300068C12827392760E0CC24C394D12CA90166
:105440004C215D21452B09F456C16BA77CA79C011B
:105450002C213D2191E0232B09F490E09DA70E948F
:10546000E7058160782F9FA78EA74BA55CA56DA54A
:105470008FA50E944E23F701EE0FFF1FEE5EFD4F3A
:1054800080819181C826D926D182C082E0910F0205
:10549000EE0FEE0FE0930F0289B181708DAB1EAA63
:1054A000499948C180E0ADA9BEA98A2BE82BE093B9
:1054B0000F02EF70F0E0EC59FE4F808190910E02E8
:1054C000890F80930E0220E084304CF080910D0211
:1054D0008F5F80930D0280E00E94922621E08091F0
:1054E0000E028D3F4CF480910D02815080930D028D
:1054F00081E00E94922621E080910E02082E000C8D
:10550000990B64E070E00E94453080930E022223E4
:1055100059F08FB7F89440912B0450912C0460916E
:105520002D0470912E048FBF86E0E1E3F2E0D801F4
:1055300001900D928A95E1F7C0903302D090340229
:10554000E0903502F090360210923302109234024D
:1055500010923502109236028C2D8D2991F0809197
:105560002F02909130020E94D805AC0190912B023D
:10557000992309F4E2C0809111018417150608F4FB
:10558000EAC08E2D8F2991F080912D0290912E02EC
:105590000E94D805AC0190912A02992309F41AC1FE
:1055A00080910D018417150608F422C18091330201
:1055B00090913402892B90913502892B909136027B
:1055C000892B11F00E94BD0686E0F801A1E3B2E04C
:1055D00001900D928A95E1F70E9439069091100290
:1055E000891721F00E9439068093100280914804A7
:1055F000843009F0F7CE83E08093E9008091E800E1
:1056000082FFF0CE8091E80090E085FF0AC00E9402
:10561000420460E2E62EF12C6801882309F431C1CE
:1056200091E08091E8008B778093E800992309F45A
:10563000D9CEE0909D02F0909E028981E114F104A0
:1056400009F42DC18E3F09F0B6C18A81833020F064
:105650008550833008F0AFC1EA81EE3008F0ABC16D
:10566000F0E0E45FFE4C0C94593092E0AFCE8091B4
:105670004804843021F110922A04A8E1B0E0E0E46B
:105680000FB6F894A895A09360000FBEE093600059
:1056900083B7817F846083BF83B7816083BF789441
:1056A000889583B78E7F83BF0FB6F894A8958091B5
:1056B0006000886180936000109260000FBE80914E
:1056C0003E04882371F00E94D221E0E2F2E0819151
:1056D0009191892B09F06FC42AE232E02E173F071F
:1056E000B1F780914804853009F4C1CF0E943B1383
:1056F0000E94390680CE6F5FCC0CDD1C6E3009F045
:105700009ECE3FEFE31AF30A45E0E416F10409F0F8
:1057100087CE8FEF88AB89AB1AAA0E94E70581601C
:10572000782F9CAB8BAB48A959A96AA98CA90E9478
:105730004E23ACCE82E090E0B6CE20911201BAE0CA
:105740002B9F900111242417350708F01ACF9F5F73
:1057500090932B0202C09F3FD1F7CC2059F00E94BA
:10576000A0079FEF1C140CF491E0899F802D112459
:1057700080933302DD2059F00E94A0079FEF1D1493
:105780000CF491E0899F802D112480933402309194
:105790003302332309F4F5CE20913402222309F495
:1057A000F0CE45EB3403C0011124992359F09093B6
:1057B000330245EB240390011124332339F0309355
:1057C0003402DFCE81E080933302F3CF81E0809317
:1057D0003402D7CE20910E018AE0289F9001112437
:1057E0002417350708F0E2CE9F5F90932A0202C08B
:1057F0009F3FD1F7EE2059F00E9467079FEF1E14DC
:105800000CF491E0899F802D112480933502FF20B4
:1058100059F00E9467079FEF1F140CF491E0899FD5
:10582000802D11248093360230913502332309F400
:10583000BDCE20913602222309F4B8CE45EB3403C5
:10584000C0011124992359F09093350245EB2403AC
:1058500090011124332339F030933602A7CE81E032
:1058600080933502F3CF81E0809336029FCE809102
:10587000F100D6018D936D01B1E0EB1AF10809F446
:10588000CFCE8091E80085FDF2CF8091E8008B7744
:105890008093E8000E944204882399F3C1CE8C30A3
:1058A00009F4E9C048F5843009F4CCC050F48230E2
:1058B00009F467C008F0B7C0813009F45EC08FEF0B
:1058C000A6C3863009F4D4C008F4C7C08B30B9F73A
:1058D0008091990290919A02892B09F46CC0C801B9
:1058E0000E949D04FFEF21EE34E0F1502040304053
:1058F000E1F700C0000059CD803109F4EBC088F514
:105900008E3009F4BEC008F4B9C08091990290911C
:105910009A02892B09F44FC0EC80F12C3DE1E3168B
:10592000F10408F048C0CA80DB80DC24CD24DC24EC
:105930005801E00EF11EC601875D9C4FEA14FB047E
:10594000D1F147EDC416D10428F4D50114966C9119
:105950000E94AA30BFEFAB1ABB0AEFEFCE1ADE0AE5
:10596000EACF823109F4BBC008F4B7C0833109F42F
:10597000DFC08E3F09F0A3CF6FCE1A8289E08B8300
:105980001AC08A81823009F464C38330C1F0813047
:1059900009F095CF2FB7F89460912B0470912C04E7
:1059A00080912D0490912E042FBF0E945F306B8355
:1059B0007C838D839E83C8010E949D0413CD8091BA
:1059C000990290919A02892BB1F3809120029091D3
:1059D00021029827892798279C838B838091220214
:1059E000909123029827892798279E838D83809101
:1059F00024029091250298278927982798878F83DA
:105A000080912602909127029827892798279A87C4
:105A100089878091280290912902982789279827C1
:105A20009C878B87C8CF8A81823009F048CF6B81F1
:105A30007C818D819E810E945F3086E290E00E9491
:105A4000AA30B9CF4C816B818A810E94C50F9827FB
:105A5000892798279E838D83AECF2D813E81322763
:105A6000232732274C816B818A810E945611A3CF54
:105A70000E94BD11A0CF80E18A839DCF1A8287ED5D
:105A80007ECFEC80F12CEDE1EE16F10408F093CF1F
:105A9000CA80DB80DC24CD24DC245801E00EF11E1A
:105AA000C601875D9C4FEA14FB0409F484CFF7ED2F
:105AB000CF16D10460F40E949C30D50114968C93CB
:105AC000FFEFCF1ADF0A2FEFA21AB20AE9CFF501D2
:105AD0001482F6CF0E9415116ECF84E0CDCFEC80FA
