:100000000C94FE030C9436040C9436040C943604C1
:100010000C9436040C9436040C9436040C94360478
:100020000C9436040C9436040C9480110C947416C1
:100030000C94D3220C9436040C9436040C9436049D
:100040000C9436040C9436040C9436040C94360448
:100050000C9436040C9459120C9436040C94360407
:100060000C9436040C94652C0C94422C0C9436049D
:100070000C9436040C9436040C9436040C94360418
:100080000C9436040C9436040C9436040C94360408
:100090000C9436040C9436040C9436040C943604F8
:1000A0000C9436040C9436040C94360405010902B1
:1000B000A10185020901A1000509190129081500FE
:1000C0002501950875018102050109300931158165
:1000D000257F95027508810609381581257F9501D0
:1000E00075088106050C0A38021581257F95017572
:1000F000088106C0C005010980A101850319012AF4
:10010000B700150126B700950175108100C0050CD8
:100110000901A101850419012AA002150126A002E6
:10012000950175108100C00660FF0961A101096297
:10013000150026FF00952075088102096315002629
:10014000FF00952075089102C005010906A101056F
:100150000719E029E7150025019508750181029529
:1001600001750881010507190029FF150026FF0008
:100170009506750881000508190129059505750181
:100180009102950175039101C0000000000000007C
:10019000000000000000000000000000000000005F
:1001A000000000000000000000000000007E0F00C2
:1001B000D4FFFFFFC700000078000000000000002F
:1001C000002A2B28000000000000000000000000B2
:1001D0000000000029000000002C1E3420212224F1
:1001E000342627252E362D3738271E1F202122237F
:1001F0002425263333362E37381F04050607080911
:100200000A0B0C0D0E0F10111213141516171819D6
:100210001A1B1C1D2F3130232D3504050607080934
:100220000A0B0C0D0E0F10111213141516171819B6
:100230001A1B1C1D2F3130354C00DA0281FFD9F119
:10024000DB20A4A62EAF00A0C000A1C800AED580C0
:10025000A81FD300408D1420001E0F0500047F3F0F
:100260001F643214643214783C1E1E140A05000EFA
:100270001F1F1F1F1F1F1F1FFFFFFFFFFFFF1F1F4E
:100280001F1F1F1F1F1F0E000000FEFFFFFFFE00AD
:100290000000000000F8FEFEFFFFFF1F1F1F1F1FD2
:1002A0001F1F1F3E3E7EFCFCF8F0E0C00000000077
:1002B0000000F8FEFEFFFFFF1F1F1F1F1F1F1F1F55
:1002C0003F7EFEFEFCF8E000000000000000FEFFA4
:1002D000FFFFFE0000000E1F1F1F1F1F1F1F1FFF1D
:1002E000FFFFFFFF1F1F1F1F1F1F1F1F1E000000FC
:1002F0000000000000000000FFFFFFFFFFFF000004
:1003000000000000000000000000FFFFFFFFFF00F2
:100310000000000000FFFFFFFFFFFF0000000000E3
:100320000000000000000003FFFFFFFFFEC0000010
:100330000000FFFFFFFFFFFFE0E0E0E0E0E0E0F0B3
:10034000F0F8FFFFBF1F0F00000000000000FFFFDC
:10035000FFFFFF000000000000000000000000FFA1
:10036000FFFFFFFF00000000000000000000000091
:100370000000000000000000FFFFFFFFFFFF000083
:1003800000000000000000000000FFFFFFFFFF0072
:100390000000000000FFFFFFFFFFFF000000000063
:1003A00000000000000080E0FFFFFFFF7F0300006F
:1003B0000000FFFFFFFFFFFF03030303030303032B
:1003C000030707BFFFFFFFFEF00000000000FFFF74
:1003D000FFFFFF000000000000000000000000FF21
:1003E000FFFFFFFF00000000000000000000000011
:1003F00000000000000000003F7FFFFF7F3F000083
:10040000000000000000000000007FFFFFFF7F00F1
:1004100000000000001F7F7F7FFFFFF8F8F8F8F86A
:10042000F87C7C7C7E3E3F3F1F0F070100000000F0
:1004300000001F7F7F7FFFFFF8F8F8F8F8F8F87CDE
:100440007C7C7E3F3F1F1F070100000000007FFFF4
:10045000FF7F3F0000000000000000000000003FA0
:100460007FFFFF7F0000000000000000000000018F
:100470000101010101010101020202020202020264
:100480000203030303030303030404040404040436
:1004900005050505050606060606070707070708FA
:1004A000080808090909090A0A0A0B0B0B0C0C0CAD
:1004B0000D0D0D0E0E0E0F0F0F1010111111121247
:1004C00013131414151516161717181819191A1AC4
:1004D0001B1B1C1D1D1E1E1F202021222223242425
:1004E000252626272829292A2B2C2D2D2E2F303161
:1004F0003232333435363738393A3B3C3D3E3F4073
:100500004142434445464748494A4C4D4E4F50515D
:100510005354555658595A5B5D5E5F616264656617
:1005200068696B6C6D6F7072737577787A7B7D7E9E
:100530008082838587888A8C8E8F91939596989AEE
:100540009C9EA0A2A3A5A7A9ABADAFB1B3B5B7BA06
:10055000BCBEC0C2C4C6C9CBCDCFD1D4D6D8DBDDDA
:10056000DFE2E4E7E9EBEEF0F3F5F8FAFDFFFFAACE
:100570007F55402223252628292A2C2D2F3032333F
:100580003536383A3B3D3E4042434547494A4C4E5A
:100590005051535557595A5C5E6062646668696B86
:1005A0006D6F71737577797B7D7F81838587898A8C
:1005B0008C8E90929496989A9C9E9FA1A3A5A7A892
:1005C000AAACAEAFB1B3B4B6B8B9BBBCBEBFC1C2C2
:1005D000C3C5C6C7C9CACBCCCDCED0D1D2D2D3D455
:1005E000D5D6D7D7D8D9D9DADADBDBDBDCDCDCDC73
:1005F000DCDDDDDDDDDCDCDCDCDCDBDBDBDADAD941
:10060000D9D8D7D7D6D5D4D3D2D2D1D0CECDCCCBC2
:10061000CAC9C7C6C5C3C2C1BFBEBCBBB9B8B6B4E0
:10062000B3B1AFAEACAAA8A7A5A3A19F9E9C9A9870
:10063000969492908E8C8A89878583817F7D7B7941
:10064000777573716F6D6B6968666462605E5C5A22
:100650005957555351504E4C4A4947454342403EE5
:100660003D3B3A3836353332302F2D2C2A29282677
:1006700025232200AF00AE0000000000005400550A
:10068000005600AA00A9005F006000610057000149
:100690000001005C005D005E005700010001005990
:1006A000005A005B00580001000100620062006314
:1006B00000580000000000000000000000000000E2
:1006C000000000000000000000000000000000002A
:1006D000000000000000000000000000000000001A
:1006E000000000000000000000000000000000000A
:1006F00000000000000000000000000000000000FA
:1007000000000000000000000000000000000000E9
:1007100000000000000000000000000000000000D9
:1007200000000000000000000000000000000000C9
:1007300000000000000000000000000000000000B9
:1007400000000000000000000000000000000000A9
:100750000000000000000000000000000000000099
:100760000000000000000009025B00030100A0FA85
:100770000904000001030101000921110100012207
:10078000400007058103080001090401000203007D
:100790000000092111010001222200070582032027
:1007A0000001070503032000010904020001030002
:1007B0000000092111010001227B000705840320AC
:1007C00000011201000200000008616E6460010077
:1007D000010200010E035400490044004200490098
:1007E0005400000012036E0075006C006C00620083
:1007F00069007400730000000403090411241FBE83
:10080000CFEFDAE0DEBFCDBF04B603FE18C08091A3
:100810004B0690914C06A0914D06B0914E06873044
:10082000904BA740B04B59F410924B0610924C06D7
:1008300010924D0610924E06E0E0F8E3099526E08E
:10084000AEECB1E001C01D92AB34B207E1F711E0AC
:10085000A0E0B1E0E6E4FCE502C005900D92AE3CFC
:10086000B107D9F70E94FA220C94F82D0C940000DD
:10087000E8EDF0E080818E7F80831092E20010929C
:10088000DA001092E100A0EEB0E08C9181608C93D0
:1008900080818F77808319BCA7EDB0E08C918E7F2B
:1008A0008C9380818F7E80831092EC040895209138
:1008B000E4003091E50095E6A9012091EC00822F3B
:1008C000817020FF06C08091E80080FF06C080E0B4
:1008D00008952091E80022FD1AC08091F904882330
:1008E00089F0853089F08091EB0085FD0FC0209163
:1008F000E4003091E50042175307F9F29150E1F618
:1009000084E0089582E0089583E0089581E00895E9
:10091000EF92FF920F931F93CF937C018B010E9464
:100920005704C82F811117C08091E80085FD0BC0C6
:100930008091E8008E778093E8000E945704882316
:1009400099F3C82F08C0F70181917F018093F100CE
:100950000150110949F78C2FCF911F910F91FF90F2
:10096000EF9008958091FB0487FF13C08091E80009
:1009700082FF06C08091E8008B778093E80004C076
:100980008091F9048111F2CF08958091F9048823B0
:10099000D9F38091E80080FFF8CF8091E8008E774E
:1009A000ECCF982F9093E900242F762F50E08917F1
:1009B00031F07091EC002091ED005091F00021FD9C
:1009C00007C09F5F973071F78093E90081E0089539
:1009D0003091EB003E7F3093EB003091ED003D7F96
:1009E0003093ED003091EB0031603093EB00709369
:1009F000EC002093ED005093F0002091EE0027FDD5
:100A0000E0CF80E00895CF92DF92EF92FF920F93B4
:100A10001F93CF93DF93C8EDD0E088818F7E8883CA
:100A2000E7EDF0E080818160808384E082BF81E037
:100A30008093EC0488818E7F888302EE10E0F801B9
:100A400010821092DA0081EEC82ED12CF6011082AD
:100A500088818F77888388818068888388818F7D6B
:100A6000888319BC1092F9041092FA041092F804C9
:100A70001092F70490EEE92EF12CF70180818B7F24
:100A8000808388818160888342E060E080E00E940A
:100A9000D104F60180818E7F8083F801808181609E
:100AA0008083808188608083F70180818E7F80834E
:100AB000888180618883DF91CF911F910F91FF9092
:100AC000EF90DF90CF900895FC0180910105909107
:100AD000020586179707A0F06115710529F490911A
:100AE000E8009E779093E80090E06115710551F45D
:100AF000911108C08091E80082FF34C080E0089521
:100B0000BC01F2CF8091F9048823C1F18530C1F195
:100B10008091E80083FD30C08091E80082FDEACF3B
:100B20008091E80080FFE1CF8091F3002091F200F6
:100B3000382F6115710519F02830310558F091E012
:100B40002830310509F090E02091E8002E772093BD
:100B5000E800CBCF81918093F100615071092F5F44
:100B60003F4FE7CF8091F904882341F0853041F071
:100B70008091E80083FFBECF81E0089582E0089570
:100B800083E0089508958091EE0408952FB7F894B6
:100B90006091E5047091E6048091E7049091E80487
:100BA0002FBF08959C01FC0132969FEF80E0419198
:100BB000461751F09F3F19F4411101C0982F8F5FE4
:100BC0008630A9F79F3F09F40895290F311D97FD3D
:100BD0003A95F901628308952091E2043091E3048B
:100BE0002817390771F09093E3048093E204E091B1
:100BF000E004F091E104309721F00084F185E02DCC
:100C0000099408952091DE043091DF0428173907F4
:100C100071F09093DF048093DE04E091E004F091A2
:100C2000E104309721F00680F781E02D09940895C2
:100C3000E091E004F091E104309721F00190F0811F
:100C4000E02D099480E00895FA01811101C0FB01B3
:100C5000099408958091D304982F9E7F29F4817080
:100C600082608093D30408958635E8F381708465AB
:100C7000F8CFAF92BF92DF92EF92FF920F931F9344
:100C8000CF93DF93082F162FE901E42FF0E0E2590C
:100C9000FB4F611110C0E4915E2F4E2F4983E88312
:100CA0005A83DF91CF911F910F91FF90EF90DF90CA
:100CB000BF90AF900895E62EF12C4491D42EE42FEE
:100CC000F0E026E0829FC00111242FEF30E0B9014F
:100CD0000E94872C802F90E0880F991F55E5569F22
:100CE000D001579FB00D11248A1B9B0B982F990F91
:100CF000890F5901AE18BF08AE9ED001AF9EB00D4E
:100D0000BE9EB00D11245B2F189F80011124012F6E
:100D100011275901A01AB10AAE9E8001AF9E100D95
:100D2000BE9E100D11245901A81AB108AE9CC00135
:100D3000AF9C900DBE9C900D1124892F9927281BE4
:100D4000390B2E9FC0012F9F900D3E9F900D1124B7
:100D5000E92F62307105A1F050F46115710509F4B5
:100D60009DCF6130710581F0EB2F512F97CF64300B
:100D7000710569F080F06630710509F48FCFF4CF0A
:100D8000E42F4B2F592F8ACFE42F412F87CFEB2F02
:100D9000542F492F83CF4B2F5D2DE12F7FCF4091D3
:100DA0008404803F59F48091850487FF0DC0109220
:100DB000850441110BC010927C0408C0813F81F46E
:100DC0008091850418169CF3442381F08091860459
:100DD00090918704892B09F05AC010927B040895E2
:100DE000823F49F447FFF0CF10928404809185043C
:100DF0008111ECCFE0CF833F19F41416ACF3E4CFAC
:100E000090918604893F29F41916F4F6109286040D
:100E1000DBCF8A3F19F497FFD7CFF8CF90918704A3
:100E20008B3F29F497FFD0CF10928704CDCF8C3F12
:100E300019F41916CCF3C8CF9CE0980F953090F4B4
:100E4000845F990B21E030E0B90102C0660F771F83
:100E50008A95E2F7CB018095909183048923809352
:100E60008304B2CF8D3F31F480917D048E7F8093D7
:100E70007D04AACF8E3F21F480917D048D7FF7CF32
:100E80008F3F09F0A1CF80917D048B7FF0CF089533
:100E900080917D0480FD16C081FD16C082FD16C0C4
:100EA00080917B048823A1F0883280F428E0829F1F
:100EB000C001112468E270E00E94C92C862F672BC4
:100EC00039F0089582E0089584E0089588E0089557
:100ED00081E0089580917D0480FD14C081FD14C0DF
:100EE00082FD16C080917C04882381F08E3180F4CD
:100EF00020E5829FC00111246EE170E00E94C92CA0
:100F0000862F089584E1089588E2089588E0089581
:100F100080E50895803F31F40E946A0781958093AF
:100F200085040895813F19F40E946A07F8CF823F33
:100F300031F40E946A078195809384040895833F69
:100F400019F40E946A07F8CF893F29F40E944807E4
:100F50008093860408958A3F21F40E944807819572
:100F6000F7CF8B3F31F40E94480781958093870427
:100F700008958C3F19F40E944807F8CF9CE0980F21
:100F8000953070F4845F990B21E030E001C0220FAE
:100F90008A95EAF780918304822B809383040895D5
:100FA0008D3F31F480917D04816080937D040895AC
:100FB0008E3F21F480917D048260F7CF8F3FB9F797
:100FC00080917D048460F1CF80E00895F894E82F4B
:100FD000E295EF70F0E031A1282F2F7081E090E0D2
:100FE00001C0880F2A95EAF7982F9095932391A333
:100FF00092A1892B82A3789408959091390292FF4F
:1010000006C0282F28712830F9F4877F846093FF69
:1010100006C0282F28712831F1F4877E8461209141
:101020003A0220FF06C0382F38713830D9F4877F54
:10103000816021FF06C0282F28712831D1F4877ED6
:10104000816194FD877E0895282F24712430F9F65C
:101050008B7F8860DCCF282F2471243101F78B7EB1
:101060008861DDCF382F3171313019F78E7F88607C
:10107000E0CF282F2171213121F78E7E8861E1CFC9
:10108000CF93DF93EC0182389105A9F1D8F5813334
:10109000910509F496C048F58932910509F48AC092
:1010A0008A9709F495C0C11521E5D20708F0BCC0A4
:1010B000C11530E5D30708F014C1C83ED10508F0CA
:1010C0009CC0C03ED10560F5C83AD10508F087C084
:1010D000C53AD10508F0FDC0C130D10509F120970E
:1010E000F9F0C430D105E0F440C08533910509F42E
:1010F0005AC0C997C1F680913902837089F0C0EE59
:10110000D0E00EC0833E910599F170F4803E9105C8
:1011100001F1823E910539F68091390282FD21C0AC
:10112000CE01DF91CF910895863E910561F1873E12
:10113000910571F1843E910509F0B5CF80913A0295
:1011400081FFEECF80913902C7EED0E084FD0DC063
:10115000E7CF8091390280FD12C190913A0290FF51
:10116000DFCFC3EED0E084FFDBCFD0E0C0E0D8CF4C
:101170008091390282FD06C190913A0290FDBFCF65
:1011800084FFCECFF2CF8091390283FDDDCFC8CF6F
:101190008091390283FDF9C090913A0291FFF0CF1E
:1011A000C4EED0E0BDCF8091390285FFB9CFC9E24E
:1011B000D0E0B6CF8091390285FFB2CFC5E3D0E051
:1011C000AFCF8091390286FFABCFCAE2D0E0A8CF83
:1011D0008091390286FFA4CFC1E3D0E0A1CFCF3BFD
:1011E000D10518F6C85AD0E0CC0FDD1FC65DDE4F22
:1011F0000990D881C02DD46493CFC11540E2D407A3
:1012000058F4C11581E0D80708F08ACFC03FD10556
:1012100008F4ABCFD06584CFC11590E4D90708F4AA
:10122000A4CFDF70D06A7CCFC11525E5D20700F5C9
:10123000C11534E5D30708F08AC0C11543E5D407CA
:1012400008F071C0C11582E5D80708F467C0CE0167
:101250008370992721E030E002C0220F331F8A9566
:10126000E2F7C695C69580E2C89FE001112452C0FE
:10127000C11599E5D907A8F4C11528E5D20708F0EA
:101280006BC0C11536E5D30708F06FCF8C2F0E94D5
:10129000FD07C82FD0E0DC2FCC27CC27DF71D06230
:1012A0003FCFC1154AE5D40708F45BC0CE01905684
:1012B0008115904208F059CF8D2F8F710E94FD0744
:1012C00090E0982F882788279F719C012C2BE9019B
:1012D000E6CFC55AD0E0C95DDE4FC881D0E0D0640A
:1012E0001FCFCE01E4E096958795EA95E1F78370EC
:1012F0002C2F26952695237040E2249F90011124DF
:10130000382B8C2F8370C1E0D0E002C0CC0FDD1FE2
:101310008A95E2F7C22BD32BDC6802CFDC2FCC27D7
:10132000C16FD06AFDCECE018370992721E030E0F5
:1013300002C0220F331F8A95E2F7C695C69590E248
:10134000C99FE0011124C22BD32BDA68E9CEDC2F30
:10135000CC27C46FD06AE4CEDC2FCC27C06FD06A14
:10136000DFCE8C2F8F700E94FD0734E0D695C79595
:101370003A95E1F7CF709C2FEC01D069D1CEC9E34B
:10138000D0E0CECEC2EED0E0CBCEC6EED0E0C8CE1E
:1013900080912902811110922902089580959091DF
:1013A0002802982390932802089580911D0290911D
:1013B000EC01981301C008958F5F8770FACFE92F71
:1013C000EE0FE90FEE0F8E0F982F9770869586958A
:1013D000869523E0829FF0011124E652FE4F50E0F3
:1013E00040E080E0219130E0092E02C0369527953B
:1013F0000A94E2F721703327042E01C0220F0A94C9
:10140000EAF7822B4F5F5F4F4330510559F708953C
:10141000E92FEE0FE90FEE0F8E0F982F977041E036
:1014200001C0440F9A95EAF786958695869593E0D4
:10143000899FF0011124E652FE4F30E020E070E079
:101440005191DF011197CB01022E02C0969587952D
:101450000A94E2F7817081958527842385278C93F0
:101460002F5F3F4F2330310559F70895813019F42C
:10147000809888980895809AFCCF81700C94360AE1
:10148000CF92DF92EF92FF920F931F93CF93DF9350
:101490006C017B0164E670E088E70E94C42AEC01DD
:1014A00097FD12C010E000E0F601E00FF11F8491FB
:1014B00064E670E00E943E2BEC01892B29F40F5F5B
:1014C0001F4F0E151F0581F70E94C12BCE01DF9122
:1014D000CF911F910F91FF90EF90DF90CF900895E3
:1014E0008091DC049091DD04911103C091E0892783
:1014F0000895882369F062E070E085E796E00E9435
:10150000400A892B19F08091DC0408951092DC04C4
:101510008091DC04EBCFCF93C091DC048091DD049B
:101520008823D1F00E94C605605A75418F4F9F4FA6
:101530006093D8047093D9048093DA049093DB0409
:10154000C11108C062E070E083E796E00E94400AA3
:10155000892B29F0C091DC048C2FCF91089581E074
:101560008093DC04F7CF8093E9047093EB046093DD
:10157000EA048091F9048430F9F48093E9008FEF54
:101580009091E800815095FD06C095ED9A95F1F790
:1015900000008111F5CF8091E80085FF0DC050E07B
:1015A00040E063E070E089EE94E00E94880480915E
:1015B000E8008E778093E8000895BC0184E00C94E5
:1015C000B30ABC0183E00C94B30A9C0184E08093CD
:1015D000E9009FEF8091E800915085FD06C085ED00
:1015E0008A95F1F700009111F5CF8091E80085FF11
:1015F0000CC050E040E066E070E0C9010E94880441
:101600008091E8008E778093E8000895CF93DF9370
:10161000EC0181E08093E9008FEF9091E800815028
:1016200095FD06C095ED9A95F1F700008111F5CF73
:101630008091E80085FF14C050E040E068E070E071
:10164000CE010E9488048091E8008E778093E800A4
:1016500088E0FE01AFEEB4E001900D928A95E1F7CB
:10166000DF91CF91089581E08093E00080E2809344
:10167000D8001092C9008FE19EE40197F1F700C0F5
:10168000000087E090EBDC0180934B0690934C06C2
:10169000A0934D06B0934E0688E19CE00FB6F894F7
:1016A000A895809360000FBE90936000FFCF80915B
:1016B000D30480FD0AC0E3E9F4E0118210821282B3
:1016C000339654E0EB3AF507C1F7269A35B13F7BE4
:1016D00025B120644FB7F89483E994E0FC0151915F
:1016E000CF0168E025B9000000C057FF35B9550F9C
:1016F000000000C000C000C035B900C06A9591F775
:10170000F4E08B3A9F0751F74FBF8FE594E00197C4
:10171000F1F700C000000895EF92FF920F931F931E
:10172000CF93DF938C01C3E9D4E0F12CE12CF801D5
:1017300094816091D5048091D404F4E0EF16F10413
:10174000FCF49923F9F09E014091D6040E943906D9
:101750002FEFE21AF20A239688E0E816F10439F72F
:101760000E94570BF801848190E0019681709927BF
:101770008483DF91CF911F910F91FF90EF90089597
:10178000992309F39E0140E0E1CF8F929F92AF929F
:10179000BF92CF92DF92EF92FF920F931F93CF935E
:1017A000DF93EC014C81042F10E09801D8010E94D6
:1017B000E92D9B01AC010E94D62D4B015C01E0E2BA
:1017C000F0E0E01BF10BA5E5B0E0AC019B010E944D
:1017D000D62D6B017C019F01DF010E94EA2C9B0149
:1017E000AC010E94E12D9B01AC01280D391D4A1D61
:1017F0005B1DC701B6010E949B2CF22E822F90E048
:1018000039E23F15D8F143E0249F9001112435952A
:101810002795122F109593E9C92E94E0D92E00E058
:1018200085E5E82EEF188E2D01FD8F2D9601412FB5
:101830006091D5040E9439060F5F53E0C50ED11C9C
:10184000083089F70E94570B9C8181E0992319F099
:10185000903219F48FEF8093250180912501890F33
:101860008C83DF91CF911F910F91FF90EF90DF90CC
:10187000CF90BF90AF909F908F90089525E530E076
:10188000A901481B590BCA019A01220F331F280FC7
:10189000391F37FFBCCF2F5F3F4FB9CF0F931F9337
:1018A000CF93DF93C3E9D4E0FE011182108212824C
:1018B000339684E0EB3AF807C1F710E000E080913E
:1018C0009104082E000C990B081719078CF18091D0
:1018D0002401082E000C990B801791074CF19E01F2
:1018E0004091D6046091D5048091D4040E943906B9
:1018F0000F5F1F4F23960830110509F70E94570B01
:101900008091230190919104980F909391042091DC
:101910002401280F20932401121614F497301CF090
:10192000819580932301DF91CF911F910F910895AD
:10193000198218821A82DCCFCF92DF92EF92FF9247
:101940000F931F93CF93DF93FC018281DD24DA9400
:1019500080FD02C0DD24D394C3E9D4E010E000E0B0
:10196000198218821A8294E0E92EF12CC12C809100
:1019700090048C0D8930CCF18770082E000C990BE7
:101980008017910791F48091D6048E9DA0018F9DC0
:10199000500D112455954795559547959E01609199
:1019A000D5048091D4040E943906CD0CF1E0EF1AE1
:1019B000F108E9F60F5F1F4F23960830110581F6F5
:1019C0000E94570B8091900491E0D91214C08111AC
:1019D00010C087E080939004DF91CF911F910F9109
:1019E000FF90EF90DF90CF90089587FFC6CF885F7C
:1019F000C4CF8150EFCF90E0019687709927EACF4E
:101A0000EF92FF921F93CF93DF93EC0183E9E82ECF
:101A100084E0F82E10E08C8197014091D60460910B
:101A2000D504810F0E943906115E83E0E80EF11C97
:101A3000183F89F70E94570B9A818C8190FF08C04C
:101A40008F5F8C83DF91CF911F91FF90EF9008956E
:101A50008150F7CF9091D30490FF0CC0E3E9F4E0FC
:101A6000818360834283339694E0EB3AF907C1F7B0
:101A70000C94570B08950F931F93CF93DF9300D0CF
:101A80000F92CDB7DEB78C018091920481110AC00C
:101A90009E012F5F3F4F4FEF6FEF0E9439068A8103
:101AA00080939204F8016481613069F0809192041E
:101AB00040E0662361F040E0623011F4409192040E
:101AC00080E060E004C06091920440E080E00E9409
:101AD0002A0DF801848190E0019663E070E00E9495
:101AE000C92C84830F900F900F90DF91CF911F919D
:101AF0000F910895CF93DF9300D00F92CDB7DEB74B
:101B00009091D30490FF0AC09E012F5F3F4F0E9427
:101B100039064B8169818A810E942A0D0F900F90AE
:101B20000F90DF91CF910895CF93DF93EC01E3ED18
:101B3000F4E0438162818C810E947A0D8C818F5FF9
:101B40008C83DF91CF910895CF93DF93EC01EC81EB
:101B5000F0E0ED58FA4F4491E3EDF4E062818181C9
:101B60000E947A0D8C818F5F8C83DF91CF910895D5
:101B7000CF93DF93C7E1D1E060E0CE010E94832DD7
:101B80002196C11584E0D807B9F7DF91CF91089568
:101B90006F927F928F929F92AF92BF92CF92DF927D
:101BA000EF92FF920F931F93CF93DF9387E7C82E97
:101BB00086E0D82E9FE6E92EF12CE701EC9736015E
:101BC0001BC0F50185909490692DC8010E94832D5A
:101BD000682DC80101960E94832D82E0A80EB11CD9
:101BE0000E5F1F4FC017D10761F78CE0680E711CA4
:101BF0002C96CE15DF0529F08E010C5011095301EA
:101C0000E0CF7E018CE3E80EF11C8CE3C80ED11C02
:101C10008FE5E81681E0F80681F6DF91CF911F91FC
:101C20000F91FF90EF90DF90CF90BF90AF909F907B
:101C30008F907F906F900895CF93C82F6FEF811191
:101C400062E283E290E00E94832D6FEFC11163E0B6
:101C500084E290E00E94832D6FEFC11168E285E27B
:101C600090E0CF910C94832D80E00E941C0E60E0E8
:101C700086E290E00E94832D0E94C80D0E94B80D5C
:101C800081E00C941C0E0F931F93CF93DF93C42F0E
:101C9000D0E0CC0FDD1F2CE0629FC00DD11D1124C0
:101CA0003CE3839FC00DD11D1124CE0187960E9475
:101CB0006F2D082F10E0102F0027CE0188960E946C
:101CC0006F2D9801282BC901DF91CF911F910F91A2
:101CD0000895462F843038F4753028F4663018F4AF
:101CE000672F0C94430E90E080E00895CF92DF922E
:101CF000FF920F931F93CF93DF936C010091030525
:101D000080912A02082BC7E0D0E010E0FC2EC80129
:101D10000C2E02C0959587950A94E2F780FD0CC0C1
:101D20002197A0F7F12C8F2DDF91CF911F910F916B
:101D3000FF90DF90CF900895B6018C2F0E94690E1E
:101D40000E944008019761F3EECFCF93DF93EC013F
:101D50000E94760EBE010E94690EDF91CF910C9415
:101D60004008FC01808191810E94A50E92959F7090
:101D7000963091F058F4925F9F70923058F4803F03
:101D800019F030F4883E30F481E008959A5FF4CF82
:101D9000843FD1F380E00895883EB0F3813FD1F7CE
:101DA000F3CF83E290E00E946F2D823289F484E2C7
:101DB00090E00E946F2D833059F485E290E00E94FC
:101DC0006F2D91E0883209F090E0892F817008959D
:101DD00080E0FCCFCF9384E090E00E946F2DC82F6D
:101DE00082E290E00E946F2D982F8C2FCF91089562
:101DF0004F925F926F927F928F929F92AF92BF921B
:101E0000CF92DF92EF92FF920F931F93CF93DF93C6
:101E1000FC016280448081E08483E3E7F5E0749014
:101E2000E2EFF5E0E491CBEAD4E033E9E32E34E0ED
:101E3000F32E43EDC42E44E0D42E52E0A52EBB2455
:101E4000B39488248A94912C55245A94E7190E2F20
:101E500010E082E0861530F08091D4048883809170
:101E6000D5048983411021C01B821A8297014A81BF
:101E7000698188810E943906259683E0E80EF11C6D
:101E8000CC16DD0631F7DF91CF911F910F91FF90B6
:101E9000EF90DF90CF90BF90AF909F908F907F900A
:101EA0006F905F904F900C94570B8B818823E9F0D3
:101EB00081508B83859DC00111246C8170E00E944C
:101EC000872CFB01FF27ED58FA4F8491E82FE71983
:101ED000E59DC0011124B8010E94872C8091D60491
:101EE000689FB00111247A83C1CF0E94452D2091B3
:101EF000D604269521582A9DA0012B9D500D112412
:101F0000452F5527841795070CF0B0CF82E0861532
:101F100088F40E94452DB4010E94C92C88830E9438
:101F2000452D2091D5042695622F70E00E94C92C82
:101F3000280F29831A828091D604893C20F088ECEE
:101F40008C838B8393CF8431D8F784E1F9CFCF9200
:101F5000DF92EF92FF926B017C010E942A06B7018B
:101F6000A60188E090E0FF90EF90DF90CF900C9476
:101F7000952D7F928F929F92AF92BF92CF92DF92D8
:101F8000EF92FF920F931F93CF93DF9300D00F92A6
:101F9000CDB7DEB7182FD62E042FC22E9091D304C2
:101FA00090FF29C0E92FE695AE2FB0E0AD56BE4FA9
:101FB0008C9180938E049E7F923071F59E012F5FED
:101FC0003F4F812F0E9439064B8169818A810E948F
:101FD0002A0D1093D404D092D5040093D604CC20BB
:101FE00051F06091D3047091D4048091D504909104
:101FF000D6040E94A70F0F900F900F90DF91CF9102
:102000001F910F91FF90EF90DF90CF90BF90AF9016
:102010009F908F907F900895823019F40091D6049C
:10202000D8CF863019F41091D404D3CF8930D9F3A6
:10203000893179F6E9512E2F2170722EE695F0E064
:10204000E259FA4F85909490992433E9E32E34E0D5
:10205000F32EB12CA12CC50123E0969587952A95E6
:10206000E1F7711013C0810F9701402F6D2D0E9471
:102070003906A80CB91C83E0E80EF11C2BEAE21625
:1020800024E0F20641F70E94570BA3CF212F281B13
:10209000822FEACFE3EDF4E0438121E1421B08F413
:1020A00040E021E0628181810C94B90FE3EDF4E01E
:1020B000438121E1420F08F44FEF21E062818181E9
:1020C0000C94B90FE3EDF4E0628121E1621B08F4A6
:1020D00060E021E0438181810C94B90FE3EDF4E0ED
:1020E000628121E1620F08F46FEF21E04381818179
:1020F0000C94B90FE3EDF4E0818121E0438162812A
:1021000088500C94B90FE3EDF4E0818121E0438124
:102110006281885F0C94B90F8091D704882319F0ED
:1021200081508093D7046091D3047091D40480913E
:10213000D5049091D6040C94A70F8091D7048330D6
:1021400018F48F5F8093D7046091D3047091D40406
:102150008091D5049091D6040C94A70FE3EDF4E0A0
:1021600083E0808311828FEF828383831482608176
:102170007181828193810C94A70F69EE7EEF90E0CC
:1021800080E00E94A12D60E082E090E00E94832D1B
:1021900060E083E090E00E94832D10922A0260E0CC
:1021A00084E090E00E94832D60E082E290E00E9453
:1021B000832D60E085E090E00E94832D60E086E062
:1021C00090E00E94832D6FEF87E090E00E94832DC6
:1021D00040E050E0BA0188E090E00E94952D60E078
:1021E0008DE090E00E94832D40E050E0BA0188E14C
:1021F00090E00E94952D60E087E190E00E94832DA1
:1022000040E050E0BA018CE190E00E94952D70E032
:1022100060E080E290E00E94A12D40E050E0BA0131
:1022200088E190E00E94952D80E00E941C0E0E94A3
:10223000340E40E050E0BA018FE090E00E94952D0E
:1022400040E050E0BA0183E190E00C94952D80913C
:10225000280290912702892B8093D0019091290226
:10226000992391F0892B8093D00120E082ED91E0B9
:10227000FC013191CF0131112F5FF1E0883D9F07C3
:10228000B9F721110E94C80948E050E06FE172E0FF
:1022900080ED91E00E94622D892BA9F088E0E0EDAD
:1022A000F1E0AFE1B2E001900D928A95E1F7E091A3
:1022B000E004F091E104309731F00280F381E02DE9
:1022C00080ED91E009940895882321F00E94CE09C1
:1022D0000C9427110895882339F090912802982BA7
:1022E000909328020C942711089590E080E00E94BA
:1022F0007D2D893E9E4F11F40C94D10E80E00895FF
:102300001F920F920FB60F9211242F933F934F936A
:102310005F936F937F938F939F93AF93BF93EF934D
:10232000FF938091E10082FF09C08091E20082FF6B
:1023300005C08091E1008B7F8093E1008091DA00FD
:1023400080FF24C08091D80080FF20C08091DA00F7
:102350008E7F8093DA008091D90080FF9DC080E15C
:1023600089BD82E189BD09B400FEFDCF81E0809383
:10237000F9048091EC04811109C00E9438040E9484
:1023800003058091E20084608093E2008091E10087
:1023900080FF17C08091E20080FF13C08091E200AF
:1023A0008E7F8093E2008091E20080618093E20062
:1023B0008091D80080628093D80019BC85E080931A
:1023C000F9048091E10084FF2BC08091E20084FF3A
:1023D00027C080E189BD82E189BD89B5982F9170C0
:1023E00080FFFBCF8091D8008F7D8093D8008091B3
:1023F000E1008F7E8093E1008091E2008F7E8093E8
:10240000E2008091E20081608093E2008091FA0412
:10241000882309F447C084E08093F9048091F9048B
:102420008091E10083FF27C08091E20083FF23C0F9
:102430008091E100877F8093E10082E08093F9043E
:102440001092FA048091E1008E7F8093E1008091E8
:10245000E2008E7F8093E2008091E20080618093B1
:10246000E20042E060E080E00E94D1048091F00050
:1024700088608093F000FF91EF91BF91AF919F91A1
:102480008F917F916F915F914F913F912F910F901D
:102490000FBE0F901F90189519BC1092F90410925E
:1024A000EC0474CF8091E30087FD93E09093F904EE
:1024B000B5CF78941F921FB61F9211248F939F93CC
:1024C000AF93BF938091E5049091E604A091E70457
:1024D000B091E8040196A11DB11D8093E50490938D
:1024E000E604A093E704B093E804BF91AF919F91F5
:1024F0008F911F901FBE1F9018959C014FB7F894A5
:102500008091E5049091E604A091E704B091E8047D
:102510004FBF821B930B08952FB7F8948091E50469
:102520009091E604A091E704B091E8042FBF0895CC
:102530009091D30490FF3DC09170811129C09260A9
:102540009093D304662351F06091D3047091D40426
:102550008091D5049091D6040E94A70F6091D30476
:10256000669570E04BE050E088E191E00E94552DC7
:10257000892BA9F010928F0481E080938B0420E0D6
:102580004091D6046091D5048091D4040C94B90F85
:102590008B3210F09465D4CF880F982BD1CF81E087
:1025A00080938F040E948C129093890480938804F6
:1025B000E3CF08958091D3048695815009F48AE28F
:1025C00061E00C9498128091D30486958F5F8B32D2
:1025D00008F081E061E00C9498129091D30490FF90
:1025E00007C09695981720F0961710F40C94E312F4
:1025F00061E00C9498120E948C129C0190918404CA
:1026000080918504982B21F03093810420938004DD
:102610009091860480918704982B21F030937F0459
:1026200020937E04E091E004F091E104309749F0BA
:1026300082E0809382040480F581E02D82E894E0BA
:102640000994089590E080E00E94020690E080E006
:102650000E94EC05109227020E94271186E0E2E812
:10266000F4E0DF011D928A95E9F710927C04109244
:102670007B0410927D040C94FB12809303050C9450
:10268000221380910305982F9670963019F4886074
:102690000C943D13877FFCCF21E030E001C0220F76
:1026A0008A95EAF720958091030582230C943D13C7
:1026B00090911E028095892380931E02282F2770F7
:1026C00091F4282F082E000C330B9217130659F0A3
:1026D00090913A0292FD07C08595859585950E9457
:1026E0004C1310921E020895CF93C0913A02C2FB80
:1026F000992790F9981799F080FBC2F9C0933A0294
:102700006091390284E090E00E94832D6C2F82E278
:1027100090E00E94832D82E0CF910C945813CF91CA
:10272000089521E030E001C0220F8A95EAF78091F8
:102730000305822B0C943D1380932A020C942213E0
:1027400010922802E2EDF1E086E0DF011D928A9509
:10275000E9F70C9422131F93CF93DF93CDB7DEB725
:10276000AA970FB6F894DEBF0FBECDBF8BEF94E0F3
:102770002091F100DC012D93CD01B5E083309B0762
:10278000B9F78091FC04833009F472C0B8F4813049
:1027900009F449C0823009F4B3C08091E80083FF96
:1027A0008BC28091FB049091FC049A3008F084C2A3
:1027B000E92FF0E0E650F24D0C94DD2C8A3009F45C
:1027C0008EC08B3009F471C0893039F78091FB04D9
:1027D000813219F78091FF0490910005009711F064
:1027E0000297D9F68091E800877F8093E800809176
:1027F000E80082FF38C09091F3008091F2000297C8
:1028000031F48091F100813011F0863021F4809113
:10281000F1008093EE048091E8008B778093E800CC
:102820000E94B204BACF8091FB04813A09F0B5CF7F
:102830008091E800877F8093E8008091FF04909169
:102840000005892B61F468E08FEE94E070E00E944F
:1028500064058091E8008B778093E8009ECF60E06C
:1028600090E080E0F3CF8091F9048111C0CF95CF43
:102870008091FB04813A09F090CF8091FF04909100
:102880000005892B09F089CF8091E800877F80932C
:10289000E8008091E80080FFFCCF809126018093C2
:1028A000F1008091E8008E77B9CF8091FB048132EE
:1028B00009F073CF8091FF0490910005892B09F0F6
:1028C0006CCF8091E800877F8093E8000E94B2047B
:1028D0008091FD04809326010E94A0135ECF809119
:1028E000FB04813209F059CF8091E800877F809303
:1028F000E8000E94B2048091FE048093ED044DCF65
:102900008091FB04813A09F048CF8091E800877FED
:102910008093E8008091E80080FFFCCF8091ED0477
:10292000BECF803899F0823809F0C6C18091FF048B
:102930008F70873008F0C0C18093E9008091EB0070
:1029400085FB882780F91092E90006C08091F70482
:102950009091F804911182609091E800977F909394
:10296000E8008093F1001092F1008091E8008E77EA
:102970009FC1882309F48DC1823009F09DC18091E7
:10298000FD04811190C18091FF048F702FEF280FFB
:10299000263008F091C18093E9002091EB0020FFE0
:1029A00082C1933031F48091EB0080628093EB0020
:1029B0007AC19091EB0090619093EB0021E030E0C0
:1029C00001C0220F8A95EAF72093EA001092EA00EC
:1029D0008091EB008860EACF81116EC11091FD04F7
:1029E0001F778091E3008078812B8093E3008091B2
:1029F000E800877F8093E8000E94B2048091E8009D
:102A000080FFFCCF8091E30080688093E30082E048
:102A1000111183E08093F9044FC18058823008F08F
:102A20004BC12091FD043091FE042C3DE3E03E07B4
:102A3000A1F583E08A838AE289834FB7F894DE01A7
:102A4000139620E03EE051E2E32FF0E05093570070
:102A5000E49120FF03C0E295EF703F5FEF708E2F8F
:102A600090E0EA30C0F0C7968D939D932F5F24319C
:102A700059F74FBF8091E800877F8093E8006AE2B2
:102A800070E0CE0101960E9464058091E8008B778A
:102A90008093E80011C1C096E7CF8091FF04909128
:102AA0000005432F55274330510509F44AC078F5F6
:102AB0004130510509F47AC08BE590E0E7E6F7E094
:102AC0004230510509F0F8C02091E800277F20939B
:102AD000E80020910105309102058217930708F460
:102AE0009C0140E02115310509F065C0411163C02A
:102AF0008091E80082FDC9CF8091F904882329F2F2
:102B0000853019F28091E80083FFF2CFBECF4132C9
:102B1000510509F43CC04232510509F0CDC0833063
:102B2000910508F0C9C0FC01EE0FFF1FEF53FE4FE7
:102B30000190F081E02D82549E4FDC018C9190E059
:102B40001AC0332721303105D1F02115310561F04C
:102B50002230310509F0B0C0E4EDF7E0E4918E2FAA
:102B600090E0E4EDF7E007C0E8EFF7E0E4918E2FA6
:102B700090E0E8EFF7E0009709F49EC0A5CFE4EEFF
:102B8000F7E0E4918E2F90E0E4EEF7E0F4CF8330AD
:102B9000910508F091C0880F991FFC01E953FE4F81
:102BA0000190F081E02D89E090E08ECF82E190E00D
:102BB000E2ECF7E089CF8091F904882309F465CF2E
:102BC000853009F462CF8091E80083FD5ECF80916B
:102BD000E80082FD8DCF8091E80080FF83CF909147
:102BE000F3008091F2002115310519F0883091052C
:102BF00050F041E0089709F040E08091E8008E77BE
:102C00008093E8006FCF44914093F10031962150BA
:102C100031090196E8CF803809F04EC08091E80074
:102C2000877F8093E8008091FA048093F1009DCE25
:102C3000811142C01091FD041230F0F58091E8003E
:102C4000877F8093E8001093FA040E94B204112356
:102C500011F084E005C08091E30087FDFACF81E0A8
:102C60008093F90442E061EC81E00E94D10442E2E9
:102C700061EC84E00E94D10442E261EC82E00E94B7
:102C8000D10442E260EC83E00E94D1048091F90417
:102C900013C08091FD04813079F481E0933009F014
:102CA00080E08093F8041092E9008091E800877F2B
:102CB0008093E8000E94B2048091E80083FF0AC07C
:102CC0008091E800877F8093E8008091EB0080622C
:102CD0008093EB00AA960FB6F894DEBF0FBECDBF6F
:102CE000DF91CF911F9108951F920F920FB60F920F
:102CF00011242F933F934F935F936F937F938F9301
:102D00009F93AF93BF93CF93DF93EF93FF93D091B4
:102D1000E900DF708091EC00C82FC17080FDC0E831
:102D20001092E9008091F000877F8093F000789402
:102D30000E94AB131092E9008091F00088608093AC
:102D4000F000CD2BCF70C093E900FF91EF91DF91A0
:102D5000CF91BF91AF919F918F917F916F915F9133
:102D60004F913F912F910F900FBE0F901F9018958C
:102D70008823B1F19CEF980F913A70F4E2EDF1E005
:102D80009191891303C0DF0111971C9291E0E83DF6
:102D9000F907B1F70C94271190E2980F983050F48E
:102DA000877091E001C0990F8A95EAF7892F0E94F8
:102DB000CE09F0CF9BE5980F933020F490E080E0AF
:102DC0000C94020698E5980F973120F490E080E08B
:102DD0000C94EC05803F20F00E94CF060C94FB126F
:102DE0000895CF93C82F882309F456C08CEF8C0F19
:102DF000813AF8F4E2EDF1E088ED91E0DF012D9108
:102E0000C21759F08A179B07D1F76C2F80ED91E01C
:102E10000E94D205CF910C9427112191C21303C0B7
:102E2000DF0111971C928E179F07B9F70E94271197
:102E3000ECCF80E28C0F883068F4C77021E030E07E
:102E400001C0220FCA95EAF780912802822B809355
:102E50002802E0CFEBE5EC0FE33040F4F0E0E95D71
:102E6000FE4F808190E0CF910C940206E8E5EC0FD4
:102E7000E73150F4F0E0EE0FFF1FE65DFE4F80817A
:102E80009181CF910C94EC05C03F30F08C2F0E94C3
:102E90008A07CF910C94FB12CF9108951F93CF9383
:102EA000DF93182FD0E0C0E0893311F4C0E5D0E003
:102EB000812F0E94F116209731F4812FDF91CF915D
:102EC0001F910C94B8168FE99FE00197F1F700C0AD
:102ED00000002197F0CF0F931F93CF93DF93C62F5E
:102EE000D42F022FFC0182818823A1F06093060574
:102EF0000E948C129093050580930405C77081E0B1
:102F000001C0880FCA95EAF7DF91CF911F910F9109
:102F10000C946B1180910605681335C080910405EF
:102F2000909105050E947D12883C910560F510E2A4
:102F30001D0FCD17B9F080E28C0F883040F4C770B8
:102F400081E001C0880FCA95EAF70E946411183029
:102F500048F481E09D2F977001C0880F9A95EAF799
:102F60000E946B11802F0E944E17183098F4D77072
:102F700081E001C0880FDA95EAF7DF91CF911F91C8
:102F80000F910C946411C77081E001C0880FCA953D
:102F9000EAF7F3CFDF91CF911F910F9108953F9200
:102FA0004F925F926F927F928F929F92AF92BF9259
:102FB000CF92DF92EF92FF920F931F93CF93DF9305
:102FC00000D000D00F92CDB7DEB78C01FC01838119
:102FD0009481892B31F08081918189238F3F09F081
:102FE000DEC50F900F900F900F900F90DF91CF9153
:102FF0001F910F91FF90EF90DF90CF90BF90AF9017
:103000009F908F907F906F905F904F903F9008952A
:103010000E94760EF82E682F89819A810E94080AF4
:1030200069817A818F2D0E94690E7C01F80182816D
:10303000882309F438C5970122513F4520313105D5
:1030400008F09FC58FEF93E00E946F2DFEEEEF0E0C
:1030500057E1852E992493948823A1F180911E0233
:10306000877009F4BECFF8018281882309F4B9CFB3
:1030700080913A0282FDB5CF82E00F900F900F90C1
:103080000F900F90DF91CF911F910F91FF90EF90D4
:10309000DF90CF90BF90AF909F908F907F906F9078
:1030A0005F904F903F900C945813811424E0920647
:1030B000A9F2C4010E946F2D811101C0EA943FEF73
:1030C000831A930AE110F1CF1C821B82442443949B
:1030D0004AE0342E74014FEFE41AF40AC4010E944E
:1030E0006F2D89831A82882309F4B8CF9FEF980F38
:1030F000933000F58A83498282E0880E911CC701D3
:103100000E946F2D8B83882309F4A8CFFE0131968E
:103110007F01F70120812223E9F2213009F049C023
:1031200091818281913041F4F2E0EF0EF11C0E9416
:103130004E1709C04701EACF923049F422E0E20E6F
:10314000F11C0E94F1163FEFE31AF30AE2CF93302D
:1031500031F432E0E30EF11C0E94B816F4CF943043
:1031600021F04FEFE41AF40AEECF92E0E90EF11CE1
:1031700030E020E0B7016F5F7F4FF701418180535E
:10318000990B8A30910550F021503109E0F28FE916
:103190009FE00197F1F700C00000F6CF329EF001EA
:1031A000339EF00D11249C012E0F3F1F842F7B01B5
:1031B000E1CFE22FF0E0E754FE4F5490822F869546
:1031C0008695869590E0FC01E755FE4F6490277048
:1031D000712C022E02C0759467940A94E2F7E1E024
:1031E0006E227724FC01E756FE4FA490B12C022EEC
:1031F00002C0B594A7940A94E2F7F1E0AF22BB2491
:10320000FC01E757FE4FC490D12C02C0D594C7945F
:103210002A95E2F721E0C222DD246114710419F03D
:1032200081EE0E94F116A114B10419F086EE0E94FD
:10323000F116852D0E944E17AB2819F086EE0E94DC
:10324000B816672819F081EE0E94B816CD2809F447
:103250007ACF8CE26CCF81E00E94911303C081E0B1
:103260000E944C130E944113F9CE82E0F9CF43EF44
:10327000E4164CE5F40609F482C0C0F498EDE916B2
:103280009CE5F90609F477C0E9EDEE16ECE5FE06DB
:1032900009F485C0F7EDEF16FCE5FF06A9F426E278
:1032A00041EE61EEC8010E946B17D8CE25EFE21601
:1032B0002CE5F20609F46BC008F465C046EFE4168D
:1032C0004CE5F40609F467C0F8018281882309F40B
:1032D00077C410920605F3E0EF16FDE5FF0608F04F
:1032E00061C02AEFE2162CE5F20630F4C7018250E5
:1032F0009C45449708F062C00E94EA0E90933A02FF
:103300008093390281E1E8168CE5F80609F43CC1A6
:1033100008F0B1C0E9E0EE16ECE5FE0609F422C1C2
:1033200008F07AC025E0E2162CE5F20609F412C195
:1033300008F05CC043E0E4164CE5F40609F400C173
:1033400008F004C180913902816092E0E9169CE5A1
:10335000F90609F4F8C060913902F0903A0284E06D
:1033600090E00E94832D6F2D82E290E00E94832DD9
:103370000E94A01373CE27E245EE65EE93CF26E2BE
:1033800041EE60EE8FCF27E245EE64EE8BCF26E272
:1033900041EE62EE87CF27E245EE66EE83CF28E26C
:1033A00041E0EBCF31E6E3163DE5F30609F4A4CFA7
:1033B00045EAE4164DE5F40609F49ECF36E1E3163E
:1033C0003CE5F30609F015C4809128028A7A91E061
:1033D00009F490E09093D90169E2811165E380EDF1
:1033E00091E00E94D2050E94271138CE80913902C7
:1033F0008062E7E0EE16ECE5FE0609F4A4C08091D9
:1034000039028061F8E0EF16FCE5FF0608F49BC086
:1034100080913902806497C0809139028B7F2DE0C2
:10342000E2162CE5F20609F48EC078F48091390298
:103430008E7F4BE0E4164CE5F40609F484C008F4F2
:1034400097C0809139028D7F7EC0809139028F7E36
:103450009FE0E9169CE5F90609F475C080913902F0
:10346000877FE0E1EE16ECE5FE0608F46CC0809183
:1034700039028F7D68C0FDEFEF16FCE5FF0609F409
:103480007FC060F535E1E3163CE5F30609F48EC034
:1034900088F483E1E8168CE5F80609F47FC008F4A7
:1034A00077C00E94A01390913902892F97FB87F96A
:1034B000805849C0EBEFEE16ECE5FE0609F44EC06D
:1034C00008F05AC080913A0281602AEFE2162CE59A
:1034D000F20609F040CF80933A023DCF31E0E31687
:1034E0003DE5F30609F46EC0B8F48FEFE8168CE5FD
:1034F000F80609F457C080913A028360E1149DE513
:10350000F90648F380913A02982F909591708E7F3A
:10351000892B90FB81F9DFCFE1E6EE16EDE5FE06A3
:1035200009F456C0F5EAEF16FDE5FF0609F457C0A9
:1035300022E0E2162DE5F20609F00DCF60E043C06F
:103540008091390282608093390205CF80913902DF
:103550008460F9CF809139028860F5CF80913A027A
:103560008260B9CF0E94A013809139028068EBCFAE
:10357000809139028C60E7CF80913A028E7FABCF89
:1035800080913A028D7FA7CF809139028F7BDBCF6C
:103590000E94A013809139028F77D5CF8091390294
:1035A000837FD1CF80913A028C7F95CF8091390271
:1035B00082FB992790F921E0922790FB82F990FBFA
:1035C00083F9C1CF61E08EE090E00E94832DC3CEED
:1035D00090913902892F8F7E94FF8061B4CF9091B2
:1035E0003902892F8E7F90FF8160ADCF85E3F3C2D2
:1035F00081608093D30461E086950E9498122ECD5D
:103600004AED52E163EE72E10E94240627CD43EEBB
:1036100052E16AED72E1F8CF43E850E16AE770E108
:10362000F3CF42E650E16EE670E1EECF4AE450E1BE
:1036300066E570E1E9CF46E550E16AE470E1E4CF88
:103640004DE950E16CE870E1DFCF61E081E0D5CF7A
:1036500065E082E00E94ED1201CD68E086E0FACFDD
:1036600064E18FE0F7CF67E185E1F4CF62E289E1C1
:10367000F1CF61E083E2C1CF0E94A013EFEFF4E34A
:103680002CE0E150F0402040E1F700C0000077C29C
:1036900081E0D5C280E0D3C2C7010E94DF09D82EE5
:1036A000DFC22F2D2F70C22E8F2D807F19F0C29474
:1036B00090EFC922DD20B9F0CC2069F080E28E0DB8
:1036C000883010F0811009C080912802C82AC09269
:1036D00028020E9427118E2D4DC080912702C82AF2
:1036E000C0922702F6CF8E2D0E94B816CC2009F486
:1036F00043C080E28E0D883010F0811004C08C2D04
:103700000E94CE0906C0C09480912702C822C092B0
:1037100027020E94271130C03F2D3F70C32E8F2DEE
:10372000807F803219F0C29480EFC822882089F00F
:1037300041E0841609F480C0DD2009F48AC0BB2072
:1037400009F480C0F801858180FFC5CF8F70858323
:1037500079C020913A0222FF4CC0DD2009F443C019
:10376000CC2039F080912802C82AC09228020E94F9
:10377000271180E00E94F116E92DE850FF0B3497E5
:1037800020F40E9418060E943D0AAA2009F429CCC0
:1037900080911E0280FD25CCF801128285958595C9
:1037A00085950E949113C8010E94CF1780911E0237
:1037B0008595859585950F900F900F900F900F90A0
:1037C000DF91CF911F910F91FF90EF90DF90CF90FD
:1037D000BF90AF909F908F907F906F905F904F9031
:1037E0003F900C944C1380E00E94B816CC2021F23C
:1037F00086CFDD20A1F090912902892F8C29B1106C
:1038000003C00E946B11B8CFE1E0BE12FACF22FDD7
:10381000B3CF981709F4B0CF80932902ADCFB11080
:1038200006C00E94C8098C2D0E946411A5CFF1E04A
:10383000BF1609F4A1CFF5CFDD2031F025E02B151F
:1038400008F49ACF8C2DDDCF34E03B1508F494CFEB
:10385000EACFBB2041F3F9E38F121EC12FEF37EE01
:1038600043E0215030404040E1F700C0000014C167
:103870008F2D86958695837061F0813009F07CCF1D
:10388000C7019370D11002C090E080E00E94EC0567
:1038900073CFC7019370D11002C090E080E00E9406
:1038A00002066ACF8E2DDD2029F00E948A070E9431
:1038B000FB1262CF0E94CF06FACF8F2D837091F555
:1038C000D1105ACF4E2D429546954770440F440F64
:1038D0008E2D8F70042E01C0880F0A94EAF72E2DCA
:1038E0002071E4FE07C02FE030E001C0220F4A95AE
:1038F000EAF720953F2D369536953370323069F0D2
:1039000050F440912A02313029F0822B84230E9406
:103910009C1332CF842B822BFACF282B80912A0242
:103920008227F5CF8695DD2011F08F2D81708823B9
:1039300009F422CF4E2D429546954770440F440F0F
:103940008E2D8F70042E01C0880F0A94EAF72E2D59
:103950002071E4FE07C02FE030E001C0220F4A953D
:10396000EAF720953F2D369536953370323069F061
:1039700050F440910305313029F0822B84230E94BA
:103980003D13FACE842B822BFACF282B809103058E
:103990008227F5CF8F2D8F70F82EDD2021F00E9429
:1039A00091138E2D2ECF8E2D0E9464118F2D0E948B
:1039B0004C13E2CE8E2D92EF8916B1F1981570F06E
:1039C000E0EF8E16D1F0F1EF8F1691F0DD2009F4C3
:1039D0005EC0B11080CE8F2D8F712AC023EF82166A
:1039E00051F134EF8312F2CF80913A0282FF2FC05F
:1039F0008F2D8F71DD20D9F21BC0DD2081F044E0D6
:103A00004B1508F4B9CE2F2D2F7181E090E001C045
:103A1000880F2A95EAF7909103058927B0CF85E0B2
:103A20008B1508F4A9CEEFCF8F2D8F71D110BFCF9A
:103A30000E949113A1CE80E0DD2009F4A0CF9F2D3C
:103A40009F7181E001C0880F9A95EAF798CFDD2039
:103A500099F09F2D9F71F92E892F0E9491138091CB
:103A60003A0282FD07C0E8E0FE9EC0011124836097
:103A700080931E028F2DDCCF81E00E945813F1E06D
:103A8000FB1508F079CE82E00E94581375CEBB205A
:103A900039F0893309F4E2CE8E2D0E94B8166CCE2F
:103AA0008F2D8F7184CFF0E1EF16FFE5FF0609F44B
:103AB000D6CB21E1E2162FE5F20609F4D6CB9091A0
:103AC0000401911129C09701215031092E3F310580
:103AD00028F04FEEE4164FEFF406F0F099E69093DD
:103AE0002E02F0923002E0922F028093310230E0F9
:103AF00020E08EE292E0FC014191CF01240F311DC4
:103B0000F2E082339F07B9F72093320265E070E05C
:103B10008EE292E00E94182C8091D80181110EC093
:103B2000F8018281882351F00E94180680FD03C0AD
:103B300083E50E94F11681E08093D801E114FCE551
:103B4000FF0609F094CBF8018281882309F486CA24
:103B500081E00E94360A8091D3048E7F8093D30443
:103B600010928F04FFEF20E732E0F1502040304008
:103B7000E1F700C000000E94570B0E94700A0E94EB
:103B8000330B30E1E3163FE5F30609F464CB41E182
:103B9000E4164FE5F40609F092CF82E05DCB85E0B4
:103BA000DE01119601900D928A95E1F7F8012281CC
:103BB00089819A8121112CCA0E94DF09F82E30CA0E
:103BC000F6E1EF16FCE5FF0609F083C08091D9010C
:103BD00081110CCD89E2E2EDF1E028ED31E0919127
:103BE000891303C0DF0111971C922E173F07B9F705
:103BF000FACB2AE5E2162DE5F20609F449CD68F480
:103C0000E1144CE5F40609F437CD8EEDE8168CE5A9
:103C1000F806B9F40E94BD1021CA9BE5E9169DE59E
:103C2000F90609F437CDECE5EE16EDE5FE0649F4AC
:103C300080913A0282FB882780F991E089270E94CF
:103C40007413F8018281E080F180882309F424CD87
:103C5000C7010E94760ED82E682FC7010E94080A5D
:103C6000B7018D2D0E94690E0E9440087C01882EAC
:103C7000F801D280B580B2943FE0B32280911E0259
:103C80008770C1F0AD2CDD20B1F08F2D807F8034A6
:103C900021F080E28E0D883068F080913A0282FD3A
:103CA00009C082E00E94581380911E028770AA24E6
:103CB000A3948111A12C9F2C92942FE09222FBE0DF
:103CC000F91508F459CDE92DF0E0EC5FF14D0C94B5
:103CD000DD2C809128028272FCECEF16FCE5FF06D9
:103CE00009F4AECC08F06DC036ECE3163CE5F30603
:103CF00009F492CCE8F593ECE9169CE5F90609F491
:103D00007FCC28F5F2ECEF16FCE5FF0609F099CF21
:103D10008091D30480FF6CCC8E7F8093D30460911C
:103D2000D3047091D4048091D5049091D6040E945C
:103D3000A70F10928F044FEF80E792E04150804030
:103D40009040E1F700C000000E94570B87C924ECA7
:103D5000E2162CE5F20609F45ACC4AE750E163E892
:103D600070E135ECE3163CE5F30609F44DCC69CF80
:103D700049ECE4164CE5F40609F458CC88F4E7EC79
:103D8000EE16ECE5FE0609F44CCC4EE650E162E698
:103D900070E1F8ECEF16FCE5FF0609F435CC51CFE5
:103DA0002AECE2162CE5F20609F445CC4CE850E189
:103DB0006DE970E13BECE3163CE5F30609F424CC35
:103DC00040CF41EDE4164CE5F40609F449CCB8F4D3
:103DD0009EECE9169CE5F90609F43ACC08F435CCDA
:103DE000FFECEF16FCE5FF0609F437CC6EE089E046
:103DF00020EDE2162CE5F20609F42CCC22CF34EDAE
:103E0000E3163CE5F30609F431CC78F482EDE816CC
:103E10008CE5F80609F427CC61E088E193EDE9161A
:103E20009CE5F90609F4E9CB0CCFE5EDEE16ECE5DF
:103E3000FE0609F41ECC6AE285E2FDE5EF16FF06F8
:103E400009F408CCFECE1F93CF93DF938091EB0152
:103E5000807FA9F48091E801882389F080911D0278
:103E6000D091EC016091E6017091E701A091E90128
:103E7000B091EA01C62FC72316E0D81304C0DF9122
:103E8000CF911F91089590E0109711F0CF3F19F452
:103E900001968770F2CF189F9001199F300D112461
:103EA000F901E351FE4F41814713F2CF40814613A0
:103EB000EFCF42814111ECCF438154814A1B5B0B10
:103EC000483C510528F78091EB018F708061809309
:103ED000EB01F901EE50FE4F80818F70806180838D
:103EE00086EE91E00E94CF17DF91CF911F910C9445
:103EF000D509AF92BF92CF92DF92EF92FF920F93CC
:103F00001F93CF93DF93CDB7DEB761970FB6F894C9
:103F1000DEBF0FBECDBF8C0185E0F801DE011D962E
:103F200001900D928A95E1F7F801E28086EEA82EC5
:103F300081E0B82E6091E9017091EA016115710587
:103F400009F432C19091E6014091E701892F842361
:103F50008F3F09F429C120813181C380D480F09042
:103F6000E801F601E61BF70BFF2009F4E8C0809199
:103F7000EB01582F507FE83CF10508F0ABC0511120
:103F800077C0FE2C431321C092131FC0E1101DC047
:103F90008F7080618093EB01C5010E94CF178091E3
:103FA000EB01F80185838F2D61960FB6F894DEBF83
:103FB0000FBECDBFDF91CF911F910F91FF90EF907A
:103FC000DF90CF90BF90AF900895CD2829F0822F39
:103FD00083238F3F09F003C180E0F82FF170DF2EBB
:103FE00080FF3CC080911D024091EC0156E084139B
:103FF00015C02D873E878D859E850E94A50E292F91
:1040000022952F702230F0F0243018F59F70F1F0D7
:10401000F8019581907FD1F4D12C1EC090E0589F7B
:10402000F001599FF00D1124E351FE4F61813613C9
:1040300006C06081261303C06281E6120FC001969C
:104040008770D5CF9F7011F0882331F3805E883060
:1040500018F3C8010E94CF17FD2CA5CFEE2009F45C
:10406000A2CF8091EB0181608093EB01F12C9BCF7B
:10407000431306C0921304C0F801EE2009F479C07E
:10408000C8010E94B10E882309F1EE20F9F0809159
:10409000EB01803270F02091E6013091E701388722
:1040A0002F831986DB86CA868C87CE0107960E94ED
:1040B000CF1786E0F801A6EEB1E001900D928A9547
:1040C000E1F70E94231FFF24F3946DCFC8010E94E3
:1040D000CF17F9CF51110AC086EE91E00E94CF1799
:1040E00086E0F50111928A95E9F7C0CF43130FC01E
:1040F00092130DC0E1100BC0F8018583C8010E9426
:10410000CF1786E0F50111928A95E9F74CCFC801E7
:104110000E94B10E8823D1F2EE20C1F28091EB0112
:10412000803238F22091E6013091E7013A83298309
:104130001B82DD82CC828E83CE010196B8CFE83C13
:10414000F105F8F6FE2CEE2009F243131FC092137E
:104150001DC08091EB0180FD10C0982F907F69F009
:10416000F8018583903F31F0982F907F905F8F709A
:10417000892B8583C8010E94CF1786E0F801A6EE3F
:10418000B1E001900D928A95E1F70DCFC8010E9430
:10419000B10E81118ECF8091EB0181608093EB0194
:1041A000C8010E94CF17FFCEEE2009F48FCFC801BF
:1041B0000E94B10EF82E882309F488CF86E0F8011A
:1041C000A6EEB1E001900D928A95E1F78091E601AB
:1041D0009091E7010E94A50E0E94231FE4CE81E08A
:1041E0008E25FBCE1F93CF93DF93CDB7DEB76797B6
:1041F0000FB6F894DEBF0FBECDBF4B8B5C8B6D8BC3
:104200007E8B8F8B6111109227021A8A198A85E0A2
:10421000FE017396DE011D9601900D928A95E1F7DD
:1042200086E0FE013D96DE01179601900D928A957B
:10423000E1F7CE0107960E94791F811112C086E036
:10424000FE013796DE01119601900D928A95E1F7F5
:104250008A859B85892B29F088859F8189238F3FBB
:10426000B1F516E080911D029091EC0189131DC0FB
:1042700067960FB6F894DEBF0FBECDBFDF91CF912A
:104280001F91089596E0929FD001939FB00D112445
:10429000A351BE4FFE01319601900D929A95E1F720
:1042A0008093EC010E94D509DCCF819FC0011124CD
:1042B00083519E4F0E94791F8823D1F280911D0265
:1042C00090E001968770992780931D02CBCF2091B3
:1042D000EC0130E0C90101968770992740911D02D9
:1042E0004817190679F60E94A0131092EC0110925B
:1042F0001D0286E0E6EEF1E0DF011D928A95E9F706
:10430000B0CF6F927F929F92AF92BF92CF92DF9287
:10431000EF92FF920F931F93CF93DF9300D000D0C3
:104320000F92CDB7DEB78E010F5F1F4F85E0F8010A
:1043300011928A95E9F798E5E92E91E0F92E9924F2
:104340009394CC24C394D12C33E6A32E31E0B32E26
:10435000F70181917F018F3F09F447C0F894E82F5E
:10436000E295EF70F0E021A18F70A60102C0440F2A
:10437000551F8A95E2F7CA01922F982B91A392A11B
:104380008095892382A3789400C08EE5682E81E011
:10439000782ED801692D6095F30191913F018D919F
:1043A0009D01215031099F3F09F464C0492F429576
:1043B0004F7050E0FA0140A150E09F7002C0559547
:1043C00047959A95E2F740FD55C08929F901808308
:1043D000A614B70409F7F701319780818F3F11F0D8
:1043E0000E94E607F0EAFA95F1F7990C2EE5E2163D
:1043F00021E0F20609F0ACCF45E050E0B80184E3DB
:1044000092E00E94622DFF24F394009709F4F12CAE
:10441000892B91F185E0F801A4E3B2E001900D92BF
:104420008A95E1F781E080932D020E948C1290938F
:104430002C0280932B0280912B0290912C020E94DF
:104440007D120597E8F08091340280937604809184
:1044500035028093770480913602809378048091AE
:104460003702809379048091380280937A04109205
:104470002D0206C08623AACF80912D028111DBCFA9
:1044800080910401882321F00E942C2C811114C0FA
:104490008F2D0F900F900F900F900F90DF91CF9175
:1044A0001F910F91FF90EF90DF90CF90BF90AF9052
:1044B0009F907F906F9008950091330210E00E94CA
:1044C000042CF801E25DFD4F80838091330281115D
:1044D00008C090912E029936B9F68F5F809333020F
:1044E000D3CF8430D1F730E020E08EE292E0FC01BF
:1044F0004191CF01240F311DF2E082339F07B9F7BC
:1045000080912E02893691F48091320282130EC07E
:1045100080912F02909130028F3E2FEF920730F45E
:1045200020913102222329F00E94F11610923302C9
:10453000ABCF0E94B816FACF0F931F93CF93DF93A0
:10454000CDB7DEB72A970FB6F894DEBF0FBECDBF4A
:10455000182F092F1F830E8381E088870E948C12F9
:104560008160782F9A8789874E815F8168858A85E7
:104570000E94F2201A8309831B820E948C128160A0
:10458000782F9D838C8349815A816B818D812A96F6
:104590000FB6F894DEBF0FBECDBFDF91CF911F9154
:1045A0000F910C94F2201F921FB61F9211248F932B
:1045B0009F93AF93BF938091E404811113C08091C6
:1045C000E5049091E604A091E704B091E8044196D7
:1045D000A11DB11D8093E5049093E604A093E70428
:1045E000B093E804BF91AF919F918F911F901FBE30
:1045F0001F901895CDB7DEB7AD970FB6F894DEBF14
:104600000FBECDBF84B7877F84BF0FB6F894A8953F
:1046100080916000886180936000109260000FBEFE
:1046200080E890E00FB6F894809361009093610069
:104630000FBE85B7806885BF85B7806885BF84EE6B
:1046400097E09093CF018093CE010E9438040E949E
:1046500003058091E20084608093E2007894809169
:10466000F9048823A1F01091E9001F709091EC00EB
:10467000892F817090FD80E8182B1092E9008091BD
:10468000E80083FD0E94AB131F701093E90082E0E5
:1046900084BD93E095BD9AEF97BD80936E000E9414
:1046A000D10E811102C00E94340E08E511E06EE5C2
:1046B000E62E61E0F62ED8018D918D018F3F11F02D
:1046C0000E94E607E016F106B1F70EE511E053E6A9
:1046D000E52E51E0F52EF80181918F018F3F11F009
:1046E0000E94E607E016F106B1F785E0E6E7F4E0A0
:1046F000DF01282F1D922A95E9F7E4E3F2E0DF01BC
:104700001D928A95E9F780E00E94360A60E078E51C
:1047100082E090E00E94C52B8091D8008061809358
:10472000D800B5E3BA95F1F700008091D900817007
:10473000809304010E947511811102C00E94BD1076
:1047400082E090E00E946F2D80933C020E94EA0E6E
:1047500090933A02809339020E948121EFEFF6E7AD
:1047600021E0E150F0402040E1F700C000000E944D
:1047700081218091760480FF08C06FEF7FEF90E089
:1047800080E00E94A12D0E94330B83E090E00E9404
:104790006F2D0E949C1382E08093710480E88093C7
:1047A0004E020E94BE2A6DE070E08CE492E00E940E
:1047B000400A892BE9F58091710463E070E081FD86
:1047C00052C389E492E00E94400A892B89F56DE08A
:1047D00070E089E392E00E94400A892B49F50E942B
:1047E000C605605A75418F4F9F4F6093D8047093F0
:1047F000D9048093DA049093DB04E1E7F2E080E0EF
:1048000092E0DF019C011D9221503040E1F7F093CE
:104810005002E0934F028FEF9FEF909374048093C8
:10482000730481E08093DD048093DC0410927204B1
:1048300080913B02811133C00E947511811104C027
:104840000E94BD100E94AE1088E090E00E94772D7B
:104850006093D3047093D4048093D5049093D604CA
:104860006E7F71F40E94AE1088E090E00E94772D78
:104870006093D3047093D4048093D5049093D604AA
:104880000E942A0610928F048091D30480FF04C0F6
:1048900060E086950E94981281E080933B024BE88D
:1048A00051E063E871E0A7E8B1E021E030E08D91EC
:1048B000E82FE295EF70F0E0F1A08F70890101C060
:1048C000000F8A95EAF7902F90959F2191A382A1DE
:1048D000802B82A3FB018191BF01E82FE295EF704D
:1048E000F0E0F1A08F70890101C0000F8A95EAF70E
:1048F000902F90959F2191A382A1802B82A34A178C
:104900005B07A9F68FE891E00197F1F700C000007E
:104910000AE412E063E871E0E7E8F1E02191822F18
:1049200082958F7090E0DC0190968C9190E02F70D2
:1049300002C0959587952A95E2F78170DB019D91DC
:10494000BD01292F22952F7030E0D90190962C912E
:1049500030E09F7002C0359527959A95E2F790E078
:1049600020FD92E0892BD8018D938D014E175F07B2
:10497000A9F685E091E09093E1048093E00486E756
:1049800094E0B5E0B80FBDA78091F90440E4F42E9F
:1049900000E112E1853009F4A3C20E948121982E22
:1049A00081110E94C605A6E7B4E0EDE3F2E010E055
:1049B00000E0302F8D912191281709F4A2C290E0D8
:1049C000FF24F3942827422F4F2109F495C299A37D
:1049D0003AA38F2191E009F490E09BA30E948C12EE
:1049E0008160782F9DA38CA349A15AA16BA18DA1B1
:1049F0000E94F220F801E35CFD4F8081F826F082EE
:104A000080918F048823D1F180918E04E091D304AA
:104A1000E695E81BE0938A04823009F089C2F0E051
:104A2000E659FD4FE4910E2F10E034EAE32E3DE00D
:104A3000F32E80918B04882361F010928B040E94E6
:104A40008C12909389048093880410928D041092A4
:104A50008C040E948C12E0918804F09189048E1BD2
:104A60009F0B8F3F9F4750F4E00FF11FF093890495
:104A7000E093880488E894E0F701099506E412E0E1
:104A800022E4E22E22E0F22E33E8632E31E0732E90
:104A900027E831E03CA72BA74AE4A42E42E0B42E3D
:104AA000D12CC12C812C54E0452E512CD501ED91F7
:104AB0005D01EE0FEE0FABA5BCA52D91BCA7ABA77A
:104AC000A22FA295AF70B0E090968C9190E02F70DD
:104AD00002C0959587952A95E2F781709927D301B1
:104AE0004D913D01A42FA295AF70B0E090962C910E
:104AF00030E04F7002C0359527954A95E2F7A9013D
:104B00004170552720FF02C042E050E0842BE82B83
:104B1000D5011197EC931801EF70F0E0ED58FE4FBE
:104B20008081F8019081890F808320E0843084F0B7
:104B3000D7018C918F5F8C93F601EE0FFF1FEE0F64
:104B4000FF1FED59FE4F828193810E949C2221E03C
:104B5000F80180818D3F84F4D7018C9181508C9332
:104B6000F601EE0FFF1FEE0FFF1FED59FE4F808184
:104B700091810E949C2221E00F5F1F4FF801319725
:104B8000D1018C91082E000C990BB2010E94C92C06
:104B90008083822ABFEFCB1ADB0AEFEFEE1AFE0A00
:104BA000F4E0CF16D10409F081CF81100E94C60530
:104BB0008091DD04882309F456C081E792E0909348
:104BC000500280934F022091730430917404DC01F1
:104BD00090E080E041E050E0FC01E259FD4F14918B
:104BE0006D911617A1F0BD0161507109FB01108391
:104BF000BC0115E0769567951A95E1F7FA0102C0B8
:104C0000EE0FFF1F6A95E2F7BF012E2B372B01969F
:104C10008115F2E09F0701F7309374042093730429
:104C20002115310539F08091720461E070E088232C
:104C300009F4EBC18091DC048823A9F00E94C60529
:104C40000091D8041091D9042091DA043091DB044A
:104C5000601B710B820B930B6F3F7F4F8F4F9F47F2
:104C600010F40E94700A911001C081100E948B0AFA
:104C700086E0E2E8F4E0DE01119601900D928A955B
:104C8000E1F7F0908404E09085041091860400918F
:104C90008704109284041092850410928604109266
:104CA00087048F2D8E2909F448C08091800490914B
:104CB00081040E947D129C0190917C04992309F447
:104CC00058C425313105C8F19F3F19F09F5F90937B
:104CD0007C04FF2059F00E946A079FEF1F140CF418
:104CE00091E0899F802D112480938404EE2059F057
:104CF0000E946A079FEF1E140CF491E0899F802D9B
:104D0000112480938504309184043323B1F02091E1
:104D10008504222391F045EB3403C001112499232B
:104D200009F43EC29093840465EB2603900111249C
:104D3000332309F439C230938504812F802B09F481
:104D400048C080917E0490917F040E947D129C0156
:104D500090917B04992309F407C421353105C8F1EA
:104D60009F3F19F09F5F90937B04112359F00E949D
:104D700048079FEF11160CF491E0899F802D1124B4
:104D800080938604002359F00E9448079FEF101675
:104D90000CF491E0899F802D112480938704309139
:104DA00086043323B1F020918704222391F045EB50
:104DB0003403C0011124992309F4FAC190938604A5
:104DC00065EB260390011124332309F4F5C13093D8
:104DD00087048091840490918504892B90918604A6
:104DE000892B90918704892B11F00E94FB1286E099
:104DF000FE013196A2E8B4E001900D928A95E1F7A8
:104E00000E94180690917504891721F0809375040B
:104E10000E943D0A8091F904843009F0B5CD83E009
:104E20008093E9008091E80082FFAECD8091E80098
:104E300090E085FF06C00E945704882309F4C0C192
:104E400091E08091E8008B778093E800992309F442
:104E50009BCDE981E150E33108F028C2F0E0E05F4A
:104E6000F14D0C94DD2C86E492E0ADCC8091F904F8
:104E7000843041F180E00E943D0A0E94700A109245
:104E8000E404E8E1F0E00FB6F894A895E093600040
:104E90000FBEF092600083B7817F846083BF83B7C9
:104EA000816083BF7894889583B78E7F83BF0FB668
:104EB000F894A895809160008861809360001092BA
:104EC00060000FBE8091F804882351F00E94812178
:104ED000E6E7F4E0819181111FC32DA52E13FACFCF
:104EE0008091F904853009F4C1CF0E94A0130E947B
:104EF00018060E943D0A51CD9F5FFF0C963009F0C5
:104F000062CD0F5F1F4F0530110509F052CD8FEFB5
:104F10008EA38FA318A60E948C128160782F9AA767
:104F200089A74EA15FA168A58AA50E94F22068CD3D
:104F3000863059F4F0E0E959FD4FE4910E2F10E06E
:104F400024E9E22E2DE0F22E74CD893061F4E6954D
:104F5000F0E0EC59FD4FE4910E2F10E090E0E92EC7
:104F60009DE0F92E66CD8F3061F4E695F0E0EF59C3
:104F7000FD4FE4910E2F10E08CE9E82E8CE0F82E26
:104F800058CD853159F4F0E0E25AFD4FE4910E2FEF
:104F900010E0BEE4EB2EBCE0FB2E4BCD883169F176
:104FA000833249F4ECE5F2E005911491ABE3EA2E8B
:104FB000ADE0FA2E3ECD04EF11E07CE8E72E7BE079
:104FC000F72E843209F435CD00ED17E069E2E62EC4
:104FD00066E0F62E853209F02CCD8E2F63E00E941C
:104FE000BD2CE92FF0E0E75AFD4FE4910E2F10E0C1
:104FF000F8EFEF2EFEE0FF2E1CCD08E210E0E5EC0E
:10500000EE2EEBE0FE2E15CD8F5F082F10E03B015A
:10501000082E02C0660C771C0A94E2F7A301422313
:105020005323452B89F39091710490FD44C08295E0
:10503000880F8076809313019801369527953695D1
:10504000279520931601815E809314011092170119
:1050500024E630E047E050E061E171E088E70E943B
:105060006D2B892B09F0E6CDA801E5E0440F551F13
:10507000EA95E1F78091710480FD2BC04F585D4F98
:1050800004E610E020E230E060E488E70E94942B20
:10509000892B09F0CFCD0E948B0AC3018095909592
:1050A0006090730470907404682279227092740482
:1050B00060927304BFCD880F880F880F809313010F
:1050C00010921601895F8093140183E08093170189
:1050D000BFCFE1E5F2E080E2DF011D928A95E9F7BA
:1050E000EFE8F1E0FCA7EBA70BE811E073E9272E4E
:1050F00071E0372EBB24B394ABA5BCA52D91BCA702
:10510000ABA7F80141908F01440E552E511CC201EE
:105110008F589D4F2C01E22FF0E0EF5AFD4F30E009
:1051200020E067E0C62EC21ADB2C022E01C0DD0C87
:105130000A94EAF7720190E0D7018D917D018D21EB
:105140006C2D691B6770A62E062E000C770BB82FEE
:1051500001C0BB0FAA94EAF7AB2E71956195710956
:105160006770772701C086956A95EAF7A82A80813B
:10517000A82AA0829F5F9830F9F62F5F3F4F3196A3
:105180002830310571F6EBA5FCA52E163F0609F077
:10519000B3CF04E610E020E230E041E552E074CF06
:1051A00081E080938404C0CD81E080938504C5CDE7
:1051B00081E08093860404CE81E08093870409CE49
:1051C00000E210E0CE0101967C018091E80085FDAF
:1051D0000AC08091E8008B778093E8000E94570412
:1051E000882399F32DCE8091F100D7018D937D0115
:1051F0000150110951F724CE1A8289E08B8321C016
:105200008A81823009F4A7C1833061F0813009F0CE
:105210004DC00E94C6050E94E32C6B837C838D8366
:105220009E830FC0809176048B83809177048C835A
:10523000809178048D83809179048E8380917A04A3
:105240008F838091F904843009F09ECB1091E9009E
:105250001F709091EC00892F817090FD80E8182BD1
:1052600082E08093E9008091E80080FF0DC050E06B
:1052700040E060E270E0CE0101960E9488048091D7
:10528000E8008E778093E8001F701093E9007CCBD4
:105290008A81823059F46B817C818D819E810E944C
:1052A000E32C86E290E00E94832DCBCF8FEF8983A1
:1052B000C8CF4C816B818A810E94430E9827892731
:1052C00098279E838D83BDCFED80FE80FE24EF2442
:1052D000FE248A810B81BCE00B9F80011124ECE34A
:1052E0008E9F000D111D11248C8190E0880F991F55
:1052F000080F191F6F2DC80187960E94832D6E2DF0
:10530000C8018896D0CF0E94C80D9BCF8A81813872
:10531000C1F060F4803809F094CF20E04B816091B7
:10532000D5048091D4040E94B90F8BCF823859F1F3
:10533000833809F086CF20E04091D6046C818B81C0
:10534000F2CF60E08B810E9498129B818091D30400
:10535000911111C08E7F8093D30410928F04FFEFC0
:1053600020E732E0F15020403040E1F700C000007B
:105370000E94570B66CF81608093D30460E08695CE
:105380000E9498125ECF8B818093D7045ACF8A8176
:10539000813899F030F4803809F053CF8091D604E9
:1053A0002DCF823891F0833809F04BCF8091D4040F
:1053B0008B838091D5048C8344CF8091D30480FF6C
:1053C00002C086951BCF80E019CF8091D70416CFFD
:1053D0006091D3047091D4048091D5049091D60447
:1053E0000E94A70F2ECF80E18A832BCF82E08A8391
:1053F00089EE04CF0A811B81102701271027CE01D7
:1054000001967C01CC80DC01AC0DB11D6D01C801A1
:10541000895E9E4FEC14FD0409F413CF093EB2E0FF
:105420001B0750F40E946F2DF70184830F5F1F4FFD
:10543000BFEFEB1AFB0AEBCFD70114961C92F6CF05
:105440000A811B81102701271027FE0131966F0169
:10545000EC80E00EF12EF11CC801895E9E4FE01633
:10546000F10609F4EECE093EF2E01F0728F4D6015A
:1054700014966C910E94832DBFEFCB1ADB0A0F5F4D
:105480001F4FEACF0E94B80DDCCE84E0ADCF0A8179
:105490001B81102701271027FE0131967F01CC8048
:1054A0009F012C0D311D6901C8018796CE14DF04C0
:1054B00009F4C7CE003F110558F40E946F2DD701A3
:1054C00014968C930F5F1F4FFFEFEF1AFF0AECCF7C
:1054D000F7011482F7CF0A811B81102701271027BB
:1054E0009E012F5F3F4F6901EC80E00EF12EF11C11
:1054F000C8018796E016F10609F4A3CE003F110516
:1055000028F4D60114966C910E94832DBFEFCB1A1C
:10551000DB0A0F5F1F4FECCF09BD19BD09B400FEB8
:10552000FDCF8091D8008F7D8093D8008091E000DE
:1055300082608093E0008091E00081FDFCCF0E94BA
:10554000A0133FEF43EC69E0315040406040E1F789
:1055500000C00000C5CC86E290E00E946F2D1B8247
:105560001C821D828E836DCE2B30310508F0FACB64
:1055700030CC2B30310508F0A9CBDFCB1092B9002D
:105580008CE08093B80008959F92AF92BF92CF9223
:10559000DF92EF92FF920F931F93CF93DF93B82E7A
:1055A000EB010E948C126C01EE24E394F12CC431C7
:1055B000D10560F025E0E22EF12CCF3FDC0731F081
:1055C000CE0164E170E00E94872C7B0184EAA82E62
:1055D00094E8992E1092BC00A092BC000E948C12FC
:1055E0008C018091BC0087FF0DC08091B900887F3D
:1055F000883039F18091B900887F803111F10FEF47
:105600001FEF09C00E948C12801B910B8E159F0505
:1056100040F30EEF1FEFCF3FDC07E1F2C6010E941F
:105620007D128C179D07B0F2C801DF91CF911F91B9
:105630000F91FF90EF90DF90CF90BF90AF909F9031
:105640000895B092BB009092BC000E948C128C0115
:105650008091BC0087FF0AC08091B900887F8831A3
:1056600011F0803461F610E000E0DECF0E948C1271
:10567000801B910B8E159F0558F3CBCF0F931F9373
:10568000CF93DF93EB018093BB0084E88093BC0051
:105690000E948C128C018091BC0087FF11C0209168
:1056A000B900287F81E090E0283211F490E080E09A
:1056B000919581959109DF91CF911F910F91089557
:1056C000CF3FDC0741F30E948C12801B910B8C179B
:1056D0009D0708F38EEF9FEFEECFCF92DF92EF9210
:1056E000FF920F931F93CF93DF936B018A01790190
:1056F000B9010E94C42AE6010C0D1D1DC017D10777
:1057000061F424E92093BC00DF91CF911F910F91A8
:10571000FF90EF90DF90CF90089597FDF2CFB70103
:1057200089910E943E2BEACFCF92DF92EF92FF92B7
:105730000F931F93CF93DF93C62F6A017901B801AE
:105740000E94C42A97FD0CC0B8018C2F0E943E2BEA
:10575000E601EC0CFD1CCE15DF0511F097FF0CC027
:1057600024E92093BC00DF91CF911F910F91FF900E
:10577000EF90DF90CF900895B80189910E943E2B61
:10578000EACF84E98093BC0008959B01AC01F894B2
:1057900060E079E08DE390E00E949B2C215031097C
:1057A0004109510956954795379527952093CC0087
:1057B00082E08093C80088E98093C90086E08093E6
:1057C000CA001092490510924A05109207051092DE
:1057D00008057894089590914A059F5F20914905A6
:1057E000291303C00FB607FE0EC0209149052917E3
:1057F000E1F3E92FF0E0E55BFA4F808390934A05EF
:1058000088EB8093C9000895909108058091070561
:105810009817D1F3909107059F5F903408F090E0BE
:10582000E92FF0E0E75FFA4F808190930705089534
:105830000F931F93CF93DF93EC018C01060F171F7B
:10584000C017D10729F4DF91CF911F910F910895CF
:1058500089910E94EB2BF4CF5091080540910705E8
:10586000852F90E0242F30E0541748F0AC01421B04
:10587000530B81E0141615060CF080E00895805C4F
:105880009F4FF4CF8F938FB78F939F93EF93FF9397
:1058900090914A058091490598130AC088E9809340
:1058A000C900FF91EF919F918F918FBF8F911895B4
:1058B000809149058F5FE82FF0E0E55BFA4F90811A
:1058C0009093CE0080934905ECCF2F932FB72F9361
:1058D0008F939F93EF93FF939091CE008091080553
:1058E0008F5F803408F080E020910705281739F099
:1058F000E82FF0E0E75FFA4F908380930805FF916F
:10590000EF919F918F912F912FBF2F911895AA1BE7
:10591000BB1B51E107C0AA1FBB1FA617B70710F09A
:10592000A61BB70B881F991F5A95A9F780959095CC
:10593000BC01CD010895A1E21A2EAA1BBB1BFD01DB
:105940000DC0AA1FBB1FEE1FFF1FA217B307E4075E
:10595000F50720F0A21BB30BE40BF50B661F771FB6
:10596000881F991F1A9469F7609570958095909596
:105970009B01AC01BD01CF010895991B79E004C0E2
:10598000991F961708F0961B881F7A95C9F780957E
:10599000089597FB072E16F4009407D077FD09D0E1
:1059A0000E94872C07FC05D03EF4909581959F4F6F
:1059B0000895709561957F4F0895EE0FFF1F059034
:1059C000F491E02D0994692796276927782787277E
:1059D000782708950E94E92D332312F48A1B9B0B2C
:1059E0000C94F42C0E94E92DB7FF0895821B930BB1
:1059F00008958F929F92AF92BF92CF92DF92EF92D3
:105A0000FF92CF93DF93EC01688179818A819B813A
:105A1000611571058105910521F464E279ED8BE54D
:105A200097E02DE133EF41E050E00E94B72D4901AE
:105A30005A019B01AC01A7EAB1E40E94D62D6B018B
:105A40007C01ACEEB4EFA50194010E94E42DDC01D1
:105A5000CB018C0D9D1DAE1DBF1DB7FF03C001976F
:105A6000A109B04888839983AA83BB839F77DF917C
:105A7000CF91FF90EF90DF90CF90BF90AF909F902D
:105A80008F9008950E94F92C089580E091E00E9483
:105A9000F92C0895B0E0A0E08093000190930101FB
:105AA000A0930201B09303010895FC0141505040BE
:105AB00030F001900616D1F73197CF01089588276D
:105AC00099270895FB01DC0104C08D910190801994
:105AD00021F441505040C8F7881B990B0895F9995B
