:100000000C94CB060C9403070C9403070C94030781
:100010000C9403070C9403070C9403070C94030738
:100020000C9403070C9403070C94991B0C94D51A99
:100030000C949D2B0C9403070C9403070C9403075A
:100040000C9403070C9403070C9403070C94030708
:100050000C9403070C94502B0C9403070C94030787
:100060000C9403070C9448320C9420320C94030730
:100070000C9403070C9403070C9403070C940307D8
:100080000C9403070C9403070C9403070C940307C8
:100090000C9403070C9403070C9403070C940307B8
:1000A0000C9403070C9403070C940307450F5F0F90
:1000B000660F161016109E0FAF0FC00FFE0F031025
:1000C0001610161016100B104B144B147E147E14C1
:1000D0000F152D15531653163815AC15BD15BD1536
:1000E000DB180219B71A0219B71A4E197119B71A83
:1000F000721A821A00DA0281FFD9F1DB20A4A62E3F
:10010000AF00A0C000A1C800AED580A81FD300409A
:100110008D1420001E0F056432141E140A052020C1
:100120002020005343522000202020200043415033
:10013000200020202020004E554D20000A00556E42
:10014000646566696E65640046554E4354494F4E7A
:100150000A004D454449410A004E554D5041440A5C
:1001600000424153450A00FD377A585A000004E620
:10017000D6B4460200210116000000742FE5A3E06A
:10018000045A01735D003D8889C65436C3174FE495
:10019000E6B5B9F025444DFEA3A9B50F9D55FB6FFB
:1001A000B05DC11D121A8569AFD3B3638CBDC1E6C2
:1001B000969D48CA3DB9D1CADF6CA00757F83FD118
:1001C000BAA59F30D64F82915494B6D82720EDAF70
:1001D00039AB1874B5690ABB7EE87DA2ED5633B51C
:1001E000B708C931F95AA52086447D2843D1495B17
:1001F0005197CF2E6C04E5654CF588FE8F0B40BF00
:1002000004154EBE950E40F2746B0976BEA23A9D5F
:100210003CC64F578DBB01D565570B5FA7836886DA
:10022000AD7DF1FECE86A308217047B8B48C56E9A7
:100230007F00FAE694188334572F17E48160A3BD3A
:1002400003D66562FE7EBC480F65395EC8C6FB6199
:10025000909170C6F5C709712A386B6D548A9DD785
:100260003325B85E4C69E45E67050C8BDF56DCC154
:10027000AB2231E0341A70A2995F0D0DDFE92FEF48
:1002800084463ABA5301D2F8C5301A3DC120A102C2
:100290007509208721158B01298D0BF3ACD3D8B7B5
:1002A0007E2A076712AC125D37E3F0FED01CD27CC9
:1002B0007A279F145EBA0BE480413E76532867C5C7
:1002C0006D98380EC16E3BC008DBEEFD24D8E0E728
:1002D00038BF842E71D084F9E6FC3201D1A084A20B
:1002E000F74CF973E9E5D0D30A8D9C6FCB9B24E6DC
:1002F000755129BEABB951A40000005AF2771553CD
:1003000021599900018F03DB08000020675594B143
:10031000C467FB020000000004595A05010902A14C
:100320000185020901A1000509190129051500250A
:10033000019505750181029501750381010501098A
:100340003009311581257F95027508810609381518
:1003500081257F950175088106050C0A38021581F3
:10036000257F950175088106C0C005010980A1019E
:10037000850319012AB700150126B70095017510EC
:100380008100C0050C0901A101850419012AA00200
:10039000150126A002950175108100C00660FF09B5
:1003A00061A1010962150026FF00952075088102F0
:1003B0000963150026FF00952075089102C005010C
:1003C0000906A101050719E029E71500250195088F
:1003D000750181029501750881010507190029FF42
:1003E000150026FF009506750881000508190129EA
:1003F00005950575019102950175039101C00902EA
:100400005B00030100A0FA090400000103010100E0
:1004100009211101000122400007058103080001A4
:10042000090401000203000000092111010001225A
:1004300022000705820320000107050303200001B5
:10044000090402000103000000092111010001223A
:100450008100070584032000011201000200000052
:1004600008616E64600100010203011C03760069EB
:100470000061006C003A0066003600340063003210
:100480000062003300630000000E03540049004482
:1004900000420049005400000012036E0075006C19
:1004A000006C00620069007400730000000403091E
:1004B0000407087F0807003E5B4F5B3E003E6B4F22
:1004C0006B3E001C3E7C3E1C00183C7E3C18001C11
:1004D000577D571C001C5E7F5E1C0000183C1800F6
:1004E00000FFE7C3E7FF00001824180000FFE7DB68
:1004F000E7FF0030483A060E0026297929260040F9
:100500007F05050700407F05253F005A3CE73C5A20
:10051000007F3E1C1C0800081C1C3E7F0014227F2C
:100520002214005F5F005F5F0006097F017F00000B
:100530006689956A0060606060600094A2FFA29482
:100540000008047E04080010207E20100008082AFD
:100550001C0800081C2A0808001E10101010000CAF
:100560001E0C1E0C0030383E383000060E3E0E06C3
:100570000000000000000000005F00000000070015
:10058000070000147F147F1400242A7F2A120023FE
:100590001308646200364956205000000807030023
:1005A00000001C224100000041221C00002A1C7F88
:1005B0001C2A0008083E080800008070300000086F
:1005C000080808080000006060000020100804020D
:1005D000003E5149453E0000427F400000724949BB
:1005E0004946002141494D33001814127F1000275D
:1005F00045454539003C4A49493100412111090727
:1006000000364949493600464949291E0000001470
:1006100000000000403400000000081422410014D3
:100620001414141400004122140800020159090690
:10063000003E415D594E007C1211127C007F4949F9
:100640004936003E41414122007F4141413E007F09
:1006500049494941007F09090901003E414151735F
:10066000007F0808087F0000417F410000204041D2
:100670003F01007F08142241007F40404040007F3E
:10068000021C027F007F0408107F003E4141413E72
:10069000007F09090906003E4151215E007F0919CA
:1006A00029460026494949320003017F0103003FE2
:1006B0004040403F001F2040201F003F4038403F47
:1006C00000631408146300030478040300615949AB
:1006D0004D4300007F41414100020408102000000A
:1006E0004141417F0004020102040040404040407B
:1006F000000003070800002054547840007F28447D
:10070000443800384444442800384444287F0038A2
:10071000545454180000087E09020018A4A49C78C0
:10072000007F080404780000447D40000020404021
:100730003D00007F102844000000417F4000007C05
:1007400004780478007C0804047800384444443871
:1007500000FC182424180018242418FC007C080429
:1007600004080048545454240004043F4424003C2A
:100770004040207C001C2040201C003C4030403C7D
:10078000004428102844004C9090907C004464540D
:100790004C440000083641000000007700000000D3
:1007A00041360800000201020402003C2623263CD8
:1007B00000000000000000404040F0F8F8FF38FF63
:1007C000F8F83FF8F8FF38FFF8F8F0404040000034
:1007D0000000000080C0C0C0800000C0C0800000D9
:1007E0000080C0C000C0C0000080C0C00000000089
:1007F00000C0C0C0C0C000C0C000000000000000B9
:1008000000000000000000000000000000000000E8
:1008100000000000000000000000000000000000D8
:1008200000000000000000000000000000000000C8
:10083000C0F0F8FC3E1E06010000007F4141417FF0
:10084000007F4141417F000080C0E07E5B4F5BFE46
:10085000C00000C000DCD7DEDEDED7DC00C0000058
:100860000000000000000000000000000000000088
:1008700000000000000000494949FFFFFFFFE0DFE2
:10088000BFBF00BFBFDFE0FFFFFFFF4949490000D6
:100890000000001F3F6060E0BF1F007F7F071E3821
:1008A0001E077F7F007F7F0E1F3B716000000000EE
:1008B000007F7F0C0C0C007E7E007F7E0303007F98
:1008C0007E03037E7E03037F7E000F3E703C063C6A
:1008D000703E0F00327B49493F7E007F7E0303005C
:1008E0001E3F69696F260000000000000000000044
:1008F000030F1F3F3C7870600000007F4141417F43
:10090000007F4141417F00307B7F7830202030786C
:100910007F3B0003000F7F0F0F0F7F0F00030000CE
:1009200000000000000000000000000000000000C7
:1009300000000000000000010101070F0F7F0F7F82
:100940000F0F7E0F0F7F0F7F0F0F070101010000B8
:100950000000000000000000010100000000000095
:100960000000000000000000000000000000000087
:100970000000000000000000000000000000000077
:100980000000000000000000000000000000000067
:100990000000000000000000000000000000000057
:1009A0000000000000000000000000000000000047
:1009B0000000000000000000000000000000000037
:1009C0000000000000000000000000000000000027
:1009D0000000000000000000000000000000000017
:1009E0000000000000000000000000000000000007
:1009F00000000101010101010101010202020202E4
:100A000002020202030303030303030304040404B6
:100A1000040404050505050506060606060707077E
:100A2000070708080808090909090A0A0A0B0B0B35
:100A30000C0C0C0D0D0D0E0E0E0F0F0F10101111D2
:100A40001112121313141415151616171718181956
:100A5000191A1A1B1B1C1D1D1E1E1F2020212222BD
:100A6000232424252626272829292A2B2C2D2D2E00
:100A70002F30313232333435363738393A3B3C3D1A
:100A80003E3F404142434445464748494A4C4D4E0B
:100A90004F50515354555658595A5B5D5E5F6162D1
:100AA00064656668696B6C6D6F7072737577787A60
:100AB0007B7D7E8082838587888A8C8E8F919395BB
:100AC00096989A9C9EA0A2A3A5A7A9ABADAFB1B3DF
:100AD000B5B7BABCBEC0C2C4C6C9CBCDCFD1D4D6BF
:100AE000D8DBDDDFE2E4E7E9EBEEF0F3F5F8FAFD61
:100AF000FF2223252628292A2C2D2F303233353664
:100B0000383A3B3D3E4042434547494A4C4E50519E
:100B1000535557595A5C5E6062646668696B6D6FC5
:100B200071737577797B7D7F81838587898A8C8EC8
:100B300090929496989A9C9E9FA1A3A5A7A8AAACD0
:100B4000AEAFB1B3B4B6B8B9BBBCBEBFC1C2C3C50A
:100B5000C6C7C9CACBCCCDCED0D1D2D2D3D4D5D6AC
:100B6000D7D7D8D9D9DADADBDBDBDCDCDCDCDCDDDF
:100B7000DDDDDDDCDCDCDCDCDBDBDBDADAD9D9D8C3
:100B8000D7D7D6D5D4D3D2D2D1D0CECDCCCBCAC95B
:100B9000C7C6C5C3C2C1BFBEBCBBB9B8B6B4B3B18A
:100BA000AFAEACAAA8A7A5A3A19F9E9C9A98969425
:100BB00092908E8C8A89878583817F7D7B797775FA
:100BC00073716F6D6B6968666462605E5C5A5957D9
:100BD000555351504E4C4A4947454342403E3D3B98
:100BE0003A3836353332302F2D2C2A292826252322
:100BF00022000000000000540055005600AA00A981
:100C0000005F00600061005700010001005C005DB2
:100C1000005E0057000100010059005A005B0058B7
:100C20000001000100620062006300580000000043
:100C300000000000000000000000000000000000B4
:100C400000000000000000000000000000000000A4
:100C50000000000000000000000000000000000094
:100C60000000000000000000000000000000000084
:100C70000000000000000000000000000000000074
:100C80000000000000000000000000000000000064
:100C90000000000000000000000000000000000054
:100CA0000000000000000000000000000000000044
:100CB0000000000000000000000000000000000034
:100CC0000000000000000000000000000000000024
:100CD0000000000000000000000000000000000014
:100CE0000000AF00AE0000000000000000000000A7
:100CF00000000000000000000000000000000000F4
:100D00000000000000000000007E0F00D4FFFFFF85
:100D1000C70000007800000000000000002A2B2817
:100D200000000000000000000000000000000000C3
:100D300029000000002C1E342021222434262725DF
:100D40002E362D3738271E1F202122232425263317
:100D500033362E37381F0405060708090A0B0C0D19
:100D60000E0F101112131415161718191A1B1C1D2B
:100D70002F3130232D350405060708090A0B0C0D09
:100D80000E0F101112131415161718191A1B1C1D0B
:100D90002F3130354C0011241FBECFEFDAE0DEBF1B
:100DA000CDBF04B603FE18C080913F069091400667
:100DB000A0914106B09142068730904BA740B04BBE
:100DC00059F410923F06109240061092410610927C
:100DD0004206E0E0F8E3099526E0A0EBB1E001C0AF
:100DE0001D92AF33B207E1F711E0A0E0B1E0E6EC0D
:100DF000F7E602C005900D92A03BB107D9F70E941B
:100E000005070C94E1330C940000CF93DF93CDB72A
:100E1000DEB7E4970FB6F894DEBF0FBECDBF84B740
:100E2000877F84BF0FB6F894A89580916000886191
:100E300080936000109260000FBE90E080E80FB6D3
:100E4000F89480936100909361000FBE85B780682D
:100E500085BF85B7806885BF8EEB91E29093B10125
:100E60008093B0010E94191B0E94381B8091E20000
:100E700084608093E2007894809110028823A1F02E
:100E80001091E9001F709091EC00892F817090FD06
:100E900080E8182B1092E9008091E80083FD0E9401
:100EA000F3171F701093E90082E084BD93E095BDB5
:100EB0009AEF97BD80936E000E94B91D811102C008
:100EC0000E94AA1D02E211E068E2E62E61E0F62E21
:100ED000D8018D918D018F3F11F00E940322E01601
:100EE000F106B1F708E211E0F80181918F018F3F1F
:100EF00011F00E940322F1E00D321F07A9F785E0EF
:100F0000E3EFF1E0DF01E82E1D92EA94E9F7E2EB6E
:100F1000F1E0DF011D928A95E9F780E00E94722FCF
:100F200060E078E582E090E00E94A3318091D800F3
:100F300080618093D800B5E3BA95F1F70000809105
:100F4000D9008170809304010E94C523811102C0E1
:100F50000E94D02382E090E00E940A338093BA017D
:100F60000E94B4239093B8018093B7010E946C252E
:100F7000EFEFF6E721E0E150F0402040E1F700C05C
:100F800000000E946C258091F30180FF08C06FEF84
:100F90007FEF80E090E00E943C330E942C2B83E0A6
:100FA00090E00E940A330E940F2982E08093EC01B6
:100FB00080E8809311020E9494306DE070E087E039
:100FC00091E00E943117892B09F042C08091EC0119
:100FD00063E070E081FD39C084E091E00E94311748
:100FE000892BB1F56DE070E084EF90E00E9431173D
:100FF000892B71F50E94852BDC01CB019352A2490C
:10100000BF4F8093E4049093E504A093E604B0936B
:10101000E704E4E1F2E080E092E0DF019C011D9250
:1010200021503040E1F7F0931B04E0931A048FEF56
:101030009FEF909313028093120281E08093E90462
:101040008093E8041092ED0103C081E091E0C6CFE7
:101050008091B901811133C00E94C523811104C060
:101060000E94D0230E94EF1F88E090E00E9412337C
:101070006093720470937304809374049093750466
:101080006E7F71F40E94EF1F88E090E00E9412339F
:101090006093720470937304809374049093750446
:1010A0000E94181F109231048091720480FF04C0C6
:1010B00060E086950E942D2181E08093B90165E56D
:1010C00071E02DE431E0A1E5B1E041E050E06A17C4
:1010D0007B0769F18D91E82FE295EF70F0E011A1A7
:1010E0008F707A0102C0EE0CFF1C8A95E2F7C701EF
:1010F0009E2D9095912391A392A1892B82A3F90112
:1011000081919F01E82FE295EF70F0E011A18F70BF
:101110007A0102C0EE0CFF1C8A95E2F7C7019E2DF2
:101120009095912391A392A1892B82A3D0CF8FE890
:1011300091E00197F1F700C000006CEC71E04DE424
:1011400051E001E511E0E8ECF1E06E177F0759F19D
:10115000D8012D918D01822F82958F7090E0DC0156
:1011600090968C9190E02F7002C0959587952A9566
:10117000E2F78170DA019D91AD01292F22952F7040
:1011800030E0D90190962C9130E09F7002C03595E7
:1011900027959A95E2F720FF02C092E001C090E007
:1011A000892B8193D2CF85E091E09093F0048093D6
:1011B000EF0422242394312C80911002853009F011
:1011C0004DC040E4F42E00E112E180911002853020
:1011D00009F03EC080911002843041F180E00E940D
:1011E0007F2F0E948B2C1092F304E8E1F0E00FB601
:1011F000F894A895E09360000FBEF092600083B76A
:10120000817F846083BF83B7816083BF7894889532
:1012100083B78E7F83BF0FB6F894A8958091600046
:10122000886180936000109260000FBE809106027A
:10123000882309F4CACF0E946C25E3EFF1E0819185
:101240008111F8C628EF31E02E173F07C1F7BDCF57
:101250000E9413290E940C2C0E947F2F0E946C2553
:10126000C82E81110E94852BA3EFB1E0EBEBF1E0DA
:1012700000E010E0302F2D919191922721F180E034
:10128000FF24F394492F4F21D1F089A73AA72F21AA
:1012900081E009F480E08BA70E94912B8160782F78
:1012A0009DA78CA749A55AA56BA58DA50E94822F45
:1012B000F801E554FE4F8081F826F08219C08F5F57
:1012C000FF0C8630F9F60F5F1F4F0530110591F6C0
:1012D0008FEF8EA78FA718AA0E94912B8160782F7D
:1012E0009AAB89AB4EA55FA568A98AA90E94822FF7
:1012F00080913104882309F462C090913004E09118
:101300007204E6958E2F891B80932C04923061F431
:10131000E82FF0E0E65EFE4FE4910E2F10E03AEE8B
:10132000E32E3EE1F32E26C0963069F4E82FE695D1
:10133000F0E0E95EFE4FE4910E2F10E02FEAE22E7E
:101340002EE1F22E17C09C3079F463E00E949333B3
:10135000E92FF0E0EC5EFE4FE4910E2F10E09EE0EE
:10136000E92E9EE1F92E06C000ED17E085EFE82E8C
:101370008CE1F82E80912D04882361F010922D04C9
:101380000E94912B90932B0480932A0410922F0497
:1013900010922E040E94912BE0912A04F0912B04CC
:1013A0008E1B9F0B8F3F9F4750F40E0F1F1F1093F4
:1013B0002B0400932A048AE294E0F7010995E4ECF7
:1013C000EE2EE1E0FE2E00EC11E0F8EC4F2EF1E005
:1013D0005F2EADE46A2EA1E07A2EB1E58B2EB1E04E
:1013E0009B2E5CAA4BAAA12CB12CD12CABA9BCA9D9
:1013F0008D91BCABABABE82FEE0FEE0FD4012D916E
:101400004D01A22FA295AF70B0E090968C9190E024
:101410002F7002C0959587952A95E2F79C0121705F
:101420003327D3018D913D01A82FA295AF70B0E075
:1014300090964C9150E08F7002C0559547958A95D3
:10144000E2F7CA018170992740FF02C082E090E074
:10145000822B932B8E2BF20181932F018F70E82F1B
:10146000F0E0E35CFE4F9081D7018C91890F8C9363
:1014700084308CF0F80180818F5F8083F501EE0F5E
:10148000FF1FEE0FFF1FE35DFE4F828193810E94DD
:101490005C3021E001C020E0D7018C918D3F84F4C5
:1014A000F801808181508083F501EE0FFF1FEE0F60
:1014B000FF1FE35DFE4F808191810E945C3021E03F
:1014C000D7018C91082E000C990B64E070E00E940B
:1014D0009F33F70181937F01D22AFFEFAF1ABF0A32
:1014E0000F5F1F4F24E0A216B10409F07FCFD11087
:1014F0000E94852B8091E904882309F450C184E17E
:1015000092E090931B0480931A0480911C040E9423
:101510007E2E813059F038F0823069F0833071F4DA
:1015200088E491E005C081E691E002C089E591E0A0
:101530000E94E5170AC082E591E0FACF8EE391E0C0
:101540000E94E51781E00E94CA2C8CE391E00E9482
:10155000E5170E940C2C81FB002700F982FB112764
:1015600010F980FF03C087E391E002C082E391E0BD
:101570000E94E517002319F08DE291E002C088E295
:1015800091E00E94E517112319F083E291E002C077
:101590008EE191E00E94E5178091E904882309F427
:1015A000E3C020911202309113022115310509F494
:1015B000DBC08091ED018111D7C0482E512CEE2463
:1015C000E394F12C082E02C0EE0CFF1C0A94E2F703
:1015D000A9014E215F21452B11F48F5FEECF909131
:1015E000EC01920145E0220F331F4A95E1F790FD8F
:1015F00012C08295880F807680931301220F232FCB
:10160000221F330B319520931601815E80931401C4
:101610001092170112C005E0369527950A95E1F75B
:10162000220F220F220F2093130110921601295F1F
:101630002093140183E08093170124E630E047E013
:1016400050E061E171E088E70E944B31892B09F09D
:101650008BC08091EC0180FD23C0C20115E0880F92
:10166000991F1A95E1F7AC014C5E5D4F04E610E05E
:1016700020E230E060E488E70E947231892B09F0B3
:1016800073C00E94A52CE094F09480911202909176
:101690001302E822F922F0921302E092120264C0CF
:1016A00080E2ECECF1E0DF011D928A95E9F7B5E00C
:1016B000440C551CBA95E1F7E9E5F1E0FCABEBAB66
:1016C00065E571E0ABA9BCA98D91BCABABABFB01EF
:1016D0009191BF01A201490F511D4C5E5D4F90E0F9
:1016E00084539E4FFC01A7E0AA2E9F01281B390BB3
:1016F0008824839401C0880C2A95EAF78A01912CEA
:10170000D801BD908D01B8202A2D29192770722E7D
:10171000022E000C330BBB2D01C0BB0F7A94EAF7ED
:101720007B2E3195219531092770332701C0B6945E
:101730002A95EAF77B28B0807B287082939428E072
:101740009212DECFAA9431963FEFA312CECF8BA98F
:101750009CA98D55914009F0B5CF04E610E020E238
:1017600030E04CEC51E086CF8091E8048823B9F05A
:101770000E94852B0091E4041091E5042091E60479
:101780003091E704DC01CB01801B910BA20BB30B62
:101790008F3F9F4FAF4FBF4710F40E948B2CC1105B
:1017A00001C0D1100E94A52C86E0E4E2F4E08E0195
:1017B0000F5F1F4FD80101900D928A95E1F7F090CD
:1017C0002604D0902704E0902804C09029041092A9
:1017D0002604109227041092280410922904F11074
:1017E00003C0DD2009F451C08091220490912304AC
:1017F0000E94762B9C0190911E04992309F442C407
:101800002531310508F441C09F3F19F09F5F909347
:101810001E04FF2061F00E94A5201F1414F491E023
:1018200001C09FEF899F802D112480932604DD2025
:1018300061F00E94A5201D1414F491E001C09FEFF7
:10184000899F802D1124809327043091260433230F
:10185000E1F0209127042223C1F045EB3403C001BD
:101860001124992319F09093260403C081E08093FA
:10187000260435EB2303C0011124992319F090931A
:10188000270403C081E080932704E11003C0CC202B
:1018900009F451C080912004909121040E94762B7C
:1018A0009C0190911D04992309F4F1C32135310560
:1018B00008F441C09F3F19F09F5F90931D04EE20F4
:1018C00061F00E9483201E1414F491E001C09FEF88
:1018D000899F802D112480932804CC2061F00E94E0
:1018E00083201C1414F491E001C09FEF899F802D88
:1018F000112480932904309128043323E1F02091AE
:1019000029042223C1F045EB3403C001112499239B
:1019100019F09093280403C081E08093280435EBEC
:101920002303C0011124992319F09093290403C0C3
:1019300081E0809329048091260481110BC080915D
:101940002704811107C080912804811103C0809170
:10195000290481110E949421FB82DC82ED82CE82D7
:1019600086E0F801A4E2B4E001900D928A95E1F7D7
:101970000E940C2C9091EE01891721F08093EE01CA
:101980000E947F2F80911002843009F015CC83E0F3
:101990008093E9008091E80082FF0ECC8091E800FE
:1019A00085FF21C00E94701C81111BC0F0E2EF2E48
:1019B000F12C680109C08091F100D6018D936D0171
:1019C000B1E0EB1AF10869F08091E80085FDF3CFF2
:1019D0008091E8008B778093E8000E94701C882338
:1019E00099F391E001C090E08091E8008B778093BB
:1019F000E800992309F4E0CBE090E204F090E304DE
:101A00008981E114F10461F08E3F09F00FC38A81EE
:101A1000833008F42EC28550833008F007C329C2F2
:101A20008B3009F410C288F5853009F47EC0B8F413
:101A3000823009F446C030F4813009F0F5C21A82D0
:101A400089E0DEC0833009F463C0843009F0ECC261
:101A50004C816B818A810E94912D9D8311C38730B7
:101A600009F471C008F46CC0883009F4AEC0893044
:101A700009F0DAC260917204709173048091740469
:101A8000909175040E942B1FD1C2803109F41FC1AF
:101A900060F48D3009F4BDC008F4B9C08E3009F48B
:101AA000BCC08F3009F4E4C0BFC2823109F415C153
:101AB00008F410C1833109F439C18E3F09F4D9C14A
:101AC000B3C28A81823009F4D4C2833051F08130AC
:101AD00009F0AAC20E94852B9B838C837D836E8331
:101AE000A5C28091DE049091DF04892B09F49EC287
:101AF0008091F3018B838091F4018C838091F501B7
:101B00008D838091F6018E838091F7018F838EC241
:101B10008A81823009F088C26B817C818D819E81AF
:101B20000E94B9330E947A2E81C22D813E813227D4
:101B3000232732274C816B818A810E940A2D76C22D
:101B40000E94402D73C28A818138B1F050F48038F0
:101B500009F06CC220E04B816091740480917304A1
:101B600031C0823859F1833809F060C220E04091D9
:101B700075046C818B8126C060E08B810E942D21D1
:101B80009B8180917204911111C08E7F80937204A9
:101B900010923104EFEFF0E722E0E150F0402040F6
:101BA000E1F700C000000E94D81D40C28160809310
:101BB000720460E086950E942D2138C28B8180934B
:101BC000760434C20E943D1F31C28A81813899F067
:101BD00030F4803809F02AC28091750411C082382F
:101BE00099F0833809F022C2809173048B8380912D
:101BF00074048C831BC28091720480FF03C086959D
:101C00008B8314C280E0FCCF80917604F9CF80E111
:101C100062C082E08A8389EEF3CFEA80FB80FE24F3
:101C2000EF24FE24AC80B12C3DE1A316B10408F0F2
:101C3000FDC16801C701895E9E4F9601201B310BD3
:101C40002A153B0508F0F2C149EEE41642E0F4061D
:101C500030F40E940A33D60114968C9302C0F60128
:101C60001482FFEFEF1AFF0A2FEFC21AD20AE2CF57
:101C70008091DE049091DF04892B09F4D7C1EA80BA
:101C8000FB80FE24EF24FE24CC80D12C3DE1C31642
:101C9000D10408F0CBC15801C701895E9E4F950160
:101CA000201B310B2C153D0508F0C0C149EEE41690
:101CB00042E0F40628F4D50114966C910E941E337C
:101CC000BFEFEB1AFB0AEFEFAE1ABE0AE5CF0E9498
:101CD000FA2CACC184E08A83A9C1EA80FB80FE248F
:101CE000EF24FE24AC80B12CFDE1AF16B10408F066
:101CF0009DC16801C70187969601201B310B2A15EB
:101D00003B0508F093C120EFE216F10430F40E9485
:101D10000A33D60114968C9302C0F6011482FFEFA9
:101D2000EF1AFF0A2FEFC21AD20AE4CFEA80FB8033
:101D3000FE24EF24FE24AC80B12C3DE1A316B104B7
:101D400008F074C1370147E2640E711C80EFE81699
:101D5000F10408F06BC180EF90E08E199F098A159D
:101D60009B0508F463C18091DE049091DF04892B08
:101D700011F068015FC0E0FE0FC0C70186960E94A7
:101D80000A3390E0982F88272D81822B81159C455E
:101D900031F48FEF8D8303C0C12CD12C03C0CC2430
:101DA000C394D12CC7018A0D9B1D450180FF1BC028
:101DB000B1E08B1A910855E0452E512C4C0E5D1E5A
:101DC000480C591CC3018A0D9B1D0E940A33F20165
:101DD000208130E0322F2227282B21153C4519F491
:101DE0008FEFD2018C93F801EC0DFD1D2FEFCF0189
:101DF000801B910B8815990508F0BBCF848190E07A
:101E0000982F88273581832B81159C4511F42483D5
:101E100025833296ECCFE0EFEE16F10428F4D601DC
:101E200014966C910E941E33BFEFEB1AFB0AEFEF82
:101E3000CE1ADE0AC70187969601201B310B2A15A0
:101E40003B0548F3F3C08091DE049091DF04892BB9
:101E500009F4ECC0C8010E94CF1CFFEF21EE34E072
:101E6000F15020403040E1F700C000000E942C2BD0
:101E7000DDC0EA818E2F90E08E30910508F0D6C04B
:101E8000FC01EA5AFF4F0C94B33388E0EAE1F1E039
:101E9000DE01919601900D928A95E1F780E2D801DA
:101EA0001D928A95E9F785E0898388E0FE01B19665
:101EB000DE01159601900D928A95E1F7B7C084EB8B
:101EC000898381E08A831B821C82B0C08C8190E070
:101ED000982F88272B81820F911D092E000CAA0BA9
:101EE000BB0B35E0880F991FAA1FBB1F3A95D1F78E
:101EF000AC01BD01405E5F4F6F4F7F4F48175907E0
:101F00006A077B0708F492C0843BE1E09E07A105C5
:101F1000B10508F08BC0453BF1E05F076105710535
:101F200020F044EB51E060E070E0481B590BBC012D
:101F300069597E4FC8010E94013378C040E250E0E9
:101F40006FEF70E0C8010E94DA338091DE0489836C
:101F5000EA821B8283E08C831D8284E091C03092F0
:101F6000E3042092E20482E390E09093F2018093F4
:101F7000F1010E94912B9093F0018093EF0156C0E4
:101F8000EF2899F18091F30183FBFF24F0F882950B
:101F90008170F8228091EF019091F0010E94762BE0
:101FA00085369105E0F0FF20D1F00E94912B9093AF
:101FB000F0018093EF018091F1019091F20101977E
:101FC0009093F2018093F101892B79F41092E3044C
:101FD0001092E2043092DF042092DE0406C082E315
:101FE00090E09093F2018093F1018091DE04898367
:101FF0008091E2048A838091F10102CE1092DF0485
:102000001092DE0413C040E250E06FEF70E0C801B0
:102010000E94DA330BC08B81811108C080E2D801A5
:102020001D928A95E9F702C08FEF8983C8010E944B
:10203000CF1CC2C809BD19BD09B400FEFDCF8091F7
:10204000D8008F7D8093D8008091E00082608093DB
:10205000E0008091E00081FDFCCF0E9413293FEF5A
:1020600043EC89E0315040408040E1F700C000007F
:10207000ACC886E290E00E940A331B821C821D825B
:102080008E83D4CF2B30310508F0C0CBFECB2B3064
:10209000310508F011CC4FCC5F926F927F928F92F6
:1020A0009F92AF92BF92CF92DF92EF92FF920F93E7
:1020B0001F93CF93DF93CDB7DEB729970FB6F89470
:1020C000DEBF0FBECDBFFC018081918123813481B1
:1020D000232B31F09F3F31F491E08F3F19F403C07F
:1020E00091E001C090E090FDA6C66F0185E0DE01A1
:1020F000119601900D928A95E1F7F601228189816E
:102100009A81222349F00E949926182F682F8981ED
:102110009A810E94C62803C00E949628182F6981C0
:102120007A81812F0E94BF2D8C01F6019281992323
:1021300009F4BBC0980122513F452031310508F018
:10214000D0C08FEF93E00E940A338111B8C00251D2
:1021500037E1A32EBB24B394002379F0A114F4E05B
:10216000BF0609F4ACC0C5010E940A33811101C049
:1021700001502FEFA21AB20AEFCF1E821F821886DB
:102180001986EE24EA9485010F5F1F4FC5010E9456
:102190000A338E831F82882309F491C0813009F0AD
:1021A0007FC0450182E0880E911CC8010E940A335D
:1021B000582E8F83882309F482C08FEF850D8330DA
:1021C00050F40E5F1F4FC4010E940A3388878111AB
:1021D00067C05801D8CF8BEF850D8330A8F5350146
:1021E00093E0690E711CC4010E940A338887811133
:1021F00002C08301EECF85010C5F1F4FC3010E9417
:102200000A338987882329F3888599858130EFEF00
:102210009E0718F0F82EB12C02C0B82EF92EF6E069
:102220005F1641F027E0521651F08B2D9F2D0E9432
:102230002E2E05C08B2D9F2D0E942E2ECACF8B2DAA
:102240009F2D0E94DB2DC5CF84E0581611F084012C
:10225000C0CFC4010E940A33F82E85010C5F1F4FC6
:10226000C50103960E940A33FF2049F1882339F102
:10227000282F30E021503109E29EA001E39E500D4D
:1022800011248F2D90E00197840F951F019708F47A
:10229000A0CFEFE9FFE03197F1F700C00000F6CFE3
:1022A000CE0106960E94922E94CF00318FE518073A
:1022B00009F01CC581E00E94F8280E945A178091FD
:1022C000BA04877009F4B7C5F6018281882309F43E
:1022D000B2C58091B80182FDAEC582E00E94532450
:1022E000AAC50031FFE51F0711F481E005C00131E7
:1022F0002FE5120721F482E00E940429DECF8091AD
:102300000401811125C09801215031092E3F31056A
:1023100020F00F3E2FEF1207D8F089E68093CC040F
:102320000093CD04212F33272093CE049093CF0424
:10233000892F90E087599F4F820F931F800F911D27
:102340008093D00465E070E08CEC94E00E94F7315B
:102350008091F80181110FC0F6018281882309F470
:1023600062C00E940C2C80FD03C083E50E947C2982
:1023700081E08093F8010115FCE51F0709F058C0C2
:10238000F6018281882309F49ACF81E00E94722F9E
:10239000809172048E7F8093720410923104FFEF5B
:1023A00020E782E0F15020408040E1F700C00000CB
:1023B0000E94D81D0E948B2C33C0F6018281882395
:1023C00009F4CCC11092EC040330FDE51F0708F0BE
:1023D00060C00A3F2CE5120708F064C0C8018250B3
:1023E0009C45449708F45EC006319CE5190709F442
:1023F000A3C10A35EDE51E0709F4DEC108F0CDC121
:1024000001152CE5120709F0C2C10E941329FFEF44
:1024100024E38CE0F15020408040E1F700C0000050
:102420000E942C2B4CCF0115FCE51F0709F447CF68
:10243000033FFCE51F0749F406E221EE40EE63EF9F
:102440007CE5C6010E94182C3ACF043F2CE5120708
:1024500008F053C1083D8CE5180731F407E225EE7A
:1024600045EE68ED7CE5EDCF093D9CE5190731F4BB
:1024700008E221E045EE69ED7CE5E3CF073DECE5C0
:102480001E0709F09ACF06E221EE41EE67ED7CE5EA
:10249000D8CF01368DE5180729F0053A9DE51907D3
:1024A00009F0A2CF0E94B4239093B8018093B701A2
:1024B0000131ECE51E0709F4C6C008F042C009303E
:1024C0002CE5120709F49BC000F505309CE51907BF
:1024D00009F485C078F40330FCE51F0709F478C0DF
:1024E00008F07AC002301C4509F0F7C08091B701AE
:1024F0008160F1C007309CE5190709F478C008F045
:102500007AC08091B7018061E6C00D30FCE51F07FD
:1025100009F487C058F40B308CE5180709F479C02A
:1025200008F07BC08091B70188606FC00F30ECE588
:102530001E0709F480C008F082C08091B701877F30
:10254000CAC00D3F2CE5120709F471C000F5053132
:102550009CE5190709F485C068F40331FCE51F0701
:1025600009F475C008F095C00E9413298091B70145
:102570008F77B1C00B3F8CE51807A9F108F054C064
:102580000A3F1C4509F0A9C08091B80140C0013044
:10259000FDE51F0709F489C058F40F3F8CE51807C3
:1025A00009F45AC008F069C08091B80182602FC058
:1025B0000136EDE51E0709F47EC0053AFDE51F076B
:1025C00009F483C002301D4509F087C060E06EC089
:1025D0008091B70182607FC08091B70116C0809161
:1025E000B701886078C08091B80182604FC0809147
:1025F000B701806270C08091B70180646CC00E9496
:1026000013298091B701806866C0846064C08160CE
:102610003DC08091B7018E7F5EC08091B7018D7FF4
:102620005AC08091B70116C08091B80118C080913E
:10263000B8018D7F2BC08091B7018F7E4CC08091F7
:10264000B7018F7D48C08091B7018F7B44C08091D6
:10265000B701877F8B7F3FC08091B8018D7F8E7FD0
:1026600015C08091B70182FB222720F991E09227C3
:1026700090FB82F990FB83F92EC08091B801982FCE
:10268000909591708E7F892B90FB81F98093B80192
:1026900024C00E9413298091B70187FB222720F9CB
:1026A00091E0922790FB87F916C061E08EE090E000
:1026B0000E941E3312C08091B70184FB222720F9AB
:1026C00091E0922790FB84F906C08091B701982F82
:1026D000909590FB80F98093B7016091B7011091BC
:1026E000B80184E090E00E941E33612F82E290E006
:1026F0000E941E330E941329E2CD053FFCE51F070F
:1027000031F406E221EE42EE65EF7CE59ACE053F1C
:102710002CE5120730F407E225EE44EE64EF7CE589
:1027200090CE063F8CE5180709F047CE07E225EE6C
:1027300046EE66EF7CE585CE8091C4048A7A91E00E
:1027400009F490E09093F901882311F065E301C04A
:1027500069E287E794E00E94C62B16C006312CE59B
:10276000120781F58091F901882309F4C6C285E337
:10277000E7E7F4E02DE734E09281891301C012828B
:1027800031962E173F07C1F70E94092598CD0E3DBF
:102790001C45A1F50E94D02392CD0B359DE519076C
:1027A00069F00C351D4551F58091B80182FB8827F1
:1027B00080F991E0892703C081E001C080E00E9498
:1027C00070241CC08091C40482720A3C9CE51907E5
:1027D00009F418C308F0A8C2053CFCE51F0709F47A
:1027E000FDC208F08CC2033C9CE5190709F4ECC259
:1027F00008F0EFC2023C1C4509F4C1C2F601828117
:1028000000811181882349F0C8010E949926F82E81
:10281000682FC8010E94C62804C0C8010E949628DB
:10282000F82EB8018F2D0E94BF2D0E941A22E82E8B
:10283000192FA82EF6010281F580F2949FE0F9226B
:102840008091BA048770B9F00023A9F0812F807FAE
:10285000803421F080E28E0D883068F08091B801DC
:1028600082FD09C082E00E9453248091BA048770DF
:10287000BB24B3948111B12C912E92948FE09822B5
:10288000892D90E08C30910508F00DC2FC01EC59C7
:10289000FF4F0C94B333812F807F1F70882311F07A
:1028A0001295107F0023B9F0112309F4E9C180E2E9
:1028B0008E0D883010F0A11006C08091C404182B32
:1028C0001093C40405C08091C304182B1093C30453
:1028D0000E940925D5C18E2D0E944429112309F497
:1028E000E2C180E28E0D883088F1AA2079F110953E
:1028F0008091C30418231093C3042BC0812F807FC1
:102900001F70803211F01295107F8E2DAA2029F0B1
:10291000F1E0AF1609F45EC069C08091B80182FF92
:102920001BC0002369F0112339F08091C404182BD7
:102930001093C4040E94092580E00E947C29B3C141
:1029400080E00E944429112309F4ADC1812F0E9427
:1029500045240E940925A7C1002331F1FF20F1F091
:1029600021E0F2120FC08091C704182B181709F448
:102970009AC10E94912B9093C6048093C504109332
:10298000C70491C185E0F81209C00E943A248091E1
:10299000B7041817A9F11093B70432C08091C70487
:1029A000812B0E943A297FC1FF2051F091E0F9125A
:1029B0000DC08091C404812309F475C10E948D2447
:1029C0000E943A24812F0E9433296DC1E5E0FE1256
:1029D000F7CF69C1002329F0F5E0FF1508F463C1C2
:1029E0000FC024E02F1508F45EC1ECCF002351F096
:1029F000FF2031F0F601858180FF42C18F70858311
:102A0000812FCFCFFF20F1F2893309F049C1FFEFC9
:102A100027EE83E0F15020408040E1F73FC1812F55
:102A200086958695837019F0813061F03CC1002352
:102A300021F08E2D912F937002C080E090E00E94D3
:102A4000F62B39C1002321F08E2D912F937002C0F7
:102A500080E090E00E94E02B2EC18E2D002319F023
:102A60000E94C52002C00E94FE1F0E94942123C123
:102A7000812F8370A9F501111AC14E2D42954695FB
:102A80004770440F440F8E2D8F7090E09C01042EF0
:102A900001C0220F0A94EAF7E4FE08C08FE090E03C
:102AA00001C0880F4A95EAF7809501C080E016952D
:102AB00016951370123069F088F49091C8041130A3
:102AC00019F0822B892302C0922B892B0E940F2997
:102AD000EEC0822B9091C8048927F8CF822BF6CFC5
:102AE000002319F0812F817001C08695882309F495
:102AF000DEC04E2D429546954770440F440F8E2DF3
:102B00008F7090E09C01042E01C0220F0A94EAF716
:102B1000E4FE08C08FE090E001C0880F4A95EAF714
:102B2000809501C080E0169516951370123059F00B
:102B300078F490911C04113019F0822B892309C07C
:102B4000922B892B06C0822B90911C04892701C0EF
:102B5000822B0E94F428ABC01F70002339F0812F14
:102B60000E9404298E2D0E943A29A1C08E2D0E9418
:102B70003329812F0E94F8289AC08E2D92EFA91632
:102B800089F19A1538F0E0EFAE1659F0F1EFAF1673
:102B900011F171C023EFA21661F194EFA916B9F0FB
:102BA0006AC0002379F0E4E0EF1508F47CC01F71DF
:102BB00081E090E001C0880F1A95EAF790911C041B
:102BC000892721C0F5E0FF1508F46DC0F0CF809192
:102BD000B80182FF1BC0002339F0812F8F710E9442
:102BE000042961C00023C9F3812F8F710E94F82846
:102BF0005AC0002339F01F7181E001C0880F1A9577
:102C0000EAF701C080E00E94F4284DC00023D9F00B
:102C10008091B7040E9445248091BA048770843063
:102C200039F40E944C24812F8F710E94F8285CC0D7
:102C300024E02F1508F458C01F71812F0E94042929
:102C400063E0812F11C09091C4048091B704892B57
:102C50008093C40484E08F1550F40E944C240E9499
:102C60008D2464E0812F8F710E9456253DC081E044
:102C70000E94532439C0002329F0FF2009F4ADCF6E
:102C80008E2D5BCEFF2009F4AFCF893349F49FEF3F
:102C9000E7EEF3E09150E040F040E1F700C00000C3
:102CA0008E2D0E94442988EF890D843020F40E94E3
:102CB0000C2C0E947F2FBB2009F4BDC08091BA0468
:102CC00080FDB9C0F60112828595859585950E9493
:102CD0000429C6010E944C108091BA0485958595FF
:102CE00085950E94F828A7C0B12CE1CF0131EFE50E
:102CF0001E0709F004CB82E0DECA89E239CD073C29
:102D00002CE5120709F474C008F46DC0083CECE52A
:102D10001E0709F472C0093C1C4509F06FCD4BE851
:102D20005FE167E97FE17CC00F3C2CE5120709F405
:102D3000C6CA98F40C3CECE51E0709F46DC008F413
:102D400066C00D3C2CE5120709F46DC00E3C1C4515
:102D500009F054CD65E082E06BC0063D9CE51907A3
:102D600038F4013D1C4508F0AACA6BE086E060C05B
:102D70000D351D4509F042CD61E18CE059C08091CF
:102D8000720480FF1BC08E7F809372046091720476
:102D90007091730480917404909175040E942B1FAC
:102DA000109231042FEF80E792E021508040904054
:102DB000E1F700C000000E94D81D81CA81608093A5
:102DC000720461E0869531C04FE651E268E771E236
:102DD00027C048E751E26FE671E222C04BEB5FE1AA
:102DE00064EC7FE11DC044EC5FE16BEB7FE118C058
:102DF00043EA5FE16FEA7FE113C04FEA5FE163EA14
:102E00007FE10EC047E95FE16BE87FE109C04DEC6F
:102E10005FE16EED7FE104C04EED5FE16DEC7FE1BF
:102E20000E94D21D4CCA61E081E00E942D2147CA58
:102E30000E94822144CA29960FB6F894DEBF0FBEC5
:102E4000CDBFDF91CF911F910F91FF90EF90DF9059
:102E5000CF90BF90AF909F908F907F906F905F903A
:102E60000895EF92FF920F931F93CF93DF93EC019E
:102E70007B0164E670E088E70E949A308C01EC0EDA
:102E8000FD1ECE15DF0561F017FD0AC0FE0184911D
:102E900064E670E00E941B318C012196892B89F336
:102EA0000E949F31C801DF91CF911F910F91FF9038
:102EB000EF90089580911C04982F9670963011F42D
:102EC000886001C0877F0C94F428CF93DF938A3009
:102ED00011F481E003C08D3029F480E0DF91CF91BF
:102EE0000C94CA2C682F80911A0490911B0426E040
:102EF000FC01A4E1B4E001900D922A95E1F7603E57
:102F000030F026E0FC0111922A95E9F70AC0F6E0BC
:102F10006F9FB00111246F547B4F46E050E00E9438
:102F20000133C0911A04D0911B0446E050E0BE0169
:102F300084E194E00E94CD33892B49F19E01245114
:102F40003240A90185E0569547958A95E1F781E0E1
:102F500090E0BC0102C0660F771F4A95E2F74091EE
:102F6000120250911302462B572B2B5F3F4F65E007
:102F7000369527956A95E1F702C0880F991F2A9523
:102F8000E2F7842B952B90931302809312029E01FB
:102F90002E50324040911102642F70E0C9010E940E
:102FA0006F32481B463010F4240F311D211582E08A
:102FB000380710F020E030E02C5E3D4F30931B04CA
:102FC00020931A04DF91CF910895CF93DF93EC0102
:102FD000FE018491882321F00E9465172196F8CF85
:102FE000DF91CF9108951F93CF93DF93CDB7DEB7D5
:102FF000AA970FB6F894DEBF0FBECDBFE8E0F2E0AF
:1030000080E192E02091F10021938E179F07D1F784
:1030100080910902833009F463C030F4813071F08B
:10302000823009F49DC0B4C08A3009F489C08B3065
:1030300009F46EC0893009F0ABC020C0809108024D
:10304000813A09F0A5C08091E800877F8093E8006D
:1030500080910C0290910D02892B21F468E08DEF94
:1030600091E003C060E080E090E070E00E94CE2A32
:103070008091E8008B778093E8008AC080910802F5
:10308000813209F085C080910C0290910D02009769
:1030900019F0029709F07CC08091E800877F809347
:1030A000E8008091E80082FD05C080911002811146
:1030B000F8CF6EC02091F3008091F20090E0922B47
:1030C000029731F48091F100813011F0863021F4C3
:1030D0008091F1008093FC018091E8008B7754C0CF
:1030E00080910802813A09F053C080910C029091BE
:1030F0000D02892B09F04CC08091E800877F8093F6
:10310000E8008091E80080FFFCCF8091180137C073
:10311000809108028132E1F580910C0290910D02BC
:10312000892BB1F58091E800877F8093E8000E94A9
:103130007A2A80910A02809318010E94132928C0DC
:1031400080910802813221F58091E800877F809389
:10315000E8000E947A2A80910B028093FB0118C03C
:1031600080910802813AA1F48091E800877F8093E2
:10317000E8008091E80080FFFCCF8091FB01809304
:10318000F1008091E8008E778093E8000E947A2A0F
:103190008091E80083FFEBC18091080290910902C1
:1031A000492F50E04A30510508F0E1C1FA01E059D9
:1031B000FF4F0C94B333803821F0823809F0D7C127
:1031C00008C08091050290910602992389F08260DF
:1031D0000FC080910C028F70873008F0C8C18093B7
:1031E000E9008091EB0085FB882780F91092E900C7
:1031F0009091E800977F9093E8008093F1001092FF
:10320000F1007CC1282F2D7F09F0B1C1882319F06E
:10321000823061F0ACC180910A02813009F0A7C10F
:10322000933009F080E0809306022EC080910A025C
:1032300081112AC080910C028F702FEF280F263049
:1032400008F095C18093E9002091EB0020FF1CC09D
:10325000933021F48091EB00806214C09091EB00D8
:1032600090619093EB0021E030E0A90102C0440F8F
:10327000551F8A95E2F74093EA001092EA00809188
:10328000EB0088608093EB001092E9008091E800E9
:10329000877F8093E8000E947A2A69C1811167C103
:1032A00010910A021F778091E3008078812B809330
:1032B000E3008091E800877F8093E8000E947A2AEB
:1032C0008091E80080FFFCCF8091E30080688093CC
:1032D000E300111102C082E001C083E0809310027C
:1032E00046C18058823008F042C120910A023091D4
:1032F0000B022C3D53E0350779F583E08A838AE29F
:1033000089834FB7F894DE01139620E03EE051E246
:10331000E32FF0E050935700E49120FF03C0E295C3
:10332000EF703F5FEF708E2F90E0EA3010F0C7969D
:1033300001C0C0968D939D932F5F243149F74FBFF5
:103340008091E800877F8093E8006AE270E0CE0118
:1033500001960E94CE2AC0C080910C0290910D026D
:10336000432F552743305105B1F068F441305105E2
:1033700009F40CC14230510509F0F9C08BE590E029
:10338000EEEFF3E057C04132510589F14232510569
:1033900009F43CC0ECC0C901992781309105B9F00E
:1033A00070F082309105D9F0039709F0E0C0EBE6A8
:1033B000F4E0E4918E2F90E0EBE6F4E038C0EDEA23
:1033C000F4E0E4918E2F90E0EDEAF4E030C0E9E91A
:1033D000F4E0E4918E2F90E0E9E9F4E028C0E9E818
:1033E000F4E0E4918E2F90E0E9E8F4E020C083302F
:1033F000910508F0BCC0880F991FFC01EA59FE4FE7
:103400000190F081E02D89E090E014C083309105B7
:1034100008F0ADC0FC01EE0FFF1FE05AFE4F019017
:10342000F081E02DDC01A35ABE4F8C9190E0009713
:1034300009F49DC02091E800277F2093E8002091A7
:103440000E0230910F022817390708F4C90140E035
:10345000009789F120911002222309F43DC0253004
:10346000D9F12091E80023FD37C02091E80022FD2A
:103470002FC02091E80020FFEBCF4091F300209176
:10348000F20030E0342B009759F02830310540F439
:1034900044914093F100319601972F5F3F4FF3CF56
:1034A00041E02830310509F040E02091E8002E7716
:1034B0002093E800CDCF4111CDCF0AC080911002FA
:1034C000882351F0853041F08091E80083FD04C0ED
:1034D0008091E80082FFF2CF8091E8008B778093A3
:1034E000E80045C0803809F042C08091E800877F3D
:1034F0008093E800809107028093F1008091E800BA
:103500008E77C7CE811133C080910A0290910B0251
:103510009927029764F58091E800877F8093E800FF
:1035200010910A02109307020E947A2A111106C014
:103530008091E30087FD02C081E001C084E08093B8
:10354000100242E061EC81E00E94992A42E261ECC3
:1035500084E00E94992A42E261EC82E00E94992A6A
:1035600042E260EC83E00E94992A809110028091EF
:10357000E80083FF10C08091E800877F8093E80017
:103580008091EB0080628093EB0005C082E190E0C7
:10359000E9E5F4E04FCFAA960FB6F894DEBF0FBE70
:1035A000CDBFDF91CF911F9108951F920F920FB65B
:1035B0000F9211242F933F934F935F936F937F93B9
:1035C0008F939F93AF93BF93CF93DF93EF93FF932B
:1035D000C091E900CF708091EC00D82FD17080FDB0
:1035E000D0E81092E9008091F000877F8093F0008E
:1035F00078940E94F3171092E9008091F00088609F
:103600008093F000CD2BCF70C093E900FF91EF9134
:10361000DF91CF91BF91AF919F918F917F916F91EA
:103620005F914F913F912F910F900FBE0F901F9080
:103630001895E8EDF0E080818E7F80831092E200A3
:103640001092DA001092E100A0EEB0E08C9181605F
:103650008C9380818F77808319BCA7EDB0E08C912B
:103660008E7F8C9380818F7E80831092FA010895E3
:10367000CF92DF92EF92FF920F931F93CF93DF933E
:10368000C8EDD0E088818F7E8883E7EDF0E080810F
:103690008160808384E082BF81E08093FA01888129
:1036A0008E7F888302EE10E0F80110821092DA001B
:1036B00081EEC82ED12CF601108288818F77888305
:1036C00088818068888388818F7D888319BC109267
:1036D000100210920702109206021092050290EE5C
:1036E000E92EF12CF70180818B7F808388818160B6
:1036F000888342E060E080E00E94992AF6018081A0
:103700008E7F8083F80180818160808380818860E2
:103710008083F70180818E7F8083888180618883A8
:10372000DF91CF911F910F91FF90EF90DF90CF909D
:1037300008951F920F920FB60F9211242F933F936B
:103740004F935F936F937F938F939F93AF93BF93A9
:10375000EF93FF938091E10082FF09C08091E20026
:1037600082FF05C08091E1008B7F8093E100809112
:10377000DA0080FF2AC08091D80080FF26C08091A7
:10378000DA008E7F8093DA008091D90080FF18C024
:1037900080E189BD82E189BD09B400FEFDCF81E0F1
:1037A000809310028091FA0181110FC00E94191BB1
:1037B0000E94381B8091E20084608093E20005C083
:1037C00019BC109210021092FA018091E10080FF62
:1037D00017C08091E20080FF13C08091E2008E7FCD
:1037E0008093E2008091E20080618093E20080910A
:1037F000D80080628093D80019BC85E080931002C5
:103800008091E10084FF30C08091E20084FF2CC0F1
:1038100080E189BD82E189BD09B400FEFDCF8091C0
:10382000D8008F7D8093D8008091E1008F7E8093B7
:10383000E1008091E2008F7E8093E2008091E200BF
:1038400081608093E20080910702882311F084E078
:1038500007C08091E30087FD02C081E001C083E0E2
:1038600080931002809110028091E10083FF27C0B5
:103870008091E20083FF23C08091E100877F8093E5
:10388000E10082E080931002109207028091E10033
:103890008E7F8093E1008091E2008E7F8093E20032
:1038A0008091E20080618093E20042E060E080E08D
:1038B0000E94992A8091F00088608093F000FF9127
:1038C000EF91BF91AF919F918F917F916F915F9198
:1038D0004F913F912F910F900FBE0F901F90189511
:1038E0002091E4003091E50095E64091EC00842FB2
:1038F000817040FF23C08091E80080FD1DC0809151
:103900001002882399F0853099F08091EB0085FDB5
:1039100011C04091E4005091E5002417350729F3C8
:10392000915011F09A01E1CF84E0089582E008956A
:1039300083E0089581E0089580E008954091E800D3
:1039400042FFDDCF0895EF92FF920F931F93CF9325
:10395000DF937C018B010E94701C811119C0E7016B
:1039600001151105A1F08091E80085FD0AC0809144
:10397000E8008E778093E8000E94701C882381F312
:1039800007C089918093F10001501109E9CF80E0CF
:10399000DF91CF911F910F91FF90EF900895CF93FA
:1039A000209110022430F9F4C091E900CF703091D9
:1039B000EC00232F217030FD20E8C22B22E0209361
:1039C000E9002091E80020FF0BC040E050E060E2F9
:1039D00070E00E94A31C8091E8008E778093E8003D
:1039E000CF70C093E900CF9108950895AF92BF9230
:1039F000CF92DF92EF92FF920F931F93CF93DF93BB
:103A0000E82EF62EE901E42FF0E0611106C0EF5038
:103A1000F64FE4914E2F2E2F71C0062F10E0EF507D
:103A2000F64F4491F42FC42ED12C26E0829FC00182
:103A300011242FEF30E0B9010E946F325BEA560388
:103A4000C001579F900D11248E0D911D8E0D911D5B
:103A5000582F550F580FD901A01BB10BAC9DC001B9
:103A6000AD9D900DBC9D900D1124E92FF59ED001C8
:103A70001124AB2FBB277901EA1AFB0AEC9CD00179
:103A8000ED9CB00DFC9CB00D11245901A51AB10894
:103A9000A09E7001A19EF00CB09EF00C1124EF2CA2
:103AA000FF242E193F092C9D80012D9D100D3C9D5A
:103AB000100D1124212F6230710591F048F4611529
:103AC0007105E1F061307105B9F4242F4B2F16C058
:103AD0006430710569F040F06630710579F00CC012
:103AE000242F492FE12F0AC0492FEF2F2B2F06C07B
:103AF000292FE42F412F02C0292FEB2F4983288340
:103B0000EA83DF91CF911F910F91FF90EF90DF90AB
:103B1000CF90BF90AF900895CF93C82F811102C06E
:103B20006FEF01C060E783E290E00E941E33C11195
:103B300002C06FEF01C066E484E290E00E941E3391
:103B4000C11102C06FEF01C065E685E290E0CF9140
:103B50000C941E3380E00E948C1D60E070E0CB016D
:103B60000E947A2E0E94402D0E94FA2C81E00C9433
:103B70008C1D83E290E00E940A33803781F484E256
:103B800090E00E940A33863451F485E290E00E946E
:103B90000A3391E0853609F090E0892F01C080E07A
:103BA00081700895882311F0FA0101C0FB01099486
:103BB0008091720480FF0AC0269A85B18F7B95B1EF
:103BC00090642FB7F894E2E3F4E00BC0E2E3F4E092
:103BD000118210821282339634E0EA34F307C1F77F
:103BE000EBCF34E0EA34F30789F0319148E095B93E
:103BF000000000C037FF85B9330F000000C000C0CF
:103C000000C085B900C04A9591F7EBCF2FBF8FE573
:103C100094E00197F1F700C0000008959F92AF92E1
:103C2000BF92CF92DF92EF92FF920F931F93CF93A9
:103C3000DF93FC01A280948081E08483E1EFFAE0CD
:103C4000B490E0E7FBE0E491CAE4D4E0F2E3EF2EC5
:103C5000F4E0FF2ECC24CA94D12CEB190E2F10E0E7
:103C600022E02A1530F080917304888380917404D7
:103C70008983911003C01B821A8255C08B818823CF
:103C8000F9F081508B832FEF829FC00111246C814A
:103C900070E00E946F32FB01FF27EF50F54F8491D7
:103CA000E82FEB192FEFE29FC0011124B8010E9409
:103CB0006F3280917504689FB00111247A8333C0FC
:103CC0000E94F132209175042695215830E0A90117
:103CD000440F551F322F2227240F351F232F332740
:103CE0008217930704F582E08A1588F40E94F13266
:103CF000B6010E949F3388830E94F13220917404A0
:103D00002695622F70E00E949F33280F29831A8224
:103D100080917504843120F0893C18F088EC01C052
:103D200084E18C838B8397014A81698188810E9419
:103D3000F61C259623E0E20EF11C84E0C237D8077A
:103D400009F08ECFDF91CF911F910F91FF90EF90EF
:103D5000DF90CF90BF90AF909F900C94D81DEF92C2
:103D6000FF921F93CF93DF93EC0182E3E82E84E070
:103D7000F82E10E08C8197014091750460917404D5
:103D8000810F0E94F61C115E83E0E80EF11C183FC3
:103D900089F70E94D81D9A818C8190FF02C08F5FA5
:103DA00001C081508C83DF91CF911F91FF90EF90E4
:103DB00008959091720490FF0CC0E2E3F4E08183D7
:103DC00060834283339694E0EA34F907C1F70C9498
:103DD000D81D08950F931F93CF93DF9300D01F92A8
:103DE000CDB7DEB78C01DC011496EC91F0E0EF501A
:103DF000F54F44918091720480FF0EC09E012F5FA9
:103E00003F4F60917404809173040E94F61C4B81B3
:103E100069818A810E94D91EF80184818F5F848321
:103E20000F900F900F90DF91CF911F910F910895F8
:103E300080917204282F269530E02115310519F460
:103E40008170826005C02231310524F08170826268
:103E5000809372040895CF92DF92EF92FF926B01EC
:103E60007C010E94181FB701A60188E090E0FF9036
:103E7000EF90DF90CF900C943033EF92FF920F933E
:103E80001F93CF93DF9300D01F92CDB7DEB7082FDB
:103E9000F62E142FE22E8091720480FF32C0E82F9C
:103EA000E695F0E0E459FE4F9081909330048E7FC8
:103EB000823061F49E012F5F3F4F802F0E94F61CDD
:103EC0004B8169818A810E94D91E09C0923019F400
:103ED0001091750404C0963011F40091730400939E
:103EE0007304F092740410937504EE2051F0609105
:103EF00072047091730480917404909175040E940F
:103F00002B1F0F900F900F90DF91CF911F910F916A
:103F1000FF90EF900895E2E7F4E0438121E1421B36
:103F200008F440E021E0628181810C943D1FE2E7CA
:103F3000F4E0438121E1420F08F44FEF21E0628178
:103F400081810C943D1FE2E7F4E0628121E1621B74
:103F500008F460E021E0438181810C943D1FE2E799
:103F6000F4E0628121E1620F08F46FEF21E0438108
:103F700081810C943D1FE2E7F4E0818121E04381DF
:103F8000628188500C943D1FE2E7F4E0818121E0DA
:103F900043816281885F0C943D1F80917604882361
:103FA00019F08150809376046091720470917304CB
:103FB00080917404909175040C942B1F8091760469
:103FC000833018F48F5F809376046091720470914F
:103FD000730480917404909175040C942B1FE2E794
:103FE000F4E083E0808311828FEF828383831482E5
:103FF00060817181828193810C942B1F803F39F401
:104000008091270487FF6AC01092270467C0813F10
:1040100029F4809127041816BCF360C090912604FF
:10402000823F29F497FF5AC01092260457C0833F5D
:1040300019F41916CCF352C090912804893F31F439
:1040400019160CF04BC01092280448C08A3F19F48E
:1040500097FF44C0F8CF8B3F39F48091290487FF44
:104060003DC0109229043AC08C3F29F48091290464
:104070001816BCF333C0843F21F4809125048E7F51
:1040800017C0853F21F4809125048D7F11C0863FA4
:1040900021F4809125048B7F0BC0873F21F4809110
:1040A0002504877F05C0883F31F4809125048F7EE9
:1040B0008093250413C08D3F21F480911F048E7FCF
:1040C0000BC08E3F21F480911F048D7F05C08F3F70
:1040D00029F480911F048B7F80931F048091260414
:1040E000811106C080912704811102C010921E0424
:1040F00080912804811106C080912904811102C099
:1041000010921D04089580911F0480FD16C081FD4A
:1041100016C082FD18C080911D04882391F088325A
:1041200090F428E0829FC001112468E270E00E94B0
:104130009F33862F672B29F007C082E0089584E023
:10414000089581E0089588E0089580911F0480FD1E
:1041500014C081FD14C082FD16C080911E04882306
:1041600081F08E3180F420E5829FC00111246EE140
:1041700070E00E949F33862F089584E1089588E2BD
:10418000089588E0089580E50895803F21F40E9415
:10419000A520819504C0813F29F40E94A520809329
:1041A00027040895823F21F40E94A520819504C030
:1041B000833F29F40E94A520809326040895893F17
:1041C00019F40E94832005C08A3F31F40E948320A5
:1041D00081958093280408958B3F21F40E948320C9
:1041E000819504C08C3F29F40E9483208093290488
:1041F0000895843F21F480912504816017C0853F94
:1042000021F480912504826011C0863F21F48091C1
:10421000250484600BC0873F21F4809125048860C9
:1042200005C0883F31F48091250480618093250486
:1042300008958D3F21F480911F0481600BC08E3F53
:1042400021F480911F04826005C08F3F29F4809182
:104250001F04846080931F0408959091720490FF5E
:104260003DC09170811102C0926006C0823110F091
:10427000926202C0880F982B90937204662351F0CB
:10428000609172047091730480917404909175042C
:104290000E942B1F60917204669570E041E050E02F
:1042A00089E191E00E94C033892B19F0109231040A
:1042B00009C081E0809331040E94912B90932B04DC
:1042C00080932A0481E080932D0420E040917504BE
:1042D00060917404809173040C943D1F0895809143
:1042E00072048695815009F481E161E00C942D21DE
:1042F0008091720486958F5F823108F081E061E0E1
:104300000C942D219091720490FF04C096959817FB
:1043100040F003C0811105C090E0961710F40C9492
:10432000782161E00C942D210E94912B209126048C
:10433000211104C020912704222321F0909323040B
:104340008093220420912804211104C02091290483
:10435000222321F09093210480932004E091EF0424
:10436000F091F004309749F082E0809324040480B7
:10437000F581E02D84E294E00994089580E00895A9
:104380009091B70192FF0DC0282F2871283019F4A1
:10439000877F846006C0282F2471243011F48B7F1E
:1043A000886093FF0DC0282F2871283119F4877E6B
:1043B000846106C0282F2471243111F48B7E88611A
:1043C0002091B80120FF0DC0382F3871383019F412
:1043D000877F816006C0382F3171313011F48E7FB4
:1043E000886021FF0DC0282F2871283119F4877E9D
:1043F000816106C0282F2171213111F48E7E8861E0
:1044000094FD877E0895F894E82FE295EF70F0E030
:1044100031A1282F2F7081E090E001C0880F2A95EC
:10442000EAF7982F9095932391A392A1892B82A3C9
:1044300078940895CF93DF938238910569F1B0F4B1
:104440008133910509F46FC048F48932910509F46C
:1044500065C08A32910509F46BC08AC08533910525
:1044600009F457C089339105B9F082C0833E9105A4
:1044700071F138F4803E9105B1F0823E910511F161
:1044800077C0863E9105B9F1873E9105C9F1843E1A
:10449000910509F06DC024C02091B70120FD53C0E3
:1044A00021FD51C065C08091B70180FD46C080915B
:1044B000B80180FF48C08091B70184FD50C183EEF0
:1044C00090E04FC18091B70182FF3AC0F4CF809154
:1044D000B70182FD35C08091B80180FD34C0EBCFBB
:1044E0008091B80181FF35C08091B70184FD37C14B
:1044F00087EE90E036C18091B70183FF27C0F4CFEB
:104500008091B70183FD22C08091B80181FD21C057
:10451000EBCF8091B70185FD1FC021C08091B7010D
:1045200085FD1DC019C08091B70186FD1BC01DC04F
:104530008091B70186FD19C015C089E390E011C1D3
:1045400082EE90E00EC180EE90E00BC186EE90E02E
:1045500008C184EE90E005C189E290E002C185E3E4
:1045600090E0FFC08AE290E0FCC081E390E0F9C0F7
:10457000811531E5930708F069C0811540E594077E
:10458000F0F09C0174E0369527957A95E1F7922F2B
:104590009370482F437021E030E002C0220F331F98
:1045A0004A95E2F73C68392B982F9F70969596951F
:1045B00040E2949FC0011124822B932BD2C0883EED
:1045C000910568F5803E910508F0CBC0883A9105C9
:1045D000B8F4853A910548F0855AE82FF0E0E258A2
:1045E000FE4F808190E09064BCC08130910509F459
:1045F000B3C008F4B4C08430910508F4B0C0B1C0B1
:104600008F3B910508F0ABC0885AE82FF0E0EE0F21
:10461000FF1FEF57FE4F808191819464A2C08115E6
:1046200020E2920758F4811531E0930708F099C011
:10463000803F910508F493C0906593C0811540E4D4
:10464000940708F48CC09F70906A8BC0811525E593
:10465000920708F042C0811534E5930728F0982F9F
:104660008827846F906A7DC0811543E59407B0F078
:104670009C012370332741E050E002C0440F551FD6
:104680002A95E2F7282F2695269580E2289F90010B
:104690001124CA01822B932B9A6863C0811522E5ED
:1046A000920728F4982F8827816F906A5AC09C013E
:1046B0002370332741E050E002C0440F551F2A9574
:1046C000E2F7282F2695269580E2289F9001112455
:1046D000CA01822B932B9C6844C0EC01811539E5FB
:1046E0009307A8F48115984528F09C2F8827806FA0
:1046F000906A37C0C11586E5D80788F58C2F0E94CF
:10470000C0218F7190E0982F882790622AC0811570
:104710002AE5920790F48C2F8F700E94C02194E0BC
:10472000D695C7959A95E1F7CF70D0E0DC2FCC27CE
:10473000D0699E01282BC90114C090568115904262
:1047400070F48D2F8F710E94C021282F2F71CE0100
:1047500099279062922B05C081E090E002C080E032
:1047600090E0DF91CF910895CF9384E090E00E9494
:104770000A33C82F82E290E00E940A332C2F30E0E7
:10478000A901582BCA01CF91089580E090E00E94C2
:104790001833893E9E4F11F40C94B91D80E00895A2
:1047A00069EE7EEF80E090E00E943C3360E082E0C2
:1047B00090E00E941E3360E083E090E00E941E3390
:1047C0001092C80460E084E090E00E941E3360E034
:1047D00082E290E00E941E3360E085E090E00E945B
:1047E0001E3360E086E090E00E941E336FEF87E0AA
:1047F00090E00E941E3340E050E0BA0188E090E073
:104800000E94303360E08DE090E00E941E3340E073
:1048100050E0BA0188E190E00E94303360E087E127
:1048200090E00E941E3340E050E0BA018CE190E03D
:104830000E94303360E070E080E290E00E943C3300
:1048400040E050E0BA0188E190E00E94303380E01F
:104850000E948C1D0E94AA1D40E050E0BA018FE02A
:1048600090E00E94303340E050E0BA0183E190E0F4
:104870000C9430338091C704882331F01092C70420
:104880001092C6041092C504089580959091C404B6
:1048900089238093C40408951092BA041092B90435
:1048A0001092B80408952091BA04809582238093D1
:1048B000BA04982F977099F430E0482F082E000C16
:1048C000550B2417350759F09091B80192FD07C098
:1048D0008595859585950E94F8280C944C2408951B
:1048E000CF93C091B801C2FB992790F9981799F01E
:1048F00080FBC2F9C093B8016091B70184E090E0F9
:104900000E941E336C2F82E290E00E941E3382E0F0
:10491000CF910C945324CF9108958091B7048111C5
:104920001092B70408958091B60490918504891778
:1049300019F08F5F8770FBCF08950F931F93CF936C
:10494000DF938091840482958F7009F05DC080911F
:104950008104882309F458C08091B604109185041D
:1049600060917F0470918004C0918204D09183048F
:1049700091E06F3F09F090E0292F06E0811709F4DC
:1049800043C0209721F07F3F21F030E003C031E0A9
:1049900001C0322F90E030FD34C0089FF001099F24
:1049A000F00D1124DF01AA57BB4F11963C911197CE
:1049B000371327C03C91361324C012963C911297AE
:1049C00031111FC013964D915C9114974C1B5D0BD8
:1049D000483C5105B0F4809184048F7080618093CD
:1049E0008404E557FB4F80818F70806180838FE75F
:1049F00094E00E944C10DF91CF911F910F910C9485
:104A0000932401968770BACFDF91CF911F910F91B8
:104A100008959091C4048091C304892B80937704F6
:104A20008091C704882311F10E94912B2091C50425
:104A30003091C604821B930B8838934110F00E947A
:104A40003A24909177048091C704892B809377044E
:104A5000E9E7F4E097E080E0915029F021912223EA
:104A6000D9F38F5FF9CF81110E943A2448E050E0DA
:104A70006BEB74E087E794E00E94CD33892BA9F0BB
:104A800088E0E7E7F4E0ABEBB4E001900D928A95A3
:104A9000E1F7E091EF04F091F004309731F00280FB
:104AA000F381E02D87E794E0099408959091B8018F
:104AB00092FD10C098E0899F90011124262B20932D
:104AC000BA040E9404290E94912B9093B904809308
:104AD000B80408950C9404299F92AF92BF92CF928C
:104AE000DF92EF92FF920F931F93CF93DF9300D04B
:104AF00000D01F92CDB7DEB7AE014F5F5F4F7A0196
:104B000085E0DA011D928A95E9F702E211E0992425
:104B10009394CC24C394D12C5E01B6E0AB0EB11CAF
:104B2000F80180818F3F09F444C0F894E82FE295A2
:104B3000EF70F0E021A18F70A60102C0440F551F55
:104B40008A95E2F7CA01922F982B91A392A18095A2
:104B5000892382A3789400C048E251E0F701392DFF
:104B60003095DA012D91AD012F3F99F0822F82957A
:104B70008F7090E0DC0190968C9190E02F7002C0D5
:104B8000959587952A95E2F780FD03C08081892954
:104B900002C08081832380833196EA15FB0509F7E3
:104BA000F80180818F3F11F00E940322F0EAFA950C
:104BB000F1F7990C0F5F1F4F31E00832130709F02E
:104BC000AFCF45E050E0B70182EB91E00E94CD33DA
:104BD000DD24D394009709F4D12C892B89F085E04A
:104BE000F701A2EBB1E001900D928A95E1F781E027
:104BF0008093CB040E94912B9093CA048093C904A4
:104C00008091CB048823F1F08091C9049091CA046B
:104C10000E94762B0597B0F08091B2018093F3014A
:104C20008091B3018093F4018091B4018093F501E8
:104C30008091B5018093F6018091B6018093F701D0
:104C40001092CB0480910401882309F445C00E948E
:104C50000B32882309F440C00091D10410E00E9477
:104C6000E331F801E453FB4F80838091D10481113B
:104C700007C09091CC04993659F11092D104E7CF36
:104C8000843031F58091CC048936B9F72091CF0476
:104C90003091CE04822F90E0830F911D3091CD048E
:104CA000830F911D87599F4F9091D0049813E5CFA2
:104CB0008091CD049091CE048F3E4FEF9407E8F69B
:104CC000222319F00E947C29D8CF0E944429D5CFF5
:104CD0008F5F8093D104BBCF8D2D0F900F900F90DD
:104CE0000F900F90DF91CF911F910F91FF90EF9058
:104CF000DF90CF90BF90AF909F90089580E090E0BC
:104D00000E94F62B80E090E00E94E02B1092C304FA
:104D10000E940925E4E2F4E086E0DF011D928A9515
:104D2000E9F710921E0410921D0410921F040C94B7
:104D30009421CF92DF92FF920F931F93CF93DF9333
:104D40006C0100911C048091C804082BC7E0D0E0DE
:104D500010E0C8010C2E02C0959587950A94E2F7E1
:104D600080FD04C02197A8F7F12C09C0FC2EB601E4
:104D70008C2F0E94BF2D0E941A22019799F38F2D2C
:104D8000DF91CF911F910F91FF90DF90CF90089509
:104D9000CF93DF93EC010E949926BE010E94BF2DA4
:104DA0000E941A22DF91CF910895FC0180819181A8
:104DB0000E94C82692959F70963079F010F4925018
:104DC00001C09A50923068F4803F69F018F4883E30
:104DD00040F409C0843F29F406C0883E20F0813F9A
:104DE00011F080E0089581E008959F92AF92BF9204
:104DF000CF92DF92EF92FF920F931F93CF93DF93A7
:104E0000CDB7DEB761970FB6F894DEBF0FBECDBF4A
:104E10008C0185E0F801DE011D9601900D928A95C6
:104E2000E1F7F801E28090917F0460918004409165
:104E30008204509183044115510531F06F3F31F4E4
:104E400081E09F3F19F403C081E001C080E0F82FAA
:104E5000F1709F2E80FD1AC1F80130812181C3803D
:104E6000D4808FE7A82E84E0B82EF0908104F6015C
:104E7000E41BF50BFF2009F4C6C080918404E83CD4
:104E8000F10508F091C0482F407F09F050C062132F
:104E900011C093130FC0FE2CE1100CC08F70806105
:104EA00080938404C5010E944C1080918404F80111
:104EB000858329C1CD2831F02F3F31F481E03F3F78
:104EC00019F403C081E001C080E080FD03C081E0EF
:104ED0008E2502C080E090E0F82FF170FF2E80FF59
:104EE0001CC08091B6044091850456E0841709F4F3
:104EF000E8C090E0589FF001599FF00D1124EA5747
:104F0000FB4F6181261306C06081631303C0628179
:104F1000E61203C001968770E9CFFE2CEE2009F45B
:104F2000F2C08091840481608093840449C062133C
:104F300006C0931304C0E11002C0F80186C0C80186
:104F40000E94D526882351F1EE2041F1209184045E
:104F5000822F82958F7090E0029774F080917F0489
:104F60009091800498878F831986DB86CA862C8768
:104F7000CE0107960E944C1086E0F801AFE7B4E03E
:104F800001900D928A95E1F70E949D240AC0621754
:104F9000C9F0C8010E94D52681111EC0C8010E9417
:104FA0004C10FF24F394AFC0482F407F81F78FE768
:104FB00094E00E944C1086E0F50111928A95E9F781
:104FC000F12CA1C09313E5CFE110E3CFF801858365
:104FD000C8010E944C1054C0EE2001F320918404BB
:104FE000822F82958F7090E0029734F280917F0437
:104FF000909180049A8389831B82DD82CC822E83E8
:10500000CE010196B7CFE83CF105D0F5FE2CEE209D
:1050100029F2621327C0931325C02091840420FD38
:1050200018C0822F82958F70482F50E0411551058E
:1050300081F0F80125834F30510541F08F5F982FA3
:105040009295907F822F8F70892B8583C8010E9453
:105050004C1086E0F801AFE7B4E001900D928A951C
:10506000E1F751C0C8010E94D526811185CF8091FA
:105070008404816080938404C8010E944C1043C062
:1050800086E0F50111928A95E9F73DC0EE2009F41A
:1050900085CFC8010E94D526F82E882309F47ECF3B
:1050A00086E0F801AFE7B4E001900D928A95E1F750
:1050B00080917F04909180040E94C8260E949D24C4
:1050C00022C03D872E878D859E850E94C826292F68
:1050D00022952F70223028F49F7039F0811105C07D
:1050E0000BC0243028F49F7049F4805E883020F093
:1050F000C8010E944C109F2CF92C05C0F801958125
:10510000907F99F7F9CF8F2D61960FB6F894DEBF97
:105110000FBECDBFDF91CF911F910F91FF90EF9008
:10512000DF90CF90BF90AF909F9008959E3F61F128
:10513000292F220F920F990F980F692F6695669568
:105140006695977083E0689FB001112440E050E0BD
:1051500080E0FB01E40FF51FEE52FB4F208130E0B1
:10516000092E02C0369527950A94E2F7217033275D
:10517000042E01C0220F0A94EAF7822B4F5F5F4F83
:105180004330510531F7089580E008959E3F59F16D
:10519000292F220F920F990F980FE92FE695E69588
:1051A000E695977051E001C0550F9A95EAF783E0B4
:1051B000E89FF0011124EE52FB4F20E030E070E058
:1051C0004081CB01022E02C0969587950A94E2F7A2
:1051D0008170819584278523842781932F5F3F4F9A
:1051E0002330310569F7089580931C040C947E26C2
:1051F00021E030E001C0220F8A95EAF720958091E6
:105200001C0482230C94F42821E030E001C0220F1A
:105210008A95EAF780911C04822B0C94F4288093E1
:10522000C8040C947E261092C40486E0E9E7F4E0FA
:10523000DF011D928A95E9F70C947E26882341F0C0
:1052400080959091C30489238093C3040C9409250D
:105250000895882339F09091C304892B8093C30467
:105260000C9409250895882321F00E9445240C946C
:1052700009250895882339F09091C404892B8093DF
:10528000C4040C94092508958823A9F19CEF980F74
:10529000913A60F4E7E7F4E09281891301C0128249
:1052A000319694E0ED37F907B9F70DC090E2980F09
:1052B000983058F4877091E001C0990F8A95EAF709
:1052C000892F0E9445240C9409259BE5980F933063
:1052D00020F480E090E00C94F62B98E5980F97313D
:1052E00020F480E090E00C94E02B803F20F00E94BE
:1052F000FE1F0C9494210895CF93882309F459C07C
:10530000C82F8CEF8C0F813AF8F4E9E7F4E08FE7CF
:1053100094E02191C21721F08E179F07D1F70EC09C
:10532000E7E7F4E08DE794E02281C21301C0128226
:1053300031968E179F07C1F70E9409256C2F87E7CA
:1053400094E00E94C62B10C080E28C0F883078F465
:10535000C77081E090E001C0880FCA95EAF790918C
:10536000C404892B8093C404CF910C940925EBE5E8
:10537000EC0FE33040F4F0E0E258FE4F808190E023
:10538000CF910C94F62BE8E5EC0FE73150F4F0E008
:10539000EE0FFF1FEF57FE4F80819181CF910C944C
:1053A000E02BC03F30F08C2F0E94C520CF910C9491
:1053B0009421CF9108951F93CF93DF93182F8933B2
:1053C00019F0C0E0D0E002C0C0E5D0E0812F0E941B
:1053D0007C29209741F08FE99FE00197F1F700C009
:1053E00000002197F6CF812FDF91CF911F910C9470
:1053F000442908958091FC0108958093F8047093E6
:10540000FA046093F904809110028430F9F48093D7
:10541000E9008FEF9091E800815095FD06C095ED71
:105420009A95F1F700008111F5CF8091E80085FF92
:105430000DC040E050E063E070E088EF94E00E942F
:10544000A31C8091E8008E778093E8000895BC014A
:1054500084E00C94FD29BC0183E00C94FD2924E038
:105460002093E9002FEF3091E800215035FD06C070
:1054700035ED3A95F1F700002111F5CF2091E800C4
:1054800025FF0BC040E050E066E070E00E94A31CE6
:105490008091E8008E778093E8000895CF93DF93A2
:1054A00021E02093E9002FEF3091E800215035FDF5
:1054B00006C035ED3A95F1F700002111F5CF2091A6
:1054C000E80025FF14C0EC0140E050E068E070E027
:1054D0000E94A31C8091E8008E778093E80088E00A
:1054E000FE01ADEFB1E001900D928A95E1F7DF91F9
:1054F000CF9108958091080287FF11C08091E80044
:1055000082FD05C0809110028111F8CF11C08091F9
:10551000E8008B770BC080911002882349F08091BE
:10552000E80080FFF8CF8091E8008E778093E80054
:105530000895982F973068F59093E900981739F0FF
:105540007091EC002091ED005091F00003C0242FE9
:10555000762F50E021FD02C09F5FECCF3091EB0031
:105560003E7F3093EB003091ED003D7F3093ED00B6
:105570003091EB0031603093EB007093EC0020939E
:10558000ED005093F0002091EE0027FDE5CF80E084
:1055900008958F708093E90081E0089520910E02B4
:1055A00030910F022617370748F06115710539F45D
:1055B0002091E8002E772093E80001C0B901FC019A
:1055C00020E06115710579F1809110028823F1F1D5
:1055D0008530F1F18091E80083FD3CC08091E800C6
:1055E00082FD2EC08091E80080FFEBCF2091F30078
:1055F0008091F20090E0922B6115710551F0883096
:10560000910538F421912093F100615071090196C0
:10561000F3CF21E0089709F020E08091E8008E7731
:105620008093E800CECF2111CFCF0AC08091100225
:10563000882361F0853061F08091E80083FD0AC025
:105640008091E80082FFF2CF80E0089582E0089523
:1056500083E0089581E0089581E08093E00080E296
:105660008093D8001092C9008FE19EE40197F1F772
:1056700000C0000087E090EBDC0180933F06909330
:105680004006A0934106B09342069CE088E10FB625
:10569000F894A895809360000FBE90936000FFCFB0
:1056A00078941F920F920FB60F9211248F939F93AD
:1056B000AF93BF938091F4049091F504A091F60408
:1056C000B091F7040196A11DB11D8093F40490934D
:1056D000F504A093F604B093F704BF91AF919F91A6
:1056E0008F910F900FBE0F901F9018959C014FB790
:1056F000F8948091F4049091F504A091F604B0918F
:10570000F7044FBF821B930B08952FB7F894609155
:10571000F4047091F5048091F6049091F7042FBF82
:1057200008952FB7F8948091F4049091F504A09116
:10573000F604B091F7042FBF08951F920F920FB691
:105740000F9211248F939F93AF93BF938091F30493
:10575000811113C08091F4049091F504A091F60496
:10576000B091F7044196A11DB11D8093F40490936C
:10577000F504A093F604B093F704BF91AF919F9105
:105780008F910F900FBE0F901F9018959C01FC01F8
:1057900032969FEF80E04191461789F09F3F19F4C0
:1057A000411101C0982F8F5F8630A9F79F3F39F0D4
:1057B000F901E90FF11D97FDFA95628308950895A7
:1057C0002091F1043091F2042817390771F0909379
:1057D000F2048093F104E091EF04F091F00430972B
:1057E00021F00084F185E02D099408952091ED04C5
:1057F0003091EE042817390771F09093EE048093EE
:10580000ED04E091EF04F091F004309721F0068070
:10581000F781E02D09940895E091EF04F091F004F0
:10582000309721F00190F081E02D099480E00895F7
:105830000F931F93CF93DF93C42FD22FFC0182814C
:105840008823C9F04093EC040E94912B9093EB04C1
:105850008093EA0480E28C0F883008F057C0C7704C
:1058600081E001C0880FCA95EAF7DF91CF911F91BF
:105870000F910C943A298091EC04481330C0809128
:10588000EA049091EB040E94762B883C910538F550
:1058900010E21D0FCD17B9F080E28C0F883040F474
:1058A000C77081E001C0880FCA95EAF70E943329CA
:1058B000183028F581E09D2F977001C0880F9A95C8
:1058C000EAF70E943A29802F0E94DB291830F0F471
:1058D000D77081E001C0880FDA95EAF70AC080E24C
:1058E0008C0F883098F4C77081E001C0880FCA958A
:1058F000EAF7DF91CF911F910F910C943329802FFC
:10590000DF91CF911F910F910C94DB29DF91CF9103
:105910001F910F9108958091E9049091E8048823E4
:1059200089F0992369F062E070E083EE9CE00E94C8
:105930003117892B19F08091E80408951092E8043A
:105940009091E80481E0892708958091E9048823F3
:10595000F1F00E94852BDC01CB019352A249BF4F8D
:105960008093E4049093E504A093E604B093E704E5
:105970008091E80481110BC062E070E081EE9CE050
:105980000E943117892B19F481E08093E8048091FB
:10599000E8040895CF93E82F20911A0430911B0456
:1059A0002451324040911102642F70E0C9010E94DD
:1059B0006F32481B842FEE2351F066E00E94933330
:1059C000C82FC150A8F080E20E946517FACFA90144
:1059D000480F511D4115524018F080E020E030E0A2
:1059E000280F311D2C5E3D4F30931B0420931A0469
:1059F000CF910895CF93DF93C7E1D1E060E0CE016E
:105A00000E941E332196C11584E0D807B9F7DF91B3
:105A1000CF9108950F931F93CF93DF93843058F560
:105A2000653048F5463038F521159CE5390731F4E5
:105A3000E091DE04F091DF04EF2BE9F08901C42F3F
:105A4000D0E0CC0FDD1F9CE0699FC00DD11D11245B
:105A50009CE3899FC00DD11D1124612FCE01879633
:105A60000E941E33602FCE018896DF91CF911F9147
:105A70000F910C941E33DF91CF911F910F910895D8
:105A80008F929F92AF92BF92CF92DF92EF92FF924E
:105A90000F931F93CF93DF93C090DE04D090DF0469
:105AA00081E090E09093DF048093DE04812CE12C70
:105AB000F12C912C00E010E0C0E0D0E05701A00EE6
:105AC000B11EFE01EE0FFF1FEA0DFB1DEF50F44F5C
:105AD000259134914C2F692D882D0E940A2D2196F5
