:100000000C94ED030C9425040C9425040C94250405
:100010000C9425040C9425040C9425040C942504BC
:100020000C9425040C9425040C9476180C94B217A7
:100030000C944B1F0C9425040C9425040C9425045B
:100040000C9425040C9425040C9425040C9425048C
:100050000C94232D0C94FE1E0C9425040C94250462
:100060000C9425040C9425040C9425040C9425046C
:100070000C9425040C9425040C9425040C9425045C
:100080000C9425040C9425040C9425040C9425044C
:100090000C9425040C9425040C9425040C9425043C
:1000A0000C9425040C9425040C9425047305750503
:1000B0007D05B305CC058D05E705940A940AC40AAD
:1000C000C40A5D0BB60CB60CB60C7B0BEE0B010C28
:1000D000010CE711FD1104123C124D1258126B1263
:1000E0007E12C012C512ED12171351135413B81516
:1000F000DF159417DF1594172B164E1694174F170C
:100100005F17FD377A585A000004E6D6B44602005D
:10011000210116000000742FE5A3E0060E01E15D49
:10012000003D8889C65436C3174FE4E619728A9099
:100130000D8F008E5204E492A034D7B5422E493779
:10014000C6058946B2F32BF18858F2E47D5E6ED67F
:1001500073439AFDB22E02ADEEFA3F8BC8E6ED8FE7
:100160008CBD52B507893BD5643D436C575E801BFF
:10017000670A2EF51A891B7E870292134DD8BCCCD4
:10018000E35CDB3E6AC98EDCEA3BA757935CB33F76
:1001900082821165791FDB1E55B8A859DD11442DE7
:1001A000F2899413D8D7C34D3568B827D4EFEDD76B
:1001B00082CAE39C277D322C377656CAA1C9E54412
:1001C0003439E03A29CD2B27AACE35F0D783F0A4D5
:1001D000F138C7A1D721A212FD268983468F2AE4D0
:1001E00040B9A9E193B7897F3FC67E4ECC8E734C50
:1001F000E7BBDACF253852B482DCF8F47CB9739CC3
:10020000641056DFB392FEA88EA329BE8A6D9E802D
:100210002BBEBD6470E53998E34FB91415B0D6DE36
:10022000DB77CCB2A4D35F4D07934B140BBEED8CA0
:10023000018D19656F5A2899BB95D0CD5474B74B71
:10024000B91E771331846D5CB6DE467127709F3717
:10025000CA7C8FBAA593B51EDE4B874C758F125E94
:1002600039DC6BD34D38734E5A77FA73B671248EDE
:10027000CA90F234C7F0A5EF326F6CFF70BC3CE659
:10028000AFF737B06549A60E901A4F064C61BCF423
:100290002FF5C199711E2E95ACC0A66C692800A6D9
:1002A000F724BED2D98B95D8F7BB1A1D71A5231E92
:1002B000CA82FC38FB609F35AD644B888CEB12B270
:1002C000D7AF9DE5B39B4FF3BD709D343751EA5FC7
:1002D000337A773695DBE610A36789570AAB0B5C58
:1002E00050EEC4EE6307B8A3A5D3A85B9688BB7491
:1002F000A88FD2D5560C138EAB502B998CF2514C43
:10030000BF3F000000006D2D3248138010EA00014D
:10031000FD038F0C0000C3FBD991B1C467FB020041
:1003200000000004595A05010980A1018503190143
:100330002AB700150126B700950175108100C00588
:100340000C0901A101850419012AA002150126A0AA
:1003500002950175108100C00660FF0961A10109C5
:1003600062150026FF0095207508810209631500BB
:1003700026FF00952075089102C005010906A1011C
:10038000050719E029E71500250195087501810287
:100390009501750881010507190029FF150026FF41
:1003A0000095067508810005081901290595057550
:1003B000019102950175039101C009025B000301DF
:1003C00000A0FA0904000001030101000921110144
:1003D0000001224000070581030800010904010013
:1003E000020300000009211101000122220007057B
:1003F0008203200001070503032000010904020015
:10040000010300000009211101000122320007054B
:10041000840320000112010002000000083147049B
:10042000000100010203011C037600690061006CF9
:10043000003A006600360034006300320062003388
:100440000063000000260365007900650020006F4E
:100450000068002000640065007300690067006E9A
:10046000007300200073003500300000001E03659B
:10047000007900650020006F0068002000640065BE
:10048000007300690067006E007300000004030938
:100490000414001A000800150017001C0018000CB6
:1004A0000004001600070009000A000B000D000EF2
:1004B000001D001B00060019000500110010003689
:1004C00000A80029002B003A00E100E300E000E270
:1004D000002C000151E4002A002700000020002623
:1004E000001E0021002400000022001F0023002520
:1004F00000120013000F0033003700380001512CA8
:1005000000010001000100010001000100010001E3
:1005100000010001000100010001000100010001D3
:1005200000010001000100010001000100010001C3
:1005300000010001000100010001000100010001B3
:1005400000010001000100010001000100010001A3
:100550000001000100010000000100010001000194
:100560000001000100010001000100010001000183
:100570000001000100010001000100010001000173
:100580000001000100010001000100010001000163
:100590000001000100010001000100010001000153
:1005A0000001000100010001000100010001000143
:1005B0000001000100010001000100010001000133
:1005C0000001000100010000000100010001000124
:1005D0000001000100010001000100010001000113
:1005E0000001000100010001000100010001000103
:1005F00000010001000100010001000100010001F3
:1006000000010001000100010001000100010001E2
:1006100000010001000100010001000100010001D2
:1006200000010001000100010001000100010001C2
:1006300000010001000100000001000100010001B3
:1006400000010001000100010001000100010001A2
:100650000001000100DF02000002000200DB0200D6
:100660000003000100E002000004000200C5027B5C
:100670001E05000100E102000006000200C70200A2
:100680000007000200DD02000008000100E2020095
:100690000012000200E302000013000200E5020065
:1006A0000014000100E7020000000000000000004C
:1006B0000000000001010203040506080A0C0F11E6
:1006C00014181C2024292E33393F464C535B626A90
:1006D0007179818A929AA2AAB2B9C1C8CFD5DCE158
:1006E000E7EBF0F4F7FAFCFDFEFFFEFDFCFAF7F491
:1006F000F0EBE7E1DCD5CFC8C1B9B2AAA29A928AE1
:100700008179716A625B534C463F39332E2924202C
:100710001C1814110F0C0A0806050403020101003D
:1007200000000000000000000000000000000000C9
:1007300000000000000000000000000000000000B9
:10074000000000000000000000000000007E0F001C
:10075000D4FFFFFFC7000000780000000000000089
:10076000002A2B280000000000000000000000000C
:100770000000000029000000002C1E34202122244B
:10078000342627252E362D3738271E1F20212223D9
:100790002425263333362E37381F0405060708096B
:1007A0000A0B0C0D0E0F1011121314151617181931
:1007B0001A1B1C1D2F3130232D350405060708098F
:1007C0000A0B0C0D0E0F1011121314151617181911
:1007D0001A1B1C1D2F3130354C0011241FBECFEFCA
:1007E000DAE0DEBFCDBF04B603FE18C08091A004DE
:1007F0009091A104A091A204B091A3048730904BE2
:10080000A740B04B59F41092A0041092A10410928A
:10081000A2041092A304E0E0F8E3099511E0A0E03F
:10082000B1E0E8EDF5E602C005900D92AC37B107F6
:10083000D9F724E0ACE7B1E001C01D92A03AB207BD
:10084000E1F70E941A0D0C94EA320C9400006F92AA
:100850007F928F929F92AF92BF92CF92DF92EF9250
:10086000FF920F931F93CF93DF9300D000D0CDB7AB
:10087000DEB77C01DC0113964D915C9114971196C3
:100880006C9111978C910E94A62081110C94070DF8
:1008900061E0C7010E94412F8C01F7018281811123
:1008A00006C0D70112968C9181113EC078C5809107
:1008B0000C0190910D010196A1F36FEEC62E62E03E
:1008C000D62EA12CB12C9924939480910C01909157
:1008D0000D018A159B052CF3F60186818823E9F02A
:1008E000818592850817190739F48091ED0290915E
:1008F000EE020817190789F0D6011F969C921F97E0
:100900001C961C930E931B97C6010E940D20C601D6
:1009100006960E94C61F1092EC02BFEFAB1ABB0AEC
:10092000E6E1CE0ED11CD1CF980122513F452031B6
:10093000310508F0AFC08FEF93E00E9402328111C1
:100940001CC5025157E5A52E53E0B52E002379F0C2
:10095000A114F4E0BF0609F410C5C5010E940232DB
:10096000811101C001502FEFA21AB20AEFCF1982F4
:100970001A821B821C82CC24CA9485010F5F1F4FF0
:10098000C5010E94023289831A82882309F4F5C4C2
:10099000813009F07AC0450132E0830E911CC80114
:1009A0000E940232D82E8A83882309F4E6C48FEF8E
:1009B0008D0D833050F40E5F1F4FC4010E94023230
:1009C0008B83811162C05801D8CF8BEF8D0D83309E
:1009D00070F5350183E0680E711CC4010E9402327B
:1009E0008B83811102C08301EECF85010C5F1F4F05
:1009F000C3010E9402328C83882329F32B813C811E
:100A000021309FEF390718F0922F80E001C0C90113
:100A1000A6E0DA1631F0B7E0DB1631F00E941E2CAA
:100A2000D2CF0E94992BCFCF0E94102BCCCFE4E0E5
:100A3000DE1611F08401C7CFC4010E940232D82E05
:100A400085010C5F1F4FC50103960E940232DD2015
:100A500009F493C4882309F490C4282F30E021506E
:100A60003109C29EA001C39E500D11248D2D90E02E
:100A70000197840F951F019708F4A5CFAFE9BFE058
:100A80001197F1F700C00000F6CFCE0101960E9449
:100A9000652E99CF0031EFE51E0731F00131FFE5FA
:100AA0001F07B1F482E001C081E00E94871A0E9412
:100AB000C51463C4680127E5D21A3FEFC316D104F9
:100AC00009F008F47BC4F7018281882309F489C006
:100AD000F801EB5BFC45E730F10508F082C0EA5A0B
:100AE000FF4F0C94A63283E001C080E00E94F42DF9
:100AF000809111040E94C42D40C480911104982F4C
:100B000096959695969549F1915E990F990F990F43
:100B10008770892B8093110414C090911104892F40
:100B20008695869586958F5F8F719770843008F0D3
:100B30004BC0880F880F880F892B809311048091F8
:100B40001104887F91E009F490E08091110490FBFA
:100B500080F9809311040E94C42D80911104869520
:100B60008695869523C020911104822F86958695BF
:100B70008695482F50E04330510554F48F5F982FED
:100B8000990F990F990F822F8770892B80931104E9
:100B9000809111048160DDCF8091110480FF09C034
:100BA0008E7F809311040E94C42D80E00E94962DB8
:100BB000E4C3816080931104813019F489E080934B
:100BC000110480911104C7CF90931104B8CF809184
:100BD000110481FF03C00E94C92DCFC30E94DF2DE5
:100BE000CCC3980137552F3F310511F008F058C09C
:100BF00040910C0150910D014217530724F430939A
:100C00000D0120930C0196E1929F5001939FB00C2F
:100C10001124950121513D4F6901D90150968C93C2
:100C20005097F701928116968C911697992369F146
:100C30001A961C930E9319978F5F16968C930E94A9
:100C40003F1FD6011E969C938E931D9780910D0495
:100C500017968C9317979091EC028091DC01892B69
:100C600018968C931897ED91FC911197309741F05D
:100C700054966D917C915597C5018B509D4F099568
:100C80001093EE020093ED020BC0882349F0F901A6
:100C90008189882329F0C5018B509D4F0E94C61F72
:100CA0008091E00280FF6BC10E943F1F6C01D70161
:100CB00012968C918823D9F18091110182FF08C08E
:100CC00022E931E040E0B60180E090E00E9440225D
:100CD0000B31BCE51B0779F00C31ECE51E0789F000
:100CE0000A31FCE51F07A1F480911101982F90951E
:100CF00090FB80F909C080911101816080931101FE
:100D000007C0809111018E7F809311010E94032200
:100D1000C8019056811520E2920720F0905E81155F
:100D2000904180F5109200021092FF0128C1013E0F
:100D3000110521F4809111018F7E06C0053E110539
:100D400031F4809111018F7D809311011BC0C80186
:100D500090568115A0E29A0720F0905E811590418F
:100D600088F48091110182FF0AC18091E20281FD25
:100D700006C122E931E040E0B60180E090E00E9447
:100D80004022FDC08091110180FFF9C0F7018281EE
:100D90000832110538F40E311105B8F4043011058C
:100DA00078F4C9C00933110538F40D32110590F4F7
:100DB0000B32110579F0BFC00436110559F0BBC0E4
:100DC0009091E00294FDB7C009C09091E00293FDBC
:100DD000B2C004C09091E00292FDADC0882309F436
:100DE000A3C02091DC0180910D04982F922B392F04
:100DF0003D7F79F1109200021092FF013091E002E4
:100E000031FD27C0F80143E0F695E7954A95E1F7F3
:100E1000EE71FF27E352FE4F98012F70332781E0D8
:100E200090E002C0880F991F2A95E2F7809590956F
:100E3000208131818223932391838083A70160E005
:100E4000C8010E94212280910D048D7F0E948E276F
:100E500067C038E0F701A2E9B1E001900D923A9540
:100E6000E1F7109294011092960110929501409131
:100E7000FF015091000204171507D1F53091E002EF
:100E800035FF36C04091110141FF02C036FF30C02E
:100E90004091FD015091FE01B601641B750B40911C
:100EA000DD025091DE026417750710F521FF08C0BE
:100EB0008091110180618093110182E00E94A92735
:100EC0008091DC0185FF08C08091110180628093D0
:100ED000110180E20E94A92760911101669561705D
:100EE000A7018091FF01909100020E94212245C23A
:100EF000969591702091110190FB21F92093110199
:100F00008D7F0E948E27109300020093FF01D092E4
:100F1000FE01C092FD018091110184608093110156
:100F200082E00E94BD2729C2970140E0B601C801B6
:100F30000E94402222C2882311F1109200021092D6
:100F4000FF01033FFCE51F07B9F178F4083D3CE5DC
:100F5000130761F1093D8CE5180709F44EC0073D00
:100F60009CE5190709F058C01BC0053FACE51A07FE
:100F7000A1F168F1063FECE51E07C9F14DC0033F42
:100F8000FCE51F07C9F0F0F4083D3CE5130771F0DC
:100F9000093D8CE5180789F1073D9CE51907B1F576
:100FA00006E221EE41EE67ED7CE52CC007E225EE7E
:100FB00045EE68ED7CE526C006E221EE40EE63EFEB
:100FC0007CE520C0053FACE51A0739F060F407E284
:100FD00025EE44EE64EF7CE515C006E221EE42EE1C
:100FE00065EF7CE50FC0063FECE51E0779F407E2EC
:100FF00025EE46EE66EF7CE505C008E221E045EE11
:1010000069ED7CE5C7010E942F20B7C1D701129678
:101010002C91222309F446C11092EB020330BDE566
:101020001B0758F40A3FECE51E0780F4C801825004
:101030009C45449708F035C109C00136FDE51F07FE
:1010400029F0053A2DE5120709F02BC10E94FD2673
:10105000909389018093880101313CE5130709F4DD
:10106000C6C008F042C009309CE5190709F49BC0CE
:1010700000F50530BCE51B0709F485C078F40330A2
:10108000FCE51F0709F478C008F07AC002301C455F
:1010900009F0F7C0809188018160F1C007308CE5CC
:1010A000180709F478C008F07AC08091880180613F
:1010B000E6C00D30ACE51A0709F487C058F40B30D0
:1010C000ECE51E0709F479C008F07BC08091880127
:1010D00088606FC00F302CE5120709F480C008F05B
:1010E00082C080918801877FCAC00D3F8CE51807B8
:1010F00009F471C000F50531ACE51A0709F485C0A3
:1011000068F40331ECE51E0709F475C008F095C0DA
:101110000E94C01A809188018F77B1C00B3F2CE5E7
:101120001207A9F108F054C00A3F1C4509F0A9C0F4
:101130008091890140C001309DE5190709F489C0FB
:1011400058F40F3FBCE51B0709F45AC008F069C00A
:101150008091890182602FC00136FDE51F0709F4E7
:101160007EC0053A2DE5120709F483C002301D4503
:1011700009F087C060E06EC08091880182607FC006
:101180008091880116C080918801886078C0809124
:10119000890182604FC080918801806270C0809117
:1011A000880180646CC00E94C01A809188018068A8
:1011B00066C0846064C081603DC0809188018E7F7C
:1011C0005EC0809188018D7F5AC08091880116C0D1
:1011D0008091890118C0809189018D7F2BC08091F9
:1011E00088018F7E4CC0809188018F7D48C080919E
:1011F00088018F7B44C080918801877F8B7F3FC0AF
:10120000809189018D7F8E7F15C08091880182FB3E
:10121000222720F991E0922790FB82F990FB83F935
:101220002EC080918901982F909591708E7F892B87
:1012300090FB81F98093890124C00E94C01A80919B
:10124000880187FB222720F991E0922790FB87F9FC
:1012500016C061E08EE090E00E94103212C08091D2
:10126000880184FB222720F991E0922790FB84F9E2
:1012700006C080918801982F909590FB80F980930B
:101280008801609188011091890184E090E00E94BA
:101290001032612F82E290E00E9410320E94C01A48
:1012A0006CC021E00631FCE51F0709F047C08091C2
:1012B000DC01982F9A7A3091DF0230FF04C0482F6A
:1012C000447409F090E031FF04C0482F417109F0E7
:1012D00090E032FF04C0482F487809F090E033FFD7
:1012E00002C0827261F42223A1F081E0911101C059
:1012F00080E080937E01992331F065E305C02223CD
:1013000041F010927E0169E28DEA93E00E94741F21
:1013100012C080917E01882311F085E301C089E22B
:10132000EDEAF3E09281891301C01282319693E0D5
:10133000E33BF907B9F70E9427281FC0D70112968F
:101340008C91882309F49BC00A35ADE51A0709F48E
:1013500091C008F080C00115ECE51E0709F075C0CA
:101360000E94C01A8FEF94E3ACE081509040A040FF
:10137000E1F700C000000E94DA1E8091020487702D
:1013800009F445C3F7018281882309F440C38091A1
:10139000890182FD3CC382E00E94BD2738C3003131
:1013A000BFE51B0721F481E00E947B1A80CB01314D
:1013B000EFE51E0709F07ECB82E0F6CF6EE174E028
:1013C0008C2D0E944124892B09F07DCB86E18C9DD8
:1013D000F0018D9DF00D1124E151FD4F868181308A
:1013E000E1F480911E0490911F04892B09F46BCBCA
:1013F0008091200490912104892B09F464CB809181
:10140000220490912304892B09F05DCB8091240460
:1014100090912504892B59F056CB823009F053CB9B
:101420008091220490912304892B09F44CCB26E16E
:101430002C9DC0012D9D900D112481519D4FDC01EB
:1014400050961C920E940D203ECB0E3D1C45B9F4D7
:101450000E94192792CF0B352DE5120769F00C3544
:101460001D4569F48091890182FB882780F991E00C
:10147000892703C081E001C080E00E94DA27D701FC
:1014800016968D919C9117970097C9F4D7011296E3
:101490008C9112970D911C91882349F0C8010E94EC
:1014A000DE19D82E682FC8010E944A1A04C0C8014C
:1014B0000E941A1AD82EB8018D2D0E9480230E94F6
:1014C0007425182F092FF701B280C580C2943FE020
:1014D000C322809102048770B9F0BB20A9F0892F44
:1014E000807F803421F080E2810F883068F0809125
:1014F000890182FD09C082E00E94BD27809102041B
:101500008770AA24A3948111A12C902E92942FE08D
:101510009222892D90E08C30910508F027C2FC01C1
:10152000E35AFF4F0C94A632902F9F70802F807F3C
:10153000D92E19F0D29490EFD922BB20A9F0DD204A
:1015400009F4F4C180E2810F883010F0111104C059
:101550008D2D0E94B02705C08091EC02D82AD09230
:10156000EC020E942728E2C1812F0E94EA1ADD20A6
:1015700009F4FCC180E2810F883068F1112359F130
:101580008D2D0E94A2272AC0902F9F70802F807FD0
:10159000D92E803219F0D29480EFD822112321F075
:1015A000113009F45CC067C08091890182FF19C0C5
:1015B000BB2059F0DD2029F08D2D0E94B0270E941C
:1015C000272880E00E941B1BD1C180E00E94EA1AFC
:1015D000DD2009F4CBC18D2D0E94A9270E94272868
:1015E000C5C1BB2001F1CC20D1F0F1E0CF1206C083
:1015F00080910D048D290E948E27B8C18091E1024F
:10160000823068F0C8120BC00E9483278091FF03CC
:10161000D812D092FF038D2D0E94E31AA7C18091AA
:101620000D048D29F9CFCC2079F08091E10221E0E1
:10163000C21210C0823008F499C18091DC018D2162
:1016400009F494C10E9472280E9483278D2D0E9464
:10165000DC1A8CC18230C0F3C812F6CF87C18091EA
:10166000E702BB2021F08C1508F480C1D4CFC81646
:1016700008F07CC1EBCFBB20E9F0CC2061F220E088
:10168000D7014C9111965C91119712966C9112971B
:1016900013967C91139714968C910E94182F809129
:1016A000E20281FD43C1F701858180FF3FC18F7058
:1016B0008583B1CFC11043C1C9CF802F8695869550
:1016C000837019F0813061F051C1BB2021F0812F6E
:1016D000902F937002C080E090E00E94A41F4CC144
:1016E000BB2021F0812F902F937002C080E090E00A
:1016F0000E948E1F41C1802F8370A1F5B1103AC1A5
:10170000412F429546954770440F440F212F2F706B
:1017100030E0C901042E01C0880F0A94EAF714FFD3
:1017200008C02FE030E001C0220F4A95EAF720956B
:1017300001C020E0302F369536953370323069F095
:1017400040F440911504313019F0822B842302C0FB
:10175000842B822B0E94921A0DC1282B8091150494
:101760008227F8CFBB2019F0802F817001C08695A9
:10177000882309F4FFC0412F429546954770440FD6
:10178000440F212F2F7030E0C901042E01C0880FB3
:101790000A94EAF714FF08C02FE030E001C0220FDE
:1017A0004A95EAF7209501C020E0302F369536950E
:1017B0003370323051F070F44091C001313019F083
:1017C000822B842308C0842B05C0282B8091C00164
:1017D000822701C0822B0E94771ACCC0F02FFF70A5
:1017E000DF2EBB2039F08F2F0E94871A812F0E9495
:1017F000E31AC0C0812F0E94DC1A8D2D0E947B1A33
:10180000B9C0123F11F128F4103F41F0113FA9F186
:1018100089C0133F01F1143F61F184C08091E70258
:10182000BB2021F0C81608F0A1C003C08C1508F435
:101830009DC0202F2F7181E090E001C0880F2A9574
:10184000EAF79091C00189270FC0802F8F71BB20CC
:1018500009F470C087C0BB2051F081E0902F9F71C8
:1018600001C0880F9A95EAF70E94771A7FC080E03E
:10187000FBCF8091890182FF06C0802F8F71BB2032
:1018800009F470C057C08091E1028230A0F18091CC
:10189000FF03BB20E1F00E94A9278091020487701A
:1018A000843039F40E94B627802F8F710E947B1AF2
:1018B0005CC08091E102C81608F057C0202F2F713C
:1018C000D22E822F0E94871A63E08D2D0DC00E94B8
:1018D000B0278091E102C81650F00E94B6270E94FE
:1018E000722864E0802F8F710E94F7273EC081E04C
:1018F0000E94BD273AC0BB2059F0302F3F71D32E34
:10190000832F0E94871A63E08D2D0E94F7272EC037
:1019100081E00E94BD2781E08C1540F582E00E94A5
:10192000BD2724C0BB2049F0CC2011F0812F4ACE26
:10193000802F8F710E94871A19C0CC2089F019332B
:1019400029F48091E5029091E60204C08091E302BF
:101950009091E4020E943522812F0E94EA1A06C06B
:10196000802F8F710E947B1A01C0A12C88EF890DF6
:10197000843010F40E94BA1F812F902F0E94961A73
:10198000811105C01092800110927F0125C0BB20FB
:1019900019F0C110F7CF20C0C110F4CF20E0D7015B
:1019A0004C9111965C91119712966C911297139627
:1019B0007C91139714968C910E94182F8091E202CB
:1019C00083FFE0CF80917F01909180010297D1F653
:1019D000812F0E946D1BD6CFAA20A9F0809102040E
:1019E00080FD11C0F70112828595859585950E942D
:1019F000871AC7010E942704809102048595859566
:101A000085950E947B1A60E0C7010E94412F0F90CC
:101A10000F900F900F90DF91CF911F910F91FF903A
:101A2000EF90DF90CF90BF90AF909F908F907F907E
:101A30006F900895CF93DF93CDB7DEB7E4970FB6DD
:101A4000F894DEBF0FBECDBF84B7877F84BF0FB6CB
:101A5000F894A8958091600088618093600010924E
:101A600060000FBE90E080E80FB6F89480936100AC
:101A7000909361000FBE85B7806885BF85B7806889
:101A800085BF86E594E290937D0180937C010E945E
:101A9000BA2A0E94612A0E9408230E94F6170E9417
:101AA00015188091E20084608093E2007894809120
:101AB000BF018823A1F01091E9001F709091EC0004
:101AC000892F817090FD80E8182B1092E900809199
:101AD000E80083FD0E94D0141F701093E90082E09B
:101AE00084BD93E095BD9AEF97BD80936E000E94F0
:101AF0000A2D811102C00E94FB2C0CE111E043E28F
:101B0000E42E41E0F42ED8018D918D018F3F11F02C
:101B10000E949B24E016F106B1F703E211E03BE2DC
:101B2000E32E31E0F32EF80181918F018F3F11F008
:101B30000E949B24E016F106B1F787E0E2EAF1E0AB
:101B4000DF01282F1D922A95E9F7E1E8F1E0DF0196
:101B50001D928A95E9F70E940E27811102C00E940A
:101B6000192782E090E00E94023280938A010E944D
:101B7000FD2690938901809388010E94B224EFE3AF
:101B8000FCE93197F1F700C000000E94B224809177
:101B9000A20180FF08C06FEF7FEF80E090E00E941D
:101BA0002E320E94DA1E83E090E00E9402320E94F0
:101BB000921A259A2D9882E88093800089E180937B
:101BC00081008FEF9FEF90938700809386000E94A3
:101BD0000D2E8091110481FF0BC0109214041092FD
:101BE00013041092120480916F00816080936F0043
:101BF0000E940D2E5198599A22982A9A8FE891E0C6
:101C00000197F1F700C0000089B1869581701A9B99
:101C100002C092E001C090E0892B80939C0180E09B
:101C200091E09093A2038093A1038E010F5F1F4F59
:101C30008091BF01853009F04CC090E1E92E22E18E
:101C4000F22E8091BF01853009F03DC08091BF0127
:101C5000843039F180E00E94962D1092A503A8E10E
:101C6000B0E0E0E40FB6F894A895A09360000FBE32
:101C7000E093600083B7817F846083BF83B7816016
:101C800083BF7894889583B78E7F83BF0FB6F8940F
:101C9000A895809160008861809360001092600038
:101CA0000FBE8091B501882309F4CBCF0E94B224E6
:101CB000E2EAF1E0819181118EC529EA31E02E1727
:101CC0003F07C1F7BECF0E94C01A0E940D2E0E948E
:101CD000BA1F0E94B22481110E94331F82EAA82EEB
:101CE00081E0B82EABE8B1E0F501E12CF12C3E2DFE
:101CF00021919D91922721F180E0DD24D3944D2DF7
:101D00004923D1F08BA73CA72D2181E009F480E085
:101D10008DA70E943F1F8160782F9FA78EA74BA59C
:101D20005CA56DA58FA50E944F2FF701E557FE4FCB
:101D30008081D826D0821BC08F5FDD0C8830F9F6F9
:101D40003FEFE31AF30A87E0E816F10481F68FEF1C
:101D500088AB89AB1AAA0E943F1F8160782F9CAB89
:101D60008BAB48A959A96AA98CA90E944F2F8091D1
:101D70000C0190910D01019651F1712CB6E16B2E81
:101D80001DC0689EF001699EF00D1124E151FD4FC8
:101D9000C288D388C114D10421F4C090DD02D09050
:101DA000DE02689E4001699E900C1124F401E1510D
:101DB000FD4F7F01868181110FC07394872D90E0C4
:101DC00020910C0130910D0128173907D4F680912C
:101DD0001201811111C038C0858596850E94241F8B
:101DE000C816D90650F7C7010E940D20C4018B50B8
:101DF0009D4F0E94C61FE1CF8091C3029091C40203
:101E0000009711F10E94241F2091010230910202DB
:101E100028173907C8F49091C1028091C20298171F
:101E200059F00E9454211092020210920102109265
:101E3000C4021092C30208C00E94E3201092C402A0
:101E40001092C3020E9435218091E00280FF1EC0E3
:101E50008091110182FF1AC00E943F1F2091FD0155
:101E60003091FE01AC01421B530B20910F013091C8
:101E700010014217530750F022E931E041E0BC0164
:101E80008091FF01909100020E94402280919C016C
:101E9000E82FEE0FEE0FE0939C0189B181FB222425
:101EA00020F8312C1A9B03C082E090E002C080E051
:101EB00090E0822993298E2B80939C018F70E82FCC
:101EC000F0E0E55DFE4F908180919B01890F80934A
:101ED0009B0182305CF080919A018F5F80939A0120
:101EE00060E080E00E94CA2B21E001C020E08091E8
:101EF0009B018F3F54F480919A01815080939A0105
:101F000061E080E00E94CA2B21E080919B01082EB5
:101F1000000C990B62E070E00E94703280939B018C
:101F200021110E94331F0E94BA1F90919D018913B5
:101F300080939D018091BF01843009F079CE83E0C8
:101F40008093E9008091E80082FF72CE8091E800E2
:101F500085FF24C00E944D1981111EC0A0E2EA2E07
:101F6000F12C9E012F5F3F4F690109C08091F10064
:101F7000D6018D936D01B1E0EB1AF10869F0809103
:101F8000E80085FDF3CF8091E8008B778093E8002F
:101F90000E944D19882399F391E001C090E080914F
:101FA000E8008B778093E800992309F441CEE09014
:101FB000DA01F090DB018981E114F10461F08E3FD8
:101FC00009F005C48A81833008F4F5C18550833057
:101FD00008F0FDC3F0C18B3009F4D7C158F5853046
:101FE00009F474C0B8F4823009F440C030F4813090
:101FF00009F0EBC31A8289E0AFC0833009F459C0FD
:10200000843009F0E2C34C816B818A810E94332ABB
:102010009D83FEC3873009F467C008F462C088302E
:1020200009F47EC0893009F0D0C3809111040E9468
:10203000C42DCDC3803109F4EAC060F48D3009F4B9
:1020400089C008F48BC08E3009F48AC08F3009F43F
:10205000B1C0BBC3823109F4DFC008F4DBC08331F7
:1020600009F404C18E3F09F4A6C1AFC38A8182304E
:1020700009F4C7C3833051F0813009F0A6C30E9430
:10208000331F9B838C837D836E83A1C38091D60194
:102090009091D701892B09F49AC3FE013396CE01A2
:1020A0000A96D5012D915D012193E817F907C9F72B
:1020B0008EC38A81823009F088C36B817C818D81D7
:1020C0009E810E94AC320E94D92C81C32D813E8119
:1020D0003227232732274C816B818A810E94FD2978
:1020E00076C30E949C2373C38A81893019F08A3099
:1020F00071F06DC38B81B3E08B9FC00111246FEF32
:1021000070E00E945C32862F0E94F42D60C38B81A8
:10211000811103C00E94C92D5AC30E94DF2D57C3ED
:102120008A81893041F08A3009F051C380911104CD
:102130008695817011C0809111048695869586954B
:10214000EFEF8E9FC001112463E070E00E945C32CB
:102150006B833DC31A8289EA8B8339C380E1D3C282
:10216000EA80FB80FE24EF24FE24AC80B12CFDE14C
:10217000AF16B10408F02BC36801C701895A9C4F00
:102180009601201B310B2A153B0508F020C329EAD4
:10219000E216F10430F40E940232D60114968C93B8
:1021A00002C0F6011482FFEFEF1AFF0A2FEFC21AE6
:1021B000D20AE3CF8091D6019091D701892B09F4FF
:1021C00006C3EA80FB80FE24EF24FE24CC80D12CC1
:1021D0003DE1C316D10408F0FAC25801C701895A7B
:1021E0009C4F9501201B310B2C153D0508F0EFC2CB
:1021F000A9EAEA16F10420F4F50164810E94103284
:10220000FFEFEF1AFF0A2FEFA21AB20AE7CF0E94E0
:102210007023DDC285E077C2EA80FB80FE24EF24D4
:10222000FE24AC80B12C3DE1A316B10408F0CFC26E
:102230006801C70187969601201B310B2A153B05C3
:1022400008F0C5C2A0E3EA16A2E0FA0628F40E944C
:102250000232F601848303C0D60114961C92BFEFAC
:10226000EB1AFB0AEFEFCE1ADE0AE3CFEA80FB801F
:10227000FE24EF24FE24AC80B12CFDE1AF16B104A6
:1022800008F0A5C220E3E21622E0F20608F09FC2A1
:1022900080E392E08E199F098A159B0508F497C286
:1022A000370137E2630E711C8091D6019091D701FE
:1022B000892B11F0680160C0E0FE0FC0C70186964F
:1022C0000E94023290E0982F88272D81822B811561
:1022D0009C4531F48FEF8D8303C0C12CD12C03C0FA
:1022E000CC24C394D12CC5018E0D9F1D450180FFC8
:1022F0001BC0B1E08B1A910865E0462E512C4C0EA4
:102300005D1E480C591CC3018A0D9B1D0E940232A0
:10231000F201208130E0322F2227282B21153C4565
:1023200019F48FEFD2018C93F801EC0DFD1D2FEF06
:10233000CF01801B910B8815990508F0BBCF8481D4
:1023400090E0982F88273581832B81159C4511F4C7
:10235000248325833296ECCFE0E3EE16E2E0FE061E
:1023600028F4D60114966C910E941032BFEFEB1A3C
:10237000FB0AEFEFCE1ADE0AC70187969601201BF3
:10238000310B2A153B0540F322C28091D601909172
:10239000D701892B09F41BC2C8010E94AC19FFEFB9
:1023A00021EE34E0F15020403040E1F700C0000061
:1023B0000E94DA1E0CC2EA818E2F90E08E309105C9
:1023C00008F005C2FC01E759FF4F0C94A63288E0E3
:1023D000E4E1F1E0DE01919601900D928A95E1F73A
:1023E00080E2D8011D928A95E9F785E0898388E02B
:1023F000FE01B196DE011596C4C184E2898382E0B4
:102400008A831B821C82E3C18C8190E0982F8827ED
:102410002B81820F911D092E000CAA0BBB0B45E0EE
:10242000880F991FAA1FBB1F4A95D1F7AC01BD01A8
:10243000405E5F4F6F4F7F4F481759076A077B0712
:1024400008F4C5C18432E2E09E07A105B10508F099
:10245000BEC14532F2E05F076105710520F044E23C
:1024600052E060E070E0481B590BBC016E5F7E4F8C
:10247000C8010E94E931ABC1FB80EC8040E06E2DC9
:102480008F2D0E94D32999838A8341E06E2D8F2D51
:102490000E94D3299B838C839AC12E813F8132274E
:1024A000232732274D816C818B810E94A1298FC106
:1024B00040E250E06FEF70E0C8010E94E33280918B
:1024C000D6018983EA8283E08B8381E08C8384E078
:1024D0008D8387E09DC181E090E09093DB01809344
:1024E000DA0182E390E09093A1018093A0010E9421
:1024F0003F1F90939F0180939E0169C1EF28B9F11E
:10250000F090A601FF1CFF24FF1C8091A501869579
:102510008170F82280919E0190919F010E94241F5A
:1025200085369105F0F0FF20E1F00E943F1F909367
:102530009F0180939E018091A0019091A10101973C
:102540009093A1018093A001892B89F41092DB0163
:102550001092DA0181E090E09093D7018093D60148
:1025600006C082E390E09093A1018093A001809146
:10257000D60189838091DA018A838091A001ECCD14
:102580001092D7011092D60122C1EB80FC8040E26C
:1025900050E06FEF70E0C8010E94E33221E536E0C1
:1025A000A9EAB6E080E090E0AC014E5F5F4F4132B7
:1025B000510508F00CC1F90165917491E616F70612
:1025C00030F4F801E80FF91F71836083CA01285FB6
:1025D0003F4FA217B30741F7FAC04B815C8129EA4C
:1025E00036E081E596E0FC0165917491641775070A
:1025F00029F0089628173907B1F7E7C0009709F4C2
:10260000E4C09C012E5F3F4FF90145915491403247
:10261000510508F0DAC0F90145915491FC01349656
:1026200065917491CE0102960E94DA3238C08B8196
:102630009C8121E5E22E26E0F22EF70125913491CE
:102640008217930749F028E0E20EF11C39EAE316FD
:1026500036E0F30691F7B9C0E114F10409F4B5C00E
:10266000C7010296FC01259134912D31310508F006
:10267000ACC0FC0145915491F70134968591949139
:10268000BE016B5F7F4F0E94DA320E942F23F70159
:10269000369685919491009711F0FC01099580E0A0
:1026A00095C00E944C2393C08B81823071F1E8F475
:1026B000882309F1813009F08AC08C819AE0D92EF3
:1026C0007E01B1E2EB0EF11CF7012D2D11922A953E
:1026D000E9F7B7010E9441248983F701DE011296D0
:1026E00001900D92DA94E1F772C0833069F1843081
:1026F00009F44CC06CC080E2D8011D928A95E9F7BC
:1027000088E089838CE08A8362C06C818AE0FE0164
:102710003596DE01919601900D928A95E1F7683029
:1027200070F43AE0639FB001112461577D4F4AE095
:1027300050E0CE0181960E94343280E001C08FEFDC
:1027400089830E94BA2A43C06C81CE0181962AE017
:10275000DC011D922A95E9F76C3060F4BAE06B9FBA
:10276000B001112461527D4F4AE050E00E94F231E5
:1027700080E001C08FEF89838AE0FE01B196DE011F
:10278000129601900D928A95E1F721C06C818AE042
:10279000FE013596DE01919601900D928A95E1F742
:1027A0006C3070F4EAE06E9FB001112461527D4FED
:1027B0004AE050E0CE0181960E94343280E001C0B0
:1027C0008FEF89830E94612A02C08FEF8983C8013D
:1027D0000E94AC192DCAE9BCF9BC09B400FEFDCFBA
:1027E0008091D8008F7D8093D8008091E000826036
:1027F0008093E0008091E00081FDFCCF0E94C01A30
:1028000020CA86E290E00E9402321B821C821D8256
:102810008E83DDCF8091B70187FF11C08091E800E2
:1028200082FD05C08091BF018111F8CF11C0809158
:10283000E8008B770BC08091BF01882349F080911D
:10284000E80080FFF8CF8091E8008E778093E80061
:102850000895982F973068F59093E900981739F00C
:102860007091EC002091ED005091F00003C0242FF6
:10287000762F50E021FD02C09F5FECCF3091EB003E
:102880003E7F3093EB003091ED003D7F3093ED00C3
:102890003091EB0031603093EB007093EC002093AB
:1028A000ED005093F0002091EE0027FDE5CF80E091
:1028B00008958F708093E90081E008952091BD0113
:1028C0003091BE012617370748F06115710539F4BC
:1028D0002091E8002E772093E80001C0B901FC01A7
:1028E00020E06115710579F18091BF018823F1F134
:1028F0008530F1F18091E80083FD3CC08091E800D3
:1029000082FD2EC08091E80080FFEBCF2091F30084
:102910008091F20090E0922B6115710551F08830A2
:10292000910538F421912093F100615071090196CD
:10293000F3CF21E0089709F020E08091E8008E773E
:102940008093E800CECF2111CFCF0AC08091BF0184
:10295000882361F0853061F08091E80083FD0AC032
:102960008091E80082FFF2CF80E0089582E0089530
:1029700083E0089581E008950895BC0184E00C94FB
:10298000B01EBC0183E00C94B01E8091C001982F52
:102990009670963011F4886001C0877F0C94771A86
:1029A0001F93CF93DF93CDB7DEB7AA970FB6F894F6
:1029B000DEBF0FBECDBFE7EBF1E08FEB91E02091E2
:1029C000F10021938E179F07D1F78091B8018330D2
:1029D00009F463C030F4813071F0823009F49DC095
:1029E000B4C08A3009F489C08B3009F46EC08930D4
:1029F00009F0ABC020C08091B701813A09F0A5C0B1
:102A00008091E800877F8093E8008091BB019091DE
:102A1000BC01892B21F468E08CEA91E003C060E0FE
:102A200080E090E070E00E945E148091E8008B7777
:102A30008093E8008AC08091B701813209F085C097
:102A40008091BB019091BC01009719F0029709F0A9
:102A50007CC08091E800877F8093E8008091E80047
:102A600082FD05C08091BF018111F8CF6EC0209119
:102A7000F3008091F20090E0922B029731F4809164
:102A8000F100813011F0863021F48091F1008093C3
:102A9000AB018091E8008B7754C08091B701813AF7
:102AA00009F053C08091BB019091BC01892B09F0C2
:102AB0004CC08091E800877F8093E8008091E80017
:102AC00080FFFCCF80910E0137C08091B701813229
:102AD000E1F58091BB019091BC01892BB1F580910A
:102AE000E800877F8093E8000E940A148091B90172
:102AF00080930E010E94C01A28C08091B7018132D4
:102B000021F58091E800877F8093E8000E940A14F5
:102B10008091BA018093AA0118C08091B701813ACF
:102B2000A1F48091E800877F8093E8008091E8001D
:102B300080FFFCCF8091AA018093F1008091E80092
:102B40008E778093E8000E940A148091E80083FF4A
:102B5000EBC18091B7019091B801492F50E04A3004
:102B6000510508F0E1C1FA01E958FF4F0C94A63273
:102B7000803821F0823809F0D7C108C08091B401B3
:102B80009091B501992389F082600FC08091BB01BB
:102B90008F70873008F0C8C18093E9008091EB0006
:102BA00085FB882780F91092E9009091E800977FD3
:102BB0009093E8008093F1001092F1007CC1282FDF
:102BC0002D7F09F0B1C1882319F0823061F0ACC1CA
:102BD0008091B901813009F0A7C1933009F080E0FC
:102BE0008093B5012EC08091B90181112AC08091D6
:102BF000BB018F702FEF280F263008F095C180930E
:102C0000E9002091EB0020FF1CC0933021F480915B
:102C1000EB00806214C09091EB0090619093EB0008
:102C200021E030E0A90102C0440F551F8A95E2F768
:102C30004093EA001092EA008091EB008860809354
:102C4000EB001092E9008091E800877F8093E80014
:102C50000E940A1469C1811167C11091B9011F77DF
:102C60008091E3008078812B8093E3008091E800DD
:102C7000877F8093E8000E940A148091E80080FF1B
:102C8000FCCF8091E30080688093E300111102C0C3
:102C900082E001C083E08093BF0146C1805882304A
:102CA00008F042C12091B9013091BA012C3D53E0A6
:102CB000350779F583E08A838AE289834FB7F894F0
:102CC000DE01139620E03EE051E2E32FF0E0509366
:102CD0005700E49120FF03C0E295EF703F5FEF7073
:102CE0008E2F90E0EA3010F0C79601C0C0968D9309
:102CF0009D932F5F243149F74FBF8091E800877F74
:102D00008093E8006AE270E0CE0101960E945E14B2
:102D1000C0C08091BB019091BC01432F5527433027
:102D20005105B1F068F44130510509F40CC142304D
:102D3000510509F0F9C08BE590E0EAEBF3E057C0EC
:102D40004132510589F14232510509F43CC0ECC0D1
:102D5000C901992781309105B9F070F08230910551
:102D6000D9F0039709F0E0C0E7E2F4E0E4918E2F98
:102D700090E0E7E2F4E038C0EDE8F4E0E4918E2F73
:102D800090E0EDE8F4E030C0EDE6F4E0E4918E2F61
:102D900090E0EDE6F4E028C0E5E4F4E0E4918E2F65
:102DA00090E0E5E4F4E020C08330910508F0BCC079
:102DB000880F991FFC01EC5BFE4F0190F081E02D24
:102DC00089E090E014C08330910508F0ADC0FC01AB
:102DD000EE0FFF1FE25CFE4F0190F081E02DDC0161
:102DE000A55CBE4F8C9190E0009709F49DC02091A6
:102DF000E800277F2093E8002091BD013091BE01BB
:102E00002817390708F4C90140E0009789F120919B
:102E1000BF01222309F43DC02530D9F12091E800FB
:102E200023FD37C02091E80022FD2FC02091E8004B
:102E300020FFEBCF4091F3002091F20030E0342BE3
:102E4000009759F02830310540F444914093F10047
:102E5000319601972F5F3F4FF3CF41E02830310586
:102E600009F040E02091E8002E772093E800CDCFD4
:102E70004111CDCF0AC08091BF01882351F0853028
:102E800041F08091E80083FD04C08091E80082FF5A
:102E9000F2CF8091E8008B778093E80045C08038BE
:102EA00009F042C08091E800877F8093E80080911C
:102EB000B6018093F1008091E8008E77C7CE811132
:102EC00033C08091B9019091BA019927029764F5B6
:102ED0008091E800877F8093E8001091B9011093FA
:102EE000B6010E940A14111106C08091E30087FD0B
:102EF00002C081E001C084E08093BF0142E061EC48
:102F000081E00E94291442E261EC84E00E942914CD
:102F100042E261EC82E00E94291442E260EC83E02C
:102F20000E9429148091BF018091E80083FF10C0A6
:102F30008091E800877F8093E8008091EB008062B9
:102F40008093EB0005C082E190E0E5E1F4E04FCF33
:102F5000AA960FB6F894DEBF0FBECDBFDF91CF911A
:102F60001F9108951F920F920FB60F9211242F9365
:102F70003F934F935F936F937F938F939F93AF9301
:102F8000BF93CF93DF93EF93FF93C091E900CF708E
:102F90008091EC00D82FD17080FDD0E81092E9002C
:102FA0008091F000877F8093F00078940E94D01485
:102FB0001092E9008091F00088608093F000CD2BA2
:102FC000CF70C093E900FF91EF91DF91CF91BF9156
:102FD000AF919F918F917F916F915F914F913F91B1
:102FE0002F910F900FBE0F901F901895E8EDF0E015
:102FF00080818E7F80831092E2001092DA0010921E
:10300000E100A0EEB0E08C9181608C9380818F779D
:10301000808319BCA7EDB0E08C918E7F8C9380816A
:103020008F7E80831092A9010895CF92DF92EF9254
:10303000FF920F931F93CF93DF93C8EDD0E0888169
:103040008F7E8883E7EDF0E080818160808384E07B
:1030500082BF81E08093A90188818E7F888302EE00
:1030600010E0F80110821092DA0081EEC82ED12C07
:10307000F601108288818F778883888180688883B1
:1030800088818F7D888319BC1092BF011092B60190
:103090001092B5011092B40190EEE92EF12CF701D7
:1030A00080818B7F808388818160888342E060E0BB
:1030B00080E00E942914F60180818E7F8083F801D0
:1030C000808181608083808188608083F701808136
:1030D0008E7F8083888180618883DF91CF911F916B
:1030E0000F91FF90EF90DF90CF9008951F920F9275
:1030F0000FB60F9211242F933F934F935F936F93CB
:103100007F938F939F93AF93BF93EF93FF938091A0
:10311000E10082FF09C08091E20082FF05C080913A
:10312000E1008B7F8093E1008091DA0080FF2AC06C
:103130008091D80080FF26C08091DA008E7F809336
:10314000DA008091D90080FF18C080E189BD82E15A
:1031500089BD09B400FEFDCF81E08093BF0180915D
:10316000A90181110FC00E94F6170E9415188091C5
:10317000E20084608093E20005C019BC1092BF0198
:103180001092A9018091E10080FF17C08091E200B8
:1031900080FF13C08091E2008E7F8093E2008091D7
:1031A000E20080618093E2008091D8008062809389
:1031B000D80019BC85E08093BF018091E10084FFB5
:1031C00030C08091E20084FF2CC080E189BD82E1A3
:1031D00089BD09B400FEFDCF8091D8008F7D80931A
:1031E000D8008091E1008F7E8093E1008091E20021
:1031F0008F7E8093E2008091E20081608093E20004
:103200008091B601882311F084E007C08091E3002B
:1032100087FD02C081E001C083E08093BF018091FF
:10322000BF018091E10083FF27C08091E20083FF0E
:1032300023C08091E100877F8093E10082E080934A
:10324000BF011092B6018091E1008E7F8093E10072
:103250008091E2008E7F8093E2008091E2008061A5
:103260008093E20042E060E080E00E9429148091B7
:10327000F00088608093F000FF91EF91BF91AF91D3
:103280009F918F917F916F915F914F913F912F917E
:103290000F900FBE0F901F9018952091E400309171
:1032A000E50095E64091EC00842F817040FF23C03B
:1032B0008091E80080FD1DC08091BF01882399F0B6
:1032C000853099F08091EB0085FD11C04091E400BC
:1032D0005091E5002417350729F3915011F09A0118
:1032E000E1CF84E0089582E0089583E0089581E0CD
:1032F000089580E008954091E80042FFDDCF0895F1
:10330000EF92FF920F931F93CF93DF937C018B017A
:103310000E944D19811119C0E70101151105A1F095
:103320008091E80085FD0AC08091E8008E77809347
:10333000E8000E944D19882381F307C0899180938A
:10334000F10001501109E9CF80E0DF91CF911F9189
:103350000F91FF90EF900895CF932091BF012430FB
:10336000F9F4C091E900CF703091EC00232F217067
:1033700030FD20E8C22B22E02093E9002091E800F4
:1033800020FF0BC040E050E060E270E00E94801936
:103390008091E8008E778093E800CF70C093E900B9
:1033A000CF91089580E090E00E94A41F80E090E01B
:1033B0000E948E1F1092EC020C942728CF92DF926D
:1033C000FF920F931F93CF93DF936C010091C00185
:1033D00080911504082BC7E0D0E010E0C8010C2E46
:1033E00002C0959587950A94E2F780FD04C0219765
:1033F000A8F7F12C09C0FC2EB6018C2F0E94802367
:103400000E947425019799F38F2DDF91CF911F9121
:103410000F91FF90DF90CF900895CF93DF93EC0151
:103420000E94DE19BE010E9480230E947425DF9154
:10343000CF9108959E3F61F128E0929F800D112465
:10344000682F669566956695982F977083E0689FBC
:10345000B001112440E050E080E0FB01E40FF51FD3
:10346000EF53FE4F208130E0092E02C0369527959C
:103470000A94E2F721703327042E01C0220F0A9428
:10348000EAF7822B4F5F5F4F4330510531F70895C4
:1034900080E008959E3F51F128E0929F800D112415
:1034A000E82FE695E695E695877051E001C0550F47
:1034B0008A95EAF783E0E89FF0011124EF53FE4F6D
:1034C00020E030E070E04081CB01022E02C09695F2
:1034D00087950A94E2F78170819584278523842754
:1034E00081932F5F3F4F2330310569F70895809313
:1034F000C0010C94D21921E030E001C0220F8A955E
:10350000EAF720958091C00182230C94771A21E07C
:1035100030E001C0220F8A95EAF78091C001822B2A
:103520000C94771A809315040C94D21992959F707D
:10353000963079F010F4925001C09A50923068F4AD
:10354000803F69F018F4883E40F409C0843F29F4B4
:1035500006C0883E20F0813F11F080E0089581E0B0
:103560000895FC0186819781009719F00E947425C7
:1035700004C0808191810E940D1A0E94961A0895BC
:103580001092DC0186E0EFEAF3E0DF011D928A95FC
:10359000E9F70C94D219882321F00E94A2270C94F9
:1035A00027280895882339F09091EC02892B809385
:1035B000EC020C9427280895882321F00E94A92763
:1035C0000C9427280895882321F00E94B0270C949A
:1035D00027280895882371F19CEF980F913A60F4A1
:1035E000EDEAF3E09281891301C01282319693E0F3
:1035F000E33BF907B9F70DC090E2980F983058F403
:10360000982F977081E001C0880F9A95EAF70E9481
:10361000A9270C9427289BE5980F933020F480E08D
:1036200090E00C94A41F885A873120F480E090E049
:103630000C948E1F0895CF93882309F44CC0C82F93
:103640008CEF8C0F813AF0F4EFEAF3E085EB93E036
:103650002191C21721F08E179F07D1F70DC0EDEA17
:10366000F3E08281C81301C01282319683E0E33B0C
:10367000F807B9F70E9427286C2F8DEA93E00E9483
:10368000741F0CC080E28C0F883058F4C77081E042
:1036900001C0880FCA95EAF70E94B027CF910C9419
:1036A0002728EBE5EC0FE33040F4F0E0E65BFE4F5B
:1036B000808190E0CF910C94A41FC85AC73158F470
:1036C000EC2FF0E0EE0FFF1FE35BFE4F8081918156
:1036D000CF910C948E1FCF9108951F93CF93DF93BA
:1036E000182F893329F4C091E502D091E60204C075
:1036F000C091E302D091E402812F0E941B1B20970E
:1037000041F08FE99FE00197F1F700C00000219799
:10371000F6CF812FDF91CF911F910C94EA1A2F924F
:103720003F924F925F926F927F928F929F92AF9251
:10373000BF92CF92DF92EF92FF920F931F93CF939E
:10374000DF93CDB7DEB765970FB6F894DEBF0FBE37
:10375000CDBF8C0185E0F801DE01519601900D92FC
:103760008A95E1F7D8014C9011965C9011971296CA
:10377000EC9012971396CD90DC90149760E085EB57
:1037800093E00E94412F85EBA82E83E0B82E809015
:10379000B8039090B903A4016091B6038091B5037A
:1037A0000E94A620F82E8111E5C13090B703F601E2
:1037B000E819F9094F0160E0332009F469C1C50136
:1037C0000E94412F6090DD027090DE022090BA03CB
:1037D0008614970408F014C14091B8035091B903BE
:1037E000B090B503A090B603822D807F6A2D09F0BA
:1037F00097C08B2D0E94A620811124C0D80111965C
:103800008C9111978A111EC08C918B111BC0209135
:10381000BB033091BC0316968D919C911797281786
:10382000390781F4E1100EC0822D8F708061809382
:10383000BA0385EB93E00E9427048091BA03F80154
:103840008583B4C1F4EF6F16F1E07F0620F4809118
:10385000E20280FF21C0A601652D842D0E94A620D2
:10386000811103C081E08E2502C080E090E080FFDE
:1038700013C04E2D652D842D0E947828882361F079
:1038800085EB93E00E942704E5EBF3E088E0DF019D
:103890001D928A95E9F78AC1A601652D842D0E94A3
:1038A000A620811103C081E08E2502C080E090E057
:1038B000B82FB170CB2E80FF2AC04E2D652D842DE0
:1038C0000E947828D82E811122C0498A5A8A898973
:1038D0009A890E940D1A292F22952F70223018F0F4
:1038E000243078F405C09F7049F0811107C00DC0E5
:1038F0009F7021F0F8019581907F39F0805E8830CB
:1039000020F0C8010E942704DC2CFD2C4FC1EE20C2
:1039100009F44BC18091BA0381608093BA0346C118
:103920008B2D0E94A620811124C0D80111968C9164
:1039300011978A111EC08C918B111BC02091BB0363
:103940003091BC0316968D919C91179728173907D3
:1039500081F4E1100EC015962C92C8010E94270434
:1039600088E0F801A5EBB3E001900D928A95E1F7AC
:103970006FC0C8010E94B11A8823E1F1EE20D1F195
:103980002091BA03822F82958F7090E00297A4F065
:103990008091B5039091B6039A8789871B86DD864F
:1039A000CC862E878091BB039091BC03988B8F8728
:1039B000CE0109960E94270488E0F801A5EBB3E048
:1039C00001900D928A95E1F70E94A22816C0F0900E
:1039D000B5039090B6034091B8035091B903692D97
:1039E0008F2D0E94A620882399F0C8010E94B11A49
:1039F000811130C0C8010E942704FF24F394D6C06F
:103A0000822D807F21F785EB93E00E942704ACC0D4
:103A1000D80111968C9111978911E7CF8C918F1154
:103A2000E4CF2091BB033091BC0316968D919C91FD
:103A3000179728173907C9F6E110D7CF15962C929A
:103A4000C8010E94270488E0F50111928A95E9F7E0
:103A5000F32CACC0EE2071F22091BA03822F829534
:103A60008F7090E002970CF4A7CF8091B5039091EE
:103A7000B6039A8389831B82DD82CC822E83809158
:103A8000BB039091BC0398878F83CE01019692CFA0
:103A900085EB93E00E94412F8091DD029091DE0240
:103AA0008816990608F060C0FE2CEE2009F4A2CF1B
:103AB000E090B503D090B6034091B8035091B9039C
:103AC0006D2D8E2D0E94A620811140C0D801119627
:103AD0008C9111978D113AC08C918E1137C0209125
:103AE000BB033091BC0316968D919C9117972817B4
:103AF000390761F58091E20282FD1FC08091BA030F
:103B000080FD1BC082958F70482F50E041155105F4
:103B1000A1F02091BA0315962C9315974F305105BB
:103B200049F08F5F982F9295907F822F8F70892B0D
:103B300015968C93C8010E94270488E0F801A5EB34
:103B4000B3E001900D928A95E1F730C0C8010E9460
:103B5000B11A811131CF8091BA0381608093BA0389
:103B6000C8010E94270422C088E0F50111928A95BD
:103B7000E9F71CC0EE2009F43DCFC8010E94B11A3C
:103B8000F82E882309F436CF88E0F801A5EBB3E0DE
:103B900001900D928A95E1F78091B5039091B6035B
:103BA0000E940D1A0E94A22801C0F12C8F2D65964B
:103BB0000FB6F894DEBF0FBECDBFDF91CF911F913E
:103BC0000F91FF90EF90DF90CF90BF90AF909F90BC
:103BD0008F907F906F905F904F903F902F900895BF
:103BE000EF92FF920F931F93CF93DF93CDB7DEB782
:103BF00060970FB6F894DEBF0FBECDBF29873A8716
:103C00004B875C876D877E878F87988BCE0109965F
:103C10000E948F1B81114AC088E0FE013996DE01A7
:103C2000119601900D928A95E1F7E984FA840C854A
:103C30001D85A8016F2D8E2D0E94A620811136C0F2
:103C4000A091BD03B0E0CD01019687709927209126
:103C5000FE0330E08217930781F1E982FA821D8327
:103C60000C8393E0AA0FBB1F9A95E1F7A254BC4FB7
:103C700098E0FE01319601900D929A95E1F78093BC
:103C8000BD030E94982812C028E0829FC001112421
:103C900082549C4F0E948F1B8823E1F08091FE0389
:103CA00090E00196877099278093FE038091FE0330
:103CB0009091BD038913E8CF0DC00E94C01A1092E5
:103CC000BD031092FE03E5EBF3E088E0DF011D92F7
:103CD0008A95E9F760960FB6F894DEBF0FBECDBFA8
:103CE000DF91CF911F910F91FF90EF90089508956C
:103CF0008091AB0108958091C5029091C602909386
:103D0000100180930F010895CF93DF9321E020935A
:103D1000E9002FEF3091E800215035FD06C035ED68
:103D20003A95F1F700002111F5CF2091E80025FF29
:103D300014C0EC0140E050E068E070E00E9480199F
:103D40008091E8008E778093E80088E0FE01ACEA7D
:103D5000B1E001900D928A95E1F7DF91CF9108953E
:103D60008093AA037093AC036093AB038091BF016F
:103D70008430F9F48093E9008FEF9091E80081504E
:103D800095FD06C095ED9A95F1F700008111F5CFEC
:103D90008091E80085FF0DC040E050E063E070E0F6
:103DA0008AEA93E00E9480198091E8008E778093E0
:103DB000E800089581E08093E00080E28093D800DD
:103DC0001092C9008FE19EE40197F1F700C0000056
:103DD00087E090EBDC018093A0049093A104A09372
:103DE000A204B093A3049CE088E10FB6F894A895D0
:103DF000809360000FBE90936000FFCF78941F9275
:103E00000F920FB60F9211248F939F93AF93BF938E
:103E10008091A6039091A703A091A803B091A90354
:103E20000196A11DB11D8093A6039093A703A093B3
:103E3000A803B093A903BF91AF919F918F910F9069
:103E40000FBE0F901F9018959C014FB7F89480916A
:103E5000A6039091A703A091A803B091A9034FBF17
:103E6000821B930B08952FB7F8946091A60370916D
:103E7000A7038091A8039091A9032FBF08952FB79E
:103E8000F8948091A6039091A703A091A803B09104
:103E9000A9032FBF08951F920F920FB60F921124FE
:103EA0008F939F93AF93BF938091A503811113C00C
:103EB0008091A6039091A703A091A803B091A903B4
:103EC0004196A11DB11D8093A6039093A703A093D3
:103ED000A803B093A903BF91AF919F918F910F90C9
:103EE0000FBE0F901F9018959C01FC0132969FEF1A
:103EF00080E04191461789F09F3F19F4411101C0BC
:103F0000982F8F5F8630A9F79F3F39F0F901E90FAD
:103F1000F11D97FDFA956283089508952091A303FA
:103F20003091A4032817390771F09093A40380936C
:103F3000A303E091A103F091A203309721F0008444
:103F4000F185E02D0994089520919F033091A003FD
:103F50002817390771F09093A00380939F03E09195
:103F6000A103F091A203309721F00680F781E02DA4
:103F700009940895E091A103F091A203309721F0F4
:103F80000190F081E02D099480E00895EF92FF9276
:103F90000F931F93CF93DF93FC012285211136C02D
:103FA000EC01E380F480F7E5FF1A26E12E9DC001C5
:103FB0002F9D900D1124DC01A151BD4F1496ED9160
:103FC000FC9115978B509D4F309729F054966D9129
:103FD0007C915597099586E18E9D80018F9D100DEE
:103FE000112401511D4FF80187810E94A927F80172
:103FF00080850E94A2270E942728188219861B8686
:104000001E821D821092EE021092ED02DF91CF917E
:104010001F910F91FF90EF900895CF93DF93FC01D4
:104020002189211119C0EC0181E0818B87810E94D7
:10403000B0279091EC028885892B8093EC020E9436
:104040002728EA81FB81CE010696309729F06C89FA
:104050007D89DF91CF910994DF91CF9108950F93DE
:104060001F93CF93DF93C42FD22FFC01828188232B
:10407000C9F04093EB020E943F1F9093EA028093A5
:10408000E90280E28C0F883008F05BC0C77081E0E5
:1040900001C0880FCA95EAF7DF91CF911F910F9168
:1040A0000C94E31A8091EB02481334C08091E9022A
:1040B0009091EA020E94241F2091DD023091DE02DD
:1040C0008217930738F510E21D0FCD17B9F080E283
:1040D0008C0F883040F4C77081E001C0880FCA950A
:1040E000EAF70E94DC1A183028F581E09D2F9770BE
:1040F00001C0880F9A95EAF70E94E31A802F0E9468
:104100006D1B1830F0F4D77081E001C0880FDA958C
:10411000EAF70AC080E28C0F883098F4C77081E01B
:1041200001C0880FCA95EAF7DF91CF911F910F91D7
:104130000C94DC1A802FDF91CF911F910F910C947A
:104140006D1BDF91CF911F910F910895452B41F089
:104150006F3F41F491E08F3F09F090E0892F03C059
:1041600081E001C080E081700895BC014091C102EE
:104170008091C202942F981729F1292F30E0F9017C
:10418000EE0FFF1FE754FD4F0190F081E02DE61781
:10419000F70799F487E0869FF001879FF00D1124BF
:1041A000EB59FD4F81E0848394130CC02F5F3F4F88
:1041B000237033272093C10208952F5F3F4F922F22
:1041C0009370D9CF0895EF92FF920F931F93CF93DF
:1041D000DF9380910402882309F440C00091030218
:1041E0008CE0F82E809104020817A0F5EE24E394E9
:1041F000E00EE092030210E0F09EE001F19ED00D8F
:104200001124CB5FDD4F4B815C81698188810E94E5
:10421000A62081111DC08E819F81892B21F4888564
:104220009985019651F4288139814A815B816C819D
:104230007D818E819F810E94F01DF09EF001F19E94
:10424000F00D1124EB5FFD4F148213821092EC02EB
:104250000E2DC8CF1092040210920302DF91CF916D
:104260001F910F91FF90EF9008951092020210920B
:104270000102E5E6F2E08581811102C01482168216
:10428000379682E0E93BF807B1F708951092C4022F
:104290001092C302109212018091C2028093C10257
:1042A0000E9435210C94E3203F924F925F926F92CF
:1042B0007F928F929F92AF92BF92CF92DF92EF92B6
:1042C000FF920F931F93CF93DF93C091C10297E0AA
:1042D000892E01E010E02CE0322E3EEF932E442494
:1042E00043948091C202C81709F478C0D0E0FE015F
:1042F000EE0FFF1FE754FD4F80819181889ED00112
:10430000899EB00D1124AB59BD4F14962C91149772
:10431000211161C050900402E5E0F2E020E030E0BD
:10432000712C5D01251508F054C0E284F384D50199
:10433000CD90DC906FEF7FEF612C462D50E0DA01DD
:10434000AA0FBB1FAC0DBD1D0D90BC91A02D1097E9
:1043500031F0EA16FB0609F4BA016394EECF6F3F21
:10436000BFEF7B0791F1D80102C0AA0FBB1F6A956E
:10437000E2F77A2AB80102C0660F771F6A94E2F763
:10438000AB0141505109672D70E046175707D9F42A
:10439000329EF001339EF00D1124EB5FFD4F889E9D
:1043A000D001899EB00D1124AB59BD4F12962D91AD
:1043B0003C911397378326839082918291878087DF
:1043C00015964C9206C0148213822F5F3F4F3C9685
:1043D000A9CF0E94B5202196C37083CF0E94E3200D
:1043E000DF91CF911F910F91FF90EF90DF90CF90D1
:1043F000BF90AF909F908F907F906F905F904F9005
:104400003F900C94352180911101877F8093110199
:1044100082E00E94A2278091110184FF06C08F7E56
:104420008093110182E00E94B0278091110185FFE5
:1044300006C08F7D8093110180E20E94B0270C940A
:104440002728662329F02091EC0222602093EC02B9
:104450009C013056211540E2340720F0305E2115D2
:10446000304108F499270C94D031009741F0EFE9DE
:10447000FFE03197F1F700C000000197F6CF0895F3
:10448000AF92BF92CF92DF92EF92FF920F931F9362
:10449000CF93DF935C017B01C42E890180911101D0
:1044A00082FF8DC0C091FF01D0910002CA15DB05CB
:1044B00021F0A114B10409F082C0809111018B7F19
:1044C0008093110181FD11C08091FD019091FE0149
:1044D000A701481B590B81E020910F013091100179
:1044E0004217530718F480E001C081E08170D82E94
:1044F00080911101D0FA81F980931101FE01FF270B
:1045000084E0F695E7958A95E1F79E012F703327B1
:10451000EE0FFF1FE352FE4F81E090E002C0880FD4
:10452000991F2A95E2F7DD2029F020813181822B25
:10453000932B06C08095909520813181822393230F
:10454000918380838091DC0181FF08C080911101FB
:1045500080618093110182E00E94A9278091DC0193
:1045600085FF08C08091110180628093110180E273
:104570000E94A927A8016D2DCE010E942122CC20E6
:1045800031F08091E00285FF02C086FF36C0809145
:10459000E3029091E4020E9435228091FF01909104
:1045A00000029C013056211540E2340720F0305EB5
:1045B0002115304108F499270E94B63118C09501A1
:1045C0003327C5019056811540E2940720F0905E94
:1045D0008115904110F4C90101C0C5010E94B63196
:1045E0008091FF0190910002A816B90611F40E9473
:1045F0000322F092FE01E092FD01DF91CF911F9125
:104600000F91FF90EF90DF90CF90BF90AF90089503
:104610000F931F93CF93DF9305EC12E0CBE6D2E02C
:10462000CE010E940232F80181938F012196CF388A
:10463000F2E0DF07A9F7C0E0D0E0FE01E95AF94F48
:1046400085919491009711F0FC0109952896C83541
:10465000D10599F7DF91CF911F910F9108950F9395
:104660001F93CF93DF9305EC12E0CBE6D2E0CE01AF
:104670000E940232F80161918F01681719F0CE0192
:104680000E9410322196CF38F2E0DF0781F7DF91E8
:10469000CF911F910F910895E5ECF2E0128E138EE9
:1046A0008FEA90E09183808385E0848F28E833E16E
:1046B0003383228322E330E0378B268B28EC30E0F3
:1046C000318F208F158E2AE030E0378F268F20E53E
:1046D00030E031A320A382A30E942F230C9408234F
:1046E000CF93DF93C7E5D3E060E0CE010E941032A4
:1046F0002196C11584E0D807B9F7DF91CF910895CD
:10470000462F2091DA013091DB01232B91F47E3F7B
:1047100039F46E3F71F48091D8019091D9010895D8
:10472000853038F4773028F4683018F4672F0C940B
:10473000332A80E090E008956F927F928F929F924B
:10474000AF92BF92CF92DF92EF92FF920F931F939F
:10475000CF93DF93CDB7DEB764970FB6F894DEBF83
:104760000FBECDBFA090D601B090D70181E090E000
:104770009093D7018093D601C12CD12C712C612C40
:10478000E12CF12C00E010E047018C0C9D1CF401A1
:10479000E00FF11FEE0FFF1FEF56FB4F25913491F5
:1047A000402F662D872D0E94FD290F5F1F4F083077
:1047B000110569F788E0E80EF11C6394E7E06E12DA
:1047C000E1CF21E030E040E060E0872D0E94A129A8
:1047D00021E030E041E060E0872D0E94A129739440
:1047E000F8E3CF0ED11C85E07812C9CF0E944C238C
:1047F0001A8219821C821B821E821D8218861F82C9
:1048000088EC90E09A8789870FE812E04AE050E050
:10481000B801CE0101960E943432065F1F4F0F3D52
:10482000E2E01E0799F77E01FBE0EF0EF11C8AE043
:10483000F70111928A95E9F74AE050E0B801C70103
:104840000E943432065F1F4F0735F3E01F07A1F7C0
:10485000B092D701A092D60164960FB6F894DEBF4D
:104860000FBECDBFDF91CF911F910F91FF90EF90C1
:10487000DF90CF90BF90AF909F908F907F906F9080
:104880000895883080F49B01982F8AE0989FB001AA
:10489000112461577D4F4AE050E0C9010E94F23176
:1048A00080E090E008958FEF9FEF089580E00895F5
:1048B0009091880192FF0DC0282F2871283019F49B
:1048C000877F846006C0282F2471243011F48B7FE9
:1048D000886093FF0DC0282F2871283119F4877E36
:1048E000846106C0282F2471243111F48B7E8861E5
:1048F0002091890120FF0DC0382F3871383019F40C
:10490000877F816006C0382F3171313011F48E7F7E
:10491000886021FF0DC0282F2871283119F4877E67
:10492000816106C0282F2171213111F48E7E8861AA
:1049300094FD877E0895F894E82FE295EF70F0E0FB
:1049400031A1282F2F7081E090E001C0880F2A95B7
:10495000EAF7982F9095932391A392A1892B82A394
:10496000789408957F928F929F92AF92BF92CF9248
:10497000DF92EF92FF920F931F93CF93DF93CDB708
:10498000DEB727970FB6F894DEBF0FBECDBFAE01DE
:104990004F5F5F4F7A0187E0FA0111928A95E9F73C
:1049A0000CE111E06A0183E2A82E81E0B82E882490
:1049B0008394912CF80180818F3F09F441C0F894D1
:1049C000E82FE295EF70F0E021A18F70A40102C002
:1049D000440F551F8A95E2F7CA01922F982B91A395
:1049E00092A18095892382A3789400C0E3E2F1E04C
:1049F000712C31E021912F3F89F0A22FA295AF7049
:104A0000B0E090968C9190E02F7002C095958795BC
:104A10002A95E2F780FD02C0832F01C080E0782A4A
:104A2000330F51E0EB32F50729F7F80180818F3F12
:104A300011F00E949B24F0EAFA95F1F7F6017082DA
:104A40000F5F1F4FFFEFCF1ADF0AA016B10609F064
:104A5000B1CF47E050E0B70181E891E00E94CD324C
:104A600011E0009709F410E0892B89F087E0F70145
:104A7000A1E8B1E001900D928A95E1F781E0809381
:104A800010040E943F1F90930F0480930E048091A6
:104A900010048823A1F080910E0490910F040E94CD
:104AA000241F059760F0E1E8F1E0A2EAB1E081910E
:104AB0008D9341E0E838F407D1F710921004812F6C
:104AC00027960FB6F894DEBF0FBECDBFDF91CF9112
:104AD0001F910F91FF90EF90DF90CF90BF90AF901C
:104AE0009F908F907F900895CF93DF9382389105A8
:104AF00069F1B0F48133910509F46FC048F489324B
:104B0000910509F465C08A32910509F46BC08AC029
:104B10008533910509F457C089339105B9F082C0F6
:104B2000833E910571F138F4803E9105B1F0823EEB
:104B3000910511F177C0863E9105B9F1873E910547
:104B4000C9F1843E910509F06DC024C0209188010F
:104B500020FD53C021FD51C065C08091880180FDBA
:104B600046C08091890180FF48C08091880184FD02
:104B70003FC183EE90E03EC18091880182FF3AC040
:104B8000F4CF8091880182FD35C08091890180FD3C
:104B900034C0EBCF8091890181FF35C080918801BD
:104BA00084FD26C187EE90E025C18091880183FFB6
:104BB00027C0F4CF8091880183FD22C080918901B4
:104BC00081FD21C0EBCF8091880185FD1FC021C0F0
:104BD0008091880185FD1DC019C08091880186FDE6
:104BE0001BC01DC08091880186FD19C015C089E3D6
:104BF00090E000C182EE90E0FDC080EE90E0FAC04F
:104C000086EE90E0F7C084EE90E0F4C089E290E098
:104C1000F1C085E390E0EEC08AE290E0EBC081E372
:104C200090E0E8C0811532E5930708F069C081156E
:104C300041E5940728F0982F8827816F906ADAC0A1
:104C4000883E910568F5803E910508F0D3C0883A0A
:104C50009105B8F4853A910548F0855AE82FF0E0BF
:104C6000E65BFE4F808190E09064C4C08130910586
:104C700009F4BBC008F4BCC08430910508F4B8C086
:104C8000B9C08F3B910508F0B3C0885AE82FF0E017
:104C9000EE0FFF1FE35BFE4F808191819464AAC0F9
:104CA000811520E59207F0F09C0174E03695279578
:104CB0007A95E1F7922F9370482F437021E030E00E
:104CC00002C0220F331F4A95E2F73C68392B8F70E0
:104CD000982F9695969540E2949FC0011124822BBF
:104CE000932B88C0811530E4930718F09F70906A69
:104CF00081C09C013A9521153F4108F47BC078C0E2
:104D0000EC01C11586E5D807E8F5C11525E5D20700
:104D100048F08C2F0E9458248F7190E0982F88279C
:104D2000906268C0C11534E5D30728F09C2F88270E
:104D3000846F906A5FC0AE01437055272C2F269573
:104D40002695C115D34578F481E090E002C0880F24
:104D5000991F4A95E2F740E2249F90011124822B8B
:104D6000932B9C6847C081E090E002C0880F991F98
:104D70004A95E2F740E2249F90011124822B932B65
:104D80009A6838C0C1152AE5D207F8F4C11539E58B
:104D9000D30790F08C2F8F700E94582494E0D69502
:104DA000C7959A95E1F7CF70D0E0DC2FCC27D0697A
:104DB0009E01282BC9011EC0C11548E5D407C0F0CB
:104DC0009C2F8827806F906A15C0CE019056811560
:104DD000904270F48D2F8F710E945824282F2F71CC
:104DE000CE0199279062922B05C081E090E002C02D
:104DF00080E090E0DF91CF910895CF9384E090E040
:104E00000E940232C82F82E290E00E9402322C2FD0
:104E100030E0A901582BCA01CF91089580E090E0BD
:104E20000E940A32893E9E4F11F40C940A2D80E0B4
:104E3000089569EE7EEF80E090E00E942E3260E0FF
:104E400082E090E00E94103260E083E090E00E94F7
:104E500010321092150460E084E090E00E9410325D
:104E600060E082E290E00E94103260E085E090E035
:104E70000E94103260E086E090E00E9410326FEFF6
:104E800087E090E00E94103240E050E0BA0188E0F4
:104E900090E00E94223260E08DE090E00E941032AB
:104EA00040E050E0BA0188E190E00E94223260E0E8
:104EB00087E190E00E94103240E050E0BA018CE1BE
:104EC00090E00E94223260E070E080E290E00E9478
:104ED0002E3240E050E0BA0188E190E00E94223298
:104EE00080E00E94DD2C0E94FB2C40E050E0BA01E3
:104EF0008FE090E00E94223240E050E0BA0183E16E
:104F000090E00C94223280910D04882331F01092AD
:104F10000D0410920C0410920B040895CF939091FD
:104F2000890192FD0DC090910D04981749F0C82F8A
:104F30000E943F1F90930C0480930B04C0930D04B8
:104F4000CF91089580959091EC0289238093EC0293
:104F5000089580959091DC0189238093DC01089568
:104F60009091DC01892B8093DC010895109202045A
:104F7000109201041092000408952091020480957B
:104F8000822380930204982F977099F430E0482F81
:104F9000082E000C550B2417350759F09091890104
:104FA00092FD07C08595859585950E947B1A0C9486
:104FB000B6270895CF93C0918901C2FB992790F934
:104FC000981799F080FBC2F9C0938901609188011C
:104FD00084E090E00E9410326C2F82E290E00E9408
:104FE000103282E0CF910C94BD27CF91089590911B
:104FF000890192FD10C098E0899F90011124262B11
:10500000209302040E94871A0E943F1F909301047C
:105010008093000408950C94871A8091C7029091A0
:10502000C802892B89F00E943F1F20910B04309108
:105030000C04AC01421B530B81E02091C70230915C
:10504000C8024217530708F480E0817008959091D8
:10505000DC018091EC02892B8093AD0380910D04DB
:10506000882301F18091C7029091C802892B29F011
:105070000E940D2881110E9483279091AD03809199
:105080000D04892B8093AD03EFEAF3E097E080E015
:10509000915029F021912223D9F38F5FF9CF81110B
:1050A0000E94832748E050E063E074E08DEA93E0DB
:1050B0000E94CD32892BA9F088E0EDEAF3E0A3E06D
:1050C000B4E001900D928A95E1F7E091A103F0918F
:1050D000A203309731F00280F381E02D8DEA93E056
:1050E000099408958091FF0381111092FF030895A0
:1050F0002091FE039091BD032917B1F030E0F90132
:1051000053E0EE0FFF1F5A95E1F7E254FC4F518137
:10511000561306C05081581303C05281541306C061
:105120002F5F3F4F2770E8CF80E0089581E008951A
:105130008091FE039091BD03891719F08F5F8770EE
:10514000FBCF0895CF92DF92EF92FF920F931F93C0
:10515000CF93DF938091BA0382958F7009F05CC082
:105160008091B703882309F457C0C091FE03809152
:10517000BD03C81709F450C0F090B503E090B60322
:10518000C090B803D090B903A6016E2D8F2D0E9458
:10519000A620D0E081113DC08E0183E0000F111FD9
:1051A0008A95E1F7F801E254FC4F81818E1131C0FC
:1051B00080818F112EC0828181112BC0E380F48009
:1051C000EC18FD0860E085EB93E00E94412F809190
:1051D000DD029091DE02E816F906D8F48091BA0358
:1051E0008F7080618093BA03F801ED53FC4F80818A
:1051F0008F708061808385EB93E00E942704DF91AC
:10520000CF911F910F91FF90EF90DF90CF900C9472
:1052100098282196C770ABCFDF91CF911F910F9146
:10522000FF90EF90DF90CF9008958F929F92AF9272
:10523000BF92CF92DF92EF92FF920F931F93CF9383
:10524000DF938C0180918600909187006CE070E084
:105250000E945C326017710730F0C80169E070E0AD
:105260000E945C3260C08091860090918700E0903F
:105270008600F0908700E0918600F0918700C6E0FC
:10528000D0E0BE010E945C3220E030E0060F171F24
:10529000211D311D4801590185E0880C991CAA1C6B
:1052A000BB1C8A95D1F7C701BE010E945C326F0119
:1052B000E12CF12CA7019601260F371F411D511D2E
:1052C000C501B4010E94843269017A01E09186002F
:1052D000F0918700CA01B9010E944C329B01AC01D8
:1052E000DF010E94C2329B01AC01C701B6010E94DE
:1052F0004C32DC01CB012FE0B695A79597958795A9
:105300002A95D1F7009186001091870020E030E0C7
:10531000081719072A073B0728F460918600709147
:105320008700CB01BC01CB01DF91CF911F910F9181
:10533000FF90EF90DF90CF90BF90AF909F908F90B5
:1053400008950F931F93CF93DF93853038F5611144
:1053500025C0423018F521159CE5390731F46091DC
:10536000D6017091D701672BC9F08901C42FD0E015
:10537000CC0FDD1F94E0899FC00DD11D1124C95AA7
:10538000DD4F612FCE010E941032602FCE010196B9
:10539000DF91CF911F910F910C941032DF91CF913B
:1053A0001F910F9108950F931F93CF93DF93853033
:1053B000E8F461111BC04230C8F4C42FD0E0CC0F18
:1053C000DD1F24E0829FC00DD11D1124C95ADD4F7D
:1053D000CE010E94023290E0182F0027CE010196E4
:1053E0000E9402329801282BC90102C080E090E09F
:1053F000DF91CF911F910F9108950F931F93CF933A
:10540000DF93853058F5673048F5483038F5211579
:105410009CE5390731F4E091D601F091D701EF2BEB
:10542000E9F08901C42FD0E0CC0FDD1F90E1699F26
:10543000C00DD11D112490E7899FC00DD11D1124ED
:10544000612FCE0187960E941032602FCE01889680
:10545000DF91CF911F910F910C941032DF91CF917A
:105460001F910F9108950F931F93CF93DF93853072
:1054700008F56730F8F44830E8F4C42FD0E0CC0FDA
:10548000DD1F20E1629FC00DD11D112430E7839FF5
:10549000C00DD11D1124CE0187960E94023290E0EA
:1054A000182F0027CE0188960E9402329801282BDF
:1054B000C90102C080E090E0DF91CF911F910F9170
:1054C0000895CF92DF92EF92FF920F931F93CF93A5
:1054D000DF93CDB7DEB72A970FB6F894DEBF0FBEC5
:1054E000CDBF88E7E8E2F4E0DF011D928A95E9F795
:1054F00084E5E5E6F2E0DF011D928A95E9F788E2AE
:10550000C82E84E0D82E7F010FED12E0F701D18282
:10551000C0824AE050E0B801CE0101960E94F2310B
:1055200088E0FE013196D60101900D928A95E1F74F
:1055300089859A85D70113969C938E931297BAE02A
:10554000CB0ED11CE7E0EE0EF11C065F1F4F0735B6
:10555000F3E01F07D9F62A960FB6F894DEBF0FBE08
:10556000CDBFDF91CF911F910F91FF90EF90DF9012
:10557000CF9008958F929F92AF92BF92CF92DF9279
:10558000EF92FF920F931F93CF93DF93CDB7DEB7C8
:105590002A970FB6F894DEBF0FBECDBF0FEE12E014
:1055A000E12CF12C8EE2C82E8CE2D82E99E5A92EA2
:1055B0009CE2B92E20E4822E2BE2922EF801D182B9
:1055C000C082B382A28295828482F58AE48ABE0177
:1055D0006F5F7F4F8E2D0E944124892B29F489858E
:1055E0009A85F801938B828BFFEFEF1AFF0A0A5E10
:1055F0001F4F88E0E816F10409F72A960FB6F894D1
:10560000DEBF0FBECDBFDF91CF911F910F91FF90F5
:10561000EF90DF90CF90BF90AF909F908F900895C4
:10562000CF93DF9300D000D01F92CDB7DEB7909319
:10563000D9018093D801811520E2920748F40F9098
:105640000F900F900F900F90DF91CF910C94B63187
:105650008EEF89838A831B820E943F1F8160782F8F
:105660009D838C8349815A816B818D810E944F2F4C
:105670000F900F900F900F900F90DF91CF910895A2
:105680000F931F93CF93DF938C01EB016EE174E0D6
:105690008C2F0E944124892B09F046C08091E3029F
:1056A0009091E4020E943522DD27CA5EDB4F88819B
:1056B000F80110821882833079F048F4813041F18A
:1056C000823091F5809120049091210409C08430AA
:1056D00051F08530E9F028C0809122049091230494
:1056E0000097B1F01BC0809124049091250400978D
:1056F000A9F420911E0430911F0480912004909100
:1057000021042115310541F0009741F4C90106C07B
:1057100080911E0490911F04009731F0DF91CF918A
:105720001F910F910C94102BDF91CF911F910F912E
:105730000895CF93DF9300D000D01F92CDB7DEB78E
:105740009093D9018093D801811520E2920748F403
:105750000F900F900F900F900F90DF91CF910C94BE
:10576000D0318EEF89838A8381E08B830E943F1F33
:105770008160782F9D838C8349815A816B818D81D3
:105780000E944F2F0F900F900F900F900F90DF916E
:10579000CF910895AF92BF92CF92DF92EF92FF9296
:1057A0000F931F93CF93DF93B82EA62EC090C00106
:1057B00080911504C82AC7E0D0E0D12CE12CF12C4F
:1057C000D701C6010C2E04C0B695A795979587956D
:1057D0000A94D2F780FF13C04A2D6B2D8C2F0E94A4
:1057E000D3298C018130910551F00E94992B8FE3D0
:1057F0009CE90197F1F700C00000C80111C0219792
:10580000F8F64A2D6B2D80E00E94D329EC010E940E
:10581000992B8FE39CE90197F1F700C00000CE01BE
:105820000E94102B81E0DF91CF911F910F91FF908B
:10583000EF90DF90CF90BF90AF900895CF93DF931C
:10584000EC010E94992B8091E3029091E4020E9466
:105850003522CE01DF91CF910C94102B0F931F9323
:10586000CF93DF938C01862F6EE174E00E94412478
:10587000892BD1F4C0911E04D0911F042097A1F070
:10588000F8018081833039F4CE010E941E2CCE01B4
:105890000E941E2C02C0843038F0CE01DF91CF91DF
:1058A0001F910F910C941E2CDF91CF911F910F919E
:1058B00008950F931F93CF93DF938C01EB016EE15B
:1058C00074E08C2F0E944124892B09F06DC0DD27E4
:1058D000F8018081813041F49185911115C0928544
:1058E000992391F082E010C0823049F4F80181855B
:1058F000811107C08285811106C083E005C086E062
:1059000003C085E001C084E0CA5EDB4F888383303A
:10591000B1F028F4813071F0823031F045C084302C
:10592000A9F0853079F140C0809120049091210444
:105930000097A1F580911E0490911F0420C08091D2
:105940002204909123040097E9F028C08091240458
:1059500090912504009711F580911E0490911F04E9
:10596000009749F00E941E2C809120049091210400
:10597000009781F013C0809120049091210400973A
:1059800099F00CC080911E0490911F04009761F063
:105990000E941E2C80911E0490911F04DF91CF91D4
:1059A0001F910F910C94992BDF91CF911F910F9123
:1059B000089586E290E00C941032CF93C82F8111A5
:1059C00002C06FEF01C06CEC83E290E00E941032E5
:1059D000C11102C06FEF01C067E984E290E00E944C
:1059E0001032C11102C06FEF01C061E385E290E0A7
:1059F000CF910C94103280E00E94DD2C60E070E0CA
:105A0000CB010E94D92C0E949C230E94702381E02C
:105A10000C94DD2C83E290E00E9402328C3C81F4F5
:105A200084E290E00E940232873951F485E290E0EE
:105A30000E94023291E0813309F090E0892F01C089
:105A400080E0817008951F920F920FB60F9211247B
:105A50002F933F934F935F936F937F938F939F9376
:105A6000AF93BF93EF93FF938091130191E0980F51
:105A7000823019F09093130148C081E080931301A4
:105A80008091130490911404019660ED72E00E94DD
:105A90005C32909314048093130465E070E00E94DC
:105AA0005C326F7780911204823019F4603451F4C3
:105AB00004C0813039F46F3729F480916F008E7FF4
:105AC00080936F00E62FF0E0E755F94FE4912091C5
:105AD000860030918700E29FC001E39F900D112462
