:100000000C9418030C9450030C9450030C9450035C
:100010000C9450030C9450030C9450030C94500314
:100020000C9450030C9450030C94ED300C94C1319B
:100030000C94372B0C9450030C9450030C945003E5
:100040000C9450030C9450030C9450030C945003E4
:100050000C9450030C94BD2B0C9450030C9450033F
:100060000C9450030C9450030C9450030C945003C4
:100070000C9450030C9450030C9450030C945003B4
:100080000C9450030C9450030C9450030C945003A4
:100090000C9450030C9450030C9450030C94500394
:1000A0000C9450030C9450030C9450031E001F003A
:1000B0002000210022002300240025002600270024
:1000C00014001A000800150017001C0018000C008E
:1000D0001200130004001600070009000A000B00BC
:1000E0000D000E000F0028001D001B000600190067
:1000F0000500110010003600370038000000000035
:10010000280000002C0000002C002A000000000045
:1001100001000100010001000100010001000100D7
:1001200001000100010001000100010001000100C7
:1001300001000100010001000100010001000100B7
:1001400001000100010001000100010001000100A7
:100150000100010001000100010001000100010097
:10016000000000000100000001000000010001008B
:100170000000000001000100010001000100010079
:100180000100010001000100010001000100010067
:100190000100010001000100010001000100010057
:1001A0000100010001000100010001000100010047
:1001B0000100010001000100010001000100010037
:1001C000010001000000000001000000010000002B
:1001D0000100010000000000010001000100010019
:1001E0000100010001000100010001000100010007
:1001F00001000100010001000100010001000100F7
:1002000001000100010001000100010001000100E6
:1002100001000100010001000100010001000100D6
:1002200001000100010001000000000001000000C9
:1002300001000000010001000000000000000000BB
:10024000000000002A2B2800000000000000000031
:100250000000000000000029000000002C1E3420D7
:10026000212224342627252E362D3738271E1F20FD
:100270002122232425263333362E37381F04050642
:100280000708090A0B0C0D0E0F1011121314151686
:100290001718191A1B1C1D2F3130232D3504050684
:1002A0000708090A0B0C0D0E0F1011121314151666
:1002B0001718191A1B1C1D2F3130354C0000000077
:1002C000000000000000000000000000000000002E
:1002D000000000000000000000000000000000001E
:1002E0007E0F00D4FFFFFFC700000078FD377A586B
:1002F0005A000004E6D6B4460200210116000000B0
:10030000742FE5A3E00263011D5D003D8889C6549A
:1003100036C3174FE4E20F5525C005DC6B71750A33
:10032000597176AB31DABECC741D3559C30003A6C2
:100330009C02D503E1B88B09764AD99AAC9D1EEF91
:10034000B672EE8375560F4C5963DC7DF208527518
:10035000E5113EF425E0B556BB51A477455A70929D
:1003600088856AC52D97B88E966C28BDBAC70CBA19
:100370005B2A58086F05FCF9474406D0DDFAA14E08
:100380009061D435AE98F8664EA3275703C0B1727A
:10039000BD79C98A58E4C4FDEDB8C77643C511CF0D
:1003A000F44686F402C36B34DC3BA6EA0F0E630509
:1003B0007B344694E30FCFFF5C5245AB933D9EDF09
:1003C000A7FE66227921C8FB4E4AC23E8253BF8CEB
:1003D0006329FF161BCFD74161D8030EC314E7C9A9
:1003E000AA9144C56FD8269BCD7EB96B570457E3BD
:1003F0008F92B78DE2FB1FCA913A1DBF81E63492FE
:1004000055691B130C0BDF241E5FF7BC629E9A22FA
:10041000CE570F7944F3671C6FDD16E97DF0B07697
:10042000B031EE35C38309000000000011592C944F
:1004300011424F400001B902E4040000B3BB44DAAA
:10044000B1C467FB020000000004595A010001001A
:10045000FD04000002000200F90400000300010096
:10046000FE04000004000200E304881E05000100F1
:10047000FF04000006000200E5040000070002007F
:10048000FB0400000800010000050000120002004B
:100490000105000013000200030500001C037600A4
:1004A000690061006C003A006600360034006300A9
:1004B000320062003300630000001C034C0069003E
:1004C000740074006C00650066006F006F007400BB
:1004D00020004C0058000000160374006F006D00EF
:1004E00069006E00610062006F007800310000005A
:1004F0000403090409025B00030100A0FA090400D7
:10050000000103010100092111010001224000073F
:10051000058103080001090401000203000000092D
:10052000211101000122220007058203200001079A
:100530000503032000010904020001030000000973
:100540002111010001226D00070584032000011222
:10055000010002000000083174786C010001020300
:10056000010660FF0961A1010962150026FF0095DF
:1005700020750881020963150026FF009520750883
:100580009102C005010980A101850319012AB70064
:10059000150126B700950175108100C0050C0901F1
:1005A000A101850419012AA002150126A0029501C6
:1005B00075108100C005010906A10185060507190E
:1005C000E029E71500250195087501810205071945
:1005D0000029EF1500250195F07501810205081924
:1005E000012905950575019102950175039101C0D9
:1005F00005010906A101050719E029E715002501F4
:10060000950875018102950175088101050719009A
:1006100029FF150026FF00950675088100050819B9
:10062000012905950575019102950175039101C098
:1006300011241FBECFEFDAE0DEBFCDBF04B603FE4C
:1006400018C08091160590911705A0911805B091DA
:1006500019058730904BA740B04B59F410921605FE
:10066000109217051092180510921905E0E0F8E3B2
:10067000099511E0A0E0B1E0ECE4F8E602C00590D5
:100680000D92A03AB107D9F725E0A0EAB1E001C088
:100690001D92A631B207E1F70E9497150C94003421
:1006A0000C9400009C013A9521153F4150F5FC0146
:1006B000EE27F170BC0166277270AC0144275470BC
:1006C0009C012227387094FF0EC080E1EF2B09F4C3
:1006D00080E0672B09F08062452B09F08064232BB2
:1006E00089F08068089581E0EF2B09F480E0672BA2
:1006F00009F08260452B09F08460232B19F0886093
:10070000089580E00895CF93DF93EB010E94520398
:10071000FE01DF91CF910994CF93DF93EC01805ECE
:100720009109089720F06DED76E0209711F46FECB9
:1007300076E0CE010E9483038C2FDF91CF910C9441
:100740003E06CF93DF93EC010E948406CE01805ECB
:100750009109089720F064EE76E0209711F466ED99
:1007600076E0CE01DF91CF910C94830381E0089570
:1007700081E008950C94B80308950C94BC031F9372
:10078000CF93DF9300D000D00F92CDB7DEB749836F
:100790005A836B833091A30189819A8131111DC0E5
:1007A0006623B9F02223A9F00E94D80A182F682FD7
:1007B00089819A810E947B0A69817A81812F0F90B9
:1007C0000F900F900F900F90DF91CF911F910C948D
:1007D0006F1D0E94AB0A182FEFCF0E94D80A6981C3
:1007E0007A81EDCFFC01262F86819781009739F41D
:1007F000408151816281738184810C94BF0308958B
:10080000CF93DF93EC0161E00E94F203BE01DF9120
:10081000CF910C947925CF93DF93EC0160E00E9497
:10082000F203BE01DF91CF910C94BD03E1E0F0E053
:10083000DF0102C0AA0FBB1F6A95E2F7BD01DF010D
:1008400002C0AA0FBB1F4A95E2F76A2B01C0EE0F48
:100850002A95EAF7962F9823961302C08E2B0895B7
:10086000E0958E230895242F462F682F8091BB0199
:100870000E9416040C94380A0C9422140C9425142B
:1008800008950E94FB060E9440042FEF84E39CE041
:10089000215080409040E1F700C000000C94E12B13
:1008A0000F931F93CF93DF93EC018B010E94D2280B
:1008B000B801CE010E940616882309F44FC0B80182
:1008C000CE010E94261B882309F448C0B801CE013E
:1008D0000E94BA03882309F441C0B801CE010E94E6
:1008E00018298823D9F1B801CE010E9472228823E9
:1008F000A9F1B801CE010E941D28882379F1B80121
:10090000CE010E94D21F882349F1B801CE010E9476
:100910004E27882319F1F8018281882361F0CA35B6
:10092000FDE5DF0721F170F4C115ECE5DE07A1F06C
:10093000CE3DDC45C9F0C801DF91CF911F910F91E9
:100940000C94B603CB358DE5D807A1F0CC35DD4549
:1009500091F70E947A10EFCF0E94410480E0DF916E
:10096000CF911F910F9108950E943311F7CF0E94EC
:100970008310E1CF0E948610DECFCF93DF93EC018E
:1009800061E00E94F203BE01DF91CF910C9450040C
:100990000E941B2B0C94B1050E94B4050C941F2BD4
:1009A000DF92EF92FF920F931F93CF93DF93E82F85
:1009B000F0E0E45CFD4FD490282F269526952695EF
:1009C00030E0F901E452FD4F0491877010E0082EE9
:1009D00002C0159507950A94E2F701701127F901F5
:1009E000E453FD4FE490F12C082E02C0F594E794F7
:1009F0000A94E2F791E0E922FF24F901E454FD4F63
:100A0000C491D0E002C0D595C7958A95E2F7C17030
:100A1000DD270115110519F081EE0E943E06E11453
:100A2000F10419F086EE0E943E068D2D0E94C30649
:100A3000EF2819F086EE0E948406012B19F081EE52
:100A40000E948406CD2B51F08CE2DF91CF911F9153
:100A50000F91FF90EF90DF900C94C306DF91CF9140
:100A60001F910F91FF90EF90DF900895EF92FF920A
:100A70000F931F93CF93DF93EC01162F0AE0888129
:100A8000882309F454C0813009F04EC08981813037
:100A900099F47E0122E0E20EF11C8A810E94C306D5
:100AA000E7012196812F815050F3EFE9FFE0319764
:100AB000F1F700C00000F7CF823041F47E0182E000
:100AC000E80EF11C8A810E943E06EACF833041F491
:100AD0007E01E2E0EE0EF11C8A810E948406E0CFE6
:100AE000843011F02196DDCF2A81229690E080E0BB
:100AF000AE014F5F5F4F2053330B2A30310548F072
:100B0000019778F2EFE9FFE03197F1F700C00000BC
:100B1000F7CF089FB001099F700D1124C901860FFE
:100B2000971F2981EA01E4CF0E94D004BACFDF9158
:100B3000CF911F910F91FF90EF90089560E00C947A
:100B4000360508950C94A10581E008950C94A40540
:100B50000895CF93C82F0E94A2058C2FCF910C949B
:100B6000A60580E00C94A9050E94F1290C94A90522
:100B70000E94F1299091A201981721F08093A2017F
:100B80000C94A9050895019708F40895EFE9FFE092
:100B90003197F1F700C00000F6CFCF93DF93CDB7C8
:100BA000DEB72D970FB6F894DEBF0FBECDBF4987D5
:100BB0005A876B877C878D878C859D85892B29F04B
:100BC000CA0189238F3F09F04AC08B8581110E9499
:100BD0008C0F1D821E821F82188685E0FE013996C9
:100BE000DE01119601900D928A95E1F780915404EF
:100BF00082FD12C08091E5049091E604892B61F09A
:100C00000E94480F882319F082E00E9449100E9438
:100C1000240F81110E94C30F8C819D81892B99F42F
:100C200029813A814B815C816D817E818F8198859C
:100C30000E946D0E2D960FB6F894DEBF0FBECDBF8D
:100C4000DF91CF91089589819A8189238F3F41F364
:100C5000CE0101960E9400048111E2CFEBCF80917A
:100C6000A4019091A50101969093A5018093A40100
:100C7000ACCFFC01808191810C94050BCF93C82FE0
:100C8000882309F43FC08CEF8C0F813AA0F46C2FBD
:100C900080910001909101010E94572A882329F038
:100CA0008C2F0E94140F0E94D10F8C2F0E940D0FC9
:100CB000CF910C94D10F80E28C0F883048F4C7702C
:100CC00081E001C0880FCA95EAF70E946C0FF0CF4F
:100CD000EBE5EC0FE33040F4F0E0E35BFE4F8081A6
:100CE00090E0CF910C94172AC85AC73158F4EC2FD2
:100CF000F0E0EE0FFF1FE15EFE4F80819181CF910A
:100D00000C942D2ACF910895882329F19CEF980FF8
:100D1000913A20F40E94140F0C94D10F90E2980F96
:100D2000983050F4877091E001C0990F8A95EAF7E6
:100D3000892F0E94720FF0CF9BE5980F933020F41B
:100D400090E080E00C94172A885A873120F490E0D4
:100D500080E00C942D2A08951F93CF93DF93182FD2
:100D6000EB010E943E06209731F4812FDF91CF9155
:100D70001F910C9484068FE99FE00197F1F700C062
:100D800000002197F0CF609103057091040589332D
:100D900021F060910105709102050C94AC06882346
:100DA00021F00E946C0F0C94D10F0895882321F03C
:100DB0000E94720F0C94D10F0895882321F00E9495
:100DC0007F0F0C94D10F0895882321F00E94850F86
:100DD0000C94D10F089590E080E00E94172A90E0D3
:100DE00080E00E942D2A0E948C0F0C94D10F0E944B
:100DF0001B0F0C94EB060E94790F0C94F70692954A
:100E00009F70963091F058F4925F9F70923058F432
:100E1000803F19F030F4883E30F481E008959A5F05
:100E2000F4CF843FD1F380E00895883EB0F3813F52
:100E3000D1F7F3CFFC0186819781009721F00E94C2
:100E400025120C94FF06808191810E94050BF9CF39
:100E5000BF92CF92DF92EF92FF920F931F93CF93A7
:100E6000DF936C01EB01FC010281158112951F706B
:100E70000E94620FE82E8823B9F0E02E0023A1F033
:100E80008D2F807F803421F080E28C0F8830D0F06D
:100E90008091540482FD16C082E00E9449100E9495
:100EA000620F91E0E82EE926BD2EB2942FE0B22227
:100EB000FBE0FB1508F47CC0EB2DF0E0EE5FFB4C93
:100EC0000C947333E12CF0CF2D2F2F70F22E8D2F39
:100ED000807F19F0F29490EFF922002399F0FF201F
:100EE00059F080E28C0F883010F0C11107C08F2DAF
:100EF0000E946C0F0E94D10F8C2F52C08F2D0E9428
:100F00007F0FF8CF8C2F0E948406FF2009F450C079
:100F100080E28C0F883010F0C11104C08F2D0E9428
:100F2000720F03C08F2D0E94850F0E94D10F40C009
:100F30003D2F3F70F32E8D2F807F803219F0F29479
:100F400080EFF822CC23F1F0C13009F49BC00023DC
:100F500009F4A2C0112309F477C020E0F601408112
:100F600051816281738184810E94BF03B6010E9416
:100F7000871F8111C1CFF601858180FFBDCF8F70A2
:100F8000858362C08091540482FF41C0002359F0E0
:100F9000FF2029F08F2D0E946C0F0E94D10F80E05E
:100FA0000E943E0605C080E00E948406F110B6CF84
:100FB000EB2DE850FF0B349720F40E94F1290E949A
:100FC000A905CE010E94FF0681119CC11092A501C6
:100FD0001092A401EE2009F4B6C10E94440F80FDD6
:100FE000B2C1F60112820E943E0F0E94490AC60158
:100FF0000E94CB090E943E0FDF91CF911F910F916C
:10100000FF90EF90DF90CF90BF900C94540A002394
:10101000E9F0111106C00E948F0F8F290E94CF06A0
:10102000C7CF113031F40E948F0F8F290E94AB0F70
:10103000BFCF8091FF04823070F38113ECCF0E9408
:10104000C30F8F2D0E94950F8F2DE8CF111106C071
:101050000E94C30F8F2D0E94D606AACF8091FF0455
:10106000113059F4823008F4A3CF0E94690F8F2108
:1010700009F49ECF0E949E0FEBCF823048F31813E5
:10108000E7CF96CF002321F0163008F091CFDCCFC8
:10109000153008F08DCFDECF1123E1F280910305EA
:1010A00090910405C93321F08091010590910205CA
:1010B0000E94C3058C2F0E9484067ACF8D2F8695BF
:1010C0008695837061F0813009F072CFCE01937004
:1010D000011102C090E080E00E942D2A69CFCE016C
:1010E0009370011102C090E080E00E94172A60CF47
:1010F0008D2F837081F501115BCF4C2F4295469562
:101100004770440F440F8C2F8F70042E01C0880F3E
:101110000A94EAF72C2F2071C4FF07C02FE030E0BB
:1011200001C0220F4A95EAF720959D2F9695969536
:101130009370822B923049F058F4913019F00E944C
:101140002A0A36CF0E94250A33CF0E942F0A30CFB9
:101150000E94230A2DCF8695002311F08D2F8170D8
:10116000882309F425CF4C2F429546954770440FAC
:10117000440F8C2F8F70042E01C0880F0A94EAF759
:101180002C2F2071C4FF07C02FE030E001C0220FD8
:101190004A95EAF720959D2F969596959370822B08
:1011A000923049F058F4913019F00E94700A00CF43
:1011B0000E946B0AFDCE0E94750AFACE0E94380A80
:1011C000F7CEFD2FFF70FF2E002329F08F2F0E94F6
:1011D000490A8C2F23CF8C2F0E94D6068F2D0E9478
:1011E000540AE6CEC23F41F160F4C03FB9F0C13FBE
:1011F00081F0002309F481C011117ECE8D2F8F71F3
:101200001FC0C33F01F1C43FA1F78091540482FF86
:1012100024C08D2F8F71002311F312C0002341F0E1
:10122000153008F0C5CE8D2F8F710E94600AC0CE98
:10123000163008F0BDCEF7CF8D2F8F710111CFCFB3
:101240000E94490AB5CE002329F08D2F8F710E948C
:10125000410AAECE0E943E0AABCE8091FF0482309E
:10126000A8F10023F9F00E94210F0E94720F0E9442
:10127000440F843041F40E9440108D2F8F710E94E2
:10128000540AE12C95CE8091FF041817D0F72D2F2A
:101290002F71F22E822F0E94490A63E08F2D0E9447
:1012A0002410EFCF0E94210F0E946C0F8091FF0449
:1012B000181740F00E9440100E949E0F64E08D2F8E
:1012C0008F71EDCF81E00E944910DBCF002359F0F0
:1012D0003D2F3F71F32E832F0E94490A63E08F2D2B
:1012E0000E94241065CE81E00E944910123008F45B
:1012F0005FCE82E00E9449105BCE1111CFCE8D2FC0
:101300008F716DCF002319F0111160CE63CE1111D2
:101310005DCE20E0F601408151816281738184813C
:101320000E94BF03B6010E94921F882309F44ECE8B
:101330008091A4019091A501029709F047CE8C2FCE
:101340000E94C30643CEDF91CF911F910F91FF9072
:10135000EF90DF90CF90BF9008950F931F93CF939E
:10136000DF93EC018E819F81009779F00E94251216
:101370008C010E947A0A0E94220AB801CE01DF91F4
:10138000CF911F910F910C942807688179818A81F0
:101390000E940F0BEDCFCF93DF93EC018B819C81EB
:1013A000892B29F08881998189238F3F59F4DF9116
:1013B000CF910895CE010E94AD09CE01DF91CF916A
:1013C0000C940B04CE010E94BD048111F3CF0E9446
:1013D000620F882361F38A81882349F38091540442
:1013E00082FDE5CF82E0DF91CF910C944910CF933D
:1013F000DF9300D000D00F92CDB7DEB70F900F90E3
:101400000F900F900F90DF91CF910895CF93DF93BE
:10141000CDB7DEB728970FB6F894DEBF0FBECDBFAD
:1014200028960FB6F894DEBF0FBECDBFDF91CF91E7
:10143000089508950C94190A0E941A0A8093BC0119
:101440000C94EB0608950C941C0A9091BC01892B16
:101450000C941C0A9091BC0189230C941C0A909155
:10146000BC0189270C941C0A0C94190A0C94340AA8
:101470000E94360A8093BB010C94EB0680E00C942A
:10148000380A91E001C0990F8A95EAF7892F0C94E8
:10149000380A21E030E001C0220F8A95EAF78091F6
:1014A000BB01822B0C94380A21E030E001C0220FEE
:1014B0008A95EAF720958091BB0182230C94380A23
:1014C00021E030E001C0220F8A95EAF78091BB014C
:1014D00082270C94380A9091BB01892B0C94380A0E
:1014E0009091BB0189230C94380A9091BB01892704
:1014F0000C94380A08959E3F69F1E82F2AE0929FE4
:10150000E00D11248E2F877041E001C0440F8A95B1
:10151000EAF7E695E695E69583E0E89FF001112469
:10152000EA55FE4F30E020E070E05191DF01119765
:10153000CB01022E02C0969587950A94E2F781703E
:1015400081958527842385278C932F5F3F4F2330F8
:10155000310559F708959E3F49F1E82F2AE0929FFF
:10156000E00D11249E2F9770E695E695E69583E0B1
:10157000E89FF0011124EA55FE4F50E040E080E082
:10158000219130E0092E02C0369527950A94E2F7A2
:1015900021703327042E01C0220F0A94EAF7822B10
:1015A0004F5F5F4F4330510559F7089580E008952C
:1015B000CF92DF92FF920F931F93CF93DF936C0133
:1015C0000091BB018091BC01082BC7E0D0E010E086
:1015D000FC2EC8010C2E02C0959587950A94E2F75F
:1015E00080FD0CC02197A0F7F12C8F2DDF91CF91BA
:1015F0001F910F91FF90DF90CF900895B6018C2F2F
:101600000E940F13019771F3F0CFCF93DF93EC019A
:101610000E94D80ABE01DF91CF910C940F131F9343
:10162000CF93DF93EB019091A301992331F0CB018C
:10163000DF91CF911F910C94050B882379F0CB019A
:101640000E94D80A182F682FCE010E947B0ABE0183
:10165000812FDF91CF911F910C940F13CB010E942A
:10166000AB0A182FF4CFCF93DF93C091BD018091C7
:10167000BE018C1303C0DF91CF910895D0E0FE012D
:1016800083E0EE0FFF1F8A95E1F7E154FE4F2081C2
:1016900031814281538164817581868197810E9465
:1016A000060A2196C770E3CF2091FF013091000216
:1016B0004091010250910202609103027091040274
:1016C00080910502909106020C94060A2091BD01BA
:1016D0009091BE01291302C080E0089530E0F90125
:1016E00053E0EE0FFF1F5A95E1F7E154FE4F518191
:1016F000561306C05081581303C05281541304C0BE
:101700002F5F3F4F2770E6CF81E00895EF92FF9261
:101710000F931F93CF93DF9380910402807F31F466
:1017200080910102C091BD01811119C0DF91CF915B
:101730001F910F91FF90EF90089520910202309138
:101740000302D0E02115310541F08091FF01909115
:101750000002482F49234F3F39F42196C7708091EA
:10176000BE018C13EACFE2CF8E0143E0000F111FC0
:101770004A95E1F7F801E154FE4F41814913EDCF5D
:1017800090819813EACF82818111E7CFE380F480C2
:10179000E21AF30A60E08FEF91E00E94F2036FEF2C
:1017A00071E00E947E1FE816F906B8F680910402E7
:1017B0008F70806180930402F801EC53FE4F8081AA
:1017C0008F70806180838FEF91E00E94CB09DF9161
:1017D000CF911F910F91FF90EF900C94330B4F928C
:1017E0005F926F927F928F929F92AF92BF92CF92B1
:1017F000DF92EF92FF920F931F93CF93DF93CDB7BA
:10180000DEB765970FB6F894DEBF0FBECDBF8C0173
:1018100085E0F801DE01519601900D928A95E1F77D
:10182000D8014C9011965C90119712967C9012976B
:101830001396ED90FC9060E08FEF91E00E94F20330
:101840006C018FEF882E81E0982E2091020230915A
:1018500003022115310541F08091FF0190910002B2
:1018600089238F3F09F0E5C171100DC1C8010E94A5
:10187000CB097FC06FEF71E0C6010E94831F811109
:101880000BC2EF2829F0852D84218F3F09F011C16B
:1018900080E0B82FB170EB2E80FF29C0472D652D59
:1018A000842D0E94660BF82E811121C0498A5A8A24
:1018B00089899A890E94050B292F22952F70223041
:1018C00050F0243078F49F7051F0F8019581907FAA
:1018D00031F46F2C1AC19F7011F08823D1F3805E10
:1018E0008830B8F3C8010E94CB09FE2CF2CF7720D4
:1018F00009F40BC180910402816080930402612C81
:1019000004C1892B49F08091FF0190910002282F9A
:1019100029232F3F09F011C1C8010E941A0788230B
:1019200009F4A4CF772009F4A1CF8091040280327A
:10193000A0F02091FF01309100023A8729871B8691
:10194000FD86EC868E878091050290910602988B29
:101950008F87CE0109960E94CB0988E0F801AFEF8E
:10196000B1E001900D928A95E1F70E94860B0E94EA
:10197000540B66246394C9C0211112C07E2DFD8AC8
:10198000EC8AA201672D8D890E94F7098FEF91E003
:101990000E94CB0988E0F40111928A95E9F79AC177
:1019A0008091020290910302892B49F08091FF01FE
:1019B00090910002282F29232F3F09F0E6C0C8018B
:1019C0000E941A07882309F451CF772009F44ECFDB
:1019D00080910402803208F22091FF0130910002D0
:1019E0003A8329831B82FD82EC828E8380910502DB
:1019F0009091060298878F83CE010196ACCF60E06C
:101A00008FEF91E00E94F2036FEF71E00E947E1F62
:101A1000A816B90650F5672C772009F427CF8091D6
:101A2000020290910302892B49F08091FF0190916D
:101A30000002282F29232F3F09F0CDC0C8010E94A2
:101A40001A0781118ACF8091040281608093040279
:101A5000C8010E94CB0959C088E0F801AFEFB1E09E
:101A600001900D928A95E1F750C07E2DFD8AEC8A97
:101A7000A201672D8D890E94F70988E0F401119277
:101A80008A95E9F77FC0C8010E941A07682E88234B
:101A900009F4ECCE88E0F801AFEFB1E001900D92CF
:101AA0008A95E1F78FEF91E00E9439060E94860B3C
:101AB00069C081E08725EDCE81E08725F6C0D80199
:101AC00011962C912913DFC0F80190819813DBC087
:101AD00020910502309106028681978128173907E7
:101AE00009F0D1C07110CFC0809104028F70806165
:101AF000809304020E94540B8FEF91E00E94CB0967
:101B000080910402D80115968C93862D65960FB6A8
:101B1000F894DEBF0FBECDBFDF91CF911F910F9123
:101B2000FF90EF90DF90CF90BF90AF909F908F90FD
:101B30007F906F905F904F900895F8012181291355
:101B4000EBCED8019C919813E7CE209105023091FD
:101B5000060216968D919C9117972817390709F060
:101B6000DBCE809104027110D7CE15968C93C801FC
:101B70000E94CB0988E0F801AFEFB1E001900D922F
:101B80008A95E1F70E94540BC0CFD80111962C9191
:101B9000291315CFD8019C91981311CF20910502DC
:101BA0003091060216968D919C9117972817390748
:101BB00009F005CF711003CF8091040215968C9324
:101BC000C8010E94CB09EFEFF1E088E0DF011D9230
:101BD0008A95E9F79ACFF801218129132FCFF801CF
:101BE000908198132BCF20910502309106028681B7
:101BF00097812817390709F021CF6FEF71E0C601EF
:101C00000E948C1F811128CF8091040280FD24CF77
:101C1000982F907F09F420CFD80115968C931597B3
:101C2000903F09F4A4CF982F907F905F8F70892BFD
:101C30009CCF609001025701A21AB30A662009F4F2
:101C4000DECE60E08FEF91E00E94F2036FEF71E073
:101C50000E947E1F20910402207FA816B90608F07A
:101C60008BCE809102029091030221114ACE672C03
:101C7000892B49F08091FF0190910002282F2923A0
:101C80002F3F09F01CCF6FEF71E0C6010E947E1F4D
:101C9000843F914008F4EECDE114F10429F0852D44
:101CA00084218F3F09F008CF80E080FFEACD472DE7
:101CB000652D842D0E94660B882309F4E2CD8FEFF9
:101CC00091E00E94CB0988E0EFEFF1E0DF011D9287
:101CD0008A95E9F70E94540B12CECF93DF93CDB7CC
:101CE000DEB760970FB6F894DEBF0FBECDBF298771
:101CF0003A874B875C876D877E878F87988BCE016D
:101D000009960E94EF0B8823D1F08C859D85892B45
:101D100039F029853A85822F83238F3F09F074C0DB
:101D20008091BD019091BE01891348C060960FB6A5
:101D3000F894DEBF0FBECDBFDF91CF91089588E04C
:101D4000FE013996DE01119601900D928A95E1F718
:101D50008C859D85892B21F389859A8589238F3FE1
:101D6000F9F2A091BE01B0E0CD01019687709927EC
:101D70002091BD012817190671F40E94FB061092EC
:101D8000BE011092BD0188E0EFEFF1E0DF011D928E
:101D90008A95E9F7C5CF93E0AA0FBB1F9A95E1F7A3
:101DA000A154BE4F98E0FE01319601900D929A9594
:101DB000E1F78093BE010E94330BB2CFB8E08B9F56
:101DC000C001112481549E4F0E94EF0B882309F417
:101DD000ADCFE091BD0128E0E29FF0011124E15474
:101DE000FE4F2081318142815381648175818681DA
:101DF00097810E94060A8091BD0190E0019687704C
:101E000099278093BD018CCF4B855C856D857E8540
:101E10008F8598890E94060A83CF682F80910001E0
:101E2000909101010C94D72A682F80910001909124
:101E300001010C94E22A80910001909101010C941F
:101E4000ED2A80912C0208958091E5049091E6049A
:101E5000892B89F00E94962B20912A0230912B0227
:101E6000AC01421B530B81E02091E5043091E60464
:101E70004217530708F480E0817008958091290289
:101E80008595859585950895809129028770089597
:101E90000E94962B2091270230912802821B930BDF
:101EA0002091E5043091E6048217930748F0809171
:101EB000290282FB882780F991E0892781700895A3
:101EC00080E0FCCF90912902977081E009F480E0D6
:101ED000089580914F02089590914F02892B80932D
:101EE0004F020895809590914F02982390934F024E
:101EF000089510924F02089580914E020895909196
:101F00004E02892B80934E020895809590914E0247
:101F1000982390934E02089510924E020895809156
:101F20002D02089508950C94920F90912C02981709
:101F300021F080932C020C94930F089580912C0231
:101F4000882329F010922C0280E00C94930F0895BE
:101F500008950C94A80FCF93C82F8091540482FD4C
:101F600010C080912D028C1761F00E94962B9093E7
:101F70002B0280932A02C0932D028C2FCF910C94B8
:101F8000A90FCF91089580912D02882349F01092D6
:101F90002D0210922B0210922A0280E00C94A90FBD
:101FA0000895CF93DF93E0910001F09101018091BA
:101FB0004F028083E0910001F091010180819091B6
:101FC0004E02892B808380912D028823E9F0809135
:101FD000E5049091E604892B29F00E94240F8111D9
:101FE0000E94C30FE0910001F09101018081909166
:101FF0002D02892B808380910001909101010E9424
:10200000432A81110E94C30FC0910001D0910101A8
:1020100040E250E067E072E0CE010E948933892BF4
:1020200069F080E2FE01A7E0B2E001900D928A958E
:10203000E1F7CE01DF91CF910C94FD29DF91CF9193
:10204000089508950C9421109091540492FD16C0A7
:1020500098E0899F90011124622B609329020E94CD
:10206000490A0E94962B9093280280932702809120
:1020700029028595859585950C9422100C94490A22
:1020800010922902109228021092270280E00C94EC
:102090002210909129028095892380932902282F6C
:1020A000277091F4282F082E000C330B921713067B
:1020B00059F09091540492FD07C0859585958595BA
:1020C0000E94540A0C94401008959091540492FB7D
:1020D000222720F9281769F080FB92F99093540485
:1020E00080915304909154040E94B01082E00C94AB
:1020F000491008958091540482FB882780F991E06B
:1021000089270C94651081E00C94651080E00C9494
:1021100065106FEF7FEF90E080E00C94E23390E089
:1021200080E00E94BE33893E9E4F11F40C94A415AA
:1021300080E0089582E090E00C94B63383E090E074
:102140000C94B633CF9384E090E00E94B633C82F4E
:1021500082E290E00E94B633982F8C2FCF910895A1
:10216000CF93C92F682F84E090E00E94C4336C2F76
:1021700082E290E0CF910C94C433AB01BC018FE0BC
:1021800090E00C94D633AB01BC0183E190E00C9459
:10219000D63360E070E0CB010C94C31060E070E0D7
:1021A000CB010E94BD100C94C91069EE7EEF90E047
:1021B00080E00E94E23360E082E090E00E94C4335D
:1021C00060E083E090E00E94C4331092BC0160E0C4
:1021D00084E090E00E94C43360E082E290E00E94DC
:1021E000C43360E085E090E00E94C43360E086E0A4
:1021F00090E00E94C4336FEF87E090E00E94C43308
:1022000040E050E0BA0188E090E00E94D63360E000
:102210008DE090E00E94C43340E050E0BA0188E1D4
:1022200090E00E94D63360E087E190E00E94C433E2
:1022300040E050E0BA018CE190E00E94D63370E0BB
:1022400060E080E290E00E94E23340E050E0BA01BA
:1022500088E190E00E94D63380E00E94BD150E9484
:10226000EA150C94CE100C94D510682F8EE090E0F7
:102270000C94C4330E94A22B60935E0270935F02A1
:10228000809360029093610260935A0270935B02A4
:1022900080935C0290935D02089585B7806885BF46
:1022A00085B7806885BF0895089508950C945511E9
:1022B00008950C9458110E944D118DEE93E10E94E7
:1022C000E7290E9488190E94AA1E0E9454110C94AA
:1022D000561181E008950C946911089508950E94A3
:1022E0006D110C946E110E9407140C94A8050E94A5
:1022F0008D2B0E94F9150E94F1140E9473110C9409
:1023000059117F928F929F92AF92BF92CF92DF929C
:10231000EF92FF920F931F93CF93DF93CDB7DEB76A
:102320002A970FB6F894DEBF0FBECDBF0E940615E8
:10233000A82E81110E943A1150E5852E52E0952E6B
:1023400010E000E0702E802F0E943D146C01F4011B
:10235000E190F1904F01E816F90609F453C080911D
:10236000620281FD0E944614C7018C259D25B12C77
:10237000EE24E394F12C9C012E213F21232BE1F14B
:102380000E946B118823A9F0BE827F82CE20DF20BD
:1023900081E0CD2809F480E088870E94962B816037
:1023A000782F9A8789874E815F8168858A850E9408
:1023B000CD05000F111FF801E05BFD4F8081918179
:1023C000E826F926F182E08281E0A11001C080E0D8
:1023D0002A960FB6F894DEBF0FBECDBFDF91CF9126
:1023E0001F910F91FF90EF90DF90CF90BF90AF9033
:1023F0009F908F907F900895B394EE0CFF1CFAE0AD
:10240000BF12B9CF0F5F1F4F0530110509F09ACFEA
:102410008FEF89838A831B820E94962B8160782F9D
:102420009D838C8349815A816B818D810E94CD056A
:10243000CBCF0E9473290E9435250C9439220E942B
:1024400081110E9419120C94B805CF93DF930E945A
:102450001313EC01811522E59207E8F5811531E5AA
:10246000930708F0ACC0883E910510F5803E9105B9
:1024700070F5883A910570F4853A910508F078C0B6
:102480008130910521F1009711F1049700F5D0E01A
:10249000C0E01DC08F3B9105D0F7C85AD0E0CC0FEB
:1024A000DD1FC05BDE4F0990D881C02DD4640FC002
:1024B000811540E5940708F066C0C11580E4D8078F
:1024C00008F05EC0CE019A9581159F4100F7CE01BC
:1024D000DF91CF910895811536E5930718F58115A1
:1024E00045E5940708F083C0C11584E5D80708F0D6
:1024F00079C09C2F969596959E0123703327C11520
:10250000D34508F461C0C1E0D0E002C0CC0FDD1FAC
:102510002A95E2F730E2939FC0011124C82BD92BF2
:10252000DA68D5CFC1158AE5D80778F4C11599E5E1
:10253000D90708F066C0C11528E5D20708F4A7CF6F
:10254000DC2FCC27C06FD06AC2CFCE019056811548
:10255000904208F09CCF8D2F8F710E94AA1390E0BB
:10256000982F882788279F719C012C2BE90147C051
:10257000C55AD0E0C258DE4FC881D0E0D064A7CFA2
:10258000DF70D06AA4CFE4E096958795EA95E1F7ED
:1025900083702C2F26952695237040E2249F90016E
:1025A0001124382B8C2F8370C1E0D0E002C0CC0FF7
:1025B000DD1F8A95E2F7C22BD32BDC6888CFD82F9A
:1025C000CC27C16FD06A83CFC1E0D0E002C0CC0F6E
:1025D000DD1F2A95E2F720E2929FC0011124C82B4B
:1025E000D92BEBCFDC2FCC27C46FD06A70CF0E94E1
:1025F000AA13C82FD0E0DC2FCC27CC27DF71D06204
:1026000066CF8C2F8F700E94AA1334E0D695C795A1
:102610003A95E1F7CF709C2FEC01D06958CF0E941A
:102620006F1D0C94251282389105B1F1B0F48133FD
:10263000910509F475C048F48932910509F469C01F
:102640008A32910509F473C008958533910509F420
:1026500059C08933910501F10895833E9105A9F18F
:1026600038F4803E9105F9F0823E910549F10895D4
:10267000863E9105A9F1873E9105C9F1843E9105F9
:1026800019F52091540421FF1FC08091530484FD4B
:1026900014C087EE90E00895209153042370A1F0B8
:1026A00080EE90E008952091530420FD47C03091C2
:1026B000540430FF09C024FF44C090E080E004C00F
:1026C0002091530422FDF7CF08952091530422FD59
:1026D0003BC03091540430FDE3CF24FFF5CFEDCF64
:1026E0002091530423FFF0CF24FDE7CFD2CF2091D8
:1026F000530423FD2CC03091540431FFEECF84EEFF
:1027000090E008952091530425FFDECF89E290E008
:1027100008952091530425FFD7CF85E390E00895D5
:102720002091530426FFD0CF8AE290E008952091B3
:10273000530426FFC9CF81E390E0089589E390E038
:10274000089583EE90E0089582EE90E0089586EE7D
:1027500090E008959091530492FF06C0282F2871AD
:102760002830F9F4877F846093FF06C0282F2871F2
:102770002831F1F4877E84612091540420FF06C043
:10278000382F38713830D9F4877F816021FF06C037
:10279000282F28712831D1F4877E816194FD877EAE
:1027A0000895282F24712430F9F68B7F8860DCCFC0
:1027B000282F2471243101F78B7E8861DDCF382FDB
:1027C0003171313019F78E7F8860E0CF282F217169
:1027D000213121F78E7E8861E1CF80E008950C944D
:1027E00089100E9406158FE39CE90197F1F700C05C
:1027F00000000E94061580E00E943D1480FF04C086
:102800000E94EF130C94E12B08950C94F1130E9495
:102810008F10811102C00E9433110E949A10809380
:1028200062020E94A21090935404809353040E9469
:1028300005140E949E100E94230A8091BB010C94F3
:10284000360A08950C94211408950C942414E82F4A
:10285000F0E0EE0FFF1FE15AFB4F21E030E002C035
:10286000220F331F6A95E2F7808191812823392353
:1028700081E0232B09F480E00895E82FF0E0EE0FCB
:10288000FF1FE15AFB4F808191810895089580EAEE
:102890008A95F1F7089500C008950C944714F894B0
:1028A000E82FE295EF70F0E031A1282F2F7081E042
:1028B00090E001C0880F2A95EAF7982F909593230E
:1028C00091A392A1892B82A378940895CF93DF934B
:1028D000CBE8D1E089918F3F11F00E944F1481E045
:1028E000C039D807B9F7C1E8D1E089918F3F11F01D
:1028F0000E944F1481E0CB38D807B9F7DF91CF9110
:102900000895AF92BF92DF92EF92FF920F931F93C1
:10291000CF93DF938C01D62EC62FD0E0CE01855702
:102920009E4F7C01FC0120812F3F09F44DC0F8949B
:10293000E22FE295EF70F0E031A12F7081E090E09E
:1029400001C0880F2A95EAF7932F982B91A392A1A3
:102950008095892382A378940E944B14E1E8F1E0EA
:102960004BE851E021E030E0B12CA12C61916F3FA8
:10297000A9F1A62FA295AF70B0E090968C9190E04F
:102980006F7002C0959587956A95E2F780FD26C025
:10299000C901A82AB92A220F331F4E175F0731F742
:1029A000F70180818F3F11F00E944F1461E0A11464
:1029B000B10409F460E08D2D0E944D14CC0FDD1F91
:1029C000C00FD11FB982A882DF91CF911F910F91C3
:1029D000FF90EF90DF90BF90AF90089590E080E07F
:1029E000D8CF0E9466148AE0EFE5F4E0DF01982F6B
:1029F0001D929A95E9F7E5E5F4E0DF011D928A95CD
:102A0000E9F785E00E9451150C943C04FF920F9366
:102A10001F93CF93DF93CDB7DEB72A970FB6F89405
:102A2000DEBF0FBECDBF8E010F5F1F4F8AE0F801E2
:102A300011928A95E9F7F12C6F2DC8010E9481143B
:102A4000F394F5E0FF12F8CF4AE050E0B80185E5D5
:102A500094E00E948933FF24F394009709F4F12C49
:102A6000892B41F08AE0F801A5E5B4E001900D92D0
:102A70008A95E1F72F2D45E06FE574E085E594E058
:102A80000E9452150E943E048F2D2A960FB6F8948C
:102A9000DEBF0FBECDBFDF91CF911F910F91FF9091
:102AA00008950895FF920F931F93CF93DF93F82E0D
:102AB000092F162FD72FC42F222349F081E08093AE
:102AC00065020E94962B909364028093630280912A
:102AD00065028823A1F080916302909164020E94B4
:102AE000AE2B059760F0EF2DF02FA12FBD2F90E0BA
:102AF00080E0D0E08C179D0744F010926502DF91D2
:102B0000CF911F910F91FF900895219131912D93B5
:102B10003D930196EFCF0E94BC2D0E9477110C943B
:102B2000C82D0E94CC2D0E941F120C94E62D0E94ED
:102B3000362B0E94A32D0E945B110E948B150E94D0
:102B400091150E946F11FBCF83E290E00E94B63393
:102B5000823289F484E290E00E94B633853859F4D9
:102B600085E290E00E94B63391E08B3409F090E06A
:102B7000892F8170089580E0FCCFCF93C82F6FEF2D
:102B8000811162E283E290E00E94C4336FEFC111D1
:102B900065E884E290E00E94C4336FEFC1116BE4FA
:102BA00085E290E0CF910C94C433089586E290E0E2
:102BB0000E94B633682F70E090E080E00895089599
:102BC000CF93C62F0E94DF156C2F86E290E0CF9145
:102BD0000C94C43380E00E94BD1560E070E0CB012E
:102BE0000E94E0150E94321C0E94E21D81E00C94BC
:102BF000BD150E94D5150E94D6150E94DF150E94B2
:102C0000A415811102C00C94EA150895CF93FB011D
:102C1000C281CC2309F19C0122513F45203131056D
:102C200020F582510E94F21DC0E08C2FCF910895B3
:102C300081E00E94490A43E062E081E00E9433049F
:102C4000F3CF81E00E94540A43E062E081E00E94F9
:102C50003304EBCF82E0F6CF8031FFE59F0789F3A5
:102C600081319F45B9F3C1E0E0CF8031EFE59E07A8
:102C7000F9F281319F45C9F682E0DBCF2FEFFC01ED
:102C800020830895EF92FF920F931F93CF93DF93CA
:102C9000EC01162F88812091800330918103232B32
:102CA00079F08E3F09F05CC08981833020F0855037
:102CB000833008F055C0612FCE010E948C1950C09E
:102CC0008B3009F4EBC0D0F4843009F489C060F48F
:102CD000823009F44FC008F076C08130F1F1612FE5
:102CE000CE010E943E163CC0863009F48FC008F425
:102CF00082C08A30A0F78FEF888332C0803109F418
:102D0000A5C000F58D3009F488C008F482C08E306B
:102D100009F48BC08F3019F780918203909183035F
:102D2000892BF1F06B8170E06D317105C8F48981F8
:102D30009A81AE014C5F5F4F9827892798270E94A0
:102D4000B71D0EC0823109F487C008F482C08331F8
:102D500009F493C08E3F19F6AECF198289E08A83B9
:102D6000612FCE01DF91CF911F910F91FF90EF90D6
:102D70000C947C2C8981823071F0833079F0813021
:102D800009F0ADCF0E94A22B0E9479336A837B8326
:102D90008C839D83E5CF0E94D615F6CF8091820368
:102DA00090918303892BE1F27E0100E0802F0E9445
:102DB0003D14F701928383830F5FF2E0EF0EF11C65
:102DC0000530A1F7CDCF8981823009F088CF6A81A3
:102DD0007B818C819D810E9479330E94E015C0CF58
:102DE0004B816A8189810E94871B982789279827B0
:102DF0009D838C83B5CF2C813D81322723273227B9
:102E00004B816A8189810E94A91BAACF0E94321C32
:102E1000A7CF0E948B1D8983A3CF0E948D1D982769
:102E2000892798279A8389839BCF6B8170E06D31C6
:102E3000710508F095CF89819A81AE014C5F5F4F93
:102E40009827892798270E94901D8ACF0E94E21D0B
:102E500087CF0E94751BDFCF6B8170E06D317105EC
:102E600008F07ECF89819A81AE014C5F5F4F982731
:102E7000892798270E94B71C73CF6B8170E06D3152
:102E8000710508F06DCF89819A81AE014C5F5F4F6B
:102E90009827892798270E94DD1C62CF80918203A2
:102EA00090918303892B09F45BCFCE010E947C2C87
:102EB0002FEF81EE94E0215080409040E1F700C078
:102EC00000000E94E12B4CCF8F929F92AF92BF9255
:102ED000CF92DF92EF92FF920F931F93CF93DF93E6
:102EE000CDB7DEB72A970FB6F894DEBF0FBECDBFC1
:102EF0000AEB12E0F12CE12C82EEC82E88E1D82EEC
:102F00009CE0A92E99E1B92E29EE822E27E1922E7E
:102F1000F801D182C082B382A28295828482F58A2E
:102F2000E48ABE016F5F7F4F8E2D0E94E21B892BCA
:102F300029F489859A85F801938B828BFFEFEF1A2C
:102F4000FF0A0A5E1F4F88E0E816F10409F72A9687
:102F50000FB6F894DEBF0FBECDBFDF91CF911F91AA
:102F60000F91FF90EF90DF90CF90BF90AF909F9028
:102F70008F900895CF93DF9300D000D00F92CDB7FC
:102F8000DEB79093E2048093E104811520E292077A
:102F900048F40F900F900F900F900F90DF91CF910A
:102FA0000C94A1038EEF89838A831B820E94962B47
:102FB0008160782F9D838C8349815A816B818D81BB
:102FC0000F900F900F900F900F90DF91CF910C9476
:102FD000CD050F931F93CF93DF938C01EB016AE62E
:102FE00073E08C2F0E94E21B892BA1F480910105D4
:102FF00090910205019798F4DD27CC58DC4F888129
:10300000F80110821882833041F180F4813091F010
:103010008230B9F0DF91CF911F910F910895EFE9C0
:10302000FFE03197F1F700C00000E4CF8430D1F029
:10303000853081F780916A0390916B03009751F37B
:1030400006C080916C0390916D03009799F3DF9116
:10305000CF911F910F910C94BA1780916E039091AC
:103060006F03F3CF8091700390917103009779F70C
:1030700020916A0330916B0380916C0390916D03F2
:1030800021153105D9F2009711F7C901E0CFCF938F
:10309000DF9300D000D00F92CDB7DEB79093E2045B
:1030A0008093E104811520E2920748F40F900F907D
:1030B0000F900F900F90DF91CF910C948C038EEFB7
:1030C00089838A8381E08B830E94962B8160782F8D
:1030D0009D838C8349815A816B818D810F900F90E4
:1030E0000F900F900F90DF91CF910C94CD05CF9260
:1030F000DF92EF92FF921F93CF93DF93CDB7DEB7AE
:103100002A970FB6F894DEBF0FBECDBFE9E6F4E014
:1031100088E7DF011D928A95E9F7E6E6F2E084E5AB
:10312000DF011D928A95E9F789E6C82E84E0D82E42
:103130007F0110E0F701D182C082BE016F5F7F4F37
:10314000812F0E940A1C892B79F488E0FE013196B8
:10315000D60101900D928A95E1F789859A85D7016C
:1031600013969C938E931297BAE0CB0ED11CE7E096
:10317000EE0EF11C1F5F1C30E9F62A960FB6F8948C
:10318000DEBF0FBECDBFDF91CF911F91FF90EF90BB
:10319000DF90CF900895CF93DF93EC010E94471802
:1031A0008091010590910205019728F4CE01DF91ED
:1031B000CF910C94BA17EFE9FFE03197F1F700C017
:1031C0000000F2CF0F931F93CF93DF938C01862FD4
:1031D0006AE673E00E94E21B892BC9F4C0916A037E
:1031E000D0916B03209799F0F8018081833069F4C6
:1031F000CE010E94CB18CE010E94CB18CE01DF91E8
:10320000CF911F910F910C94CB188430B8F7DF91B8
:10321000CF911F910F9108950F931F93CF93DF9339
:103220008C01EB016AE673E08C2F0E94E21B892B74
:1032300009F064C0FE01FF27D8018C91EC58FC4FC7
:103240008130D9F419969C911997992311F08083B4
:103250000CC01A969C919923D1F382E080838091CF
:103260006C0390916D030097D9F480916A0390915B
:103270006B03009709F442C013C08230E9F5199638
:103280008C91199781112DC01A968C9181110EC0C5
:1032900083E0808380916E0390916F03009719F112
:1032A000DF91CF911F910F910C94471884E0808398
:1032B0008091700390917103009791F780916A0358
:1032C00090916B030097F9F00E94CB1880916C03EA
:1032D00090916D03009721F780916A0390916B03A1
:1032E000DFCF85E0808380916A0390916B03009724
:1032F00029F00E94CB18F0CF86E08083DF91CF9138
:103300001F910F91089580916C0390916D03B1CF3F
:103310000E9464170C947718CF92DF92FF920F935C
:103320001F93CF93DF93CDB7DEB72A970FB6F894EC
:10333000DEBF0FBECDBF8C01603269F5DC01119696
:10334000EC911197EE3038F5F0E0E25FFB4C0C9415
:10335000733388E0E7E1F1E0DE01119601900D9210
:103360008A95E1F780E2F80111928A95E9F784E005
:10337000D8018C9311961C92119712961C92129759
:1033800013961C92139788E0FE01319614960190D3
:103390000D928A95E1F72A960FB6F894DEBF0FBE1C
:1033A000CDBFDF91CF911F910F91FF90DF90CF9014
:1033B000089580E6F801808381E081831282138280
:1033C000EACF13968C911397682F70E0762F6627BB
:1033D00012968C91860F972F911D092E000CAA0B27
:1033E000BB0B45E0880F991FAA1FBB1F4A95D1F759
:1033F000AC01BD01405E5F4F6F4F7F4F48175907CB
:103400006A077B0740F28036E1E09E07A105B1051F
:1034100010F64136F1E05F076105710520F040E6E6
:1034200051E060E070E0481B590BBC0164517D4FD6
:10343000C8010E948033AFCF40E250E06FEF70E0F0
:103440000E949F3380918203D8018C9380918003E6
:1034500011968C93119712961C92129713961C92A8
:10346000139714961C92149789E015968C9393CF1A
:1034700081E090E0909381038093800382E390E069
:1034800090937F0380937E030E94962B90937D03FD
:1034900080937C0380CF8091800390918103892B5E
:1034A00091F160E080E00E942714D82E69E080E06E
:1034B0000E942714F82E80917C0390917D030E9436
:1034C000AE2B8536910550F1DD2041F1FF2031F121
:1034D0000E94962B90937D0380937C0380917E03C2
:1034E00090917F03019790937F0380937E03892BB4
:1034F00051F4109281031092800381E090E0909348
:1035000083038093820380918203F80180838091FA
:103510008003818380917E0382833DCF82E390E0AC
:1035200090937F0380937E03EECF109283031092DB
:10353000820331CF40E250E0BC0112968D919C9104
:103540000E94F21E28CFBC016F5F7F4F4FE150E019
:10355000FC01828193810E94241FD8018C931BCF90
:10356000BC016C5F7F4F4CE150E0FC018281938194
:103570000E944C1FF2CF0E94CF1E0DCFFC01828112
:10358000823009F43FC0E0F4882399F1813009F0DA
:1035900002CF13968C912AE0F22EFE0131966F0134
:1035A000DF01EF2D1D92EA95E9F7B6010E94E21BBB
:1035B000D8018D93F60101900D92FA94E1F7EBCECC
:1035C0008330A1F1843009F0E6CE13968C919AE015
:1035D0003496DE01119601900D929A95E1F7BE01A5
:1035E0006F5F7F4F0E941E1CF80180830E94771836
:1035F000D2CE80E21D928A95E9F788E080838CE044
:103600008183C9CE13968C919AE03496DE0111968F
:1036100001900D929A95E1F7BE016F5F7F4F0E9476
:10362000F61BF80180830E946417B5CE13968C9127
:103630009AE0F92EFE0131966F01DF01EF2D1D9208
:10364000EA95E9F7B6010E940A1CB2CFCF93DF9347
:10365000FB012281211130C0EC01D755CF3FD105AC
:1036600009F050F56AE673E08C2F0E94E21B892B6B
:1036700019F586E18C9FF0018D9FF00D1124E65421
:10368000FD4F86818130E1F480916A0390916B0354
:10369000892B91F080916C0390916D03892B61F0DF
:1036A00080916E0390916F032091700330917103AC
:1036B000822B932B892B61F081E0DF91CF910895CC
:1036C0008230D1F780916E0390916F03892BA1F323
:1036D00026E12C9FC0012D9F900D112486549D4FF3
:1036E000FC01108A0E946F28E7CF84E0089550E023
:1036F000440F551F94E1699F400D511D112494E61C
:10370000899F400D511D1124CA01879608950F937A
:103710001F93CF93DF938430C8F46530B8F44A30F8
:10372000A8F40E94771B8C010E94B633C82FD0E00A
:10373000DC2FCC27C80101960E94B6339E01282BAE
:10374000C901DF91CF911F910F91089590E080E022
:10375000F8CF0F931F93CF93DF93E9018430E0F408
:103760006530D0F44A30C0F421153C4531F4209145
:10377000820330918303232B79F00E94771B8C0105
:103780006D2F0E94C4336C2FC8010196DF91CF9139
:103790001F910F910C94C433DF91CF911F910F9122
:1037A00008958232910520F489549E4F0C94B633CB
:1037B00080E008958232910520F489549E4F0C9444
:1037C000C43308959B01883070F49AE0899FB0015A
:1037D000112467527E4F4AE050E0C9010E94A6338F
:1037E00090E080E008958FEF9FEF08959B0188306F
:1037F00070F49AE0899FB001112467527E4F4AE02D
:1038000050E0C9010E94E83390E080E008958FEF16
:103810009FEF08959B018C3070F49AE0899FB0016E
:103820001124675D7D4F4AE050E0C9010E94A63334
:1038300090E080E008958FEF9FEF08959B018C301A
:1038400070F49AE0899FB0011124675D7D4F4AE0D2
:1038500050E0C9010E94E83390E080E008958FEFC6
:103860009FEF08957F928F929F92AF92BF92CF92D7
:10387000DF92EF92FF920F931F93CF93DF93CDB719
:10388000DEB764970FB6F894DEBF0FBECDBFA09031
:103890008203B090830381E090E090938303809350
:1038A00082038CEAC82E80E0D82E00E0760110E07A
:1038B00015C0F40125913491472D612F802F0E946E
:1038C000A91B82E0880E911C73949AE07912F1CFC3
:1038D000E4E1EE0EF11C1F5F153019F04701712C69
:1038E000E8CF0F5FF4E6CF0ED11C0430F9F60E944A
:1038F000CF1E1C861B861E861D86188A1F861A8A66
:10390000198A88EC90E09C8B8B8B10E0BE01655F80
:103910007F4F812F0E94F61B1F5F1830B9F7CE0131
:1039200001967C018AE0F70111928A95E9F710E08F
:10393000B701812F0E941E1C1F5F1C30C9F7B09277
:103940008303A092820364960FB6F894DEBF0FBE85
:10395000CDBFDF91CF911F910F91FF90EF90DF903E
:10396000CF90BF90AF909F908F907F900895EF92EF
:10397000FF920F931F93CF93DF93EC018A017C0199
:10398000E60EF71ECE018796CE15DF0539F4DF91DE
:10399000CF911F910F91FF90EF900895C03921E0D2
:1039A000D20740F40E94B633F80180830F5F1F4FA7
:1039B0002196E8CFF8011082F9CF4F925F926F9273
:1039C0007F928F929F92AF92BF92CF92DF92EF92AF
:1039D000FF920F931F93CF93DF93EC017B018A013A
:1039E00080399140D8F480E991E08C1B9D0B8617BB
:1039F0009707A0F03E0137E2630E711C80918203AD
:103A0000909183032E01460E571E892BC1F07E0133
:103A1000C7018796E414F50409F050C0DF91CF91F7
:103A20001F910F91FF90EF90DF90CF90BF90AF90DC
:103A30009F908F907F906F905F904F9008956E0150
:103A400081E0C822DD24C0FF0FC0CE0186960E940F
:103A5000B633F801908189279827892781159C45DD
:103A600019F48FEFF8018083570140FE13C0F1E095
:103A7000AF1AB10848018A0C9B1CC3018E0D9F1D13
:103A80000E94B633F401908181159C4519F48FEFA3
:103A9000F4018083F801EC0DFD1D2FEFCA14DB0447
:103AA00008F0B5CF9081818181159C4511F4208368
:103AB000218382E0C80ED11C3296F0CFE0E9EE16E9
:103AC000E1E0FE0640F4F701EC1BFD0BE00FF11FF7
:103AD00060810E94C433FFEFEF1AFF0A99CF462F8F
:103AE0002091800330918103232B91F47E3F39F4A0
:103AF0006E3F71F48091E1049091E2040895843066
:103B000038F4753028F46A3018F4672F0C94871B4A
:103B100090E080E0089580E108958FE591E00895B8
:103B2000EF92FF920F931F93CF93DF93EC018A01E3
:103B30007C01E60EF71ECE018F559D4FCE15DF0599
:103B400039F4DF91CF911F910F91FF90EF9008957D
:103B5000CF3521E0D20740F40E94B633F8018083CC
:103B60000F5F1F4F2196E7CFF8011082F9CFCF9258
:103B7000DF92EF92FF920F931F93CF93DF937C011D
:103B80006A018C01060F171FEC01CE018F559D4F66
:103B9000C017D10749F4DF91CF911F910F91FF908A
:103BA000EF90DF90CF900895CF3521E0D20740F419
:103BB000FE01EE19FF09EC0DFD1D60810E94C4336A
:103BC0002196E3CFCF93DF93C1EAD2E060E0CE014C
:103BD0000E94C4332196C11584E0D807B9F7DF915C
:103BE000CF910895BF92CF92DF92EF92FF920F9301
:103BF0001F93CF93DF9300D000D0CDB7DEB7F82E60
:103C00002FE0281740F08FEF93E00E94B63301EACF
:103C100012E08823D1F00F900F900F900F90DF915A
:103C2000CF911F910F91FF90EF90DF90CF90BF90B9
:103C30000895011544E0140771F3C8010E94B633DA
:103C4000811101C0FA940F5F1F4FF110F2CF19825A
:103C50001A821B821C82BB24BA9478015FEFE51A9A
:103C6000F50AC8010E94B63389831A82882399F223
:103C7000813009F047C0680182E0C80ED11CC7013D
:103C80000E94B633E82E8A83882329F2C6010E9457
:103C9000B633F82E8FEF8E0D833068F46801E3E0C1
:103CA000CE0ED11CFB82FF2021F0CE0101960E9496
:103CB0009E058601D2CFF4E0EF12FBCF680124E02D
:103CC000C20ED11CC80103960E94B633FF2009F42E
:103CD000A2CF882309F49FCF8150990BB89E900101
:103CE000B99E300D11244F2D4150550BCA01820F42
:103CF000931F0197F0F2EFE9FFE03197F1F700C071
:103D00000000F7CFCE0101960E949E056701D1CF3A
:103D10008091E3049091E4040C946D220F931F931F
:103D2000CF93DF9303EE14E0D0E0C0E0CE010E9419
:103D3000D11BF80161918F01861719F0CE010E9405
:103D4000DA1B2196C232D10589F7DF91CF911F91FD
:103D50000F9108950F931F93CF93DF9303EE14E019
:103D6000D0E0C0E0CE010E94D11BF80181938F0109
:103D70002196C232D105B1F7C2E5D4E0FE018591AA
:103D80009491009711F0FC0109952896F4E0C23A4D
:103D9000DF07A1F7DF91CF911F910F910895E3EE17
:103DA000F4E0128E138E8FEA90E09183808385E099
:103DB000848F88E893E19383828382E390E0978BFA
:103DC000868B88EC90E0918F808F158E8AE090E052
:103DD000978F868F80E590E091A380A30E948E1E2E
:103DE0000C94AA1EEF92FF920F931F93CF93DF9331
:103DF0007C01EB018A016FEF70E0CE010E949F33DE
:103E00002CE434E0ACE9B4E090E080E0AC014E5F3B
:103E10005F4F0417150788F0F90165917491E61654
:103E2000F70630F48C0F9D1FFC0171836083CA017B
:103E3000285F3F4FA217B30749F7DF91CF911F913A
:103E40000F91FF90EF900895DC01CB012CE434E05A
:103E5000F90165917491A617B70749F0285F3F4FA4
:103E600064E02C393607A1F78FEF9FEF0895B90171
:103E70006E5F7F4FFB01A591B4914A175B07A0F3DA
:103E8000FB0145915491F9013496659174910E941A
:103E9000963390E080E00895CF93DF93CCE4D4E0B4
:103EA000FE01259134918217930741F0289624E072
:103EB000CC39D207A9F78FEF9FEF1DC0CE01029634
:103EC000FC012591349142175307A8F3FC01459159
:103ED0005491FE013496859194910E9496330E94EC
:103EE0008E1EFE01369685919491009711F0FC018B
:103EF000099590E080E0DF91CF9108958091FB04D7
:103F00009091FC040895809100058170089580913E
:103F100000058695817008958091000582FB8827B1
:103F200080F908958091000583FB882780F9089522
:103F30008091F9049091FA0408958832910538F43B
:103F40008E319105E8F40497A0F480E00895893358
:103F5000910558F48D32910510F48B97B1F780914B
:103F6000FE0482FB882780F908C084369105B9F3E6
:103F7000ECCF8091FE048295817091E089270895AD
:103F80008091FE0483FB882780F9F7CF8091FE049F
:103F900085FB882780F908958091FE0486FB882799
:103FA00080F90895CF93DF93EC01FB018281882390
:103FB00009F433C1C330FDE5DF07C0F5CA3F9CE516
:103FC000D90730F49E0122503C4524313105B0F52B
:103FD0000E94A2109093540480935304C1318CE545
:103FE000D80709F4EEC008F069C0C930ECE5DE0777
:103FF00009F4D5C0C8F5C5308CE5D80709F4C7C0A9
:1040000000F5C330ECE5DE0709F4B9C008F0BBC029
:10401000C230DC4509F4ADC0809153049091540442
:104020000E94B0100E94FB0680E008C0C136EDE59A
:10403000DE0771F2C53AFDE5DF0751F2DF91CF915E
:104040000895809153048062C7309CE5D90709F434
:1040500093C0809153048061C830DC4508F48CC063
:1040600080915304806488C0809153048B7FCD304D
:10407000FCE5DF0709F480C098F4809153048E7F3B
:10408000CB309CE5D90709F477C0809153048C604C
:10409000CC30DC4508F470C0809153048D7F6CC037
:1040A000809153048F7ECF30FCE5DF0709F464C0B4
:1040B00008F47BC0809153048F7D5EC0CD3F9CE5AA
:1040C000D90709F47AC050F5C531FCE5DF0709F4DA
:1040D00086C098F480915304837FC3319CE5D9074F
:1040E00009F44AC008F471C00E94FB069091530481
:1040F000892F97FB87F980583FC0CB3FFCE5DF074E
:1041000009F449C008F055C0809154048160CA3F49
:10411000DC4509F081CF809354047ECFC130EDE5BA
:10412000DE0709F468C0A8F4CF3F8CE5D80709F48E
:1041300052C0809154048360C115DD4560F38091C5
:104140005404982F909591708E7F892B90FB81F964
:10415000E2CFC136EDE5DE0709F451C0C53AFDE511
:10416000DF0709F453C0C230DD4509F055CF80E0C8
:1041700043C0809153048160809353044DCF80915C
:1041800053048260F9CF809153048460F5CF80910D
:1041900053048860F1CF809154048260BCCF0E94A8
:1041A000FB06809153048068E7CF80915304877F9A
:1041B000E3CF809154048E7FAECF809154048D7FE5
:1041C000AACF809153048F7BD7CF0E94FB068091AA
:1041D00053048F77D1CF809154048C7F9CCF8091F2
:1041E000530482FB992790F921E0922790FB82F9F2
:1041F00090FB83F9C1CF81E00E9435110DCF9091E2
:104200005304892F8F7E94FF8061B6CF9091530421
:10421000892F8E7F90FF8160AFCF81E00FCF80919B
:104220000201877F8093020182E00E94850F8091C6
:10423000020184FF06C08F7E8093020182E00E940B
:104240006C0F8091020185FF06C08F7D8093020173
:1042500080E20E946C0F0C94D10FCF93DF93EC019E
:10426000662319F082E00E947F0FCE0190568115DF
:1042700020E2920720F0905E8115904108F4DD273E
:10428000CE01DF91CF910C948C039C013056211507
:1042900040E2340720F0305E2115304108F49927C0
:1042A0000C94A103FC0123E0F695E7952A95E1F72C
:1042B000EE71FF27EC57FC4F20813181AC014F702C
:1042C000552781E090E002C0880F991F4A95E2F7D8
:1042D000662329F0822B932B918380830895809508
:1042E000909582239323F8CFFC0123E0F695E79580
:1042F0002A95E1F7EE71FF27EC57FC4F8F70992755
:1043000021E030E002C0220F331F8A95E2F780815E
:1043100091812823392381E0232B09F480E008953B
:10432000DF92EF92FF920F931F93CF93DF93EC01F5
:104330007B01D42E89018091020182FF86C02091E9
:10434000AC033091AD032C173D0719F0209709F00D
:104350007CC0909102019B7F9093020161E091FDEE
:1043600010C08091AE039091AF03A701481B590B79
:1043700061E080910301909104014817590708F406
:1043800060E061708091020160FB81F9809302011D
:10439000C9010E9452210E94690F81FF08C08091CB
:1043A000020180618093020182E00E94720F0E94EC
:1043B000690F85FF08C0809102018062809302012D
:1043C00080E20E94720F6091020166956170A801FF
:1043D0008091AC039091AD030E942D21D11014C0A7
:1043E0008091010590910205019740F560910201CD
:1043F00066956170A8018091AC039091AD030E9415
:1044000045210E940F2130C0B8018091AC039091EA
:10441000AD030E94C61F882319F3B8018091AC0335
:104420009091AD030E94CC1F8111DACFDF91CF9123
:104430001F910F91FF90EF90DF900895EFE9FFE05B
:104440003197F1F700C00000CFCFCE010E94742158
:10445000A801682FCE010E9445218091AC03909164
:10446000AD038C179D0769F2F092AF03E092AE03A3
:10447000DDCF8091FE0480FF1EC08091020182FF8B
:104480001AC00E94962B2091AE033091AF03AC016D
:10449000421B530B20910301309104014217530733
:1044A00050F024EA33E041E0BC018091AC039091EC
:1044B000AD030C949021089590910201892F8E7F75
:1044C00090FF8160809302010C940F218091020182
:1044D0008E7F809302010C940F21909304018093AE
:1044E00003010895CF92DF92EF92FF920F931F93F3
:1044F000CF93DF93EC017B018091FE0480FD0BC024
:1045000011E0812FDF91CF911F910F91FF90EF90DC
:10451000DF90CF9008950E94962B6C01F701828165
:10452000882391F18091020182FF08C024EA33E0E0
:1045300040E0B60190E080E00E949021CB31FCE5A4
:10454000DF07C9F0CC312CE5D207D9F0CA318CE5B0
:10455000D80711F40E945C22CE0190568115E0E24A
:104560009E0720F0905E81159041E0F41092AD031B
:104570001092AC03C5CF809102018160809302014B
:10458000EBCF0E946622E8CF809102018F7EC13E70
:10459000D10531F0C53ED105B9F5809102018F7D7D
:1045A000809302018091020180FFAACFB701CE0162
:1045B0000E949D1FF7011281882309F4C8C01123AE
:1045C00009F4BEC00E94690F182F0E948F0F812B23
:1045D0008D7FB9F11092AD031092AC038091FE046F
:1045E00081FD2FC060E0CE010E945221A70160E052
:1045F000CE010E942D210E948F0F8D7F0E94AB0F54
:1046000082E00E94491072C0CE019056811520E2CE
:10461000920720F0905E8115904120F68091020172
:1046200082FF6ECFB701CE010E94871F811168CF34
:1046300024EA33E040E0B60190E080E00E9490215F
:104640005FCF88E0F701A4EAB3E001900D928A956C
:10465000E1F71092A6031092A8031092A70380918D
:10466000AC039091AD03C817D90709F04AC0B70150
:10467000CE010E94C61F882309F443C08091020125
:1046800081FD36C08091AE039091AF038601081B77
:10469000190BB7018091AC039091AD030E947E1F6E
:1046A0000817190770F50E94690F81FF08C08091F3
:1046B000020180618093020182E00E94720F0E94D9
:1046C000690F85FF08C0809102018062809302011A
:1046D00080E20E94720F6091020166956170A701ED
:1046E0008091AC039091AD030E942D2110E009CF81
:1046F000B7018091AC039091AD030E94CC1F811152
:10470000C1CF0E94690F182F0E948F0F812B9091AB
:10471000020181FB91F9909302010E948F0F8D7F1E
:104720000E94AB0FD093AD03C093AC03D092AF0304
:10473000C092AE038091020184608093020160CF39
:10474000970140E0B601CE010E949021DACE11110E
:104750000DCFD6CE08950F931F93CF93DF93809103
:104760001B04E091B0031CE081111AC0DF91CF91CE
:104770001F910F91089501E00E0F0093B003CE2F0B
:10478000D0E0E19FF0011124E554FC4F8381948136
:10479000892B29F08081918189238F3FF9F4E02FC3
:1047A00080911B04E81738F310921B041092B00399
:1047B000DDCF18968D919C918F3F9807E1F061E0D5
:1047C0000E94AA231C9FF0011D9FF00D1124E554A7
:1047D000FC4F148213820E948C0FE1CF1C9FD001EA
:1047E0001D9FB00D1124A554BC4F16968D919C9120
:1047F0001797892BF1F220813181428153816481A5
:104800007581868197810E946D0EDCCF10921D0408
:1048100010921C042091060130910701E6E6F2E0B7
:1048200090E080E02817390709F408954581411187
:1048300002C01482168201963796F4CFDC01609193
:10484000B9038091BA03962F891301C00895292FC7
:1048500030E0F901EE0FFF1FEF54FC4F4081518112
:104860004A175B07A1F487E08A9FA0018B9F500D38
:1048700011244A595D4F81E0FA0184839613E6CFF3
:104880002F5F3F4F237033272093B90308952F5F85
:104890003F4F922F9370D8CF6F927F929F92AF929B
:1048A000BF92CF92DF92EF92FF920F931F93CF931D
:1048B000DF93DB0114962C911497211169C0A0900D
:1048C0001B04EBEBF3E030E020E0B12C66246394B2
:1048D000712C2A1508F047C0C284D384ED90FC9057
:1048E00011976FEF7FEF912C492D50E08A01000F57
:1048F000111F0E0D1F1DE8010881198101151105F9
:1049000031F0C016D10609F4BA019394EDCF6F3F90
:104910007607D1F1E30102C0CC0FDD1F6A95E2F703
:10492000BC2AB30102C0660F771F9A94E2F7AB016D
:1049300041505109B416150629F512964D915C9116
:1049400013976CE0629FF001639FF00D1124E55412
:10495000FC4F578346832EEF2083218391878087E6
:1049600021E015962C93DF91CF911F910F91FF902D
:10497000EF90DF90CF90BF90AF909F907F906F901F
:104980000C941E24148213822F5F3F4F3C96A1CFBC
:10499000DF91CF911F910F91FF90EF90DF90CF901B
:1049A000BF90AF909F907F906F9008951F93CF938B
:1049B000DF93C091B90317E08091BA038C1307C04D
:1049C0000E94AB23DF91CF911F910C940624D0E07D
:1049D000FE01EE0FFF1FEF54FC4F80819181189F65
:1049E000B001199F700D11246A597D4F0E944C240B
:1049F0002196C370E1CF0F931F93CF93DF93DC0118
:104A00002D913C91119740E090E080E0E82FF0E09C
:104A1000EE0FFF1FE20FF31FC081D1812097B9F085
:104A2000FB010081118190E005C0CE17DF0709F47A
:104A300041E09F5FE92FF0E0EE0FFF1FE00FF11F55
:104A40000190F081E02D309781F78F5FDFCF442315
:104A500049F0981708F4DB01CD01DF91CF911F9148
:104A60000F910895B0E0A0E0F7CF80910501882371
:104A700041F180911E0490911F04009711F10E9452
:104A8000AE2B20911C0430911D0428173907C8F45F
:104A90009091B9038091BA03981759F00E94D624D7
:104AA00010921D0410921C0410921F0410921E04F8
:104AB00008950E94AB2310921F0410921E040C94C0
:104AC0000624089510921F0410921E0410920501EE
:104AD0008091BA038093B9030E9406240C94AB23FF
:104AE0008091050181110C94622581E0809305017C
:104AF00008952F923F924F925F926F927F928F9282
:104B00009F92AF92BF92CF92DF92EF92FF920F935C
:104B10001F93CF93DF93CDB7DEB72A970FB6F894E4
:104B2000DEBF0FBECDBF6C012B01FB011281873FA1
:104B3000FCE59F07F9F4112321F181E08093050141
:104B4000812F2A960FB6F894DEBF0FBECDBFDF913E
:104B5000CF911F910F91FF90EF90DF90CF90BF907A
:104B6000AF909F908F907F906F905F904F903F900D
:104B70002F900895883F2CE5920709F04DC0111140
:104B800048C006E612E0F12CE12C1986AA24A39471
:104B9000B12C8091060190910701E816F90608F4FE
:104BA00045C0F2018281882309F466C1F985FF239B
:104BB00009F462C10E94962B90931F0480931E04F7
:104BC00080911B04883008F591E0980F90931B04A6
:104BD00098E0F201DE01119601900D929A95E1F7AD
:104BE0002CE0829FC001112485549C4F28E0FE01D7
:104BF0003196DC0101900D922A95E1F72FEF3FEFFE
:104C0000FC0131872087D386C28611E0F9851F27F2
:104C100097CF0E94622594CF893F9C4509F0B1CF80
:104C2000112309F4AECF0E9470258ACFF8012081AC
:104C3000318166246A94762C212C822D90E0FC012F
:104C4000EE0FFF1FE20FF31F408151814115510507
:104C500031F0C416D50609F43C012394EECF312C73
:104C6000FFEF6F167F0609F448C0F80144813090C9
:104C70000501832D411180E0F82FF1703F2EF201E4
:104C80008281882309F496C0332009F493C0B801C7
:104C9000C7010E94981F4C01F8018581811113C042
:104CA000950101C0220F6A94EAF78681822B8683E0
:104CB00080911C0490911D048815990520F4909210
:104CC0001D0480921C04C50102C0880F991F2A94FC
:104CD000E2F70197F80126812817190671F48091EF
:104CE0001E0490911F04009789F00E94AE2B881635
:104CF000990660F421E0F8012483F985F329F98706
:104D00002FEFE21AF20A095F1F4F43CF2090B90339
:104D10003091BA033A8790E080E0EA852E1215C000
:104D20008017910751F3822C912CF401EE0FFF1F95
:104D3000EF54FC4FF182E082FFEF8F1A9F0A23E0CD
:104D4000822299248092BA03D8CF822C912CF4012C
:104D5000EE0FFF1FEF54FC4F2081318147E0429F4F
:104D6000C001439F900D1124FC01EA59FD4F3F0102
:104D7000B801CF010E94FB240097A9F021E0FC01BB
:104D800024838017910709F4B8CF2091B903221228
:104D90000AC06816790639F494012F5F3F4F2370DB
:104DA00033272093B9033FEF831A930A482D4370AA
:104DB000242EB3CFF8019580868190E091101EC01B
:104DC000950102C0220F331F2A94E2F721503109C6
:104DD0002817390731F4442309F44CC0C7010E9455
:104DE0001E24C50101C0880F6A94EAF7982F909598
:104DF000F801868189238683392C7FCF9C01062C7C
:104E000002C0359527950A94E2F7A901417055270C
:104E1000BC016150710986239723892B39F5452BF5
:104E200029F182819381892BE1F01B821C821D82F2
:104E30001E82FEEFF983FA830E94962B8160582F21
:104E40009D838C83F801828193818F839887298148
:104E50003A814B816D817E810E946D0EF801158231
:104E6000C0CF60E0C7010E94AA23F8CFF22FF170F3
:104E70009F2EB7CF932CB5CF9091B9038091BA03F1
:104E8000981719F00E94D624C0CE0E94AB2310922E
:104E90001F0410921E040E940624B7CECF93DF9306
:104EA000EB0186319C4509F03BC00E94690F982FA9
:104EB0009A7A2091FD0420FF04C0382F347409F041
:104EC00090E021FF04C0382F317109F090E022FFFB
:104ED00004C0382F387809F090E023FF03C08272B5
:104EE00009F090E08A81882389F081E0911101C066
:104EF00080E08093200489E2911185E30E940D0FE8
:104F00000E94D10F80E0DF91CF910895809120041D
:104F1000811104C089E20E94140FF2CF85E3FBCF18
:104F200081E0F1CFAF92BF92CF92DF92EF92FF92EA
:104F30000F931F93CF93DF937C015B01C42FD22F7C
:104F4000FC0182818823F9F0409323040E94962B70
:104F5000909322048093210480E28C0F883008F023
:104F600061C0C77081E001C0880FCA95EAF7DF9180
:104F7000CF911F910F91FF90EF90DF90CF90BF9056
:104F8000AF900C94CF0610912304141340C080916D
:104F90002104909122040E94AE2B6C01B701C5013F
:104FA0000E947E1FC816D90690F5C0E2CD0F1D17CE
:104FB000B9F080E2810F883040F4177081E001C0C1
:104FC000880F1A95EAF70E94D606C83048F481E0A7
:104FD0009D2F977001C0880F9A95EAF70E94CF061F
:104FE000802F0E94C306C830E8F4D77081E001C06A
:104FF000880FDA95EAF7DF91CF911F910F91FF901B
:10500000EF90DF90CF90BF90AF900C94D60680E2E7
:105010008C0F883038F4C77081E001C0880FCA95C2
:10502000EAF7E9CFDF91CF911F910F91FF90EF90B9
:10503000DF90CF90BF90AF9008950F939C01CB016C
:10504000233F4CE5340759F1A8F4283DFCE53F0720
:1050500001F1293D4CE53407D1F1273D3C4591F460
:1050600006E221EE41EE67ED7CE50E94922780E0AA
:105070000F910895253FFCE53F07E9F0B0F0263F8A
:105080003C45F9F0FC018281882339F11092230418
:10509000EFCF07E225EE45EE68ED7CE5E6CF06E2D0
:1050A00021EE40EE63EF7CE5E0CF07E225EE44EE33
:1050B00064EF7CE5DACF06E221EE42EE65EF7CE5B7
:1050C000D4CF07E225EE46EE66EF7CE5CECF08E2D0
:1050D00021E045EE69ED7CE5C8CF81E0C9CFCF93F3
:1050E000DF93EC018989811115C081E0898B8F8163
:1050F0000E946C0F88850E947F0F0E94D10FEA8169
:10510000FB81309739F06C897D89CE010696DF915D
:10511000CF910994DF91CF910895EF92FF920F9371
:105120001F93CF93DF93EC018A85811134C0EB800C
:10513000FC8087E5F81A26E12E9DC0012F9D900D79
:105140001124DC01A654BD4F1496ED91FC911597E6
:10515000309731F054966D917C9180549D4F099514
:1051600086E18E9D80018F9D100D112406541D4FE8
:10517000F80187810E94720FF80180850E94850FD7
:105180000E94D10F188219861B861E821D821092E2
:10519000250410922404DF91CF911F910F91FF906D
:1051A000EF900895DF92EF92FF920F931F93CF93AA
:1051B000DF937C01FB018281882399F080910801B3
:1051C00090910901019669F0CAEBD2E010E000E08D
:1051D000DD24D394809108019091090180179107F3
:1051E00044F4DF91CF911F910F91FF90EF90DF90EA
:1051F00008958E818823C1F089859A858E159F0533
:1052000039F480912404909125048E159F0561F056
:10521000DF86FC86EB86CE010E946F28CE010696C3
:105220000E948D280E948C0F0F5F1F4F6696D2CF71
:10523000EF92FF920F931F93CF93DF937C019755CB
:105240008F3F910509F0E0F52091080130910901A7
:105250002817390724F49093090180930801FB0172
:10526000228136E1389F8001399F100D1124E80119
:10527000C654DD4F288B92818E81992349F1FA869D
:10528000E9868F5F8E830E94962B9E878D870E9472
:105290008F0F8F830E94690F88870E947C0F9885EB
:1052A000892B8887E881F981309731F06C897D8975
:1052B000C80180549D4F0995F0922504E092240482
:1052C00081E0DF91CF911F910F91FF90EF900895B2
:1052D0008823B1F38989882399F3C80180549D4FAD
:1052E0000E948D28EDCF9F92AF92BF92CF92DF9216
:1052F000EF92FF920F931F93CF93DF93CDB7DEB75B
:1053000028970FB6F894DEBF0FBECDBF809108017D
:1053100090910901019609F052C028960FB6F894B1
:10532000DEBF0FBECDBFDF91CF911F910F91FF90D8
:10533000EF90DF90CF90BF90AF909F9008950A9D1F
:10534000F0010B9DF00D1124E654FD4FC288D38867
:10535000C114D10459F4D701292D1D922A95E9F7DA
:10536000B701818592850E947E1F6C010A9DF00124
:105370000B9DF00D1124E654FD4F86818823A1F08A
:10538000858596850E94AE2BC816D90668F4109FB5
:1053900060011124C60186549D4F0E946F28C601EA
:1053A00080549D4F0E948D281F5FA12EB12C8091AB
:1053B0000801909109018A159B050CF6AECF10E00B
:1053C00006E188E0982ECE0101967C01EECF909305
:1053D000A1018093A001089590932B0480932A0447
:1053E0000895E0912A04F0912B04309721F0019068
:1053F000F081E02D099480E00895E0912A04F09175
:105400002B04309799F020911601222359F0209116
:10541000530427FF07C0DC012C9111962C931197A0
:1054200026E02C930280F381E02D099408952091C9
:105430002804309129042817390771F09093290422
:1054400080932804E0912A04F0912B04309721F0F6
:105450000680F781E02D099408952091260430916B
:1054600027042817390771F09093270480932604A6
:10547000E0912A04F0912B04309721F00084F1850B
:10548000E02D09940895FC0132968091160188233D
:1054900021F0809153049EE187FF96E080E09150D7
:1054A00008F4089521912223D1F38F5FF8CF66236A
:1054B00001F1209116012223F1F02091530427FFDE
:1054C0001AC0462F4695469546954E3190F4677022
:1054D00021E030E002C0220F331F6A95E2F7840F0B
:1054E000911DFC01828190E02823392381E0232B48
:1054F00069F480E00895FC01329608962191261700
:1055000021F0E817F907D1F7F4CF81E008959C0165
:10551000FC0132969FEF80E04191461751F09F3F8A
:1055200019F4411101C0982F8F5F8630A9F79F3F72
:1055300009F40895290F311D97FD3A95F901628309
:105540000895FC01329608962191261303C0DF01CD
:1055500011971C92E817F907B9F70895E62FE69519
:10556000E695E695EE3168F4E80FF92FF11D6770C6
:1055700021E030E001C0220F6A95EAF78281822B98
:1055800082830895E62FE695E695E695EE3170F470
:10559000E80FF92FF11D677021E030E001C0220F04
:1055A0006A95EAF720958281282322830895209125
:1055B0001601222329F02091530427FD0C94AE2AD2
:1055C0000C94872A20911601222329F0209153045C
:1055D00027FD0C94C22A0C94A12AFC0132968091DA
:1055E0001601882351F08091530487FF06C08EE195
:1055F000DF011D928A95E9F7089586E0F9CF0895B5
:105600000C94FF2A811105C081E080932C040C9436
:10561000002B82E0FACF83E080932C040C94002BC3
:105620000C94022B81E080932C040C94002B0C949E
:10563000122B089508950C941A2B089508950C9434
:10564000192BCF930E941D2B0E9406150E941E2B22
:10565000C0E08C2F0E943D14892B31F4CF5FC53000
:10566000C1F780E0CF91089581E0FCCF08951F92AB
:105670001FB61F9211248F939F93AF93BF93809176
:105680002D04811113C08091050590910605A0910C
:105690000705B09108054196A11DB11D8093050530
:1056A00090930605A0930705B0930805BF91AF91AD
:1056B0009F918F911F901FBE1F90189580910D058F
:1056C000843031F10E94C80410922D0488E190E0EA
:1056D00020E40FB6F894A895809360000FBE209345
:1056E000600083B7817F846083BF83B7816083BF9D
:1056F0007894889583B78E7F83BF0FB6F894A8956A
:1057000080916000886180936000109260000FBEFD
:1057100008950E94FB060C94CC0482E084BD93E0C3
:1057200095BD9AEF97BD80936E0008952FB7F894BA
:105730008091050590910605A0910705B091080597
:105740002FBF08952FB7F894609105057091060555
:1057500080910705909108052FBF08959C014FB7D0
:10576000F8948091050590910605A0910705B091E8
:1057700008054FBF821B930B089578941F921FB6A4
:105780001F9211248F939F93AF93BF938091050530
:1057900090910605A0910705B09108050196A11DFD
:1057A000B11D8093050590930605A0930705B0935E
:1057B0000805BF91AF919F918F911F901FBE1F90C1
:1057C000189581E08093E00080E28093D8001092E9
:1057D000C9008FE19EE40197F1F700C0000087E067
:1057E00090EBDC018093160590931705A0931805A4
:1057F000B093190588E19CE00FB6F894A8958093C2
:1058000060000FBE90936000FFCF80915104089517
:105810000895CF93DF93EC01809116018823B1F1B5
:105820008091530487FF32C060E284E08093E900F6
:105830008FEF9091E800815095FD06C095ED9A9507
:10584000F1F700008111F5CF8091E80085FF1BC0C2
:105850008091160170E050E040E0811104C050E0FA
:1058600040E068E070E0CE010E94932E8091E80055
:105870008E778093E80080E2FE01A1E3B4E001901E
:105880000D928A95E1F7DF91CF91089568E081E06C
:10589000CDCF80932E047093300460932F048091B9
:1058A0000D058430F9F48093E9008FEF9091E800C2
:1058B000815095FD06C095ED9A95F1F70000811194
:1058C000F5CF8091E80085FF0DC050E040E063E037
:1058D00070E08EE294E00E94932E8091E8008E7733
:1058E0008093E8000895BC0184E00C94492CBC012D
:1058F00083E00C94492C0895CF93FC01603221F58C
:1059000080910D05843001F5C091E900CF702091A0
:10591000EC00922F917020FD90E8C92B82E08093DB
:10592000E9008091E80080FF0CC050E040E060E2B8
:1059300070E0CF010E94932E8091E8008E778093D3
:10594000E800CF70C093E900CF91089580910C05D5
:10595000811109C00E9472300E94CF308091E20014
:1059600084608093E200089510920C0508950C94D1
:10597000122B6091090581E0611101C080E00C9457
:105980000B2B90910D0581E0943009F080E060913F
:1059900009050C94102B42E061EC81E00E94EE2F8F
:1059A00042E261EC84E00E94EE2F42E261EC82E090
:1059B0000E94EE2F42E260EC83E00E94EE2F909175
:1059C0000D0581E0943009F080E0609109050C94A8
:1059D000022B80910F05833009F462C030F48130CE
:1059E000D9F1823009F49EC008958A3009F48AC042
:1059F0008B3009F470C0893009F051C080910E05D8
:105A0000813209F04CC080911205909113050097E6
:105A100019F0029709F043C08091E800877F8093D6
:105A2000E8008091E80082FF36C09091F3008091F9
:105A3000F200029731F48091F100813011F086304C
:105A400021F48091F100809351048091E8008B77DC
:105A50008093E8000C94223080910E05813AF9F48D
:105A60008091E800877F8093E800809112059091F3
:105A70001305892B61F460E281E394E070E00E94F9
:105A8000312F8091E8008B778093E800089560E0E3
:105A900090E080E0F3CF80910D058111C2CF089591
:105AA00080910E05813AD9F78091120590911305E6
:105AB000892BA9F78091E800877F8093E800809187
:105AC000E80080FFFCCF809116018093F100809167
:105AD000E8008E77BDCF80910E05813201F780916D
